{
	"ddd.sol": {
		"Tris": {
			"abi": [
				{
					"inputs": [],
					"stateMutability": "nonpayable",
					"type": "constructor"
				},
				{
					"anonymous": false,
					"inputs": [
						{
							"indexed": false,
							"internalType": "address",
							"name": "playerA",
							"type": "address"
						},
						{
							"indexed": false,
							"internalType": "address",
							"name": "playerB",
							"type": "address"
						}
					],
					"name": "GameStarted",
					"type": "event"
				},
				{
					"anonymous": false,
					"inputs": [
						{
							"indexed": true,
							"internalType": "address",
							"name": "previousOwner",
							"type": "address"
						},
						{
							"indexed": true,
							"internalType": "address",
							"name": "newOwner",
							"type": "address"
						}
					],
					"name": "OwnershipTransferred",
					"type": "event"
				},
				{
					"inputs": [],
					"name": "_startTurn",
					"outputs": [
						{
							"internalType": "uint256",
							"name": "",
							"type": "uint256"
						}
					],
					"stateMutability": "view",
					"type": "function"
				},
				{
					"inputs": [],
					"name": "game",
					"outputs": [
						{
							"internalType": "address",
							"name": "lastPlayed",
							"type": "address"
						},
						{
							"internalType": "uint256",
							"name": "playTime",
							"type": "uint256"
						}
					],
					"stateMutability": "view",
					"type": "function"
				},
				{
					"inputs": [
						{
							"internalType": "uint256",
							"name": "",
							"type": "uint256"
						}
					],
					"name": "gameBoard",
					"outputs": [
						{
							"internalType": "address",
							"name": "",
							"type": "address"
						}
					],
					"stateMutability": "view",
					"type": "function"
				},
				{
					"inputs": [],
					"name": "gameOver",
					"outputs": [
						{
							"internalType": "bool",
							"name": "",
							"type": "bool"
						}
					],
					"stateMutability": "view",
					"type": "function"
				},
				{
					"inputs": [],
					"name": "getPlayersMoves",
					"outputs": [
						{
							"internalType": "uint8[]",
							"name": "",
							"type": "uint8[]"
						}
					],
					"stateMutability": "view",
					"type": "function"
				},
				{
					"inputs": [],
					"name": "lastPlayed",
					"outputs": [
						{
							"internalType": "address",
							"name": "",
							"type": "address"
						}
					],
					"stateMutability": "view",
					"type": "function"
				},
				{
					"inputs": [],
					"name": "moveTaken",
					"outputs": [
						{
							"internalType": "uint256",
							"name": "",
							"type": "uint256"
						}
					],
					"stateMutability": "view",
					"type": "function"
				},
				{
					"inputs": [],
					"name": "owner",
					"outputs": [
						{
							"internalType": "address",
							"name": "",
							"type": "address"
						}
					],
					"stateMutability": "view",
					"type": "function"
				},
				{
					"inputs": [],
					"name": "player",
					"outputs": [
						{
							"internalType": "address",
							"name": "user",
							"type": "address"
						},
						{
							"internalType": "bool",
							"name": "turnIsFinished",
							"type": "bool"
						}
					],
					"stateMutability": "view",
					"type": "function"
				},
				{
					"inputs": [],
					"name": "playerA",
					"outputs": [
						{
							"internalType": "address",
							"name": "",
							"type": "address"
						}
					],
					"stateMutability": "view",
					"type": "function"
				},
				{
					"inputs": [],
					"name": "playerB",
					"outputs": [
						{
							"internalType": "address",
							"name": "",
							"type": "address"
						}
					],
					"stateMutability": "view",
					"type": "function"
				},
				{
					"inputs": [
						{
							"internalType": "address",
							"name": "",
							"type": "address"
						},
						{
							"internalType": "uint256",
							"name": "",
							"type": "uint256"
						}
					],
					"name": "playerMoves",
					"outputs": [
						{
							"internalType": "uint8",
							"name": "",
							"type": "uint8"
						}
					],
					"stateMutability": "view",
					"type": "function"
				},
				{
					"inputs": [],
					"name": "pleya",
					"outputs": [
						{
							"internalType": "address",
							"name": "playerA",
							"type": "address"
						},
						{
							"internalType": "bool",
							"name": "start",
							"type": "bool"
						}
					],
					"stateMutability": "view",
					"type": "function"
				},
				{
					"inputs": [],
					"name": "renounceOwnership",
					"outputs": [],
					"stateMutability": "nonpayable",
					"type": "function"
				},
				{
					"inputs": [],
					"name": "session",
					"outputs": [
						{
							"internalType": "uint256",
							"name": "",
							"type": "uint256"
						}
					],
					"stateMutability": "view",
					"type": "function"
				},
				{
					"inputs": [
						{
							"internalType": "address",
							"name": "_player1",
							"type": "address"
						},
						{
							"internalType": "address",
							"name": "_player2",
							"type": "address"
						}
					],
					"name": "startGame",
					"outputs": [],
					"stateMutability": "nonpayable",
					"type": "function"
				},
				{
					"inputs": [],
					"name": "timer",
					"outputs": [
						{
							"internalType": "bool",
							"name": "",
							"type": "bool"
						}
					],
					"stateMutability": "view",
					"type": "function"
				},
				{
					"inputs": [
						{
							"internalType": "address",
							"name": "newOwner",
							"type": "address"
						}
					],
					"name": "transferOwnership",
					"outputs": [],
					"stateMutability": "nonpayable",
					"type": "function"
				},
				{
					"inputs": [],
					"name": "turnsTaken",
					"outputs": [
						{
							"internalType": "uint256",
							"name": "",
							"type": "uint256"
						}
					],
					"stateMutability": "view",
					"type": "function"
				},
				{
					"inputs": [],
					"name": "winner",
					"outputs": [
						{
							"internalType": "address",
							"name": "",
							"type": "address"
						}
					],
					"stateMutability": "view",
					"type": "function"
				},
				{
					"inputs": [
						{
							"internalType": "uint256",
							"name": "_move",
							"type": "uint256"
						}
					],
					"name": "yourMove",
					"outputs": [],
					"stateMutability": "nonpayable",
					"type": "function"
				}
			],
			"devdoc": {
				"kind": "dev",
				"methods": {
					"owner()": {
						"details": "Returns the address of the current owner."
					},
					"renounceOwnership()": {
						"details": "Leaves the contract without owner. It will not be possible to call `onlyOwner` functions anymore. Can only be called by the current owner. NOTE: Renouncing ownership will leave the contract without an owner, thereby removing any functionality that is only available to the owner."
					},
					"transferOwnership(address)": {
						"details": "Transfers ownership of the contract to a new account (`newOwner`). Can only be called by the current owner."
					}
				},
				"version": 1
			},
			"evm": {
				"assembly": "    /* \"ddd.sol\":116:3770  contract Tris is Ownable {\r... */\n  mstore(0x40, 0x80)\n    /* \"ddd.sol\":444:499  constructor () { \r... */\n  callvalue\n  dup1\n  iszero\n  tag_1\n  jumpi\n  0x00\n  dup1\n  revert\ntag_1:\n  pop\n    /* \"@openzeppelin/contracts/access/Ownable.sol\":936:968  _transferOwnership(_msgSender()) */\n  tag_5\n    /* \"@openzeppelin/contracts/access/Ownable.sol\":955:967  _msgSender() */\n  tag_6\n    /* \"@openzeppelin/contracts/access/Ownable.sol\":955:965  _msgSender */\n  shl(0x20, tag_7)\n    /* \"@openzeppelin/contracts/access/Ownable.sol\":955:967  _msgSender() */\n  0x20\n  shr\n  jump\t// in\ntag_6:\n    /* \"@openzeppelin/contracts/access/Ownable.sol\":936:954  _transferOwnership */\n  shl(0x20, tag_8)\n    /* \"@openzeppelin/contracts/access/Ownable.sol\":936:968  _transferOwnership(_msgSender()) */\n  0x20\n  shr\n  jump\t// in\ntag_5:\n    /* \"ddd.sol\":481:491  30 seconds */\n  0x1e\n    /* \"ddd.sol\":471:478  session */\n  0x07\n    /* \"ddd.sol\":471:491  session = 30 seconds */\n  dup2\n  swap1\n  sstore\n  pop\n    /* \"ddd.sol\":116:3770  contract Tris is Ownable {\r... */\n  jump(tag_10)\n    /* \"@openzeppelin/contracts/utils/Context.sol\":640:736  function _msgSender() internal view virtual returns (address) {... */\ntag_7:\n    /* \"@openzeppelin/contracts/utils/Context.sol\":693:700  address */\n  0x00\n    /* \"@openzeppelin/contracts/utils/Context.sol\":719:729  msg.sender */\n  caller\n    /* \"@openzeppelin/contracts/utils/Context.sol\":712:729  return msg.sender */\n  swap1\n  pop\n    /* \"@openzeppelin/contracts/utils/Context.sol\":640:736  function _msgSender() internal view virtual returns (address) {... */\n  swap1\n  jump\t// out\n    /* \"@openzeppelin/contracts/access/Ownable.sol\":2433:2620  function _transferOwnership(address newOwner) internal virtual {... */\ntag_8:\n    /* \"@openzeppelin/contracts/access/Ownable.sol\":2506:2522  address oldOwner */\n  0x00\n    /* \"@openzeppelin/contracts/access/Ownable.sol\":2525:2531  _owner */\n  dup1\n  0x00\n  swap1\n  sload\n  swap1\n  0x0100\n  exp\n  swap1\n  div\n  0xffffffffffffffffffffffffffffffffffffffff\n  and\n    /* \"@openzeppelin/contracts/access/Ownable.sol\":2506:2531  address oldOwner = _owner */\n  swap1\n  pop\n    /* \"@openzeppelin/contracts/access/Ownable.sol\":2550:2558  newOwner */\n  dup2\n    /* \"@openzeppelin/contracts/access/Ownable.sol\":2541:2547  _owner */\n  0x00\n  dup1\n    /* \"@openzeppelin/contracts/access/Ownable.sol\":2541:2558  _owner = newOwner */\n  0x0100\n  exp\n  dup2\n  sload\n  dup2\n  0xffffffffffffffffffffffffffffffffffffffff\n  mul\n  not\n  and\n  swap1\n  dup4\n  0xffffffffffffffffffffffffffffffffffffffff\n  and\n  mul\n  or\n  swap1\n  sstore\n  pop\n    /* \"@openzeppelin/contracts/access/Ownable.sol\":2604:2612  newOwner */\n  dup2\n    /* \"@openzeppelin/contracts/access/Ownable.sol\":2573:2613  OwnershipTransferred(oldOwner, newOwner) */\n  0xffffffffffffffffffffffffffffffffffffffff\n  and\n    /* \"@openzeppelin/contracts/access/Ownable.sol\":2594:2602  oldOwner */\n  dup2\n    /* \"@openzeppelin/contracts/access/Ownable.sol\":2573:2613  OwnershipTransferred(oldOwner, newOwner) */\n  0xffffffffffffffffffffffffffffffffffffffff\n  and\n  0x8be0079c531659141344cd1fd0a4f28419497f9722a3daafe3b4186f6b6457e0\n  mload(0x40)\n  mload(0x40)\n  dup1\n  swap2\n  sub\n  swap1\n  log3\n    /* \"@openzeppelin/contracts/access/Ownable.sol\":2496:2620  {... */\n  pop\n    /* \"@openzeppelin/contracts/access/Ownable.sol\":2433:2620  function _transferOwnership(address newOwner) internal virtual {... */\n  pop\n  jump\t// out\n    /* \"ddd.sol\":116:3770  contract Tris is Ownable {\r... */\ntag_10:\n  dataSize(sub_0)\n  dup1\n  dataOffset(sub_0)\n  0x00\n  codecopy\n  0x00\n  return\nstop\n\nsub_0: assembly {\n        /* \"ddd.sol\":116:3770  contract Tris is Ownable {\r... */\n      mstore(0x40, 0x80)\n      callvalue\n      dup1\n      iszero\n      tag_1\n      jumpi\n      0x00\n      dup1\n      revert\n    tag_1:\n      pop\n      jumpi(tag_2, lt(calldatasize, 0x04))\n      shr(0xe0, calldataload(0x00))\n      dup1\n      0x715018a6\n      gt\n      tag_24\n      jumpi\n      dup1\n      0xbdb337d1\n      gt\n      tag_25\n      jumpi\n      dup1\n      0xbdb337d1\n      eq\n      tag_18\n      jumpi\n      dup1\n      0xc3fe3e28\n      eq\n      tag_19\n      jumpi\n      dup1\n      0xc5339132\n      eq\n      tag_20\n      jumpi\n      dup1\n      0xdfbf53ae\n      eq\n      tag_21\n      jumpi\n      dup1\n      0xeb23b56b\n      eq\n      tag_22\n      jumpi\n      dup1\n      0xf2fde38b\n      eq\n      tag_23\n      jumpi\n      jump(tag_2)\n    tag_25:\n      dup1\n      0x715018a6\n      eq\n      tag_13\n      jumpi\n      dup1\n      0x88c9cb3c\n      eq\n      tag_14\n      jumpi\n      dup1\n      0x8da5cb5b\n      eq\n      tag_15\n      jumpi\n      dup1\n      0xa285c54a\n      eq\n      tag_16\n      jumpi\n      dup1\n      0xbc120879\n      eq\n      tag_17\n      jumpi\n      jump(tag_2)\n    tag_24:\n      dup1\n      0x48db5f89\n      gt\n      tag_26\n      jumpi\n      dup1\n      0x48db5f89\n      eq\n      tag_8\n      jumpi\n      dup1\n      0x554693b1\n      eq\n      tag_9\n      jumpi\n      dup1\n      0x5d248301\n      eq\n      tag_10\n      jumpi\n      dup1\n      0x5e3568b8\n      eq\n      tag_11\n      jumpi\n      dup1\n      0x620633cb\n      eq\n      tag_12\n      jumpi\n      jump(tag_2)\n    tag_26:\n      dup1\n      0x041a8486\n      eq\n      tag_3\n      jumpi\n      dup1\n      0x11bb1537\n      eq\n      tag_4\n      jumpi\n      dup1\n      0x1a8a8dd8\n      eq\n      tag_5\n      jumpi\n      dup1\n      0x22f976ff\n      eq\n      tag_6\n      jumpi\n      dup1\n      0x393f7eb6\n      eq\n      tag_7\n      jumpi\n    tag_2:\n      0x00\n      dup1\n      revert\n        /* \"ddd.sol\":387:409  uint public _startTurn */\n    tag_3:\n      tag_27\n      tag_28\n      jump\t// in\n    tag_27:\n      mload(0x40)\n      tag_29\n      swap2\n      swap1\n      tag_30\n      jump\t// in\n    tag_29:\n      mload(0x40)\n      dup1\n      swap2\n      sub\n      swap1\n      return\n        /* \"ddd.sol\":178:200  address public playerB */\n    tag_4:\n      tag_31\n      tag_32\n      jump\t// in\n    tag_31:\n      mload(0x40)\n      tag_33\n      swap2\n      swap1\n      tag_34\n      jump\t// in\n    tag_33:\n      mload(0x40)\n      dup1\n      swap2\n      sub\n      swap1\n      return\n        /* \"ddd.sol\":840:858  Playe public pleya */\n    tag_5:\n      tag_35\n      tag_36\n      jump\t// in\n    tag_35:\n      mload(0x40)\n      tag_37\n      swap3\n      swap2\n      swap1\n      tag_38\n      jump\t// in\n    tag_37:\n      mload(0x40)\n      dup1\n      swap2\n      sub\n      swap1\n      return\n        /* \"ddd.sol\":865:911  mapping(address => uint8[]) public playerMoves */\n    tag_6:\n      tag_39\n      0x04\n      dup1\n      calldatasize\n      sub\n      dup2\n      add\n      swap1\n      tag_40\n      swap2\n      swap1\n      tag_41\n      jump\t// in\n    tag_40:\n      tag_42\n      jump\t// in\n    tag_39:\n      mload(0x40)\n      tag_43\n      swap2\n      swap1\n      tag_44\n      jump\t// in\n    tag_43:\n      mload(0x40)\n      dup1\n      swap2\n      sub\n      swap1\n      return\n        /* \"ddd.sol\":1595:2664  function yourMove(uint _move) public {\r... */\n    tag_7:\n      tag_45\n      0x04\n      dup1\n      calldatasize\n      sub\n      dup2\n      add\n      swap1\n      tag_46\n      swap2\n      swap1\n      tag_47\n      jump\t// in\n    tag_46:\n      tag_48\n      jump\t// in\n    tag_45:\n      stop\n        /* \"ddd.sol\":681:701  Player public player */\n    tag_8:\n      tag_49\n      tag_50\n      jump\t// in\n    tag_49:\n      mload(0x40)\n      tag_51\n      swap3\n      swap2\n      swap1\n      tag_38\n      jump\t// in\n    tag_51:\n      mload(0x40)\n      dup1\n      swap2\n      sub\n      swap1\n      return\n        /* \"ddd.sol\":327:351  uint256 public moveTaken */\n    tag_9:\n      tag_52\n      tag_53\n      jump\t// in\n    tag_52:\n      mload(0x40)\n      tag_54\n      swap2\n      swap1\n      tag_30\n      jump\t// in\n    tag_54:\n      mload(0x40)\n      dup1\n      swap2\n      sub\n      swap1\n      return\n        /* \"ddd.sol\":533:559  address[] public gameBoard */\n    tag_10:\n      tag_55\n      0x04\n      dup1\n      calldatasize\n      sub\n      dup2\n      add\n      swap1\n      tag_56\n      swap2\n      swap1\n      tag_47\n      jump\t// in\n    tag_56:\n      tag_57\n      jump\t// in\n    tag_55:\n      mload(0x40)\n      tag_58\n      swap2\n      swap1\n      tag_34\n      jump\t// in\n    tag_58:\n      mload(0x40)\n      dup1\n      swap2\n      sub\n      swap1\n      return\n        /* \"ddd.sol\":358:380  uint256 public session */\n    tag_11:\n      tag_59\n      tag_60\n      jump\t// in\n    tag_59:\n      mload(0x40)\n      tag_61\n      swap2\n      swap1\n      tag_30\n      jump\t// in\n    tag_61:\n      mload(0x40)\n      dup1\n      swap2\n      sub\n      swap1\n      return\n        /* \"ddd.sol\":3652:3765  function getPlayersMoves() public view returns (uint8[] memory) {\r... */\n    tag_12:\n      tag_62\n      tag_63\n      jump\t// in\n    tag_62:\n      mload(0x40)\n      tag_64\n      swap2\n      swap1\n      tag_65\n      jump\t// in\n    tag_64:\n      mload(0x40)\n      dup1\n      swap2\n      sub\n      swap1\n      return\n        /* \"@openzeppelin/contracts/access/Ownable.sol\":1831:1932  function renounceOwnership() public virtual onlyOwner {... */\n    tag_13:\n      tag_66\n      tag_67\n      jump\t// in\n    tag_66:\n      stop\n        /* \"ddd.sol\":416:433  bool public timer */\n    tag_14:\n      tag_68\n      tag_69\n      jump\t// in\n    tag_68:\n      mload(0x40)\n      tag_70\n      swap2\n      swap1\n      tag_71\n      jump\t// in\n    tag_70:\n      mload(0x40)\n      dup1\n      swap2\n      sub\n      swap1\n      return\n        /* \"@openzeppelin/contracts/access/Ownable.sol\":1201:1286  function owner() public view virtual returns (address) {... */\n    tag_15:\n      tag_72\n      tag_73\n      jump\t// in\n    tag_72:\n      mload(0x40)\n      tag_74\n      swap2\n      swap1\n      tag_34\n      jump\t// in\n    tag_74:\n      mload(0x40)\n      dup1\n      swap2\n      sub\n      swap1\n      return\n        /* \"ddd.sol\":148:170  address public playerA */\n    tag_16:\n      tag_75\n      tag_76\n      jump\t// in\n    tag_75:\n      mload(0x40)\n      tag_77\n      swap2\n      swap1\n      tag_34\n      jump\t// in\n    tag_77:\n      mload(0x40)\n      dup1\n      swap2\n      sub\n      swap1\n      return\n        /* \"ddd.sol\":295:320  uint256 public turnsTaken */\n    tag_17:\n      tag_78\n      tag_79\n      jump\t// in\n    tag_78:\n      mload(0x40)\n      tag_80\n      swap2\n      swap1\n      tag_30\n      jump\t// in\n    tag_80:\n      mload(0x40)\n      dup1\n      swap2\n      sub\n      swap1\n      return\n        /* \"ddd.sol\":268:288  bool public gameOver */\n    tag_18:\n      tag_81\n      tag_82\n      jump\t// in\n    tag_81:\n      mload(0x40)\n      tag_83\n      swap2\n      swap1\n      tag_71\n      jump\t// in\n    tag_83:\n      mload(0x40)\n      dup1\n      swap2\n      sub\n      swap1\n      return\n        /* \"ddd.sol\":1186:1202  Game public game */\n    tag_19:\n      tag_84\n      tag_85\n      jump\t// in\n    tag_84:\n      mload(0x40)\n      tag_86\n      swap3\n      swap2\n      swap1\n      tag_87\n      jump\t// in\n    tag_86:\n      mload(0x40)\n      dup1\n      swap2\n      sub\n      swap1\n      return\n        /* \"ddd.sol\":208:233  address public lastPlayed */\n    tag_20:\n      tag_88\n      tag_89\n      jump\t// in\n    tag_88:\n      mload(0x40)\n      tag_90\n      swap2\n      swap1\n      tag_34\n      jump\t// in\n    tag_90:\n      mload(0x40)\n      dup1\n      swap2\n      sub\n      swap1\n      return\n        /* \"ddd.sol\":240:261  address public winner */\n    tag_21:\n      tag_91\n      tag_92\n      jump\t// in\n    tag_91:\n      mload(0x40)\n      tag_93\n      swap2\n      swap1\n      tag_34\n      jump\t// in\n    tag_93:\n      mload(0x40)\n      dup1\n      swap2\n      sub\n      swap1\n      return\n        /* \"ddd.sol\":1370:1585  function startGame(address _player1, address _player2) external {\r... */\n    tag_22:\n      tag_94\n      0x04\n      dup1\n      calldatasize\n      sub\n      dup2\n      add\n      swap1\n      tag_95\n      swap2\n      swap1\n      tag_96\n      jump\t// in\n    tag_95:\n      tag_97\n      jump\t// in\n    tag_94:\n      stop\n        /* \"@openzeppelin/contracts/access/Ownable.sol\":2081:2279  function transferOwnership(address newOwner) public virtual onlyOwner {... */\n    tag_23:\n      tag_98\n      0x04\n      dup1\n      calldatasize\n      sub\n      dup2\n      add\n      swap1\n      tag_99\n      swap2\n      swap1\n      tag_100\n      jump\t// in\n    tag_99:\n      tag_101\n      jump\t// in\n    tag_98:\n      stop\n        /* \"ddd.sol\":387:409  uint public _startTurn */\n    tag_28:\n      sload(0x08)\n      dup2\n      jump\t// out\n        /* \"ddd.sol\":178:200  address public playerB */\n    tag_32:\n      0x02\n      0x00\n      swap1\n      sload\n      swap1\n      0x0100\n      exp\n      swap1\n      div\n      0xffffffffffffffffffffffffffffffffffffffff\n      and\n      dup2\n      jump\t// out\n        /* \"ddd.sol\":840:858  Playe public pleya */\n    tag_36:\n      0x0d\n      dup1\n      0x00\n      add\n      0x00\n      swap1\n      sload\n      swap1\n      0x0100\n      exp\n      swap1\n      div\n      0xffffffffffffffffffffffffffffffffffffffff\n      and\n      swap1\n      dup1\n      0x00\n      add\n      0x14\n      swap1\n      sload\n      swap1\n      0x0100\n      exp\n      swap1\n      div\n      0xff\n      and\n      swap1\n      pop\n      dup3\n      jump\t// out\n        /* \"ddd.sol\":865:911  mapping(address => uint8[]) public playerMoves */\n    tag_42:\n      mstore(0x20, 0x0e)\n      dup2\n      0x00\n      mstore\n      keccak256(0x00, 0x40)\n      dup2\n      dup2\n      sload\n      dup2\n      lt\n      tag_102\n      jumpi\n      0x00\n      dup1\n      revert\n    tag_102:\n      swap1\n      0x00\n      mstore\n      keccak256(0x00, 0x20)\n      swap1\n      0x20\n      swap2\n      dup3\n      dup3\n      div\n      add\n      swap2\n      swap1\n      mod\n      swap2\n      pop\n      swap2\n      pop\n      swap1\n      sload\n      swap1\n      0x0100\n      exp\n      swap1\n      div\n      0xff\n      and\n      dup2\n      jump\t// out\n        /* \"ddd.sol\":1595:2664  function yourMove(uint _move) public {\r... */\n    tag_48:\n        /* \"ddd.sol\":1652:1660  gameOver */\n      0x04\n      0x14\n      swap1\n      sload\n      swap1\n      0x0100\n      exp\n      swap1\n      div\n      0xff\n      and\n        /* \"ddd.sol\":1651:1660  !gameOver */\n      iszero\n        /* \"ddd.sol\":1643:1677  require(!gameOver, \"game is over\") */\n      tag_105\n      jumpi\n      mload(0x40)\n      0x08c379a000000000000000000000000000000000000000000000000000000000\n      dup2\n      mstore\n      0x04\n      add\n      tag_106\n      swap1\n      tag_107\n      jump\t// in\n    tag_106:\n      mload(0x40)\n      dup1\n      swap2\n      sub\n      swap1\n      revert\n    tag_105:\n        /* \"ddd.sol\":1711:1718  playerA */\n      0x01\n      0x00\n      swap1\n      sload\n      swap1\n      0x0100\n      exp\n      swap1\n      div\n      0xffffffffffffffffffffffffffffffffffffffff\n      and\n        /* \"ddd.sol\":1697:1718  msg.sender == playerA */\n      0xffffffffffffffffffffffffffffffffffffffff\n      and\n        /* \"ddd.sol\":1697:1707  msg.sender */\n      caller\n        /* \"ddd.sol\":1697:1718  msg.sender == playerA */\n      0xffffffffffffffffffffffffffffffffffffffff\n      and\n      eq\n        /* \"ddd.sol\":1697:1743  msg.sender == playerA || msg.sender == playerB */\n      dup1\n      tag_108\n      jumpi\n      pop\n        /* \"ddd.sol\":1736:1743  playerB */\n      0x02\n      0x00\n      swap1\n      sload\n      swap1\n      0x0100\n      exp\n      swap1\n      div\n      0xffffffffffffffffffffffffffffffffffffffff\n      and\n        /* \"ddd.sol\":1722:1743  msg.sender == playerB */\n      0xffffffffffffffffffffffffffffffffffffffff\n      and\n        /* \"ddd.sol\":1722:1732  msg.sender */\n      caller\n        /* \"ddd.sol\":1722:1743  msg.sender == playerB */\n      0xffffffffffffffffffffffffffffffffffffffff\n      and\n      eq\n        /* \"ddd.sol\":1697:1743  msg.sender == playerA || msg.sender == playerB */\n    tag_108:\n        /* \"ddd.sol\":1689:1773  require(msg.sender == playerA || msg.sender == playerB, \"this player isn't playing\") */\n      tag_109\n      jumpi\n      mload(0x40)\n      0x08c379a000000000000000000000000000000000000000000000000000000000\n      dup2\n      mstore\n      0x04\n      add\n      tag_110\n      swap1\n      tag_111\n      jump\t// in\n    tag_110:\n      mload(0x40)\n      dup1\n      swap2\n      sub\n      swap1\n      revert\n    tag_109:\n        /* \"ddd.sol\":1824:1834  lastPlayed */\n      0x03\n      0x00\n      swap1\n      sload\n      swap1\n      0x0100\n      exp\n      swap1\n      div\n      0xffffffffffffffffffffffffffffffffffffffff\n      and\n        /* \"ddd.sol\":1810:1834  msg.sender != lastPlayed */\n      0xffffffffffffffffffffffffffffffffffffffff\n      and\n        /* \"ddd.sol\":1810:1820  msg.sender */\n      caller\n        /* \"ddd.sol\":1810:1834  msg.sender != lastPlayed */\n      0xffffffffffffffffffffffffffffffffffffffff\n      and\n      eq\n      iszero\n        /* \"ddd.sol\":1802:1853  require(msg.sender != lastPlayed, \"Not your turn.\") */\n      tag_112\n      jumpi\n      mload(0x40)\n      0x08c379a000000000000000000000000000000000000000000000000000000000\n      dup2\n      mstore\n      0x04\n      add\n      tag_113\n      swap1\n      tag_114\n      jump\t// in\n    tag_113:\n      mload(0x40)\n      dup1\n      swap2\n      sub\n      swap1\n      revert\n    tag_112:\n        /* \"ddd.sol\":1959:1974  block.timestamp */\n      timestamp\n        /* \"ddd.sol\":1946:1956  _startTurn */\n      0x08\n        /* \"ddd.sol\":1946:1974  _startTurn = block.timestamp */\n      dup2\n      swap1\n      sstore\n      pop\n        /* \"ddd.sol\":2008:2018  30 seconds */\n      0x1e\n        /* \"ddd.sol\":1995:2005  _startTurn */\n      sload(0x08)\n        /* \"ddd.sol\":1995:2018  _startTurn + 30 seconds */\n      tag_115\n      swap2\n      swap1\n      tag_116\n      jump\t// in\n    tag_115:\n        /* \"ddd.sol\":1985:1992  session */\n      0x07\n        /* \"ddd.sol\":1985:2018  session = _startTurn + 30 seconds */\n      dup2\n      swap1\n      sstore\n      pop\n        /* \"ddd.sol\":2298:2307  gameBoard */\n      0x0a\n        /* \"ddd.sol\":2313:2323  msg.sender */\n      caller\n        /* \"ddd.sol\":2298:2324  gameBoard.push(msg.sender) */\n      swap1\n      dup1\n      0x01\n      dup2\n      sload\n      add\n      dup1\n      dup3\n      sstore\n      dup1\n      swap2\n      pop\n      pop\n      0x01\n      swap1\n      sub\n      swap1\n      0x00\n      mstore\n      keccak256(0x00, 0x20)\n      add\n      0x00\n      swap1\n      swap2\n      swap1\n      swap2\n      swap1\n      swap2\n      0x0100\n      exp\n      dup2\n      sload\n      dup2\n      0xffffffffffffffffffffffffffffffffffffffff\n      mul\n      not\n      and\n      swap1\n      dup4\n      0xffffffffffffffffffffffffffffffffffffffff\n      and\n      mul\n      or\n      swap1\n      sstore\n      pop\n        /* \"ddd.sol\":2396:2406  msg.sender */\n      caller\n        /* \"ddd.sol\":2383:2393  lastPlayed */\n      0x03\n      0x00\n        /* \"ddd.sol\":2383:2406  lastPlayed = msg.sender */\n      0x0100\n      exp\n      dup2\n      sload\n      dup2\n      0xffffffffffffffffffffffffffffffffffffffff\n      mul\n      not\n      and\n      swap1\n      dup4\n      0xffffffffffffffffffffffffffffffffffffffff\n      and\n      mul\n      or\n      swap1\n      sstore\n      pop\n        /* \"ddd.sol\":2429:2434  _move */\n      dup1\n        /* \"ddd.sol\":2417:2426  moveTaken */\n      0x06\n        /* \"ddd.sol\":2417:2434  moveTaken = _move */\n      dup2\n      swap1\n      sstore\n      pop\n        /* \"ddd.sol\":2445:2455  turnsTaken */\n      0x05\n      0x00\n        /* \"ddd.sol\":2445:2457  turnsTaken++ */\n      dup2\n      sload\n      dup1\n      swap3\n      swap2\n      swap1\n      tag_118\n      swap1\n      tag_119\n      jump\t// in\n    tag_118:\n      swap2\n      swap1\n      pop\n      sstore\n      pop\n        /* \"ddd.sol\":1595:2664  function yourMove(uint _move) public {\r... */\n      pop\n      jump\t// out\n        /* \"ddd.sol\":681:701  Player public player */\n    tag_50:\n      0x0b\n      dup1\n      0x00\n      add\n      0x00\n      swap1\n      sload\n      swap1\n      0x0100\n      exp\n      swap1\n      div\n      0xffffffffffffffffffffffffffffffffffffffff\n      and\n      swap1\n      dup1\n      0x00\n      add\n      0x14\n      swap1\n      sload\n      swap1\n      0x0100\n      exp\n      swap1\n      div\n      0xff\n      and\n      swap1\n      pop\n      dup3\n      jump\t// out\n        /* \"ddd.sol\":327:351  uint256 public moveTaken */\n    tag_53:\n      sload(0x06)\n      dup2\n      jump\t// out\n        /* \"ddd.sol\":533:559  address[] public gameBoard */\n    tag_57:\n      0x0a\n      dup2\n      dup2\n      sload\n      dup2\n      lt\n      tag_120\n      jumpi\n      0x00\n      dup1\n      revert\n    tag_120:\n      swap1\n      0x00\n      mstore\n      keccak256(0x00, 0x20)\n      add\n      0x00\n      swap2\n      pop\n      sload\n      swap1\n      0x0100\n      exp\n      swap1\n      div\n      0xffffffffffffffffffffffffffffffffffffffff\n      and\n      dup2\n      jump\t// out\n        /* \"ddd.sol\":358:380  uint256 public session */\n    tag_60:\n      sload(0x07)\n      dup2\n      jump\t// out\n        /* \"ddd.sol\":3652:3765  function getPlayersMoves() public view returns (uint8[] memory) {\r... */\n    tag_63:\n        /* \"ddd.sol\":3700:3714  uint8[] memory */\n      0x60\n        /* \"ddd.sol\":3734:3745  playerMoves */\n      0x0e\n        /* \"ddd.sol\":3734:3757  playerMoves[msg.sender] */\n      0x00\n        /* \"ddd.sol\":3746:3756  msg.sender */\n      caller\n        /* \"ddd.sol\":3734:3757  playerMoves[msg.sender] */\n      0xffffffffffffffffffffffffffffffffffffffff\n      and\n      0xffffffffffffffffffffffffffffffffffffffff\n      and\n      dup2\n      mstore\n      0x20\n      add\n      swap1\n      dup2\n      mstore\n      0x20\n      add\n      0x00\n      keccak256\n        /* \"ddd.sol\":3727:3757  return playerMoves[msg.sender] */\n      dup1\n      sload\n      dup1\n      0x20\n      mul\n      0x20\n      add\n      mload(0x40)\n      swap1\n      dup2\n      add\n      0x40\n      mstore\n      dup1\n      swap3\n      swap2\n      swap1\n      dup2\n      dup2\n      mstore\n      0x20\n      add\n      dup3\n      dup1\n      sload\n      dup1\n      iszero\n      tag_123\n      jumpi\n      0x20\n      mul\n      dup3\n      add\n      swap2\n      swap1\n      0x00\n      mstore\n      keccak256(0x00, 0x20)\n      swap1\n      0x00\n      swap1\n    tag_124:\n      dup3\n      dup3\n      swap1\n      sload\n      swap1\n      0x0100\n      exp\n      swap1\n      div\n      0xff\n      and\n      0xff\n      and\n      dup2\n      mstore\n      0x20\n      add\n      swap1\n      0x01\n      add\n      swap1\n      0x20\n      dup3\n      0x00\n      add\n      div\n      swap3\n      dup4\n      add\n      swap3\n      0x01\n      sub\n      dup3\n      mul\n      swap2\n      pop\n      dup1\n      dup5\n      gt\n      tag_124\n      jumpi\n      swap1\n      pop\n    tag_123:\n      pop\n      pop\n      pop\n      pop\n      pop\n      swap1\n      pop\n        /* \"ddd.sol\":3652:3765  function getPlayersMoves() public view returns (uint8[] memory) {\r... */\n      swap1\n      jump\t// out\n        /* \"@openzeppelin/contracts/access/Ownable.sol\":1831:1932  function renounceOwnership() public virtual onlyOwner {... */\n    tag_67:\n        /* \"@openzeppelin/contracts/access/Ownable.sol\":1094:1107  _checkOwner() */\n      tag_126\n        /* \"@openzeppelin/contracts/access/Ownable.sol\":1094:1105  _checkOwner */\n      tag_127\n        /* \"@openzeppelin/contracts/access/Ownable.sol\":1094:1107  _checkOwner() */\n      jump\t// in\n    tag_126:\n        /* \"@openzeppelin/contracts/access/Ownable.sol\":1895:1925  _transferOwnership(address(0)) */\n      tag_129\n        /* \"@openzeppelin/contracts/access/Ownable.sol\":1922:1923  0 */\n      0x00\n        /* \"@openzeppelin/contracts/access/Ownable.sol\":1895:1913  _transferOwnership */\n      tag_130\n        /* \"@openzeppelin/contracts/access/Ownable.sol\":1895:1925  _transferOwnership(address(0)) */\n      jump\t// in\n    tag_129:\n        /* \"@openzeppelin/contracts/access/Ownable.sol\":1831:1932  function renounceOwnership() public virtual onlyOwner {... */\n      jump\t// out\n        /* \"ddd.sol\":416:433  bool public timer */\n    tag_69:\n      0x09\n      0x00\n      swap1\n      sload\n      swap1\n      0x0100\n      exp\n      swap1\n      div\n      0xff\n      and\n      dup2\n      jump\t// out\n        /* \"@openzeppelin/contracts/access/Ownable.sol\":1201:1286  function owner() public view virtual returns (address) {... */\n    tag_73:\n        /* \"@openzeppelin/contracts/access/Ownable.sol\":1247:1254  address */\n      0x00\n        /* \"@openzeppelin/contracts/access/Ownable.sol\":1273:1279  _owner */\n      dup1\n      0x00\n      swap1\n      sload\n      swap1\n      0x0100\n      exp\n      swap1\n      div\n      0xffffffffffffffffffffffffffffffffffffffff\n      and\n        /* \"@openzeppelin/contracts/access/Ownable.sol\":1266:1279  return _owner */\n      swap1\n      pop\n        /* \"@openzeppelin/contracts/access/Ownable.sol\":1201:1286  function owner() public view virtual returns (address) {... */\n      swap1\n      jump\t// out\n        /* \"ddd.sol\":148:170  address public playerA */\n    tag_76:\n      0x01\n      0x00\n      swap1\n      sload\n      swap1\n      0x0100\n      exp\n      swap1\n      div\n      0xffffffffffffffffffffffffffffffffffffffff\n      and\n      dup2\n      jump\t// out\n        /* \"ddd.sol\":295:320  uint256 public turnsTaken */\n    tag_79:\n      sload(0x05)\n      dup2\n      jump\t// out\n        /* \"ddd.sol\":268:288  bool public gameOver */\n    tag_82:\n      0x04\n      0x14\n      swap1\n      sload\n      swap1\n      0x0100\n      exp\n      swap1\n      div\n      0xff\n      and\n      dup2\n      jump\t// out\n        /* \"ddd.sol\":1186:1202  Game public game */\n    tag_85:\n      0x0f\n      dup1\n      0x00\n      add\n      0x00\n      swap1\n      sload\n      swap1\n      0x0100\n      exp\n      swap1\n      div\n      0xffffffffffffffffffffffffffffffffffffffff\n      and\n      swap1\n      dup1\n      0x01\n      add\n      sload\n      swap1\n      pop\n      dup3\n      jump\t// out\n        /* \"ddd.sol\":208:233  address public lastPlayed */\n    tag_89:\n      0x03\n      0x00\n      swap1\n      sload\n      swap1\n      0x0100\n      exp\n      swap1\n      div\n      0xffffffffffffffffffffffffffffffffffffffff\n      and\n      dup2\n      jump\t// out\n        /* \"ddd.sol\":240:261  address public winner */\n    tag_92:\n      0x04\n      0x00\n      swap1\n      sload\n      swap1\n      0x0100\n      exp\n      swap1\n      div\n      0xffffffffffffffffffffffffffffffffffffffff\n      and\n      dup2\n      jump\t// out\n        /* \"ddd.sol\":1370:1585  function startGame(address _player1, address _player2) external {\r... */\n    tag_97:\n        /* \"ddd.sol\":1465:1473  _player2 */\n      dup1\n        /* \"ddd.sol\":1453:1473  _player1 != _player2 */\n      0xffffffffffffffffffffffffffffffffffffffff\n      and\n        /* \"ddd.sol\":1453:1461  _player1 */\n      dup3\n        /* \"ddd.sol\":1453:1473  _player1 != _player2 */\n      0xffffffffffffffffffffffffffffffffffffffff\n      and\n      eq\n      iszero\n        /* \"ddd.sol\":1445:1474  require(_player1 != _player2) */\n      tag_133\n      jumpi\n      0x00\n      dup1\n      revert\n    tag_133:\n        /* \"ddd.sol\":1495:1503  _player1 */\n      dup2\n        /* \"ddd.sol\":1485:1492  playerA */\n      0x01\n      0x00\n        /* \"ddd.sol\":1485:1503  playerA = _player1 */\n      0x0100\n      exp\n      dup2\n      sload\n      dup2\n      0xffffffffffffffffffffffffffffffffffffffff\n      mul\n      not\n      and\n      swap1\n      dup4\n      0xffffffffffffffffffffffffffffffffffffffff\n      and\n      mul\n      or\n      swap1\n      sstore\n      pop\n        /* \"ddd.sol\":1524:1532  _player2 */\n      dup1\n        /* \"ddd.sol\":1514:1521  playerB */\n      0x02\n      0x00\n        /* \"ddd.sol\":1514:1532  playerB = _player2 */\n      0x0100\n      exp\n      dup2\n      sload\n      dup2\n      0xffffffffffffffffffffffffffffffffffffffff\n      mul\n      not\n      and\n      swap1\n      dup4\n      0xffffffffffffffffffffffffffffffffffffffff\n      and\n      mul\n      or\n      swap1\n      sstore\n      pop\n        /* \"ddd.sol\":1548:1577  GameStarted(playerA, playerB) */\n      0x55b25d7f9b5bf8ea934ba7079455d2ba00c68ea7e66c13695275f6b75b95e5f8\n        /* \"ddd.sol\":1560:1567  playerA */\n      0x01\n      0x00\n      swap1\n      sload\n      swap1\n      0x0100\n      exp\n      swap1\n      div\n      0xffffffffffffffffffffffffffffffffffffffff\n      and\n        /* \"ddd.sol\":1569:1576  playerB */\n      0x02\n      0x00\n      swap1\n      sload\n      swap1\n      0x0100\n      exp\n      swap1\n      div\n      0xffffffffffffffffffffffffffffffffffffffff\n      and\n        /* \"ddd.sol\":1548:1577  GameStarted(playerA, playerB) */\n      mload(0x40)\n      tag_134\n      swap3\n      swap2\n      swap1\n      tag_135\n      jump\t// in\n    tag_134:\n      mload(0x40)\n      dup1\n      swap2\n      sub\n      swap1\n      log1\n        /* \"ddd.sol\":1370:1585  function startGame(address _player1, address _player2) external {\r... */\n      pop\n      pop\n      jump\t// out\n        /* \"@openzeppelin/contracts/access/Ownable.sol\":2081:2279  function transferOwnership(address newOwner) public virtual onlyOwner {... */\n    tag_101:\n        /* \"@openzeppelin/contracts/access/Ownable.sol\":1094:1107  _checkOwner() */\n      tag_137\n        /* \"@openzeppelin/contracts/access/Ownable.sol\":1094:1105  _checkOwner */\n      tag_127\n        /* \"@openzeppelin/contracts/access/Ownable.sol\":1094:1107  _checkOwner() */\n      jump\t// in\n    tag_137:\n        /* \"@openzeppelin/contracts/access/Ownable.sol\":2189:2190  0 */\n      0x00\n        /* \"@openzeppelin/contracts/access/Ownable.sol\":2169:2191  newOwner != address(0) */\n      0xffffffffffffffffffffffffffffffffffffffff\n      and\n        /* \"@openzeppelin/contracts/access/Ownable.sol\":2169:2177  newOwner */\n      dup2\n        /* \"@openzeppelin/contracts/access/Ownable.sol\":2169:2191  newOwner != address(0) */\n      0xffffffffffffffffffffffffffffffffffffffff\n      and\n      eq\n      iszero\n        /* \"@openzeppelin/contracts/access/Ownable.sol\":2161:2234  require(newOwner != address(0), \"Ownable: new owner is the zero address\") */\n      tag_139\n      jumpi\n      mload(0x40)\n      0x08c379a000000000000000000000000000000000000000000000000000000000\n      dup2\n      mstore\n      0x04\n      add\n      tag_140\n      swap1\n      tag_141\n      jump\t// in\n    tag_140:\n      mload(0x40)\n      dup1\n      swap2\n      sub\n      swap1\n      revert\n    tag_139:\n        /* \"@openzeppelin/contracts/access/Ownable.sol\":2244:2272  _transferOwnership(newOwner) */\n      tag_142\n        /* \"@openzeppelin/contracts/access/Ownable.sol\":2263:2271  newOwner */\n      dup2\n        /* \"@openzeppelin/contracts/access/Ownable.sol\":2244:2262  _transferOwnership */\n      tag_130\n        /* \"@openzeppelin/contracts/access/Ownable.sol\":2244:2272  _transferOwnership(newOwner) */\n      jump\t// in\n    tag_142:\n        /* \"@openzeppelin/contracts/access/Ownable.sol\":2081:2279  function transferOwnership(address newOwner) public virtual onlyOwner {... */\n      pop\n      jump\t// out\n        /* \"@openzeppelin/contracts/access/Ownable.sol\":1359:1489  function _checkOwner() internal view virtual {... */\n    tag_127:\n        /* \"@openzeppelin/contracts/access/Ownable.sol\":1433:1445  _msgSender() */\n      tag_144\n        /* \"@openzeppelin/contracts/access/Ownable.sol\":1433:1443  _msgSender */\n      tag_145\n        /* \"@openzeppelin/contracts/access/Ownable.sol\":1433:1445  _msgSender() */\n      jump\t// in\n    tag_144:\n        /* \"@openzeppelin/contracts/access/Ownable.sol\":1422:1445  owner() == _msgSender() */\n      0xffffffffffffffffffffffffffffffffffffffff\n      and\n        /* \"@openzeppelin/contracts/access/Ownable.sol\":1422:1429  owner() */\n      tag_146\n        /* \"@openzeppelin/contracts/access/Ownable.sol\":1422:1427  owner */\n      tag_73\n        /* \"@openzeppelin/contracts/access/Ownable.sol\":1422:1429  owner() */\n      jump\t// in\n    tag_146:\n        /* \"@openzeppelin/contracts/access/Ownable.sol\":1422:1445  owner() == _msgSender() */\n      0xffffffffffffffffffffffffffffffffffffffff\n      and\n      eq\n        /* \"@openzeppelin/contracts/access/Ownable.sol\":1414:1482  require(owner() == _msgSender(), \"Ownable: caller is not the owner\") */\n      tag_147\n      jumpi\n      mload(0x40)\n      0x08c379a000000000000000000000000000000000000000000000000000000000\n      dup2\n      mstore\n      0x04\n      add\n      tag_148\n      swap1\n      tag_149\n      jump\t// in\n    tag_148:\n      mload(0x40)\n      dup1\n      swap2\n      sub\n      swap1\n      revert\n    tag_147:\n        /* \"@openzeppelin/contracts/access/Ownable.sol\":1359:1489  function _checkOwner() internal view virtual {... */\n      jump\t// out\n        /* \"@openzeppelin/contracts/access/Ownable.sol\":2433:2620  function _transferOwnership(address newOwner) internal virtual {... */\n    tag_130:\n        /* \"@openzeppelin/contracts/access/Ownable.sol\":2506:2522  address oldOwner */\n      0x00\n        /* \"@openzeppelin/contracts/access/Ownable.sol\":2525:2531  _owner */\n      dup1\n      0x00\n      swap1\n      sload\n      swap1\n      0x0100\n      exp\n      swap1\n      div\n      0xffffffffffffffffffffffffffffffffffffffff\n      and\n        /* \"@openzeppelin/contracts/access/Ownable.sol\":2506:2531  address oldOwner = _owner */\n      swap1\n      pop\n        /* \"@openzeppelin/contracts/access/Ownable.sol\":2550:2558  newOwner */\n      dup2\n        /* \"@openzeppelin/contracts/access/Ownable.sol\":2541:2547  _owner */\n      0x00\n      dup1\n        /* \"@openzeppelin/contracts/access/Ownable.sol\":2541:2558  _owner = newOwner */\n      0x0100\n      exp\n      dup2\n      sload\n      dup2\n      0xffffffffffffffffffffffffffffffffffffffff\n      mul\n      not\n      and\n      swap1\n      dup4\n      0xffffffffffffffffffffffffffffffffffffffff\n      and\n      mul\n      or\n      swap1\n      sstore\n      pop\n        /* \"@openzeppelin/contracts/access/Ownable.sol\":2604:2612  newOwner */\n      dup2\n        /* \"@openzeppelin/contracts/access/Ownable.sol\":2573:2613  OwnershipTransferred(oldOwner, newOwner) */\n      0xffffffffffffffffffffffffffffffffffffffff\n      and\n        /* \"@openzeppelin/contracts/access/Ownable.sol\":2594:2602  oldOwner */\n      dup2\n        /* \"@openzeppelin/contracts/access/Ownable.sol\":2573:2613  OwnershipTransferred(oldOwner, newOwner) */\n      0xffffffffffffffffffffffffffffffffffffffff\n      and\n      0x8be0079c531659141344cd1fd0a4f28419497f9722a3daafe3b4186f6b6457e0\n      mload(0x40)\n      mload(0x40)\n      dup1\n      swap2\n      sub\n      swap1\n      log3\n        /* \"@openzeppelin/contracts/access/Ownable.sol\":2496:2620  {... */\n      pop\n        /* \"@openzeppelin/contracts/access/Ownable.sol\":2433:2620  function _transferOwnership(address newOwner) internal virtual {... */\n      pop\n      jump\t// out\n        /* \"@openzeppelin/contracts/utils/Context.sol\":640:736  function _msgSender() internal view virtual returns (address) {... */\n    tag_145:\n        /* \"@openzeppelin/contracts/utils/Context.sol\":693:700  address */\n      0x00\n        /* \"@openzeppelin/contracts/utils/Context.sol\":719:729  msg.sender */\n      caller\n        /* \"@openzeppelin/contracts/utils/Context.sol\":712:729  return msg.sender */\n      swap1\n      pop\n        /* \"@openzeppelin/contracts/utils/Context.sol\":640:736  function _msgSender() internal view virtual returns (address) {... */\n      swap1\n      jump\t// out\n        /* \"#utility.yul\":7:146   */\n    tag_153:\n        /* \"#utility.yul\":53:58   */\n      0x00\n        /* \"#utility.yul\":91:97   */\n      dup2\n        /* \"#utility.yul\":78:98   */\n      calldataload\n        /* \"#utility.yul\":69:98   */\n      swap1\n      pop\n        /* \"#utility.yul\":107:140   */\n      tag_155\n        /* \"#utility.yul\":134:139   */\n      dup2\n        /* \"#utility.yul\":107:140   */\n      tag_156\n      jump\t// in\n    tag_155:\n        /* \"#utility.yul\":7:146   */\n      swap3\n      swap2\n      pop\n      pop\n      jump\t// out\n        /* \"#utility.yul\":152:291   */\n    tag_157:\n        /* \"#utility.yul\":198:203   */\n      0x00\n        /* \"#utility.yul\":236:242   */\n      dup2\n        /* \"#utility.yul\":223:243   */\n      calldataload\n        /* \"#utility.yul\":214:243   */\n      swap1\n      pop\n        /* \"#utility.yul\":252:285   */\n      tag_159\n        /* \"#utility.yul\":279:284   */\n      dup2\n        /* \"#utility.yul\":252:285   */\n      tag_160\n      jump\t// in\n    tag_159:\n        /* \"#utility.yul\":152:291   */\n      swap3\n      swap2\n      pop\n      pop\n      jump\t// out\n        /* \"#utility.yul\":297:626   */\n    tag_100:\n        /* \"#utility.yul\":356:362   */\n      0x00\n        /* \"#utility.yul\":405:407   */\n      0x20\n        /* \"#utility.yul\":393:402   */\n      dup3\n        /* \"#utility.yul\":384:391   */\n      dup5\n        /* \"#utility.yul\":380:403   */\n      sub\n        /* \"#utility.yul\":376:408   */\n      slt\n        /* \"#utility.yul\":373:492   */\n      iszero\n      tag_162\n      jumpi\n        /* \"#utility.yul\":411:490   */\n      tag_163\n      tag_164\n      jump\t// in\n    tag_163:\n        /* \"#utility.yul\":373:492   */\n    tag_162:\n        /* \"#utility.yul\":531:532   */\n      0x00\n        /* \"#utility.yul\":556:609   */\n      tag_165\n        /* \"#utility.yul\":601:608   */\n      dup5\n        /* \"#utility.yul\":592:598   */\n      dup3\n        /* \"#utility.yul\":581:590   */\n      dup6\n        /* \"#utility.yul\":577:599   */\n      add\n        /* \"#utility.yul\":556:609   */\n      tag_153\n      jump\t// in\n    tag_165:\n        /* \"#utility.yul\":546:609   */\n      swap2\n      pop\n        /* \"#utility.yul\":502:619   */\n      pop\n        /* \"#utility.yul\":297:626   */\n      swap3\n      swap2\n      pop\n      pop\n      jump\t// out\n        /* \"#utility.yul\":632:1106   */\n    tag_96:\n        /* \"#utility.yul\":700:706   */\n      0x00\n        /* \"#utility.yul\":708:714   */\n      dup1\n        /* \"#utility.yul\":757:759   */\n      0x40\n        /* \"#utility.yul\":745:754   */\n      dup4\n        /* \"#utility.yul\":736:743   */\n      dup6\n        /* \"#utility.yul\":732:755   */\n      sub\n        /* \"#utility.yul\":728:760   */\n      slt\n        /* \"#utility.yul\":725:844   */\n      iszero\n      tag_167\n      jumpi\n        /* \"#utility.yul\":763:842   */\n      tag_168\n      tag_164\n      jump\t// in\n    tag_168:\n        /* \"#utility.yul\":725:844   */\n    tag_167:\n        /* \"#utility.yul\":883:884   */\n      0x00\n        /* \"#utility.yul\":908:961   */\n      tag_169\n        /* \"#utility.yul\":953:960   */\n      dup6\n        /* \"#utility.yul\":944:950   */\n      dup3\n        /* \"#utility.yul\":933:942   */\n      dup7\n        /* \"#utility.yul\":929:951   */\n      add\n        /* \"#utility.yul\":908:961   */\n      tag_153\n      jump\t// in\n    tag_169:\n        /* \"#utility.yul\":898:961   */\n      swap3\n      pop\n        /* \"#utility.yul\":854:971   */\n      pop\n        /* \"#utility.yul\":1010:1012   */\n      0x20\n        /* \"#utility.yul\":1036:1089   */\n      tag_170\n        /* \"#utility.yul\":1081:1088   */\n      dup6\n        /* \"#utility.yul\":1072:1078   */\n      dup3\n        /* \"#utility.yul\":1061:1070   */\n      dup7\n        /* \"#utility.yul\":1057:1079   */\n      add\n        /* \"#utility.yul\":1036:1089   */\n      tag_153\n      jump\t// in\n    tag_170:\n        /* \"#utility.yul\":1026:1089   */\n      swap2\n      pop\n        /* \"#utility.yul\":981:1099   */\n      pop\n        /* \"#utility.yul\":632:1106   */\n      swap3\n      pop\n      swap3\n      swap1\n      pop\n      jump\t// out\n        /* \"#utility.yul\":1112:1586   */\n    tag_41:\n        /* \"#utility.yul\":1180:1186   */\n      0x00\n        /* \"#utility.yul\":1188:1194   */\n      dup1\n        /* \"#utility.yul\":1237:1239   */\n      0x40\n        /* \"#utility.yul\":1225:1234   */\n      dup4\n        /* \"#utility.yul\":1216:1223   */\n      dup6\n        /* \"#utility.yul\":1212:1235   */\n      sub\n        /* \"#utility.yul\":1208:1240   */\n      slt\n        /* \"#utility.yul\":1205:1324   */\n      iszero\n      tag_172\n      jumpi\n        /* \"#utility.yul\":1243:1322   */\n      tag_173\n      tag_164\n      jump\t// in\n    tag_173:\n        /* \"#utility.yul\":1205:1324   */\n    tag_172:\n        /* \"#utility.yul\":1363:1364   */\n      0x00\n        /* \"#utility.yul\":1388:1441   */\n      tag_174\n        /* \"#utility.yul\":1433:1440   */\n      dup6\n        /* \"#utility.yul\":1424:1430   */\n      dup3\n        /* \"#utility.yul\":1413:1422   */\n      dup7\n        /* \"#utility.yul\":1409:1431   */\n      add\n        /* \"#utility.yul\":1388:1441   */\n      tag_153\n      jump\t// in\n    tag_174:\n        /* \"#utility.yul\":1378:1441   */\n      swap3\n      pop\n        /* \"#utility.yul\":1334:1451   */\n      pop\n        /* \"#utility.yul\":1490:1492   */\n      0x20\n        /* \"#utility.yul\":1516:1569   */\n      tag_175\n        /* \"#utility.yul\":1561:1568   */\n      dup6\n        /* \"#utility.yul\":1552:1558   */\n      dup3\n        /* \"#utility.yul\":1541:1550   */\n      dup7\n        /* \"#utility.yul\":1537:1559   */\n      add\n        /* \"#utility.yul\":1516:1569   */\n      tag_157\n      jump\t// in\n    tag_175:\n        /* \"#utility.yul\":1506:1569   */\n      swap2\n      pop\n        /* \"#utility.yul\":1461:1579   */\n      pop\n        /* \"#utility.yul\":1112:1586   */\n      swap3\n      pop\n      swap3\n      swap1\n      pop\n      jump\t// out\n        /* \"#utility.yul\":1592:1921   */\n    tag_47:\n        /* \"#utility.yul\":1651:1657   */\n      0x00\n        /* \"#utility.yul\":1700:1702   */\n      0x20\n        /* \"#utility.yul\":1688:1697   */\n      dup3\n        /* \"#utility.yul\":1679:1686   */\n      dup5\n        /* \"#utility.yul\":1675:1698   */\n      sub\n        /* \"#utility.yul\":1671:1703   */\n      slt\n        /* \"#utility.yul\":1668:1787   */\n      iszero\n      tag_177\n      jumpi\n        /* \"#utility.yul\":1706:1785   */\n      tag_178\n      tag_164\n      jump\t// in\n    tag_178:\n        /* \"#utility.yul\":1668:1787   */\n    tag_177:\n        /* \"#utility.yul\":1826:1827   */\n      0x00\n        /* \"#utility.yul\":1851:1904   */\n      tag_179\n        /* \"#utility.yul\":1896:1903   */\n      dup5\n        /* \"#utility.yul\":1887:1893   */\n      dup3\n        /* \"#utility.yul\":1876:1885   */\n      dup6\n        /* \"#utility.yul\":1872:1894   */\n      add\n        /* \"#utility.yul\":1851:1904   */\n      tag_157\n      jump\t// in\n    tag_179:\n        /* \"#utility.yul\":1841:1904   */\n      swap2\n      pop\n        /* \"#utility.yul\":1797:1914   */\n      pop\n        /* \"#utility.yul\":1592:1921   */\n      swap3\n      swap2\n      pop\n      pop\n      jump\t// out\n        /* \"#utility.yul\":1927:2098   */\n    tag_180:\n        /* \"#utility.yul\":1992:2002   */\n      0x00\n        /* \"#utility.yul\":2013:2055   */\n      tag_182\n        /* \"#utility.yul\":2051:2054   */\n      dup4\n        /* \"#utility.yul\":2043:2049   */\n      dup4\n        /* \"#utility.yul\":2013:2055   */\n      tag_183\n      jump\t// in\n    tag_182:\n        /* \"#utility.yul\":2087:2091   */\n      0x20\n        /* \"#utility.yul\":2082:2085   */\n      dup4\n        /* \"#utility.yul\":2078:2092   */\n      add\n        /* \"#utility.yul\":2064:2092   */\n      swap1\n      pop\n        /* \"#utility.yul\":1927:2098   */\n      swap3\n      swap2\n      pop\n      pop\n      jump\t// out\n        /* \"#utility.yul\":2104:2222   */\n    tag_184:\n        /* \"#utility.yul\":2191:2215   */\n      tag_186\n        /* \"#utility.yul\":2209:2214   */\n      dup2\n        /* \"#utility.yul\":2191:2215   */\n      tag_187\n      jump\t// in\n    tag_186:\n        /* \"#utility.yul\":2186:2189   */\n      dup3\n        /* \"#utility.yul\":2179:2216   */\n      mstore\n        /* \"#utility.yul\":2104:2222   */\n      pop\n      pop\n      jump\t// out\n        /* \"#utility.yul\":2254:2970   */\n    tag_188:\n        /* \"#utility.yul\":2369:2372   */\n      0x00\n        /* \"#utility.yul\":2398:2450   */\n      tag_190\n        /* \"#utility.yul\":2444:2449   */\n      dup3\n        /* \"#utility.yul\":2398:2450   */\n      tag_191\n      jump\t// in\n    tag_190:\n        /* \"#utility.yul\":2466:2550   */\n      tag_192\n        /* \"#utility.yul\":2543:2549   */\n      dup2\n        /* \"#utility.yul\":2538:2541   */\n      dup6\n        /* \"#utility.yul\":2466:2550   */\n      tag_193\n      jump\t// in\n    tag_192:\n        /* \"#utility.yul\":2459:2550   */\n      swap4\n      pop\n        /* \"#utility.yul\":2574:2628   */\n      tag_194\n        /* \"#utility.yul\":2622:2627   */\n      dup4\n        /* \"#utility.yul\":2574:2628   */\n      tag_195\n      jump\t// in\n    tag_194:\n        /* \"#utility.yul\":2651:2658   */\n      dup1\n        /* \"#utility.yul\":2682:2683   */\n      0x00\n        /* \"#utility.yul\":2667:2945   */\n    tag_196:\n        /* \"#utility.yul\":2692:2698   */\n      dup4\n        /* \"#utility.yul\":2689:2690   */\n      dup2\n        /* \"#utility.yul\":2686:2699   */\n      lt\n        /* \"#utility.yul\":2667:2945   */\n      iszero\n      tag_198\n      jumpi\n        /* \"#utility.yul\":2768:2774   */\n      dup2\n        /* \"#utility.yul\":2762:2775   */\n      mload\n        /* \"#utility.yul\":2795:2854   */\n      tag_199\n        /* \"#utility.yul\":2850:2853   */\n      dup9\n        /* \"#utility.yul\":2835:2848   */\n      dup3\n        /* \"#utility.yul\":2795:2854   */\n      tag_180\n      jump\t// in\n    tag_199:\n        /* \"#utility.yul\":2788:2854   */\n      swap8\n      pop\n        /* \"#utility.yul\":2877:2935   */\n      tag_200\n        /* \"#utility.yul\":2928:2934   */\n      dup4\n        /* \"#utility.yul\":2877:2935   */\n      tag_201\n      jump\t// in\n    tag_200:\n        /* \"#utility.yul\":2867:2935   */\n      swap3\n      pop\n        /* \"#utility.yul\":2727:2945   */\n      pop\n        /* \"#utility.yul\":2714:2715   */\n      0x01\n        /* \"#utility.yul\":2711:2712   */\n      dup2\n        /* \"#utility.yul\":2707:2716   */\n      add\n        /* \"#utility.yul\":2702:2716   */\n      swap1\n      pop\n        /* \"#utility.yul\":2667:2945   */\n      jump(tag_196)\n    tag_198:\n        /* \"#utility.yul\":2671:2685   */\n      pop\n        /* \"#utility.yul\":2961:2964   */\n      dup6\n        /* \"#utility.yul\":2954:2964   */\n      swap4\n      pop\n        /* \"#utility.yul\":2374:2970   */\n      pop\n      pop\n      pop\n        /* \"#utility.yul\":2254:2970   */\n      swap3\n      swap2\n      pop\n      pop\n      jump\t// out\n        /* \"#utility.yul\":2976:3085   */\n    tag_202:\n        /* \"#utility.yul\":3057:3078   */\n      tag_204\n        /* \"#utility.yul\":3072:3077   */\n      dup2\n        /* \"#utility.yul\":3057:3078   */\n      tag_205\n      jump\t// in\n    tag_204:\n        /* \"#utility.yul\":3052:3055   */\n      dup3\n        /* \"#utility.yul\":3045:3079   */\n      mstore\n        /* \"#utility.yul\":2976:3085   */\n      pop\n      pop\n      jump\t// out\n        /* \"#utility.yul\":3091:3457   */\n    tag_206:\n        /* \"#utility.yul\":3233:3236   */\n      0x00\n        /* \"#utility.yul\":3254:3321   */\n      tag_208\n        /* \"#utility.yul\":3318:3320   */\n      0x0c\n        /* \"#utility.yul\":3313:3316   */\n      dup4\n        /* \"#utility.yul\":3254:3321   */\n      tag_209\n      jump\t// in\n    tag_208:\n        /* \"#utility.yul\":3247:3321   */\n      swap2\n      pop\n        /* \"#utility.yul\":3330:3423   */\n      tag_210\n        /* \"#utility.yul\":3419:3422   */\n      dup3\n        /* \"#utility.yul\":3330:3423   */\n      tag_211\n      jump\t// in\n    tag_210:\n        /* \"#utility.yul\":3448:3450   */\n      0x20\n        /* \"#utility.yul\":3443:3446   */\n      dup3\n        /* \"#utility.yul\":3439:3451   */\n      add\n        /* \"#utility.yul\":3432:3451   */\n      swap1\n      pop\n        /* \"#utility.yul\":3091:3457   */\n      swap2\n      swap1\n      pop\n      jump\t// out\n        /* \"#utility.yul\":3463:3829   */\n    tag_212:\n        /* \"#utility.yul\":3605:3608   */\n      0x00\n        /* \"#utility.yul\":3626:3693   */\n      tag_214\n        /* \"#utility.yul\":3690:3692   */\n      0x26\n        /* \"#utility.yul\":3685:3688   */\n      dup4\n        /* \"#utility.yul\":3626:3693   */\n      tag_209\n      jump\t// in\n    tag_214:\n        /* \"#utility.yul\":3619:3693   */\n      swap2\n      pop\n        /* \"#utility.yul\":3702:3795   */\n      tag_215\n        /* \"#utility.yul\":3791:3794   */\n      dup3\n        /* \"#utility.yul\":3702:3795   */\n      tag_216\n      jump\t// in\n    tag_215:\n        /* \"#utility.yul\":3820:3822   */\n      0x40\n        /* \"#utility.yul\":3815:3818   */\n      dup3\n        /* \"#utility.yul\":3811:3823   */\n      add\n        /* \"#utility.yul\":3804:3823   */\n      swap1\n      pop\n        /* \"#utility.yul\":3463:3829   */\n      swap2\n      swap1\n      pop\n      jump\t// out\n        /* \"#utility.yul\":3835:4201   */\n    tag_217:\n        /* \"#utility.yul\":3977:3980   */\n      0x00\n        /* \"#utility.yul\":3998:4065   */\n      tag_219\n        /* \"#utility.yul\":4062:4064   */\n      0x0e\n        /* \"#utility.yul\":4057:4060   */\n      dup4\n        /* \"#utility.yul\":3998:4065   */\n      tag_209\n      jump\t// in\n    tag_219:\n        /* \"#utility.yul\":3991:4065   */\n      swap2\n      pop\n        /* \"#utility.yul\":4074:4167   */\n      tag_220\n        /* \"#utility.yul\":4163:4166   */\n      dup3\n        /* \"#utility.yul\":4074:4167   */\n      tag_221\n      jump\t// in\n    tag_220:\n        /* \"#utility.yul\":4192:4194   */\n      0x20\n        /* \"#utility.yul\":4187:4190   */\n      dup3\n        /* \"#utility.yul\":4183:4195   */\n      add\n        /* \"#utility.yul\":4176:4195   */\n      swap1\n      pop\n        /* \"#utility.yul\":3835:4201   */\n      swap2\n      swap1\n      pop\n      jump\t// out\n        /* \"#utility.yul\":4207:4573   */\n    tag_222:\n        /* \"#utility.yul\":4349:4352   */\n      0x00\n        /* \"#utility.yul\":4370:4437   */\n      tag_224\n        /* \"#utility.yul\":4434:4436   */\n      0x20\n        /* \"#utility.yul\":4429:4432   */\n      dup4\n        /* \"#utility.yul\":4370:4437   */\n      tag_209\n      jump\t// in\n    tag_224:\n        /* \"#utility.yul\":4363:4437   */\n      swap2\n      pop\n        /* \"#utility.yul\":4446:4539   */\n      tag_225\n        /* \"#utility.yul\":4535:4538   */\n      dup3\n        /* \"#utility.yul\":4446:4539   */\n      tag_226\n      jump\t// in\n    tag_225:\n        /* \"#utility.yul\":4564:4566   */\n      0x20\n        /* \"#utility.yul\":4559:4562   */\n      dup3\n        /* \"#utility.yul\":4555:4567   */\n      add\n        /* \"#utility.yul\":4548:4567   */\n      swap1\n      pop\n        /* \"#utility.yul\":4207:4573   */\n      swap2\n      swap1\n      pop\n      jump\t// out\n        /* \"#utility.yul\":4579:4945   */\n    tag_227:\n        /* \"#utility.yul\":4721:4724   */\n      0x00\n        /* \"#utility.yul\":4742:4809   */\n      tag_229\n        /* \"#utility.yul\":4806:4808   */\n      0x19\n        /* \"#utility.yul\":4801:4804   */\n      dup4\n        /* \"#utility.yul\":4742:4809   */\n      tag_209\n      jump\t// in\n    tag_229:\n        /* \"#utility.yul\":4735:4809   */\n      swap2\n      pop\n        /* \"#utility.yul\":4818:4911   */\n      tag_230\n        /* \"#utility.yul\":4907:4910   */\n      dup3\n        /* \"#utility.yul\":4818:4911   */\n      tag_231\n      jump\t// in\n    tag_230:\n        /* \"#utility.yul\":4936:4938   */\n      0x20\n        /* \"#utility.yul\":4931:4934   */\n      dup3\n        /* \"#utility.yul\":4927:4939   */\n      add\n        /* \"#utility.yul\":4920:4939   */\n      swap1\n      pop\n        /* \"#utility.yul\":4579:4945   */\n      swap2\n      swap1\n      pop\n      jump\t// out\n        /* \"#utility.yul\":4951:5069   */\n    tag_232:\n        /* \"#utility.yul\":5038:5062   */\n      tag_234\n        /* \"#utility.yul\":5056:5061   */\n      dup2\n        /* \"#utility.yul\":5038:5062   */\n      tag_235\n      jump\t// in\n    tag_234:\n        /* \"#utility.yul\":5033:5036   */\n      dup3\n        /* \"#utility.yul\":5026:5063   */\n      mstore\n        /* \"#utility.yul\":4951:5069   */\n      pop\n      pop\n      jump\t// out\n        /* \"#utility.yul\":5075:5177   */\n    tag_183:\n        /* \"#utility.yul\":5148:5170   */\n      tag_237\n        /* \"#utility.yul\":5164:5169   */\n      dup2\n        /* \"#utility.yul\":5148:5170   */\n      tag_238\n      jump\t// in\n    tag_237:\n        /* \"#utility.yul\":5143:5146   */\n      dup3\n        /* \"#utility.yul\":5136:5171   */\n      mstore\n        /* \"#utility.yul\":5075:5177   */\n      pop\n      pop\n      jump\t// out\n        /* \"#utility.yul\":5183:5295   */\n    tag_239:\n        /* \"#utility.yul\":5266:5288   */\n      tag_241\n        /* \"#utility.yul\":5282:5287   */\n      dup2\n        /* \"#utility.yul\":5266:5288   */\n      tag_238\n      jump\t// in\n    tag_241:\n        /* \"#utility.yul\":5261:5264   */\n      dup3\n        /* \"#utility.yul\":5254:5289   */\n      mstore\n        /* \"#utility.yul\":5183:5295   */\n      pop\n      pop\n      jump\t// out\n        /* \"#utility.yul\":5301:5523   */\n    tag_34:\n        /* \"#utility.yul\":5394:5398   */\n      0x00\n        /* \"#utility.yul\":5432:5434   */\n      0x20\n        /* \"#utility.yul\":5421:5430   */\n      dup3\n        /* \"#utility.yul\":5417:5435   */\n      add\n        /* \"#utility.yul\":5409:5435   */\n      swap1\n      pop\n        /* \"#utility.yul\":5445:5516   */\n      tag_243\n        /* \"#utility.yul\":5513:5514   */\n      0x00\n        /* \"#utility.yul\":5502:5511   */\n      dup4\n        /* \"#utility.yul\":5498:5515   */\n      add\n        /* \"#utility.yul\":5489:5495   */\n      dup5\n        /* \"#utility.yul\":5445:5516   */\n      tag_184\n      jump\t// in\n    tag_243:\n        /* \"#utility.yul\":5301:5523   */\n      swap3\n      swap2\n      pop\n      pop\n      jump\t// out\n        /* \"#utility.yul\":5529:5861   */\n    tag_135:\n        /* \"#utility.yul\":5650:5654   */\n      0x00\n        /* \"#utility.yul\":5688:5690   */\n      0x40\n        /* \"#utility.yul\":5677:5686   */\n      dup3\n        /* \"#utility.yul\":5673:5691   */\n      add\n        /* \"#utility.yul\":5665:5691   */\n      swap1\n      pop\n        /* \"#utility.yul\":5701:5772   */\n      tag_245\n        /* \"#utility.yul\":5769:5770   */\n      0x00\n        /* \"#utility.yul\":5758:5767   */\n      dup4\n        /* \"#utility.yul\":5754:5771   */\n      add\n        /* \"#utility.yul\":5745:5751   */\n      dup6\n        /* \"#utility.yul\":5701:5772   */\n      tag_184\n      jump\t// in\n    tag_245:\n        /* \"#utility.yul\":5782:5854   */\n      tag_246\n        /* \"#utility.yul\":5850:5852   */\n      0x20\n        /* \"#utility.yul\":5839:5848   */\n      dup4\n        /* \"#utility.yul\":5835:5853   */\n      add\n        /* \"#utility.yul\":5826:5832   */\n      dup5\n        /* \"#utility.yul\":5782:5854   */\n      tag_184\n      jump\t// in\n    tag_246:\n        /* \"#utility.yul\":5529:5861   */\n      swap4\n      swap3\n      pop\n      pop\n      pop\n      jump\t// out\n        /* \"#utility.yul\":5867:6187   */\n    tag_38:\n        /* \"#utility.yul\":5982:5986   */\n      0x00\n        /* \"#utility.yul\":6020:6022   */\n      0x40\n        /* \"#utility.yul\":6009:6018   */\n      dup3\n        /* \"#utility.yul\":6005:6023   */\n      add\n        /* \"#utility.yul\":5997:6023   */\n      swap1\n      pop\n        /* \"#utility.yul\":6033:6104   */\n      tag_248\n        /* \"#utility.yul\":6101:6102   */\n      0x00\n        /* \"#utility.yul\":6090:6099   */\n      dup4\n        /* \"#utility.yul\":6086:6103   */\n      add\n        /* \"#utility.yul\":6077:6083   */\n      dup6\n        /* \"#utility.yul\":6033:6104   */\n      tag_184\n      jump\t// in\n    tag_248:\n        /* \"#utility.yul\":6114:6180   */\n      tag_249\n        /* \"#utility.yul\":6176:6178   */\n      0x20\n        /* \"#utility.yul\":6165:6174   */\n      dup4\n        /* \"#utility.yul\":6161:6179   */\n      add\n        /* \"#utility.yul\":6152:6158   */\n      dup5\n        /* \"#utility.yul\":6114:6180   */\n      tag_202\n      jump\t// in\n    tag_249:\n        /* \"#utility.yul\":5867:6187   */\n      swap4\n      swap3\n      pop\n      pop\n      pop\n      jump\t// out\n        /* \"#utility.yul\":6193:6525   */\n    tag_87:\n        /* \"#utility.yul\":6314:6318   */\n      0x00\n        /* \"#utility.yul\":6352:6354   */\n      0x40\n        /* \"#utility.yul\":6341:6350   */\n      dup3\n        /* \"#utility.yul\":6337:6355   */\n      add\n        /* \"#utility.yul\":6329:6355   */\n      swap1\n      pop\n        /* \"#utility.yul\":6365:6436   */\n      tag_251\n        /* \"#utility.yul\":6433:6434   */\n      0x00\n        /* \"#utility.yul\":6422:6431   */\n      dup4\n        /* \"#utility.yul\":6418:6435   */\n      add\n        /* \"#utility.yul\":6409:6415   */\n      dup6\n        /* \"#utility.yul\":6365:6436   */\n      tag_184\n      jump\t// in\n    tag_251:\n        /* \"#utility.yul\":6446:6518   */\n      tag_252\n        /* \"#utility.yul\":6514:6516   */\n      0x20\n        /* \"#utility.yul\":6503:6512   */\n      dup4\n        /* \"#utility.yul\":6499:6517   */\n      add\n        /* \"#utility.yul\":6490:6496   */\n      dup5\n        /* \"#utility.yul\":6446:6518   */\n      tag_232\n      jump\t// in\n    tag_252:\n        /* \"#utility.yul\":6193:6525   */\n      swap4\n      swap3\n      pop\n      pop\n      pop\n      jump\t// out\n        /* \"#utility.yul\":6531:6896   */\n    tag_65:\n        /* \"#utility.yul\":6670:6674   */\n      0x00\n        /* \"#utility.yul\":6708:6710   */\n      0x20\n        /* \"#utility.yul\":6697:6706   */\n      dup3\n        /* \"#utility.yul\":6693:6711   */\n      add\n        /* \"#utility.yul\":6685:6711   */\n      swap1\n      pop\n        /* \"#utility.yul\":6757:6766   */\n      dup2\n        /* \"#utility.yul\":6751:6755   */\n      dup2\n        /* \"#utility.yul\":6747:6767   */\n      sub\n        /* \"#utility.yul\":6743:6744   */\n      0x00\n        /* \"#utility.yul\":6732:6741   */\n      dup4\n        /* \"#utility.yul\":6728:6745   */\n      add\n        /* \"#utility.yul\":6721:6768   */\n      mstore\n        /* \"#utility.yul\":6785:6889   */\n      tag_254\n        /* \"#utility.yul\":6884:6888   */\n      dup2\n        /* \"#utility.yul\":6875:6881   */\n      dup5\n        /* \"#utility.yul\":6785:6889   */\n      tag_188\n      jump\t// in\n    tag_254:\n        /* \"#utility.yul\":6777:6889   */\n      swap1\n      pop\n        /* \"#utility.yul\":6531:6896   */\n      swap3\n      swap2\n      pop\n      pop\n      jump\t// out\n        /* \"#utility.yul\":6902:7112   */\n    tag_71:\n        /* \"#utility.yul\":6989:6993   */\n      0x00\n        /* \"#utility.yul\":7027:7029   */\n      0x20\n        /* \"#utility.yul\":7016:7025   */\n      dup3\n        /* \"#utility.yul\":7012:7030   */\n      add\n        /* \"#utility.yul\":7004:7030   */\n      swap1\n      pop\n        /* \"#utility.yul\":7040:7105   */\n      tag_256\n        /* \"#utility.yul\":7102:7103   */\n      0x00\n        /* \"#utility.yul\":7091:7100   */\n      dup4\n        /* \"#utility.yul\":7087:7104   */\n      add\n        /* \"#utility.yul\":7078:7084   */\n      dup5\n        /* \"#utility.yul\":7040:7105   */\n      tag_202\n      jump\t// in\n    tag_256:\n        /* \"#utility.yul\":6902:7112   */\n      swap3\n      swap2\n      pop\n      pop\n      jump\t// out\n        /* \"#utility.yul\":7118:7537   */\n    tag_107:\n        /* \"#utility.yul\":7284:7288   */\n      0x00\n        /* \"#utility.yul\":7322:7324   */\n      0x20\n        /* \"#utility.yul\":7311:7320   */\n      dup3\n        /* \"#utility.yul\":7307:7325   */\n      add\n        /* \"#utility.yul\":7299:7325   */\n      swap1\n      pop\n        /* \"#utility.yul\":7371:7380   */\n      dup2\n        /* \"#utility.yul\":7365:7369   */\n      dup2\n        /* \"#utility.yul\":7361:7381   */\n      sub\n        /* \"#utility.yul\":7357:7358   */\n      0x00\n        /* \"#utility.yul\":7346:7355   */\n      dup4\n        /* \"#utility.yul\":7342:7359   */\n      add\n        /* \"#utility.yul\":7335:7382   */\n      mstore\n        /* \"#utility.yul\":7399:7530   */\n      tag_258\n        /* \"#utility.yul\":7525:7529   */\n      dup2\n        /* \"#utility.yul\":7399:7530   */\n      tag_206\n      jump\t// in\n    tag_258:\n        /* \"#utility.yul\":7391:7530   */\n      swap1\n      pop\n        /* \"#utility.yul\":7118:7537   */\n      swap2\n      swap1\n      pop\n      jump\t// out\n        /* \"#utility.yul\":7543:7962   */\n    tag_141:\n        /* \"#utility.yul\":7709:7713   */\n      0x00\n        /* \"#utility.yul\":7747:7749   */\n      0x20\n        /* \"#utility.yul\":7736:7745   */\n      dup3\n        /* \"#utility.yul\":7732:7750   */\n      add\n        /* \"#utility.yul\":7724:7750   */\n      swap1\n      pop\n        /* \"#utility.yul\":7796:7805   */\n      dup2\n        /* \"#utility.yul\":7790:7794   */\n      dup2\n        /* \"#utility.yul\":7786:7806   */\n      sub\n        /* \"#utility.yul\":7782:7783   */\n      0x00\n        /* \"#utility.yul\":7771:7780   */\n      dup4\n        /* \"#utility.yul\":7767:7784   */\n      add\n        /* \"#utility.yul\":7760:7807   */\n      mstore\n        /* \"#utility.yul\":7824:7955   */\n      tag_260\n        /* \"#utility.yul\":7950:7954   */\n      dup2\n        /* \"#utility.yul\":7824:7955   */\n      tag_212\n      jump\t// in\n    tag_260:\n        /* \"#utility.yul\":7816:7955   */\n      swap1\n      pop\n        /* \"#utility.yul\":7543:7962   */\n      swap2\n      swap1\n      pop\n      jump\t// out\n        /* \"#utility.yul\":7968:8387   */\n    tag_114:\n        /* \"#utility.yul\":8134:8138   */\n      0x00\n        /* \"#utility.yul\":8172:8174   */\n      0x20\n        /* \"#utility.yul\":8161:8170   */\n      dup3\n        /* \"#utility.yul\":8157:8175   */\n      add\n        /* \"#utility.yul\":8149:8175   */\n      swap1\n      pop\n        /* \"#utility.yul\":8221:8230   */\n      dup2\n        /* \"#utility.yul\":8215:8219   */\n      dup2\n        /* \"#utility.yul\":8211:8231   */\n      sub\n        /* \"#utility.yul\":8207:8208   */\n      0x00\n        /* \"#utility.yul\":8196:8205   */\n      dup4\n        /* \"#utility.yul\":8192:8209   */\n      add\n        /* \"#utility.yul\":8185:8232   */\n      mstore\n        /* \"#utility.yul\":8249:8380   */\n      tag_262\n        /* \"#utility.yul\":8375:8379   */\n      dup2\n        /* \"#utility.yul\":8249:8380   */\n      tag_217\n      jump\t// in\n    tag_262:\n        /* \"#utility.yul\":8241:8380   */\n      swap1\n      pop\n        /* \"#utility.yul\":7968:8387   */\n      swap2\n      swap1\n      pop\n      jump\t// out\n        /* \"#utility.yul\":8393:8812   */\n    tag_149:\n        /* \"#utility.yul\":8559:8563   */\n      0x00\n        /* \"#utility.yul\":8597:8599   */\n      0x20\n        /* \"#utility.yul\":8586:8595   */\n      dup3\n        /* \"#utility.yul\":8582:8600   */\n      add\n        /* \"#utility.yul\":8574:8600   */\n      swap1\n      pop\n        /* \"#utility.yul\":8646:8655   */\n      dup2\n        /* \"#utility.yul\":8640:8644   */\n      dup2\n        /* \"#utility.yul\":8636:8656   */\n      sub\n        /* \"#utility.yul\":8632:8633   */\n      0x00\n        /* \"#utility.yul\":8621:8630   */\n      dup4\n        /* \"#utility.yul\":8617:8634   */\n      add\n        /* \"#utility.yul\":8610:8657   */\n      mstore\n        /* \"#utility.yul\":8674:8805   */\n      tag_264\n        /* \"#utility.yul\":8800:8804   */\n      dup2\n        /* \"#utility.yul\":8674:8805   */\n      tag_222\n      jump\t// in\n    tag_264:\n        /* \"#utility.yul\":8666:8805   */\n      swap1\n      pop\n        /* \"#utility.yul\":8393:8812   */\n      swap2\n      swap1\n      pop\n      jump\t// out\n        /* \"#utility.yul\":8818:9237   */\n    tag_111:\n        /* \"#utility.yul\":8984:8988   */\n      0x00\n        /* \"#utility.yul\":9022:9024   */\n      0x20\n        /* \"#utility.yul\":9011:9020   */\n      dup3\n        /* \"#utility.yul\":9007:9025   */\n      add\n        /* \"#utility.yul\":8999:9025   */\n      swap1\n      pop\n        /* \"#utility.yul\":9071:9080   */\n      dup2\n        /* \"#utility.yul\":9065:9069   */\n      dup2\n        /* \"#utility.yul\":9061:9081   */\n      sub\n        /* \"#utility.yul\":9057:9058   */\n      0x00\n        /* \"#utility.yul\":9046:9055   */\n      dup4\n        /* \"#utility.yul\":9042:9059   */\n      add\n        /* \"#utility.yul\":9035:9082   */\n      mstore\n        /* \"#utility.yul\":9099:9230   */\n      tag_266\n        /* \"#utility.yul\":9225:9229   */\n      dup2\n        /* \"#utility.yul\":9099:9230   */\n      tag_227\n      jump\t// in\n    tag_266:\n        /* \"#utility.yul\":9091:9230   */\n      swap1\n      pop\n        /* \"#utility.yul\":8818:9237   */\n      swap2\n      swap1\n      pop\n      jump\t// out\n        /* \"#utility.yul\":9243:9465   */\n    tag_30:\n        /* \"#utility.yul\":9336:9340   */\n      0x00\n        /* \"#utility.yul\":9374:9376   */\n      0x20\n        /* \"#utility.yul\":9363:9372   */\n      dup3\n        /* \"#utility.yul\":9359:9377   */\n      add\n        /* \"#utility.yul\":9351:9377   */\n      swap1\n      pop\n        /* \"#utility.yul\":9387:9458   */\n      tag_268\n        /* \"#utility.yul\":9455:9456   */\n      0x00\n        /* \"#utility.yul\":9444:9453   */\n      dup4\n        /* \"#utility.yul\":9440:9457   */\n      add\n        /* \"#utility.yul\":9431:9437   */\n      dup5\n        /* \"#utility.yul\":9387:9458   */\n      tag_232\n      jump\t// in\n    tag_268:\n        /* \"#utility.yul\":9243:9465   */\n      swap3\n      swap2\n      pop\n      pop\n      jump\t// out\n        /* \"#utility.yul\":9471:9685   */\n    tag_44:\n        /* \"#utility.yul\":9560:9564   */\n      0x00\n        /* \"#utility.yul\":9598:9600   */\n      0x20\n        /* \"#utility.yul\":9587:9596   */\n      dup3\n        /* \"#utility.yul\":9583:9601   */\n      add\n        /* \"#utility.yul\":9575:9601   */\n      swap1\n      pop\n        /* \"#utility.yul\":9611:9678   */\n      tag_270\n        /* \"#utility.yul\":9675:9676   */\n      0x00\n        /* \"#utility.yul\":9664:9673   */\n      dup4\n        /* \"#utility.yul\":9660:9677   */\n      add\n        /* \"#utility.yul\":9651:9657   */\n      dup5\n        /* \"#utility.yul\":9611:9678   */\n      tag_239\n      jump\t// in\n    tag_270:\n        /* \"#utility.yul\":9471:9685   */\n      swap3\n      swap2\n      pop\n      pop\n      jump\t// out\n        /* \"#utility.yul\":9772:9902   */\n    tag_195:\n        /* \"#utility.yul\":9837:9841   */\n      0x00\n        /* \"#utility.yul\":9860:9863   */\n      dup2\n        /* \"#utility.yul\":9852:9863   */\n      swap1\n      pop\n        /* \"#utility.yul\":9890:9894   */\n      0x20\n        /* \"#utility.yul\":9885:9888   */\n      dup3\n        /* \"#utility.yul\":9881:9895   */\n      add\n        /* \"#utility.yul\":9873:9895   */\n      swap1\n      pop\n        /* \"#utility.yul\":9772:9902   */\n      swap2\n      swap1\n      pop\n      jump\t// out\n        /* \"#utility.yul\":9908:10020   */\n    tag_191:\n        /* \"#utility.yul\":9973:9979   */\n      0x00\n        /* \"#utility.yul\":10007:10012   */\n      dup2\n        /* \"#utility.yul\":10001:10013   */\n      mload\n        /* \"#utility.yul\":9991:10013   */\n      swap1\n      pop\n        /* \"#utility.yul\":9908:10020   */\n      swap2\n      swap1\n      pop\n      jump\t// out\n        /* \"#utility.yul\":10026:10137   */\n    tag_201:\n        /* \"#utility.yul\":10094:10098   */\n      0x00\n        /* \"#utility.yul\":10126:10130   */\n      0x20\n        /* \"#utility.yul\":10121:10124   */\n      dup3\n        /* \"#utility.yul\":10117:10131   */\n      add\n        /* \"#utility.yul\":10109:10131   */\n      swap1\n      pop\n        /* \"#utility.yul\":10026:10137   */\n      swap2\n      swap1\n      pop\n      jump\t// out\n        /* \"#utility.yul\":10143:10325   */\n    tag_193:\n        /* \"#utility.yul\":10240:10251   */\n      0x00\n        /* \"#utility.yul\":10274:10280   */\n      dup3\n        /* \"#utility.yul\":10269:10272   */\n      dup3\n        /* \"#utility.yul\":10262:10281   */\n      mstore\n        /* \"#utility.yul\":10314:10318   */\n      0x20\n        /* \"#utility.yul\":10309:10312   */\n      dup3\n        /* \"#utility.yul\":10305:10319   */\n      add\n        /* \"#utility.yul\":10290:10319   */\n      swap1\n      pop\n        /* \"#utility.yul\":10143:10325   */\n      swap3\n      swap2\n      pop\n      pop\n      jump\t// out\n        /* \"#utility.yul\":10331:10500   */\n    tag_209:\n        /* \"#utility.yul\":10415:10426   */\n      0x00\n        /* \"#utility.yul\":10449:10455   */\n      dup3\n        /* \"#utility.yul\":10444:10447   */\n      dup3\n        /* \"#utility.yul\":10437:10456   */\n      mstore\n        /* \"#utility.yul\":10489:10493   */\n      0x20\n        /* \"#utility.yul\":10484:10487   */\n      dup3\n        /* \"#utility.yul\":10480:10494   */\n      add\n        /* \"#utility.yul\":10465:10494   */\n      swap1\n      pop\n        /* \"#utility.yul\":10331:10500   */\n      swap3\n      swap2\n      pop\n      pop\n      jump\t// out\n        /* \"#utility.yul\":10506:10811   */\n    tag_116:\n        /* \"#utility.yul\":10546:10549   */\n      0x00\n        /* \"#utility.yul\":10565:10585   */\n      tag_279\n        /* \"#utility.yul\":10583:10584   */\n      dup3\n        /* \"#utility.yul\":10565:10585   */\n      tag_235\n      jump\t// in\n    tag_279:\n        /* \"#utility.yul\":10560:10585   */\n      swap2\n      pop\n        /* \"#utility.yul\":10599:10619   */\n      tag_280\n        /* \"#utility.yul\":10617:10618   */\n      dup4\n        /* \"#utility.yul\":10599:10619   */\n      tag_235\n      jump\t// in\n    tag_280:\n        /* \"#utility.yul\":10594:10619   */\n      swap3\n      pop\n        /* \"#utility.yul\":10753:10754   */\n      dup3\n        /* \"#utility.yul\":10685:10751   */\n      0xffffffffffffffffffffffffffffffffffffffffffffffffffffffffffffffff\n        /* \"#utility.yul\":10681:10755   */\n      sub\n        /* \"#utility.yul\":10678:10679   */\n      dup3\n        /* \"#utility.yul\":10675:10756   */\n      gt\n        /* \"#utility.yul\":10672:10779   */\n      iszero\n      tag_281\n      jumpi\n        /* \"#utility.yul\":10759:10777   */\n      tag_282\n      tag_283\n      jump\t// in\n    tag_282:\n        /* \"#utility.yul\":10672:10779   */\n    tag_281:\n        /* \"#utility.yul\":10803:10804   */\n      dup3\n        /* \"#utility.yul\":10800:10801   */\n      dup3\n        /* \"#utility.yul\":10796:10805   */\n      add\n        /* \"#utility.yul\":10789:10805   */\n      swap1\n      pop\n        /* \"#utility.yul\":10506:10811   */\n      swap3\n      swap2\n      pop\n      pop\n      jump\t// out\n        /* \"#utility.yul\":10817:10913   */\n    tag_187:\n        /* \"#utility.yul\":10854:10861   */\n      0x00\n        /* \"#utility.yul\":10883:10907   */\n      tag_285\n        /* \"#utility.yul\":10901:10906   */\n      dup3\n        /* \"#utility.yul\":10883:10907   */\n      tag_286\n      jump\t// in\n    tag_285:\n        /* \"#utility.yul\":10872:10907   */\n      swap1\n      pop\n        /* \"#utility.yul\":10817:10913   */\n      swap2\n      swap1\n      pop\n      jump\t// out\n        /* \"#utility.yul\":10919:11009   */\n    tag_205:\n        /* \"#utility.yul\":10953:10960   */\n      0x00\n        /* \"#utility.yul\":10996:11001   */\n      dup2\n        /* \"#utility.yul\":10989:11002   */\n      iszero\n        /* \"#utility.yul\":10982:11003   */\n      iszero\n        /* \"#utility.yul\":10971:11003   */\n      swap1\n      pop\n        /* \"#utility.yul\":10919:11009   */\n      swap2\n      swap1\n      pop\n      jump\t// out\n        /* \"#utility.yul\":11015:11141   */\n    tag_286:\n        /* \"#utility.yul\":11052:11059   */\n      0x00\n        /* \"#utility.yul\":11092:11134   */\n      0xffffffffffffffffffffffffffffffffffffffff\n        /* \"#utility.yul\":11085:11090   */\n      dup3\n        /* \"#utility.yul\":11081:11135   */\n      and\n        /* \"#utility.yul\":11070:11135   */\n      swap1\n      pop\n        /* \"#utility.yul\":11015:11141   */\n      swap2\n      swap1\n      pop\n      jump\t// out\n        /* \"#utility.yul\":11147:11224   */\n    tag_235:\n        /* \"#utility.yul\":11184:11191   */\n      0x00\n        /* \"#utility.yul\":11213:11218   */\n      dup2\n        /* \"#utility.yul\":11202:11218   */\n      swap1\n      pop\n        /* \"#utility.yul\":11147:11224   */\n      swap2\n      swap1\n      pop\n      jump\t// out\n        /* \"#utility.yul\":11230:11316   */\n    tag_238:\n        /* \"#utility.yul\":11265:11272   */\n      0x00\n        /* \"#utility.yul\":11305:11309   */\n      0xff\n        /* \"#utility.yul\":11298:11303   */\n      dup3\n        /* \"#utility.yul\":11294:11310   */\n      and\n        /* \"#utility.yul\":11283:11310   */\n      swap1\n      pop\n        /* \"#utility.yul\":11230:11316   */\n      swap2\n      swap1\n      pop\n      jump\t// out\n        /* \"#utility.yul\":11322:11555   */\n    tag_119:\n        /* \"#utility.yul\":11361:11364   */\n      0x00\n        /* \"#utility.yul\":11384:11408   */\n      tag_292\n        /* \"#utility.yul\":11402:11407   */\n      dup3\n        /* \"#utility.yul\":11384:11408   */\n      tag_235\n      jump\t// in\n    tag_292:\n        /* \"#utility.yul\":11375:11408   */\n      swap2\n      pop\n        /* \"#utility.yul\":11430:11496   */\n      0xffffffffffffffffffffffffffffffffffffffffffffffffffffffffffffffff\n        /* \"#utility.yul\":11423:11428   */\n      dup3\n        /* \"#utility.yul\":11420:11497   */\n      eq\n        /* \"#utility.yul\":11417:11520   */\n      iszero\n      tag_293\n      jumpi\n        /* \"#utility.yul\":11500:11518   */\n      tag_294\n      tag_283\n      jump\t// in\n    tag_294:\n        /* \"#utility.yul\":11417:11520   */\n    tag_293:\n        /* \"#utility.yul\":11547:11548   */\n      0x01\n        /* \"#utility.yul\":11540:11545   */\n      dup3\n        /* \"#utility.yul\":11536:11549   */\n      add\n        /* \"#utility.yul\":11529:11549   */\n      swap1\n      pop\n        /* \"#utility.yul\":11322:11555   */\n      swap2\n      swap1\n      pop\n      jump\t// out\n        /* \"#utility.yul\":11561:11741   */\n    tag_283:\n        /* \"#utility.yul\":11609:11686   */\n      0x4e487b7100000000000000000000000000000000000000000000000000000000\n        /* \"#utility.yul\":11606:11607   */\n      0x00\n        /* \"#utility.yul\":11599:11687   */\n      mstore\n        /* \"#utility.yul\":11706:11710   */\n      0x11\n        /* \"#utility.yul\":11703:11704   */\n      0x04\n        /* \"#utility.yul\":11696:11711   */\n      mstore\n        /* \"#utility.yul\":11730:11734   */\n      0x24\n        /* \"#utility.yul\":11727:11728   */\n      0x00\n        /* \"#utility.yul\":11720:11735   */\n      revert\n        /* \"#utility.yul\":11870:11987   */\n    tag_164:\n        /* \"#utility.yul\":11979:11980   */\n      0x00\n        /* \"#utility.yul\":11976:11977   */\n      dup1\n        /* \"#utility.yul\":11969:11981   */\n      revert\n        /* \"#utility.yul\":11993:12155   */\n    tag_211:\n        /* \"#utility.yul\":12133:12147   */\n      0x67616d65206973206f7665720000000000000000000000000000000000000000\n        /* \"#utility.yul\":12129:12130   */\n      0x00\n        /* \"#utility.yul\":12121:12127   */\n      dup3\n        /* \"#utility.yul\":12117:12131   */\n      add\n        /* \"#utility.yul\":12110:12148   */\n      mstore\n        /* \"#utility.yul\":11993:12155   */\n      pop\n      jump\t// out\n        /* \"#utility.yul\":12161:12386   */\n    tag_216:\n        /* \"#utility.yul\":12301:12335   */\n      0x4f776e61626c653a206e6577206f776e657220697320746865207a65726f2061\n        /* \"#utility.yul\":12297:12298   */\n      0x00\n        /* \"#utility.yul\":12289:12295   */\n      dup3\n        /* \"#utility.yul\":12285:12299   */\n      add\n        /* \"#utility.yul\":12278:12336   */\n      mstore\n        /* \"#utility.yul\":12370:12378   */\n      0x6464726573730000000000000000000000000000000000000000000000000000\n        /* \"#utility.yul\":12365:12367   */\n      0x20\n        /* \"#utility.yul\":12357:12363   */\n      dup3\n        /* \"#utility.yul\":12353:12368   */\n      add\n        /* \"#utility.yul\":12346:12379   */\n      mstore\n        /* \"#utility.yul\":12161:12386   */\n      pop\n      jump\t// out\n        /* \"#utility.yul\":12392:12556   */\n    tag_221:\n        /* \"#utility.yul\":12532:12548   */\n      0x4e6f7420796f7572207475726e2e000000000000000000000000000000000000\n        /* \"#utility.yul\":12528:12529   */\n      0x00\n        /* \"#utility.yul\":12520:12526   */\n      dup3\n        /* \"#utility.yul\":12516:12530   */\n      add\n        /* \"#utility.yul\":12509:12549   */\n      mstore\n        /* \"#utility.yul\":12392:12556   */\n      pop\n      jump\t// out\n        /* \"#utility.yul\":12562:12744   */\n    tag_226:\n        /* \"#utility.yul\":12702:12736   */\n      0x4f776e61626c653a2063616c6c6572206973206e6f7420746865206f776e6572\n        /* \"#utility.yul\":12698:12699   */\n      0x00\n        /* \"#utility.yul\":12690:12696   */\n      dup3\n        /* \"#utility.yul\":12686:12700   */\n      add\n        /* \"#utility.yul\":12679:12737   */\n      mstore\n        /* \"#utility.yul\":12562:12744   */\n      pop\n      jump\t// out\n        /* \"#utility.yul\":12750:12925   */\n    tag_231:\n        /* \"#utility.yul\":12890:12917   */\n      0x7468697320706c617965722069736e277420706c6179696e6700000000000000\n        /* \"#utility.yul\":12886:12887   */\n      0x00\n        /* \"#utility.yul\":12878:12884   */\n      dup3\n        /* \"#utility.yul\":12874:12888   */\n      add\n        /* \"#utility.yul\":12867:12918   */\n      mstore\n        /* \"#utility.yul\":12750:12925   */\n      pop\n      jump\t// out\n        /* \"#utility.yul\":12931:13053   */\n    tag_156:\n        /* \"#utility.yul\":13004:13028   */\n      tag_305\n        /* \"#utility.yul\":13022:13027   */\n      dup2\n        /* \"#utility.yul\":13004:13028   */\n      tag_187\n      jump\t// in\n    tag_305:\n        /* \"#utility.yul\":12997:13002   */\n      dup2\n        /* \"#utility.yul\":12994:13029   */\n      eq\n        /* \"#utility.yul\":12984:13047   */\n      tag_306\n      jumpi\n        /* \"#utility.yul\":13043:13044   */\n      0x00\n        /* \"#utility.yul\":13040:13041   */\n      dup1\n        /* \"#utility.yul\":13033:13045   */\n      revert\n        /* \"#utility.yul\":12984:13047   */\n    tag_306:\n        /* \"#utility.yul\":12931:13053   */\n      pop\n      jump\t// out\n        /* \"#utility.yul\":13059:13181   */\n    tag_160:\n        /* \"#utility.yul\":13132:13156   */\n      tag_308\n        /* \"#utility.yul\":13150:13155   */\n      dup2\n        /* \"#utility.yul\":13132:13156   */\n      tag_235\n      jump\t// in\n    tag_308:\n        /* \"#utility.yul\":13125:13130   */\n      dup2\n        /* \"#utility.yul\":13122:13157   */\n      eq\n        /* \"#utility.yul\":13112:13175   */\n      tag_309\n      jumpi\n        /* \"#utility.yul\":13171:13172   */\n      0x00\n        /* \"#utility.yul\":13168:13169   */\n      dup1\n        /* \"#utility.yul\":13161:13173   */\n      revert\n        /* \"#utility.yul\":13112:13175   */\n    tag_309:\n        /* \"#utility.yul\":13059:13181   */\n      pop\n      jump\t// out\n\n    auxdata: 0xa26469706673582212209b7bfcacca04ef0d00e0e7c5298729c7c54a48d2fbaeef5005a0122d878f351964736f6c63430008070033\n}\n",
				"bytecode": {
					"linkReferences": {},
					"object": "608060405234801561001057600080fd5b5061002d61002261003a60201b60201c565b61004260201b60201c565b601e600781905550610106565b600033905090565b60008060009054906101000a900473ffffffffffffffffffffffffffffffffffffffff169050816000806101000a81548173ffffffffffffffffffffffffffffffffffffffff021916908373ffffffffffffffffffffffffffffffffffffffff1602179055508173ffffffffffffffffffffffffffffffffffffffff168173ffffffffffffffffffffffffffffffffffffffff167f8be0079c531659141344cd1fd0a4f28419497f9722a3daafe3b4186f6b6457e060405160405180910390a35050565b61135a806101156000396000f3fe608060405234801561001057600080fd5b50600436106101375760003560e01c8063715018a6116100b8578063bdb337d11161007c578063bdb337d11461030e578063c3fe3e281461032c578063c53391321461034b578063dfbf53ae14610369578063eb23b56b14610387578063f2fde38b146103a357610137565b8063715018a61461028c57806388c9cb3c146102965780638da5cb5b146102b4578063a285c54a146102d2578063bc120879146102f057610137565b806348db5f89116100ff57806348db5f89146101e3578063554693b1146102025780635d248301146102205780635e3568b814610250578063620633cb1461026e57610137565b8063041a84861461013c57806311bb15371461015a5780631a8a8dd81461017857806322f976ff14610197578063393f7eb6146101c7575b600080fd5b6101446103bf565b604051610151919061105b565b60405180910390f35b6101626103c5565b60405161016f9190610ee8565b60405180910390f35b6101806103eb565b60405161018e929190610f2c565b60405180910390f35b6101b160048036038101906101ac9190610d0b565b61042a565b6040516101be9190611076565b60405180910390f35b6101e160048036038101906101dc9190610d4b565b61046d565b005b6101eb610718565b6040516101f9929190610f2c565b60405180910390f35b61020a610757565b604051610217919061105b565b60405180910390f35b61023a60048036038101906102359190610d4b565b61075d565b6040516102479190610ee8565b60405180910390f35b61025861079c565b604051610265919061105b565b60405180910390f35b6102766107a2565b6040516102839190610f7e565b60405180910390f35b61029461085d565b005b61029e610871565b6040516102ab9190610fa0565b60405180910390f35b6102bc610884565b6040516102c99190610ee8565b60405180910390f35b6102da6108ad565b6040516102e79190610ee8565b60405180910390f35b6102f86108d3565b604051610305919061105b565b60405180910390f35b6103166108d9565b6040516103239190610fa0565b60405180910390f35b6103346108ec565b604051610342929190610f55565b60405180910390f35b61035361091e565b6040516103609190610ee8565b60405180910390f35b610371610944565b60405161037e9190610ee8565b60405180910390f35b6103a1600480360381019061039c9190610ccb565b61096a565b005b6103bd60048036038101906103b89190610c9e565b610aa6565b005b60085481565b600260009054906101000a900473ffffffffffffffffffffffffffffffffffffffff1681565b600d8060000160009054906101000a900473ffffffffffffffffffffffffffffffffffffffff16908060000160149054906101000a900460ff16905082565b600e602052816000526040600020818154811061044657600080fd5b9060005260206000209060209182820401919006915091509054906101000a900460ff1681565b600460149054906101000a900460ff16156104bd576040517f08c379a00000000000000000000000000000000000000000000000000000000081526004016104b490610fbb565b60405180910390fd5b600160009054906101000a900473ffffffffffffffffffffffffffffffffffffffff1673ffffffffffffffffffffffffffffffffffffffff163373ffffffffffffffffffffffffffffffffffffffff1614806105665750600260009054906101000a900473ffffffffffffffffffffffffffffffffffffffff1673ffffffffffffffffffffffffffffffffffffffff163373ffffffffffffffffffffffffffffffffffffffff16145b6105a5576040517f08c379a000000000000000000000000000000000000000000000000000000000815260040161059c9061103b565b60405180910390fd5b600360009054906101000a900473ffffffffffffffffffffffffffffffffffffffff1673ffffffffffffffffffffffffffffffffffffffff163373ffffffffffffffffffffffffffffffffffffffff161415610636576040517f08c379a000000000000000000000000000000000000000000000000000000000815260040161062d90610ffb565b60405180910390fd5b42600881905550601e60085461064c91906110db565b600781905550600a339080600181540180825580915050600190039060005260206000200160009091909190916101000a81548173ffffffffffffffffffffffffffffffffffffffff021916908373ffffffffffffffffffffffffffffffffffffffff16021790555033600360006101000a81548173ffffffffffffffffffffffffffffffffffffffff021916908373ffffffffffffffffffffffffffffffffffffffff160217905550806006819055506005600081548092919061071090611186565b919050555050565b600b8060000160009054906101000a900473ffffffffffffffffffffffffffffffffffffffff16908060000160149054906101000a900460ff16905082565b60065481565b600a818154811061076d57600080fd5b906000526020600020016000915054906101000a900473ffffffffffffffffffffffffffffffffffffffff1681565b60075481565b6060600e60003373ffffffffffffffffffffffffffffffffffffffff1673ffffffffffffffffffffffffffffffffffffffff16815260200190815260200160002080548060200260200160405190810160405280929190818152602001828054801561085357602002820191906000526020600020906000905b82829054906101000a900460ff1660ff168152602001906001019060208260000104928301926001038202915080841161081c5790505b5050505050905090565b610865610b2a565b61086f6000610ba8565b565b600960009054906101000a900460ff1681565b60008060009054906101000a900473ffffffffffffffffffffffffffffffffffffffff16905090565b600160009054906101000a900473ffffffffffffffffffffffffffffffffffffffff1681565b60055481565b600460149054906101000a900460ff1681565b600f8060000160009054906101000a900473ffffffffffffffffffffffffffffffffffffffff16908060010154905082565b600360009054906101000a900473ffffffffffffffffffffffffffffffffffffffff1681565b600460009054906101000a900473ffffffffffffffffffffffffffffffffffffffff1681565b8073ffffffffffffffffffffffffffffffffffffffff168273ffffffffffffffffffffffffffffffffffffffff1614156109a357600080fd5b81600160006101000a81548173ffffffffffffffffffffffffffffffffffffffff021916908373ffffffffffffffffffffffffffffffffffffffff16021790555080600260006101000a81548173ffffffffffffffffffffffffffffffffffffffff021916908373ffffffffffffffffffffffffffffffffffffffff1602179055507f55b25d7f9b5bf8ea934ba7079455d2ba00c68ea7e66c13695275f6b75b95e5f8600160009054906101000a900473ffffffffffffffffffffffffffffffffffffffff16600260009054906101000a900473ffffffffffffffffffffffffffffffffffffffff16604051610a9a929190610f03565b60405180910390a15050565b610aae610b2a565b600073ffffffffffffffffffffffffffffffffffffffff168173ffffffffffffffffffffffffffffffffffffffff161415610b1e576040517f08c379a0000000000000000000000000000000000000000000000000000000008152600401610b1590610fdb565b60405180910390fd5b610b2781610ba8565b50565b610b32610c6c565b73ffffffffffffffffffffffffffffffffffffffff16610b50610884565b73ffffffffffffffffffffffffffffffffffffffff1614610ba6576040517f08c379a0000000000000000000000000000000000000000000000000000000008152600401610b9d9061101b565b60405180910390fd5b565b60008060009054906101000a900473ffffffffffffffffffffffffffffffffffffffff169050816000806101000a81548173ffffffffffffffffffffffffffffffffffffffff021916908373ffffffffffffffffffffffffffffffffffffffff1602179055508173ffffffffffffffffffffffffffffffffffffffff168173ffffffffffffffffffffffffffffffffffffffff167f8be0079c531659141344cd1fd0a4f28419497f9722a3daafe3b4186f6b6457e060405160405180910390a35050565b600033905090565b600081359050610c83816112f6565b92915050565b600081359050610c988161130d565b92915050565b600060208284031215610cb457610cb36111fe565b5b6000610cc284828501610c74565b91505092915050565b60008060408385031215610ce257610ce16111fe565b5b6000610cf085828601610c74565b9250506020610d0185828601610c74565b9150509250929050565b60008060408385031215610d2257610d216111fe565b5b6000610d3085828601610c74565b9250506020610d4185828601610c89565b9150509250929050565b600060208284031215610d6157610d606111fe565b5b6000610d6f84828501610c89565b91505092915050565b6000610d848383610eca565b60208301905092915050565b610d9981611131565b82525050565b6000610daa826110a1565b610db481856110b9565b9350610dbf83611091565b8060005b83811015610df0578151610dd78882610d78565b9750610de2836110ac565b925050600181019050610dc3565b5085935050505092915050565b610e0681611143565b82525050565b6000610e19600c836110ca565b9150610e2482611203565b602082019050919050565b6000610e3c6026836110ca565b9150610e478261122c565b604082019050919050565b6000610e5f600e836110ca565b9150610e6a8261127b565b602082019050919050565b6000610e826020836110ca565b9150610e8d826112a4565b602082019050919050565b6000610ea56019836110ca565b9150610eb0826112cd565b602082019050919050565b610ec48161116f565b82525050565b610ed381611179565b82525050565b610ee281611179565b82525050565b6000602082019050610efd6000830184610d90565b92915050565b6000604082019050610f186000830185610d90565b610f256020830184610d90565b9392505050565b6000604082019050610f416000830185610d90565b610f4e6020830184610dfd565b9392505050565b6000604082019050610f6a6000830185610d90565b610f776020830184610ebb565b9392505050565b60006020820190508181036000830152610f988184610d9f565b905092915050565b6000602082019050610fb56000830184610dfd565b92915050565b60006020820190508181036000830152610fd481610e0c565b9050919050565b60006020820190508181036000830152610ff481610e2f565b9050919050565b6000602082019050818103600083015261101481610e52565b9050919050565b6000602082019050818103600083015261103481610e75565b9050919050565b6000602082019050818103600083015261105481610e98565b9050919050565b60006020820190506110706000830184610ebb565b92915050565b600060208201905061108b6000830184610ed9565b92915050565b6000819050602082019050919050565b600081519050919050565b6000602082019050919050565b600082825260208201905092915050565b600082825260208201905092915050565b60006110e68261116f565b91506110f18361116f565b9250827fffffffffffffffffffffffffffffffffffffffffffffffffffffffffffffffff03821115611126576111256111cf565b5b828201905092915050565b600061113c8261114f565b9050919050565b60008115159050919050565b600073ffffffffffffffffffffffffffffffffffffffff82169050919050565b6000819050919050565b600060ff82169050919050565b60006111918261116f565b91507fffffffffffffffffffffffffffffffffffffffffffffffffffffffffffffffff8214156111c4576111c36111cf565b5b600182019050919050565b7f4e487b7100000000000000000000000000000000000000000000000000000000600052601160045260246000fd5b600080fd5b7f67616d65206973206f7665720000000000000000000000000000000000000000600082015250565b7f4f776e61626c653a206e6577206f776e657220697320746865207a65726f206160008201527f6464726573730000000000000000000000000000000000000000000000000000602082015250565b7f4e6f7420796f7572207475726e2e000000000000000000000000000000000000600082015250565b7f4f776e61626c653a2063616c6c6572206973206e6f7420746865206f776e6572600082015250565b7f7468697320706c617965722069736e277420706c6179696e6700000000000000600082015250565b6112ff81611131565b811461130a57600080fd5b50565b6113168161116f565b811461132157600080fd5b5056fea26469706673582212209b7bfcacca04ef0d00e0e7c5298729c7c54a48d2fbaeef5005a0122d878f351964736f6c63430008070033",
					"opcodes": "PUSH1 0x80 PUSH1 0x40 MSTORE CALLVALUE DUP1 ISZERO PUSH2 0x10 JUMPI PUSH1 0x0 DUP1 REVERT JUMPDEST POP PUSH2 0x2D PUSH2 0x22 PUSH2 0x3A PUSH1 0x20 SHL PUSH1 0x20 SHR JUMP JUMPDEST PUSH2 0x42 PUSH1 0x20 SHL PUSH1 0x20 SHR JUMP JUMPDEST PUSH1 0x1E PUSH1 0x7 DUP2 SWAP1 SSTORE POP PUSH2 0x106 JUMP JUMPDEST PUSH1 0x0 CALLER SWAP1 POP SWAP1 JUMP JUMPDEST PUSH1 0x0 DUP1 PUSH1 0x0 SWAP1 SLOAD SWAP1 PUSH2 0x100 EXP SWAP1 DIV PUSH20 0xFFFFFFFFFFFFFFFFFFFFFFFFFFFFFFFFFFFFFFFF AND SWAP1 POP DUP2 PUSH1 0x0 DUP1 PUSH2 0x100 EXP DUP2 SLOAD DUP2 PUSH20 0xFFFFFFFFFFFFFFFFFFFFFFFFFFFFFFFFFFFFFFFF MUL NOT AND SWAP1 DUP4 PUSH20 0xFFFFFFFFFFFFFFFFFFFFFFFFFFFFFFFFFFFFFFFF AND MUL OR SWAP1 SSTORE POP DUP2 PUSH20 0xFFFFFFFFFFFFFFFFFFFFFFFFFFFFFFFFFFFFFFFF AND DUP2 PUSH20 0xFFFFFFFFFFFFFFFFFFFFFFFFFFFFFFFFFFFFFFFF AND PUSH32 0x8BE0079C531659141344CD1FD0A4F28419497F9722A3DAAFE3B4186F6B6457E0 PUSH1 0x40 MLOAD PUSH1 0x40 MLOAD DUP1 SWAP2 SUB SWAP1 LOG3 POP POP JUMP JUMPDEST PUSH2 0x135A DUP1 PUSH2 0x115 PUSH1 0x0 CODECOPY PUSH1 0x0 RETURN INVALID PUSH1 0x80 PUSH1 0x40 MSTORE CALLVALUE DUP1 ISZERO PUSH2 0x10 JUMPI PUSH1 0x0 DUP1 REVERT JUMPDEST POP PUSH1 0x4 CALLDATASIZE LT PUSH2 0x137 JUMPI PUSH1 0x0 CALLDATALOAD PUSH1 0xE0 SHR DUP1 PUSH4 0x715018A6 GT PUSH2 0xB8 JUMPI DUP1 PUSH4 0xBDB337D1 GT PUSH2 0x7C JUMPI DUP1 PUSH4 0xBDB337D1 EQ PUSH2 0x30E JUMPI DUP1 PUSH4 0xC3FE3E28 EQ PUSH2 0x32C JUMPI DUP1 PUSH4 0xC5339132 EQ PUSH2 0x34B JUMPI DUP1 PUSH4 0xDFBF53AE EQ PUSH2 0x369 JUMPI DUP1 PUSH4 0xEB23B56B EQ PUSH2 0x387 JUMPI DUP1 PUSH4 0xF2FDE38B EQ PUSH2 0x3A3 JUMPI PUSH2 0x137 JUMP JUMPDEST DUP1 PUSH4 0x715018A6 EQ PUSH2 0x28C JUMPI DUP1 PUSH4 0x88C9CB3C EQ PUSH2 0x296 JUMPI DUP1 PUSH4 0x8DA5CB5B EQ PUSH2 0x2B4 JUMPI DUP1 PUSH4 0xA285C54A EQ PUSH2 0x2D2 JUMPI DUP1 PUSH4 0xBC120879 EQ PUSH2 0x2F0 JUMPI PUSH2 0x137 JUMP JUMPDEST DUP1 PUSH4 0x48DB5F89 GT PUSH2 0xFF JUMPI DUP1 PUSH4 0x48DB5F89 EQ PUSH2 0x1E3 JUMPI DUP1 PUSH4 0x554693B1 EQ PUSH2 0x202 JUMPI DUP1 PUSH4 0x5D248301 EQ PUSH2 0x220 JUMPI DUP1 PUSH4 0x5E3568B8 EQ PUSH2 0x250 JUMPI DUP1 PUSH4 0x620633CB EQ PUSH2 0x26E JUMPI PUSH2 0x137 JUMP JUMPDEST DUP1 PUSH4 0x41A8486 EQ PUSH2 0x13C JUMPI DUP1 PUSH4 0x11BB1537 EQ PUSH2 0x15A JUMPI DUP1 PUSH4 0x1A8A8DD8 EQ PUSH2 0x178 JUMPI DUP1 PUSH4 0x22F976FF EQ PUSH2 0x197 JUMPI DUP1 PUSH4 0x393F7EB6 EQ PUSH2 0x1C7 JUMPI JUMPDEST PUSH1 0x0 DUP1 REVERT JUMPDEST PUSH2 0x144 PUSH2 0x3BF JUMP JUMPDEST PUSH1 0x40 MLOAD PUSH2 0x151 SWAP2 SWAP1 PUSH2 0x105B JUMP JUMPDEST PUSH1 0x40 MLOAD DUP1 SWAP2 SUB SWAP1 RETURN JUMPDEST PUSH2 0x162 PUSH2 0x3C5 JUMP JUMPDEST PUSH1 0x40 MLOAD PUSH2 0x16F SWAP2 SWAP1 PUSH2 0xEE8 JUMP JUMPDEST PUSH1 0x40 MLOAD DUP1 SWAP2 SUB SWAP1 RETURN JUMPDEST PUSH2 0x180 PUSH2 0x3EB JUMP JUMPDEST PUSH1 0x40 MLOAD PUSH2 0x18E SWAP3 SWAP2 SWAP1 PUSH2 0xF2C JUMP JUMPDEST PUSH1 0x40 MLOAD DUP1 SWAP2 SUB SWAP1 RETURN JUMPDEST PUSH2 0x1B1 PUSH1 0x4 DUP1 CALLDATASIZE SUB DUP2 ADD SWAP1 PUSH2 0x1AC SWAP2 SWAP1 PUSH2 0xD0B JUMP JUMPDEST PUSH2 0x42A JUMP JUMPDEST PUSH1 0x40 MLOAD PUSH2 0x1BE SWAP2 SWAP1 PUSH2 0x1076 JUMP JUMPDEST PUSH1 0x40 MLOAD DUP1 SWAP2 SUB SWAP1 RETURN JUMPDEST PUSH2 0x1E1 PUSH1 0x4 DUP1 CALLDATASIZE SUB DUP2 ADD SWAP1 PUSH2 0x1DC SWAP2 SWAP1 PUSH2 0xD4B JUMP JUMPDEST PUSH2 0x46D JUMP JUMPDEST STOP JUMPDEST PUSH2 0x1EB PUSH2 0x718 JUMP JUMPDEST PUSH1 0x40 MLOAD PUSH2 0x1F9 SWAP3 SWAP2 SWAP1 PUSH2 0xF2C JUMP JUMPDEST PUSH1 0x40 MLOAD DUP1 SWAP2 SUB SWAP1 RETURN JUMPDEST PUSH2 0x20A PUSH2 0x757 JUMP JUMPDEST PUSH1 0x40 MLOAD PUSH2 0x217 SWAP2 SWAP1 PUSH2 0x105B JUMP JUMPDEST PUSH1 0x40 MLOAD DUP1 SWAP2 SUB SWAP1 RETURN JUMPDEST PUSH2 0x23A PUSH1 0x4 DUP1 CALLDATASIZE SUB DUP2 ADD SWAP1 PUSH2 0x235 SWAP2 SWAP1 PUSH2 0xD4B JUMP JUMPDEST PUSH2 0x75D JUMP JUMPDEST PUSH1 0x40 MLOAD PUSH2 0x247 SWAP2 SWAP1 PUSH2 0xEE8 JUMP JUMPDEST PUSH1 0x40 MLOAD DUP1 SWAP2 SUB SWAP1 RETURN JUMPDEST PUSH2 0x258 PUSH2 0x79C JUMP JUMPDEST PUSH1 0x40 MLOAD PUSH2 0x265 SWAP2 SWAP1 PUSH2 0x105B JUMP JUMPDEST PUSH1 0x40 MLOAD DUP1 SWAP2 SUB SWAP1 RETURN JUMPDEST PUSH2 0x276 PUSH2 0x7A2 JUMP JUMPDEST PUSH1 0x40 MLOAD PUSH2 0x283 SWAP2 SWAP1 PUSH2 0xF7E JUMP JUMPDEST PUSH1 0x40 MLOAD DUP1 SWAP2 SUB SWAP1 RETURN JUMPDEST PUSH2 0x294 PUSH2 0x85D JUMP JUMPDEST STOP JUMPDEST PUSH2 0x29E PUSH2 0x871 JUMP JUMPDEST PUSH1 0x40 MLOAD PUSH2 0x2AB SWAP2 SWAP1 PUSH2 0xFA0 JUMP JUMPDEST PUSH1 0x40 MLOAD DUP1 SWAP2 SUB SWAP1 RETURN JUMPDEST PUSH2 0x2BC PUSH2 0x884 JUMP JUMPDEST PUSH1 0x40 MLOAD PUSH2 0x2C9 SWAP2 SWAP1 PUSH2 0xEE8 JUMP JUMPDEST PUSH1 0x40 MLOAD DUP1 SWAP2 SUB SWAP1 RETURN JUMPDEST PUSH2 0x2DA PUSH2 0x8AD JUMP JUMPDEST PUSH1 0x40 MLOAD PUSH2 0x2E7 SWAP2 SWAP1 PUSH2 0xEE8 JUMP JUMPDEST PUSH1 0x40 MLOAD DUP1 SWAP2 SUB SWAP1 RETURN JUMPDEST PUSH2 0x2F8 PUSH2 0x8D3 JUMP JUMPDEST PUSH1 0x40 MLOAD PUSH2 0x305 SWAP2 SWAP1 PUSH2 0x105B JUMP JUMPDEST PUSH1 0x40 MLOAD DUP1 SWAP2 SUB SWAP1 RETURN JUMPDEST PUSH2 0x316 PUSH2 0x8D9 JUMP JUMPDEST PUSH1 0x40 MLOAD PUSH2 0x323 SWAP2 SWAP1 PUSH2 0xFA0 JUMP JUMPDEST PUSH1 0x40 MLOAD DUP1 SWAP2 SUB SWAP1 RETURN JUMPDEST PUSH2 0x334 PUSH2 0x8EC JUMP JUMPDEST PUSH1 0x40 MLOAD PUSH2 0x342 SWAP3 SWAP2 SWAP1 PUSH2 0xF55 JUMP JUMPDEST PUSH1 0x40 MLOAD DUP1 SWAP2 SUB SWAP1 RETURN JUMPDEST PUSH2 0x353 PUSH2 0x91E JUMP JUMPDEST PUSH1 0x40 MLOAD PUSH2 0x360 SWAP2 SWAP1 PUSH2 0xEE8 JUMP JUMPDEST PUSH1 0x40 MLOAD DUP1 SWAP2 SUB SWAP1 RETURN JUMPDEST PUSH2 0x371 PUSH2 0x944 JUMP JUMPDEST PUSH1 0x40 MLOAD PUSH2 0x37E SWAP2 SWAP1 PUSH2 0xEE8 JUMP JUMPDEST PUSH1 0x40 MLOAD DUP1 SWAP2 SUB SWAP1 RETURN JUMPDEST PUSH2 0x3A1 PUSH1 0x4 DUP1 CALLDATASIZE SUB DUP2 ADD SWAP1 PUSH2 0x39C SWAP2 SWAP1 PUSH2 0xCCB JUMP JUMPDEST PUSH2 0x96A JUMP JUMPDEST STOP JUMPDEST PUSH2 0x3BD PUSH1 0x4 DUP1 CALLDATASIZE SUB DUP2 ADD SWAP1 PUSH2 0x3B8 SWAP2 SWAP1 PUSH2 0xC9E JUMP JUMPDEST PUSH2 0xAA6 JUMP JUMPDEST STOP JUMPDEST PUSH1 0x8 SLOAD DUP2 JUMP JUMPDEST PUSH1 0x2 PUSH1 0x0 SWAP1 SLOAD SWAP1 PUSH2 0x100 EXP SWAP1 DIV PUSH20 0xFFFFFFFFFFFFFFFFFFFFFFFFFFFFFFFFFFFFFFFF AND DUP2 JUMP JUMPDEST PUSH1 0xD DUP1 PUSH1 0x0 ADD PUSH1 0x0 SWAP1 SLOAD SWAP1 PUSH2 0x100 EXP SWAP1 DIV PUSH20 0xFFFFFFFFFFFFFFFFFFFFFFFFFFFFFFFFFFFFFFFF AND SWAP1 DUP1 PUSH1 0x0 ADD PUSH1 0x14 SWAP1 SLOAD SWAP1 PUSH2 0x100 EXP SWAP1 DIV PUSH1 0xFF AND SWAP1 POP DUP3 JUMP JUMPDEST PUSH1 0xE PUSH1 0x20 MSTORE DUP2 PUSH1 0x0 MSTORE PUSH1 0x40 PUSH1 0x0 KECCAK256 DUP2 DUP2 SLOAD DUP2 LT PUSH2 0x446 JUMPI PUSH1 0x0 DUP1 REVERT JUMPDEST SWAP1 PUSH1 0x0 MSTORE PUSH1 0x20 PUSH1 0x0 KECCAK256 SWAP1 PUSH1 0x20 SWAP2 DUP3 DUP3 DIV ADD SWAP2 SWAP1 MOD SWAP2 POP SWAP2 POP SWAP1 SLOAD SWAP1 PUSH2 0x100 EXP SWAP1 DIV PUSH1 0xFF AND DUP2 JUMP JUMPDEST PUSH1 0x4 PUSH1 0x14 SWAP1 SLOAD SWAP1 PUSH2 0x100 EXP SWAP1 DIV PUSH1 0xFF AND ISZERO PUSH2 0x4BD JUMPI PUSH1 0x40 MLOAD PUSH32 0x8C379A000000000000000000000000000000000000000000000000000000000 DUP2 MSTORE PUSH1 0x4 ADD PUSH2 0x4B4 SWAP1 PUSH2 0xFBB JUMP JUMPDEST PUSH1 0x40 MLOAD DUP1 SWAP2 SUB SWAP1 REVERT JUMPDEST PUSH1 0x1 PUSH1 0x0 SWAP1 SLOAD SWAP1 PUSH2 0x100 EXP SWAP1 DIV PUSH20 0xFFFFFFFFFFFFFFFFFFFFFFFFFFFFFFFFFFFFFFFF AND PUSH20 0xFFFFFFFFFFFFFFFFFFFFFFFFFFFFFFFFFFFFFFFF AND CALLER PUSH20 0xFFFFFFFFFFFFFFFFFFFFFFFFFFFFFFFFFFFFFFFF AND EQ DUP1 PUSH2 0x566 JUMPI POP PUSH1 0x2 PUSH1 0x0 SWAP1 SLOAD SWAP1 PUSH2 0x100 EXP SWAP1 DIV PUSH20 0xFFFFFFFFFFFFFFFFFFFFFFFFFFFFFFFFFFFFFFFF AND PUSH20 0xFFFFFFFFFFFFFFFFFFFFFFFFFFFFFFFFFFFFFFFF AND CALLER PUSH20 0xFFFFFFFFFFFFFFFFFFFFFFFFFFFFFFFFFFFFFFFF AND EQ JUMPDEST PUSH2 0x5A5 JUMPI PUSH1 0x40 MLOAD PUSH32 0x8C379A000000000000000000000000000000000000000000000000000000000 DUP2 MSTORE PUSH1 0x4 ADD PUSH2 0x59C SWAP1 PUSH2 0x103B JUMP JUMPDEST PUSH1 0x40 MLOAD DUP1 SWAP2 SUB SWAP1 REVERT JUMPDEST PUSH1 0x3 PUSH1 0x0 SWAP1 SLOAD SWAP1 PUSH2 0x100 EXP SWAP1 DIV PUSH20 0xFFFFFFFFFFFFFFFFFFFFFFFFFFFFFFFFFFFFFFFF AND PUSH20 0xFFFFFFFFFFFFFFFFFFFFFFFFFFFFFFFFFFFFFFFF AND CALLER PUSH20 0xFFFFFFFFFFFFFFFFFFFFFFFFFFFFFFFFFFFFFFFF AND EQ ISZERO PUSH2 0x636 JUMPI PUSH1 0x40 MLOAD PUSH32 0x8C379A000000000000000000000000000000000000000000000000000000000 DUP2 MSTORE PUSH1 0x4 ADD PUSH2 0x62D SWAP1 PUSH2 0xFFB JUMP JUMPDEST PUSH1 0x40 MLOAD DUP1 SWAP2 SUB SWAP1 REVERT JUMPDEST TIMESTAMP PUSH1 0x8 DUP2 SWAP1 SSTORE POP PUSH1 0x1E PUSH1 0x8 SLOAD PUSH2 0x64C SWAP2 SWAP1 PUSH2 0x10DB JUMP JUMPDEST PUSH1 0x7 DUP2 SWAP1 SSTORE POP PUSH1 0xA CALLER SWAP1 DUP1 PUSH1 0x1 DUP2 SLOAD ADD DUP1 DUP3 SSTORE DUP1 SWAP2 POP POP PUSH1 0x1 SWAP1 SUB SWAP1 PUSH1 0x0 MSTORE PUSH1 0x20 PUSH1 0x0 KECCAK256 ADD PUSH1 0x0 SWAP1 SWAP2 SWAP1 SWAP2 SWAP1 SWAP2 PUSH2 0x100 EXP DUP2 SLOAD DUP2 PUSH20 0xFFFFFFFFFFFFFFFFFFFFFFFFFFFFFFFFFFFFFFFF MUL NOT AND SWAP1 DUP4 PUSH20 0xFFFFFFFFFFFFFFFFFFFFFFFFFFFFFFFFFFFFFFFF AND MUL OR SWAP1 SSTORE POP CALLER PUSH1 0x3 PUSH1 0x0 PUSH2 0x100 EXP DUP2 SLOAD DUP2 PUSH20 0xFFFFFFFFFFFFFFFFFFFFFFFFFFFFFFFFFFFFFFFF MUL NOT AND SWAP1 DUP4 PUSH20 0xFFFFFFFFFFFFFFFFFFFFFFFFFFFFFFFFFFFFFFFF AND MUL OR SWAP1 SSTORE POP DUP1 PUSH1 0x6 DUP2 SWAP1 SSTORE POP PUSH1 0x5 PUSH1 0x0 DUP2 SLOAD DUP1 SWAP3 SWAP2 SWAP1 PUSH2 0x710 SWAP1 PUSH2 0x1186 JUMP JUMPDEST SWAP2 SWAP1 POP SSTORE POP POP JUMP JUMPDEST PUSH1 0xB DUP1 PUSH1 0x0 ADD PUSH1 0x0 SWAP1 SLOAD SWAP1 PUSH2 0x100 EXP SWAP1 DIV PUSH20 0xFFFFFFFFFFFFFFFFFFFFFFFFFFFFFFFFFFFFFFFF AND SWAP1 DUP1 PUSH1 0x0 ADD PUSH1 0x14 SWAP1 SLOAD SWAP1 PUSH2 0x100 EXP SWAP1 DIV PUSH1 0xFF AND SWAP1 POP DUP3 JUMP JUMPDEST PUSH1 0x6 SLOAD DUP2 JUMP JUMPDEST PUSH1 0xA DUP2 DUP2 SLOAD DUP2 LT PUSH2 0x76D JUMPI PUSH1 0x0 DUP1 REVERT JUMPDEST SWAP1 PUSH1 0x0 MSTORE PUSH1 0x20 PUSH1 0x0 KECCAK256 ADD PUSH1 0x0 SWAP2 POP SLOAD SWAP1 PUSH2 0x100 EXP SWAP1 DIV PUSH20 0xFFFFFFFFFFFFFFFFFFFFFFFFFFFFFFFFFFFFFFFF AND DUP2 JUMP JUMPDEST PUSH1 0x7 SLOAD DUP2 JUMP JUMPDEST PUSH1 0x60 PUSH1 0xE PUSH1 0x0 CALLER PUSH20 0xFFFFFFFFFFFFFFFFFFFFFFFFFFFFFFFFFFFFFFFF AND PUSH20 0xFFFFFFFFFFFFFFFFFFFFFFFFFFFFFFFFFFFFFFFF AND DUP2 MSTORE PUSH1 0x20 ADD SWAP1 DUP2 MSTORE PUSH1 0x20 ADD PUSH1 0x0 KECCAK256 DUP1 SLOAD DUP1 PUSH1 0x20 MUL PUSH1 0x20 ADD PUSH1 0x40 MLOAD SWAP1 DUP2 ADD PUSH1 0x40 MSTORE DUP1 SWAP3 SWAP2 SWAP1 DUP2 DUP2 MSTORE PUSH1 0x20 ADD DUP3 DUP1 SLOAD DUP1 ISZERO PUSH2 0x853 JUMPI PUSH1 0x20 MUL DUP3 ADD SWAP2 SWAP1 PUSH1 0x0 MSTORE PUSH1 0x20 PUSH1 0x0 KECCAK256 SWAP1 PUSH1 0x0 SWAP1 JUMPDEST DUP3 DUP3 SWAP1 SLOAD SWAP1 PUSH2 0x100 EXP SWAP1 DIV PUSH1 0xFF AND PUSH1 0xFF AND DUP2 MSTORE PUSH1 0x20 ADD SWAP1 PUSH1 0x1 ADD SWAP1 PUSH1 0x20 DUP3 PUSH1 0x0 ADD DIV SWAP3 DUP4 ADD SWAP3 PUSH1 0x1 SUB DUP3 MUL SWAP2 POP DUP1 DUP5 GT PUSH2 0x81C JUMPI SWAP1 POP JUMPDEST POP POP POP POP POP SWAP1 POP SWAP1 JUMP JUMPDEST PUSH2 0x865 PUSH2 0xB2A JUMP JUMPDEST PUSH2 0x86F PUSH1 0x0 PUSH2 0xBA8 JUMP JUMPDEST JUMP JUMPDEST PUSH1 0x9 PUSH1 0x0 SWAP1 SLOAD SWAP1 PUSH2 0x100 EXP SWAP1 DIV PUSH1 0xFF AND DUP2 JUMP JUMPDEST PUSH1 0x0 DUP1 PUSH1 0x0 SWAP1 SLOAD SWAP1 PUSH2 0x100 EXP SWAP1 DIV PUSH20 0xFFFFFFFFFFFFFFFFFFFFFFFFFFFFFFFFFFFFFFFF AND SWAP1 POP SWAP1 JUMP JUMPDEST PUSH1 0x1 PUSH1 0x0 SWAP1 SLOAD SWAP1 PUSH2 0x100 EXP SWAP1 DIV PUSH20 0xFFFFFFFFFFFFFFFFFFFFFFFFFFFFFFFFFFFFFFFF AND DUP2 JUMP JUMPDEST PUSH1 0x5 SLOAD DUP2 JUMP JUMPDEST PUSH1 0x4 PUSH1 0x14 SWAP1 SLOAD SWAP1 PUSH2 0x100 EXP SWAP1 DIV PUSH1 0xFF AND DUP2 JUMP JUMPDEST PUSH1 0xF DUP1 PUSH1 0x0 ADD PUSH1 0x0 SWAP1 SLOAD SWAP1 PUSH2 0x100 EXP SWAP1 DIV PUSH20 0xFFFFFFFFFFFFFFFFFFFFFFFFFFFFFFFFFFFFFFFF AND SWAP1 DUP1 PUSH1 0x1 ADD SLOAD SWAP1 POP DUP3 JUMP JUMPDEST PUSH1 0x3 PUSH1 0x0 SWAP1 SLOAD SWAP1 PUSH2 0x100 EXP SWAP1 DIV PUSH20 0xFFFFFFFFFFFFFFFFFFFFFFFFFFFFFFFFFFFFFFFF AND DUP2 JUMP JUMPDEST PUSH1 0x4 PUSH1 0x0 SWAP1 SLOAD SWAP1 PUSH2 0x100 EXP SWAP1 DIV PUSH20 0xFFFFFFFFFFFFFFFFFFFFFFFFFFFFFFFFFFFFFFFF AND DUP2 JUMP JUMPDEST DUP1 PUSH20 0xFFFFFFFFFFFFFFFFFFFFFFFFFFFFFFFFFFFFFFFF AND DUP3 PUSH20 0xFFFFFFFFFFFFFFFFFFFFFFFFFFFFFFFFFFFFFFFF AND EQ ISZERO PUSH2 0x9A3 JUMPI PUSH1 0x0 DUP1 REVERT JUMPDEST DUP2 PUSH1 0x1 PUSH1 0x0 PUSH2 0x100 EXP DUP2 SLOAD DUP2 PUSH20 0xFFFFFFFFFFFFFFFFFFFFFFFFFFFFFFFFFFFFFFFF MUL NOT AND SWAP1 DUP4 PUSH20 0xFFFFFFFFFFFFFFFFFFFFFFFFFFFFFFFFFFFFFFFF AND MUL OR SWAP1 SSTORE POP DUP1 PUSH1 0x2 PUSH1 0x0 PUSH2 0x100 EXP DUP2 SLOAD DUP2 PUSH20 0xFFFFFFFFFFFFFFFFFFFFFFFFFFFFFFFFFFFFFFFF MUL NOT AND SWAP1 DUP4 PUSH20 0xFFFFFFFFFFFFFFFFFFFFFFFFFFFFFFFFFFFFFFFF AND MUL OR SWAP1 SSTORE POP PUSH32 0x55B25D7F9B5BF8EA934BA7079455D2BA00C68EA7E66C13695275F6B75B95E5F8 PUSH1 0x1 PUSH1 0x0 SWAP1 SLOAD SWAP1 PUSH2 0x100 EXP SWAP1 DIV PUSH20 0xFFFFFFFFFFFFFFFFFFFFFFFFFFFFFFFFFFFFFFFF AND PUSH1 0x2 PUSH1 0x0 SWAP1 SLOAD SWAP1 PUSH2 0x100 EXP SWAP1 DIV PUSH20 0xFFFFFFFFFFFFFFFFFFFFFFFFFFFFFFFFFFFFFFFF AND PUSH1 0x40 MLOAD PUSH2 0xA9A SWAP3 SWAP2 SWAP1 PUSH2 0xF03 JUMP JUMPDEST PUSH1 0x40 MLOAD DUP1 SWAP2 SUB SWAP1 LOG1 POP POP JUMP JUMPDEST PUSH2 0xAAE PUSH2 0xB2A JUMP JUMPDEST PUSH1 0x0 PUSH20 0xFFFFFFFFFFFFFFFFFFFFFFFFFFFFFFFFFFFFFFFF AND DUP2 PUSH20 0xFFFFFFFFFFFFFFFFFFFFFFFFFFFFFFFFFFFFFFFF AND EQ ISZERO PUSH2 0xB1E JUMPI PUSH1 0x40 MLOAD PUSH32 0x8C379A000000000000000000000000000000000000000000000000000000000 DUP2 MSTORE PUSH1 0x4 ADD PUSH2 0xB15 SWAP1 PUSH2 0xFDB JUMP JUMPDEST PUSH1 0x40 MLOAD DUP1 SWAP2 SUB SWAP1 REVERT JUMPDEST PUSH2 0xB27 DUP2 PUSH2 0xBA8 JUMP JUMPDEST POP JUMP JUMPDEST PUSH2 0xB32 PUSH2 0xC6C JUMP JUMPDEST PUSH20 0xFFFFFFFFFFFFFFFFFFFFFFFFFFFFFFFFFFFFFFFF AND PUSH2 0xB50 PUSH2 0x884 JUMP JUMPDEST PUSH20 0xFFFFFFFFFFFFFFFFFFFFFFFFFFFFFFFFFFFFFFFF AND EQ PUSH2 0xBA6 JUMPI PUSH1 0x40 MLOAD PUSH32 0x8C379A000000000000000000000000000000000000000000000000000000000 DUP2 MSTORE PUSH1 0x4 ADD PUSH2 0xB9D SWAP1 PUSH2 0x101B JUMP JUMPDEST PUSH1 0x40 MLOAD DUP1 SWAP2 SUB SWAP1 REVERT JUMPDEST JUMP JUMPDEST PUSH1 0x0 DUP1 PUSH1 0x0 SWAP1 SLOAD SWAP1 PUSH2 0x100 EXP SWAP1 DIV PUSH20 0xFFFFFFFFFFFFFFFFFFFFFFFFFFFFFFFFFFFFFFFF AND SWAP1 POP DUP2 PUSH1 0x0 DUP1 PUSH2 0x100 EXP DUP2 SLOAD DUP2 PUSH20 0xFFFFFFFFFFFFFFFFFFFFFFFFFFFFFFFFFFFFFFFF MUL NOT AND SWAP1 DUP4 PUSH20 0xFFFFFFFFFFFFFFFFFFFFFFFFFFFFFFFFFFFFFFFF AND MUL OR SWAP1 SSTORE POP DUP2 PUSH20 0xFFFFFFFFFFFFFFFFFFFFFFFFFFFFFFFFFFFFFFFF AND DUP2 PUSH20 0xFFFFFFFFFFFFFFFFFFFFFFFFFFFFFFFFFFFFFFFF AND PUSH32 0x8BE0079C531659141344CD1FD0A4F28419497F9722A3DAAFE3B4186F6B6457E0 PUSH1 0x40 MLOAD PUSH1 0x40 MLOAD DUP1 SWAP2 SUB SWAP1 LOG3 POP POP JUMP JUMPDEST PUSH1 0x0 CALLER SWAP1 POP SWAP1 JUMP JUMPDEST PUSH1 0x0 DUP2 CALLDATALOAD SWAP1 POP PUSH2 0xC83 DUP2 PUSH2 0x12F6 JUMP JUMPDEST SWAP3 SWAP2 POP POP JUMP JUMPDEST PUSH1 0x0 DUP2 CALLDATALOAD SWAP1 POP PUSH2 0xC98 DUP2 PUSH2 0x130D JUMP JUMPDEST SWAP3 SWAP2 POP POP JUMP JUMPDEST PUSH1 0x0 PUSH1 0x20 DUP3 DUP5 SUB SLT ISZERO PUSH2 0xCB4 JUMPI PUSH2 0xCB3 PUSH2 0x11FE JUMP JUMPDEST JUMPDEST PUSH1 0x0 PUSH2 0xCC2 DUP5 DUP3 DUP6 ADD PUSH2 0xC74 JUMP JUMPDEST SWAP2 POP POP SWAP3 SWAP2 POP POP JUMP JUMPDEST PUSH1 0x0 DUP1 PUSH1 0x40 DUP4 DUP6 SUB SLT ISZERO PUSH2 0xCE2 JUMPI PUSH2 0xCE1 PUSH2 0x11FE JUMP JUMPDEST JUMPDEST PUSH1 0x0 PUSH2 0xCF0 DUP6 DUP3 DUP7 ADD PUSH2 0xC74 JUMP JUMPDEST SWAP3 POP POP PUSH1 0x20 PUSH2 0xD01 DUP6 DUP3 DUP7 ADD PUSH2 0xC74 JUMP JUMPDEST SWAP2 POP POP SWAP3 POP SWAP3 SWAP1 POP JUMP JUMPDEST PUSH1 0x0 DUP1 PUSH1 0x40 DUP4 DUP6 SUB SLT ISZERO PUSH2 0xD22 JUMPI PUSH2 0xD21 PUSH2 0x11FE JUMP JUMPDEST JUMPDEST PUSH1 0x0 PUSH2 0xD30 DUP6 DUP3 DUP7 ADD PUSH2 0xC74 JUMP JUMPDEST SWAP3 POP POP PUSH1 0x20 PUSH2 0xD41 DUP6 DUP3 DUP7 ADD PUSH2 0xC89 JUMP JUMPDEST SWAP2 POP POP SWAP3 POP SWAP3 SWAP1 POP JUMP JUMPDEST PUSH1 0x0 PUSH1 0x20 DUP3 DUP5 SUB SLT ISZERO PUSH2 0xD61 JUMPI PUSH2 0xD60 PUSH2 0x11FE JUMP JUMPDEST JUMPDEST PUSH1 0x0 PUSH2 0xD6F DUP5 DUP3 DUP6 ADD PUSH2 0xC89 JUMP JUMPDEST SWAP2 POP POP SWAP3 SWAP2 POP POP JUMP JUMPDEST PUSH1 0x0 PUSH2 0xD84 DUP4 DUP4 PUSH2 0xECA JUMP JUMPDEST PUSH1 0x20 DUP4 ADD SWAP1 POP SWAP3 SWAP2 POP POP JUMP JUMPDEST PUSH2 0xD99 DUP2 PUSH2 0x1131 JUMP JUMPDEST DUP3 MSTORE POP POP JUMP JUMPDEST PUSH1 0x0 PUSH2 0xDAA DUP3 PUSH2 0x10A1 JUMP JUMPDEST PUSH2 0xDB4 DUP2 DUP6 PUSH2 0x10B9 JUMP JUMPDEST SWAP4 POP PUSH2 0xDBF DUP4 PUSH2 0x1091 JUMP JUMPDEST DUP1 PUSH1 0x0 JUMPDEST DUP4 DUP2 LT ISZERO PUSH2 0xDF0 JUMPI DUP2 MLOAD PUSH2 0xDD7 DUP9 DUP3 PUSH2 0xD78 JUMP JUMPDEST SWAP8 POP PUSH2 0xDE2 DUP4 PUSH2 0x10AC JUMP JUMPDEST SWAP3 POP POP PUSH1 0x1 DUP2 ADD SWAP1 POP PUSH2 0xDC3 JUMP JUMPDEST POP DUP6 SWAP4 POP POP POP POP SWAP3 SWAP2 POP POP JUMP JUMPDEST PUSH2 0xE06 DUP2 PUSH2 0x1143 JUMP JUMPDEST DUP3 MSTORE POP POP JUMP JUMPDEST PUSH1 0x0 PUSH2 0xE19 PUSH1 0xC DUP4 PUSH2 0x10CA JUMP JUMPDEST SWAP2 POP PUSH2 0xE24 DUP3 PUSH2 0x1203 JUMP JUMPDEST PUSH1 0x20 DUP3 ADD SWAP1 POP SWAP2 SWAP1 POP JUMP JUMPDEST PUSH1 0x0 PUSH2 0xE3C PUSH1 0x26 DUP4 PUSH2 0x10CA JUMP JUMPDEST SWAP2 POP PUSH2 0xE47 DUP3 PUSH2 0x122C JUMP JUMPDEST PUSH1 0x40 DUP3 ADD SWAP1 POP SWAP2 SWAP1 POP JUMP JUMPDEST PUSH1 0x0 PUSH2 0xE5F PUSH1 0xE DUP4 PUSH2 0x10CA JUMP JUMPDEST SWAP2 POP PUSH2 0xE6A DUP3 PUSH2 0x127B JUMP JUMPDEST PUSH1 0x20 DUP3 ADD SWAP1 POP SWAP2 SWAP1 POP JUMP JUMPDEST PUSH1 0x0 PUSH2 0xE82 PUSH1 0x20 DUP4 PUSH2 0x10CA JUMP JUMPDEST SWAP2 POP PUSH2 0xE8D DUP3 PUSH2 0x12A4 JUMP JUMPDEST PUSH1 0x20 DUP3 ADD SWAP1 POP SWAP2 SWAP1 POP JUMP JUMPDEST PUSH1 0x0 PUSH2 0xEA5 PUSH1 0x19 DUP4 PUSH2 0x10CA JUMP JUMPDEST SWAP2 POP PUSH2 0xEB0 DUP3 PUSH2 0x12CD JUMP JUMPDEST PUSH1 0x20 DUP3 ADD SWAP1 POP SWAP2 SWAP1 POP JUMP JUMPDEST PUSH2 0xEC4 DUP2 PUSH2 0x116F JUMP JUMPDEST DUP3 MSTORE POP POP JUMP JUMPDEST PUSH2 0xED3 DUP2 PUSH2 0x1179 JUMP JUMPDEST DUP3 MSTORE POP POP JUMP JUMPDEST PUSH2 0xEE2 DUP2 PUSH2 0x1179 JUMP JUMPDEST DUP3 MSTORE POP POP JUMP JUMPDEST PUSH1 0x0 PUSH1 0x20 DUP3 ADD SWAP1 POP PUSH2 0xEFD PUSH1 0x0 DUP4 ADD DUP5 PUSH2 0xD90 JUMP JUMPDEST SWAP3 SWAP2 POP POP JUMP JUMPDEST PUSH1 0x0 PUSH1 0x40 DUP3 ADD SWAP1 POP PUSH2 0xF18 PUSH1 0x0 DUP4 ADD DUP6 PUSH2 0xD90 JUMP JUMPDEST PUSH2 0xF25 PUSH1 0x20 DUP4 ADD DUP5 PUSH2 0xD90 JUMP JUMPDEST SWAP4 SWAP3 POP POP POP JUMP JUMPDEST PUSH1 0x0 PUSH1 0x40 DUP3 ADD SWAP1 POP PUSH2 0xF41 PUSH1 0x0 DUP4 ADD DUP6 PUSH2 0xD90 JUMP JUMPDEST PUSH2 0xF4E PUSH1 0x20 DUP4 ADD DUP5 PUSH2 0xDFD JUMP JUMPDEST SWAP4 SWAP3 POP POP POP JUMP JUMPDEST PUSH1 0x0 PUSH1 0x40 DUP3 ADD SWAP1 POP PUSH2 0xF6A PUSH1 0x0 DUP4 ADD DUP6 PUSH2 0xD90 JUMP JUMPDEST PUSH2 0xF77 PUSH1 0x20 DUP4 ADD DUP5 PUSH2 0xEBB JUMP JUMPDEST SWAP4 SWAP3 POP POP POP JUMP JUMPDEST PUSH1 0x0 PUSH1 0x20 DUP3 ADD SWAP1 POP DUP2 DUP2 SUB PUSH1 0x0 DUP4 ADD MSTORE PUSH2 0xF98 DUP2 DUP5 PUSH2 0xD9F JUMP JUMPDEST SWAP1 POP SWAP3 SWAP2 POP POP JUMP JUMPDEST PUSH1 0x0 PUSH1 0x20 DUP3 ADD SWAP1 POP PUSH2 0xFB5 PUSH1 0x0 DUP4 ADD DUP5 PUSH2 0xDFD JUMP JUMPDEST SWAP3 SWAP2 POP POP JUMP JUMPDEST PUSH1 0x0 PUSH1 0x20 DUP3 ADD SWAP1 POP DUP2 DUP2 SUB PUSH1 0x0 DUP4 ADD MSTORE PUSH2 0xFD4 DUP2 PUSH2 0xE0C JUMP JUMPDEST SWAP1 POP SWAP2 SWAP1 POP JUMP JUMPDEST PUSH1 0x0 PUSH1 0x20 DUP3 ADD SWAP1 POP DUP2 DUP2 SUB PUSH1 0x0 DUP4 ADD MSTORE PUSH2 0xFF4 DUP2 PUSH2 0xE2F JUMP JUMPDEST SWAP1 POP SWAP2 SWAP1 POP JUMP JUMPDEST PUSH1 0x0 PUSH1 0x20 DUP3 ADD SWAP1 POP DUP2 DUP2 SUB PUSH1 0x0 DUP4 ADD MSTORE PUSH2 0x1014 DUP2 PUSH2 0xE52 JUMP JUMPDEST SWAP1 POP SWAP2 SWAP1 POP JUMP JUMPDEST PUSH1 0x0 PUSH1 0x20 DUP3 ADD SWAP1 POP DUP2 DUP2 SUB PUSH1 0x0 DUP4 ADD MSTORE PUSH2 0x1034 DUP2 PUSH2 0xE75 JUMP JUMPDEST SWAP1 POP SWAP2 SWAP1 POP JUMP JUMPDEST PUSH1 0x0 PUSH1 0x20 DUP3 ADD SWAP1 POP DUP2 DUP2 SUB PUSH1 0x0 DUP4 ADD MSTORE PUSH2 0x1054 DUP2 PUSH2 0xE98 JUMP JUMPDEST SWAP1 POP SWAP2 SWAP1 POP JUMP JUMPDEST PUSH1 0x0 PUSH1 0x20 DUP3 ADD SWAP1 POP PUSH2 0x1070 PUSH1 0x0 DUP4 ADD DUP5 PUSH2 0xEBB JUMP JUMPDEST SWAP3 SWAP2 POP POP JUMP JUMPDEST PUSH1 0x0 PUSH1 0x20 DUP3 ADD SWAP1 POP PUSH2 0x108B PUSH1 0x0 DUP4 ADD DUP5 PUSH2 0xED9 JUMP JUMPDEST SWAP3 SWAP2 POP POP JUMP JUMPDEST PUSH1 0x0 DUP2 SWAP1 POP PUSH1 0x20 DUP3 ADD SWAP1 POP SWAP2 SWAP1 POP JUMP JUMPDEST PUSH1 0x0 DUP2 MLOAD SWAP1 POP SWAP2 SWAP1 POP JUMP JUMPDEST PUSH1 0x0 PUSH1 0x20 DUP3 ADD SWAP1 POP SWAP2 SWAP1 POP JUMP JUMPDEST PUSH1 0x0 DUP3 DUP3 MSTORE PUSH1 0x20 DUP3 ADD SWAP1 POP SWAP3 SWAP2 POP POP JUMP JUMPDEST PUSH1 0x0 DUP3 DUP3 MSTORE PUSH1 0x20 DUP3 ADD SWAP1 POP SWAP3 SWAP2 POP POP JUMP JUMPDEST PUSH1 0x0 PUSH2 0x10E6 DUP3 PUSH2 0x116F JUMP JUMPDEST SWAP2 POP PUSH2 0x10F1 DUP4 PUSH2 0x116F JUMP JUMPDEST SWAP3 POP DUP3 PUSH32 0xFFFFFFFFFFFFFFFFFFFFFFFFFFFFFFFFFFFFFFFFFFFFFFFFFFFFFFFFFFFFFFFF SUB DUP3 GT ISZERO PUSH2 0x1126 JUMPI PUSH2 0x1125 PUSH2 0x11CF JUMP JUMPDEST JUMPDEST DUP3 DUP3 ADD SWAP1 POP SWAP3 SWAP2 POP POP JUMP JUMPDEST PUSH1 0x0 PUSH2 0x113C DUP3 PUSH2 0x114F JUMP JUMPDEST SWAP1 POP SWAP2 SWAP1 POP JUMP JUMPDEST PUSH1 0x0 DUP2 ISZERO ISZERO SWAP1 POP SWAP2 SWAP1 POP JUMP JUMPDEST PUSH1 0x0 PUSH20 0xFFFFFFFFFFFFFFFFFFFFFFFFFFFFFFFFFFFFFFFF DUP3 AND SWAP1 POP SWAP2 SWAP1 POP JUMP JUMPDEST PUSH1 0x0 DUP2 SWAP1 POP SWAP2 SWAP1 POP JUMP JUMPDEST PUSH1 0x0 PUSH1 0xFF DUP3 AND SWAP1 POP SWAP2 SWAP1 POP JUMP JUMPDEST PUSH1 0x0 PUSH2 0x1191 DUP3 PUSH2 0x116F JUMP JUMPDEST SWAP2 POP PUSH32 0xFFFFFFFFFFFFFFFFFFFFFFFFFFFFFFFFFFFFFFFFFFFFFFFFFFFFFFFFFFFFFFFF DUP3 EQ ISZERO PUSH2 0x11C4 JUMPI PUSH2 0x11C3 PUSH2 0x11CF JUMP JUMPDEST JUMPDEST PUSH1 0x1 DUP3 ADD SWAP1 POP SWAP2 SWAP1 POP JUMP JUMPDEST PUSH32 0x4E487B7100000000000000000000000000000000000000000000000000000000 PUSH1 0x0 MSTORE PUSH1 0x11 PUSH1 0x4 MSTORE PUSH1 0x24 PUSH1 0x0 REVERT JUMPDEST PUSH1 0x0 DUP1 REVERT JUMPDEST PUSH32 0x67616D65206973206F7665720000000000000000000000000000000000000000 PUSH1 0x0 DUP3 ADD MSTORE POP JUMP JUMPDEST PUSH32 0x4F776E61626C653A206E6577206F776E657220697320746865207A65726F2061 PUSH1 0x0 DUP3 ADD MSTORE PUSH32 0x6464726573730000000000000000000000000000000000000000000000000000 PUSH1 0x20 DUP3 ADD MSTORE POP JUMP JUMPDEST PUSH32 0x4E6F7420796F7572207475726E2E000000000000000000000000000000000000 PUSH1 0x0 DUP3 ADD MSTORE POP JUMP JUMPDEST PUSH32 0x4F776E61626C653A2063616C6C6572206973206E6F7420746865206F776E6572 PUSH1 0x0 DUP3 ADD MSTORE POP JUMP JUMPDEST PUSH32 0x7468697320706C617965722069736E277420706C6179696E6700000000000000 PUSH1 0x0 DUP3 ADD MSTORE POP JUMP JUMPDEST PUSH2 0x12FF DUP2 PUSH2 0x1131 JUMP JUMPDEST DUP2 EQ PUSH2 0x130A JUMPI PUSH1 0x0 DUP1 REVERT JUMPDEST POP JUMP JUMPDEST PUSH2 0x1316 DUP2 PUSH2 0x116F JUMP JUMPDEST DUP2 EQ PUSH2 0x1321 JUMPI PUSH1 0x0 DUP1 REVERT JUMPDEST POP JUMP INVALID LOG2 PUSH5 0x6970667358 0x22 SLT KECCAK256 SWAP12 PUSH28 0xFCACCA04EF0D00E0E7C5298729C7C54A48D2FBAEEF5005A0122D878F CALLDATALOAD NOT PUSH5 0x736F6C6343 STOP ADDMOD SMOD STOP CALLER "
				},
				"gasEstimates": {
					"creation": {
						"codeDepositCost": "990800",
						"executionCost": "infinite",
						"totalCost": "infinite"
					},
					"external": {
						"_startTurn()": "2453",
						"game()": "4784",
						"gameBoard(uint256)": "5023",
						"gameOver()": "2543",
						"getPlayersMoves()": "infinite",
						"lastPlayed()": "2580",
						"moveTaken()": "2474",
						"owner()": "2589",
						"player()": "4855",
						"playerA()": "2603",
						"playerB()": "2560",
						"playerMoves(address,uint256)": "6922",
						"pleya()": "4900",
						"renounceOwnership()": "30421",
						"session()": "2518",
						"startGame(address,address)": "infinite",
						"timer()": "2516",
						"transferOwnership(address)": "30879",
						"turnsTaken()": "2540",
						"winner()": "2602",
						"yourMove(uint256)": "infinite"
					},
					"internal": {
						"addReward(uint256)": "infinite",
						"isWinner(address)": "infinite",
						"sendPrize()": "infinite"
					}
				},
				"methodIdentifiers": {
					"_startTurn()": "041a8486",
					"game()": "c3fe3e28",
					"gameBoard(uint256)": "5d248301",
					"gameOver()": "bdb337d1",
					"getPlayersMoves()": "620633cb",
					"lastPlayed()": "c5339132",
					"moveTaken()": "554693b1",
					"owner()": "8da5cb5b",
					"player()": "48db5f89",
					"playerA()": "a285c54a",
					"playerB()": "11bb1537",
					"playerMoves(address,uint256)": "22f976ff",
					"pleya()": "1a8a8dd8",
					"renounceOwnership()": "715018a6",
					"session()": "5e3568b8",
					"startGame(address,address)": "eb23b56b",
					"timer()": "88c9cb3c",
					"transferOwnership(address)": "f2fde38b",
					"turnsTaken()": "bc120879",
					"winner()": "dfbf53ae",
					"yourMove(uint256)": "393f7eb6"
				}
			},
			"storageLayout": {
				"storage": [
					{
						"astId": 7,
						"contract": "ddd.sol:Tris",
						"label": "_owner",
						"offset": 0,
						"slot": "0",
						"type": "t_address"
					},
					{
						"astId": 141,
						"contract": "ddd.sol:Tris",
						"label": "playerA",
						"offset": 0,
						"slot": "1",
						"type": "t_address"
					},
					{
						"astId": 143,
						"contract": "ddd.sol:Tris",
						"label": "playerB",
						"offset": 0,
						"slot": "2",
						"type": "t_address"
					},
					{
						"astId": 145,
						"contract": "ddd.sol:Tris",
						"label": "lastPlayed",
						"offset": 0,
						"slot": "3",
						"type": "t_address"
					},
					{
						"astId": 147,
						"contract": "ddd.sol:Tris",
						"label": "winner",
						"offset": 0,
						"slot": "4",
						"type": "t_address"
					},
					{
						"astId": 149,
						"contract": "ddd.sol:Tris",
						"label": "gameOver",
						"offset": 20,
						"slot": "4",
						"type": "t_bool"
					},
					{
						"astId": 151,
						"contract": "ddd.sol:Tris",
						"label": "turnsTaken",
						"offset": 0,
						"slot": "5",
						"type": "t_uint256"
					},
					{
						"astId": 153,
						"contract": "ddd.sol:Tris",
						"label": "moveTaken",
						"offset": 0,
						"slot": "6",
						"type": "t_uint256"
					},
					{
						"astId": 155,
						"contract": "ddd.sol:Tris",
						"label": "session",
						"offset": 0,
						"slot": "7",
						"type": "t_uint256"
					},
					{
						"astId": 157,
						"contract": "ddd.sol:Tris",
						"label": "_startTurn",
						"offset": 0,
						"slot": "8",
						"type": "t_uint256"
					},
					{
						"astId": 159,
						"contract": "ddd.sol:Tris",
						"label": "timer",
						"offset": 0,
						"slot": "9",
						"type": "t_bool"
					},
					{
						"astId": 170,
						"contract": "ddd.sol:Tris",
						"label": "gameBoard",
						"offset": 0,
						"slot": "10",
						"type": "t_array(t_address)dyn_storage"
					},
					{
						"astId": 181,
						"contract": "ddd.sol:Tris",
						"label": "player",
						"offset": 0,
						"slot": "11",
						"type": "t_struct(Player)178_storage"
					},
					{
						"astId": 189,
						"contract": "ddd.sol:Tris",
						"label": "pleya",
						"offset": 0,
						"slot": "13",
						"type": "t_struct(Playe)186_storage"
					},
					{
						"astId": 194,
						"contract": "ddd.sol:Tris",
						"label": "playerMoves",
						"offset": 0,
						"slot": "14",
						"type": "t_mapping(t_address,t_array(t_uint8)dyn_storage)"
					},
					{
						"astId": 205,
						"contract": "ddd.sol:Tris",
						"label": "game",
						"offset": 0,
						"slot": "15",
						"type": "t_struct(Game)202_storage"
					}
				],
				"types": {
					"t_address": {
						"encoding": "inplace",
						"label": "address",
						"numberOfBytes": "20"
					},
					"t_array(t_address)dyn_storage": {
						"base": "t_address",
						"encoding": "dynamic_array",
						"label": "address[]",
						"numberOfBytes": "32"
					},
					"t_array(t_uint256)dyn_storage": {
						"base": "t_uint256",
						"encoding": "dynamic_array",
						"label": "uint256[]",
						"numberOfBytes": "32"
					},
					"t_array(t_uint8)dyn_storage": {
						"base": "t_uint8",
						"encoding": "dynamic_array",
						"label": "uint8[]",
						"numberOfBytes": "32"
					},
					"t_bool": {
						"encoding": "inplace",
						"label": "bool",
						"numberOfBytes": "1"
					},
					"t_mapping(t_address,t_array(t_uint8)dyn_storage)": {
						"encoding": "mapping",
						"key": "t_address",
						"label": "mapping(address => uint8[])",
						"numberOfBytes": "32",
						"value": "t_array(t_uint8)dyn_storage"
					},
					"t_struct(Game)202_storage": {
						"encoding": "inplace",
						"label": "struct Tris.Game",
						"members": [
							{
								"astId": 196,
								"contract": "ddd.sol:Tris",
								"label": "lastPlayed",
								"offset": 0,
								"slot": "0",
								"type": "t_address"
							},
							{
								"astId": 198,
								"contract": "ddd.sol:Tris",
								"label": "playTime",
								"offset": 0,
								"slot": "1",
								"type": "t_uint256"
							},
							{
								"astId": 201,
								"contract": "ddd.sol:Tris",
								"label": "gameBoard",
								"offset": 0,
								"slot": "2",
								"type": "t_array(t_uint256)dyn_storage"
							}
						],
						"numberOfBytes": "96"
					},
					"t_struct(Playe)186_storage": {
						"encoding": "inplace",
						"label": "struct Tris.Playe",
						"members": [
							{
								"astId": 183,
								"contract": "ddd.sol:Tris",
								"label": "playerA",
								"offset": 0,
								"slot": "0",
								"type": "t_address"
							},
							{
								"astId": 185,
								"contract": "ddd.sol:Tris",
								"label": "start",
								"offset": 20,
								"slot": "0",
								"type": "t_bool"
							}
						],
						"numberOfBytes": "32"
					},
					"t_struct(Player)178_storage": {
						"encoding": "inplace",
						"label": "struct Tris.Player",
						"members": [
							{
								"astId": 172,
								"contract": "ddd.sol:Tris",
								"label": "user",
								"offset": 0,
								"slot": "0",
								"type": "t_address"
							},
							{
								"astId": 174,
								"contract": "ddd.sol:Tris",
								"label": "turnIsFinished",
								"offset": 20,
								"slot": "0",
								"type": "t_bool"
							},
							{
								"astId": 177,
								"contract": "ddd.sol:Tris",
								"label": "_playerMoves",
								"offset": 0,
								"slot": "1",
								"type": "t_array(t_uint256)dyn_storage"
							}
						],
						"numberOfBytes": "64"
					},
					"t_uint256": {
						"encoding": "inplace",
						"label": "uint256",
						"numberOfBytes": "32"
					},
					"t_uint8": {
						"encoding": "inplace",
						"label": "uint8",
						"numberOfBytes": "1"
					}
				}
			},
			"userdoc": {
				"kind": "user",
				"methods": {},
				"version": 1
			}
		}
	}
}