{
	"ddd.sol": {
		"Tris": {
			"abi": [
				{
					"inputs": [],
					"stateMutability": "nonpayable",
					"type": "constructor"
				},
				{
					"anonymous": false,
					"inputs": [
						{
							"indexed": false,
							"internalType": "address",
							"name": "playerA",
							"type": "address"
						},
						{
							"indexed": false,
							"internalType": "address",
							"name": "playerB",
							"type": "address"
						}
					],
					"name": "GameStarted",
					"type": "event"
				},
				{
					"anonymous": false,
					"inputs": [
						{
							"indexed": true,
							"internalType": "address",
							"name": "previousOwner",
							"type": "address"
						},
						{
							"indexed": true,
							"internalType": "address",
							"name": "newOwner",
							"type": "address"
						}
					],
					"name": "OwnershipTransferred",
					"type": "event"
				},
				{
					"inputs": [],
					"name": "_startTurn",
					"outputs": [
						{
							"internalType": "uint256",
							"name": "",
							"type": "uint256"
						}
					],
					"stateMutability": "view",
					"type": "function"
				},
				{
					"inputs": [],
					"name": "game",
					"outputs": [
						{
							"internalType": "address",
							"name": "lastPlayed",
							"type": "address"
						},
						{
							"internalType": "uint256",
							"name": "playTime",
							"type": "uint256"
						}
					],
					"stateMutability": "view",
					"type": "function"
				},
				{
					"inputs": [
						{
							"internalType": "uint256",
							"name": "",
							"type": "uint256"
						}
					],
					"name": "gameBoard",
					"outputs": [
						{
							"internalType": "address",
							"name": "",
							"type": "address"
						}
					],
					"stateMutability": "view",
					"type": "function"
				},
				{
					"inputs": [],
					"name": "gameOver",
					"outputs": [
						{
							"internalType": "bool",
							"name": "",
							"type": "bool"
						}
					],
					"stateMutability": "view",
					"type": "function"
				},
				{
					"inputs": [],
					"name": "getPlayersMoves",
					"outputs": [
						{
							"internalType": "uint8[]",
							"name": "",
							"type": "uint8[]"
						}
					],
					"stateMutability": "view",
					"type": "function"
				},
				{
					"inputs": [],
					"name": "lastPlayed",
					"outputs": [
						{
							"internalType": "address",
							"name": "",
							"type": "address"
						}
					],
					"stateMutability": "view",
					"type": "function"
				},
				{
					"inputs": [],
					"name": "moveTaken",
					"outputs": [
						{
							"internalType": "uint256",
							"name": "",
							"type": "uint256"
						}
					],
					"stateMutability": "view",
					"type": "function"
				},
				{
					"inputs": [],
					"name": "owner",
					"outputs": [
						{
							"internalType": "address",
							"name": "",
							"type": "address"
						}
					],
					"stateMutability": "view",
					"type": "function"
				},
				{
					"inputs": [],
					"name": "player",
					"outputs": [
						{
							"internalType": "address",
							"name": "user",
							"type": "address"
						},
						{
							"internalType": "bool",
							"name": "turnIsFinished",
							"type": "bool"
						}
					],
					"stateMutability": "view",
					"type": "function"
				},
				{
					"inputs": [],
					"name": "playerA",
					"outputs": [
						{
							"internalType": "address",
							"name": "",
							"type": "address"
						}
					],
					"stateMutability": "view",
					"type": "function"
				},
				{
					"inputs": [],
					"name": "playerB",
					"outputs": [
						{
							"internalType": "address",
							"name": "",
							"type": "address"
						}
					],
					"stateMutability": "view",
					"type": "function"
				},
				{
					"inputs": [
						{
							"internalType": "address",
							"name": "",
							"type": "address"
						},
						{
							"internalType": "uint256",
							"name": "",
							"type": "uint256"
						}
					],
					"name": "playerMoves",
					"outputs": [
						{
							"internalType": "uint8",
							"name": "",
							"type": "uint8"
						}
					],
					"stateMutability": "view",
					"type": "function"
				},
				{
					"inputs": [],
					"name": "pleya",
					"outputs": [
						{
							"internalType": "address",
							"name": "playerA",
							"type": "address"
						},
						{
							"internalType": "bool",
							"name": "start",
							"type": "bool"
						}
					],
					"stateMutability": "view",
					"type": "function"
				},
				{
					"inputs": [],
					"name": "renounceOwnership",
					"outputs": [],
					"stateMutability": "nonpayable",
					"type": "function"
				},
				{
					"inputs": [
						{
							"internalType": "uint8",
							"name": "",
							"type": "uint8"
						}
					],
					"name": "s_Moves",
					"outputs": [
						{
							"internalType": "address",
							"name": "",
							"type": "address"
						}
					],
					"stateMutability": "view",
					"type": "function"
				},
				{
					"inputs": [],
					"name": "session",
					"outputs": [
						{
							"internalType": "uint256",
							"name": "",
							"type": "uint256"
						}
					],
					"stateMutability": "view",
					"type": "function"
				},
				{
					"inputs": [
						{
							"internalType": "address",
							"name": "_player1",
							"type": "address"
						},
						{
							"internalType": "address",
							"name": "_player2",
							"type": "address"
						}
					],
					"name": "startGame",
					"outputs": [],
					"stateMutability": "nonpayable",
					"type": "function"
				},
				{
					"inputs": [],
					"name": "timer",
					"outputs": [
						{
							"internalType": "bool",
							"name": "",
							"type": "bool"
						}
					],
					"stateMutability": "view",
					"type": "function"
				},
				{
					"inputs": [
						{
							"internalType": "address",
							"name": "newOwner",
							"type": "address"
						}
					],
					"name": "transferOwnership",
					"outputs": [],
					"stateMutability": "nonpayable",
					"type": "function"
				},
				{
					"inputs": [],
					"name": "turnsTaken",
					"outputs": [
						{
							"internalType": "uint256",
							"name": "",
							"type": "uint256"
						}
					],
					"stateMutability": "view",
					"type": "function"
				},
				{
					"inputs": [],
					"name": "winner",
					"outputs": [
						{
							"internalType": "address",
							"name": "",
							"type": "address"
						}
					],
					"stateMutability": "view",
					"type": "function"
				},
				{
					"inputs": [
						{
							"internalType": "uint8",
							"name": "_move",
							"type": "uint8"
						}
					],
					"name": "yourMove",
					"outputs": [],
					"stateMutability": "nonpayable",
					"type": "function"
				}
			],
			"devdoc": {
				"kind": "dev",
				"methods": {
					"owner()": {
						"details": "Returns the address of the current owner."
					},
					"renounceOwnership()": {
						"details": "Leaves the contract without owner. It will not be possible to call `onlyOwner` functions anymore. Can only be called by the current owner. NOTE: Renouncing ownership will leave the contract without an owner, thereby removing any functionality that is only available to the owner."
					},
					"transferOwnership(address)": {
						"details": "Transfers ownership of the contract to a new account (`newOwner`). Can only be called by the current owner."
					}
				},
				"version": 1
			},
			"evm": {
				"assembly": "    /* \"ddd.sol\":116:3008  contract Tris is Ownable {\r... */\n  mstore(0x40, 0x80)\n    /* \"ddd.sol\":442:627  uint8[3][8] winningCombos = [\r... */\n  mload(0x40)\n  dup1\n  0x0100\n  add\n  0x40\n  mstore\n  dup1\n  mload(0x40)\n  dup1\n  0x60\n  add\n  0x40\n  mstore\n  dup1\n    /* \"ddd.sol\":486:487  1 */\n  0x01\n    /* \"ddd.sol\":442:627  uint8[3][8] winningCombos = [\r... */\n  0xff\n  and\n  dup2\n  mstore\n  0x20\n  add\n    /* \"ddd.sol\":488:489  2 */\n  0x02\n    /* \"ddd.sol\":442:627  uint8[3][8] winningCombos = [\r... */\n  0xff\n  and\n  dup2\n  mstore\n  0x20\n  add\n    /* \"ddd.sol\":490:491  3 */\n  0x03\n    /* \"ddd.sol\":442:627  uint8[3][8] winningCombos = [\r... */\n  0xff\n  and\n  dup2\n  mstore\n  pop\n  dup2\n  mstore\n  0x20\n  add\n  mload(0x40)\n  dup1\n  0x60\n  add\n  0x40\n  mstore\n  dup1\n    /* \"ddd.sol\":494:495  4 */\n  0x04\n    /* \"ddd.sol\":442:627  uint8[3][8] winningCombos = [\r... */\n  0xff\n  and\n  dup2\n  mstore\n  0x20\n  add\n    /* \"ddd.sol\":496:497  5 */\n  0x05\n    /* \"ddd.sol\":442:627  uint8[3][8] winningCombos = [\r... */\n  0xff\n  and\n  dup2\n  mstore\n  0x20\n  add\n    /* \"ddd.sol\":498:499  6 */\n  0x06\n    /* \"ddd.sol\":442:627  uint8[3][8] winningCombos = [\r... */\n  0xff\n  and\n  dup2\n  mstore\n  pop\n  dup2\n  mstore\n  0x20\n  add\n  mload(0x40)\n  dup1\n  0x60\n  add\n  0x40\n  mstore\n  dup1\n    /* \"ddd.sol\":502:503  7 */\n  0x07\n    /* \"ddd.sol\":442:627  uint8[3][8] winningCombos = [\r... */\n  0xff\n  and\n  dup2\n  mstore\n  0x20\n  add\n    /* \"ddd.sol\":504:505  8 */\n  0x08\n    /* \"ddd.sol\":442:627  uint8[3][8] winningCombos = [\r... */\n  0xff\n  and\n  dup2\n  mstore\n  0x20\n  add\n    /* \"ddd.sol\":506:507  9 */\n  0x09\n    /* \"ddd.sol\":442:627  uint8[3][8] winningCombos = [\r... */\n  0xff\n  and\n  dup2\n  mstore\n  pop\n  dup2\n  mstore\n  0x20\n  add\n  mload(0x40)\n  dup1\n  0x60\n  add\n  0x40\n  mstore\n  dup1\n    /* \"ddd.sol\":533:534  1 */\n  0x01\n    /* \"ddd.sol\":442:627  uint8[3][8] winningCombos = [\r... */\n  0xff\n  and\n  dup2\n  mstore\n  0x20\n  add\n    /* \"ddd.sol\":535:536  4 */\n  0x04\n    /* \"ddd.sol\":442:627  uint8[3][8] winningCombos = [\r... */\n  0xff\n  and\n  dup2\n  mstore\n  0x20\n  add\n    /* \"ddd.sol\":537:538  7 */\n  0x07\n    /* \"ddd.sol\":442:627  uint8[3][8] winningCombos = [\r... */\n  0xff\n  and\n  dup2\n  mstore\n  pop\n  dup2\n  mstore\n  0x20\n  add\n  mload(0x40)\n  dup1\n  0x60\n  add\n  0x40\n  mstore\n  dup1\n    /* \"ddd.sol\":541:542  2 */\n  0x02\n    /* \"ddd.sol\":442:627  uint8[3][8] winningCombos = [\r... */\n  0xff\n  and\n  dup2\n  mstore\n  0x20\n  add\n    /* \"ddd.sol\":543:544  5 */\n  0x05\n    /* \"ddd.sol\":442:627  uint8[3][8] winningCombos = [\r... */\n  0xff\n  and\n  dup2\n  mstore\n  0x20\n  add\n    /* \"ddd.sol\":545:546  8 */\n  0x08\n    /* \"ddd.sol\":442:627  uint8[3][8] winningCombos = [\r... */\n  0xff\n  and\n  dup2\n  mstore\n  pop\n  dup2\n  mstore\n  0x20\n  add\n  mload(0x40)\n  dup1\n  0x60\n  add\n  0x40\n  mstore\n  dup1\n    /* \"ddd.sol\":549:550  3 */\n  0x03\n    /* \"ddd.sol\":442:627  uint8[3][8] winningCombos = [\r... */\n  0xff\n  and\n  dup2\n  mstore\n  0x20\n  add\n    /* \"ddd.sol\":551:552  6 */\n  0x06\n    /* \"ddd.sol\":442:627  uint8[3][8] winningCombos = [\r... */\n  0xff\n  and\n  dup2\n  mstore\n  0x20\n  add\n    /* \"ddd.sol\":553:554  9 */\n  0x09\n    /* \"ddd.sol\":442:627  uint8[3][8] winningCombos = [\r... */\n  0xff\n  and\n  dup2\n  mstore\n  pop\n  dup2\n  mstore\n  0x20\n  add\n  mload(0x40)\n  dup1\n  0x60\n  add\n  0x40\n  mstore\n  dup1\n    /* \"ddd.sol\":583:584  1 */\n  0x01\n    /* \"ddd.sol\":442:627  uint8[3][8] winningCombos = [\r... */\n  0xff\n  and\n  dup2\n  mstore\n  0x20\n  add\n    /* \"ddd.sol\":585:586  5 */\n  0x05\n    /* \"ddd.sol\":442:627  uint8[3][8] winningCombos = [\r... */\n  0xff\n  and\n  dup2\n  mstore\n  0x20\n  add\n    /* \"ddd.sol\":587:588  9 */\n  0x09\n    /* \"ddd.sol\":442:627  uint8[3][8] winningCombos = [\r... */\n  0xff\n  and\n  dup2\n  mstore\n  pop\n  dup2\n  mstore\n  0x20\n  add\n  mload(0x40)\n  dup1\n  0x60\n  add\n  0x40\n  mstore\n  dup1\n    /* \"ddd.sol\":591:592  3 */\n  0x03\n    /* \"ddd.sol\":442:627  uint8[3][8] winningCombos = [\r... */\n  0xff\n  and\n  dup2\n  mstore\n  0x20\n  add\n    /* \"ddd.sol\":593:594  5 */\n  0x05\n    /* \"ddd.sol\":442:627  uint8[3][8] winningCombos = [\r... */\n  0xff\n  and\n  dup2\n  mstore\n  0x20\n  add\n    /* \"ddd.sol\":595:596  7 */\n  0x07\n    /* \"ddd.sol\":442:627  uint8[3][8] winningCombos = [\r... */\n  0xff\n  and\n  dup2\n  mstore\n  pop\n  dup2\n  mstore\n  pop\n  0x0a\n  swap1\n  0x08\n  tag_1\n  swap3\n  swap2\n  swap1\n  tag_2\n  jump\t// in\ntag_1:\n  pop\n    /* \"ddd.sol\":642:697  constructor () { \r... */\n  callvalue\n  dup1\n  iszero\n  tag_3\n  jumpi\n  0x00\n  dup1\n  revert\ntag_3:\n  pop\n    /* \"@openzeppelin/contracts/access/Ownable.sol\":936:968  _transferOwnership(_msgSender()) */\n  tag_7\n    /* \"@openzeppelin/contracts/access/Ownable.sol\":955:967  _msgSender() */\n  tag_8\n    /* \"@openzeppelin/contracts/access/Ownable.sol\":955:965  _msgSender */\n  shl(0x20, tag_9)\n    /* \"@openzeppelin/contracts/access/Ownable.sol\":955:967  _msgSender() */\n  0x20\n  shr\n  jump\t// in\ntag_8:\n    /* \"@openzeppelin/contracts/access/Ownable.sol\":936:954  _transferOwnership */\n  shl(0x20, tag_10)\n    /* \"@openzeppelin/contracts/access/Ownable.sol\":936:968  _transferOwnership(_msgSender()) */\n  0x20\n  shr\n  jump\t// in\ntag_7:\n    /* \"ddd.sol\":679:689  30 seconds */\n  0x1e\n    /* \"ddd.sol\":669:676  session */\n  0x07\n    /* \"ddd.sol\":669:689  session = 30 seconds */\n  dup2\n  swap1\n  sstore\n  pop\n    /* \"ddd.sol\":116:3008  contract Tris is Ownable {\r... */\n  jump(tag_12)\n    /* \"@openzeppelin/contracts/utils/Context.sol\":640:736  function _msgSender() internal view virtual returns (address) {... */\ntag_9:\n    /* \"@openzeppelin/contracts/utils/Context.sol\":693:700  address */\n  0x00\n    /* \"@openzeppelin/contracts/utils/Context.sol\":719:729  msg.sender */\n  caller\n    /* \"@openzeppelin/contracts/utils/Context.sol\":712:729  return msg.sender */\n  swap1\n  pop\n    /* \"@openzeppelin/contracts/utils/Context.sol\":640:736  function _msgSender() internal view virtual returns (address) {... */\n  swap1\n  jump\t// out\n    /* \"@openzeppelin/contracts/access/Ownable.sol\":2433:2620  function _transferOwnership(address newOwner) internal virtual {... */\ntag_10:\n    /* \"@openzeppelin/contracts/access/Ownable.sol\":2506:2522  address oldOwner */\n  0x00\n    /* \"@openzeppelin/contracts/access/Ownable.sol\":2525:2531  _owner */\n  dup1\n  0x00\n  swap1\n  sload\n  swap1\n  0x0100\n  exp\n  swap1\n  div\n  0xffffffffffffffffffffffffffffffffffffffff\n  and\n    /* \"@openzeppelin/contracts/access/Ownable.sol\":2506:2531  address oldOwner = _owner */\n  swap1\n  pop\n    /* \"@openzeppelin/contracts/access/Ownable.sol\":2550:2558  newOwner */\n  dup2\n    /* \"@openzeppelin/contracts/access/Ownable.sol\":2541:2547  _owner */\n  0x00\n  dup1\n    /* \"@openzeppelin/contracts/access/Ownable.sol\":2541:2558  _owner = newOwner */\n  0x0100\n  exp\n  dup2\n  sload\n  dup2\n  0xffffffffffffffffffffffffffffffffffffffff\n  mul\n  not\n  and\n  swap1\n  dup4\n  0xffffffffffffffffffffffffffffffffffffffff\n  and\n  mul\n  or\n  swap1\n  sstore\n  pop\n    /* \"@openzeppelin/contracts/access/Ownable.sol\":2604:2612  newOwner */\n  dup2\n    /* \"@openzeppelin/contracts/access/Ownable.sol\":2573:2613  OwnershipTransferred(oldOwner, newOwner) */\n  0xffffffffffffffffffffffffffffffffffffffff\n  and\n    /* \"@openzeppelin/contracts/access/Ownable.sol\":2594:2602  oldOwner */\n  dup2\n    /* \"@openzeppelin/contracts/access/Ownable.sol\":2573:2613  OwnershipTransferred(oldOwner, newOwner) */\n  0xffffffffffffffffffffffffffffffffffffffff\n  and\n  0x8be0079c531659141344cd1fd0a4f28419497f9722a3daafe3b4186f6b6457e0\n  mload(0x40)\n  mload(0x40)\n  dup1\n  swap2\n  sub\n  swap1\n  log3\n    /* \"@openzeppelin/contracts/access/Ownable.sol\":2496:2620  {... */\n  pop\n    /* \"@openzeppelin/contracts/access/Ownable.sol\":2433:2620  function _transferOwnership(address newOwner) internal virtual {... */\n  pop\n  jump\t// out\n    /* \"ddd.sol\":116:3008  contract Tris is Ownable {\r... */\ntag_2:\n  dup3\n  0x08\n  dup2\n  add\n  swap3\n  dup3\n  iszero\n  tag_15\n  jumpi\n  swap2\n  0x20\n  mul\n  dup3\n  add\ntag_16:\n  dup3\n  dup2\n  gt\n  iszero\n  tag_17\n  jumpi\n  dup3\n  mload\n  dup3\n  swap1\n  0x03\n  tag_18\n  swap3\n  swap2\n  swap1\n  tag_19\n  jump\t// in\ntag_18:\n  pop\n  swap2\n  0x20\n  add\n  swap2\n  swap1\n  0x01\n  add\n  swap1\n  jump(tag_16)\ntag_17:\ntag_15:\n  pop\n  swap1\n  pop\n  tag_20\n  swap2\n  swap1\n  tag_21\n  jump\t// in\ntag_20:\n  pop\n  swap1\n  jump\t// out\ntag_19:\n  dup3\n  add(0x1f, 0x03)\n  0x20\n  swap1\n  div\n  dup2\n  add\n  swap3\n  dup3\n  iszero\n  tag_22\n  jumpi\n  swap2\n  0x20\n  mul\n  dup3\n  add\n  0x00\ntag_23:\n  dup4\n  dup3\n  gt\n  iszero\n  tag_24\n  jumpi\n  dup4\n  mload\n  dup4\n  dup3\n  0x0100\n  exp\n  dup2\n  sload\n  dup2\n  0xff\n  mul\n  not\n  and\n  swap1\n  dup4\n  0xff\n  and\n  mul\n  or\n  swap1\n  sstore\n  pop\n  swap3\n  0x20\n  add\n  swap3\n  0x01\n  add\n  0x20\n  dup2\n  0x00\n  add\n  div\n  swap3\n  dup4\n  add\n  swap3\n  0x01\n  sub\n  mul\n  jump(tag_23)\ntag_24:\n  dup1\n  iszero\n  tag_25\n  jumpi\n  dup3\n  dup2\n  0x0100\n  exp\n  dup2\n  sload\n  swap1\n  0xff\n  mul\n  not\n  and\n  swap1\n  sstore\n  0x01\n  add\n  0x20\n  dup2\n  0x00\n  add\n  div\n  swap3\n  dup4\n  add\n  swap3\n  0x01\n  sub\n  mul\n  jump(tag_24)\ntag_25:\n  pop\ntag_22:\n  pop\n  swap1\n  pop\n  tag_26\n  swap2\n  swap1\n  tag_27\n  jump\t// in\ntag_26:\n  pop\n  swap1\n  jump\t// out\ntag_21:\ntag_28:\n  dup1\n  dup3\n  gt\n  iszero\n  tag_29\n  jumpi\n  0x00\n  dup2\n  dup2\n  tag_30\n  swap2\n  swap1\n  tag_31\n  jump\t// in\ntag_30:\n  pop\n  0x01\n  add\n  jump(tag_28)\ntag_29:\n  pop\n  swap1\n  jump\t// out\ntag_27:\ntag_32:\n  dup1\n  dup3\n  gt\n  iszero\n  tag_33\n  jumpi\n  0x00\n  dup2\n  0x00\n  swap1\n  sstore\n  pop\n  0x01\n  add\n  jump(tag_32)\ntag_33:\n  pop\n  swap1\n  jump\t// out\ntag_31:\n  pop\n  0x00\n  swap1\n  sstore\n  jump\t// out\ntag_12:\n  dataSize(sub_0)\n  dup1\n  dataOffset(sub_0)\n  0x00\n  codecopy\n  0x00\n  return\nstop\n\nsub_0: assembly {\n        /* \"ddd.sol\":116:3008  contract Tris is Ownable {\r... */\n      mstore(0x40, 0x80)\n      callvalue\n      dup1\n      iszero\n      tag_1\n      jumpi\n      0x00\n      dup1\n      revert\n    tag_1:\n      pop\n      jumpi(tag_2, lt(calldatasize, 0x04))\n      shr(0xe0, calldataload(0x00))\n      dup1\n      0x715018a6\n      gt\n      tag_25\n      jumpi\n      dup1\n      0xbdb337d1\n      gt\n      tag_26\n      jumpi\n      dup1\n      0xbdb337d1\n      eq\n      tag_19\n      jumpi\n      dup1\n      0xc3fe3e28\n      eq\n      tag_20\n      jumpi\n      dup1\n      0xc5339132\n      eq\n      tag_21\n      jumpi\n      dup1\n      0xdfbf53ae\n      eq\n      tag_22\n      jumpi\n      dup1\n      0xeb23b56b\n      eq\n      tag_23\n      jumpi\n      dup1\n      0xf2fde38b\n      eq\n      tag_24\n      jumpi\n      jump(tag_2)\n    tag_26:\n      dup1\n      0x715018a6\n      eq\n      tag_14\n      jumpi\n      dup1\n      0x88c9cb3c\n      eq\n      tag_15\n      jumpi\n      dup1\n      0x8da5cb5b\n      eq\n      tag_16\n      jumpi\n      dup1\n      0xa285c54a\n      eq\n      tag_17\n      jumpi\n      dup1\n      0xbc120879\n      eq\n      tag_18\n      jumpi\n      jump(tag_2)\n    tag_25:\n      dup1\n      0x37f612a3\n      gt\n      tag_27\n      jumpi\n      dup1\n      0x37f612a3\n      eq\n      tag_8\n      jumpi\n      dup1\n      0x48db5f89\n      eq\n      tag_9\n      jumpi\n      dup1\n      0x554693b1\n      eq\n      tag_10\n      jumpi\n      dup1\n      0x5d248301\n      eq\n      tag_11\n      jumpi\n      dup1\n      0x5e3568b8\n      eq\n      tag_12\n      jumpi\n      dup1\n      0x620633cb\n      eq\n      tag_13\n      jumpi\n      jump(tag_2)\n    tag_27:\n      dup1\n      0x041a8486\n      eq\n      tag_3\n      jumpi\n      dup1\n      0x11bb1537\n      eq\n      tag_4\n      jumpi\n      dup1\n      0x1a8a8dd8\n      eq\n      tag_5\n      jumpi\n      dup1\n      0x1ea169e5\n      eq\n      tag_6\n      jumpi\n      dup1\n      0x22f976ff\n      eq\n      tag_7\n      jumpi\n    tag_2:\n      0x00\n      dup1\n      revert\n        /* \"ddd.sol\":387:409  uint public _startTurn */\n    tag_3:\n      tag_28\n      tag_29\n      jump\t// in\n    tag_28:\n      mload(0x40)\n      tag_30\n      swap2\n      swap1\n      tag_31\n      jump\t// in\n    tag_30:\n      mload(0x40)\n      dup1\n      swap2\n      sub\n      swap1\n      return\n        /* \"ddd.sol\":178:200  address public playerB */\n    tag_4:\n      tag_32\n      tag_33\n      jump\t// in\n    tag_32:\n      mload(0x40)\n      tag_34\n      swap2\n      swap1\n      tag_35\n      jump\t// in\n    tag_34:\n      mload(0x40)\n      dup1\n      swap2\n      sub\n      swap1\n      return\n        /* \"ddd.sol\":1038:1056  Playe public pleya */\n    tag_5:\n      tag_36\n      tag_37\n      jump\t// in\n    tag_36:\n      mload(0x40)\n      tag_38\n      swap3\n      swap2\n      swap1\n      tag_39\n      jump\t// in\n    tag_38:\n      mload(0x40)\n      dup1\n      swap2\n      sub\n      swap1\n      return\n        /* \"ddd.sol\":1850:2358  function yourMove(uint8 _move) public {\r... */\n    tag_6:\n      tag_40\n      0x04\n      dup1\n      calldatasize\n      sub\n      dup2\n      add\n      swap1\n      tag_41\n      swap2\n      swap1\n      tag_42\n      jump\t// in\n    tag_41:\n      tag_43\n      jump\t// in\n    tag_40:\n      stop\n        /* \"ddd.sol\":1750:1796  mapping(address => uint8[]) public playerMoves */\n    tag_7:\n      tag_44\n      0x04\n      dup1\n      calldatasize\n      sub\n      dup2\n      add\n      swap1\n      tag_45\n      swap2\n      swap1\n      tag_46\n      jump\t// in\n    tag_45:\n      tag_47\n      jump\t// in\n    tag_44:\n      mload(0x40)\n      tag_48\n      swap2\n      swap1\n      tag_49\n      jump\t// in\n    tag_48:\n      mload(0x40)\n      dup1\n      swap2\n      sub\n      swap1\n      return\n        /* \"ddd.sol\":1803:1843  mapping(uint8 => address) public s_Moves */\n    tag_8:\n      tag_50\n      0x04\n      dup1\n      calldatasize\n      sub\n      dup2\n      add\n      swap1\n      tag_51\n      swap2\n      swap1\n      tag_42\n      jump\t// in\n    tag_51:\n      tag_52\n      jump\t// in\n    tag_50:\n      mload(0x40)\n      tag_53\n      swap2\n      swap1\n      tag_35\n      jump\t// in\n    tag_53:\n      mload(0x40)\n      dup1\n      swap2\n      sub\n      swap1\n      return\n        /* \"ddd.sol\":879:899  Player public player */\n    tag_9:\n      tag_54\n      tag_55\n      jump\t// in\n    tag_54:\n      mload(0x40)\n      tag_56\n      swap3\n      swap2\n      swap1\n      tag_39\n      jump\t// in\n    tag_56:\n      mload(0x40)\n      dup1\n      swap2\n      sub\n      swap1\n      return\n        /* \"ddd.sol\":327:351  uint256 public moveTaken */\n    tag_10:\n      tag_57\n      tag_58\n      jump\t// in\n    tag_57:\n      mload(0x40)\n      tag_59\n      swap2\n      swap1\n      tag_31\n      jump\t// in\n    tag_59:\n      mload(0x40)\n      dup1\n      swap2\n      sub\n      swap1\n      return\n        /* \"ddd.sol\":731:757  address[] public gameBoard */\n    tag_11:\n      tag_60\n      0x04\n      dup1\n      calldatasize\n      sub\n      dup2\n      add\n      swap1\n      tag_61\n      swap2\n      swap1\n      tag_62\n      jump\t// in\n    tag_61:\n      tag_63\n      jump\t// in\n    tag_60:\n      mload(0x40)\n      tag_64\n      swap2\n      swap1\n      tag_35\n      jump\t// in\n    tag_64:\n      mload(0x40)\n      dup1\n      swap2\n      sub\n      swap1\n      return\n        /* \"ddd.sol\":358:380  uint256 public session */\n    tag_12:\n      tag_65\n      tag_66\n      jump\t// in\n    tag_65:\n      mload(0x40)\n      tag_67\n      swap2\n      swap1\n      tag_31\n      jump\t// in\n    tag_67:\n      mload(0x40)\n      dup1\n      swap2\n      sub\n      swap1\n      return\n        /* \"ddd.sol\":2890:3003  function getPlayersMoves() public view returns (uint8[] memory) {\r... */\n    tag_13:\n      tag_68\n      tag_69\n      jump\t// in\n    tag_68:\n      mload(0x40)\n      tag_70\n      swap2\n      swap1\n      tag_71\n      jump\t// in\n    tag_70:\n      mload(0x40)\n      dup1\n      swap2\n      sub\n      swap1\n      return\n        /* \"@openzeppelin/contracts/access/Ownable.sol\":1831:1932  function renounceOwnership() public virtual onlyOwner {... */\n    tag_14:\n      tag_72\n      tag_73\n      jump\t// in\n    tag_72:\n      stop\n        /* \"ddd.sol\":416:433  bool public timer */\n    tag_15:\n      tag_74\n      tag_75\n      jump\t// in\n    tag_74:\n      mload(0x40)\n      tag_76\n      swap2\n      swap1\n      tag_77\n      jump\t// in\n    tag_76:\n      mload(0x40)\n      dup1\n      swap2\n      sub\n      swap1\n      return\n        /* \"@openzeppelin/contracts/access/Ownable.sol\":1201:1286  function owner() public view virtual returns (address) {... */\n    tag_16:\n      tag_78\n      tag_79\n      jump\t// in\n    tag_78:\n      mload(0x40)\n      tag_80\n      swap2\n      swap1\n      tag_35\n      jump\t// in\n    tag_80:\n      mload(0x40)\n      dup1\n      swap2\n      sub\n      swap1\n      return\n        /* \"ddd.sol\":148:170  address public playerA */\n    tag_17:\n      tag_81\n      tag_82\n      jump\t// in\n    tag_81:\n      mload(0x40)\n      tag_83\n      swap2\n      swap1\n      tag_35\n      jump\t// in\n    tag_83:\n      mload(0x40)\n      dup1\n      swap2\n      sub\n      swap1\n      return\n        /* \"ddd.sol\":295:320  uint256 public turnsTaken */\n    tag_18:\n      tag_84\n      tag_85\n      jump\t// in\n    tag_84:\n      mload(0x40)\n      tag_86\n      swap2\n      swap1\n      tag_31\n      jump\t// in\n    tag_86:\n      mload(0x40)\n      dup1\n      swap2\n      sub\n      swap1\n      return\n        /* \"ddd.sol\":268:288  bool public gameOver */\n    tag_19:\n      tag_87\n      tag_88\n      jump\t// in\n    tag_87:\n      mload(0x40)\n      tag_89\n      swap2\n      swap1\n      tag_77\n      jump\t// in\n    tag_89:\n      mload(0x40)\n      dup1\n      swap2\n      sub\n      swap1\n      return\n        /* \"ddd.sol\":1337:1353  Game public game */\n    tag_20:\n      tag_90\n      tag_91\n      jump\t// in\n    tag_90:\n      mload(0x40)\n      tag_92\n      swap3\n      swap2\n      swap1\n      tag_93\n      jump\t// in\n    tag_92:\n      mload(0x40)\n      dup1\n      swap2\n      sub\n      swap1\n      return\n        /* \"ddd.sol\":208:233  address public lastPlayed */\n    tag_21:\n      tag_94\n      tag_95\n      jump\t// in\n    tag_94:\n      mload(0x40)\n      tag_96\n      swap2\n      swap1\n      tag_35\n      jump\t// in\n    tag_96:\n      mload(0x40)\n      dup1\n      swap2\n      sub\n      swap1\n      return\n        /* \"ddd.sol\":240:261  address public winner */\n    tag_22:\n      tag_97\n      tag_98\n      jump\t// in\n    tag_97:\n      mload(0x40)\n      tag_99\n      swap2\n      swap1\n      tag_35\n      jump\t// in\n    tag_99:\n      mload(0x40)\n      dup1\n      swap2\n      sub\n      swap1\n      return\n        /* \"ddd.sol\":1521:1736  function startGame(address _player1, address _player2) external {\r... */\n    tag_23:\n      tag_100\n      0x04\n      dup1\n      calldatasize\n      sub\n      dup2\n      add\n      swap1\n      tag_101\n      swap2\n      swap1\n      tag_102\n      jump\t// in\n    tag_101:\n      tag_103\n      jump\t// in\n    tag_100:\n      stop\n        /* \"@openzeppelin/contracts/access/Ownable.sol\":2081:2279  function transferOwnership(address newOwner) public virtual onlyOwner {... */\n    tag_24:\n      tag_104\n      0x04\n      dup1\n      calldatasize\n      sub\n      dup2\n      add\n      swap1\n      tag_105\n      swap2\n      swap1\n      tag_106\n      jump\t// in\n    tag_105:\n      tag_107\n      jump\t// in\n    tag_104:\n      stop\n        /* \"ddd.sol\":387:409  uint public _startTurn */\n    tag_29:\n      sload(0x08)\n      dup2\n      jump\t// out\n        /* \"ddd.sol\":178:200  address public playerB */\n    tag_33:\n      0x02\n      0x00\n      swap1\n      sload\n      swap1\n      0x0100\n      exp\n      swap1\n      div\n      0xffffffffffffffffffffffffffffffffffffffff\n      and\n      dup2\n      jump\t// out\n        /* \"ddd.sol\":1038:1056  Playe public pleya */\n    tag_37:\n      0x15\n      dup1\n      0x00\n      add\n      0x00\n      swap1\n      sload\n      swap1\n      0x0100\n      exp\n      swap1\n      div\n      0xffffffffffffffffffffffffffffffffffffffff\n      and\n      swap1\n      dup1\n      0x00\n      add\n      0x14\n      swap1\n      sload\n      swap1\n      0x0100\n      exp\n      swap1\n      div\n      0xff\n      and\n      swap1\n      pop\n      dup3\n      jump\t// out\n        /* \"ddd.sol\":1850:2358  function yourMove(uint8 _move) public {\r... */\n    tag_43:\n        /* \"ddd.sol\":1908:1916  gameOver */\n      0x04\n      0x14\n      swap1\n      sload\n      swap1\n      0x0100\n      exp\n      swap1\n      div\n      0xff\n      and\n        /* \"ddd.sol\":1907:1916  !gameOver */\n      iszero\n        /* \"ddd.sol\":1899:1933  require(!gameOver, \"game is over\") */\n      tag_109\n      jumpi\n      mload(0x40)\n      0x08c379a000000000000000000000000000000000000000000000000000000000\n      dup2\n      mstore\n      0x04\n      add\n      tag_110\n      swap1\n      tag_111\n      jump\t// in\n    tag_110:\n      mload(0x40)\n      dup1\n      swap2\n      sub\n      swap1\n      revert\n    tag_109:\n        /* \"ddd.sol\":1968:1975  playerA */\n      0x01\n      0x00\n      swap1\n      sload\n      swap1\n      0x0100\n      exp\n      swap1\n      div\n      0xffffffffffffffffffffffffffffffffffffffff\n      and\n        /* \"ddd.sol\":1954:1975  msg.sender == playerA */\n      0xffffffffffffffffffffffffffffffffffffffff\n      and\n        /* \"ddd.sol\":1954:1964  msg.sender */\n      caller\n        /* \"ddd.sol\":1954:1975  msg.sender == playerA */\n      0xffffffffffffffffffffffffffffffffffffffff\n      and\n      eq\n        /* \"ddd.sol\":1954:2000  msg.sender == playerA || msg.sender == playerB */\n      dup1\n      tag_112\n      jumpi\n      pop\n        /* \"ddd.sol\":1993:2000  playerB */\n      0x02\n      0x00\n      swap1\n      sload\n      swap1\n      0x0100\n      exp\n      swap1\n      div\n      0xffffffffffffffffffffffffffffffffffffffff\n      and\n        /* \"ddd.sol\":1979:2000  msg.sender == playerB */\n      0xffffffffffffffffffffffffffffffffffffffff\n      and\n        /* \"ddd.sol\":1979:1989  msg.sender */\n      caller\n        /* \"ddd.sol\":1979:2000  msg.sender == playerB */\n      0xffffffffffffffffffffffffffffffffffffffff\n      and\n      eq\n        /* \"ddd.sol\":1954:2000  msg.sender == playerA || msg.sender == playerB */\n    tag_112:\n        /* \"ddd.sol\":1953:2032  (msg.sender == playerA || msg.sender == playerB) && (msg.sender != lastPlayed ) */\n      dup1\n      iszero\n      tag_113\n      jumpi\n      pop\n        /* \"ddd.sol\":2020:2030  lastPlayed */\n      0x03\n      0x00\n      swap1\n      sload\n      swap1\n      0x0100\n      exp\n      swap1\n      div\n      0xffffffffffffffffffffffffffffffffffffffff\n      and\n        /* \"ddd.sol\":2006:2030  msg.sender != lastPlayed */\n      0xffffffffffffffffffffffffffffffffffffffff\n      and\n        /* \"ddd.sol\":2006:2016  msg.sender */\n      caller\n        /* \"ddd.sol\":2006:2030  msg.sender != lastPlayed */\n      0xffffffffffffffffffffffffffffffffffffffff\n      and\n      eq\n      iszero\n        /* \"ddd.sol\":1953:2032  (msg.sender == playerA || msg.sender == playerB) && (msg.sender != lastPlayed ) */\n    tag_113:\n        /* \"ddd.sol\":1945:2058  require((msg.sender == playerA || msg.sender == playerB) && (msg.sender != lastPlayed ), \"You can't make a move\") */\n      tag_114\n      jumpi\n      mload(0x40)\n      0x08c379a000000000000000000000000000000000000000000000000000000000\n      dup2\n      mstore\n      0x04\n      add\n      tag_115\n      swap1\n      tag_116\n      jump\t// in\n    tag_115:\n      mload(0x40)\n      dup1\n      swap2\n      sub\n      swap1\n      revert\n    tag_114:\n        /* \"ddd.sol\":2234:2235  0 */\n      0x00\n        /* \"ddd.sol\":2226:2231  _move */\n      dup2\n        /* \"ddd.sol\":2226:2235  _move > 0 */\n      0xff\n      and\n      gt\n        /* \"ddd.sol\":2226:2249  _move > 0 && _move < 10 */\n      dup1\n      iszero\n      tag_117\n      jumpi\n      pop\n        /* \"ddd.sol\":2247:2249  10 */\n      0x0a\n        /* \"ddd.sol\":2239:2244  _move */\n      dup2\n        /* \"ddd.sol\":2239:2249  _move < 10 */\n      0xff\n      and\n      lt\n        /* \"ddd.sol\":2226:2249  _move > 0 && _move < 10 */\n    tag_117:\n        /* \"ddd.sol\":2218:2250  require(_move > 0 && _move < 10) */\n      tag_118\n      jumpi\n      0x00\n      dup1\n      revert\n    tag_118:\n        /* \"ddd.sol\":2295:2296  0 */\n      0x00\n        /* \"ddd.sol\":2269:2297  s_Moves[_move] == address(0) */\n      0xffffffffffffffffffffffffffffffffffffffff\n      and\n        /* \"ddd.sol\":2269:2276  s_Moves */\n      0x1a\n        /* \"ddd.sol\":2269:2283  s_Moves[_move] */\n      0x00\n        /* \"ddd.sol\":2277:2282  _move */\n      dup4\n        /* \"ddd.sol\":2269:2283  s_Moves[_move] */\n      0xff\n      and\n      0xff\n      and\n      dup2\n      mstore\n      0x20\n      add\n      swap1\n      dup2\n      mstore\n      0x20\n      add\n      0x00\n      keccak256\n      0x00\n      swap1\n      sload\n      swap1\n      0x0100\n      exp\n      swap1\n      div\n      0xffffffffffffffffffffffffffffffffffffffff\n      and\n        /* \"ddd.sol\":2269:2297  s_Moves[_move] == address(0) */\n      0xffffffffffffffffffffffffffffffffffffffff\n      and\n      eq\n        /* \"ddd.sol\":2261:2318  require(s_Moves[_move] == address(0), \"Already assigned\") */\n      tag_119\n      jumpi\n      mload(0x40)\n      0x08c379a000000000000000000000000000000000000000000000000000000000\n      dup2\n      mstore\n      0x04\n      add\n      tag_120\n      swap1\n      tag_121\n      jump\t// in\n    tag_120:\n      mload(0x40)\n      dup1\n      swap2\n      sub\n      swap1\n      revert\n    tag_119:\n        /* \"ddd.sol\":2330:2340  checkWin() */\n      tag_122\n        /* \"ddd.sol\":2330:2338  checkWin */\n      tag_123\n        /* \"ddd.sol\":2330:2340  checkWin() */\n      jump\t// in\n    tag_122:\n      pop\n        /* \"ddd.sol\":1850:2358  function yourMove(uint8 _move) public {\r... */\n      pop\n      jump\t// out\n        /* \"ddd.sol\":1750:1796  mapping(address => uint8[]) public playerMoves */\n    tag_47:\n      mstore(0x20, 0x19)\n      dup2\n      0x00\n      mstore\n      keccak256(0x00, 0x40)\n      dup2\n      dup2\n      sload\n      dup2\n      lt\n      tag_124\n      jumpi\n      0x00\n      dup1\n      revert\n    tag_124:\n      swap1\n      0x00\n      mstore\n      keccak256(0x00, 0x20)\n      swap1\n      0x20\n      swap2\n      dup3\n      dup3\n      div\n      add\n      swap2\n      swap1\n      mod\n      swap2\n      pop\n      swap2\n      pop\n      swap1\n      sload\n      swap1\n      0x0100\n      exp\n      swap1\n      div\n      0xff\n      and\n      dup2\n      jump\t// out\n        /* \"ddd.sol\":1803:1843  mapping(uint8 => address) public s_Moves */\n    tag_52:\n      mstore(0x20, 0x1a)\n      dup1\n      0x00\n      mstore\n      keccak256(0x00, 0x40)\n      0x00\n      swap2\n      pop\n      sload\n      swap1\n      0x0100\n      exp\n      swap1\n      div\n      0xffffffffffffffffffffffffffffffffffffffff\n      and\n      dup2\n      jump\t// out\n        /* \"ddd.sol\":879:899  Player public player */\n    tag_55:\n      0x13\n      dup1\n      0x00\n      add\n      0x00\n      swap1\n      sload\n      swap1\n      0x0100\n      exp\n      swap1\n      div\n      0xffffffffffffffffffffffffffffffffffffffff\n      and\n      swap1\n      dup1\n      0x00\n      add\n      0x14\n      swap1\n      sload\n      swap1\n      0x0100\n      exp\n      swap1\n      div\n      0xff\n      and\n      swap1\n      pop\n      dup3\n      jump\t// out\n        /* \"ddd.sol\":327:351  uint256 public moveTaken */\n    tag_58:\n      sload(0x06)\n      dup2\n      jump\t// out\n        /* \"ddd.sol\":731:757  address[] public gameBoard */\n    tag_63:\n      0x12\n      dup2\n      dup2\n      sload\n      dup2\n      lt\n      tag_126\n      jumpi\n      0x00\n      dup1\n      revert\n    tag_126:\n      swap1\n      0x00\n      mstore\n      keccak256(0x00, 0x20)\n      add\n      0x00\n      swap2\n      pop\n      sload\n      swap1\n      0x0100\n      exp\n      swap1\n      div\n      0xffffffffffffffffffffffffffffffffffffffff\n      and\n      dup2\n      jump\t// out\n        /* \"ddd.sol\":358:380  uint256 public session */\n    tag_66:\n      sload(0x07)\n      dup2\n      jump\t// out\n        /* \"ddd.sol\":2890:3003  function getPlayersMoves() public view returns (uint8[] memory) {\r... */\n    tag_69:\n        /* \"ddd.sol\":2938:2952  uint8[] memory */\n      0x60\n        /* \"ddd.sol\":2972:2983  playerMoves */\n      0x19\n        /* \"ddd.sol\":2972:2995  playerMoves[msg.sender] */\n      0x00\n        /* \"ddd.sol\":2984:2994  msg.sender */\n      caller\n        /* \"ddd.sol\":2972:2995  playerMoves[msg.sender] */\n      0xffffffffffffffffffffffffffffffffffffffff\n      and\n      0xffffffffffffffffffffffffffffffffffffffff\n      and\n      dup2\n      mstore\n      0x20\n      add\n      swap1\n      dup2\n      mstore\n      0x20\n      add\n      0x00\n      keccak256\n        /* \"ddd.sol\":2965:2995  return playerMoves[msg.sender] */\n      dup1\n      sload\n      dup1\n      0x20\n      mul\n      0x20\n      add\n      mload(0x40)\n      swap1\n      dup2\n      add\n      0x40\n      mstore\n      dup1\n      swap3\n      swap2\n      swap1\n      dup2\n      dup2\n      mstore\n      0x20\n      add\n      dup3\n      dup1\n      sload\n      dup1\n      iszero\n      tag_129\n      jumpi\n      0x20\n      mul\n      dup3\n      add\n      swap2\n      swap1\n      0x00\n      mstore\n      keccak256(0x00, 0x20)\n      swap1\n      0x00\n      swap1\n    tag_130:\n      dup3\n      dup3\n      swap1\n      sload\n      swap1\n      0x0100\n      exp\n      swap1\n      div\n      0xff\n      and\n      0xff\n      and\n      dup2\n      mstore\n      0x20\n      add\n      swap1\n      0x01\n      add\n      swap1\n      0x20\n      dup3\n      0x00\n      add\n      div\n      swap3\n      dup4\n      add\n      swap3\n      0x01\n      sub\n      dup3\n      mul\n      swap2\n      pop\n      dup1\n      dup5\n      gt\n      tag_130\n      jumpi\n      swap1\n      pop\n    tag_129:\n      pop\n      pop\n      pop\n      pop\n      pop\n      swap1\n      pop\n        /* \"ddd.sol\":2890:3003  function getPlayersMoves() public view returns (uint8[] memory) {\r... */\n      swap1\n      jump\t// out\n        /* \"@openzeppelin/contracts/access/Ownable.sol\":1831:1932  function renounceOwnership() public virtual onlyOwner {... */\n    tag_73:\n        /* \"@openzeppelin/contracts/access/Ownable.sol\":1094:1107  _checkOwner() */\n      tag_132\n        /* \"@openzeppelin/contracts/access/Ownable.sol\":1094:1105  _checkOwner */\n      tag_133\n        /* \"@openzeppelin/contracts/access/Ownable.sol\":1094:1107  _checkOwner() */\n      jump\t// in\n    tag_132:\n        /* \"@openzeppelin/contracts/access/Ownable.sol\":1895:1925  _transferOwnership(address(0)) */\n      tag_135\n        /* \"@openzeppelin/contracts/access/Ownable.sol\":1922:1923  0 */\n      0x00\n        /* \"@openzeppelin/contracts/access/Ownable.sol\":1895:1913  _transferOwnership */\n      tag_136\n        /* \"@openzeppelin/contracts/access/Ownable.sol\":1895:1925  _transferOwnership(address(0)) */\n      jump\t// in\n    tag_135:\n        /* \"@openzeppelin/contracts/access/Ownable.sol\":1831:1932  function renounceOwnership() public virtual onlyOwner {... */\n      jump\t// out\n        /* \"ddd.sol\":416:433  bool public timer */\n    tag_75:\n      0x09\n      0x00\n      swap1\n      sload\n      swap1\n      0x0100\n      exp\n      swap1\n      div\n      0xff\n      and\n      dup2\n      jump\t// out\n        /* \"@openzeppelin/contracts/access/Ownable.sol\":1201:1286  function owner() public view virtual returns (address) {... */\n    tag_79:\n        /* \"@openzeppelin/contracts/access/Ownable.sol\":1247:1254  address */\n      0x00\n        /* \"@openzeppelin/contracts/access/Ownable.sol\":1273:1279  _owner */\n      dup1\n      0x00\n      swap1\n      sload\n      swap1\n      0x0100\n      exp\n      swap1\n      div\n      0xffffffffffffffffffffffffffffffffffffffff\n      and\n        /* \"@openzeppelin/contracts/access/Ownable.sol\":1266:1279  return _owner */\n      swap1\n      pop\n        /* \"@openzeppelin/contracts/access/Ownable.sol\":1201:1286  function owner() public view virtual returns (address) {... */\n      swap1\n      jump\t// out\n        /* \"ddd.sol\":148:170  address public playerA */\n    tag_82:\n      0x01\n      0x00\n      swap1\n      sload\n      swap1\n      0x0100\n      exp\n      swap1\n      div\n      0xffffffffffffffffffffffffffffffffffffffff\n      and\n      dup2\n      jump\t// out\n        /* \"ddd.sol\":295:320  uint256 public turnsTaken */\n    tag_85:\n      sload(0x05)\n      dup2\n      jump\t// out\n        /* \"ddd.sol\":268:288  bool public gameOver */\n    tag_88:\n      0x04\n      0x14\n      swap1\n      sload\n      swap1\n      0x0100\n      exp\n      swap1\n      div\n      0xff\n      and\n      dup2\n      jump\t// out\n        /* \"ddd.sol\":1337:1353  Game public game */\n    tag_91:\n      0x16\n      dup1\n      0x00\n      add\n      0x00\n      swap1\n      sload\n      swap1\n      0x0100\n      exp\n      swap1\n      div\n      0xffffffffffffffffffffffffffffffffffffffff\n      and\n      swap1\n      dup1\n      0x01\n      add\n      sload\n      swap1\n      pop\n      dup3\n      jump\t// out\n        /* \"ddd.sol\":208:233  address public lastPlayed */\n    tag_95:\n      0x03\n      0x00\n      swap1\n      sload\n      swap1\n      0x0100\n      exp\n      swap1\n      div\n      0xffffffffffffffffffffffffffffffffffffffff\n      and\n      dup2\n      jump\t// out\n        /* \"ddd.sol\":240:261  address public winner */\n    tag_98:\n      0x04\n      0x00\n      swap1\n      sload\n      swap1\n      0x0100\n      exp\n      swap1\n      div\n      0xffffffffffffffffffffffffffffffffffffffff\n      and\n      dup2\n      jump\t// out\n        /* \"ddd.sol\":1521:1736  function startGame(address _player1, address _player2) external {\r... */\n    tag_103:\n        /* \"ddd.sol\":1616:1624  _player2 */\n      dup1\n        /* \"ddd.sol\":1604:1624  _player1 != _player2 */\n      0xffffffffffffffffffffffffffffffffffffffff\n      and\n        /* \"ddd.sol\":1604:1612  _player1 */\n      dup3\n        /* \"ddd.sol\":1604:1624  _player1 != _player2 */\n      0xffffffffffffffffffffffffffffffffffffffff\n      and\n      eq\n      iszero\n        /* \"ddd.sol\":1596:1625  require(_player1 != _player2) */\n      tag_139\n      jumpi\n      0x00\n      dup1\n      revert\n    tag_139:\n        /* \"ddd.sol\":1646:1654  _player1 */\n      dup2\n        /* \"ddd.sol\":1636:1643  playerA */\n      0x01\n      0x00\n        /* \"ddd.sol\":1636:1654  playerA = _player1 */\n      0x0100\n      exp\n      dup2\n      sload\n      dup2\n      0xffffffffffffffffffffffffffffffffffffffff\n      mul\n      not\n      and\n      swap1\n      dup4\n      0xffffffffffffffffffffffffffffffffffffffff\n      and\n      mul\n      or\n      swap1\n      sstore\n      pop\n        /* \"ddd.sol\":1675:1683  _player2 */\n      dup1\n        /* \"ddd.sol\":1665:1672  playerB */\n      0x02\n      0x00\n        /* \"ddd.sol\":1665:1683  playerB = _player2 */\n      0x0100\n      exp\n      dup2\n      sload\n      dup2\n      0xffffffffffffffffffffffffffffffffffffffff\n      mul\n      not\n      and\n      swap1\n      dup4\n      0xffffffffffffffffffffffffffffffffffffffff\n      and\n      mul\n      or\n      swap1\n      sstore\n      pop\n        /* \"ddd.sol\":1699:1728  GameStarted(playerA, playerB) */\n      0x55b25d7f9b5bf8ea934ba7079455d2ba00c68ea7e66c13695275f6b75b95e5f8\n        /* \"ddd.sol\":1711:1718  playerA */\n      0x01\n      0x00\n      swap1\n      sload\n      swap1\n      0x0100\n      exp\n      swap1\n      div\n      0xffffffffffffffffffffffffffffffffffffffff\n      and\n        /* \"ddd.sol\":1720:1727  playerB */\n      0x02\n      0x00\n      swap1\n      sload\n      swap1\n      0x0100\n      exp\n      swap1\n      div\n      0xffffffffffffffffffffffffffffffffffffffff\n      and\n        /* \"ddd.sol\":1699:1728  GameStarted(playerA, playerB) */\n      mload(0x40)\n      tag_140\n      swap3\n      swap2\n      swap1\n      tag_141\n      jump\t// in\n    tag_140:\n      mload(0x40)\n      dup1\n      swap2\n      sub\n      swap1\n      log1\n        /* \"ddd.sol\":1521:1736  function startGame(address _player1, address _player2) external {\r... */\n      pop\n      pop\n      jump\t// out\n        /* \"@openzeppelin/contracts/access/Ownable.sol\":2081:2279  function transferOwnership(address newOwner) public virtual onlyOwner {... */\n    tag_107:\n        /* \"@openzeppelin/contracts/access/Ownable.sol\":1094:1107  _checkOwner() */\n      tag_143\n        /* \"@openzeppelin/contracts/access/Ownable.sol\":1094:1105  _checkOwner */\n      tag_133\n        /* \"@openzeppelin/contracts/access/Ownable.sol\":1094:1107  _checkOwner() */\n      jump\t// in\n    tag_143:\n        /* \"@openzeppelin/contracts/access/Ownable.sol\":2189:2190  0 */\n      0x00\n        /* \"@openzeppelin/contracts/access/Ownable.sol\":2169:2191  newOwner != address(0) */\n      0xffffffffffffffffffffffffffffffffffffffff\n      and\n        /* \"@openzeppelin/contracts/access/Ownable.sol\":2169:2177  newOwner */\n      dup2\n        /* \"@openzeppelin/contracts/access/Ownable.sol\":2169:2191  newOwner != address(0) */\n      0xffffffffffffffffffffffffffffffffffffffff\n      and\n      eq\n      iszero\n        /* \"@openzeppelin/contracts/access/Ownable.sol\":2161:2234  require(newOwner != address(0), \"Ownable: new owner is the zero address\") */\n      tag_145\n      jumpi\n      mload(0x40)\n      0x08c379a000000000000000000000000000000000000000000000000000000000\n      dup2\n      mstore\n      0x04\n      add\n      tag_146\n      swap1\n      tag_147\n      jump\t// in\n    tag_146:\n      mload(0x40)\n      dup1\n      swap2\n      sub\n      swap1\n      revert\n    tag_145:\n        /* \"@openzeppelin/contracts/access/Ownable.sol\":2244:2272  _transferOwnership(newOwner) */\n      tag_148\n        /* \"@openzeppelin/contracts/access/Ownable.sol\":2263:2271  newOwner */\n      dup2\n        /* \"@openzeppelin/contracts/access/Ownable.sol\":2244:2262  _transferOwnership */\n      tag_136\n        /* \"@openzeppelin/contracts/access/Ownable.sol\":2244:2272  _transferOwnership(newOwner) */\n      jump\t// in\n    tag_148:\n        /* \"@openzeppelin/contracts/access/Ownable.sol\":2081:2279  function transferOwnership(address newOwner) public virtual onlyOwner {... */\n      pop\n      jump\t// out\n        /* \"ddd.sol\":2366:2477  function checkWin() internal pure returns (bool win){\r... */\n    tag_123:\n        /* \"ddd.sol\":2409:2417  bool win */\n      0x00\n        /* \"ddd.sol\":2434:2440  uint i */\n      dup1\n        /* \"ddd.sol\":2441:2442  1 */\n      0x01\n        /* \"ddd.sol\":2434:2442  uint i=1 */\n      swap1\n      pop\n        /* \"ddd.sol\":2429:2470  for (uint i=1; i < 10; i++){\r... */\n    tag_150:\n        /* \"ddd.sol\":2448:2450  10 */\n      0x0a\n        /* \"ddd.sol\":2444:2445  i */\n      dup2\n        /* \"ddd.sol\":2444:2450  i < 10 */\n      lt\n        /* \"ddd.sol\":2429:2470  for (uint i=1; i < 10; i++){\r... */\n      iszero\n      tag_151\n      jumpi\n        /* \"ddd.sol\":2452:2455  i++ */\n      dup1\n      dup1\n      tag_153\n      swap1\n      tag_154\n      jump\t// in\n    tag_153:\n      swap2\n      pop\n      pop\n        /* \"ddd.sol\":2429:2470  for (uint i=1; i < 10; i++){\r... */\n      jump(tag_150)\n    tag_151:\n      pop\n        /* \"ddd.sol\":2366:2477  function checkWin() internal pure returns (bool win){\r... */\n      swap1\n      jump\t// out\n        /* \"@openzeppelin/contracts/access/Ownable.sol\":1359:1489  function _checkOwner() internal view virtual {... */\n    tag_133:\n        /* \"@openzeppelin/contracts/access/Ownable.sol\":1433:1445  _msgSender() */\n      tag_156\n        /* \"@openzeppelin/contracts/access/Ownable.sol\":1433:1443  _msgSender */\n      tag_157\n        /* \"@openzeppelin/contracts/access/Ownable.sol\":1433:1445  _msgSender() */\n      jump\t// in\n    tag_156:\n        /* \"@openzeppelin/contracts/access/Ownable.sol\":1422:1445  owner() == _msgSender() */\n      0xffffffffffffffffffffffffffffffffffffffff\n      and\n        /* \"@openzeppelin/contracts/access/Ownable.sol\":1422:1429  owner() */\n      tag_158\n        /* \"@openzeppelin/contracts/access/Ownable.sol\":1422:1427  owner */\n      tag_79\n        /* \"@openzeppelin/contracts/access/Ownable.sol\":1422:1429  owner() */\n      jump\t// in\n    tag_158:\n        /* \"@openzeppelin/contracts/access/Ownable.sol\":1422:1445  owner() == _msgSender() */\n      0xffffffffffffffffffffffffffffffffffffffff\n      and\n      eq\n        /* \"@openzeppelin/contracts/access/Ownable.sol\":1414:1482  require(owner() == _msgSender(), \"Ownable: caller is not the owner\") */\n      tag_159\n      jumpi\n      mload(0x40)\n      0x08c379a000000000000000000000000000000000000000000000000000000000\n      dup2\n      mstore\n      0x04\n      add\n      tag_160\n      swap1\n      tag_161\n      jump\t// in\n    tag_160:\n      mload(0x40)\n      dup1\n      swap2\n      sub\n      swap1\n      revert\n    tag_159:\n        /* \"@openzeppelin/contracts/access/Ownable.sol\":1359:1489  function _checkOwner() internal view virtual {... */\n      jump\t// out\n        /* \"@openzeppelin/contracts/access/Ownable.sol\":2433:2620  function _transferOwnership(address newOwner) internal virtual {... */\n    tag_136:\n        /* \"@openzeppelin/contracts/access/Ownable.sol\":2506:2522  address oldOwner */\n      0x00\n        /* \"@openzeppelin/contracts/access/Ownable.sol\":2525:2531  _owner */\n      dup1\n      0x00\n      swap1\n      sload\n      swap1\n      0x0100\n      exp\n      swap1\n      div\n      0xffffffffffffffffffffffffffffffffffffffff\n      and\n        /* \"@openzeppelin/contracts/access/Ownable.sol\":2506:2531  address oldOwner = _owner */\n      swap1\n      pop\n        /* \"@openzeppelin/contracts/access/Ownable.sol\":2550:2558  newOwner */\n      dup2\n        /* \"@openzeppelin/contracts/access/Ownable.sol\":2541:2547  _owner */\n      0x00\n      dup1\n        /* \"@openzeppelin/contracts/access/Ownable.sol\":2541:2558  _owner = newOwner */\n      0x0100\n      exp\n      dup2\n      sload\n      dup2\n      0xffffffffffffffffffffffffffffffffffffffff\n      mul\n      not\n      and\n      swap1\n      dup4\n      0xffffffffffffffffffffffffffffffffffffffff\n      and\n      mul\n      or\n      swap1\n      sstore\n      pop\n        /* \"@openzeppelin/contracts/access/Ownable.sol\":2604:2612  newOwner */\n      dup2\n        /* \"@openzeppelin/contracts/access/Ownable.sol\":2573:2613  OwnershipTransferred(oldOwner, newOwner) */\n      0xffffffffffffffffffffffffffffffffffffffff\n      and\n        /* \"@openzeppelin/contracts/access/Ownable.sol\":2594:2602  oldOwner */\n      dup2\n        /* \"@openzeppelin/contracts/access/Ownable.sol\":2573:2613  OwnershipTransferred(oldOwner, newOwner) */\n      0xffffffffffffffffffffffffffffffffffffffff\n      and\n      0x8be0079c531659141344cd1fd0a4f28419497f9722a3daafe3b4186f6b6457e0\n      mload(0x40)\n      mload(0x40)\n      dup1\n      swap2\n      sub\n      swap1\n      log3\n        /* \"@openzeppelin/contracts/access/Ownable.sol\":2496:2620  {... */\n      pop\n        /* \"@openzeppelin/contracts/access/Ownable.sol\":2433:2620  function _transferOwnership(address newOwner) internal virtual {... */\n      pop\n      jump\t// out\n        /* \"@openzeppelin/contracts/utils/Context.sol\":640:736  function _msgSender() internal view virtual returns (address) {... */\n    tag_157:\n        /* \"@openzeppelin/contracts/utils/Context.sol\":693:700  address */\n      0x00\n        /* \"@openzeppelin/contracts/utils/Context.sol\":719:729  msg.sender */\n      caller\n        /* \"@openzeppelin/contracts/utils/Context.sol\":712:729  return msg.sender */\n      swap1\n      pop\n        /* \"@openzeppelin/contracts/utils/Context.sol\":640:736  function _msgSender() internal view virtual returns (address) {... */\n      swap1\n      jump\t// out\n        /* \"#utility.yul\":7:146   */\n    tag_165:\n        /* \"#utility.yul\":53:58   */\n      0x00\n        /* \"#utility.yul\":91:97   */\n      dup2\n        /* \"#utility.yul\":78:98   */\n      calldataload\n        /* \"#utility.yul\":69:98   */\n      swap1\n      pop\n        /* \"#utility.yul\":107:140   */\n      tag_167\n        /* \"#utility.yul\":134:139   */\n      dup2\n        /* \"#utility.yul\":107:140   */\n      tag_168\n      jump\t// in\n    tag_167:\n        /* \"#utility.yul\":7:146   */\n      swap3\n      swap2\n      pop\n      pop\n      jump\t// out\n        /* \"#utility.yul\":152:291   */\n    tag_169:\n        /* \"#utility.yul\":198:203   */\n      0x00\n        /* \"#utility.yul\":236:242   */\n      dup2\n        /* \"#utility.yul\":223:243   */\n      calldataload\n        /* \"#utility.yul\":214:243   */\n      swap1\n      pop\n        /* \"#utility.yul\":252:285   */\n      tag_171\n        /* \"#utility.yul\":279:284   */\n      dup2\n        /* \"#utility.yul\":252:285   */\n      tag_172\n      jump\t// in\n    tag_171:\n        /* \"#utility.yul\":152:291   */\n      swap3\n      swap2\n      pop\n      pop\n      jump\t// out\n        /* \"#utility.yul\":297:432   */\n    tag_173:\n        /* \"#utility.yul\":341:346   */\n      0x00\n        /* \"#utility.yul\":379:385   */\n      dup2\n        /* \"#utility.yul\":366:386   */\n      calldataload\n        /* \"#utility.yul\":357:386   */\n      swap1\n      pop\n        /* \"#utility.yul\":395:426   */\n      tag_175\n        /* \"#utility.yul\":420:425   */\n      dup2\n        /* \"#utility.yul\":395:426   */\n      tag_176\n      jump\t// in\n    tag_175:\n        /* \"#utility.yul\":297:432   */\n      swap3\n      swap2\n      pop\n      pop\n      jump\t// out\n        /* \"#utility.yul\":438:767   */\n    tag_106:\n        /* \"#utility.yul\":497:503   */\n      0x00\n        /* \"#utility.yul\":546:548   */\n      0x20\n        /* \"#utility.yul\":534:543   */\n      dup3\n        /* \"#utility.yul\":525:532   */\n      dup5\n        /* \"#utility.yul\":521:544   */\n      sub\n        /* \"#utility.yul\":517:549   */\n      slt\n        /* \"#utility.yul\":514:633   */\n      iszero\n      tag_178\n      jumpi\n        /* \"#utility.yul\":552:631   */\n      tag_179\n      tag_180\n      jump\t// in\n    tag_179:\n        /* \"#utility.yul\":514:633   */\n    tag_178:\n        /* \"#utility.yul\":672:673   */\n      0x00\n        /* \"#utility.yul\":697:750   */\n      tag_181\n        /* \"#utility.yul\":742:749   */\n      dup5\n        /* \"#utility.yul\":733:739   */\n      dup3\n        /* \"#utility.yul\":722:731   */\n      dup6\n        /* \"#utility.yul\":718:740   */\n      add\n        /* \"#utility.yul\":697:750   */\n      tag_165\n      jump\t// in\n    tag_181:\n        /* \"#utility.yul\":687:750   */\n      swap2\n      pop\n        /* \"#utility.yul\":643:760   */\n      pop\n        /* \"#utility.yul\":438:767   */\n      swap3\n      swap2\n      pop\n      pop\n      jump\t// out\n        /* \"#utility.yul\":773:1247   */\n    tag_102:\n        /* \"#utility.yul\":841:847   */\n      0x00\n        /* \"#utility.yul\":849:855   */\n      dup1\n        /* \"#utility.yul\":898:900   */\n      0x40\n        /* \"#utility.yul\":886:895   */\n      dup4\n        /* \"#utility.yul\":877:884   */\n      dup6\n        /* \"#utility.yul\":873:896   */\n      sub\n        /* \"#utility.yul\":869:901   */\n      slt\n        /* \"#utility.yul\":866:985   */\n      iszero\n      tag_183\n      jumpi\n        /* \"#utility.yul\":904:983   */\n      tag_184\n      tag_180\n      jump\t// in\n    tag_184:\n        /* \"#utility.yul\":866:985   */\n    tag_183:\n        /* \"#utility.yul\":1024:1025   */\n      0x00\n        /* \"#utility.yul\":1049:1102   */\n      tag_185\n        /* \"#utility.yul\":1094:1101   */\n      dup6\n        /* \"#utility.yul\":1085:1091   */\n      dup3\n        /* \"#utility.yul\":1074:1083   */\n      dup7\n        /* \"#utility.yul\":1070:1092   */\n      add\n        /* \"#utility.yul\":1049:1102   */\n      tag_165\n      jump\t// in\n    tag_185:\n        /* \"#utility.yul\":1039:1102   */\n      swap3\n      pop\n        /* \"#utility.yul\":995:1112   */\n      pop\n        /* \"#utility.yul\":1151:1153   */\n      0x20\n        /* \"#utility.yul\":1177:1230   */\n      tag_186\n        /* \"#utility.yul\":1222:1229   */\n      dup6\n        /* \"#utility.yul\":1213:1219   */\n      dup3\n        /* \"#utility.yul\":1202:1211   */\n      dup7\n        /* \"#utility.yul\":1198:1220   */\n      add\n        /* \"#utility.yul\":1177:1230   */\n      tag_165\n      jump\t// in\n    tag_186:\n        /* \"#utility.yul\":1167:1230   */\n      swap2\n      pop\n        /* \"#utility.yul\":1122:1240   */\n      pop\n        /* \"#utility.yul\":773:1247   */\n      swap3\n      pop\n      swap3\n      swap1\n      pop\n      jump\t// out\n        /* \"#utility.yul\":1253:1727   */\n    tag_46:\n        /* \"#utility.yul\":1321:1327   */\n      0x00\n        /* \"#utility.yul\":1329:1335   */\n      dup1\n        /* \"#utility.yul\":1378:1380   */\n      0x40\n        /* \"#utility.yul\":1366:1375   */\n      dup4\n        /* \"#utility.yul\":1357:1364   */\n      dup6\n        /* \"#utility.yul\":1353:1376   */\n      sub\n        /* \"#utility.yul\":1349:1381   */\n      slt\n        /* \"#utility.yul\":1346:1465   */\n      iszero\n      tag_188\n      jumpi\n        /* \"#utility.yul\":1384:1463   */\n      tag_189\n      tag_180\n      jump\t// in\n    tag_189:\n        /* \"#utility.yul\":1346:1465   */\n    tag_188:\n        /* \"#utility.yul\":1504:1505   */\n      0x00\n        /* \"#utility.yul\":1529:1582   */\n      tag_190\n        /* \"#utility.yul\":1574:1581   */\n      dup6\n        /* \"#utility.yul\":1565:1571   */\n      dup3\n        /* \"#utility.yul\":1554:1563   */\n      dup7\n        /* \"#utility.yul\":1550:1572   */\n      add\n        /* \"#utility.yul\":1529:1582   */\n      tag_165\n      jump\t// in\n    tag_190:\n        /* \"#utility.yul\":1519:1582   */\n      swap3\n      pop\n        /* \"#utility.yul\":1475:1592   */\n      pop\n        /* \"#utility.yul\":1631:1633   */\n      0x20\n        /* \"#utility.yul\":1657:1710   */\n      tag_191\n        /* \"#utility.yul\":1702:1709   */\n      dup6\n        /* \"#utility.yul\":1693:1699   */\n      dup3\n        /* \"#utility.yul\":1682:1691   */\n      dup7\n        /* \"#utility.yul\":1678:1700   */\n      add\n        /* \"#utility.yul\":1657:1710   */\n      tag_169\n      jump\t// in\n    tag_191:\n        /* \"#utility.yul\":1647:1710   */\n      swap2\n      pop\n        /* \"#utility.yul\":1602:1720   */\n      pop\n        /* \"#utility.yul\":1253:1727   */\n      swap3\n      pop\n      swap3\n      swap1\n      pop\n      jump\t// out\n        /* \"#utility.yul\":1733:2062   */\n    tag_62:\n        /* \"#utility.yul\":1792:1798   */\n      0x00\n        /* \"#utility.yul\":1841:1843   */\n      0x20\n        /* \"#utility.yul\":1829:1838   */\n      dup3\n        /* \"#utility.yul\":1820:1827   */\n      dup5\n        /* \"#utility.yul\":1816:1839   */\n      sub\n        /* \"#utility.yul\":1812:1844   */\n      slt\n        /* \"#utility.yul\":1809:1928   */\n      iszero\n      tag_193\n      jumpi\n        /* \"#utility.yul\":1847:1926   */\n      tag_194\n      tag_180\n      jump\t// in\n    tag_194:\n        /* \"#utility.yul\":1809:1928   */\n    tag_193:\n        /* \"#utility.yul\":1967:1968   */\n      0x00\n        /* \"#utility.yul\":1992:2045   */\n      tag_195\n        /* \"#utility.yul\":2037:2044   */\n      dup5\n        /* \"#utility.yul\":2028:2034   */\n      dup3\n        /* \"#utility.yul\":2017:2026   */\n      dup6\n        /* \"#utility.yul\":2013:2035   */\n      add\n        /* \"#utility.yul\":1992:2045   */\n      tag_169\n      jump\t// in\n    tag_195:\n        /* \"#utility.yul\":1982:2045   */\n      swap2\n      pop\n        /* \"#utility.yul\":1938:2055   */\n      pop\n        /* \"#utility.yul\":1733:2062   */\n      swap3\n      swap2\n      pop\n      pop\n      jump\t// out\n        /* \"#utility.yul\":2068:2393   */\n    tag_42:\n        /* \"#utility.yul\":2125:2131   */\n      0x00\n        /* \"#utility.yul\":2174:2176   */\n      0x20\n        /* \"#utility.yul\":2162:2171   */\n      dup3\n        /* \"#utility.yul\":2153:2160   */\n      dup5\n        /* \"#utility.yul\":2149:2172   */\n      sub\n        /* \"#utility.yul\":2145:2177   */\n      slt\n        /* \"#utility.yul\":2142:2261   */\n      iszero\n      tag_197\n      jumpi\n        /* \"#utility.yul\":2180:2259   */\n      tag_198\n      tag_180\n      jump\t// in\n    tag_198:\n        /* \"#utility.yul\":2142:2261   */\n    tag_197:\n        /* \"#utility.yul\":2300:2301   */\n      0x00\n        /* \"#utility.yul\":2325:2376   */\n      tag_199\n        /* \"#utility.yul\":2368:2375   */\n      dup5\n        /* \"#utility.yul\":2359:2365   */\n      dup3\n        /* \"#utility.yul\":2348:2357   */\n      dup6\n        /* \"#utility.yul\":2344:2366   */\n      add\n        /* \"#utility.yul\":2325:2376   */\n      tag_173\n      jump\t// in\n    tag_199:\n        /* \"#utility.yul\":2315:2376   */\n      swap2\n      pop\n        /* \"#utility.yul\":2271:2386   */\n      pop\n        /* \"#utility.yul\":2068:2393   */\n      swap3\n      swap2\n      pop\n      pop\n      jump\t// out\n        /* \"#utility.yul\":2399:2570   */\n    tag_200:\n        /* \"#utility.yul\":2464:2474   */\n      0x00\n        /* \"#utility.yul\":2485:2527   */\n      tag_202\n        /* \"#utility.yul\":2523:2526   */\n      dup4\n        /* \"#utility.yul\":2515:2521   */\n      dup4\n        /* \"#utility.yul\":2485:2527   */\n      tag_203\n      jump\t// in\n    tag_202:\n        /* \"#utility.yul\":2559:2563   */\n      0x20\n        /* \"#utility.yul\":2554:2557   */\n      dup4\n        /* \"#utility.yul\":2550:2564   */\n      add\n        /* \"#utility.yul\":2536:2564   */\n      swap1\n      pop\n        /* \"#utility.yul\":2399:2570   */\n      swap3\n      swap2\n      pop\n      pop\n      jump\t// out\n        /* \"#utility.yul\":2576:2694   */\n    tag_204:\n        /* \"#utility.yul\":2663:2687   */\n      tag_206\n        /* \"#utility.yul\":2681:2686   */\n      dup2\n        /* \"#utility.yul\":2663:2687   */\n      tag_207\n      jump\t// in\n    tag_206:\n        /* \"#utility.yul\":2658:2661   */\n      dup3\n        /* \"#utility.yul\":2651:2688   */\n      mstore\n        /* \"#utility.yul\":2576:2694   */\n      pop\n      pop\n      jump\t// out\n        /* \"#utility.yul\":2726:3442   */\n    tag_208:\n        /* \"#utility.yul\":2841:2844   */\n      0x00\n        /* \"#utility.yul\":2870:2922   */\n      tag_210\n        /* \"#utility.yul\":2916:2921   */\n      dup3\n        /* \"#utility.yul\":2870:2922   */\n      tag_211\n      jump\t// in\n    tag_210:\n        /* \"#utility.yul\":2938:3022   */\n      tag_212\n        /* \"#utility.yul\":3015:3021   */\n      dup2\n        /* \"#utility.yul\":3010:3013   */\n      dup6\n        /* \"#utility.yul\":2938:3022   */\n      tag_213\n      jump\t// in\n    tag_212:\n        /* \"#utility.yul\":2931:3022   */\n      swap4\n      pop\n        /* \"#utility.yul\":3046:3100   */\n      tag_214\n        /* \"#utility.yul\":3094:3099   */\n      dup4\n        /* \"#utility.yul\":3046:3100   */\n      tag_215\n      jump\t// in\n    tag_214:\n        /* \"#utility.yul\":3123:3130   */\n      dup1\n        /* \"#utility.yul\":3154:3155   */\n      0x00\n        /* \"#utility.yul\":3139:3417   */\n    tag_216:\n        /* \"#utility.yul\":3164:3170   */\n      dup4\n        /* \"#utility.yul\":3161:3162   */\n      dup2\n        /* \"#utility.yul\":3158:3171   */\n      lt\n        /* \"#utility.yul\":3139:3417   */\n      iszero\n      tag_218\n      jumpi\n        /* \"#utility.yul\":3240:3246   */\n      dup2\n        /* \"#utility.yul\":3234:3247   */\n      mload\n        /* \"#utility.yul\":3267:3326   */\n      tag_219\n        /* \"#utility.yul\":3322:3325   */\n      dup9\n        /* \"#utility.yul\":3307:3320   */\n      dup3\n        /* \"#utility.yul\":3267:3326   */\n      tag_200\n      jump\t// in\n    tag_219:\n        /* \"#utility.yul\":3260:3326   */\n      swap8\n      pop\n        /* \"#utility.yul\":3349:3407   */\n      tag_220\n        /* \"#utility.yul\":3400:3406   */\n      dup4\n        /* \"#utility.yul\":3349:3407   */\n      tag_221\n      jump\t// in\n    tag_220:\n        /* \"#utility.yul\":3339:3407   */\n      swap3\n      pop\n        /* \"#utility.yul\":3199:3417   */\n      pop\n        /* \"#utility.yul\":3186:3187   */\n      0x01\n        /* \"#utility.yul\":3183:3184   */\n      dup2\n        /* \"#utility.yul\":3179:3188   */\n      add\n        /* \"#utility.yul\":3174:3188   */\n      swap1\n      pop\n        /* \"#utility.yul\":3139:3417   */\n      jump(tag_216)\n    tag_218:\n        /* \"#utility.yul\":3143:3157   */\n      pop\n        /* \"#utility.yul\":3433:3436   */\n      dup6\n        /* \"#utility.yul\":3426:3436   */\n      swap4\n      pop\n        /* \"#utility.yul\":2846:3442   */\n      pop\n      pop\n      pop\n        /* \"#utility.yul\":2726:3442   */\n      swap3\n      swap2\n      pop\n      pop\n      jump\t// out\n        /* \"#utility.yul\":3448:3557   */\n    tag_222:\n        /* \"#utility.yul\":3529:3550   */\n      tag_224\n        /* \"#utility.yul\":3544:3549   */\n      dup2\n        /* \"#utility.yul\":3529:3550   */\n      tag_225\n      jump\t// in\n    tag_224:\n        /* \"#utility.yul\":3524:3527   */\n      dup3\n        /* \"#utility.yul\":3517:3551   */\n      mstore\n        /* \"#utility.yul\":3448:3557   */\n      pop\n      pop\n      jump\t// out\n        /* \"#utility.yul\":3563:3929   */\n    tag_226:\n        /* \"#utility.yul\":3705:3708   */\n      0x00\n        /* \"#utility.yul\":3726:3793   */\n      tag_228\n        /* \"#utility.yul\":3790:3792   */\n      0x0c\n        /* \"#utility.yul\":3785:3788   */\n      dup4\n        /* \"#utility.yul\":3726:3793   */\n      tag_229\n      jump\t// in\n    tag_228:\n        /* \"#utility.yul\":3719:3793   */\n      swap2\n      pop\n        /* \"#utility.yul\":3802:3895   */\n      tag_230\n        /* \"#utility.yul\":3891:3894   */\n      dup3\n        /* \"#utility.yul\":3802:3895   */\n      tag_231\n      jump\t// in\n    tag_230:\n        /* \"#utility.yul\":3920:3922   */\n      0x20\n        /* \"#utility.yul\":3915:3918   */\n      dup3\n        /* \"#utility.yul\":3911:3923   */\n      add\n        /* \"#utility.yul\":3904:3923   */\n      swap1\n      pop\n        /* \"#utility.yul\":3563:3929   */\n      swap2\n      swap1\n      pop\n      jump\t// out\n        /* \"#utility.yul\":3935:4301   */\n    tag_232:\n        /* \"#utility.yul\":4077:4080   */\n      0x00\n        /* \"#utility.yul\":4098:4165   */\n      tag_234\n        /* \"#utility.yul\":4162:4164   */\n      0x26\n        /* \"#utility.yul\":4157:4160   */\n      dup4\n        /* \"#utility.yul\":4098:4165   */\n      tag_229\n      jump\t// in\n    tag_234:\n        /* \"#utility.yul\":4091:4165   */\n      swap2\n      pop\n        /* \"#utility.yul\":4174:4267   */\n      tag_235\n        /* \"#utility.yul\":4263:4266   */\n      dup3\n        /* \"#utility.yul\":4174:4267   */\n      tag_236\n      jump\t// in\n    tag_235:\n        /* \"#utility.yul\":4292:4294   */\n      0x40\n        /* \"#utility.yul\":4287:4290   */\n      dup3\n        /* \"#utility.yul\":4283:4295   */\n      add\n        /* \"#utility.yul\":4276:4295   */\n      swap1\n      pop\n        /* \"#utility.yul\":3935:4301   */\n      swap2\n      swap1\n      pop\n      jump\t// out\n        /* \"#utility.yul\":4307:4673   */\n    tag_237:\n        /* \"#utility.yul\":4449:4452   */\n      0x00\n        /* \"#utility.yul\":4470:4537   */\n      tag_239\n        /* \"#utility.yul\":4534:4536   */\n      0x20\n        /* \"#utility.yul\":4529:4532   */\n      dup4\n        /* \"#utility.yul\":4470:4537   */\n      tag_229\n      jump\t// in\n    tag_239:\n        /* \"#utility.yul\":4463:4537   */\n      swap2\n      pop\n        /* \"#utility.yul\":4546:4639   */\n      tag_240\n        /* \"#utility.yul\":4635:4638   */\n      dup3\n        /* \"#utility.yul\":4546:4639   */\n      tag_241\n      jump\t// in\n    tag_240:\n        /* \"#utility.yul\":4664:4666   */\n      0x20\n        /* \"#utility.yul\":4659:4662   */\n      dup3\n        /* \"#utility.yul\":4655:4667   */\n      add\n        /* \"#utility.yul\":4648:4667   */\n      swap1\n      pop\n        /* \"#utility.yul\":4307:4673   */\n      swap2\n      swap1\n      pop\n      jump\t// out\n        /* \"#utility.yul\":4679:5045   */\n    tag_242:\n        /* \"#utility.yul\":4821:4824   */\n      0x00\n        /* \"#utility.yul\":4842:4909   */\n      tag_244\n        /* \"#utility.yul\":4906:4908   */\n      0x10\n        /* \"#utility.yul\":4901:4904   */\n      dup4\n        /* \"#utility.yul\":4842:4909   */\n      tag_229\n      jump\t// in\n    tag_244:\n        /* \"#utility.yul\":4835:4909   */\n      swap2\n      pop\n        /* \"#utility.yul\":4918:5011   */\n      tag_245\n        /* \"#utility.yul\":5007:5010   */\n      dup3\n        /* \"#utility.yul\":4918:5011   */\n      tag_246\n      jump\t// in\n    tag_245:\n        /* \"#utility.yul\":5036:5038   */\n      0x20\n        /* \"#utility.yul\":5031:5034   */\n      dup3\n        /* \"#utility.yul\":5027:5039   */\n      add\n        /* \"#utility.yul\":5020:5039   */\n      swap1\n      pop\n        /* \"#utility.yul\":4679:5045   */\n      swap2\n      swap1\n      pop\n      jump\t// out\n        /* \"#utility.yul\":5051:5417   */\n    tag_247:\n        /* \"#utility.yul\":5193:5196   */\n      0x00\n        /* \"#utility.yul\":5214:5281   */\n      tag_249\n        /* \"#utility.yul\":5278:5280   */\n      0x15\n        /* \"#utility.yul\":5273:5276   */\n      dup4\n        /* \"#utility.yul\":5214:5281   */\n      tag_229\n      jump\t// in\n    tag_249:\n        /* \"#utility.yul\":5207:5281   */\n      swap2\n      pop\n        /* \"#utility.yul\":5290:5383   */\n      tag_250\n        /* \"#utility.yul\":5379:5382   */\n      dup3\n        /* \"#utility.yul\":5290:5383   */\n      tag_251\n      jump\t// in\n    tag_250:\n        /* \"#utility.yul\":5408:5410   */\n      0x20\n        /* \"#utility.yul\":5403:5406   */\n      dup3\n        /* \"#utility.yul\":5399:5411   */\n      add\n        /* \"#utility.yul\":5392:5411   */\n      swap1\n      pop\n        /* \"#utility.yul\":5051:5417   */\n      swap2\n      swap1\n      pop\n      jump\t// out\n        /* \"#utility.yul\":5423:5541   */\n    tag_252:\n        /* \"#utility.yul\":5510:5534   */\n      tag_254\n        /* \"#utility.yul\":5528:5533   */\n      dup2\n        /* \"#utility.yul\":5510:5534   */\n      tag_255\n      jump\t// in\n    tag_254:\n        /* \"#utility.yul\":5505:5508   */\n      dup3\n        /* \"#utility.yul\":5498:5535   */\n      mstore\n        /* \"#utility.yul\":5423:5541   */\n      pop\n      pop\n      jump\t// out\n        /* \"#utility.yul\":5547:5649   */\n    tag_203:\n        /* \"#utility.yul\":5620:5642   */\n      tag_257\n        /* \"#utility.yul\":5636:5641   */\n      dup2\n        /* \"#utility.yul\":5620:5642   */\n      tag_258\n      jump\t// in\n    tag_257:\n        /* \"#utility.yul\":5615:5618   */\n      dup3\n        /* \"#utility.yul\":5608:5643   */\n      mstore\n        /* \"#utility.yul\":5547:5649   */\n      pop\n      pop\n      jump\t// out\n        /* \"#utility.yul\":5655:5767   */\n    tag_259:\n        /* \"#utility.yul\":5738:5760   */\n      tag_261\n        /* \"#utility.yul\":5754:5759   */\n      dup2\n        /* \"#utility.yul\":5738:5760   */\n      tag_258\n      jump\t// in\n    tag_261:\n        /* \"#utility.yul\":5733:5736   */\n      dup3\n        /* \"#utility.yul\":5726:5761   */\n      mstore\n        /* \"#utility.yul\":5655:5767   */\n      pop\n      pop\n      jump\t// out\n        /* \"#utility.yul\":5773:5995   */\n    tag_35:\n        /* \"#utility.yul\":5866:5870   */\n      0x00\n        /* \"#utility.yul\":5904:5906   */\n      0x20\n        /* \"#utility.yul\":5893:5902   */\n      dup3\n        /* \"#utility.yul\":5889:5907   */\n      add\n        /* \"#utility.yul\":5881:5907   */\n      swap1\n      pop\n        /* \"#utility.yul\":5917:5988   */\n      tag_263\n        /* \"#utility.yul\":5985:5986   */\n      0x00\n        /* \"#utility.yul\":5974:5983   */\n      dup4\n        /* \"#utility.yul\":5970:5987   */\n      add\n        /* \"#utility.yul\":5961:5967   */\n      dup5\n        /* \"#utility.yul\":5917:5988   */\n      tag_204\n      jump\t// in\n    tag_263:\n        /* \"#utility.yul\":5773:5995   */\n      swap3\n      swap2\n      pop\n      pop\n      jump\t// out\n        /* \"#utility.yul\":6001:6333   */\n    tag_141:\n        /* \"#utility.yul\":6122:6126   */\n      0x00\n        /* \"#utility.yul\":6160:6162   */\n      0x40\n        /* \"#utility.yul\":6149:6158   */\n      dup3\n        /* \"#utility.yul\":6145:6163   */\n      add\n        /* \"#utility.yul\":6137:6163   */\n      swap1\n      pop\n        /* \"#utility.yul\":6173:6244   */\n      tag_265\n        /* \"#utility.yul\":6241:6242   */\n      0x00\n        /* \"#utility.yul\":6230:6239   */\n      dup4\n        /* \"#utility.yul\":6226:6243   */\n      add\n        /* \"#utility.yul\":6217:6223   */\n      dup6\n        /* \"#utility.yul\":6173:6244   */\n      tag_204\n      jump\t// in\n    tag_265:\n        /* \"#utility.yul\":6254:6326   */\n      tag_266\n        /* \"#utility.yul\":6322:6324   */\n      0x20\n        /* \"#utility.yul\":6311:6320   */\n      dup4\n        /* \"#utility.yul\":6307:6325   */\n      add\n        /* \"#utility.yul\":6298:6304   */\n      dup5\n        /* \"#utility.yul\":6254:6326   */\n      tag_204\n      jump\t// in\n    tag_266:\n        /* \"#utility.yul\":6001:6333   */\n      swap4\n      swap3\n      pop\n      pop\n      pop\n      jump\t// out\n        /* \"#utility.yul\":6339:6659   */\n    tag_39:\n        /* \"#utility.yul\":6454:6458   */\n      0x00\n        /* \"#utility.yul\":6492:6494   */\n      0x40\n        /* \"#utility.yul\":6481:6490   */\n      dup3\n        /* \"#utility.yul\":6477:6495   */\n      add\n        /* \"#utility.yul\":6469:6495   */\n      swap1\n      pop\n        /* \"#utility.yul\":6505:6576   */\n      tag_268\n        /* \"#utility.yul\":6573:6574   */\n      0x00\n        /* \"#utility.yul\":6562:6571   */\n      dup4\n        /* \"#utility.yul\":6558:6575   */\n      add\n        /* \"#utility.yul\":6549:6555   */\n      dup6\n        /* \"#utility.yul\":6505:6576   */\n      tag_204\n      jump\t// in\n    tag_268:\n        /* \"#utility.yul\":6586:6652   */\n      tag_269\n        /* \"#utility.yul\":6648:6650   */\n      0x20\n        /* \"#utility.yul\":6637:6646   */\n      dup4\n        /* \"#utility.yul\":6633:6651   */\n      add\n        /* \"#utility.yul\":6624:6630   */\n      dup5\n        /* \"#utility.yul\":6586:6652   */\n      tag_222\n      jump\t// in\n    tag_269:\n        /* \"#utility.yul\":6339:6659   */\n      swap4\n      swap3\n      pop\n      pop\n      pop\n      jump\t// out\n        /* \"#utility.yul\":6665:6997   */\n    tag_93:\n        /* \"#utility.yul\":6786:6790   */\n      0x00\n        /* \"#utility.yul\":6824:6826   */\n      0x40\n        /* \"#utility.yul\":6813:6822   */\n      dup3\n        /* \"#utility.yul\":6809:6827   */\n      add\n        /* \"#utility.yul\":6801:6827   */\n      swap1\n      pop\n        /* \"#utility.yul\":6837:6908   */\n      tag_271\n        /* \"#utility.yul\":6905:6906   */\n      0x00\n        /* \"#utility.yul\":6894:6903   */\n      dup4\n        /* \"#utility.yul\":6890:6907   */\n      add\n        /* \"#utility.yul\":6881:6887   */\n      dup6\n        /* \"#utility.yul\":6837:6908   */\n      tag_204\n      jump\t// in\n    tag_271:\n        /* \"#utility.yul\":6918:6990   */\n      tag_272\n        /* \"#utility.yul\":6986:6988   */\n      0x20\n        /* \"#utility.yul\":6975:6984   */\n      dup4\n        /* \"#utility.yul\":6971:6989   */\n      add\n        /* \"#utility.yul\":6962:6968   */\n      dup5\n        /* \"#utility.yul\":6918:6990   */\n      tag_252\n      jump\t// in\n    tag_272:\n        /* \"#utility.yul\":6665:6997   */\n      swap4\n      swap3\n      pop\n      pop\n      pop\n      jump\t// out\n        /* \"#utility.yul\":7003:7368   */\n    tag_71:\n        /* \"#utility.yul\":7142:7146   */\n      0x00\n        /* \"#utility.yul\":7180:7182   */\n      0x20\n        /* \"#utility.yul\":7169:7178   */\n      dup3\n        /* \"#utility.yul\":7165:7183   */\n      add\n        /* \"#utility.yul\":7157:7183   */\n      swap1\n      pop\n        /* \"#utility.yul\":7229:7238   */\n      dup2\n        /* \"#utility.yul\":7223:7227   */\n      dup2\n        /* \"#utility.yul\":7219:7239   */\n      sub\n        /* \"#utility.yul\":7215:7216   */\n      0x00\n        /* \"#utility.yul\":7204:7213   */\n      dup4\n        /* \"#utility.yul\":7200:7217   */\n      add\n        /* \"#utility.yul\":7193:7240   */\n      mstore\n        /* \"#utility.yul\":7257:7361   */\n      tag_274\n        /* \"#utility.yul\":7356:7360   */\n      dup2\n        /* \"#utility.yul\":7347:7353   */\n      dup5\n        /* \"#utility.yul\":7257:7361   */\n      tag_208\n      jump\t// in\n    tag_274:\n        /* \"#utility.yul\":7249:7361   */\n      swap1\n      pop\n        /* \"#utility.yul\":7003:7368   */\n      swap3\n      swap2\n      pop\n      pop\n      jump\t// out\n        /* \"#utility.yul\":7374:7584   */\n    tag_77:\n        /* \"#utility.yul\":7461:7465   */\n      0x00\n        /* \"#utility.yul\":7499:7501   */\n      0x20\n        /* \"#utility.yul\":7488:7497   */\n      dup3\n        /* \"#utility.yul\":7484:7502   */\n      add\n        /* \"#utility.yul\":7476:7502   */\n      swap1\n      pop\n        /* \"#utility.yul\":7512:7577   */\n      tag_276\n        /* \"#utility.yul\":7574:7575   */\n      0x00\n        /* \"#utility.yul\":7563:7572   */\n      dup4\n        /* \"#utility.yul\":7559:7576   */\n      add\n        /* \"#utility.yul\":7550:7556   */\n      dup5\n        /* \"#utility.yul\":7512:7577   */\n      tag_222\n      jump\t// in\n    tag_276:\n        /* \"#utility.yul\":7374:7584   */\n      swap3\n      swap2\n      pop\n      pop\n      jump\t// out\n        /* \"#utility.yul\":7590:8009   */\n    tag_111:\n        /* \"#utility.yul\":7756:7760   */\n      0x00\n        /* \"#utility.yul\":7794:7796   */\n      0x20\n        /* \"#utility.yul\":7783:7792   */\n      dup3\n        /* \"#utility.yul\":7779:7797   */\n      add\n        /* \"#utility.yul\":7771:7797   */\n      swap1\n      pop\n        /* \"#utility.yul\":7843:7852   */\n      dup2\n        /* \"#utility.yul\":7837:7841   */\n      dup2\n        /* \"#utility.yul\":7833:7853   */\n      sub\n        /* \"#utility.yul\":7829:7830   */\n      0x00\n        /* \"#utility.yul\":7818:7827   */\n      dup4\n        /* \"#utility.yul\":7814:7831   */\n      add\n        /* \"#utility.yul\":7807:7854   */\n      mstore\n        /* \"#utility.yul\":7871:8002   */\n      tag_278\n        /* \"#utility.yul\":7997:8001   */\n      dup2\n        /* \"#utility.yul\":7871:8002   */\n      tag_226\n      jump\t// in\n    tag_278:\n        /* \"#utility.yul\":7863:8002   */\n      swap1\n      pop\n        /* \"#utility.yul\":7590:8009   */\n      swap2\n      swap1\n      pop\n      jump\t// out\n        /* \"#utility.yul\":8015:8434   */\n    tag_147:\n        /* \"#utility.yul\":8181:8185   */\n      0x00\n        /* \"#utility.yul\":8219:8221   */\n      0x20\n        /* \"#utility.yul\":8208:8217   */\n      dup3\n        /* \"#utility.yul\":8204:8222   */\n      add\n        /* \"#utility.yul\":8196:8222   */\n      swap1\n      pop\n        /* \"#utility.yul\":8268:8277   */\n      dup2\n        /* \"#utility.yul\":8262:8266   */\n      dup2\n        /* \"#utility.yul\":8258:8278   */\n      sub\n        /* \"#utility.yul\":8254:8255   */\n      0x00\n        /* \"#utility.yul\":8243:8252   */\n      dup4\n        /* \"#utility.yul\":8239:8256   */\n      add\n        /* \"#utility.yul\":8232:8279   */\n      mstore\n        /* \"#utility.yul\":8296:8427   */\n      tag_280\n        /* \"#utility.yul\":8422:8426   */\n      dup2\n        /* \"#utility.yul\":8296:8427   */\n      tag_232\n      jump\t// in\n    tag_280:\n        /* \"#utility.yul\":8288:8427   */\n      swap1\n      pop\n        /* \"#utility.yul\":8015:8434   */\n      swap2\n      swap1\n      pop\n      jump\t// out\n        /* \"#utility.yul\":8440:8859   */\n    tag_161:\n        /* \"#utility.yul\":8606:8610   */\n      0x00\n        /* \"#utility.yul\":8644:8646   */\n      0x20\n        /* \"#utility.yul\":8633:8642   */\n      dup3\n        /* \"#utility.yul\":8629:8647   */\n      add\n        /* \"#utility.yul\":8621:8647   */\n      swap1\n      pop\n        /* \"#utility.yul\":8693:8702   */\n      dup2\n        /* \"#utility.yul\":8687:8691   */\n      dup2\n        /* \"#utility.yul\":8683:8703   */\n      sub\n        /* \"#utility.yul\":8679:8680   */\n      0x00\n        /* \"#utility.yul\":8668:8677   */\n      dup4\n        /* \"#utility.yul\":8664:8681   */\n      add\n        /* \"#utility.yul\":8657:8704   */\n      mstore\n        /* \"#utility.yul\":8721:8852   */\n      tag_282\n        /* \"#utility.yul\":8847:8851   */\n      dup2\n        /* \"#utility.yul\":8721:8852   */\n      tag_237\n      jump\t// in\n    tag_282:\n        /* \"#utility.yul\":8713:8852   */\n      swap1\n      pop\n        /* \"#utility.yul\":8440:8859   */\n      swap2\n      swap1\n      pop\n      jump\t// out\n        /* \"#utility.yul\":8865:9284   */\n    tag_121:\n        /* \"#utility.yul\":9031:9035   */\n      0x00\n        /* \"#utility.yul\":9069:9071   */\n      0x20\n        /* \"#utility.yul\":9058:9067   */\n      dup3\n        /* \"#utility.yul\":9054:9072   */\n      add\n        /* \"#utility.yul\":9046:9072   */\n      swap1\n      pop\n        /* \"#utility.yul\":9118:9127   */\n      dup2\n        /* \"#utility.yul\":9112:9116   */\n      dup2\n        /* \"#utility.yul\":9108:9128   */\n      sub\n        /* \"#utility.yul\":9104:9105   */\n      0x00\n        /* \"#utility.yul\":9093:9102   */\n      dup4\n        /* \"#utility.yul\":9089:9106   */\n      add\n        /* \"#utility.yul\":9082:9129   */\n      mstore\n        /* \"#utility.yul\":9146:9277   */\n      tag_284\n        /* \"#utility.yul\":9272:9276   */\n      dup2\n        /* \"#utility.yul\":9146:9277   */\n      tag_242\n      jump\t// in\n    tag_284:\n        /* \"#utility.yul\":9138:9277   */\n      swap1\n      pop\n        /* \"#utility.yul\":8865:9284   */\n      swap2\n      swap1\n      pop\n      jump\t// out\n        /* \"#utility.yul\":9290:9709   */\n    tag_116:\n        /* \"#utility.yul\":9456:9460   */\n      0x00\n        /* \"#utility.yul\":9494:9496   */\n      0x20\n        /* \"#utility.yul\":9483:9492   */\n      dup3\n        /* \"#utility.yul\":9479:9497   */\n      add\n        /* \"#utility.yul\":9471:9497   */\n      swap1\n      pop\n        /* \"#utility.yul\":9543:9552   */\n      dup2\n        /* \"#utility.yul\":9537:9541   */\n      dup2\n        /* \"#utility.yul\":9533:9553   */\n      sub\n        /* \"#utility.yul\":9529:9530   */\n      0x00\n        /* \"#utility.yul\":9518:9527   */\n      dup4\n        /* \"#utility.yul\":9514:9531   */\n      add\n        /* \"#utility.yul\":9507:9554   */\n      mstore\n        /* \"#utility.yul\":9571:9702   */\n      tag_286\n        /* \"#utility.yul\":9697:9701   */\n      dup2\n        /* \"#utility.yul\":9571:9702   */\n      tag_247\n      jump\t// in\n    tag_286:\n        /* \"#utility.yul\":9563:9702   */\n      swap1\n      pop\n        /* \"#utility.yul\":9290:9709   */\n      swap2\n      swap1\n      pop\n      jump\t// out\n        /* \"#utility.yul\":9715:9937   */\n    tag_31:\n        /* \"#utility.yul\":9808:9812   */\n      0x00\n        /* \"#utility.yul\":9846:9848   */\n      0x20\n        /* \"#utility.yul\":9835:9844   */\n      dup3\n        /* \"#utility.yul\":9831:9849   */\n      add\n        /* \"#utility.yul\":9823:9849   */\n      swap1\n      pop\n        /* \"#utility.yul\":9859:9930   */\n      tag_288\n        /* \"#utility.yul\":9927:9928   */\n      0x00\n        /* \"#utility.yul\":9916:9925   */\n      dup4\n        /* \"#utility.yul\":9912:9929   */\n      add\n        /* \"#utility.yul\":9903:9909   */\n      dup5\n        /* \"#utility.yul\":9859:9930   */\n      tag_252\n      jump\t// in\n    tag_288:\n        /* \"#utility.yul\":9715:9937   */\n      swap3\n      swap2\n      pop\n      pop\n      jump\t// out\n        /* \"#utility.yul\":9943:10157   */\n    tag_49:\n        /* \"#utility.yul\":10032:10036   */\n      0x00\n        /* \"#utility.yul\":10070:10072   */\n      0x20\n        /* \"#utility.yul\":10059:10068   */\n      dup3\n        /* \"#utility.yul\":10055:10073   */\n      add\n        /* \"#utility.yul\":10047:10073   */\n      swap1\n      pop\n        /* \"#utility.yul\":10083:10150   */\n      tag_290\n        /* \"#utility.yul\":10147:10148   */\n      0x00\n        /* \"#utility.yul\":10136:10145   */\n      dup4\n        /* \"#utility.yul\":10132:10149   */\n      add\n        /* \"#utility.yul\":10123:10129   */\n      dup5\n        /* \"#utility.yul\":10083:10150   */\n      tag_259\n      jump\t// in\n    tag_290:\n        /* \"#utility.yul\":9943:10157   */\n      swap3\n      swap2\n      pop\n      pop\n      jump\t// out\n        /* \"#utility.yul\":10244:10374   */\n    tag_215:\n        /* \"#utility.yul\":10309:10313   */\n      0x00\n        /* \"#utility.yul\":10332:10335   */\n      dup2\n        /* \"#utility.yul\":10324:10335   */\n      swap1\n      pop\n        /* \"#utility.yul\":10362:10366   */\n      0x20\n        /* \"#utility.yul\":10357:10360   */\n      dup3\n        /* \"#utility.yul\":10353:10367   */\n      add\n        /* \"#utility.yul\":10345:10367   */\n      swap1\n      pop\n        /* \"#utility.yul\":10244:10374   */\n      swap2\n      swap1\n      pop\n      jump\t// out\n        /* \"#utility.yul\":10380:10492   */\n    tag_211:\n        /* \"#utility.yul\":10445:10451   */\n      0x00\n        /* \"#utility.yul\":10479:10484   */\n      dup2\n        /* \"#utility.yul\":10473:10485   */\n      mload\n        /* \"#utility.yul\":10463:10485   */\n      swap1\n      pop\n        /* \"#utility.yul\":10380:10492   */\n      swap2\n      swap1\n      pop\n      jump\t// out\n        /* \"#utility.yul\":10498:10609   */\n    tag_221:\n        /* \"#utility.yul\":10566:10570   */\n      0x00\n        /* \"#utility.yul\":10598:10602   */\n      0x20\n        /* \"#utility.yul\":10593:10596   */\n      dup3\n        /* \"#utility.yul\":10589:10603   */\n      add\n        /* \"#utility.yul\":10581:10603   */\n      swap1\n      pop\n        /* \"#utility.yul\":10498:10609   */\n      swap2\n      swap1\n      pop\n      jump\t// out\n        /* \"#utility.yul\":10615:10797   */\n    tag_213:\n        /* \"#utility.yul\":10712:10723   */\n      0x00\n        /* \"#utility.yul\":10746:10752   */\n      dup3\n        /* \"#utility.yul\":10741:10744   */\n      dup3\n        /* \"#utility.yul\":10734:10753   */\n      mstore\n        /* \"#utility.yul\":10786:10790   */\n      0x20\n        /* \"#utility.yul\":10781:10784   */\n      dup3\n        /* \"#utility.yul\":10777:10791   */\n      add\n        /* \"#utility.yul\":10762:10791   */\n      swap1\n      pop\n        /* \"#utility.yul\":10615:10797   */\n      swap3\n      swap2\n      pop\n      pop\n      jump\t// out\n        /* \"#utility.yul\":10803:10972   */\n    tag_229:\n        /* \"#utility.yul\":10887:10898   */\n      0x00\n        /* \"#utility.yul\":10921:10927   */\n      dup3\n        /* \"#utility.yul\":10916:10919   */\n      dup3\n        /* \"#utility.yul\":10909:10928   */\n      mstore\n        /* \"#utility.yul\":10961:10965   */\n      0x20\n        /* \"#utility.yul\":10956:10959   */\n      dup3\n        /* \"#utility.yul\":10952:10966   */\n      add\n        /* \"#utility.yul\":10937:10966   */\n      swap1\n      pop\n        /* \"#utility.yul\":10803:10972   */\n      swap3\n      swap2\n      pop\n      pop\n      jump\t// out\n        /* \"#utility.yul\":10978:11074   */\n    tag_207:\n        /* \"#utility.yul\":11015:11022   */\n      0x00\n        /* \"#utility.yul\":11044:11068   */\n      tag_299\n        /* \"#utility.yul\":11062:11067   */\n      dup3\n        /* \"#utility.yul\":11044:11068   */\n      tag_300\n      jump\t// in\n    tag_299:\n        /* \"#utility.yul\":11033:11068   */\n      swap1\n      pop\n        /* \"#utility.yul\":10978:11074   */\n      swap2\n      swap1\n      pop\n      jump\t// out\n        /* \"#utility.yul\":11080:11170   */\n    tag_225:\n        /* \"#utility.yul\":11114:11121   */\n      0x00\n        /* \"#utility.yul\":11157:11162   */\n      dup2\n        /* \"#utility.yul\":11150:11163   */\n      iszero\n        /* \"#utility.yul\":11143:11164   */\n      iszero\n        /* \"#utility.yul\":11132:11164   */\n      swap1\n      pop\n        /* \"#utility.yul\":11080:11170   */\n      swap2\n      swap1\n      pop\n      jump\t// out\n        /* \"#utility.yul\":11176:11302   */\n    tag_300:\n        /* \"#utility.yul\":11213:11220   */\n      0x00\n        /* \"#utility.yul\":11253:11295   */\n      0xffffffffffffffffffffffffffffffffffffffff\n        /* \"#utility.yul\":11246:11251   */\n      dup3\n        /* \"#utility.yul\":11242:11296   */\n      and\n        /* \"#utility.yul\":11231:11296   */\n      swap1\n      pop\n        /* \"#utility.yul\":11176:11302   */\n      swap2\n      swap1\n      pop\n      jump\t// out\n        /* \"#utility.yul\":11308:11385   */\n    tag_255:\n        /* \"#utility.yul\":11345:11352   */\n      0x00\n        /* \"#utility.yul\":11374:11379   */\n      dup2\n        /* \"#utility.yul\":11363:11379   */\n      swap1\n      pop\n        /* \"#utility.yul\":11308:11385   */\n      swap2\n      swap1\n      pop\n      jump\t// out\n        /* \"#utility.yul\":11391:11477   */\n    tag_258:\n        /* \"#utility.yul\":11426:11433   */\n      0x00\n        /* \"#utility.yul\":11466:11470   */\n      0xff\n        /* \"#utility.yul\":11459:11464   */\n      dup3\n        /* \"#utility.yul\":11455:11471   */\n      and\n        /* \"#utility.yul\":11444:11471   */\n      swap1\n      pop\n        /* \"#utility.yul\":11391:11477   */\n      swap2\n      swap1\n      pop\n      jump\t// out\n        /* \"#utility.yul\":11483:11716   */\n    tag_154:\n        /* \"#utility.yul\":11522:11525   */\n      0x00\n        /* \"#utility.yul\":11545:11569   */\n      tag_306\n        /* \"#utility.yul\":11563:11568   */\n      dup3\n        /* \"#utility.yul\":11545:11569   */\n      tag_255\n      jump\t// in\n    tag_306:\n        /* \"#utility.yul\":11536:11569   */\n      swap2\n      pop\n        /* \"#utility.yul\":11591:11657   */\n      0xffffffffffffffffffffffffffffffffffffffffffffffffffffffffffffffff\n        /* \"#utility.yul\":11584:11589   */\n      dup3\n        /* \"#utility.yul\":11581:11658   */\n      eq\n        /* \"#utility.yul\":11578:11681   */\n      iszero\n      tag_307\n      jumpi\n        /* \"#utility.yul\":11661:11679   */\n      tag_308\n      tag_309\n      jump\t// in\n    tag_308:\n        /* \"#utility.yul\":11578:11681   */\n    tag_307:\n        /* \"#utility.yul\":11708:11709   */\n      0x01\n        /* \"#utility.yul\":11701:11706   */\n      dup3\n        /* \"#utility.yul\":11697:11710   */\n      add\n        /* \"#utility.yul\":11690:11710   */\n      swap1\n      pop\n        /* \"#utility.yul\":11483:11716   */\n      swap2\n      swap1\n      pop\n      jump\t// out\n        /* \"#utility.yul\":11722:11902   */\n    tag_309:\n        /* \"#utility.yul\":11770:11847   */\n      0x4e487b7100000000000000000000000000000000000000000000000000000000\n        /* \"#utility.yul\":11767:11768   */\n      0x00\n        /* \"#utility.yul\":11760:11848   */\n      mstore\n        /* \"#utility.yul\":11867:11871   */\n      0x11\n        /* \"#utility.yul\":11864:11865   */\n      0x04\n        /* \"#utility.yul\":11857:11872   */\n      mstore\n        /* \"#utility.yul\":11891:11895   */\n      0x24\n        /* \"#utility.yul\":11888:11889   */\n      0x00\n        /* \"#utility.yul\":11881:11896   */\n      revert\n        /* \"#utility.yul\":12031:12148   */\n    tag_180:\n        /* \"#utility.yul\":12140:12141   */\n      0x00\n        /* \"#utility.yul\":12137:12138   */\n      dup1\n        /* \"#utility.yul\":12130:12142   */\n      revert\n        /* \"#utility.yul\":12154:12316   */\n    tag_231:\n        /* \"#utility.yul\":12294:12308   */\n      0x67616d65206973206f7665720000000000000000000000000000000000000000\n        /* \"#utility.yul\":12290:12291   */\n      0x00\n        /* \"#utility.yul\":12282:12288   */\n      dup3\n        /* \"#utility.yul\":12278:12292   */\n      add\n        /* \"#utility.yul\":12271:12309   */\n      mstore\n        /* \"#utility.yul\":12154:12316   */\n      pop\n      jump\t// out\n        /* \"#utility.yul\":12322:12547   */\n    tag_236:\n        /* \"#utility.yul\":12462:12496   */\n      0x4f776e61626c653a206e6577206f776e657220697320746865207a65726f2061\n        /* \"#utility.yul\":12458:12459   */\n      0x00\n        /* \"#utility.yul\":12450:12456   */\n      dup3\n        /* \"#utility.yul\":12446:12460   */\n      add\n        /* \"#utility.yul\":12439:12497   */\n      mstore\n        /* \"#utility.yul\":12531:12539   */\n      0x6464726573730000000000000000000000000000000000000000000000000000\n        /* \"#utility.yul\":12526:12528   */\n      0x20\n        /* \"#utility.yul\":12518:12524   */\n      dup3\n        /* \"#utility.yul\":12514:12529   */\n      add\n        /* \"#utility.yul\":12507:12540   */\n      mstore\n        /* \"#utility.yul\":12322:12547   */\n      pop\n      jump\t// out\n        /* \"#utility.yul\":12553:12735   */\n    tag_241:\n        /* \"#utility.yul\":12693:12727   */\n      0x4f776e61626c653a2063616c6c6572206973206e6f7420746865206f776e6572\n        /* \"#utility.yul\":12689:12690   */\n      0x00\n        /* \"#utility.yul\":12681:12687   */\n      dup3\n        /* \"#utility.yul\":12677:12691   */\n      add\n        /* \"#utility.yul\":12670:12728   */\n      mstore\n        /* \"#utility.yul\":12553:12735   */\n      pop\n      jump\t// out\n        /* \"#utility.yul\":12741:12907   */\n    tag_246:\n        /* \"#utility.yul\":12881:12899   */\n      0x416c72656164792061737369676e656400000000000000000000000000000000\n        /* \"#utility.yul\":12877:12878   */\n      0x00\n        /* \"#utility.yul\":12869:12875   */\n      dup3\n        /* \"#utility.yul\":12865:12879   */\n      add\n        /* \"#utility.yul\":12858:12900   */\n      mstore\n        /* \"#utility.yul\":12741:12907   */\n      pop\n      jump\t// out\n        /* \"#utility.yul\":12913:13084   */\n    tag_251:\n        /* \"#utility.yul\":13053:13076   */\n      0x596f752063616e2774206d616b652061206d6f76650000000000000000000000\n        /* \"#utility.yul\":13049:13050   */\n      0x00\n        /* \"#utility.yul\":13041:13047   */\n      dup3\n        /* \"#utility.yul\":13037:13051   */\n      add\n        /* \"#utility.yul\":13030:13077   */\n      mstore\n        /* \"#utility.yul\":12913:13084   */\n      pop\n      jump\t// out\n        /* \"#utility.yul\":13090:13212   */\n    tag_168:\n        /* \"#utility.yul\":13163:13187   */\n      tag_320\n        /* \"#utility.yul\":13181:13186   */\n      dup2\n        /* \"#utility.yul\":13163:13187   */\n      tag_207\n      jump\t// in\n    tag_320:\n        /* \"#utility.yul\":13156:13161   */\n      dup2\n        /* \"#utility.yul\":13153:13188   */\n      eq\n        /* \"#utility.yul\":13143:13206   */\n      tag_321\n      jumpi\n        /* \"#utility.yul\":13202:13203   */\n      0x00\n        /* \"#utility.yul\":13199:13200   */\n      dup1\n        /* \"#utility.yul\":13192:13204   */\n      revert\n        /* \"#utility.yul\":13143:13206   */\n    tag_321:\n        /* \"#utility.yul\":13090:13212   */\n      pop\n      jump\t// out\n        /* \"#utility.yul\":13218:13340   */\n    tag_172:\n        /* \"#utility.yul\":13291:13315   */\n      tag_323\n        /* \"#utility.yul\":13309:13314   */\n      dup2\n        /* \"#utility.yul\":13291:13315   */\n      tag_255\n      jump\t// in\n    tag_323:\n        /* \"#utility.yul\":13284:13289   */\n      dup2\n        /* \"#utility.yul\":13281:13316   */\n      eq\n        /* \"#utility.yul\":13271:13334   */\n      tag_324\n      jumpi\n        /* \"#utility.yul\":13330:13331   */\n      0x00\n        /* \"#utility.yul\":13327:13328   */\n      dup1\n        /* \"#utility.yul\":13320:13332   */\n      revert\n        /* \"#utility.yul\":13271:13334   */\n    tag_324:\n        /* \"#utility.yul\":13218:13340   */\n      pop\n      jump\t// out\n        /* \"#utility.yul\":13346:13464   */\n    tag_176:\n        /* \"#utility.yul\":13417:13439   */\n      tag_326\n        /* \"#utility.yul\":13433:13438   */\n      dup2\n        /* \"#utility.yul\":13417:13439   */\n      tag_258\n      jump\t// in\n    tag_326:\n        /* \"#utility.yul\":13410:13415   */\n      dup2\n        /* \"#utility.yul\":13407:13440   */\n      eq\n        /* \"#utility.yul\":13397:13458   */\n      tag_327\n      jumpi\n        /* \"#utility.yul\":13454:13455   */\n      0x00\n        /* \"#utility.yul\":13451:13452   */\n      dup1\n        /* \"#utility.yul\":13444:13456   */\n      revert\n        /* \"#utility.yul\":13397:13458   */\n    tag_327:\n        /* \"#utility.yul\":13346:13464   */\n      pop\n      jump\t// out\n\n    auxdata: 0xa2646970667358221220bdfc7404b18758f6a275f93eb3304c4e252910b82655ebde4de889e11c1f668664736f6c63430008070033\n}\n",
				"bytecode": {
					"linkReferences": {},
					"object": "60806040526040518061010001604052806040518060600160405280600160ff168152602001600260ff168152602001600360ff1681525081526020016040518060600160405280600460ff168152602001600560ff168152602001600660ff1681525081526020016040518060600160405280600760ff168152602001600860ff168152602001600960ff1681525081526020016040518060600160405280600160ff168152602001600460ff168152602001600760ff1681525081526020016040518060600160405280600260ff168152602001600560ff168152602001600860ff1681525081526020016040518060600160405280600360ff168152602001600660ff168152602001600960ff1681525081526020016040518060600160405280600160ff168152602001600560ff168152602001600960ff1681525081526020016040518060600160405280600360ff168152602001600560ff168152602001600760ff16815250815250600a9060086200018092919062000289565b503480156200018e57600080fd5b50620001af620001a3620001bd60201b60201c565b620001c560201b60201c565b601e600781905550620003cd565b600033905090565b60008060009054906101000a900473ffffffffffffffffffffffffffffffffffffffff169050816000806101000a81548173ffffffffffffffffffffffffffffffffffffffff021916908373ffffffffffffffffffffffffffffffffffffffff1602179055508173ffffffffffffffffffffffffffffffffffffffff168173ffffffffffffffffffffffffffffffffffffffff167f8be0079c531659141344cd1fd0a4f28419497f9722a3daafe3b4186f6b6457e060405160405180910390a35050565b8260088101928215620002cb579160200282015b82811115620002ca57825182906003620002b9929190620002de565b50916020019190600101906200029d565b5b509050620002da91906200037f565b5090565b826003601f016020900481019282156200036c5791602002820160005b838211156200033b57835183826101000a81548160ff021916908360ff1602179055509260200192600101602081600001049283019260010302620002fb565b80156200036a5782816101000a81549060ff02191690556001016020816000010492830192600103026200033b565b505b5090506200037b9190620003a7565b5090565b5b80821115620003a35760008181620003999190620003c6565b5060010162000380565b5090565b5b80821115620003c2576000816000905550600101620003a8565b5090565b5060009055565b6113ad80620003dd6000396000f3fe608060405234801561001057600080fd5b50600436106101425760003560e01c8063715018a6116100b8578063bdb337d11161007c578063bdb337d114610349578063c3fe3e2814610367578063c533913214610386578063dfbf53ae146103a4578063eb23b56b146103c2578063f2fde38b146103de57610142565b8063715018a6146102c757806388c9cb3c146102d15780638da5cb5b146102ef578063a285c54a1461030d578063bc1208791461032b57610142565b806337f612a31161010a57806337f612a3146101ee57806348db5f891461021e578063554693b11461023d5780635d2483011461025b5780635e3568b81461028b578063620633cb146102a957610142565b8063041a84861461014757806311bb1537146101655780631a8a8dd8146101835780631ea169e5146101a257806322f976ff146101be575b600080fd5b61014f6103fa565b60405161015c91906110ed565b60405180910390f35b61016d610400565b60405161017a9190610f7a565b60405180910390f35b61018b610426565b604051610199929190610fbe565b60405180910390f35b6101bc60048036038101906101b79190610ddd565b610465565b005b6101d860048036038101906101d39190610d70565b6106ca565b6040516101e59190611108565b60405180910390f35b61020860048036038101906102039190610ddd565b61070d565b6040516102159190610f7a565b60405180910390f35b610226610740565b604051610234929190610fbe565b60405180910390f35b61024561077f565b60405161025291906110ed565b60405180910390f35b61027560048036038101906102709190610db0565b610785565b6040516102829190610f7a565b60405180910390f35b6102936107c4565b6040516102a091906110ed565b60405180910390f35b6102b16107ca565b6040516102be9190611010565b60405180910390f35b6102cf610885565b005b6102d9610899565b6040516102e69190611032565b60405180910390f35b6102f76108ac565b6040516103049190610f7a565b60405180910390f35b6103156108d5565b6040516103229190610f7a565b60405180910390f35b6103336108fb565b60405161034091906110ed565b60405180910390f35b610351610901565b60405161035e9190611032565b60405180910390f35b61036f610914565b60405161037d929190610fe7565b60405180910390f35b61038e610946565b60405161039b9190610f7a565b60405180910390f35b6103ac61096c565b6040516103b99190610f7a565b60405180910390f35b6103dc60048036038101906103d79190610d30565b610992565b005b6103f860048036038101906103f39190610d03565b610ace565b005b60085481565b600260009054906101000a900473ffffffffffffffffffffffffffffffffffffffff1681565b60158060000160009054906101000a900473ffffffffffffffffffffffffffffffffffffffff16908060000160149054906101000a900460ff16905082565b600460149054906101000a900460ff16156104b5576040517f08c379a00000000000000000000000000000000000000000000000000000000081526004016104ac9061104d565b60405180910390fd5b600160009054906101000a900473ffffffffffffffffffffffffffffffffffffffff1673ffffffffffffffffffffffffffffffffffffffff163373ffffffffffffffffffffffffffffffffffffffff16148061055e5750600260009054906101000a900473ffffffffffffffffffffffffffffffffffffffff1673ffffffffffffffffffffffffffffffffffffffff163373ffffffffffffffffffffffffffffffffffffffff16145b80156105b85750600360009054906101000a900473ffffffffffffffffffffffffffffffffffffffff1673ffffffffffffffffffffffffffffffffffffffff163373ffffffffffffffffffffffffffffffffffffffff1614155b6105f7576040517f08c379a00000000000000000000000000000000000000000000000000000000081526004016105ee906110cd565b60405180910390fd5b60008160ff1611801561060d5750600a8160ff16105b61061657600080fd5b600073ffffffffffffffffffffffffffffffffffffffff16601a60008360ff1660ff16815260200190815260200160002060009054906101000a900473ffffffffffffffffffffffffffffffffffffffff1673ffffffffffffffffffffffffffffffffffffffff16146106be576040517f08c379a00000000000000000000000000000000000000000000000000000000081526004016106b5906110ad565b60405180910390fd5b6106c6610b52565b5050565b601960205281600052604060002081815481106106e657600080fd5b9060005260206000209060209182820401919006915091509054906101000a900460ff1681565b601a6020528060005260406000206000915054906101000a900473ffffffffffffffffffffffffffffffffffffffff1681565b60138060000160009054906101000a900473ffffffffffffffffffffffffffffffffffffffff16908060000160149054906101000a900460ff16905082565b60065481565b6012818154811061079557600080fd5b906000526020600020016000915054906101000a900473ffffffffffffffffffffffffffffffffffffffff1681565b60075481565b6060601960003373ffffffffffffffffffffffffffffffffffffffff1673ffffffffffffffffffffffffffffffffffffffff16815260200190815260200160002080548060200260200160405190810160405280929190818152602001828054801561087b57602002820191906000526020600020906000905b82829054906101000a900460ff1660ff16815260200190600101906020826000010492830192600103820291508084116108445790505b5050505050905090565b61088d610b7a565b6108976000610bf8565b565b600960009054906101000a900460ff1681565b60008060009054906101000a900473ffffffffffffffffffffffffffffffffffffffff16905090565b600160009054906101000a900473ffffffffffffffffffffffffffffffffffffffff1681565b60055481565b600460149054906101000a900460ff1681565b60168060000160009054906101000a900473ffffffffffffffffffffffffffffffffffffffff16908060010154905082565b600360009054906101000a900473ffffffffffffffffffffffffffffffffffffffff1681565b600460009054906101000a900473ffffffffffffffffffffffffffffffffffffffff1681565b8073ffffffffffffffffffffffffffffffffffffffff168273ffffffffffffffffffffffffffffffffffffffff1614156109cb57600080fd5b81600160006101000a81548173ffffffffffffffffffffffffffffffffffffffff021916908373ffffffffffffffffffffffffffffffffffffffff16021790555080600260006101000a81548173ffffffffffffffffffffffffffffffffffffffff021916908373ffffffffffffffffffffffffffffffffffffffff1602179055507f55b25d7f9b5bf8ea934ba7079455d2ba00c68ea7e66c13695275f6b75b95e5f8600160009054906101000a900473ffffffffffffffffffffffffffffffffffffffff16600260009054906101000a900473ffffffffffffffffffffffffffffffffffffffff16604051610ac2929190610f95565b60405180910390a15050565b610ad6610b7a565b600073ffffffffffffffffffffffffffffffffffffffff168173ffffffffffffffffffffffffffffffffffffffff161415610b46576040517f08c379a0000000000000000000000000000000000000000000000000000000008152600401610b3d9061106d565b60405180910390fd5b610b4f81610bf8565b50565b600080600190505b600a811015610b76578080610b6e906111c2565b915050610b5a565b5090565b610b82610cbc565b73ffffffffffffffffffffffffffffffffffffffff16610ba06108ac565b73ffffffffffffffffffffffffffffffffffffffff1614610bf6576040517f08c379a0000000000000000000000000000000000000000000000000000000008152600401610bed9061108d565b60405180910390fd5b565b60008060009054906101000a900473ffffffffffffffffffffffffffffffffffffffff169050816000806101000a81548173ffffffffffffffffffffffffffffffffffffffff021916908373ffffffffffffffffffffffffffffffffffffffff1602179055508173ffffffffffffffffffffffffffffffffffffffff168173ffffffffffffffffffffffffffffffffffffffff167f8be0079c531659141344cd1fd0a4f28419497f9722a3daafe3b4186f6b6457e060405160405180910390a35050565b600033905090565b600081359050610cd381611332565b92915050565b600081359050610ce881611349565b92915050565b600081359050610cfd81611360565b92915050565b600060208284031215610d1957610d1861123a565b5b6000610d2784828501610cc4565b91505092915050565b60008060408385031215610d4757610d4661123a565b5b6000610d5585828601610cc4565b9250506020610d6685828601610cc4565b9150509250929050565b60008060408385031215610d8757610d8661123a565b5b6000610d9585828601610cc4565b9250506020610da685828601610cd9565b9150509250929050565b600060208284031215610dc657610dc561123a565b5b6000610dd484828501610cd9565b91505092915050565b600060208284031215610df357610df261123a565b5b6000610e0184828501610cee565b91505092915050565b6000610e168383610f5c565b60208301905092915050565b610e2b8161116d565b82525050565b6000610e3c82611133565b610e46818561114b565b9350610e5183611123565b8060005b83811015610e82578151610e698882610e0a565b9750610e748361113e565b925050600181019050610e55565b5085935050505092915050565b610e988161117f565b82525050565b6000610eab600c8361115c565b9150610eb68261123f565b602082019050919050565b6000610ece60268361115c565b9150610ed982611268565b604082019050919050565b6000610ef160208361115c565b9150610efc826112b7565b602082019050919050565b6000610f1460108361115c565b9150610f1f826112e0565b602082019050919050565b6000610f3760158361115c565b9150610f4282611309565b602082019050919050565b610f56816111ab565b82525050565b610f65816111b5565b82525050565b610f74816111b5565b82525050565b6000602082019050610f8f6000830184610e22565b92915050565b6000604082019050610faa6000830185610e22565b610fb76020830184610e22565b9392505050565b6000604082019050610fd36000830185610e22565b610fe06020830184610e8f565b9392505050565b6000604082019050610ffc6000830185610e22565b6110096020830184610f4d565b9392505050565b6000602082019050818103600083015261102a8184610e31565b905092915050565b60006020820190506110476000830184610e8f565b92915050565b6000602082019050818103600083015261106681610e9e565b9050919050565b6000602082019050818103600083015261108681610ec1565b9050919050565b600060208201905081810360008301526110a681610ee4565b9050919050565b600060208201905081810360008301526110c681610f07565b9050919050565b600060208201905081810360008301526110e681610f2a565b9050919050565b60006020820190506111026000830184610f4d565b92915050565b600060208201905061111d6000830184610f6b565b92915050565b6000819050602082019050919050565b600081519050919050565b6000602082019050919050565b600082825260208201905092915050565b600082825260208201905092915050565b60006111788261118b565b9050919050565b60008115159050919050565b600073ffffffffffffffffffffffffffffffffffffffff82169050919050565b6000819050919050565b600060ff82169050919050565b60006111cd826111ab565b91507fffffffffffffffffffffffffffffffffffffffffffffffffffffffffffffffff821415611200576111ff61120b565b5b600182019050919050565b7f4e487b7100000000000000000000000000000000000000000000000000000000600052601160045260246000fd5b600080fd5b7f67616d65206973206f7665720000000000000000000000000000000000000000600082015250565b7f4f776e61626c653a206e6577206f776e657220697320746865207a65726f206160008201527f6464726573730000000000000000000000000000000000000000000000000000602082015250565b7f4f776e61626c653a2063616c6c6572206973206e6f7420746865206f776e6572600082015250565b7f416c72656164792061737369676e656400000000000000000000000000000000600082015250565b7f596f752063616e2774206d616b652061206d6f76650000000000000000000000600082015250565b61133b8161116d565b811461134657600080fd5b50565b611352816111ab565b811461135d57600080fd5b50565b611369816111b5565b811461137457600080fd5b5056fea2646970667358221220bdfc7404b18758f6a275f93eb3304c4e252910b82655ebde4de889e11c1f668664736f6c63430008070033",
					"opcodes": "PUSH1 0x80 PUSH1 0x40 MSTORE PUSH1 0x40 MLOAD DUP1 PUSH2 0x100 ADD PUSH1 0x40 MSTORE DUP1 PUSH1 0x40 MLOAD DUP1 PUSH1 0x60 ADD PUSH1 0x40 MSTORE DUP1 PUSH1 0x1 PUSH1 0xFF AND DUP2 MSTORE PUSH1 0x20 ADD PUSH1 0x2 PUSH1 0xFF AND DUP2 MSTORE PUSH1 0x20 ADD PUSH1 0x3 PUSH1 0xFF AND DUP2 MSTORE POP DUP2 MSTORE PUSH1 0x20 ADD PUSH1 0x40 MLOAD DUP1 PUSH1 0x60 ADD PUSH1 0x40 MSTORE DUP1 PUSH1 0x4 PUSH1 0xFF AND DUP2 MSTORE PUSH1 0x20 ADD PUSH1 0x5 PUSH1 0xFF AND DUP2 MSTORE PUSH1 0x20 ADD PUSH1 0x6 PUSH1 0xFF AND DUP2 MSTORE POP DUP2 MSTORE PUSH1 0x20 ADD PUSH1 0x40 MLOAD DUP1 PUSH1 0x60 ADD PUSH1 0x40 MSTORE DUP1 PUSH1 0x7 PUSH1 0xFF AND DUP2 MSTORE PUSH1 0x20 ADD PUSH1 0x8 PUSH1 0xFF AND DUP2 MSTORE PUSH1 0x20 ADD PUSH1 0x9 PUSH1 0xFF AND DUP2 MSTORE POP DUP2 MSTORE PUSH1 0x20 ADD PUSH1 0x40 MLOAD DUP1 PUSH1 0x60 ADD PUSH1 0x40 MSTORE DUP1 PUSH1 0x1 PUSH1 0xFF AND DUP2 MSTORE PUSH1 0x20 ADD PUSH1 0x4 PUSH1 0xFF AND DUP2 MSTORE PUSH1 0x20 ADD PUSH1 0x7 PUSH1 0xFF AND DUP2 MSTORE POP DUP2 MSTORE PUSH1 0x20 ADD PUSH1 0x40 MLOAD DUP1 PUSH1 0x60 ADD PUSH1 0x40 MSTORE DUP1 PUSH1 0x2 PUSH1 0xFF AND DUP2 MSTORE PUSH1 0x20 ADD PUSH1 0x5 PUSH1 0xFF AND DUP2 MSTORE PUSH1 0x20 ADD PUSH1 0x8 PUSH1 0xFF AND DUP2 MSTORE POP DUP2 MSTORE PUSH1 0x20 ADD PUSH1 0x40 MLOAD DUP1 PUSH1 0x60 ADD PUSH1 0x40 MSTORE DUP1 PUSH1 0x3 PUSH1 0xFF AND DUP2 MSTORE PUSH1 0x20 ADD PUSH1 0x6 PUSH1 0xFF AND DUP2 MSTORE PUSH1 0x20 ADD PUSH1 0x9 PUSH1 0xFF AND DUP2 MSTORE POP DUP2 MSTORE PUSH1 0x20 ADD PUSH1 0x40 MLOAD DUP1 PUSH1 0x60 ADD PUSH1 0x40 MSTORE DUP1 PUSH1 0x1 PUSH1 0xFF AND DUP2 MSTORE PUSH1 0x20 ADD PUSH1 0x5 PUSH1 0xFF AND DUP2 MSTORE PUSH1 0x20 ADD PUSH1 0x9 PUSH1 0xFF AND DUP2 MSTORE POP DUP2 MSTORE PUSH1 0x20 ADD PUSH1 0x40 MLOAD DUP1 PUSH1 0x60 ADD PUSH1 0x40 MSTORE DUP1 PUSH1 0x3 PUSH1 0xFF AND DUP2 MSTORE PUSH1 0x20 ADD PUSH1 0x5 PUSH1 0xFF AND DUP2 MSTORE PUSH1 0x20 ADD PUSH1 0x7 PUSH1 0xFF AND DUP2 MSTORE POP DUP2 MSTORE POP PUSH1 0xA SWAP1 PUSH1 0x8 PUSH3 0x180 SWAP3 SWAP2 SWAP1 PUSH3 0x289 JUMP JUMPDEST POP CALLVALUE DUP1 ISZERO PUSH3 0x18E JUMPI PUSH1 0x0 DUP1 REVERT JUMPDEST POP PUSH3 0x1AF PUSH3 0x1A3 PUSH3 0x1BD PUSH1 0x20 SHL PUSH1 0x20 SHR JUMP JUMPDEST PUSH3 0x1C5 PUSH1 0x20 SHL PUSH1 0x20 SHR JUMP JUMPDEST PUSH1 0x1E PUSH1 0x7 DUP2 SWAP1 SSTORE POP PUSH3 0x3CD JUMP JUMPDEST PUSH1 0x0 CALLER SWAP1 POP SWAP1 JUMP JUMPDEST PUSH1 0x0 DUP1 PUSH1 0x0 SWAP1 SLOAD SWAP1 PUSH2 0x100 EXP SWAP1 DIV PUSH20 0xFFFFFFFFFFFFFFFFFFFFFFFFFFFFFFFFFFFFFFFF AND SWAP1 POP DUP2 PUSH1 0x0 DUP1 PUSH2 0x100 EXP DUP2 SLOAD DUP2 PUSH20 0xFFFFFFFFFFFFFFFFFFFFFFFFFFFFFFFFFFFFFFFF MUL NOT AND SWAP1 DUP4 PUSH20 0xFFFFFFFFFFFFFFFFFFFFFFFFFFFFFFFFFFFFFFFF AND MUL OR SWAP1 SSTORE POP DUP2 PUSH20 0xFFFFFFFFFFFFFFFFFFFFFFFFFFFFFFFFFFFFFFFF AND DUP2 PUSH20 0xFFFFFFFFFFFFFFFFFFFFFFFFFFFFFFFFFFFFFFFF AND PUSH32 0x8BE0079C531659141344CD1FD0A4F28419497F9722A3DAAFE3B4186F6B6457E0 PUSH1 0x40 MLOAD PUSH1 0x40 MLOAD DUP1 SWAP2 SUB SWAP1 LOG3 POP POP JUMP JUMPDEST DUP3 PUSH1 0x8 DUP2 ADD SWAP3 DUP3 ISZERO PUSH3 0x2CB JUMPI SWAP2 PUSH1 0x20 MUL DUP3 ADD JUMPDEST DUP3 DUP2 GT ISZERO PUSH3 0x2CA JUMPI DUP3 MLOAD DUP3 SWAP1 PUSH1 0x3 PUSH3 0x2B9 SWAP3 SWAP2 SWAP1 PUSH3 0x2DE JUMP JUMPDEST POP SWAP2 PUSH1 0x20 ADD SWAP2 SWAP1 PUSH1 0x1 ADD SWAP1 PUSH3 0x29D JUMP JUMPDEST JUMPDEST POP SWAP1 POP PUSH3 0x2DA SWAP2 SWAP1 PUSH3 0x37F JUMP JUMPDEST POP SWAP1 JUMP JUMPDEST DUP3 PUSH1 0x3 PUSH1 0x1F ADD PUSH1 0x20 SWAP1 DIV DUP2 ADD SWAP3 DUP3 ISZERO PUSH3 0x36C JUMPI SWAP2 PUSH1 0x20 MUL DUP3 ADD PUSH1 0x0 JUMPDEST DUP4 DUP3 GT ISZERO PUSH3 0x33B JUMPI DUP4 MLOAD DUP4 DUP3 PUSH2 0x100 EXP DUP2 SLOAD DUP2 PUSH1 0xFF MUL NOT AND SWAP1 DUP4 PUSH1 0xFF AND MUL OR SWAP1 SSTORE POP SWAP3 PUSH1 0x20 ADD SWAP3 PUSH1 0x1 ADD PUSH1 0x20 DUP2 PUSH1 0x0 ADD DIV SWAP3 DUP4 ADD SWAP3 PUSH1 0x1 SUB MUL PUSH3 0x2FB JUMP JUMPDEST DUP1 ISZERO PUSH3 0x36A JUMPI DUP3 DUP2 PUSH2 0x100 EXP DUP2 SLOAD SWAP1 PUSH1 0xFF MUL NOT AND SWAP1 SSTORE PUSH1 0x1 ADD PUSH1 0x20 DUP2 PUSH1 0x0 ADD DIV SWAP3 DUP4 ADD SWAP3 PUSH1 0x1 SUB MUL PUSH3 0x33B JUMP JUMPDEST POP JUMPDEST POP SWAP1 POP PUSH3 0x37B SWAP2 SWAP1 PUSH3 0x3A7 JUMP JUMPDEST POP SWAP1 JUMP JUMPDEST JUMPDEST DUP1 DUP3 GT ISZERO PUSH3 0x3A3 JUMPI PUSH1 0x0 DUP2 DUP2 PUSH3 0x399 SWAP2 SWAP1 PUSH3 0x3C6 JUMP JUMPDEST POP PUSH1 0x1 ADD PUSH3 0x380 JUMP JUMPDEST POP SWAP1 JUMP JUMPDEST JUMPDEST DUP1 DUP3 GT ISZERO PUSH3 0x3C2 JUMPI PUSH1 0x0 DUP2 PUSH1 0x0 SWAP1 SSTORE POP PUSH1 0x1 ADD PUSH3 0x3A8 JUMP JUMPDEST POP SWAP1 JUMP JUMPDEST POP PUSH1 0x0 SWAP1 SSTORE JUMP JUMPDEST PUSH2 0x13AD DUP1 PUSH3 0x3DD PUSH1 0x0 CODECOPY PUSH1 0x0 RETURN INVALID PUSH1 0x80 PUSH1 0x40 MSTORE CALLVALUE DUP1 ISZERO PUSH2 0x10 JUMPI PUSH1 0x0 DUP1 REVERT JUMPDEST POP PUSH1 0x4 CALLDATASIZE LT PUSH2 0x142 JUMPI PUSH1 0x0 CALLDATALOAD PUSH1 0xE0 SHR DUP1 PUSH4 0x715018A6 GT PUSH2 0xB8 JUMPI DUP1 PUSH4 0xBDB337D1 GT PUSH2 0x7C JUMPI DUP1 PUSH4 0xBDB337D1 EQ PUSH2 0x349 JUMPI DUP1 PUSH4 0xC3FE3E28 EQ PUSH2 0x367 JUMPI DUP1 PUSH4 0xC5339132 EQ PUSH2 0x386 JUMPI DUP1 PUSH4 0xDFBF53AE EQ PUSH2 0x3A4 JUMPI DUP1 PUSH4 0xEB23B56B EQ PUSH2 0x3C2 JUMPI DUP1 PUSH4 0xF2FDE38B EQ PUSH2 0x3DE JUMPI PUSH2 0x142 JUMP JUMPDEST DUP1 PUSH4 0x715018A6 EQ PUSH2 0x2C7 JUMPI DUP1 PUSH4 0x88C9CB3C EQ PUSH2 0x2D1 JUMPI DUP1 PUSH4 0x8DA5CB5B EQ PUSH2 0x2EF JUMPI DUP1 PUSH4 0xA285C54A EQ PUSH2 0x30D JUMPI DUP1 PUSH4 0xBC120879 EQ PUSH2 0x32B JUMPI PUSH2 0x142 JUMP JUMPDEST DUP1 PUSH4 0x37F612A3 GT PUSH2 0x10A JUMPI DUP1 PUSH4 0x37F612A3 EQ PUSH2 0x1EE JUMPI DUP1 PUSH4 0x48DB5F89 EQ PUSH2 0x21E JUMPI DUP1 PUSH4 0x554693B1 EQ PUSH2 0x23D JUMPI DUP1 PUSH4 0x5D248301 EQ PUSH2 0x25B JUMPI DUP1 PUSH4 0x5E3568B8 EQ PUSH2 0x28B JUMPI DUP1 PUSH4 0x620633CB EQ PUSH2 0x2A9 JUMPI PUSH2 0x142 JUMP JUMPDEST DUP1 PUSH4 0x41A8486 EQ PUSH2 0x147 JUMPI DUP1 PUSH4 0x11BB1537 EQ PUSH2 0x165 JUMPI DUP1 PUSH4 0x1A8A8DD8 EQ PUSH2 0x183 JUMPI DUP1 PUSH4 0x1EA169E5 EQ PUSH2 0x1A2 JUMPI DUP1 PUSH4 0x22F976FF EQ PUSH2 0x1BE JUMPI JUMPDEST PUSH1 0x0 DUP1 REVERT JUMPDEST PUSH2 0x14F PUSH2 0x3FA JUMP JUMPDEST PUSH1 0x40 MLOAD PUSH2 0x15C SWAP2 SWAP1 PUSH2 0x10ED JUMP JUMPDEST PUSH1 0x40 MLOAD DUP1 SWAP2 SUB SWAP1 RETURN JUMPDEST PUSH2 0x16D PUSH2 0x400 JUMP JUMPDEST PUSH1 0x40 MLOAD PUSH2 0x17A SWAP2 SWAP1 PUSH2 0xF7A JUMP JUMPDEST PUSH1 0x40 MLOAD DUP1 SWAP2 SUB SWAP1 RETURN JUMPDEST PUSH2 0x18B PUSH2 0x426 JUMP JUMPDEST PUSH1 0x40 MLOAD PUSH2 0x199 SWAP3 SWAP2 SWAP1 PUSH2 0xFBE JUMP JUMPDEST PUSH1 0x40 MLOAD DUP1 SWAP2 SUB SWAP1 RETURN JUMPDEST PUSH2 0x1BC PUSH1 0x4 DUP1 CALLDATASIZE SUB DUP2 ADD SWAP1 PUSH2 0x1B7 SWAP2 SWAP1 PUSH2 0xDDD JUMP JUMPDEST PUSH2 0x465 JUMP JUMPDEST STOP JUMPDEST PUSH2 0x1D8 PUSH1 0x4 DUP1 CALLDATASIZE SUB DUP2 ADD SWAP1 PUSH2 0x1D3 SWAP2 SWAP1 PUSH2 0xD70 JUMP JUMPDEST PUSH2 0x6CA JUMP JUMPDEST PUSH1 0x40 MLOAD PUSH2 0x1E5 SWAP2 SWAP1 PUSH2 0x1108 JUMP JUMPDEST PUSH1 0x40 MLOAD DUP1 SWAP2 SUB SWAP1 RETURN JUMPDEST PUSH2 0x208 PUSH1 0x4 DUP1 CALLDATASIZE SUB DUP2 ADD SWAP1 PUSH2 0x203 SWAP2 SWAP1 PUSH2 0xDDD JUMP JUMPDEST PUSH2 0x70D JUMP JUMPDEST PUSH1 0x40 MLOAD PUSH2 0x215 SWAP2 SWAP1 PUSH2 0xF7A JUMP JUMPDEST PUSH1 0x40 MLOAD DUP1 SWAP2 SUB SWAP1 RETURN JUMPDEST PUSH2 0x226 PUSH2 0x740 JUMP JUMPDEST PUSH1 0x40 MLOAD PUSH2 0x234 SWAP3 SWAP2 SWAP1 PUSH2 0xFBE JUMP JUMPDEST PUSH1 0x40 MLOAD DUP1 SWAP2 SUB SWAP1 RETURN JUMPDEST PUSH2 0x245 PUSH2 0x77F JUMP JUMPDEST PUSH1 0x40 MLOAD PUSH2 0x252 SWAP2 SWAP1 PUSH2 0x10ED JUMP JUMPDEST PUSH1 0x40 MLOAD DUP1 SWAP2 SUB SWAP1 RETURN JUMPDEST PUSH2 0x275 PUSH1 0x4 DUP1 CALLDATASIZE SUB DUP2 ADD SWAP1 PUSH2 0x270 SWAP2 SWAP1 PUSH2 0xDB0 JUMP JUMPDEST PUSH2 0x785 JUMP JUMPDEST PUSH1 0x40 MLOAD PUSH2 0x282 SWAP2 SWAP1 PUSH2 0xF7A JUMP JUMPDEST PUSH1 0x40 MLOAD DUP1 SWAP2 SUB SWAP1 RETURN JUMPDEST PUSH2 0x293 PUSH2 0x7C4 JUMP JUMPDEST PUSH1 0x40 MLOAD PUSH2 0x2A0 SWAP2 SWAP1 PUSH2 0x10ED JUMP JUMPDEST PUSH1 0x40 MLOAD DUP1 SWAP2 SUB SWAP1 RETURN JUMPDEST PUSH2 0x2B1 PUSH2 0x7CA JUMP JUMPDEST PUSH1 0x40 MLOAD PUSH2 0x2BE SWAP2 SWAP1 PUSH2 0x1010 JUMP JUMPDEST PUSH1 0x40 MLOAD DUP1 SWAP2 SUB SWAP1 RETURN JUMPDEST PUSH2 0x2CF PUSH2 0x885 JUMP JUMPDEST STOP JUMPDEST PUSH2 0x2D9 PUSH2 0x899 JUMP JUMPDEST PUSH1 0x40 MLOAD PUSH2 0x2E6 SWAP2 SWAP1 PUSH2 0x1032 JUMP JUMPDEST PUSH1 0x40 MLOAD DUP1 SWAP2 SUB SWAP1 RETURN JUMPDEST PUSH2 0x2F7 PUSH2 0x8AC JUMP JUMPDEST PUSH1 0x40 MLOAD PUSH2 0x304 SWAP2 SWAP1 PUSH2 0xF7A JUMP JUMPDEST PUSH1 0x40 MLOAD DUP1 SWAP2 SUB SWAP1 RETURN JUMPDEST PUSH2 0x315 PUSH2 0x8D5 JUMP JUMPDEST PUSH1 0x40 MLOAD PUSH2 0x322 SWAP2 SWAP1 PUSH2 0xF7A JUMP JUMPDEST PUSH1 0x40 MLOAD DUP1 SWAP2 SUB SWAP1 RETURN JUMPDEST PUSH2 0x333 PUSH2 0x8FB JUMP JUMPDEST PUSH1 0x40 MLOAD PUSH2 0x340 SWAP2 SWAP1 PUSH2 0x10ED JUMP JUMPDEST PUSH1 0x40 MLOAD DUP1 SWAP2 SUB SWAP1 RETURN JUMPDEST PUSH2 0x351 PUSH2 0x901 JUMP JUMPDEST PUSH1 0x40 MLOAD PUSH2 0x35E SWAP2 SWAP1 PUSH2 0x1032 JUMP JUMPDEST PUSH1 0x40 MLOAD DUP1 SWAP2 SUB SWAP1 RETURN JUMPDEST PUSH2 0x36F PUSH2 0x914 JUMP JUMPDEST PUSH1 0x40 MLOAD PUSH2 0x37D SWAP3 SWAP2 SWAP1 PUSH2 0xFE7 JUMP JUMPDEST PUSH1 0x40 MLOAD DUP1 SWAP2 SUB SWAP1 RETURN JUMPDEST PUSH2 0x38E PUSH2 0x946 JUMP JUMPDEST PUSH1 0x40 MLOAD PUSH2 0x39B SWAP2 SWAP1 PUSH2 0xF7A JUMP JUMPDEST PUSH1 0x40 MLOAD DUP1 SWAP2 SUB SWAP1 RETURN JUMPDEST PUSH2 0x3AC PUSH2 0x96C JUMP JUMPDEST PUSH1 0x40 MLOAD PUSH2 0x3B9 SWAP2 SWAP1 PUSH2 0xF7A JUMP JUMPDEST PUSH1 0x40 MLOAD DUP1 SWAP2 SUB SWAP1 RETURN JUMPDEST PUSH2 0x3DC PUSH1 0x4 DUP1 CALLDATASIZE SUB DUP2 ADD SWAP1 PUSH2 0x3D7 SWAP2 SWAP1 PUSH2 0xD30 JUMP JUMPDEST PUSH2 0x992 JUMP JUMPDEST STOP JUMPDEST PUSH2 0x3F8 PUSH1 0x4 DUP1 CALLDATASIZE SUB DUP2 ADD SWAP1 PUSH2 0x3F3 SWAP2 SWAP1 PUSH2 0xD03 JUMP JUMPDEST PUSH2 0xACE JUMP JUMPDEST STOP JUMPDEST PUSH1 0x8 SLOAD DUP2 JUMP JUMPDEST PUSH1 0x2 PUSH1 0x0 SWAP1 SLOAD SWAP1 PUSH2 0x100 EXP SWAP1 DIV PUSH20 0xFFFFFFFFFFFFFFFFFFFFFFFFFFFFFFFFFFFFFFFF AND DUP2 JUMP JUMPDEST PUSH1 0x15 DUP1 PUSH1 0x0 ADD PUSH1 0x0 SWAP1 SLOAD SWAP1 PUSH2 0x100 EXP SWAP1 DIV PUSH20 0xFFFFFFFFFFFFFFFFFFFFFFFFFFFFFFFFFFFFFFFF AND SWAP1 DUP1 PUSH1 0x0 ADD PUSH1 0x14 SWAP1 SLOAD SWAP1 PUSH2 0x100 EXP SWAP1 DIV PUSH1 0xFF AND SWAP1 POP DUP3 JUMP JUMPDEST PUSH1 0x4 PUSH1 0x14 SWAP1 SLOAD SWAP1 PUSH2 0x100 EXP SWAP1 DIV PUSH1 0xFF AND ISZERO PUSH2 0x4B5 JUMPI PUSH1 0x40 MLOAD PUSH32 0x8C379A000000000000000000000000000000000000000000000000000000000 DUP2 MSTORE PUSH1 0x4 ADD PUSH2 0x4AC SWAP1 PUSH2 0x104D JUMP JUMPDEST PUSH1 0x40 MLOAD DUP1 SWAP2 SUB SWAP1 REVERT JUMPDEST PUSH1 0x1 PUSH1 0x0 SWAP1 SLOAD SWAP1 PUSH2 0x100 EXP SWAP1 DIV PUSH20 0xFFFFFFFFFFFFFFFFFFFFFFFFFFFFFFFFFFFFFFFF AND PUSH20 0xFFFFFFFFFFFFFFFFFFFFFFFFFFFFFFFFFFFFFFFF AND CALLER PUSH20 0xFFFFFFFFFFFFFFFFFFFFFFFFFFFFFFFFFFFFFFFF AND EQ DUP1 PUSH2 0x55E JUMPI POP PUSH1 0x2 PUSH1 0x0 SWAP1 SLOAD SWAP1 PUSH2 0x100 EXP SWAP1 DIV PUSH20 0xFFFFFFFFFFFFFFFFFFFFFFFFFFFFFFFFFFFFFFFF AND PUSH20 0xFFFFFFFFFFFFFFFFFFFFFFFFFFFFFFFFFFFFFFFF AND CALLER PUSH20 0xFFFFFFFFFFFFFFFFFFFFFFFFFFFFFFFFFFFFFFFF AND EQ JUMPDEST DUP1 ISZERO PUSH2 0x5B8 JUMPI POP PUSH1 0x3 PUSH1 0x0 SWAP1 SLOAD SWAP1 PUSH2 0x100 EXP SWAP1 DIV PUSH20 0xFFFFFFFFFFFFFFFFFFFFFFFFFFFFFFFFFFFFFFFF AND PUSH20 0xFFFFFFFFFFFFFFFFFFFFFFFFFFFFFFFFFFFFFFFF AND CALLER PUSH20 0xFFFFFFFFFFFFFFFFFFFFFFFFFFFFFFFFFFFFFFFF AND EQ ISZERO JUMPDEST PUSH2 0x5F7 JUMPI PUSH1 0x40 MLOAD PUSH32 0x8C379A000000000000000000000000000000000000000000000000000000000 DUP2 MSTORE PUSH1 0x4 ADD PUSH2 0x5EE SWAP1 PUSH2 0x10CD JUMP JUMPDEST PUSH1 0x40 MLOAD DUP1 SWAP2 SUB SWAP1 REVERT JUMPDEST PUSH1 0x0 DUP2 PUSH1 0xFF AND GT DUP1 ISZERO PUSH2 0x60D JUMPI POP PUSH1 0xA DUP2 PUSH1 0xFF AND LT JUMPDEST PUSH2 0x616 JUMPI PUSH1 0x0 DUP1 REVERT JUMPDEST PUSH1 0x0 PUSH20 0xFFFFFFFFFFFFFFFFFFFFFFFFFFFFFFFFFFFFFFFF AND PUSH1 0x1A PUSH1 0x0 DUP4 PUSH1 0xFF AND PUSH1 0xFF AND DUP2 MSTORE PUSH1 0x20 ADD SWAP1 DUP2 MSTORE PUSH1 0x20 ADD PUSH1 0x0 KECCAK256 PUSH1 0x0 SWAP1 SLOAD SWAP1 PUSH2 0x100 EXP SWAP1 DIV PUSH20 0xFFFFFFFFFFFFFFFFFFFFFFFFFFFFFFFFFFFFFFFF AND PUSH20 0xFFFFFFFFFFFFFFFFFFFFFFFFFFFFFFFFFFFFFFFF AND EQ PUSH2 0x6BE JUMPI PUSH1 0x40 MLOAD PUSH32 0x8C379A000000000000000000000000000000000000000000000000000000000 DUP2 MSTORE PUSH1 0x4 ADD PUSH2 0x6B5 SWAP1 PUSH2 0x10AD JUMP JUMPDEST PUSH1 0x40 MLOAD DUP1 SWAP2 SUB SWAP1 REVERT JUMPDEST PUSH2 0x6C6 PUSH2 0xB52 JUMP JUMPDEST POP POP JUMP JUMPDEST PUSH1 0x19 PUSH1 0x20 MSTORE DUP2 PUSH1 0x0 MSTORE PUSH1 0x40 PUSH1 0x0 KECCAK256 DUP2 DUP2 SLOAD DUP2 LT PUSH2 0x6E6 JUMPI PUSH1 0x0 DUP1 REVERT JUMPDEST SWAP1 PUSH1 0x0 MSTORE PUSH1 0x20 PUSH1 0x0 KECCAK256 SWAP1 PUSH1 0x20 SWAP2 DUP3 DUP3 DIV ADD SWAP2 SWAP1 MOD SWAP2 POP SWAP2 POP SWAP1 SLOAD SWAP1 PUSH2 0x100 EXP SWAP1 DIV PUSH1 0xFF AND DUP2 JUMP JUMPDEST PUSH1 0x1A PUSH1 0x20 MSTORE DUP1 PUSH1 0x0 MSTORE PUSH1 0x40 PUSH1 0x0 KECCAK256 PUSH1 0x0 SWAP2 POP SLOAD SWAP1 PUSH2 0x100 EXP SWAP1 DIV PUSH20 0xFFFFFFFFFFFFFFFFFFFFFFFFFFFFFFFFFFFFFFFF AND DUP2 JUMP JUMPDEST PUSH1 0x13 DUP1 PUSH1 0x0 ADD PUSH1 0x0 SWAP1 SLOAD SWAP1 PUSH2 0x100 EXP SWAP1 DIV PUSH20 0xFFFFFFFFFFFFFFFFFFFFFFFFFFFFFFFFFFFFFFFF AND SWAP1 DUP1 PUSH1 0x0 ADD PUSH1 0x14 SWAP1 SLOAD SWAP1 PUSH2 0x100 EXP SWAP1 DIV PUSH1 0xFF AND SWAP1 POP DUP3 JUMP JUMPDEST PUSH1 0x6 SLOAD DUP2 JUMP JUMPDEST PUSH1 0x12 DUP2 DUP2 SLOAD DUP2 LT PUSH2 0x795 JUMPI PUSH1 0x0 DUP1 REVERT JUMPDEST SWAP1 PUSH1 0x0 MSTORE PUSH1 0x20 PUSH1 0x0 KECCAK256 ADD PUSH1 0x0 SWAP2 POP SLOAD SWAP1 PUSH2 0x100 EXP SWAP1 DIV PUSH20 0xFFFFFFFFFFFFFFFFFFFFFFFFFFFFFFFFFFFFFFFF AND DUP2 JUMP JUMPDEST PUSH1 0x7 SLOAD DUP2 JUMP JUMPDEST PUSH1 0x60 PUSH1 0x19 PUSH1 0x0 CALLER PUSH20 0xFFFFFFFFFFFFFFFFFFFFFFFFFFFFFFFFFFFFFFFF AND PUSH20 0xFFFFFFFFFFFFFFFFFFFFFFFFFFFFFFFFFFFFFFFF AND DUP2 MSTORE PUSH1 0x20 ADD SWAP1 DUP2 MSTORE PUSH1 0x20 ADD PUSH1 0x0 KECCAK256 DUP1 SLOAD DUP1 PUSH1 0x20 MUL PUSH1 0x20 ADD PUSH1 0x40 MLOAD SWAP1 DUP2 ADD PUSH1 0x40 MSTORE DUP1 SWAP3 SWAP2 SWAP1 DUP2 DUP2 MSTORE PUSH1 0x20 ADD DUP3 DUP1 SLOAD DUP1 ISZERO PUSH2 0x87B JUMPI PUSH1 0x20 MUL DUP3 ADD SWAP2 SWAP1 PUSH1 0x0 MSTORE PUSH1 0x20 PUSH1 0x0 KECCAK256 SWAP1 PUSH1 0x0 SWAP1 JUMPDEST DUP3 DUP3 SWAP1 SLOAD SWAP1 PUSH2 0x100 EXP SWAP1 DIV PUSH1 0xFF AND PUSH1 0xFF AND DUP2 MSTORE PUSH1 0x20 ADD SWAP1 PUSH1 0x1 ADD SWAP1 PUSH1 0x20 DUP3 PUSH1 0x0 ADD DIV SWAP3 DUP4 ADD SWAP3 PUSH1 0x1 SUB DUP3 MUL SWAP2 POP DUP1 DUP5 GT PUSH2 0x844 JUMPI SWAP1 POP JUMPDEST POP POP POP POP POP SWAP1 POP SWAP1 JUMP JUMPDEST PUSH2 0x88D PUSH2 0xB7A JUMP JUMPDEST PUSH2 0x897 PUSH1 0x0 PUSH2 0xBF8 JUMP JUMPDEST JUMP JUMPDEST PUSH1 0x9 PUSH1 0x0 SWAP1 SLOAD SWAP1 PUSH2 0x100 EXP SWAP1 DIV PUSH1 0xFF AND DUP2 JUMP JUMPDEST PUSH1 0x0 DUP1 PUSH1 0x0 SWAP1 SLOAD SWAP1 PUSH2 0x100 EXP SWAP1 DIV PUSH20 0xFFFFFFFFFFFFFFFFFFFFFFFFFFFFFFFFFFFFFFFF AND SWAP1 POP SWAP1 JUMP JUMPDEST PUSH1 0x1 PUSH1 0x0 SWAP1 SLOAD SWAP1 PUSH2 0x100 EXP SWAP1 DIV PUSH20 0xFFFFFFFFFFFFFFFFFFFFFFFFFFFFFFFFFFFFFFFF AND DUP2 JUMP JUMPDEST PUSH1 0x5 SLOAD DUP2 JUMP JUMPDEST PUSH1 0x4 PUSH1 0x14 SWAP1 SLOAD SWAP1 PUSH2 0x100 EXP SWAP1 DIV PUSH1 0xFF AND DUP2 JUMP JUMPDEST PUSH1 0x16 DUP1 PUSH1 0x0 ADD PUSH1 0x0 SWAP1 SLOAD SWAP1 PUSH2 0x100 EXP SWAP1 DIV PUSH20 0xFFFFFFFFFFFFFFFFFFFFFFFFFFFFFFFFFFFFFFFF AND SWAP1 DUP1 PUSH1 0x1 ADD SLOAD SWAP1 POP DUP3 JUMP JUMPDEST PUSH1 0x3 PUSH1 0x0 SWAP1 SLOAD SWAP1 PUSH2 0x100 EXP SWAP1 DIV PUSH20 0xFFFFFFFFFFFFFFFFFFFFFFFFFFFFFFFFFFFFFFFF AND DUP2 JUMP JUMPDEST PUSH1 0x4 PUSH1 0x0 SWAP1 SLOAD SWAP1 PUSH2 0x100 EXP SWAP1 DIV PUSH20 0xFFFFFFFFFFFFFFFFFFFFFFFFFFFFFFFFFFFFFFFF AND DUP2 JUMP JUMPDEST DUP1 PUSH20 0xFFFFFFFFFFFFFFFFFFFFFFFFFFFFFFFFFFFFFFFF AND DUP3 PUSH20 0xFFFFFFFFFFFFFFFFFFFFFFFFFFFFFFFFFFFFFFFF AND EQ ISZERO PUSH2 0x9CB JUMPI PUSH1 0x0 DUP1 REVERT JUMPDEST DUP2 PUSH1 0x1 PUSH1 0x0 PUSH2 0x100 EXP DUP2 SLOAD DUP2 PUSH20 0xFFFFFFFFFFFFFFFFFFFFFFFFFFFFFFFFFFFFFFFF MUL NOT AND SWAP1 DUP4 PUSH20 0xFFFFFFFFFFFFFFFFFFFFFFFFFFFFFFFFFFFFFFFF AND MUL OR SWAP1 SSTORE POP DUP1 PUSH1 0x2 PUSH1 0x0 PUSH2 0x100 EXP DUP2 SLOAD DUP2 PUSH20 0xFFFFFFFFFFFFFFFFFFFFFFFFFFFFFFFFFFFFFFFF MUL NOT AND SWAP1 DUP4 PUSH20 0xFFFFFFFFFFFFFFFFFFFFFFFFFFFFFFFFFFFFFFFF AND MUL OR SWAP1 SSTORE POP PUSH32 0x55B25D7F9B5BF8EA934BA7079455D2BA00C68EA7E66C13695275F6B75B95E5F8 PUSH1 0x1 PUSH1 0x0 SWAP1 SLOAD SWAP1 PUSH2 0x100 EXP SWAP1 DIV PUSH20 0xFFFFFFFFFFFFFFFFFFFFFFFFFFFFFFFFFFFFFFFF AND PUSH1 0x2 PUSH1 0x0 SWAP1 SLOAD SWAP1 PUSH2 0x100 EXP SWAP1 DIV PUSH20 0xFFFFFFFFFFFFFFFFFFFFFFFFFFFFFFFFFFFFFFFF AND PUSH1 0x40 MLOAD PUSH2 0xAC2 SWAP3 SWAP2 SWAP1 PUSH2 0xF95 JUMP JUMPDEST PUSH1 0x40 MLOAD DUP1 SWAP2 SUB SWAP1 LOG1 POP POP JUMP JUMPDEST PUSH2 0xAD6 PUSH2 0xB7A JUMP JUMPDEST PUSH1 0x0 PUSH20 0xFFFFFFFFFFFFFFFFFFFFFFFFFFFFFFFFFFFFFFFF AND DUP2 PUSH20 0xFFFFFFFFFFFFFFFFFFFFFFFFFFFFFFFFFFFFFFFF AND EQ ISZERO PUSH2 0xB46 JUMPI PUSH1 0x40 MLOAD PUSH32 0x8C379A000000000000000000000000000000000000000000000000000000000 DUP2 MSTORE PUSH1 0x4 ADD PUSH2 0xB3D SWAP1 PUSH2 0x106D JUMP JUMPDEST PUSH1 0x40 MLOAD DUP1 SWAP2 SUB SWAP1 REVERT JUMPDEST PUSH2 0xB4F DUP2 PUSH2 0xBF8 JUMP JUMPDEST POP JUMP JUMPDEST PUSH1 0x0 DUP1 PUSH1 0x1 SWAP1 POP JUMPDEST PUSH1 0xA DUP2 LT ISZERO PUSH2 0xB76 JUMPI DUP1 DUP1 PUSH2 0xB6E SWAP1 PUSH2 0x11C2 JUMP JUMPDEST SWAP2 POP POP PUSH2 0xB5A JUMP JUMPDEST POP SWAP1 JUMP JUMPDEST PUSH2 0xB82 PUSH2 0xCBC JUMP JUMPDEST PUSH20 0xFFFFFFFFFFFFFFFFFFFFFFFFFFFFFFFFFFFFFFFF AND PUSH2 0xBA0 PUSH2 0x8AC JUMP JUMPDEST PUSH20 0xFFFFFFFFFFFFFFFFFFFFFFFFFFFFFFFFFFFFFFFF AND EQ PUSH2 0xBF6 JUMPI PUSH1 0x40 MLOAD PUSH32 0x8C379A000000000000000000000000000000000000000000000000000000000 DUP2 MSTORE PUSH1 0x4 ADD PUSH2 0xBED SWAP1 PUSH2 0x108D JUMP JUMPDEST PUSH1 0x40 MLOAD DUP1 SWAP2 SUB SWAP1 REVERT JUMPDEST JUMP JUMPDEST PUSH1 0x0 DUP1 PUSH1 0x0 SWAP1 SLOAD SWAP1 PUSH2 0x100 EXP SWAP1 DIV PUSH20 0xFFFFFFFFFFFFFFFFFFFFFFFFFFFFFFFFFFFFFFFF AND SWAP1 POP DUP2 PUSH1 0x0 DUP1 PUSH2 0x100 EXP DUP2 SLOAD DUP2 PUSH20 0xFFFFFFFFFFFFFFFFFFFFFFFFFFFFFFFFFFFFFFFF MUL NOT AND SWAP1 DUP4 PUSH20 0xFFFFFFFFFFFFFFFFFFFFFFFFFFFFFFFFFFFFFFFF AND MUL OR SWAP1 SSTORE POP DUP2 PUSH20 0xFFFFFFFFFFFFFFFFFFFFFFFFFFFFFFFFFFFFFFFF AND DUP2 PUSH20 0xFFFFFFFFFFFFFFFFFFFFFFFFFFFFFFFFFFFFFFFF AND PUSH32 0x8BE0079C531659141344CD1FD0A4F28419497F9722A3DAAFE3B4186F6B6457E0 PUSH1 0x40 MLOAD PUSH1 0x40 MLOAD DUP1 SWAP2 SUB SWAP1 LOG3 POP POP JUMP JUMPDEST PUSH1 0x0 CALLER SWAP1 POP SWAP1 JUMP JUMPDEST PUSH1 0x0 DUP2 CALLDATALOAD SWAP1 POP PUSH2 0xCD3 DUP2 PUSH2 0x1332 JUMP JUMPDEST SWAP3 SWAP2 POP POP JUMP JUMPDEST PUSH1 0x0 DUP2 CALLDATALOAD SWAP1 POP PUSH2 0xCE8 DUP2 PUSH2 0x1349 JUMP JUMPDEST SWAP3 SWAP2 POP POP JUMP JUMPDEST PUSH1 0x0 DUP2 CALLDATALOAD SWAP1 POP PUSH2 0xCFD DUP2 PUSH2 0x1360 JUMP JUMPDEST SWAP3 SWAP2 POP POP JUMP JUMPDEST PUSH1 0x0 PUSH1 0x20 DUP3 DUP5 SUB SLT ISZERO PUSH2 0xD19 JUMPI PUSH2 0xD18 PUSH2 0x123A JUMP JUMPDEST JUMPDEST PUSH1 0x0 PUSH2 0xD27 DUP5 DUP3 DUP6 ADD PUSH2 0xCC4 JUMP JUMPDEST SWAP2 POP POP SWAP3 SWAP2 POP POP JUMP JUMPDEST PUSH1 0x0 DUP1 PUSH1 0x40 DUP4 DUP6 SUB SLT ISZERO PUSH2 0xD47 JUMPI PUSH2 0xD46 PUSH2 0x123A JUMP JUMPDEST JUMPDEST PUSH1 0x0 PUSH2 0xD55 DUP6 DUP3 DUP7 ADD PUSH2 0xCC4 JUMP JUMPDEST SWAP3 POP POP PUSH1 0x20 PUSH2 0xD66 DUP6 DUP3 DUP7 ADD PUSH2 0xCC4 JUMP JUMPDEST SWAP2 POP POP SWAP3 POP SWAP3 SWAP1 POP JUMP JUMPDEST PUSH1 0x0 DUP1 PUSH1 0x40 DUP4 DUP6 SUB SLT ISZERO PUSH2 0xD87 JUMPI PUSH2 0xD86 PUSH2 0x123A JUMP JUMPDEST JUMPDEST PUSH1 0x0 PUSH2 0xD95 DUP6 DUP3 DUP7 ADD PUSH2 0xCC4 JUMP JUMPDEST SWAP3 POP POP PUSH1 0x20 PUSH2 0xDA6 DUP6 DUP3 DUP7 ADD PUSH2 0xCD9 JUMP JUMPDEST SWAP2 POP POP SWAP3 POP SWAP3 SWAP1 POP JUMP JUMPDEST PUSH1 0x0 PUSH1 0x20 DUP3 DUP5 SUB SLT ISZERO PUSH2 0xDC6 JUMPI PUSH2 0xDC5 PUSH2 0x123A JUMP JUMPDEST JUMPDEST PUSH1 0x0 PUSH2 0xDD4 DUP5 DUP3 DUP6 ADD PUSH2 0xCD9 JUMP JUMPDEST SWAP2 POP POP SWAP3 SWAP2 POP POP JUMP JUMPDEST PUSH1 0x0 PUSH1 0x20 DUP3 DUP5 SUB SLT ISZERO PUSH2 0xDF3 JUMPI PUSH2 0xDF2 PUSH2 0x123A JUMP JUMPDEST JUMPDEST PUSH1 0x0 PUSH2 0xE01 DUP5 DUP3 DUP6 ADD PUSH2 0xCEE JUMP JUMPDEST SWAP2 POP POP SWAP3 SWAP2 POP POP JUMP JUMPDEST PUSH1 0x0 PUSH2 0xE16 DUP4 DUP4 PUSH2 0xF5C JUMP JUMPDEST PUSH1 0x20 DUP4 ADD SWAP1 POP SWAP3 SWAP2 POP POP JUMP JUMPDEST PUSH2 0xE2B DUP2 PUSH2 0x116D JUMP JUMPDEST DUP3 MSTORE POP POP JUMP JUMPDEST PUSH1 0x0 PUSH2 0xE3C DUP3 PUSH2 0x1133 JUMP JUMPDEST PUSH2 0xE46 DUP2 DUP6 PUSH2 0x114B JUMP JUMPDEST SWAP4 POP PUSH2 0xE51 DUP4 PUSH2 0x1123 JUMP JUMPDEST DUP1 PUSH1 0x0 JUMPDEST DUP4 DUP2 LT ISZERO PUSH2 0xE82 JUMPI DUP2 MLOAD PUSH2 0xE69 DUP9 DUP3 PUSH2 0xE0A JUMP JUMPDEST SWAP8 POP PUSH2 0xE74 DUP4 PUSH2 0x113E JUMP JUMPDEST SWAP3 POP POP PUSH1 0x1 DUP2 ADD SWAP1 POP PUSH2 0xE55 JUMP JUMPDEST POP DUP6 SWAP4 POP POP POP POP SWAP3 SWAP2 POP POP JUMP JUMPDEST PUSH2 0xE98 DUP2 PUSH2 0x117F JUMP JUMPDEST DUP3 MSTORE POP POP JUMP JUMPDEST PUSH1 0x0 PUSH2 0xEAB PUSH1 0xC DUP4 PUSH2 0x115C JUMP JUMPDEST SWAP2 POP PUSH2 0xEB6 DUP3 PUSH2 0x123F JUMP JUMPDEST PUSH1 0x20 DUP3 ADD SWAP1 POP SWAP2 SWAP1 POP JUMP JUMPDEST PUSH1 0x0 PUSH2 0xECE PUSH1 0x26 DUP4 PUSH2 0x115C JUMP JUMPDEST SWAP2 POP PUSH2 0xED9 DUP3 PUSH2 0x1268 JUMP JUMPDEST PUSH1 0x40 DUP3 ADD SWAP1 POP SWAP2 SWAP1 POP JUMP JUMPDEST PUSH1 0x0 PUSH2 0xEF1 PUSH1 0x20 DUP4 PUSH2 0x115C JUMP JUMPDEST SWAP2 POP PUSH2 0xEFC DUP3 PUSH2 0x12B7 JUMP JUMPDEST PUSH1 0x20 DUP3 ADD SWAP1 POP SWAP2 SWAP1 POP JUMP JUMPDEST PUSH1 0x0 PUSH2 0xF14 PUSH1 0x10 DUP4 PUSH2 0x115C JUMP JUMPDEST SWAP2 POP PUSH2 0xF1F DUP3 PUSH2 0x12E0 JUMP JUMPDEST PUSH1 0x20 DUP3 ADD SWAP1 POP SWAP2 SWAP1 POP JUMP JUMPDEST PUSH1 0x0 PUSH2 0xF37 PUSH1 0x15 DUP4 PUSH2 0x115C JUMP JUMPDEST SWAP2 POP PUSH2 0xF42 DUP3 PUSH2 0x1309 JUMP JUMPDEST PUSH1 0x20 DUP3 ADD SWAP1 POP SWAP2 SWAP1 POP JUMP JUMPDEST PUSH2 0xF56 DUP2 PUSH2 0x11AB JUMP JUMPDEST DUP3 MSTORE POP POP JUMP JUMPDEST PUSH2 0xF65 DUP2 PUSH2 0x11B5 JUMP JUMPDEST DUP3 MSTORE POP POP JUMP JUMPDEST PUSH2 0xF74 DUP2 PUSH2 0x11B5 JUMP JUMPDEST DUP3 MSTORE POP POP JUMP JUMPDEST PUSH1 0x0 PUSH1 0x20 DUP3 ADD SWAP1 POP PUSH2 0xF8F PUSH1 0x0 DUP4 ADD DUP5 PUSH2 0xE22 JUMP JUMPDEST SWAP3 SWAP2 POP POP JUMP JUMPDEST PUSH1 0x0 PUSH1 0x40 DUP3 ADD SWAP1 POP PUSH2 0xFAA PUSH1 0x0 DUP4 ADD DUP6 PUSH2 0xE22 JUMP JUMPDEST PUSH2 0xFB7 PUSH1 0x20 DUP4 ADD DUP5 PUSH2 0xE22 JUMP JUMPDEST SWAP4 SWAP3 POP POP POP JUMP JUMPDEST PUSH1 0x0 PUSH1 0x40 DUP3 ADD SWAP1 POP PUSH2 0xFD3 PUSH1 0x0 DUP4 ADD DUP6 PUSH2 0xE22 JUMP JUMPDEST PUSH2 0xFE0 PUSH1 0x20 DUP4 ADD DUP5 PUSH2 0xE8F JUMP JUMPDEST SWAP4 SWAP3 POP POP POP JUMP JUMPDEST PUSH1 0x0 PUSH1 0x40 DUP3 ADD SWAP1 POP PUSH2 0xFFC PUSH1 0x0 DUP4 ADD DUP6 PUSH2 0xE22 JUMP JUMPDEST PUSH2 0x1009 PUSH1 0x20 DUP4 ADD DUP5 PUSH2 0xF4D JUMP JUMPDEST SWAP4 SWAP3 POP POP POP JUMP JUMPDEST PUSH1 0x0 PUSH1 0x20 DUP3 ADD SWAP1 POP DUP2 DUP2 SUB PUSH1 0x0 DUP4 ADD MSTORE PUSH2 0x102A DUP2 DUP5 PUSH2 0xE31 JUMP JUMPDEST SWAP1 POP SWAP3 SWAP2 POP POP JUMP JUMPDEST PUSH1 0x0 PUSH1 0x20 DUP3 ADD SWAP1 POP PUSH2 0x1047 PUSH1 0x0 DUP4 ADD DUP5 PUSH2 0xE8F JUMP JUMPDEST SWAP3 SWAP2 POP POP JUMP JUMPDEST PUSH1 0x0 PUSH1 0x20 DUP3 ADD SWAP1 POP DUP2 DUP2 SUB PUSH1 0x0 DUP4 ADD MSTORE PUSH2 0x1066 DUP2 PUSH2 0xE9E JUMP JUMPDEST SWAP1 POP SWAP2 SWAP1 POP JUMP JUMPDEST PUSH1 0x0 PUSH1 0x20 DUP3 ADD SWAP1 POP DUP2 DUP2 SUB PUSH1 0x0 DUP4 ADD MSTORE PUSH2 0x1086 DUP2 PUSH2 0xEC1 JUMP JUMPDEST SWAP1 POP SWAP2 SWAP1 POP JUMP JUMPDEST PUSH1 0x0 PUSH1 0x20 DUP3 ADD SWAP1 POP DUP2 DUP2 SUB PUSH1 0x0 DUP4 ADD MSTORE PUSH2 0x10A6 DUP2 PUSH2 0xEE4 JUMP JUMPDEST SWAP1 POP SWAP2 SWAP1 POP JUMP JUMPDEST PUSH1 0x0 PUSH1 0x20 DUP3 ADD SWAP1 POP DUP2 DUP2 SUB PUSH1 0x0 DUP4 ADD MSTORE PUSH2 0x10C6 DUP2 PUSH2 0xF07 JUMP JUMPDEST SWAP1 POP SWAP2 SWAP1 POP JUMP JUMPDEST PUSH1 0x0 PUSH1 0x20 DUP3 ADD SWAP1 POP DUP2 DUP2 SUB PUSH1 0x0 DUP4 ADD MSTORE PUSH2 0x10E6 DUP2 PUSH2 0xF2A JUMP JUMPDEST SWAP1 POP SWAP2 SWAP1 POP JUMP JUMPDEST PUSH1 0x0 PUSH1 0x20 DUP3 ADD SWAP1 POP PUSH2 0x1102 PUSH1 0x0 DUP4 ADD DUP5 PUSH2 0xF4D JUMP JUMPDEST SWAP3 SWAP2 POP POP JUMP JUMPDEST PUSH1 0x0 PUSH1 0x20 DUP3 ADD SWAP1 POP PUSH2 0x111D PUSH1 0x0 DUP4 ADD DUP5 PUSH2 0xF6B JUMP JUMPDEST SWAP3 SWAP2 POP POP JUMP JUMPDEST PUSH1 0x0 DUP2 SWAP1 POP PUSH1 0x20 DUP3 ADD SWAP1 POP SWAP2 SWAP1 POP JUMP JUMPDEST PUSH1 0x0 DUP2 MLOAD SWAP1 POP SWAP2 SWAP1 POP JUMP JUMPDEST PUSH1 0x0 PUSH1 0x20 DUP3 ADD SWAP1 POP SWAP2 SWAP1 POP JUMP JUMPDEST PUSH1 0x0 DUP3 DUP3 MSTORE PUSH1 0x20 DUP3 ADD SWAP1 POP SWAP3 SWAP2 POP POP JUMP JUMPDEST PUSH1 0x0 DUP3 DUP3 MSTORE PUSH1 0x20 DUP3 ADD SWAP1 POP SWAP3 SWAP2 POP POP JUMP JUMPDEST PUSH1 0x0 PUSH2 0x1178 DUP3 PUSH2 0x118B JUMP JUMPDEST SWAP1 POP SWAP2 SWAP1 POP JUMP JUMPDEST PUSH1 0x0 DUP2 ISZERO ISZERO SWAP1 POP SWAP2 SWAP1 POP JUMP JUMPDEST PUSH1 0x0 PUSH20 0xFFFFFFFFFFFFFFFFFFFFFFFFFFFFFFFFFFFFFFFF DUP3 AND SWAP1 POP SWAP2 SWAP1 POP JUMP JUMPDEST PUSH1 0x0 DUP2 SWAP1 POP SWAP2 SWAP1 POP JUMP JUMPDEST PUSH1 0x0 PUSH1 0xFF DUP3 AND SWAP1 POP SWAP2 SWAP1 POP JUMP JUMPDEST PUSH1 0x0 PUSH2 0x11CD DUP3 PUSH2 0x11AB JUMP JUMPDEST SWAP2 POP PUSH32 0xFFFFFFFFFFFFFFFFFFFFFFFFFFFFFFFFFFFFFFFFFFFFFFFFFFFFFFFFFFFFFFFF DUP3 EQ ISZERO PUSH2 0x1200 JUMPI PUSH2 0x11FF PUSH2 0x120B JUMP JUMPDEST JUMPDEST PUSH1 0x1 DUP3 ADD SWAP1 POP SWAP2 SWAP1 POP JUMP JUMPDEST PUSH32 0x4E487B7100000000000000000000000000000000000000000000000000000000 PUSH1 0x0 MSTORE PUSH1 0x11 PUSH1 0x4 MSTORE PUSH1 0x24 PUSH1 0x0 REVERT JUMPDEST PUSH1 0x0 DUP1 REVERT JUMPDEST PUSH32 0x67616D65206973206F7665720000000000000000000000000000000000000000 PUSH1 0x0 DUP3 ADD MSTORE POP JUMP JUMPDEST PUSH32 0x4F776E61626C653A206E6577206F776E657220697320746865207A65726F2061 PUSH1 0x0 DUP3 ADD MSTORE PUSH32 0x6464726573730000000000000000000000000000000000000000000000000000 PUSH1 0x20 DUP3 ADD MSTORE POP JUMP JUMPDEST PUSH32 0x4F776E61626C653A2063616C6C6572206973206E6F7420746865206F776E6572 PUSH1 0x0 DUP3 ADD MSTORE POP JUMP JUMPDEST PUSH32 0x416C72656164792061737369676E656400000000000000000000000000000000 PUSH1 0x0 DUP3 ADD MSTORE POP JUMP JUMPDEST PUSH32 0x596F752063616E2774206D616B652061206D6F76650000000000000000000000 PUSH1 0x0 DUP3 ADD MSTORE POP JUMP JUMPDEST PUSH2 0x133B DUP2 PUSH2 0x116D JUMP JUMPDEST DUP2 EQ PUSH2 0x1346 JUMPI PUSH1 0x0 DUP1 REVERT JUMPDEST POP JUMP JUMPDEST PUSH2 0x1352 DUP2 PUSH2 0x11AB JUMP JUMPDEST DUP2 EQ PUSH2 0x135D JUMPI PUSH1 0x0 DUP1 REVERT JUMPDEST POP JUMP JUMPDEST PUSH2 0x1369 DUP2 PUSH2 0x11B5 JUMP JUMPDEST DUP2 EQ PUSH2 0x1374 JUMPI PUSH1 0x0 DUP1 REVERT JUMPDEST POP JUMP INVALID LOG2 PUSH5 0x6970667358 0x22 SLT KECCAK256 0xBD 0xFC PUSH21 0x4B18758F6A275F93EB3304C4E252910B82655EBDE 0x4D 0xE8 DUP10 0xE1 SHR 0x1F PUSH7 0x8664736F6C6343 STOP ADDMOD SMOD STOP CALLER "
				},
				"gasEstimates": {
					"creation": {
						"codeDepositCost": "1007400",
						"executionCost": "infinite",
						"totalCost": "infinite"
					},
					"external": {
						"_startTurn()": "2453",
						"game()": "4784",
						"gameBoard(uint256)": "5045",
						"gameOver()": "2543",
						"getPlayersMoves()": "infinite",
						"lastPlayed()": "2580",
						"moveTaken()": "2496",
						"owner()": "2589",
						"player()": "4877",
						"playerA()": "2603",
						"playerB()": "2560",
						"playerMoves(address,uint256)": "6944",
						"pleya()": "4900",
						"renounceOwnership()": "30421",
						"s_Moves(uint8)": "2868",
						"session()": "2540",
						"startGame(address,address)": "infinite",
						"timer()": "2516",
						"transferOwnership(address)": "30879",
						"turnsTaken()": "2540",
						"winner()": "2602",
						"yourMove(uint8)": "infinite"
					},
					"internal": {
						"addReward(uint256)": "infinite",
						"checkWin()": "infinite",
						"isWinner(address)": "infinite",
						"sendPrize()": "infinite"
					}
				},
				"methodIdentifiers": {
					"_startTurn()": "041a8486",
					"game()": "c3fe3e28",
					"gameBoard(uint256)": "5d248301",
					"gameOver()": "bdb337d1",
					"getPlayersMoves()": "620633cb",
					"lastPlayed()": "c5339132",
					"moveTaken()": "554693b1",
					"owner()": "8da5cb5b",
					"player()": "48db5f89",
					"playerA()": "a285c54a",
					"playerB()": "11bb1537",
					"playerMoves(address,uint256)": "22f976ff",
					"pleya()": "1a8a8dd8",
					"renounceOwnership()": "715018a6",
					"s_Moves(uint8)": "37f612a3",
					"session()": "5e3568b8",
					"startGame(address,address)": "eb23b56b",
					"timer()": "88c9cb3c",
					"transferOwnership(address)": "f2fde38b",
					"turnsTaken()": "bc120879",
					"winner()": "dfbf53ae",
					"yourMove(uint8)": "1ea169e5"
				}
			},
			"storageLayout": {
				"storage": [
					{
						"astId": 7,
						"contract": "ddd.sol:Tris",
						"label": "_owner",
						"offset": 0,
						"slot": "0",
						"type": "t_address"
					},
					{
						"astId": 141,
						"contract": "ddd.sol:Tris",
						"label": "playerA",
						"offset": 0,
						"slot": "1",
						"type": "t_address"
					},
					{
						"astId": 143,
						"contract": "ddd.sol:Tris",
						"label": "playerB",
						"offset": 0,
						"slot": "2",
						"type": "t_address"
					},
					{
						"astId": 145,
						"contract": "ddd.sol:Tris",
						"label": "lastPlayed",
						"offset": 0,
						"slot": "3",
						"type": "t_address"
					},
					{
						"astId": 147,
						"contract": "ddd.sol:Tris",
						"label": "winner",
						"offset": 0,
						"slot": "4",
						"type": "t_address"
					},
					{
						"astId": 149,
						"contract": "ddd.sol:Tris",
						"label": "gameOver",
						"offset": 20,
						"slot": "4",
						"type": "t_bool"
					},
					{
						"astId": 151,
						"contract": "ddd.sol:Tris",
						"label": "turnsTaken",
						"offset": 0,
						"slot": "5",
						"type": "t_uint256"
					},
					{
						"astId": 153,
						"contract": "ddd.sol:Tris",
						"label": "moveTaken",
						"offset": 0,
						"slot": "6",
						"type": "t_uint256"
					},
					{
						"astId": 155,
						"contract": "ddd.sol:Tris",
						"label": "session",
						"offset": 0,
						"slot": "7",
						"type": "t_uint256"
					},
					{
						"astId": 157,
						"contract": "ddd.sol:Tris",
						"label": "_startTurn",
						"offset": 0,
						"slot": "8",
						"type": "t_uint256"
					},
					{
						"astId": 159,
						"contract": "ddd.sol:Tris",
						"label": "timer",
						"offset": 0,
						"slot": "9",
						"type": "t_bool"
					},
					{
						"astId": 198,
						"contract": "ddd.sol:Tris",
						"label": "winningCombos",
						"offset": 0,
						"slot": "10",
						"type": "t_array(t_array(t_uint8)3_storage)8_storage"
					},
					{
						"astId": 209,
						"contract": "ddd.sol:Tris",
						"label": "gameBoard",
						"offset": 0,
						"slot": "18",
						"type": "t_array(t_address)dyn_storage"
					},
					{
						"astId": 220,
						"contract": "ddd.sol:Tris",
						"label": "player",
						"offset": 0,
						"slot": "19",
						"type": "t_struct(Player)217_storage"
					},
					{
						"astId": 228,
						"contract": "ddd.sol:Tris",
						"label": "pleya",
						"offset": 0,
						"slot": "21",
						"type": "t_struct(Playe)225_storage"
					},
					{
						"astId": 239,
						"contract": "ddd.sol:Tris",
						"label": "game",
						"offset": 0,
						"slot": "22",
						"type": "t_struct(Game)236_storage"
					},
					{
						"astId": 283,
						"contract": "ddd.sol:Tris",
						"label": "playerMoves",
						"offset": 0,
						"slot": "25",
						"type": "t_mapping(t_address,t_array(t_uint8)dyn_storage)"
					},
					{
						"astId": 287,
						"contract": "ddd.sol:Tris",
						"label": "s_Moves",
						"offset": 0,
						"slot": "26",
						"type": "t_mapping(t_uint8,t_address)"
					}
				],
				"types": {
					"t_address": {
						"encoding": "inplace",
						"label": "address",
						"numberOfBytes": "20"
					},
					"t_array(t_address)dyn_storage": {
						"base": "t_address",
						"encoding": "dynamic_array",
						"label": "address[]",
						"numberOfBytes": "32"
					},
					"t_array(t_array(t_uint8)3_storage)8_storage": {
						"base": "t_array(t_uint8)3_storage",
						"encoding": "inplace",
						"label": "uint8[3][8]",
						"numberOfBytes": "256"
					},
					"t_array(t_uint256)dyn_storage": {
						"base": "t_uint256",
						"encoding": "dynamic_array",
						"label": "uint256[]",
						"numberOfBytes": "32"
					},
					"t_array(t_uint8)3_storage": {
						"base": "t_uint8",
						"encoding": "inplace",
						"label": "uint8[3]",
						"numberOfBytes": "32"
					},
					"t_array(t_uint8)dyn_storage": {
						"base": "t_uint8",
						"encoding": "dynamic_array",
						"label": "uint8[]",
						"numberOfBytes": "32"
					},
					"t_bool": {
						"encoding": "inplace",
						"label": "bool",
						"numberOfBytes": "1"
					},
					"t_mapping(t_address,t_array(t_uint8)dyn_storage)": {
						"encoding": "mapping",
						"key": "t_address",
						"label": "mapping(address => uint8[])",
						"numberOfBytes": "32",
						"value": "t_array(t_uint8)dyn_storage"
					},
					"t_mapping(t_uint8,t_address)": {
						"encoding": "mapping",
						"key": "t_uint8",
						"label": "mapping(uint8 => address)",
						"numberOfBytes": "32",
						"value": "t_address"
					},
					"t_struct(Game)236_storage": {
						"encoding": "inplace",
						"label": "struct Tris.Game",
						"members": [
							{
								"astId": 230,
								"contract": "ddd.sol:Tris",
								"label": "lastPlayed",
								"offset": 0,
								"slot": "0",
								"type": "t_address"
							},
							{
								"astId": 232,
								"contract": "ddd.sol:Tris",
								"label": "playTime",
								"offset": 0,
								"slot": "1",
								"type": "t_uint256"
							},
							{
								"astId": 235,
								"contract": "ddd.sol:Tris",
								"label": "gameBoard",
								"offset": 0,
								"slot": "2",
								"type": "t_array(t_uint256)dyn_storage"
							}
						],
						"numberOfBytes": "96"
					},
					"t_struct(Playe)225_storage": {
						"encoding": "inplace",
						"label": "struct Tris.Playe",
						"members": [
							{
								"astId": 222,
								"contract": "ddd.sol:Tris",
								"label": "playerA",
								"offset": 0,
								"slot": "0",
								"type": "t_address"
							},
							{
								"astId": 224,
								"contract": "ddd.sol:Tris",
								"label": "start",
								"offset": 20,
								"slot": "0",
								"type": "t_bool"
							}
						],
						"numberOfBytes": "32"
					},
					"t_struct(Player)217_storage": {
						"encoding": "inplace",
						"label": "struct Tris.Player",
						"members": [
							{
								"astId": 211,
								"contract": "ddd.sol:Tris",
								"label": "user",
								"offset": 0,
								"slot": "0",
								"type": "t_address"
							},
							{
								"astId": 213,
								"contract": "ddd.sol:Tris",
								"label": "turnIsFinished",
								"offset": 20,
								"slot": "0",
								"type": "t_bool"
							},
							{
								"astId": 216,
								"contract": "ddd.sol:Tris",
								"label": "_playerMoves",
								"offset": 0,
								"slot": "1",
								"type": "t_array(t_uint256)dyn_storage"
							}
						],
						"numberOfBytes": "64"
					},
					"t_uint256": {
						"encoding": "inplace",
						"label": "uint256",
						"numberOfBytes": "32"
					},
					"t_uint8": {
						"encoding": "inplace",
						"label": "uint8",
						"numberOfBytes": "1"
					}
				}
			},
			"userdoc": {
				"kind": "user",
				"methods": {},
				"version": 1
			}
		}
	}
}