{
	"ddd.sol": {
		"Tris": {
			"abi": [
				{
					"inputs": [],
					"stateMutability": "nonpayable",
					"type": "constructor"
				},
				{
					"anonymous": false,
					"inputs": [
						{
							"indexed": false,
							"internalType": "address",
							"name": "playerA",
							"type": "address"
						},
						{
							"indexed": false,
							"internalType": "address",
							"name": "playerB",
							"type": "address"
						}
					],
					"name": "GameStarted",
					"type": "event"
				},
				{
					"anonymous": false,
					"inputs": [
						{
							"indexed": true,
							"internalType": "address",
							"name": "previousOwner",
							"type": "address"
						},
						{
							"indexed": true,
							"internalType": "address",
							"name": "newOwner",
							"type": "address"
						}
					],
					"name": "OwnershipTransferred",
					"type": "event"
				},
				{
					"inputs": [],
					"name": "_startTurn",
					"outputs": [
						{
							"internalType": "uint256",
							"name": "",
							"type": "uint256"
						}
					],
					"stateMutability": "view",
					"type": "function"
				},
				{
					"inputs": [],
					"name": "game",
					"outputs": [
						{
							"internalType": "address",
							"name": "lastPlayed",
							"type": "address"
						},
						{
							"internalType": "uint256",
							"name": "playTime",
							"type": "uint256"
						}
					],
					"stateMutability": "view",
					"type": "function"
				},
				{
					"inputs": [
						{
							"internalType": "uint256",
							"name": "",
							"type": "uint256"
						}
					],
					"name": "gameBoard",
					"outputs": [
						{
							"internalType": "address",
							"name": "",
							"type": "address"
						}
					],
					"stateMutability": "view",
					"type": "function"
				},
				{
					"inputs": [],
					"name": "gameOver",
					"outputs": [
						{
							"internalType": "bool",
							"name": "",
							"type": "bool"
						}
					],
					"stateMutability": "view",
					"type": "function"
				},
				{
					"inputs": [],
					"name": "getPlayersMoves",
					"outputs": [
						{
							"internalType": "uint8[]",
							"name": "",
							"type": "uint8[]"
						}
					],
					"stateMutability": "view",
					"type": "function"
				},
				{
					"inputs": [],
					"name": "lastPlayed",
					"outputs": [
						{
							"internalType": "address",
							"name": "",
							"type": "address"
						}
					],
					"stateMutability": "view",
					"type": "function"
				},
				{
					"inputs": [],
					"name": "moveTaken",
					"outputs": [
						{
							"internalType": "uint256",
							"name": "",
							"type": "uint256"
						}
					],
					"stateMutability": "view",
					"type": "function"
				},
				{
					"inputs": [],
					"name": "owner",
					"outputs": [
						{
							"internalType": "address",
							"name": "",
							"type": "address"
						}
					],
					"stateMutability": "view",
					"type": "function"
				},
				{
					"inputs": [],
					"name": "player",
					"outputs": [
						{
							"internalType": "address",
							"name": "user",
							"type": "address"
						},
						{
							"internalType": "bool",
							"name": "turnIsFinished",
							"type": "bool"
						}
					],
					"stateMutability": "view",
					"type": "function"
				},
				{
					"inputs": [],
					"name": "playerA",
					"outputs": [
						{
							"internalType": "address",
							"name": "",
							"type": "address"
						}
					],
					"stateMutability": "view",
					"type": "function"
				},
				{
					"inputs": [],
					"name": "playerB",
					"outputs": [
						{
							"internalType": "address",
							"name": "",
							"type": "address"
						}
					],
					"stateMutability": "view",
					"type": "function"
				},
				{
					"inputs": [],
					"name": "pleya",
					"outputs": [
						{
							"internalType": "address",
							"name": "playerA",
							"type": "address"
						},
						{
							"internalType": "bool",
							"name": "start",
							"type": "bool"
						}
					],
					"stateMutability": "view",
					"type": "function"
				},
				{
					"inputs": [],
					"name": "renounceOwnership",
					"outputs": [],
					"stateMutability": "nonpayable",
					"type": "function"
				},
				{
					"inputs": [
						{
							"internalType": "uint8",
							"name": "",
							"type": "uint8"
						}
					],
					"name": "s_moves",
					"outputs": [
						{
							"internalType": "address",
							"name": "",
							"type": "address"
						}
					],
					"stateMutability": "view",
					"type": "function"
				},
				{
					"inputs": [
						{
							"internalType": "address",
							"name": "",
							"type": "address"
						},
						{
							"internalType": "uint256",
							"name": "",
							"type": "uint256"
						}
					],
					"name": "s_playerMoves",
					"outputs": [
						{
							"internalType": "uint8",
							"name": "",
							"type": "uint8"
						}
					],
					"stateMutability": "view",
					"type": "function"
				},
				{
					"inputs": [],
					"name": "session",
					"outputs": [
						{
							"internalType": "uint256",
							"name": "",
							"type": "uint256"
						}
					],
					"stateMutability": "view",
					"type": "function"
				},
				{
					"inputs": [
						{
							"internalType": "address",
							"name": "_player1",
							"type": "address"
						},
						{
							"internalType": "address",
							"name": "_player2",
							"type": "address"
						}
					],
					"name": "startGame",
					"outputs": [],
					"stateMutability": "nonpayable",
					"type": "function"
				},
				{
					"inputs": [],
					"name": "timer",
					"outputs": [
						{
							"internalType": "bool",
							"name": "",
							"type": "bool"
						}
					],
					"stateMutability": "view",
					"type": "function"
				},
				{
					"inputs": [
						{
							"internalType": "address",
							"name": "newOwner",
							"type": "address"
						}
					],
					"name": "transferOwnership",
					"outputs": [],
					"stateMutability": "nonpayable",
					"type": "function"
				},
				{
					"inputs": [],
					"name": "turnsTaken",
					"outputs": [
						{
							"internalType": "uint256",
							"name": "",
							"type": "uint256"
						}
					],
					"stateMutability": "view",
					"type": "function"
				},
				{
					"inputs": [],
					"name": "winner",
					"outputs": [
						{
							"internalType": "address",
							"name": "",
							"type": "address"
						}
					],
					"stateMutability": "view",
					"type": "function"
				},
				{
					"inputs": [
						{
							"internalType": "uint8",
							"name": "_move",
							"type": "uint8"
						}
					],
					"name": "yourMove",
					"outputs": [],
					"stateMutability": "nonpayable",
					"type": "function"
				}
			],
			"devdoc": {
				"kind": "dev",
				"methods": {
					"owner()": {
						"details": "Returns the address of the current owner."
					},
					"renounceOwnership()": {
						"details": "Leaves the contract without owner. It will not be possible to call `onlyOwner` functions anymore. Can only be called by the current owner. NOTE: Renouncing ownership will leave the contract without an owner, thereby removing any functionality that is only available to the owner."
					},
					"transferOwnership(address)": {
						"details": "Transfers ownership of the contract to a new account (`newOwner`). Can only be called by the current owner."
					}
				},
				"version": 1
			},
			"evm": {
				"assembly": "    /* \"ddd.sol\":116:2751  contract Tris is Ownable {\r... */\n  mstore(0x40, 0x80)\n    /* \"ddd.sol\":444:499  constructor () { \r... */\n  callvalue\n  dup1\n  iszero\n  tag_1\n  jumpi\n  0x00\n  dup1\n  revert\ntag_1:\n  pop\n    /* \"@openzeppelin/contracts/access/Ownable.sol\":936:968  _transferOwnership(_msgSender()) */\n  tag_5\n    /* \"@openzeppelin/contracts/access/Ownable.sol\":955:967  _msgSender() */\n  tag_6\n    /* \"@openzeppelin/contracts/access/Ownable.sol\":955:965  _msgSender */\n  shl(0x20, tag_7)\n    /* \"@openzeppelin/contracts/access/Ownable.sol\":955:967  _msgSender() */\n  0x20\n  shr\n  jump\t// in\ntag_6:\n    /* \"@openzeppelin/contracts/access/Ownable.sol\":936:954  _transferOwnership */\n  shl(0x20, tag_8)\n    /* \"@openzeppelin/contracts/access/Ownable.sol\":936:968  _transferOwnership(_msgSender()) */\n  0x20\n  shr\n  jump\t// in\ntag_5:\n    /* \"ddd.sol\":481:491  30 seconds */\n  0x1e\n    /* \"ddd.sol\":471:478  session */\n  0x07\n    /* \"ddd.sol\":471:491  session = 30 seconds */\n  dup2\n  swap1\n  sstore\n  pop\n    /* \"ddd.sol\":116:2751  contract Tris is Ownable {\r... */\n  jump(tag_10)\n    /* \"@openzeppelin/contracts/utils/Context.sol\":640:736  function _msgSender() internal view virtual returns (address) {... */\ntag_7:\n    /* \"@openzeppelin/contracts/utils/Context.sol\":693:700  address */\n  0x00\n    /* \"@openzeppelin/contracts/utils/Context.sol\":719:729  msg.sender */\n  caller\n    /* \"@openzeppelin/contracts/utils/Context.sol\":712:729  return msg.sender */\n  swap1\n  pop\n    /* \"@openzeppelin/contracts/utils/Context.sol\":640:736  function _msgSender() internal view virtual returns (address) {... */\n  swap1\n  jump\t// out\n    /* \"@openzeppelin/contracts/access/Ownable.sol\":2433:2620  function _transferOwnership(address newOwner) internal virtual {... */\ntag_8:\n    /* \"@openzeppelin/contracts/access/Ownable.sol\":2506:2522  address oldOwner */\n  0x00\n    /* \"@openzeppelin/contracts/access/Ownable.sol\":2525:2531  _owner */\n  dup1\n  0x00\n  swap1\n  sload\n  swap1\n  0x0100\n  exp\n  swap1\n  div\n  0xffffffffffffffffffffffffffffffffffffffff\n  and\n    /* \"@openzeppelin/contracts/access/Ownable.sol\":2506:2531  address oldOwner = _owner */\n  swap1\n  pop\n    /* \"@openzeppelin/contracts/access/Ownable.sol\":2550:2558  newOwner */\n  dup2\n    /* \"@openzeppelin/contracts/access/Ownable.sol\":2541:2547  _owner */\n  0x00\n  dup1\n    /* \"@openzeppelin/contracts/access/Ownable.sol\":2541:2558  _owner = newOwner */\n  0x0100\n  exp\n  dup2\n  sload\n  dup2\n  0xffffffffffffffffffffffffffffffffffffffff\n  mul\n  not\n  and\n  swap1\n  dup4\n  0xffffffffffffffffffffffffffffffffffffffff\n  and\n  mul\n  or\n  swap1\n  sstore\n  pop\n    /* \"@openzeppelin/contracts/access/Ownable.sol\":2604:2612  newOwner */\n  dup2\n    /* \"@openzeppelin/contracts/access/Ownable.sol\":2573:2613  OwnershipTransferred(oldOwner, newOwner) */\n  0xffffffffffffffffffffffffffffffffffffffff\n  and\n    /* \"@openzeppelin/contracts/access/Ownable.sol\":2594:2602  oldOwner */\n  dup2\n    /* \"@openzeppelin/contracts/access/Ownable.sol\":2573:2613  OwnershipTransferred(oldOwner, newOwner) */\n  0xffffffffffffffffffffffffffffffffffffffff\n  and\n  0x8be0079c531659141344cd1fd0a4f28419497f9722a3daafe3b4186f6b6457e0\n  mload(0x40)\n  mload(0x40)\n  dup1\n  swap2\n  sub\n  swap1\n  log3\n    /* \"@openzeppelin/contracts/access/Ownable.sol\":2496:2620  {... */\n  pop\n    /* \"@openzeppelin/contracts/access/Ownable.sol\":2433:2620  function _transferOwnership(address newOwner) internal virtual {... */\n  pop\n  jump\t// out\n    /* \"ddd.sol\":116:2751  contract Tris is Ownable {\r... */\ntag_10:\n  dataSize(sub_0)\n  dup1\n  dataOffset(sub_0)\n  0x00\n  codecopy\n  0x00\n  return\nstop\n\nsub_0: assembly {\n        /* \"ddd.sol\":116:2751  contract Tris is Ownable {\r... */\n      mstore(0x40, 0x80)\n      callvalue\n      dup1\n      iszero\n      tag_1\n      jumpi\n      0x00\n      dup1\n      revert\n    tag_1:\n      pop\n      jumpi(tag_2, lt(calldatasize, 0x04))\n      shr(0xe0, calldataload(0x00))\n      dup1\n      0x8da5cb5b\n      gt\n      tag_25\n      jumpi\n      dup1\n      0xc3fe3e28\n      gt\n      tag_26\n      jumpi\n      dup1\n      0xc3fe3e28\n      eq\n      tag_19\n      jumpi\n      dup1\n      0xc5339132\n      eq\n      tag_20\n      jumpi\n      dup1\n      0xdfbf53ae\n      eq\n      tag_21\n      jumpi\n      dup1\n      0xeb23b56b\n      eq\n      tag_22\n      jumpi\n      dup1\n      0xf2fde38b\n      eq\n      tag_23\n      jumpi\n      dup1\n      0xf96f3be9\n      eq\n      tag_24\n      jumpi\n      jump(tag_2)\n    tag_26:\n      dup1\n      0x8da5cb5b\n      eq\n      tag_14\n      jumpi\n      dup1\n      0x90228301\n      eq\n      tag_15\n      jumpi\n      dup1\n      0xa285c54a\n      eq\n      tag_16\n      jumpi\n      dup1\n      0xbc120879\n      eq\n      tag_17\n      jumpi\n      dup1\n      0xbdb337d1\n      eq\n      tag_18\n      jumpi\n      jump(tag_2)\n    tag_25:\n      dup1\n      0x554693b1\n      gt\n      tag_27\n      jumpi\n      dup1\n      0x554693b1\n      eq\n      tag_8\n      jumpi\n      dup1\n      0x5d248301\n      eq\n      tag_9\n      jumpi\n      dup1\n      0x5e3568b8\n      eq\n      tag_10\n      jumpi\n      dup1\n      0x620633cb\n      eq\n      tag_11\n      jumpi\n      dup1\n      0x715018a6\n      eq\n      tag_12\n      jumpi\n      dup1\n      0x88c9cb3c\n      eq\n      tag_13\n      jumpi\n      jump(tag_2)\n    tag_27:\n      dup1\n      0x041a8486\n      eq\n      tag_3\n      jumpi\n      dup1\n      0x11bb1537\n      eq\n      tag_4\n      jumpi\n      dup1\n      0x1a8a8dd8\n      eq\n      tag_5\n      jumpi\n      dup1\n      0x1ea169e5\n      eq\n      tag_6\n      jumpi\n      dup1\n      0x48db5f89\n      eq\n      tag_7\n      jumpi\n    tag_2:\n      0x00\n      dup1\n      revert\n        /* \"ddd.sol\":387:409  uint public _startTurn */\n    tag_3:\n      tag_28\n      tag_29\n      jump\t// in\n    tag_28:\n      mload(0x40)\n      tag_30\n      swap2\n      swap1\n      tag_31\n      jump\t// in\n    tag_30:\n      mload(0x40)\n      dup1\n      swap2\n      sub\n      swap1\n      return\n        /* \"ddd.sol\":178:200  address public playerB */\n    tag_4:\n      tag_32\n      tag_33\n      jump\t// in\n    tag_32:\n      mload(0x40)\n      tag_34\n      swap2\n      swap1\n      tag_35\n      jump\t// in\n    tag_34:\n      mload(0x40)\n      dup1\n      swap2\n      sub\n      swap1\n      return\n        /* \"ddd.sol\":840:858  Playe public pleya */\n    tag_5:\n      tag_36\n      tag_37\n      jump\t// in\n    tag_36:\n      mload(0x40)\n      tag_38\n      swap3\n      swap2\n      swap1\n      tag_39\n      jump\t// in\n    tag_38:\n      mload(0x40)\n      dup1\n      swap2\n      sub\n      swap1\n      return\n        /* \"ddd.sol\":1652:2208  function yourMove(uint8 _move) public {\r... */\n    tag_6:\n      tag_40\n      0x04\n      dup1\n      calldatasize\n      sub\n      dup2\n      add\n      swap1\n      tag_41\n      swap2\n      swap1\n      tag_42\n      jump\t// in\n    tag_41:\n      tag_43\n      jump\t// in\n    tag_40:\n      stop\n        /* \"ddd.sol\":681:701  Player public player */\n    tag_7:\n      tag_44\n      tag_45\n      jump\t// in\n    tag_44:\n      mload(0x40)\n      tag_46\n      swap3\n      swap2\n      swap1\n      tag_39\n      jump\t// in\n    tag_46:\n      mload(0x40)\n      dup1\n      swap2\n      sub\n      swap1\n      return\n        /* \"ddd.sol\":327:351  uint256 public moveTaken */\n    tag_8:\n      tag_47\n      tag_48\n      jump\t// in\n    tag_47:\n      mload(0x40)\n      tag_49\n      swap2\n      swap1\n      tag_31\n      jump\t// in\n    tag_49:\n      mload(0x40)\n      dup1\n      swap2\n      sub\n      swap1\n      return\n        /* \"ddd.sol\":533:559  address[] public gameBoard */\n    tag_9:\n      tag_50\n      0x04\n      dup1\n      calldatasize\n      sub\n      dup2\n      add\n      swap1\n      tag_51\n      swap2\n      swap1\n      tag_52\n      jump\t// in\n    tag_51:\n      tag_53\n      jump\t// in\n    tag_50:\n      mload(0x40)\n      tag_54\n      swap2\n      swap1\n      tag_35\n      jump\t// in\n    tag_54:\n      mload(0x40)\n      dup1\n      swap2\n      sub\n      swap1\n      return\n        /* \"ddd.sol\":358:380  uint256 public session */\n    tag_10:\n      tag_55\n      tag_56\n      jump\t// in\n    tag_55:\n      mload(0x40)\n      tag_57\n      swap2\n      swap1\n      tag_31\n      jump\t// in\n    tag_57:\n      mload(0x40)\n      dup1\n      swap2\n      sub\n      swap1\n      return\n        /* \"ddd.sol\":2631:2746  function getPlayersMoves() public view returns (uint8[] memory) {\r... */\n    tag_11:\n      tag_58\n      tag_59\n      jump\t// in\n    tag_58:\n      mload(0x40)\n      tag_60\n      swap2\n      swap1\n      tag_61\n      jump\t// in\n    tag_60:\n      mload(0x40)\n      dup1\n      swap2\n      sub\n      swap1\n      return\n        /* \"@openzeppelin/contracts/access/Ownable.sol\":1831:1932  function renounceOwnership() public virtual onlyOwner {... */\n    tag_12:\n      tag_62\n      tag_63\n      jump\t// in\n    tag_62:\n      stop\n        /* \"ddd.sol\":416:433  bool public timer */\n    tag_13:\n      tag_64\n      tag_65\n      jump\t// in\n    tag_64:\n      mload(0x40)\n      tag_66\n      swap2\n      swap1\n      tag_67\n      jump\t// in\n    tag_66:\n      mload(0x40)\n      dup1\n      swap2\n      sub\n      swap1\n      return\n        /* \"@openzeppelin/contracts/access/Ownable.sol\":1201:1286  function owner() public view virtual returns (address) {... */\n    tag_14:\n      tag_68\n      tag_69\n      jump\t// in\n    tag_68:\n      mload(0x40)\n      tag_70\n      swap2\n      swap1\n      tag_35\n      jump\t// in\n    tag_70:\n      mload(0x40)\n      dup1\n      swap2\n      sub\n      swap1\n      return\n        /* \"ddd.sol\":1550:1598  mapping(address => uint8[]) public s_playerMoves */\n    tag_15:\n      tag_71\n      0x04\n      dup1\n      calldatasize\n      sub\n      dup2\n      add\n      swap1\n      tag_72\n      swap2\n      swap1\n      tag_73\n      jump\t// in\n    tag_72:\n      tag_74\n      jump\t// in\n    tag_71:\n      mload(0x40)\n      tag_75\n      swap2\n      swap1\n      tag_76\n      jump\t// in\n    tag_75:\n      mload(0x40)\n      dup1\n      swap2\n      sub\n      swap1\n      return\n        /* \"ddd.sol\":148:170  address public playerA */\n    tag_16:\n      tag_77\n      tag_78\n      jump\t// in\n    tag_77:\n      mload(0x40)\n      tag_79\n      swap2\n      swap1\n      tag_35\n      jump\t// in\n    tag_79:\n      mload(0x40)\n      dup1\n      swap2\n      sub\n      swap1\n      return\n        /* \"ddd.sol\":295:320  uint256 public turnsTaken */\n    tag_17:\n      tag_80\n      tag_81\n      jump\t// in\n    tag_80:\n      mload(0x40)\n      tag_82\n      swap2\n      swap1\n      tag_31\n      jump\t// in\n    tag_82:\n      mload(0x40)\n      dup1\n      swap2\n      sub\n      swap1\n      return\n        /* \"ddd.sol\":268:288  bool public gameOver */\n    tag_18:\n      tag_83\n      tag_84\n      jump\t// in\n    tag_83:\n      mload(0x40)\n      tag_85\n      swap2\n      swap1\n      tag_67\n      jump\t// in\n    tag_85:\n      mload(0x40)\n      dup1\n      swap2\n      sub\n      swap1\n      return\n        /* \"ddd.sol\":1139:1155  Game public game */\n    tag_19:\n      tag_86\n      tag_87\n      jump\t// in\n    tag_86:\n      mload(0x40)\n      tag_88\n      swap3\n      swap2\n      swap1\n      tag_89\n      jump\t// in\n    tag_88:\n      mload(0x40)\n      dup1\n      swap2\n      sub\n      swap1\n      return\n        /* \"ddd.sol\":208:233  address public lastPlayed */\n    tag_20:\n      tag_90\n      tag_91\n      jump\t// in\n    tag_90:\n      mload(0x40)\n      tag_92\n      swap2\n      swap1\n      tag_35\n      jump\t// in\n    tag_92:\n      mload(0x40)\n      dup1\n      swap2\n      sub\n      swap1\n      return\n        /* \"ddd.sol\":240:261  address public winner */\n    tag_21:\n      tag_93\n      tag_94\n      jump\t// in\n    tag_93:\n      mload(0x40)\n      tag_95\n      swap2\n      swap1\n      tag_35\n      jump\t// in\n    tag_95:\n      mload(0x40)\n      dup1\n      swap2\n      sub\n      swap1\n      return\n        /* \"ddd.sol\":1323:1538  function startGame(address _player1, address _player2) external {\r... */\n    tag_22:\n      tag_96\n      0x04\n      dup1\n      calldatasize\n      sub\n      dup2\n      add\n      swap1\n      tag_97\n      swap2\n      swap1\n      tag_98\n      jump\t// in\n    tag_97:\n      tag_99\n      jump\t// in\n    tag_96:\n      stop\n        /* \"@openzeppelin/contracts/access/Ownable.sol\":2081:2279  function transferOwnership(address newOwner) public virtual onlyOwner {... */\n    tag_23:\n      tag_100\n      0x04\n      dup1\n      calldatasize\n      sub\n      dup2\n      add\n      swap1\n      tag_101\n      swap2\n      swap1\n      tag_102\n      jump\t// in\n    tag_101:\n      tag_103\n      jump\t// in\n    tag_100:\n      stop\n        /* \"ddd.sol\":1605:1645  mapping(uint8 => address) public s_moves */\n    tag_24:\n      tag_104\n      0x04\n      dup1\n      calldatasize\n      sub\n      dup2\n      add\n      swap1\n      tag_105\n      swap2\n      swap1\n      tag_42\n      jump\t// in\n    tag_105:\n      tag_106\n      jump\t// in\n    tag_104:\n      mload(0x40)\n      tag_107\n      swap2\n      swap1\n      tag_35\n      jump\t// in\n    tag_107:\n      mload(0x40)\n      dup1\n      swap2\n      sub\n      swap1\n      return\n        /* \"ddd.sol\":387:409  uint public _startTurn */\n    tag_29:\n      sload(0x08)\n      dup2\n      jump\t// out\n        /* \"ddd.sol\":178:200  address public playerB */\n    tag_33:\n      0x02\n      0x00\n      swap1\n      sload\n      swap1\n      0x0100\n      exp\n      swap1\n      div\n      0xffffffffffffffffffffffffffffffffffffffff\n      and\n      dup2\n      jump\t// out\n        /* \"ddd.sol\":840:858  Playe public pleya */\n    tag_37:\n      0x0d\n      dup1\n      0x00\n      add\n      0x00\n      swap1\n      sload\n      swap1\n      0x0100\n      exp\n      swap1\n      div\n      0xffffffffffffffffffffffffffffffffffffffff\n      and\n      swap1\n      dup1\n      0x00\n      add\n      0x14\n      swap1\n      sload\n      swap1\n      0x0100\n      exp\n      swap1\n      div\n      0xff\n      and\n      swap1\n      pop\n      dup3\n      jump\t// out\n        /* \"ddd.sol\":1652:2208  function yourMove(uint8 _move) public {\r... */\n    tag_43:\n        /* \"ddd.sol\":1710:1718  gameOver */\n      0x04\n      0x14\n      swap1\n      sload\n      swap1\n      0x0100\n      exp\n      swap1\n      div\n      0xff\n      and\n        /* \"ddd.sol\":1709:1718  !gameOver */\n      iszero\n        /* \"ddd.sol\":1701:1735  require(!gameOver, \"game is over\") */\n      tag_109\n      jumpi\n      mload(0x40)\n      0x08c379a000000000000000000000000000000000000000000000000000000000\n      dup2\n      mstore\n      0x04\n      add\n      tag_110\n      swap1\n      tag_111\n      jump\t// in\n    tag_110:\n      mload(0x40)\n      dup1\n      swap2\n      sub\n      swap1\n      revert\n    tag_109:\n        /* \"ddd.sol\":1770:1777  playerA */\n      0x01\n      0x00\n      swap1\n      sload\n      swap1\n      0x0100\n      exp\n      swap1\n      div\n      0xffffffffffffffffffffffffffffffffffffffff\n      and\n        /* \"ddd.sol\":1756:1777  msg.sender == playerA */\n      0xffffffffffffffffffffffffffffffffffffffff\n      and\n        /* \"ddd.sol\":1756:1766  msg.sender */\n      caller\n        /* \"ddd.sol\":1756:1777  msg.sender == playerA */\n      0xffffffffffffffffffffffffffffffffffffffff\n      and\n      eq\n        /* \"ddd.sol\":1756:1802  msg.sender == playerA || msg.sender == playerB */\n      dup1\n      tag_112\n      jumpi\n      pop\n        /* \"ddd.sol\":1795:1802  playerB */\n      0x02\n      0x00\n      swap1\n      sload\n      swap1\n      0x0100\n      exp\n      swap1\n      div\n      0xffffffffffffffffffffffffffffffffffffffff\n      and\n        /* \"ddd.sol\":1781:1802  msg.sender == playerB */\n      0xffffffffffffffffffffffffffffffffffffffff\n      and\n        /* \"ddd.sol\":1781:1791  msg.sender */\n      caller\n        /* \"ddd.sol\":1781:1802  msg.sender == playerB */\n      0xffffffffffffffffffffffffffffffffffffffff\n      and\n      eq\n        /* \"ddd.sol\":1756:1802  msg.sender == playerA || msg.sender == playerB */\n    tag_112:\n        /* \"ddd.sol\":1755:1834  (msg.sender == playerA || msg.sender == playerB) && (msg.sender != lastPlayed ) */\n      dup1\n      iszero\n      tag_113\n      jumpi\n      pop\n        /* \"ddd.sol\":1822:1832  lastPlayed */\n      0x03\n      0x00\n      swap1\n      sload\n      swap1\n      0x0100\n      exp\n      swap1\n      div\n      0xffffffffffffffffffffffffffffffffffffffff\n      and\n        /* \"ddd.sol\":1808:1832  msg.sender != lastPlayed */\n      0xffffffffffffffffffffffffffffffffffffffff\n      and\n        /* \"ddd.sol\":1808:1818  msg.sender */\n      caller\n        /* \"ddd.sol\":1808:1832  msg.sender != lastPlayed */\n      0xffffffffffffffffffffffffffffffffffffffff\n      and\n      eq\n      iszero\n        /* \"ddd.sol\":1755:1834  (msg.sender == playerA || msg.sender == playerB) && (msg.sender != lastPlayed ) */\n    tag_113:\n        /* \"ddd.sol\":1747:1860  require((msg.sender == playerA || msg.sender == playerB) && (msg.sender != lastPlayed ), \"You can't make a move\") */\n      tag_114\n      jumpi\n      mload(0x40)\n      0x08c379a000000000000000000000000000000000000000000000000000000000\n      dup2\n      mstore\n      0x04\n      add\n      tag_115\n      swap1\n      tag_116\n      jump\t// in\n    tag_115:\n      mload(0x40)\n      dup1\n      swap2\n      sub\n      swap1\n      revert\n    tag_114:\n        /* \"ddd.sol\":2036:2037  0 */\n      0x00\n        /* \"ddd.sol\":2028:2033  _move */\n      dup2\n        /* \"ddd.sol\":2028:2037  _move > 0 */\n      0xff\n      and\n      gt\n        /* \"ddd.sol\":2028:2051  _move > 0 && _move < 10 */\n      dup1\n      iszero\n      tag_117\n      jumpi\n      pop\n        /* \"ddd.sol\":2049:2051  10 */\n      0x0a\n        /* \"ddd.sol\":2041:2046  _move */\n      dup2\n        /* \"ddd.sol\":2041:2051  _move < 10 */\n      0xff\n      and\n      lt\n        /* \"ddd.sol\":2028:2051  _move > 0 && _move < 10 */\n    tag_117:\n        /* \"ddd.sol\":2020:2052  require(_move > 0 && _move < 10) */\n      tag_118\n      jumpi\n      0x00\n      dup1\n      revert\n    tag_118:\n        /* \"ddd.sol\":2097:2098  0 */\n      0x00\n        /* \"ddd.sol\":2071:2099  s_moves[_move] == address(0) */\n      0xffffffffffffffffffffffffffffffffffffffff\n      and\n        /* \"ddd.sol\":2071:2078  s_moves */\n      0x12\n        /* \"ddd.sol\":2071:2085  s_moves[_move] */\n      0x00\n        /* \"ddd.sol\":2079:2084  _move */\n      dup4\n        /* \"ddd.sol\":2071:2085  s_moves[_move] */\n      0xff\n      and\n      0xff\n      and\n      dup2\n      mstore\n      0x20\n      add\n      swap1\n      dup2\n      mstore\n      0x20\n      add\n      0x00\n      keccak256\n      0x00\n      swap1\n      sload\n      swap1\n      0x0100\n      exp\n      swap1\n      div\n      0xffffffffffffffffffffffffffffffffffffffff\n      and\n        /* \"ddd.sol\":2071:2099  s_moves[_move] == address(0) */\n      0xffffffffffffffffffffffffffffffffffffffff\n      and\n      eq\n        /* \"ddd.sol\":2063:2120  require(s_moves[_move] == address(0), \"Already assigned\") */\n      tag_119\n      jumpi\n      mload(0x40)\n      0x08c379a000000000000000000000000000000000000000000000000000000000\n      dup2\n      mstore\n      0x04\n      add\n      tag_120\n      swap1\n      tag_121\n      jump\t// in\n    tag_120:\n      mload(0x40)\n      dup1\n      swap2\n      sub\n      swap1\n      revert\n    tag_119:\n        /* \"ddd.sol\":2132:2145  s_playerMoves */\n      0x11\n        /* \"ddd.sol\":2132:2157  s_playerMoves[msg.sender] */\n      0x00\n        /* \"ddd.sol\":2146:2156  msg.sender */\n      caller\n        /* \"ddd.sol\":2132:2157  s_playerMoves[msg.sender] */\n      0xffffffffffffffffffffffffffffffffffffffff\n      and\n      0xffffffffffffffffffffffffffffffffffffffff\n      and\n      dup2\n      mstore\n      0x20\n      add\n      swap1\n      dup2\n      mstore\n      0x20\n      add\n      0x00\n      keccak256\n        /* \"ddd.sol\":2163:2168  _move */\n      dup2\n        /* \"ddd.sol\":2132:2169  s_playerMoves[msg.sender].push(_move) */\n      swap1\n      dup1\n      0x01\n      dup2\n      sload\n      add\n      dup1\n      dup3\n      sstore\n      dup1\n      swap2\n      pop\n      pop\n      0x01\n      swap1\n      sub\n      swap1\n      0x00\n      mstore\n      keccak256(0x00, 0x20)\n      swap1\n      0x20\n      swap2\n      dup3\n      dup3\n      div\n      add\n      swap2\n      swap1\n      mod\n      swap1\n      swap2\n      swap1\n      swap2\n      swap1\n      swap2\n      0x0100\n      exp\n      dup2\n      sload\n      dup2\n      0xff\n      mul\n      not\n      and\n      swap1\n      dup4\n      0xff\n      and\n      mul\n      or\n      swap1\n      sstore\n      pop\n        /* \"ddd.sol\":2180:2190  checkWin() */\n      tag_123\n        /* \"ddd.sol\":2180:2188  checkWin */\n      tag_124\n        /* \"ddd.sol\":2180:2190  checkWin() */\n      jump\t// in\n    tag_123:\n      pop\n        /* \"ddd.sol\":1652:2208  function yourMove(uint8 _move) public {\r... */\n      pop\n      jump\t// out\n        /* \"ddd.sol\":681:701  Player public player */\n    tag_45:\n      0x0b\n      dup1\n      0x00\n      add\n      0x00\n      swap1\n      sload\n      swap1\n      0x0100\n      exp\n      swap1\n      div\n      0xffffffffffffffffffffffffffffffffffffffff\n      and\n      swap1\n      dup1\n      0x00\n      add\n      0x14\n      swap1\n      sload\n      swap1\n      0x0100\n      exp\n      swap1\n      div\n      0xff\n      and\n      swap1\n      pop\n      dup3\n      jump\t// out\n        /* \"ddd.sol\":327:351  uint256 public moveTaken */\n    tag_48:\n      sload(0x06)\n      dup2\n      jump\t// out\n        /* \"ddd.sol\":533:559  address[] public gameBoard */\n    tag_53:\n      0x0a\n      dup2\n      dup2\n      sload\n      dup2\n      lt\n      tag_125\n      jumpi\n      0x00\n      dup1\n      revert\n    tag_125:\n      swap1\n      0x00\n      mstore\n      keccak256(0x00, 0x20)\n      add\n      0x00\n      swap2\n      pop\n      sload\n      swap1\n      0x0100\n      exp\n      swap1\n      div\n      0xffffffffffffffffffffffffffffffffffffffff\n      and\n      dup2\n      jump\t// out\n        /* \"ddd.sol\":358:380  uint256 public session */\n    tag_56:\n      sload(0x07)\n      dup2\n      jump\t// out\n        /* \"ddd.sol\":2631:2746  function getPlayersMoves() public view returns (uint8[] memory) {\r... */\n    tag_59:\n        /* \"ddd.sol\":2679:2693  uint8[] memory */\n      0x60\n        /* \"ddd.sol\":2713:2726  s_playerMoves */\n      0x11\n        /* \"ddd.sol\":2713:2738  s_playerMoves[msg.sender] */\n      0x00\n        /* \"ddd.sol\":2727:2737  msg.sender */\n      caller\n        /* \"ddd.sol\":2713:2738  s_playerMoves[msg.sender] */\n      0xffffffffffffffffffffffffffffffffffffffff\n      and\n      0xffffffffffffffffffffffffffffffffffffffff\n      and\n      dup2\n      mstore\n      0x20\n      add\n      swap1\n      dup2\n      mstore\n      0x20\n      add\n      0x00\n      keccak256\n        /* \"ddd.sol\":2706:2738  return s_playerMoves[msg.sender] */\n      dup1\n      sload\n      dup1\n      0x20\n      mul\n      0x20\n      add\n      mload(0x40)\n      swap1\n      dup2\n      add\n      0x40\n      mstore\n      dup1\n      swap3\n      swap2\n      swap1\n      dup2\n      dup2\n      mstore\n      0x20\n      add\n      dup3\n      dup1\n      sload\n      dup1\n      iszero\n      tag_128\n      jumpi\n      0x20\n      mul\n      dup3\n      add\n      swap2\n      swap1\n      0x00\n      mstore\n      keccak256(0x00, 0x20)\n      swap1\n      0x00\n      swap1\n    tag_129:\n      dup3\n      dup3\n      swap1\n      sload\n      swap1\n      0x0100\n      exp\n      swap1\n      div\n      0xff\n      and\n      0xff\n      and\n      dup2\n      mstore\n      0x20\n      add\n      swap1\n      0x01\n      add\n      swap1\n      0x20\n      dup3\n      0x00\n      add\n      div\n      swap3\n      dup4\n      add\n      swap3\n      0x01\n      sub\n      dup3\n      mul\n      swap2\n      pop\n      dup1\n      dup5\n      gt\n      tag_129\n      jumpi\n      swap1\n      pop\n    tag_128:\n      pop\n      pop\n      pop\n      pop\n      pop\n      swap1\n      pop\n        /* \"ddd.sol\":2631:2746  function getPlayersMoves() public view returns (uint8[] memory) {\r... */\n      swap1\n      jump\t// out\n        /* \"@openzeppelin/contracts/access/Ownable.sol\":1831:1932  function renounceOwnership() public virtual onlyOwner {... */\n    tag_63:\n        /* \"@openzeppelin/contracts/access/Ownable.sol\":1094:1107  _checkOwner() */\n      tag_131\n        /* \"@openzeppelin/contracts/access/Ownable.sol\":1094:1105  _checkOwner */\n      tag_132\n        /* \"@openzeppelin/contracts/access/Ownable.sol\":1094:1107  _checkOwner() */\n      jump\t// in\n    tag_131:\n        /* \"@openzeppelin/contracts/access/Ownable.sol\":1895:1925  _transferOwnership(address(0)) */\n      tag_134\n        /* \"@openzeppelin/contracts/access/Ownable.sol\":1922:1923  0 */\n      0x00\n        /* \"@openzeppelin/contracts/access/Ownable.sol\":1895:1913  _transferOwnership */\n      tag_135\n        /* \"@openzeppelin/contracts/access/Ownable.sol\":1895:1925  _transferOwnership(address(0)) */\n      jump\t// in\n    tag_134:\n        /* \"@openzeppelin/contracts/access/Ownable.sol\":1831:1932  function renounceOwnership() public virtual onlyOwner {... */\n      jump\t// out\n        /* \"ddd.sol\":416:433  bool public timer */\n    tag_65:\n      0x09\n      0x00\n      swap1\n      sload\n      swap1\n      0x0100\n      exp\n      swap1\n      div\n      0xff\n      and\n      dup2\n      jump\t// out\n        /* \"@openzeppelin/contracts/access/Ownable.sol\":1201:1286  function owner() public view virtual returns (address) {... */\n    tag_69:\n        /* \"@openzeppelin/contracts/access/Ownable.sol\":1247:1254  address */\n      0x00\n        /* \"@openzeppelin/contracts/access/Ownable.sol\":1273:1279  _owner */\n      dup1\n      0x00\n      swap1\n      sload\n      swap1\n      0x0100\n      exp\n      swap1\n      div\n      0xffffffffffffffffffffffffffffffffffffffff\n      and\n        /* \"@openzeppelin/contracts/access/Ownable.sol\":1266:1279  return _owner */\n      swap1\n      pop\n        /* \"@openzeppelin/contracts/access/Ownable.sol\":1201:1286  function owner() public view virtual returns (address) {... */\n      swap1\n      jump\t// out\n        /* \"ddd.sol\":1550:1598  mapping(address => uint8[]) public s_playerMoves */\n    tag_74:\n      mstore(0x20, 0x11)\n      dup2\n      0x00\n      mstore\n      keccak256(0x00, 0x40)\n      dup2\n      dup2\n      sload\n      dup2\n      lt\n      tag_137\n      jumpi\n      0x00\n      dup1\n      revert\n    tag_137:\n      swap1\n      0x00\n      mstore\n      keccak256(0x00, 0x20)\n      swap1\n      0x20\n      swap2\n      dup3\n      dup3\n      div\n      add\n      swap2\n      swap1\n      mod\n      swap2\n      pop\n      swap2\n      pop\n      swap1\n      sload\n      swap1\n      0x0100\n      exp\n      swap1\n      div\n      0xff\n      and\n      dup2\n      jump\t// out\n        /* \"ddd.sol\":148:170  address public playerA */\n    tag_78:\n      0x01\n      0x00\n      swap1\n      sload\n      swap1\n      0x0100\n      exp\n      swap1\n      div\n      0xffffffffffffffffffffffffffffffffffffffff\n      and\n      dup2\n      jump\t// out\n        /* \"ddd.sol\":295:320  uint256 public turnsTaken */\n    tag_81:\n      sload(0x05)\n      dup2\n      jump\t// out\n        /* \"ddd.sol\":268:288  bool public gameOver */\n    tag_84:\n      0x04\n      0x14\n      swap1\n      sload\n      swap1\n      0x0100\n      exp\n      swap1\n      div\n      0xff\n      and\n      dup2\n      jump\t// out\n        /* \"ddd.sol\":1139:1155  Game public game */\n    tag_87:\n      0x0e\n      dup1\n      0x00\n      add\n      0x00\n      swap1\n      sload\n      swap1\n      0x0100\n      exp\n      swap1\n      div\n      0xffffffffffffffffffffffffffffffffffffffff\n      and\n      swap1\n      dup1\n      0x01\n      add\n      sload\n      swap1\n      pop\n      dup3\n      jump\t// out\n        /* \"ddd.sol\":208:233  address public lastPlayed */\n    tag_91:\n      0x03\n      0x00\n      swap1\n      sload\n      swap1\n      0x0100\n      exp\n      swap1\n      div\n      0xffffffffffffffffffffffffffffffffffffffff\n      and\n      dup2\n      jump\t// out\n        /* \"ddd.sol\":240:261  address public winner */\n    tag_94:\n      0x04\n      0x00\n      swap1\n      sload\n      swap1\n      0x0100\n      exp\n      swap1\n      div\n      0xffffffffffffffffffffffffffffffffffffffff\n      and\n      dup2\n      jump\t// out\n        /* \"ddd.sol\":1323:1538  function startGame(address _player1, address _player2) external {\r... */\n    tag_99:\n        /* \"ddd.sol\":1418:1426  _player2 */\n      dup1\n        /* \"ddd.sol\":1406:1426  _player1 != _player2 */\n      0xffffffffffffffffffffffffffffffffffffffff\n      and\n        /* \"ddd.sol\":1406:1414  _player1 */\n      dup3\n        /* \"ddd.sol\":1406:1426  _player1 != _player2 */\n      0xffffffffffffffffffffffffffffffffffffffff\n      and\n      eq\n      iszero\n        /* \"ddd.sol\":1398:1427  require(_player1 != _player2) */\n      tag_140\n      jumpi\n      0x00\n      dup1\n      revert\n    tag_140:\n        /* \"ddd.sol\":1448:1456  _player1 */\n      dup2\n        /* \"ddd.sol\":1438:1445  playerA */\n      0x01\n      0x00\n        /* \"ddd.sol\":1438:1456  playerA = _player1 */\n      0x0100\n      exp\n      dup2\n      sload\n      dup2\n      0xffffffffffffffffffffffffffffffffffffffff\n      mul\n      not\n      and\n      swap1\n      dup4\n      0xffffffffffffffffffffffffffffffffffffffff\n      and\n      mul\n      or\n      swap1\n      sstore\n      pop\n        /* \"ddd.sol\":1477:1485  _player2 */\n      dup1\n        /* \"ddd.sol\":1467:1474  playerB */\n      0x02\n      0x00\n        /* \"ddd.sol\":1467:1485  playerB = _player2 */\n      0x0100\n      exp\n      dup2\n      sload\n      dup2\n      0xffffffffffffffffffffffffffffffffffffffff\n      mul\n      not\n      and\n      swap1\n      dup4\n      0xffffffffffffffffffffffffffffffffffffffff\n      and\n      mul\n      or\n      swap1\n      sstore\n      pop\n        /* \"ddd.sol\":1501:1530  GameStarted(playerA, playerB) */\n      0x55b25d7f9b5bf8ea934ba7079455d2ba00c68ea7e66c13695275f6b75b95e5f8\n        /* \"ddd.sol\":1513:1520  playerA */\n      0x01\n      0x00\n      swap1\n      sload\n      swap1\n      0x0100\n      exp\n      swap1\n      div\n      0xffffffffffffffffffffffffffffffffffffffff\n      and\n        /* \"ddd.sol\":1522:1529  playerB */\n      0x02\n      0x00\n      swap1\n      sload\n      swap1\n      0x0100\n      exp\n      swap1\n      div\n      0xffffffffffffffffffffffffffffffffffffffff\n      and\n        /* \"ddd.sol\":1501:1530  GameStarted(playerA, playerB) */\n      mload(0x40)\n      tag_141\n      swap3\n      swap2\n      swap1\n      tag_142\n      jump\t// in\n    tag_141:\n      mload(0x40)\n      dup1\n      swap2\n      sub\n      swap1\n      log1\n        /* \"ddd.sol\":1323:1538  function startGame(address _player1, address _player2) external {\r... */\n      pop\n      pop\n      jump\t// out\n        /* \"@openzeppelin/contracts/access/Ownable.sol\":2081:2279  function transferOwnership(address newOwner) public virtual onlyOwner {... */\n    tag_103:\n        /* \"@openzeppelin/contracts/access/Ownable.sol\":1094:1107  _checkOwner() */\n      tag_144\n        /* \"@openzeppelin/contracts/access/Ownable.sol\":1094:1105  _checkOwner */\n      tag_132\n        /* \"@openzeppelin/contracts/access/Ownable.sol\":1094:1107  _checkOwner() */\n      jump\t// in\n    tag_144:\n        /* \"@openzeppelin/contracts/access/Ownable.sol\":2189:2190  0 */\n      0x00\n        /* \"@openzeppelin/contracts/access/Ownable.sol\":2169:2191  newOwner != address(0) */\n      0xffffffffffffffffffffffffffffffffffffffff\n      and\n        /* \"@openzeppelin/contracts/access/Ownable.sol\":2169:2177  newOwner */\n      dup2\n        /* \"@openzeppelin/contracts/access/Ownable.sol\":2169:2191  newOwner != address(0) */\n      0xffffffffffffffffffffffffffffffffffffffff\n      and\n      eq\n      iszero\n        /* \"@openzeppelin/contracts/access/Ownable.sol\":2161:2234  require(newOwner != address(0), \"Ownable: new owner is the zero address\") */\n      tag_146\n      jumpi\n      mload(0x40)\n      0x08c379a000000000000000000000000000000000000000000000000000000000\n      dup2\n      mstore\n      0x04\n      add\n      tag_147\n      swap1\n      tag_148\n      jump\t// in\n    tag_147:\n      mload(0x40)\n      dup1\n      swap2\n      sub\n      swap1\n      revert\n    tag_146:\n        /* \"@openzeppelin/contracts/access/Ownable.sol\":2244:2272  _transferOwnership(newOwner) */\n      tag_149\n        /* \"@openzeppelin/contracts/access/Ownable.sol\":2263:2271  newOwner */\n      dup2\n        /* \"@openzeppelin/contracts/access/Ownable.sol\":2244:2262  _transferOwnership */\n      tag_135\n        /* \"@openzeppelin/contracts/access/Ownable.sol\":2244:2272  _transferOwnership(newOwner) */\n      jump\t// in\n    tag_149:\n        /* \"@openzeppelin/contracts/access/Ownable.sol\":2081:2279  function transferOwnership(address newOwner) public virtual onlyOwner {... */\n      pop\n      jump\t// out\n        /* \"ddd.sol\":1605:1645  mapping(uint8 => address) public s_moves */\n    tag_106:\n      mstore(0x20, 0x12)\n      dup1\n      0x00\n      mstore\n      keccak256(0x00, 0x40)\n      0x00\n      swap2\n      pop\n      sload\n      swap1\n      0x0100\n      exp\n      swap1\n      div\n      0xffffffffffffffffffffffffffffffffffffffff\n      and\n      dup2\n      jump\t// out\n        /* \"ddd.sol\":2216:2363  function checkWin() internal  returns (bool win){\r... */\n    tag_124:\n        /* \"ddd.sol\":2255:2263  bool win */\n      0x00\n        /* \"ddd.sol\":2275:2299  uint8[] memory _tempList */\n      0x60\n        /* \"ddd.sol\":2321:2334  s_playerMoves */\n      0x11\n        /* \"ddd.sol\":2321:2346  s_playerMoves[msg.sender] */\n      0x00\n        /* \"ddd.sol\":2335:2345  msg.sender */\n      caller\n        /* \"ddd.sol\":2321:2346  s_playerMoves[msg.sender] */\n      0xffffffffffffffffffffffffffffffffffffffff\n      and\n      0xffffffffffffffffffffffffffffffffffffffff\n      and\n      dup2\n      mstore\n      0x20\n      add\n      swap1\n      dup2\n      mstore\n      0x20\n      add\n      0x00\n      keccak256\n        /* \"ddd.sol\":2309:2346  _tempList = s_playerMoves[msg.sender] */\n      dup1\n      sload\n      dup1\n      0x20\n      mul\n      0x20\n      add\n      mload(0x40)\n      swap1\n      dup2\n      add\n      0x40\n      mstore\n      dup1\n      swap3\n      swap2\n      swap1\n      dup2\n      dup2\n      mstore\n      0x20\n      add\n      dup3\n      dup1\n      sload\n      dup1\n      iszero\n      tag_151\n      jumpi\n      0x20\n      mul\n      dup3\n      add\n      swap2\n      swap1\n      0x00\n      mstore\n      keccak256(0x00, 0x20)\n      swap1\n      0x00\n      swap1\n    tag_152:\n      dup3\n      dup3\n      swap1\n      sload\n      swap1\n      0x0100\n      exp\n      swap1\n      div\n      0xff\n      and\n      0xff\n      and\n      dup2\n      mstore\n      0x20\n      add\n      swap1\n      0x01\n      add\n      swap1\n      0x20\n      dup3\n      0x00\n      add\n      div\n      swap3\n      dup4\n      add\n      swap3\n      0x01\n      sub\n      dup3\n      mul\n      swap2\n      pop\n      dup1\n      dup5\n      gt\n      tag_152\n      jumpi\n      swap1\n      pop\n    tag_151:\n      pop\n      pop\n      pop\n      pop\n      pop\n      swap1\n      pop\n        /* \"ddd.sol\":2264:2363  {\r... */\n      pop\n        /* \"ddd.sol\":2216:2363  function checkWin() internal  returns (bool win){\r... */\n      swap1\n      jump\t// out\n        /* \"@openzeppelin/contracts/access/Ownable.sol\":1359:1489  function _checkOwner() internal view virtual {... */\n    tag_132:\n        /* \"@openzeppelin/contracts/access/Ownable.sol\":1433:1445  _msgSender() */\n      tag_154\n        /* \"@openzeppelin/contracts/access/Ownable.sol\":1433:1443  _msgSender */\n      tag_155\n        /* \"@openzeppelin/contracts/access/Ownable.sol\":1433:1445  _msgSender() */\n      jump\t// in\n    tag_154:\n        /* \"@openzeppelin/contracts/access/Ownable.sol\":1422:1445  owner() == _msgSender() */\n      0xffffffffffffffffffffffffffffffffffffffff\n      and\n        /* \"@openzeppelin/contracts/access/Ownable.sol\":1422:1429  owner() */\n      tag_156\n        /* \"@openzeppelin/contracts/access/Ownable.sol\":1422:1427  owner */\n      tag_69\n        /* \"@openzeppelin/contracts/access/Ownable.sol\":1422:1429  owner() */\n      jump\t// in\n    tag_156:\n        /* \"@openzeppelin/contracts/access/Ownable.sol\":1422:1445  owner() == _msgSender() */\n      0xffffffffffffffffffffffffffffffffffffffff\n      and\n      eq\n        /* \"@openzeppelin/contracts/access/Ownable.sol\":1414:1482  require(owner() == _msgSender(), \"Ownable: caller is not the owner\") */\n      tag_157\n      jumpi\n      mload(0x40)\n      0x08c379a000000000000000000000000000000000000000000000000000000000\n      dup2\n      mstore\n      0x04\n      add\n      tag_158\n      swap1\n      tag_159\n      jump\t// in\n    tag_158:\n      mload(0x40)\n      dup1\n      swap2\n      sub\n      swap1\n      revert\n    tag_157:\n        /* \"@openzeppelin/contracts/access/Ownable.sol\":1359:1489  function _checkOwner() internal view virtual {... */\n      jump\t// out\n        /* \"@openzeppelin/contracts/access/Ownable.sol\":2433:2620  function _transferOwnership(address newOwner) internal virtual {... */\n    tag_135:\n        /* \"@openzeppelin/contracts/access/Ownable.sol\":2506:2522  address oldOwner */\n      0x00\n        /* \"@openzeppelin/contracts/access/Ownable.sol\":2525:2531  _owner */\n      dup1\n      0x00\n      swap1\n      sload\n      swap1\n      0x0100\n      exp\n      swap1\n      div\n      0xffffffffffffffffffffffffffffffffffffffff\n      and\n        /* \"@openzeppelin/contracts/access/Ownable.sol\":2506:2531  address oldOwner = _owner */\n      swap1\n      pop\n        /* \"@openzeppelin/contracts/access/Ownable.sol\":2550:2558  newOwner */\n      dup2\n        /* \"@openzeppelin/contracts/access/Ownable.sol\":2541:2547  _owner */\n      0x00\n      dup1\n        /* \"@openzeppelin/contracts/access/Ownable.sol\":2541:2558  _owner = newOwner */\n      0x0100\n      exp\n      dup2\n      sload\n      dup2\n      0xffffffffffffffffffffffffffffffffffffffff\n      mul\n      not\n      and\n      swap1\n      dup4\n      0xffffffffffffffffffffffffffffffffffffffff\n      and\n      mul\n      or\n      swap1\n      sstore\n      pop\n        /* \"@openzeppelin/contracts/access/Ownable.sol\":2604:2612  newOwner */\n      dup2\n        /* \"@openzeppelin/contracts/access/Ownable.sol\":2573:2613  OwnershipTransferred(oldOwner, newOwner) */\n      0xffffffffffffffffffffffffffffffffffffffff\n      and\n        /* \"@openzeppelin/contracts/access/Ownable.sol\":2594:2602  oldOwner */\n      dup2\n        /* \"@openzeppelin/contracts/access/Ownable.sol\":2573:2613  OwnershipTransferred(oldOwner, newOwner) */\n      0xffffffffffffffffffffffffffffffffffffffff\n      and\n      0x8be0079c531659141344cd1fd0a4f28419497f9722a3daafe3b4186f6b6457e0\n      mload(0x40)\n      mload(0x40)\n      dup1\n      swap2\n      sub\n      swap1\n      log3\n        /* \"@openzeppelin/contracts/access/Ownable.sol\":2496:2620  {... */\n      pop\n        /* \"@openzeppelin/contracts/access/Ownable.sol\":2433:2620  function _transferOwnership(address newOwner) internal virtual {... */\n      pop\n      jump\t// out\n        /* \"@openzeppelin/contracts/utils/Context.sol\":640:736  function _msgSender() internal view virtual returns (address) {... */\n    tag_155:\n        /* \"@openzeppelin/contracts/utils/Context.sol\":693:700  address */\n      0x00\n        /* \"@openzeppelin/contracts/utils/Context.sol\":719:729  msg.sender */\n      caller\n        /* \"@openzeppelin/contracts/utils/Context.sol\":712:729  return msg.sender */\n      swap1\n      pop\n        /* \"@openzeppelin/contracts/utils/Context.sol\":640:736  function _msgSender() internal view virtual returns (address) {... */\n      swap1\n      jump\t// out\n        /* \"#utility.yul\":7:146   */\n    tag_163:\n        /* \"#utility.yul\":53:58   */\n      0x00\n        /* \"#utility.yul\":91:97   */\n      dup2\n        /* \"#utility.yul\":78:98   */\n      calldataload\n        /* \"#utility.yul\":69:98   */\n      swap1\n      pop\n        /* \"#utility.yul\":107:140   */\n      tag_165\n        /* \"#utility.yul\":134:139   */\n      dup2\n        /* \"#utility.yul\":107:140   */\n      tag_166\n      jump\t// in\n    tag_165:\n        /* \"#utility.yul\":7:146   */\n      swap3\n      swap2\n      pop\n      pop\n      jump\t// out\n        /* \"#utility.yul\":152:291   */\n    tag_167:\n        /* \"#utility.yul\":198:203   */\n      0x00\n        /* \"#utility.yul\":236:242   */\n      dup2\n        /* \"#utility.yul\":223:243   */\n      calldataload\n        /* \"#utility.yul\":214:243   */\n      swap1\n      pop\n        /* \"#utility.yul\":252:285   */\n      tag_169\n        /* \"#utility.yul\":279:284   */\n      dup2\n        /* \"#utility.yul\":252:285   */\n      tag_170\n      jump\t// in\n    tag_169:\n        /* \"#utility.yul\":152:291   */\n      swap3\n      swap2\n      pop\n      pop\n      jump\t// out\n        /* \"#utility.yul\":297:432   */\n    tag_171:\n        /* \"#utility.yul\":341:346   */\n      0x00\n        /* \"#utility.yul\":379:385   */\n      dup2\n        /* \"#utility.yul\":366:386   */\n      calldataload\n        /* \"#utility.yul\":357:386   */\n      swap1\n      pop\n        /* \"#utility.yul\":395:426   */\n      tag_173\n        /* \"#utility.yul\":420:425   */\n      dup2\n        /* \"#utility.yul\":395:426   */\n      tag_174\n      jump\t// in\n    tag_173:\n        /* \"#utility.yul\":297:432   */\n      swap3\n      swap2\n      pop\n      pop\n      jump\t// out\n        /* \"#utility.yul\":438:767   */\n    tag_102:\n        /* \"#utility.yul\":497:503   */\n      0x00\n        /* \"#utility.yul\":546:548   */\n      0x20\n        /* \"#utility.yul\":534:543   */\n      dup3\n        /* \"#utility.yul\":525:532   */\n      dup5\n        /* \"#utility.yul\":521:544   */\n      sub\n        /* \"#utility.yul\":517:549   */\n      slt\n        /* \"#utility.yul\":514:633   */\n      iszero\n      tag_176\n      jumpi\n        /* \"#utility.yul\":552:631   */\n      tag_177\n      tag_178\n      jump\t// in\n    tag_177:\n        /* \"#utility.yul\":514:633   */\n    tag_176:\n        /* \"#utility.yul\":672:673   */\n      0x00\n        /* \"#utility.yul\":697:750   */\n      tag_179\n        /* \"#utility.yul\":742:749   */\n      dup5\n        /* \"#utility.yul\":733:739   */\n      dup3\n        /* \"#utility.yul\":722:731   */\n      dup6\n        /* \"#utility.yul\":718:740   */\n      add\n        /* \"#utility.yul\":697:750   */\n      tag_163\n      jump\t// in\n    tag_179:\n        /* \"#utility.yul\":687:750   */\n      swap2\n      pop\n        /* \"#utility.yul\":643:760   */\n      pop\n        /* \"#utility.yul\":438:767   */\n      swap3\n      swap2\n      pop\n      pop\n      jump\t// out\n        /* \"#utility.yul\":773:1247   */\n    tag_98:\n        /* \"#utility.yul\":841:847   */\n      0x00\n        /* \"#utility.yul\":849:855   */\n      dup1\n        /* \"#utility.yul\":898:900   */\n      0x40\n        /* \"#utility.yul\":886:895   */\n      dup4\n        /* \"#utility.yul\":877:884   */\n      dup6\n        /* \"#utility.yul\":873:896   */\n      sub\n        /* \"#utility.yul\":869:901   */\n      slt\n        /* \"#utility.yul\":866:985   */\n      iszero\n      tag_181\n      jumpi\n        /* \"#utility.yul\":904:983   */\n      tag_182\n      tag_178\n      jump\t// in\n    tag_182:\n        /* \"#utility.yul\":866:985   */\n    tag_181:\n        /* \"#utility.yul\":1024:1025   */\n      0x00\n        /* \"#utility.yul\":1049:1102   */\n      tag_183\n        /* \"#utility.yul\":1094:1101   */\n      dup6\n        /* \"#utility.yul\":1085:1091   */\n      dup3\n        /* \"#utility.yul\":1074:1083   */\n      dup7\n        /* \"#utility.yul\":1070:1092   */\n      add\n        /* \"#utility.yul\":1049:1102   */\n      tag_163\n      jump\t// in\n    tag_183:\n        /* \"#utility.yul\":1039:1102   */\n      swap3\n      pop\n        /* \"#utility.yul\":995:1112   */\n      pop\n        /* \"#utility.yul\":1151:1153   */\n      0x20\n        /* \"#utility.yul\":1177:1230   */\n      tag_184\n        /* \"#utility.yul\":1222:1229   */\n      dup6\n        /* \"#utility.yul\":1213:1219   */\n      dup3\n        /* \"#utility.yul\":1202:1211   */\n      dup7\n        /* \"#utility.yul\":1198:1220   */\n      add\n        /* \"#utility.yul\":1177:1230   */\n      tag_163\n      jump\t// in\n    tag_184:\n        /* \"#utility.yul\":1167:1230   */\n      swap2\n      pop\n        /* \"#utility.yul\":1122:1240   */\n      pop\n        /* \"#utility.yul\":773:1247   */\n      swap3\n      pop\n      swap3\n      swap1\n      pop\n      jump\t// out\n        /* \"#utility.yul\":1253:1727   */\n    tag_73:\n        /* \"#utility.yul\":1321:1327   */\n      0x00\n        /* \"#utility.yul\":1329:1335   */\n      dup1\n        /* \"#utility.yul\":1378:1380   */\n      0x40\n        /* \"#utility.yul\":1366:1375   */\n      dup4\n        /* \"#utility.yul\":1357:1364   */\n      dup6\n        /* \"#utility.yul\":1353:1376   */\n      sub\n        /* \"#utility.yul\":1349:1381   */\n      slt\n        /* \"#utility.yul\":1346:1465   */\n      iszero\n      tag_186\n      jumpi\n        /* \"#utility.yul\":1384:1463   */\n      tag_187\n      tag_178\n      jump\t// in\n    tag_187:\n        /* \"#utility.yul\":1346:1465   */\n    tag_186:\n        /* \"#utility.yul\":1504:1505   */\n      0x00\n        /* \"#utility.yul\":1529:1582   */\n      tag_188\n        /* \"#utility.yul\":1574:1581   */\n      dup6\n        /* \"#utility.yul\":1565:1571   */\n      dup3\n        /* \"#utility.yul\":1554:1563   */\n      dup7\n        /* \"#utility.yul\":1550:1572   */\n      add\n        /* \"#utility.yul\":1529:1582   */\n      tag_163\n      jump\t// in\n    tag_188:\n        /* \"#utility.yul\":1519:1582   */\n      swap3\n      pop\n        /* \"#utility.yul\":1475:1592   */\n      pop\n        /* \"#utility.yul\":1631:1633   */\n      0x20\n        /* \"#utility.yul\":1657:1710   */\n      tag_189\n        /* \"#utility.yul\":1702:1709   */\n      dup6\n        /* \"#utility.yul\":1693:1699   */\n      dup3\n        /* \"#utility.yul\":1682:1691   */\n      dup7\n        /* \"#utility.yul\":1678:1700   */\n      add\n        /* \"#utility.yul\":1657:1710   */\n      tag_167\n      jump\t// in\n    tag_189:\n        /* \"#utility.yul\":1647:1710   */\n      swap2\n      pop\n        /* \"#utility.yul\":1602:1720   */\n      pop\n        /* \"#utility.yul\":1253:1727   */\n      swap3\n      pop\n      swap3\n      swap1\n      pop\n      jump\t// out\n        /* \"#utility.yul\":1733:2062   */\n    tag_52:\n        /* \"#utility.yul\":1792:1798   */\n      0x00\n        /* \"#utility.yul\":1841:1843   */\n      0x20\n        /* \"#utility.yul\":1829:1838   */\n      dup3\n        /* \"#utility.yul\":1820:1827   */\n      dup5\n        /* \"#utility.yul\":1816:1839   */\n      sub\n        /* \"#utility.yul\":1812:1844   */\n      slt\n        /* \"#utility.yul\":1809:1928   */\n      iszero\n      tag_191\n      jumpi\n        /* \"#utility.yul\":1847:1926   */\n      tag_192\n      tag_178\n      jump\t// in\n    tag_192:\n        /* \"#utility.yul\":1809:1928   */\n    tag_191:\n        /* \"#utility.yul\":1967:1968   */\n      0x00\n        /* \"#utility.yul\":1992:2045   */\n      tag_193\n        /* \"#utility.yul\":2037:2044   */\n      dup5\n        /* \"#utility.yul\":2028:2034   */\n      dup3\n        /* \"#utility.yul\":2017:2026   */\n      dup6\n        /* \"#utility.yul\":2013:2035   */\n      add\n        /* \"#utility.yul\":1992:2045   */\n      tag_167\n      jump\t// in\n    tag_193:\n        /* \"#utility.yul\":1982:2045   */\n      swap2\n      pop\n        /* \"#utility.yul\":1938:2055   */\n      pop\n        /* \"#utility.yul\":1733:2062   */\n      swap3\n      swap2\n      pop\n      pop\n      jump\t// out\n        /* \"#utility.yul\":2068:2393   */\n    tag_42:\n        /* \"#utility.yul\":2125:2131   */\n      0x00\n        /* \"#utility.yul\":2174:2176   */\n      0x20\n        /* \"#utility.yul\":2162:2171   */\n      dup3\n        /* \"#utility.yul\":2153:2160   */\n      dup5\n        /* \"#utility.yul\":2149:2172   */\n      sub\n        /* \"#utility.yul\":2145:2177   */\n      slt\n        /* \"#utility.yul\":2142:2261   */\n      iszero\n      tag_195\n      jumpi\n        /* \"#utility.yul\":2180:2259   */\n      tag_196\n      tag_178\n      jump\t// in\n    tag_196:\n        /* \"#utility.yul\":2142:2261   */\n    tag_195:\n        /* \"#utility.yul\":2300:2301   */\n      0x00\n        /* \"#utility.yul\":2325:2376   */\n      tag_197\n        /* \"#utility.yul\":2368:2375   */\n      dup5\n        /* \"#utility.yul\":2359:2365   */\n      dup3\n        /* \"#utility.yul\":2348:2357   */\n      dup6\n        /* \"#utility.yul\":2344:2366   */\n      add\n        /* \"#utility.yul\":2325:2376   */\n      tag_171\n      jump\t// in\n    tag_197:\n        /* \"#utility.yul\":2315:2376   */\n      swap2\n      pop\n        /* \"#utility.yul\":2271:2386   */\n      pop\n        /* \"#utility.yul\":2068:2393   */\n      swap3\n      swap2\n      pop\n      pop\n      jump\t// out\n        /* \"#utility.yul\":2399:2570   */\n    tag_198:\n        /* \"#utility.yul\":2464:2474   */\n      0x00\n        /* \"#utility.yul\":2485:2527   */\n      tag_200\n        /* \"#utility.yul\":2523:2526   */\n      dup4\n        /* \"#utility.yul\":2515:2521   */\n      dup4\n        /* \"#utility.yul\":2485:2527   */\n      tag_201\n      jump\t// in\n    tag_200:\n        /* \"#utility.yul\":2559:2563   */\n      0x20\n        /* \"#utility.yul\":2554:2557   */\n      dup4\n        /* \"#utility.yul\":2550:2564   */\n      add\n        /* \"#utility.yul\":2536:2564   */\n      swap1\n      pop\n        /* \"#utility.yul\":2399:2570   */\n      swap3\n      swap2\n      pop\n      pop\n      jump\t// out\n        /* \"#utility.yul\":2576:2694   */\n    tag_202:\n        /* \"#utility.yul\":2663:2687   */\n      tag_204\n        /* \"#utility.yul\":2681:2686   */\n      dup2\n        /* \"#utility.yul\":2663:2687   */\n      tag_205\n      jump\t// in\n    tag_204:\n        /* \"#utility.yul\":2658:2661   */\n      dup3\n        /* \"#utility.yul\":2651:2688   */\n      mstore\n        /* \"#utility.yul\":2576:2694   */\n      pop\n      pop\n      jump\t// out\n        /* \"#utility.yul\":2726:3442   */\n    tag_206:\n        /* \"#utility.yul\":2841:2844   */\n      0x00\n        /* \"#utility.yul\":2870:2922   */\n      tag_208\n        /* \"#utility.yul\":2916:2921   */\n      dup3\n        /* \"#utility.yul\":2870:2922   */\n      tag_209\n      jump\t// in\n    tag_208:\n        /* \"#utility.yul\":2938:3022   */\n      tag_210\n        /* \"#utility.yul\":3015:3021   */\n      dup2\n        /* \"#utility.yul\":3010:3013   */\n      dup6\n        /* \"#utility.yul\":2938:3022   */\n      tag_211\n      jump\t// in\n    tag_210:\n        /* \"#utility.yul\":2931:3022   */\n      swap4\n      pop\n        /* \"#utility.yul\":3046:3100   */\n      tag_212\n        /* \"#utility.yul\":3094:3099   */\n      dup4\n        /* \"#utility.yul\":3046:3100   */\n      tag_213\n      jump\t// in\n    tag_212:\n        /* \"#utility.yul\":3123:3130   */\n      dup1\n        /* \"#utility.yul\":3154:3155   */\n      0x00\n        /* \"#utility.yul\":3139:3417   */\n    tag_214:\n        /* \"#utility.yul\":3164:3170   */\n      dup4\n        /* \"#utility.yul\":3161:3162   */\n      dup2\n        /* \"#utility.yul\":3158:3171   */\n      lt\n        /* \"#utility.yul\":3139:3417   */\n      iszero\n      tag_216\n      jumpi\n        /* \"#utility.yul\":3240:3246   */\n      dup2\n        /* \"#utility.yul\":3234:3247   */\n      mload\n        /* \"#utility.yul\":3267:3326   */\n      tag_217\n        /* \"#utility.yul\":3322:3325   */\n      dup9\n        /* \"#utility.yul\":3307:3320   */\n      dup3\n        /* \"#utility.yul\":3267:3326   */\n      tag_198\n      jump\t// in\n    tag_217:\n        /* \"#utility.yul\":3260:3326   */\n      swap8\n      pop\n        /* \"#utility.yul\":3349:3407   */\n      tag_218\n        /* \"#utility.yul\":3400:3406   */\n      dup4\n        /* \"#utility.yul\":3349:3407   */\n      tag_219\n      jump\t// in\n    tag_218:\n        /* \"#utility.yul\":3339:3407   */\n      swap3\n      pop\n        /* \"#utility.yul\":3199:3417   */\n      pop\n        /* \"#utility.yul\":3186:3187   */\n      0x01\n        /* \"#utility.yul\":3183:3184   */\n      dup2\n        /* \"#utility.yul\":3179:3188   */\n      add\n        /* \"#utility.yul\":3174:3188   */\n      swap1\n      pop\n        /* \"#utility.yul\":3139:3417   */\n      jump(tag_214)\n    tag_216:\n        /* \"#utility.yul\":3143:3157   */\n      pop\n        /* \"#utility.yul\":3433:3436   */\n      dup6\n        /* \"#utility.yul\":3426:3436   */\n      swap4\n      pop\n        /* \"#utility.yul\":2846:3442   */\n      pop\n      pop\n      pop\n        /* \"#utility.yul\":2726:3442   */\n      swap3\n      swap2\n      pop\n      pop\n      jump\t// out\n        /* \"#utility.yul\":3448:3557   */\n    tag_220:\n        /* \"#utility.yul\":3529:3550   */\n      tag_222\n        /* \"#utility.yul\":3544:3549   */\n      dup2\n        /* \"#utility.yul\":3529:3550   */\n      tag_223\n      jump\t// in\n    tag_222:\n        /* \"#utility.yul\":3524:3527   */\n      dup3\n        /* \"#utility.yul\":3517:3551   */\n      mstore\n        /* \"#utility.yul\":3448:3557   */\n      pop\n      pop\n      jump\t// out\n        /* \"#utility.yul\":3563:3929   */\n    tag_224:\n        /* \"#utility.yul\":3705:3708   */\n      0x00\n        /* \"#utility.yul\":3726:3793   */\n      tag_226\n        /* \"#utility.yul\":3790:3792   */\n      0x0c\n        /* \"#utility.yul\":3785:3788   */\n      dup4\n        /* \"#utility.yul\":3726:3793   */\n      tag_227\n      jump\t// in\n    tag_226:\n        /* \"#utility.yul\":3719:3793   */\n      swap2\n      pop\n        /* \"#utility.yul\":3802:3895   */\n      tag_228\n        /* \"#utility.yul\":3891:3894   */\n      dup3\n        /* \"#utility.yul\":3802:3895   */\n      tag_229\n      jump\t// in\n    tag_228:\n        /* \"#utility.yul\":3920:3922   */\n      0x20\n        /* \"#utility.yul\":3915:3918   */\n      dup3\n        /* \"#utility.yul\":3911:3923   */\n      add\n        /* \"#utility.yul\":3904:3923   */\n      swap1\n      pop\n        /* \"#utility.yul\":3563:3929   */\n      swap2\n      swap1\n      pop\n      jump\t// out\n        /* \"#utility.yul\":3935:4301   */\n    tag_230:\n        /* \"#utility.yul\":4077:4080   */\n      0x00\n        /* \"#utility.yul\":4098:4165   */\n      tag_232\n        /* \"#utility.yul\":4162:4164   */\n      0x26\n        /* \"#utility.yul\":4157:4160   */\n      dup4\n        /* \"#utility.yul\":4098:4165   */\n      tag_227\n      jump\t// in\n    tag_232:\n        /* \"#utility.yul\":4091:4165   */\n      swap2\n      pop\n        /* \"#utility.yul\":4174:4267   */\n      tag_233\n        /* \"#utility.yul\":4263:4266   */\n      dup3\n        /* \"#utility.yul\":4174:4267   */\n      tag_234\n      jump\t// in\n    tag_233:\n        /* \"#utility.yul\":4292:4294   */\n      0x40\n        /* \"#utility.yul\":4287:4290   */\n      dup3\n        /* \"#utility.yul\":4283:4295   */\n      add\n        /* \"#utility.yul\":4276:4295   */\n      swap1\n      pop\n        /* \"#utility.yul\":3935:4301   */\n      swap2\n      swap1\n      pop\n      jump\t// out\n        /* \"#utility.yul\":4307:4673   */\n    tag_235:\n        /* \"#utility.yul\":4449:4452   */\n      0x00\n        /* \"#utility.yul\":4470:4537   */\n      tag_237\n        /* \"#utility.yul\":4534:4536   */\n      0x20\n        /* \"#utility.yul\":4529:4532   */\n      dup4\n        /* \"#utility.yul\":4470:4537   */\n      tag_227\n      jump\t// in\n    tag_237:\n        /* \"#utility.yul\":4463:4537   */\n      swap2\n      pop\n        /* \"#utility.yul\":4546:4639   */\n      tag_238\n        /* \"#utility.yul\":4635:4638   */\n      dup3\n        /* \"#utility.yul\":4546:4639   */\n      tag_239\n      jump\t// in\n    tag_238:\n        /* \"#utility.yul\":4664:4666   */\n      0x20\n        /* \"#utility.yul\":4659:4662   */\n      dup3\n        /* \"#utility.yul\":4655:4667   */\n      add\n        /* \"#utility.yul\":4648:4667   */\n      swap1\n      pop\n        /* \"#utility.yul\":4307:4673   */\n      swap2\n      swap1\n      pop\n      jump\t// out\n        /* \"#utility.yul\":4679:5045   */\n    tag_240:\n        /* \"#utility.yul\":4821:4824   */\n      0x00\n        /* \"#utility.yul\":4842:4909   */\n      tag_242\n        /* \"#utility.yul\":4906:4908   */\n      0x10\n        /* \"#utility.yul\":4901:4904   */\n      dup4\n        /* \"#utility.yul\":4842:4909   */\n      tag_227\n      jump\t// in\n    tag_242:\n        /* \"#utility.yul\":4835:4909   */\n      swap2\n      pop\n        /* \"#utility.yul\":4918:5011   */\n      tag_243\n        /* \"#utility.yul\":5007:5010   */\n      dup3\n        /* \"#utility.yul\":4918:5011   */\n      tag_244\n      jump\t// in\n    tag_243:\n        /* \"#utility.yul\":5036:5038   */\n      0x20\n        /* \"#utility.yul\":5031:5034   */\n      dup3\n        /* \"#utility.yul\":5027:5039   */\n      add\n        /* \"#utility.yul\":5020:5039   */\n      swap1\n      pop\n        /* \"#utility.yul\":4679:5045   */\n      swap2\n      swap1\n      pop\n      jump\t// out\n        /* \"#utility.yul\":5051:5417   */\n    tag_245:\n        /* \"#utility.yul\":5193:5196   */\n      0x00\n        /* \"#utility.yul\":5214:5281   */\n      tag_247\n        /* \"#utility.yul\":5278:5280   */\n      0x15\n        /* \"#utility.yul\":5273:5276   */\n      dup4\n        /* \"#utility.yul\":5214:5281   */\n      tag_227\n      jump\t// in\n    tag_247:\n        /* \"#utility.yul\":5207:5281   */\n      swap2\n      pop\n        /* \"#utility.yul\":5290:5383   */\n      tag_248\n        /* \"#utility.yul\":5379:5382   */\n      dup3\n        /* \"#utility.yul\":5290:5383   */\n      tag_249\n      jump\t// in\n    tag_248:\n        /* \"#utility.yul\":5408:5410   */\n      0x20\n        /* \"#utility.yul\":5403:5406   */\n      dup3\n        /* \"#utility.yul\":5399:5411   */\n      add\n        /* \"#utility.yul\":5392:5411   */\n      swap1\n      pop\n        /* \"#utility.yul\":5051:5417   */\n      swap2\n      swap1\n      pop\n      jump\t// out\n        /* \"#utility.yul\":5423:5541   */\n    tag_250:\n        /* \"#utility.yul\":5510:5534   */\n      tag_252\n        /* \"#utility.yul\":5528:5533   */\n      dup2\n        /* \"#utility.yul\":5510:5534   */\n      tag_253\n      jump\t// in\n    tag_252:\n        /* \"#utility.yul\":5505:5508   */\n      dup3\n        /* \"#utility.yul\":5498:5535   */\n      mstore\n        /* \"#utility.yul\":5423:5541   */\n      pop\n      pop\n      jump\t// out\n        /* \"#utility.yul\":5547:5649   */\n    tag_201:\n        /* \"#utility.yul\":5620:5642   */\n      tag_255\n        /* \"#utility.yul\":5636:5641   */\n      dup2\n        /* \"#utility.yul\":5620:5642   */\n      tag_256\n      jump\t// in\n    tag_255:\n        /* \"#utility.yul\":5615:5618   */\n      dup3\n        /* \"#utility.yul\":5608:5643   */\n      mstore\n        /* \"#utility.yul\":5547:5649   */\n      pop\n      pop\n      jump\t// out\n        /* \"#utility.yul\":5655:5767   */\n    tag_257:\n        /* \"#utility.yul\":5738:5760   */\n      tag_259\n        /* \"#utility.yul\":5754:5759   */\n      dup2\n        /* \"#utility.yul\":5738:5760   */\n      tag_256\n      jump\t// in\n    tag_259:\n        /* \"#utility.yul\":5733:5736   */\n      dup3\n        /* \"#utility.yul\":5726:5761   */\n      mstore\n        /* \"#utility.yul\":5655:5767   */\n      pop\n      pop\n      jump\t// out\n        /* \"#utility.yul\":5773:5995   */\n    tag_35:\n        /* \"#utility.yul\":5866:5870   */\n      0x00\n        /* \"#utility.yul\":5904:5906   */\n      0x20\n        /* \"#utility.yul\":5893:5902   */\n      dup3\n        /* \"#utility.yul\":5889:5907   */\n      add\n        /* \"#utility.yul\":5881:5907   */\n      swap1\n      pop\n        /* \"#utility.yul\":5917:5988   */\n      tag_261\n        /* \"#utility.yul\":5985:5986   */\n      0x00\n        /* \"#utility.yul\":5974:5983   */\n      dup4\n        /* \"#utility.yul\":5970:5987   */\n      add\n        /* \"#utility.yul\":5961:5967   */\n      dup5\n        /* \"#utility.yul\":5917:5988   */\n      tag_202\n      jump\t// in\n    tag_261:\n        /* \"#utility.yul\":5773:5995   */\n      swap3\n      swap2\n      pop\n      pop\n      jump\t// out\n        /* \"#utility.yul\":6001:6333   */\n    tag_142:\n        /* \"#utility.yul\":6122:6126   */\n      0x00\n        /* \"#utility.yul\":6160:6162   */\n      0x40\n        /* \"#utility.yul\":6149:6158   */\n      dup3\n        /* \"#utility.yul\":6145:6163   */\n      add\n        /* \"#utility.yul\":6137:6163   */\n      swap1\n      pop\n        /* \"#utility.yul\":6173:6244   */\n      tag_263\n        /* \"#utility.yul\":6241:6242   */\n      0x00\n        /* \"#utility.yul\":6230:6239   */\n      dup4\n        /* \"#utility.yul\":6226:6243   */\n      add\n        /* \"#utility.yul\":6217:6223   */\n      dup6\n        /* \"#utility.yul\":6173:6244   */\n      tag_202\n      jump\t// in\n    tag_263:\n        /* \"#utility.yul\":6254:6326   */\n      tag_264\n        /* \"#utility.yul\":6322:6324   */\n      0x20\n        /* \"#utility.yul\":6311:6320   */\n      dup4\n        /* \"#utility.yul\":6307:6325   */\n      add\n        /* \"#utility.yul\":6298:6304   */\n      dup5\n        /* \"#utility.yul\":6254:6326   */\n      tag_202\n      jump\t// in\n    tag_264:\n        /* \"#utility.yul\":6001:6333   */\n      swap4\n      swap3\n      pop\n      pop\n      pop\n      jump\t// out\n        /* \"#utility.yul\":6339:6659   */\n    tag_39:\n        /* \"#utility.yul\":6454:6458   */\n      0x00\n        /* \"#utility.yul\":6492:6494   */\n      0x40\n        /* \"#utility.yul\":6481:6490   */\n      dup3\n        /* \"#utility.yul\":6477:6495   */\n      add\n        /* \"#utility.yul\":6469:6495   */\n      swap1\n      pop\n        /* \"#utility.yul\":6505:6576   */\n      tag_266\n        /* \"#utility.yul\":6573:6574   */\n      0x00\n        /* \"#utility.yul\":6562:6571   */\n      dup4\n        /* \"#utility.yul\":6558:6575   */\n      add\n        /* \"#utility.yul\":6549:6555   */\n      dup6\n        /* \"#utility.yul\":6505:6576   */\n      tag_202\n      jump\t// in\n    tag_266:\n        /* \"#utility.yul\":6586:6652   */\n      tag_267\n        /* \"#utility.yul\":6648:6650   */\n      0x20\n        /* \"#utility.yul\":6637:6646   */\n      dup4\n        /* \"#utility.yul\":6633:6651   */\n      add\n        /* \"#utility.yul\":6624:6630   */\n      dup5\n        /* \"#utility.yul\":6586:6652   */\n      tag_220\n      jump\t// in\n    tag_267:\n        /* \"#utility.yul\":6339:6659   */\n      swap4\n      swap3\n      pop\n      pop\n      pop\n      jump\t// out\n        /* \"#utility.yul\":6665:6997   */\n    tag_89:\n        /* \"#utility.yul\":6786:6790   */\n      0x00\n        /* \"#utility.yul\":6824:6826   */\n      0x40\n        /* \"#utility.yul\":6813:6822   */\n      dup3\n        /* \"#utility.yul\":6809:6827   */\n      add\n        /* \"#utility.yul\":6801:6827   */\n      swap1\n      pop\n        /* \"#utility.yul\":6837:6908   */\n      tag_269\n        /* \"#utility.yul\":6905:6906   */\n      0x00\n        /* \"#utility.yul\":6894:6903   */\n      dup4\n        /* \"#utility.yul\":6890:6907   */\n      add\n        /* \"#utility.yul\":6881:6887   */\n      dup6\n        /* \"#utility.yul\":6837:6908   */\n      tag_202\n      jump\t// in\n    tag_269:\n        /* \"#utility.yul\":6918:6990   */\n      tag_270\n        /* \"#utility.yul\":6986:6988   */\n      0x20\n        /* \"#utility.yul\":6975:6984   */\n      dup4\n        /* \"#utility.yul\":6971:6989   */\n      add\n        /* \"#utility.yul\":6962:6968   */\n      dup5\n        /* \"#utility.yul\":6918:6990   */\n      tag_250\n      jump\t// in\n    tag_270:\n        /* \"#utility.yul\":6665:6997   */\n      swap4\n      swap3\n      pop\n      pop\n      pop\n      jump\t// out\n        /* \"#utility.yul\":7003:7368   */\n    tag_61:\n        /* \"#utility.yul\":7142:7146   */\n      0x00\n        /* \"#utility.yul\":7180:7182   */\n      0x20\n        /* \"#utility.yul\":7169:7178   */\n      dup3\n        /* \"#utility.yul\":7165:7183   */\n      add\n        /* \"#utility.yul\":7157:7183   */\n      swap1\n      pop\n        /* \"#utility.yul\":7229:7238   */\n      dup2\n        /* \"#utility.yul\":7223:7227   */\n      dup2\n        /* \"#utility.yul\":7219:7239   */\n      sub\n        /* \"#utility.yul\":7215:7216   */\n      0x00\n        /* \"#utility.yul\":7204:7213   */\n      dup4\n        /* \"#utility.yul\":7200:7217   */\n      add\n        /* \"#utility.yul\":7193:7240   */\n      mstore\n        /* \"#utility.yul\":7257:7361   */\n      tag_272\n        /* \"#utility.yul\":7356:7360   */\n      dup2\n        /* \"#utility.yul\":7347:7353   */\n      dup5\n        /* \"#utility.yul\":7257:7361   */\n      tag_206\n      jump\t// in\n    tag_272:\n        /* \"#utility.yul\":7249:7361   */\n      swap1\n      pop\n        /* \"#utility.yul\":7003:7368   */\n      swap3\n      swap2\n      pop\n      pop\n      jump\t// out\n        /* \"#utility.yul\":7374:7584   */\n    tag_67:\n        /* \"#utility.yul\":7461:7465   */\n      0x00\n        /* \"#utility.yul\":7499:7501   */\n      0x20\n        /* \"#utility.yul\":7488:7497   */\n      dup3\n        /* \"#utility.yul\":7484:7502   */\n      add\n        /* \"#utility.yul\":7476:7502   */\n      swap1\n      pop\n        /* \"#utility.yul\":7512:7577   */\n      tag_274\n        /* \"#utility.yul\":7574:7575   */\n      0x00\n        /* \"#utility.yul\":7563:7572   */\n      dup4\n        /* \"#utility.yul\":7559:7576   */\n      add\n        /* \"#utility.yul\":7550:7556   */\n      dup5\n        /* \"#utility.yul\":7512:7577   */\n      tag_220\n      jump\t// in\n    tag_274:\n        /* \"#utility.yul\":7374:7584   */\n      swap3\n      swap2\n      pop\n      pop\n      jump\t// out\n        /* \"#utility.yul\":7590:8009   */\n    tag_111:\n        /* \"#utility.yul\":7756:7760   */\n      0x00\n        /* \"#utility.yul\":7794:7796   */\n      0x20\n        /* \"#utility.yul\":7783:7792   */\n      dup3\n        /* \"#utility.yul\":7779:7797   */\n      add\n        /* \"#utility.yul\":7771:7797   */\n      swap1\n      pop\n        /* \"#utility.yul\":7843:7852   */\n      dup2\n        /* \"#utility.yul\":7837:7841   */\n      dup2\n        /* \"#utility.yul\":7833:7853   */\n      sub\n        /* \"#utility.yul\":7829:7830   */\n      0x00\n        /* \"#utility.yul\":7818:7827   */\n      dup4\n        /* \"#utility.yul\":7814:7831   */\n      add\n        /* \"#utility.yul\":7807:7854   */\n      mstore\n        /* \"#utility.yul\":7871:8002   */\n      tag_276\n        /* \"#utility.yul\":7997:8001   */\n      dup2\n        /* \"#utility.yul\":7871:8002   */\n      tag_224\n      jump\t// in\n    tag_276:\n        /* \"#utility.yul\":7863:8002   */\n      swap1\n      pop\n        /* \"#utility.yul\":7590:8009   */\n      swap2\n      swap1\n      pop\n      jump\t// out\n        /* \"#utility.yul\":8015:8434   */\n    tag_148:\n        /* \"#utility.yul\":8181:8185   */\n      0x00\n        /* \"#utility.yul\":8219:8221   */\n      0x20\n        /* \"#utility.yul\":8208:8217   */\n      dup3\n        /* \"#utility.yul\":8204:8222   */\n      add\n        /* \"#utility.yul\":8196:8222   */\n      swap1\n      pop\n        /* \"#utility.yul\":8268:8277   */\n      dup2\n        /* \"#utility.yul\":8262:8266   */\n      dup2\n        /* \"#utility.yul\":8258:8278   */\n      sub\n        /* \"#utility.yul\":8254:8255   */\n      0x00\n        /* \"#utility.yul\":8243:8252   */\n      dup4\n        /* \"#utility.yul\":8239:8256   */\n      add\n        /* \"#utility.yul\":8232:8279   */\n      mstore\n        /* \"#utility.yul\":8296:8427   */\n      tag_278\n        /* \"#utility.yul\":8422:8426   */\n      dup2\n        /* \"#utility.yul\":8296:8427   */\n      tag_230\n      jump\t// in\n    tag_278:\n        /* \"#utility.yul\":8288:8427   */\n      swap1\n      pop\n        /* \"#utility.yul\":8015:8434   */\n      swap2\n      swap1\n      pop\n      jump\t// out\n        /* \"#utility.yul\":8440:8859   */\n    tag_159:\n        /* \"#utility.yul\":8606:8610   */\n      0x00\n        /* \"#utility.yul\":8644:8646   */\n      0x20\n        /* \"#utility.yul\":8633:8642   */\n      dup3\n        /* \"#utility.yul\":8629:8647   */\n      add\n        /* \"#utility.yul\":8621:8647   */\n      swap1\n      pop\n        /* \"#utility.yul\":8693:8702   */\n      dup2\n        /* \"#utility.yul\":8687:8691   */\n      dup2\n        /* \"#utility.yul\":8683:8703   */\n      sub\n        /* \"#utility.yul\":8679:8680   */\n      0x00\n        /* \"#utility.yul\":8668:8677   */\n      dup4\n        /* \"#utility.yul\":8664:8681   */\n      add\n        /* \"#utility.yul\":8657:8704   */\n      mstore\n        /* \"#utility.yul\":8721:8852   */\n      tag_280\n        /* \"#utility.yul\":8847:8851   */\n      dup2\n        /* \"#utility.yul\":8721:8852   */\n      tag_235\n      jump\t// in\n    tag_280:\n        /* \"#utility.yul\":8713:8852   */\n      swap1\n      pop\n        /* \"#utility.yul\":8440:8859   */\n      swap2\n      swap1\n      pop\n      jump\t// out\n        /* \"#utility.yul\":8865:9284   */\n    tag_121:\n        /* \"#utility.yul\":9031:9035   */\n      0x00\n        /* \"#utility.yul\":9069:9071   */\n      0x20\n        /* \"#utility.yul\":9058:9067   */\n      dup3\n        /* \"#utility.yul\":9054:9072   */\n      add\n        /* \"#utility.yul\":9046:9072   */\n      swap1\n      pop\n        /* \"#utility.yul\":9118:9127   */\n      dup2\n        /* \"#utility.yul\":9112:9116   */\n      dup2\n        /* \"#utility.yul\":9108:9128   */\n      sub\n        /* \"#utility.yul\":9104:9105   */\n      0x00\n        /* \"#utility.yul\":9093:9102   */\n      dup4\n        /* \"#utility.yul\":9089:9106   */\n      add\n        /* \"#utility.yul\":9082:9129   */\n      mstore\n        /* \"#utility.yul\":9146:9277   */\n      tag_282\n        /* \"#utility.yul\":9272:9276   */\n      dup2\n        /* \"#utility.yul\":9146:9277   */\n      tag_240\n      jump\t// in\n    tag_282:\n        /* \"#utility.yul\":9138:9277   */\n      swap1\n      pop\n        /* \"#utility.yul\":8865:9284   */\n      swap2\n      swap1\n      pop\n      jump\t// out\n        /* \"#utility.yul\":9290:9709   */\n    tag_116:\n        /* \"#utility.yul\":9456:9460   */\n      0x00\n        /* \"#utility.yul\":9494:9496   */\n      0x20\n        /* \"#utility.yul\":9483:9492   */\n      dup3\n        /* \"#utility.yul\":9479:9497   */\n      add\n        /* \"#utility.yul\":9471:9497   */\n      swap1\n      pop\n        /* \"#utility.yul\":9543:9552   */\n      dup2\n        /* \"#utility.yul\":9537:9541   */\n      dup2\n        /* \"#utility.yul\":9533:9553   */\n      sub\n        /* \"#utility.yul\":9529:9530   */\n      0x00\n        /* \"#utility.yul\":9518:9527   */\n      dup4\n        /* \"#utility.yul\":9514:9531   */\n      add\n        /* \"#utility.yul\":9507:9554   */\n      mstore\n        /* \"#utility.yul\":9571:9702   */\n      tag_284\n        /* \"#utility.yul\":9697:9701   */\n      dup2\n        /* \"#utility.yul\":9571:9702   */\n      tag_245\n      jump\t// in\n    tag_284:\n        /* \"#utility.yul\":9563:9702   */\n      swap1\n      pop\n        /* \"#utility.yul\":9290:9709   */\n      swap2\n      swap1\n      pop\n      jump\t// out\n        /* \"#utility.yul\":9715:9937   */\n    tag_31:\n        /* \"#utility.yul\":9808:9812   */\n      0x00\n        /* \"#utility.yul\":9846:9848   */\n      0x20\n        /* \"#utility.yul\":9835:9844   */\n      dup3\n        /* \"#utility.yul\":9831:9849   */\n      add\n        /* \"#utility.yul\":9823:9849   */\n      swap1\n      pop\n        /* \"#utility.yul\":9859:9930   */\n      tag_286\n        /* \"#utility.yul\":9927:9928   */\n      0x00\n        /* \"#utility.yul\":9916:9925   */\n      dup4\n        /* \"#utility.yul\":9912:9929   */\n      add\n        /* \"#utility.yul\":9903:9909   */\n      dup5\n        /* \"#utility.yul\":9859:9930   */\n      tag_250\n      jump\t// in\n    tag_286:\n        /* \"#utility.yul\":9715:9937   */\n      swap3\n      swap2\n      pop\n      pop\n      jump\t// out\n        /* \"#utility.yul\":9943:10157   */\n    tag_76:\n        /* \"#utility.yul\":10032:10036   */\n      0x00\n        /* \"#utility.yul\":10070:10072   */\n      0x20\n        /* \"#utility.yul\":10059:10068   */\n      dup3\n        /* \"#utility.yul\":10055:10073   */\n      add\n        /* \"#utility.yul\":10047:10073   */\n      swap1\n      pop\n        /* \"#utility.yul\":10083:10150   */\n      tag_288\n        /* \"#utility.yul\":10147:10148   */\n      0x00\n        /* \"#utility.yul\":10136:10145   */\n      dup4\n        /* \"#utility.yul\":10132:10149   */\n      add\n        /* \"#utility.yul\":10123:10129   */\n      dup5\n        /* \"#utility.yul\":10083:10150   */\n      tag_257\n      jump\t// in\n    tag_288:\n        /* \"#utility.yul\":9943:10157   */\n      swap3\n      swap2\n      pop\n      pop\n      jump\t// out\n        /* \"#utility.yul\":10244:10374   */\n    tag_213:\n        /* \"#utility.yul\":10309:10313   */\n      0x00\n        /* \"#utility.yul\":10332:10335   */\n      dup2\n        /* \"#utility.yul\":10324:10335   */\n      swap1\n      pop\n        /* \"#utility.yul\":10362:10366   */\n      0x20\n        /* \"#utility.yul\":10357:10360   */\n      dup3\n        /* \"#utility.yul\":10353:10367   */\n      add\n        /* \"#utility.yul\":10345:10367   */\n      swap1\n      pop\n        /* \"#utility.yul\":10244:10374   */\n      swap2\n      swap1\n      pop\n      jump\t// out\n        /* \"#utility.yul\":10380:10492   */\n    tag_209:\n        /* \"#utility.yul\":10445:10451   */\n      0x00\n        /* \"#utility.yul\":10479:10484   */\n      dup2\n        /* \"#utility.yul\":10473:10485   */\n      mload\n        /* \"#utility.yul\":10463:10485   */\n      swap1\n      pop\n        /* \"#utility.yul\":10380:10492   */\n      swap2\n      swap1\n      pop\n      jump\t// out\n        /* \"#utility.yul\":10498:10609   */\n    tag_219:\n        /* \"#utility.yul\":10566:10570   */\n      0x00\n        /* \"#utility.yul\":10598:10602   */\n      0x20\n        /* \"#utility.yul\":10593:10596   */\n      dup3\n        /* \"#utility.yul\":10589:10603   */\n      add\n        /* \"#utility.yul\":10581:10603   */\n      swap1\n      pop\n        /* \"#utility.yul\":10498:10609   */\n      swap2\n      swap1\n      pop\n      jump\t// out\n        /* \"#utility.yul\":10615:10797   */\n    tag_211:\n        /* \"#utility.yul\":10712:10723   */\n      0x00\n        /* \"#utility.yul\":10746:10752   */\n      dup3\n        /* \"#utility.yul\":10741:10744   */\n      dup3\n        /* \"#utility.yul\":10734:10753   */\n      mstore\n        /* \"#utility.yul\":10786:10790   */\n      0x20\n        /* \"#utility.yul\":10781:10784   */\n      dup3\n        /* \"#utility.yul\":10777:10791   */\n      add\n        /* \"#utility.yul\":10762:10791   */\n      swap1\n      pop\n        /* \"#utility.yul\":10615:10797   */\n      swap3\n      swap2\n      pop\n      pop\n      jump\t// out\n        /* \"#utility.yul\":10803:10972   */\n    tag_227:\n        /* \"#utility.yul\":10887:10898   */\n      0x00\n        /* \"#utility.yul\":10921:10927   */\n      dup3\n        /* \"#utility.yul\":10916:10919   */\n      dup3\n        /* \"#utility.yul\":10909:10928   */\n      mstore\n        /* \"#utility.yul\":10961:10965   */\n      0x20\n        /* \"#utility.yul\":10956:10959   */\n      dup3\n        /* \"#utility.yul\":10952:10966   */\n      add\n        /* \"#utility.yul\":10937:10966   */\n      swap1\n      pop\n        /* \"#utility.yul\":10803:10972   */\n      swap3\n      swap2\n      pop\n      pop\n      jump\t// out\n        /* \"#utility.yul\":10978:11074   */\n    tag_205:\n        /* \"#utility.yul\":11015:11022   */\n      0x00\n        /* \"#utility.yul\":11044:11068   */\n      tag_297\n        /* \"#utility.yul\":11062:11067   */\n      dup3\n        /* \"#utility.yul\":11044:11068   */\n      tag_298\n      jump\t// in\n    tag_297:\n        /* \"#utility.yul\":11033:11068   */\n      swap1\n      pop\n        /* \"#utility.yul\":10978:11074   */\n      swap2\n      swap1\n      pop\n      jump\t// out\n        /* \"#utility.yul\":11080:11170   */\n    tag_223:\n        /* \"#utility.yul\":11114:11121   */\n      0x00\n        /* \"#utility.yul\":11157:11162   */\n      dup2\n        /* \"#utility.yul\":11150:11163   */\n      iszero\n        /* \"#utility.yul\":11143:11164   */\n      iszero\n        /* \"#utility.yul\":11132:11164   */\n      swap1\n      pop\n        /* \"#utility.yul\":11080:11170   */\n      swap2\n      swap1\n      pop\n      jump\t// out\n        /* \"#utility.yul\":11176:11302   */\n    tag_298:\n        /* \"#utility.yul\":11213:11220   */\n      0x00\n        /* \"#utility.yul\":11253:11295   */\n      0xffffffffffffffffffffffffffffffffffffffff\n        /* \"#utility.yul\":11246:11251   */\n      dup3\n        /* \"#utility.yul\":11242:11296   */\n      and\n        /* \"#utility.yul\":11231:11296   */\n      swap1\n      pop\n        /* \"#utility.yul\":11176:11302   */\n      swap2\n      swap1\n      pop\n      jump\t// out\n        /* \"#utility.yul\":11308:11385   */\n    tag_253:\n        /* \"#utility.yul\":11345:11352   */\n      0x00\n        /* \"#utility.yul\":11374:11379   */\n      dup2\n        /* \"#utility.yul\":11363:11379   */\n      swap1\n      pop\n        /* \"#utility.yul\":11308:11385   */\n      swap2\n      swap1\n      pop\n      jump\t// out\n        /* \"#utility.yul\":11391:11477   */\n    tag_256:\n        /* \"#utility.yul\":11426:11433   */\n      0x00\n        /* \"#utility.yul\":11466:11470   */\n      0xff\n        /* \"#utility.yul\":11459:11464   */\n      dup3\n        /* \"#utility.yul\":11455:11471   */\n      and\n        /* \"#utility.yul\":11444:11471   */\n      swap1\n      pop\n        /* \"#utility.yul\":11391:11477   */\n      swap2\n      swap1\n      pop\n      jump\t// out\n        /* \"#utility.yul\":11606:11723   */\n    tag_178:\n        /* \"#utility.yul\":11715:11716   */\n      0x00\n        /* \"#utility.yul\":11712:11713   */\n      dup1\n        /* \"#utility.yul\":11705:11717   */\n      revert\n        /* \"#utility.yul\":11729:11891   */\n    tag_229:\n        /* \"#utility.yul\":11869:11883   */\n      0x67616d65206973206f7665720000000000000000000000000000000000000000\n        /* \"#utility.yul\":11865:11866   */\n      0x00\n        /* \"#utility.yul\":11857:11863   */\n      dup3\n        /* \"#utility.yul\":11853:11867   */\n      add\n        /* \"#utility.yul\":11846:11884   */\n      mstore\n        /* \"#utility.yul\":11729:11891   */\n      pop\n      jump\t// out\n        /* \"#utility.yul\":11897:12122   */\n    tag_234:\n        /* \"#utility.yul\":12037:12071   */\n      0x4f776e61626c653a206e6577206f776e657220697320746865207a65726f2061\n        /* \"#utility.yul\":12033:12034   */\n      0x00\n        /* \"#utility.yul\":12025:12031   */\n      dup3\n        /* \"#utility.yul\":12021:12035   */\n      add\n        /* \"#utility.yul\":12014:12072   */\n      mstore\n        /* \"#utility.yul\":12106:12114   */\n      0x6464726573730000000000000000000000000000000000000000000000000000\n        /* \"#utility.yul\":12101:12103   */\n      0x20\n        /* \"#utility.yul\":12093:12099   */\n      dup3\n        /* \"#utility.yul\":12089:12104   */\n      add\n        /* \"#utility.yul\":12082:12115   */\n      mstore\n        /* \"#utility.yul\":11897:12122   */\n      pop\n      jump\t// out\n        /* \"#utility.yul\":12128:12310   */\n    tag_239:\n        /* \"#utility.yul\":12268:12302   */\n      0x4f776e61626c653a2063616c6c6572206973206e6f7420746865206f776e6572\n        /* \"#utility.yul\":12264:12265   */\n      0x00\n        /* \"#utility.yul\":12256:12262   */\n      dup3\n        /* \"#utility.yul\":12252:12266   */\n      add\n        /* \"#utility.yul\":12245:12303   */\n      mstore\n        /* \"#utility.yul\":12128:12310   */\n      pop\n      jump\t// out\n        /* \"#utility.yul\":12316:12482   */\n    tag_244:\n        /* \"#utility.yul\":12456:12474   */\n      0x416c72656164792061737369676e656400000000000000000000000000000000\n        /* \"#utility.yul\":12452:12453   */\n      0x00\n        /* \"#utility.yul\":12444:12450   */\n      dup3\n        /* \"#utility.yul\":12440:12454   */\n      add\n        /* \"#utility.yul\":12433:12475   */\n      mstore\n        /* \"#utility.yul\":12316:12482   */\n      pop\n      jump\t// out\n        /* \"#utility.yul\":12488:12659   */\n    tag_249:\n        /* \"#utility.yul\":12628:12651   */\n      0x596f752063616e2774206d616b652061206d6f76650000000000000000000000\n        /* \"#utility.yul\":12624:12625   */\n      0x00\n        /* \"#utility.yul\":12616:12622   */\n      dup3\n        /* \"#utility.yul\":12612:12626   */\n      add\n        /* \"#utility.yul\":12605:12652   */\n      mstore\n        /* \"#utility.yul\":12488:12659   */\n      pop\n      jump\t// out\n        /* \"#utility.yul\":12665:12787   */\n    tag_166:\n        /* \"#utility.yul\":12738:12762   */\n      tag_312\n        /* \"#utility.yul\":12756:12761   */\n      dup2\n        /* \"#utility.yul\":12738:12762   */\n      tag_205\n      jump\t// in\n    tag_312:\n        /* \"#utility.yul\":12731:12736   */\n      dup2\n        /* \"#utility.yul\":12728:12763   */\n      eq\n        /* \"#utility.yul\":12718:12781   */\n      tag_313\n      jumpi\n        /* \"#utility.yul\":12777:12778   */\n      0x00\n        /* \"#utility.yul\":12774:12775   */\n      dup1\n        /* \"#utility.yul\":12767:12779   */\n      revert\n        /* \"#utility.yul\":12718:12781   */\n    tag_313:\n        /* \"#utility.yul\":12665:12787   */\n      pop\n      jump\t// out\n        /* \"#utility.yul\":12793:12915   */\n    tag_170:\n        /* \"#utility.yul\":12866:12890   */\n      tag_315\n        /* \"#utility.yul\":12884:12889   */\n      dup2\n        /* \"#utility.yul\":12866:12890   */\n      tag_253\n      jump\t// in\n    tag_315:\n        /* \"#utility.yul\":12859:12864   */\n      dup2\n        /* \"#utility.yul\":12856:12891   */\n      eq\n        /* \"#utility.yul\":12846:12909   */\n      tag_316\n      jumpi\n        /* \"#utility.yul\":12905:12906   */\n      0x00\n        /* \"#utility.yul\":12902:12903   */\n      dup1\n        /* \"#utility.yul\":12895:12907   */\n      revert\n        /* \"#utility.yul\":12846:12909   */\n    tag_316:\n        /* \"#utility.yul\":12793:12915   */\n      pop\n      jump\t// out\n        /* \"#utility.yul\":12921:13039   */\n    tag_174:\n        /* \"#utility.yul\":12992:13014   */\n      tag_318\n        /* \"#utility.yul\":13008:13013   */\n      dup2\n        /* \"#utility.yul\":12992:13014   */\n      tag_256\n      jump\t// in\n    tag_318:\n        /* \"#utility.yul\":12985:12990   */\n      dup2\n        /* \"#utility.yul\":12982:13015   */\n      eq\n        /* \"#utility.yul\":12972:13033   */\n      tag_319\n      jumpi\n        /* \"#utility.yul\":13029:13030   */\n      0x00\n        /* \"#utility.yul\":13026:13027   */\n      dup1\n        /* \"#utility.yul\":13019:13031   */\n      revert\n        /* \"#utility.yul\":12972:13033   */\n    tag_319:\n        /* \"#utility.yul\":12921:13039   */\n      pop\n      jump\t// out\n\n    auxdata: 0xa2646970667358221220524bb590b281a24c14b54f3a82158f3b78b3fdd46aa1c48bd992c81a1f8b46a264736f6c63430008070033\n}\n",
				"bytecode": {
					"linkReferences": {},
					"object": "608060405234801561001057600080fd5b5061002d61002261003a60201b60201c565b61004260201b60201c565b601e600781905550610106565b600033905090565b60008060009054906101000a900473ffffffffffffffffffffffffffffffffffffffff169050816000806101000a81548173ffffffffffffffffffffffffffffffffffffffff021916908373ffffffffffffffffffffffffffffffffffffffff1602179055508173ffffffffffffffffffffffffffffffffffffffff168173ffffffffffffffffffffffffffffffffffffffff167f8be0079c531659141344cd1fd0a4f28419497f9722a3daafe3b4186f6b6457e060405160405180910390a35050565b61144d806101156000396000f3fe608060405234801561001057600080fd5b50600436106101425760003560e01c80638da5cb5b116100b8578063c3fe3e281161007c578063c3fe3e2814610337578063c533913214610356578063dfbf53ae14610374578063eb23b56b14610392578063f2fde38b146103ae578063f96f3be9146103ca57610142565b80638da5cb5b1461028f57806390228301146102ad578063a285c54a146102dd578063bc120879146102fb578063bdb337d11461031957610142565b8063554693b11161010a578063554693b1146101dd5780635d248301146101fb5780635e3568b81461022b578063620633cb14610249578063715018a61461026757806388c9cb3c1461027157610142565b8063041a84861461014757806311bb1537146101655780631a8a8dd8146101835780631ea169e5146101a257806348db5f89146101be575b600080fd5b61014f6103fa565b60405161015c9190611205565b60405180910390f35b61016d610400565b60405161017a9190611092565b60405180910390f35b61018b610426565b6040516101999291906110d6565b60405180910390f35b6101bc60048036038101906101b79190610ef5565b610465565b005b6101c661074c565b6040516101d49291906110d6565b60405180910390f35b6101e561078b565b6040516101f29190611205565b60405180910390f35b61021560048036038101906102109190610ec8565b610791565b6040516102229190611092565b60405180910390f35b6102336107d0565b6040516102409190611205565b60405180910390f35b6102516107d6565b60405161025e9190611128565b60405180910390f35b61026f610891565b005b6102796108a5565b604051610286919061114a565b60405180910390f35b6102976108b8565b6040516102a49190611092565b60405180910390f35b6102c760048036038101906102c29190610e88565b6108e1565b6040516102d49190611220565b60405180910390f35b6102e5610924565b6040516102f29190611092565b60405180910390f35b61030361094a565b6040516103109190611205565b60405180910390f35b610321610950565b60405161032e919061114a565b60405180910390f35b61033f610963565b60405161034d9291906110ff565b60405180910390f35b61035e610995565b60405161036b9190611092565b60405180910390f35b61037c6109bb565b6040516103899190611092565b60405180910390f35b6103ac60048036038101906103a79190610e48565b6109e1565b005b6103c860048036038101906103c39190610e1b565b610b1d565b005b6103e460048036038101906103df9190610ef5565b610ba1565b6040516103f19190611092565b60405180910390f35b60085481565b600260009054906101000a900473ffffffffffffffffffffffffffffffffffffffff1681565b600d8060000160009054906101000a900473ffffffffffffffffffffffffffffffffffffffff16908060000160149054906101000a900460ff16905082565b600460149054906101000a900460ff16156104b5576040517f08c379a00000000000000000000000000000000000000000000000000000000081526004016104ac90611165565b60405180910390fd5b600160009054906101000a900473ffffffffffffffffffffffffffffffffffffffff1673ffffffffffffffffffffffffffffffffffffffff163373ffffffffffffffffffffffffffffffffffffffff16148061055e5750600260009054906101000a900473ffffffffffffffffffffffffffffffffffffffff1673ffffffffffffffffffffffffffffffffffffffff163373ffffffffffffffffffffffffffffffffffffffff16145b80156105b85750600360009054906101000a900473ffffffffffffffffffffffffffffffffffffffff1673ffffffffffffffffffffffffffffffffffffffff163373ffffffffffffffffffffffffffffffffffffffff1614155b6105f7576040517f08c379a00000000000000000000000000000000000000000000000000000000081526004016105ee906111e5565b60405180910390fd5b60008160ff1611801561060d5750600a8160ff16105b61061657600080fd5b600073ffffffffffffffffffffffffffffffffffffffff16601260008360ff1660ff16815260200190815260200160002060009054906101000a900473ffffffffffffffffffffffffffffffffffffffff1673ffffffffffffffffffffffffffffffffffffffff16146106be576040517f08c379a00000000000000000000000000000000000000000000000000000000081526004016106b5906111c5565b60405180910390fd5b601160003373ffffffffffffffffffffffffffffffffffffffff1673ffffffffffffffffffffffffffffffffffffffff1681526020019081526020016000208190806001815401808255809150506001900390600052602060002090602091828204019190069091909190916101000a81548160ff021916908360ff160217905550610748610bd4565b5050565b600b8060000160009054906101000a900473ffffffffffffffffffffffffffffffffffffffff16908060000160149054906101000a900460ff16905082565b60065481565b600a81815481106107a157600080fd5b906000526020600020016000915054906101000a900473ffffffffffffffffffffffffffffffffffffffff1681565b60075481565b6060601160003373ffffffffffffffffffffffffffffffffffffffff1673ffffffffffffffffffffffffffffffffffffffff16815260200190815260200160002080548060200260200160405190810160405280929190818152602001828054801561088757602002820191906000526020600020906000905b82829054906101000a900460ff1660ff16815260200190600101906020826000010492830192600103820291508084116108505790505b5050505050905090565b610899610c92565b6108a36000610d10565b565b600960009054906101000a900460ff1681565b60008060009054906101000a900473ffffffffffffffffffffffffffffffffffffffff16905090565b601160205281600052604060002081815481106108fd57600080fd5b9060005260206000209060209182820401919006915091509054906101000a900460ff1681565b600160009054906101000a900473ffffffffffffffffffffffffffffffffffffffff1681565b60055481565b600460149054906101000a900460ff1681565b600e8060000160009054906101000a900473ffffffffffffffffffffffffffffffffffffffff16908060010154905082565b600360009054906101000a900473ffffffffffffffffffffffffffffffffffffffff1681565b600460009054906101000a900473ffffffffffffffffffffffffffffffffffffffff1681565b8073ffffffffffffffffffffffffffffffffffffffff168273ffffffffffffffffffffffffffffffffffffffff161415610a1a57600080fd5b81600160006101000a81548173ffffffffffffffffffffffffffffffffffffffff021916908373ffffffffffffffffffffffffffffffffffffffff16021790555080600260006101000a81548173ffffffffffffffffffffffffffffffffffffffff021916908373ffffffffffffffffffffffffffffffffffffffff1602179055507f55b25d7f9b5bf8ea934ba7079455d2ba00c68ea7e66c13695275f6b75b95e5f8600160009054906101000a900473ffffffffffffffffffffffffffffffffffffffff16600260009054906101000a900473ffffffffffffffffffffffffffffffffffffffff16604051610b119291906110ad565b60405180910390a15050565b610b25610c92565b600073ffffffffffffffffffffffffffffffffffffffff168173ffffffffffffffffffffffffffffffffffffffff161415610b95576040517f08c379a0000000000000000000000000000000000000000000000000000000008152600401610b8c90611185565b60405180910390fd5b610b9e81610d10565b50565b60126020528060005260406000206000915054906101000a900473ffffffffffffffffffffffffffffffffffffffff1681565b60006060601160003373ffffffffffffffffffffffffffffffffffffffff1673ffffffffffffffffffffffffffffffffffffffff168152602001908152602001600020805480602002602001604051908101604052809291908181526020018280548015610c8757602002820191906000526020600020906000905b82829054906101000a900460ff1660ff1681526020019060010190602082600001049283019260010382029150808411610c505790505b505050505090505090565b610c9a610dd4565b73ffffffffffffffffffffffffffffffffffffffff16610cb86108b8565b73ffffffffffffffffffffffffffffffffffffffff1614610d0e576040517f08c379a0000000000000000000000000000000000000000000000000000000008152600401610d05906111a5565b60405180910390fd5b565b60008060009054906101000a900473ffffffffffffffffffffffffffffffffffffffff169050816000806101000a81548173ffffffffffffffffffffffffffffffffffffffff021916908373ffffffffffffffffffffffffffffffffffffffff1602179055508173ffffffffffffffffffffffffffffffffffffffff168173ffffffffffffffffffffffffffffffffffffffff167f8be0079c531659141344cd1fd0a4f28419497f9722a3daafe3b4186f6b6457e060405160405180910390a35050565b600033905090565b600081359050610deb816113d2565b92915050565b600081359050610e00816113e9565b92915050565b600081359050610e1581611400565b92915050565b600060208284031215610e3157610e306112da565b5b6000610e3f84828501610ddc565b91505092915050565b60008060408385031215610e5f57610e5e6112da565b5b6000610e6d85828601610ddc565b9250506020610e7e85828601610ddc565b9150509250929050565b60008060408385031215610e9f57610e9e6112da565b5b6000610ead85828601610ddc565b9250506020610ebe85828601610df1565b9150509250929050565b600060208284031215610ede57610edd6112da565b5b6000610eec84828501610df1565b91505092915050565b600060208284031215610f0b57610f0a6112da565b5b6000610f1984828501610e06565b91505092915050565b6000610f2e8383611074565b60208301905092915050565b610f4381611285565b82525050565b6000610f548261124b565b610f5e8185611263565b9350610f698361123b565b8060005b83811015610f9a578151610f818882610f22565b9750610f8c83611256565b925050600181019050610f6d565b5085935050505092915050565b610fb081611297565b82525050565b6000610fc3600c83611274565b9150610fce826112df565b602082019050919050565b6000610fe6602683611274565b9150610ff182611308565b604082019050919050565b6000611009602083611274565b915061101482611357565b602082019050919050565b600061102c601083611274565b915061103782611380565b602082019050919050565b600061104f601583611274565b915061105a826113a9565b602082019050919050565b61106e816112c3565b82525050565b61107d816112cd565b82525050565b61108c816112cd565b82525050565b60006020820190506110a76000830184610f3a565b92915050565b60006040820190506110c26000830185610f3a565b6110cf6020830184610f3a565b9392505050565b60006040820190506110eb6000830185610f3a565b6110f86020830184610fa7565b9392505050565b60006040820190506111146000830185610f3a565b6111216020830184611065565b9392505050565b600060208201905081810360008301526111428184610f49565b905092915050565b600060208201905061115f6000830184610fa7565b92915050565b6000602082019050818103600083015261117e81610fb6565b9050919050565b6000602082019050818103600083015261119e81610fd9565b9050919050565b600060208201905081810360008301526111be81610ffc565b9050919050565b600060208201905081810360008301526111de8161101f565b9050919050565b600060208201905081810360008301526111fe81611042565b9050919050565b600060208201905061121a6000830184611065565b92915050565b60006020820190506112356000830184611083565b92915050565b6000819050602082019050919050565b600081519050919050565b6000602082019050919050565b600082825260208201905092915050565b600082825260208201905092915050565b6000611290826112a3565b9050919050565b60008115159050919050565b600073ffffffffffffffffffffffffffffffffffffffff82169050919050565b6000819050919050565b600060ff82169050919050565b600080fd5b7f67616d65206973206f7665720000000000000000000000000000000000000000600082015250565b7f4f776e61626c653a206e6577206f776e657220697320746865207a65726f206160008201527f6464726573730000000000000000000000000000000000000000000000000000602082015250565b7f4f776e61626c653a2063616c6c6572206973206e6f7420746865206f776e6572600082015250565b7f416c72656164792061737369676e656400000000000000000000000000000000600082015250565b7f596f752063616e2774206d616b652061206d6f76650000000000000000000000600082015250565b6113db81611285565b81146113e657600080fd5b50565b6113f2816112c3565b81146113fd57600080fd5b50565b611409816112cd565b811461141457600080fd5b5056fea2646970667358221220524bb590b281a24c14b54f3a82158f3b78b3fdd46aa1c48bd992c81a1f8b46a264736f6c63430008070033",
					"opcodes": "PUSH1 0x80 PUSH1 0x40 MSTORE CALLVALUE DUP1 ISZERO PUSH2 0x10 JUMPI PUSH1 0x0 DUP1 REVERT JUMPDEST POP PUSH2 0x2D PUSH2 0x22 PUSH2 0x3A PUSH1 0x20 SHL PUSH1 0x20 SHR JUMP JUMPDEST PUSH2 0x42 PUSH1 0x20 SHL PUSH1 0x20 SHR JUMP JUMPDEST PUSH1 0x1E PUSH1 0x7 DUP2 SWAP1 SSTORE POP PUSH2 0x106 JUMP JUMPDEST PUSH1 0x0 CALLER SWAP1 POP SWAP1 JUMP JUMPDEST PUSH1 0x0 DUP1 PUSH1 0x0 SWAP1 SLOAD SWAP1 PUSH2 0x100 EXP SWAP1 DIV PUSH20 0xFFFFFFFFFFFFFFFFFFFFFFFFFFFFFFFFFFFFFFFF AND SWAP1 POP DUP2 PUSH1 0x0 DUP1 PUSH2 0x100 EXP DUP2 SLOAD DUP2 PUSH20 0xFFFFFFFFFFFFFFFFFFFFFFFFFFFFFFFFFFFFFFFF MUL NOT AND SWAP1 DUP4 PUSH20 0xFFFFFFFFFFFFFFFFFFFFFFFFFFFFFFFFFFFFFFFF AND MUL OR SWAP1 SSTORE POP DUP2 PUSH20 0xFFFFFFFFFFFFFFFFFFFFFFFFFFFFFFFFFFFFFFFF AND DUP2 PUSH20 0xFFFFFFFFFFFFFFFFFFFFFFFFFFFFFFFFFFFFFFFF AND PUSH32 0x8BE0079C531659141344CD1FD0A4F28419497F9722A3DAAFE3B4186F6B6457E0 PUSH1 0x40 MLOAD PUSH1 0x40 MLOAD DUP1 SWAP2 SUB SWAP1 LOG3 POP POP JUMP JUMPDEST PUSH2 0x144D DUP1 PUSH2 0x115 PUSH1 0x0 CODECOPY PUSH1 0x0 RETURN INVALID PUSH1 0x80 PUSH1 0x40 MSTORE CALLVALUE DUP1 ISZERO PUSH2 0x10 JUMPI PUSH1 0x0 DUP1 REVERT JUMPDEST POP PUSH1 0x4 CALLDATASIZE LT PUSH2 0x142 JUMPI PUSH1 0x0 CALLDATALOAD PUSH1 0xE0 SHR DUP1 PUSH4 0x8DA5CB5B GT PUSH2 0xB8 JUMPI DUP1 PUSH4 0xC3FE3E28 GT PUSH2 0x7C JUMPI DUP1 PUSH4 0xC3FE3E28 EQ PUSH2 0x337 JUMPI DUP1 PUSH4 0xC5339132 EQ PUSH2 0x356 JUMPI DUP1 PUSH4 0xDFBF53AE EQ PUSH2 0x374 JUMPI DUP1 PUSH4 0xEB23B56B EQ PUSH2 0x392 JUMPI DUP1 PUSH4 0xF2FDE38B EQ PUSH2 0x3AE JUMPI DUP1 PUSH4 0xF96F3BE9 EQ PUSH2 0x3CA JUMPI PUSH2 0x142 JUMP JUMPDEST DUP1 PUSH4 0x8DA5CB5B EQ PUSH2 0x28F JUMPI DUP1 PUSH4 0x90228301 EQ PUSH2 0x2AD JUMPI DUP1 PUSH4 0xA285C54A EQ PUSH2 0x2DD JUMPI DUP1 PUSH4 0xBC120879 EQ PUSH2 0x2FB JUMPI DUP1 PUSH4 0xBDB337D1 EQ PUSH2 0x319 JUMPI PUSH2 0x142 JUMP JUMPDEST DUP1 PUSH4 0x554693B1 GT PUSH2 0x10A JUMPI DUP1 PUSH4 0x554693B1 EQ PUSH2 0x1DD JUMPI DUP1 PUSH4 0x5D248301 EQ PUSH2 0x1FB JUMPI DUP1 PUSH4 0x5E3568B8 EQ PUSH2 0x22B JUMPI DUP1 PUSH4 0x620633CB EQ PUSH2 0x249 JUMPI DUP1 PUSH4 0x715018A6 EQ PUSH2 0x267 JUMPI DUP1 PUSH4 0x88C9CB3C EQ PUSH2 0x271 JUMPI PUSH2 0x142 JUMP JUMPDEST DUP1 PUSH4 0x41A8486 EQ PUSH2 0x147 JUMPI DUP1 PUSH4 0x11BB1537 EQ PUSH2 0x165 JUMPI DUP1 PUSH4 0x1A8A8DD8 EQ PUSH2 0x183 JUMPI DUP1 PUSH4 0x1EA169E5 EQ PUSH2 0x1A2 JUMPI DUP1 PUSH4 0x48DB5F89 EQ PUSH2 0x1BE JUMPI JUMPDEST PUSH1 0x0 DUP1 REVERT JUMPDEST PUSH2 0x14F PUSH2 0x3FA JUMP JUMPDEST PUSH1 0x40 MLOAD PUSH2 0x15C SWAP2 SWAP1 PUSH2 0x1205 JUMP JUMPDEST PUSH1 0x40 MLOAD DUP1 SWAP2 SUB SWAP1 RETURN JUMPDEST PUSH2 0x16D PUSH2 0x400 JUMP JUMPDEST PUSH1 0x40 MLOAD PUSH2 0x17A SWAP2 SWAP1 PUSH2 0x1092 JUMP JUMPDEST PUSH1 0x40 MLOAD DUP1 SWAP2 SUB SWAP1 RETURN JUMPDEST PUSH2 0x18B PUSH2 0x426 JUMP JUMPDEST PUSH1 0x40 MLOAD PUSH2 0x199 SWAP3 SWAP2 SWAP1 PUSH2 0x10D6 JUMP JUMPDEST PUSH1 0x40 MLOAD DUP1 SWAP2 SUB SWAP1 RETURN JUMPDEST PUSH2 0x1BC PUSH1 0x4 DUP1 CALLDATASIZE SUB DUP2 ADD SWAP1 PUSH2 0x1B7 SWAP2 SWAP1 PUSH2 0xEF5 JUMP JUMPDEST PUSH2 0x465 JUMP JUMPDEST STOP JUMPDEST PUSH2 0x1C6 PUSH2 0x74C JUMP JUMPDEST PUSH1 0x40 MLOAD PUSH2 0x1D4 SWAP3 SWAP2 SWAP1 PUSH2 0x10D6 JUMP JUMPDEST PUSH1 0x40 MLOAD DUP1 SWAP2 SUB SWAP1 RETURN JUMPDEST PUSH2 0x1E5 PUSH2 0x78B JUMP JUMPDEST PUSH1 0x40 MLOAD PUSH2 0x1F2 SWAP2 SWAP1 PUSH2 0x1205 JUMP JUMPDEST PUSH1 0x40 MLOAD DUP1 SWAP2 SUB SWAP1 RETURN JUMPDEST PUSH2 0x215 PUSH1 0x4 DUP1 CALLDATASIZE SUB DUP2 ADD SWAP1 PUSH2 0x210 SWAP2 SWAP1 PUSH2 0xEC8 JUMP JUMPDEST PUSH2 0x791 JUMP JUMPDEST PUSH1 0x40 MLOAD PUSH2 0x222 SWAP2 SWAP1 PUSH2 0x1092 JUMP JUMPDEST PUSH1 0x40 MLOAD DUP1 SWAP2 SUB SWAP1 RETURN JUMPDEST PUSH2 0x233 PUSH2 0x7D0 JUMP JUMPDEST PUSH1 0x40 MLOAD PUSH2 0x240 SWAP2 SWAP1 PUSH2 0x1205 JUMP JUMPDEST PUSH1 0x40 MLOAD DUP1 SWAP2 SUB SWAP1 RETURN JUMPDEST PUSH2 0x251 PUSH2 0x7D6 JUMP JUMPDEST PUSH1 0x40 MLOAD PUSH2 0x25E SWAP2 SWAP1 PUSH2 0x1128 JUMP JUMPDEST PUSH1 0x40 MLOAD DUP1 SWAP2 SUB SWAP1 RETURN JUMPDEST PUSH2 0x26F PUSH2 0x891 JUMP JUMPDEST STOP JUMPDEST PUSH2 0x279 PUSH2 0x8A5 JUMP JUMPDEST PUSH1 0x40 MLOAD PUSH2 0x286 SWAP2 SWAP1 PUSH2 0x114A JUMP JUMPDEST PUSH1 0x40 MLOAD DUP1 SWAP2 SUB SWAP1 RETURN JUMPDEST PUSH2 0x297 PUSH2 0x8B8 JUMP JUMPDEST PUSH1 0x40 MLOAD PUSH2 0x2A4 SWAP2 SWAP1 PUSH2 0x1092 JUMP JUMPDEST PUSH1 0x40 MLOAD DUP1 SWAP2 SUB SWAP1 RETURN JUMPDEST PUSH2 0x2C7 PUSH1 0x4 DUP1 CALLDATASIZE SUB DUP2 ADD SWAP1 PUSH2 0x2C2 SWAP2 SWAP1 PUSH2 0xE88 JUMP JUMPDEST PUSH2 0x8E1 JUMP JUMPDEST PUSH1 0x40 MLOAD PUSH2 0x2D4 SWAP2 SWAP1 PUSH2 0x1220 JUMP JUMPDEST PUSH1 0x40 MLOAD DUP1 SWAP2 SUB SWAP1 RETURN JUMPDEST PUSH2 0x2E5 PUSH2 0x924 JUMP JUMPDEST PUSH1 0x40 MLOAD PUSH2 0x2F2 SWAP2 SWAP1 PUSH2 0x1092 JUMP JUMPDEST PUSH1 0x40 MLOAD DUP1 SWAP2 SUB SWAP1 RETURN JUMPDEST PUSH2 0x303 PUSH2 0x94A JUMP JUMPDEST PUSH1 0x40 MLOAD PUSH2 0x310 SWAP2 SWAP1 PUSH2 0x1205 JUMP JUMPDEST PUSH1 0x40 MLOAD DUP1 SWAP2 SUB SWAP1 RETURN JUMPDEST PUSH2 0x321 PUSH2 0x950 JUMP JUMPDEST PUSH1 0x40 MLOAD PUSH2 0x32E SWAP2 SWAP1 PUSH2 0x114A JUMP JUMPDEST PUSH1 0x40 MLOAD DUP1 SWAP2 SUB SWAP1 RETURN JUMPDEST PUSH2 0x33F PUSH2 0x963 JUMP JUMPDEST PUSH1 0x40 MLOAD PUSH2 0x34D SWAP3 SWAP2 SWAP1 PUSH2 0x10FF JUMP JUMPDEST PUSH1 0x40 MLOAD DUP1 SWAP2 SUB SWAP1 RETURN JUMPDEST PUSH2 0x35E PUSH2 0x995 JUMP JUMPDEST PUSH1 0x40 MLOAD PUSH2 0x36B SWAP2 SWAP1 PUSH2 0x1092 JUMP JUMPDEST PUSH1 0x40 MLOAD DUP1 SWAP2 SUB SWAP1 RETURN JUMPDEST PUSH2 0x37C PUSH2 0x9BB JUMP JUMPDEST PUSH1 0x40 MLOAD PUSH2 0x389 SWAP2 SWAP1 PUSH2 0x1092 JUMP JUMPDEST PUSH1 0x40 MLOAD DUP1 SWAP2 SUB SWAP1 RETURN JUMPDEST PUSH2 0x3AC PUSH1 0x4 DUP1 CALLDATASIZE SUB DUP2 ADD SWAP1 PUSH2 0x3A7 SWAP2 SWAP1 PUSH2 0xE48 JUMP JUMPDEST PUSH2 0x9E1 JUMP JUMPDEST STOP JUMPDEST PUSH2 0x3C8 PUSH1 0x4 DUP1 CALLDATASIZE SUB DUP2 ADD SWAP1 PUSH2 0x3C3 SWAP2 SWAP1 PUSH2 0xE1B JUMP JUMPDEST PUSH2 0xB1D JUMP JUMPDEST STOP JUMPDEST PUSH2 0x3E4 PUSH1 0x4 DUP1 CALLDATASIZE SUB DUP2 ADD SWAP1 PUSH2 0x3DF SWAP2 SWAP1 PUSH2 0xEF5 JUMP JUMPDEST PUSH2 0xBA1 JUMP JUMPDEST PUSH1 0x40 MLOAD PUSH2 0x3F1 SWAP2 SWAP1 PUSH2 0x1092 JUMP JUMPDEST PUSH1 0x40 MLOAD DUP1 SWAP2 SUB SWAP1 RETURN JUMPDEST PUSH1 0x8 SLOAD DUP2 JUMP JUMPDEST PUSH1 0x2 PUSH1 0x0 SWAP1 SLOAD SWAP1 PUSH2 0x100 EXP SWAP1 DIV PUSH20 0xFFFFFFFFFFFFFFFFFFFFFFFFFFFFFFFFFFFFFFFF AND DUP2 JUMP JUMPDEST PUSH1 0xD DUP1 PUSH1 0x0 ADD PUSH1 0x0 SWAP1 SLOAD SWAP1 PUSH2 0x100 EXP SWAP1 DIV PUSH20 0xFFFFFFFFFFFFFFFFFFFFFFFFFFFFFFFFFFFFFFFF AND SWAP1 DUP1 PUSH1 0x0 ADD PUSH1 0x14 SWAP1 SLOAD SWAP1 PUSH2 0x100 EXP SWAP1 DIV PUSH1 0xFF AND SWAP1 POP DUP3 JUMP JUMPDEST PUSH1 0x4 PUSH1 0x14 SWAP1 SLOAD SWAP1 PUSH2 0x100 EXP SWAP1 DIV PUSH1 0xFF AND ISZERO PUSH2 0x4B5 JUMPI PUSH1 0x40 MLOAD PUSH32 0x8C379A000000000000000000000000000000000000000000000000000000000 DUP2 MSTORE PUSH1 0x4 ADD PUSH2 0x4AC SWAP1 PUSH2 0x1165 JUMP JUMPDEST PUSH1 0x40 MLOAD DUP1 SWAP2 SUB SWAP1 REVERT JUMPDEST PUSH1 0x1 PUSH1 0x0 SWAP1 SLOAD SWAP1 PUSH2 0x100 EXP SWAP1 DIV PUSH20 0xFFFFFFFFFFFFFFFFFFFFFFFFFFFFFFFFFFFFFFFF AND PUSH20 0xFFFFFFFFFFFFFFFFFFFFFFFFFFFFFFFFFFFFFFFF AND CALLER PUSH20 0xFFFFFFFFFFFFFFFFFFFFFFFFFFFFFFFFFFFFFFFF AND EQ DUP1 PUSH2 0x55E JUMPI POP PUSH1 0x2 PUSH1 0x0 SWAP1 SLOAD SWAP1 PUSH2 0x100 EXP SWAP1 DIV PUSH20 0xFFFFFFFFFFFFFFFFFFFFFFFFFFFFFFFFFFFFFFFF AND PUSH20 0xFFFFFFFFFFFFFFFFFFFFFFFFFFFFFFFFFFFFFFFF AND CALLER PUSH20 0xFFFFFFFFFFFFFFFFFFFFFFFFFFFFFFFFFFFFFFFF AND EQ JUMPDEST DUP1 ISZERO PUSH2 0x5B8 JUMPI POP PUSH1 0x3 PUSH1 0x0 SWAP1 SLOAD SWAP1 PUSH2 0x100 EXP SWAP1 DIV PUSH20 0xFFFFFFFFFFFFFFFFFFFFFFFFFFFFFFFFFFFFFFFF AND PUSH20 0xFFFFFFFFFFFFFFFFFFFFFFFFFFFFFFFFFFFFFFFF AND CALLER PUSH20 0xFFFFFFFFFFFFFFFFFFFFFFFFFFFFFFFFFFFFFFFF AND EQ ISZERO JUMPDEST PUSH2 0x5F7 JUMPI PUSH1 0x40 MLOAD PUSH32 0x8C379A000000000000000000000000000000000000000000000000000000000 DUP2 MSTORE PUSH1 0x4 ADD PUSH2 0x5EE SWAP1 PUSH2 0x11E5 JUMP JUMPDEST PUSH1 0x40 MLOAD DUP1 SWAP2 SUB SWAP1 REVERT JUMPDEST PUSH1 0x0 DUP2 PUSH1 0xFF AND GT DUP1 ISZERO PUSH2 0x60D JUMPI POP PUSH1 0xA DUP2 PUSH1 0xFF AND LT JUMPDEST PUSH2 0x616 JUMPI PUSH1 0x0 DUP1 REVERT JUMPDEST PUSH1 0x0 PUSH20 0xFFFFFFFFFFFFFFFFFFFFFFFFFFFFFFFFFFFFFFFF AND PUSH1 0x12 PUSH1 0x0 DUP4 PUSH1 0xFF AND PUSH1 0xFF AND DUP2 MSTORE PUSH1 0x20 ADD SWAP1 DUP2 MSTORE PUSH1 0x20 ADD PUSH1 0x0 KECCAK256 PUSH1 0x0 SWAP1 SLOAD SWAP1 PUSH2 0x100 EXP SWAP1 DIV PUSH20 0xFFFFFFFFFFFFFFFFFFFFFFFFFFFFFFFFFFFFFFFF AND PUSH20 0xFFFFFFFFFFFFFFFFFFFFFFFFFFFFFFFFFFFFFFFF AND EQ PUSH2 0x6BE JUMPI PUSH1 0x40 MLOAD PUSH32 0x8C379A000000000000000000000000000000000000000000000000000000000 DUP2 MSTORE PUSH1 0x4 ADD PUSH2 0x6B5 SWAP1 PUSH2 0x11C5 JUMP JUMPDEST PUSH1 0x40 MLOAD DUP1 SWAP2 SUB SWAP1 REVERT JUMPDEST PUSH1 0x11 PUSH1 0x0 CALLER PUSH20 0xFFFFFFFFFFFFFFFFFFFFFFFFFFFFFFFFFFFFFFFF AND PUSH20 0xFFFFFFFFFFFFFFFFFFFFFFFFFFFFFFFFFFFFFFFF AND DUP2 MSTORE PUSH1 0x20 ADD SWAP1 DUP2 MSTORE PUSH1 0x20 ADD PUSH1 0x0 KECCAK256 DUP2 SWAP1 DUP1 PUSH1 0x1 DUP2 SLOAD ADD DUP1 DUP3 SSTORE DUP1 SWAP2 POP POP PUSH1 0x1 SWAP1 SUB SWAP1 PUSH1 0x0 MSTORE PUSH1 0x20 PUSH1 0x0 KECCAK256 SWAP1 PUSH1 0x20 SWAP2 DUP3 DUP3 DIV ADD SWAP2 SWAP1 MOD SWAP1 SWAP2 SWAP1 SWAP2 SWAP1 SWAP2 PUSH2 0x100 EXP DUP2 SLOAD DUP2 PUSH1 0xFF MUL NOT AND SWAP1 DUP4 PUSH1 0xFF AND MUL OR SWAP1 SSTORE POP PUSH2 0x748 PUSH2 0xBD4 JUMP JUMPDEST POP POP JUMP JUMPDEST PUSH1 0xB DUP1 PUSH1 0x0 ADD PUSH1 0x0 SWAP1 SLOAD SWAP1 PUSH2 0x100 EXP SWAP1 DIV PUSH20 0xFFFFFFFFFFFFFFFFFFFFFFFFFFFFFFFFFFFFFFFF AND SWAP1 DUP1 PUSH1 0x0 ADD PUSH1 0x14 SWAP1 SLOAD SWAP1 PUSH2 0x100 EXP SWAP1 DIV PUSH1 0xFF AND SWAP1 POP DUP3 JUMP JUMPDEST PUSH1 0x6 SLOAD DUP2 JUMP JUMPDEST PUSH1 0xA DUP2 DUP2 SLOAD DUP2 LT PUSH2 0x7A1 JUMPI PUSH1 0x0 DUP1 REVERT JUMPDEST SWAP1 PUSH1 0x0 MSTORE PUSH1 0x20 PUSH1 0x0 KECCAK256 ADD PUSH1 0x0 SWAP2 POP SLOAD SWAP1 PUSH2 0x100 EXP SWAP1 DIV PUSH20 0xFFFFFFFFFFFFFFFFFFFFFFFFFFFFFFFFFFFFFFFF AND DUP2 JUMP JUMPDEST PUSH1 0x7 SLOAD DUP2 JUMP JUMPDEST PUSH1 0x60 PUSH1 0x11 PUSH1 0x0 CALLER PUSH20 0xFFFFFFFFFFFFFFFFFFFFFFFFFFFFFFFFFFFFFFFF AND PUSH20 0xFFFFFFFFFFFFFFFFFFFFFFFFFFFFFFFFFFFFFFFF AND DUP2 MSTORE PUSH1 0x20 ADD SWAP1 DUP2 MSTORE PUSH1 0x20 ADD PUSH1 0x0 KECCAK256 DUP1 SLOAD DUP1 PUSH1 0x20 MUL PUSH1 0x20 ADD PUSH1 0x40 MLOAD SWAP1 DUP2 ADD PUSH1 0x40 MSTORE DUP1 SWAP3 SWAP2 SWAP1 DUP2 DUP2 MSTORE PUSH1 0x20 ADD DUP3 DUP1 SLOAD DUP1 ISZERO PUSH2 0x887 JUMPI PUSH1 0x20 MUL DUP3 ADD SWAP2 SWAP1 PUSH1 0x0 MSTORE PUSH1 0x20 PUSH1 0x0 KECCAK256 SWAP1 PUSH1 0x0 SWAP1 JUMPDEST DUP3 DUP3 SWAP1 SLOAD SWAP1 PUSH2 0x100 EXP SWAP1 DIV PUSH1 0xFF AND PUSH1 0xFF AND DUP2 MSTORE PUSH1 0x20 ADD SWAP1 PUSH1 0x1 ADD SWAP1 PUSH1 0x20 DUP3 PUSH1 0x0 ADD DIV SWAP3 DUP4 ADD SWAP3 PUSH1 0x1 SUB DUP3 MUL SWAP2 POP DUP1 DUP5 GT PUSH2 0x850 JUMPI SWAP1 POP JUMPDEST POP POP POP POP POP SWAP1 POP SWAP1 JUMP JUMPDEST PUSH2 0x899 PUSH2 0xC92 JUMP JUMPDEST PUSH2 0x8A3 PUSH1 0x0 PUSH2 0xD10 JUMP JUMPDEST JUMP JUMPDEST PUSH1 0x9 PUSH1 0x0 SWAP1 SLOAD SWAP1 PUSH2 0x100 EXP SWAP1 DIV PUSH1 0xFF AND DUP2 JUMP JUMPDEST PUSH1 0x0 DUP1 PUSH1 0x0 SWAP1 SLOAD SWAP1 PUSH2 0x100 EXP SWAP1 DIV PUSH20 0xFFFFFFFFFFFFFFFFFFFFFFFFFFFFFFFFFFFFFFFF AND SWAP1 POP SWAP1 JUMP JUMPDEST PUSH1 0x11 PUSH1 0x20 MSTORE DUP2 PUSH1 0x0 MSTORE PUSH1 0x40 PUSH1 0x0 KECCAK256 DUP2 DUP2 SLOAD DUP2 LT PUSH2 0x8FD JUMPI PUSH1 0x0 DUP1 REVERT JUMPDEST SWAP1 PUSH1 0x0 MSTORE PUSH1 0x20 PUSH1 0x0 KECCAK256 SWAP1 PUSH1 0x20 SWAP2 DUP3 DUP3 DIV ADD SWAP2 SWAP1 MOD SWAP2 POP SWAP2 POP SWAP1 SLOAD SWAP1 PUSH2 0x100 EXP SWAP1 DIV PUSH1 0xFF AND DUP2 JUMP JUMPDEST PUSH1 0x1 PUSH1 0x0 SWAP1 SLOAD SWAP1 PUSH2 0x100 EXP SWAP1 DIV PUSH20 0xFFFFFFFFFFFFFFFFFFFFFFFFFFFFFFFFFFFFFFFF AND DUP2 JUMP JUMPDEST PUSH1 0x5 SLOAD DUP2 JUMP JUMPDEST PUSH1 0x4 PUSH1 0x14 SWAP1 SLOAD SWAP1 PUSH2 0x100 EXP SWAP1 DIV PUSH1 0xFF AND DUP2 JUMP JUMPDEST PUSH1 0xE DUP1 PUSH1 0x0 ADD PUSH1 0x0 SWAP1 SLOAD SWAP1 PUSH2 0x100 EXP SWAP1 DIV PUSH20 0xFFFFFFFFFFFFFFFFFFFFFFFFFFFFFFFFFFFFFFFF AND SWAP1 DUP1 PUSH1 0x1 ADD SLOAD SWAP1 POP DUP3 JUMP JUMPDEST PUSH1 0x3 PUSH1 0x0 SWAP1 SLOAD SWAP1 PUSH2 0x100 EXP SWAP1 DIV PUSH20 0xFFFFFFFFFFFFFFFFFFFFFFFFFFFFFFFFFFFFFFFF AND DUP2 JUMP JUMPDEST PUSH1 0x4 PUSH1 0x0 SWAP1 SLOAD SWAP1 PUSH2 0x100 EXP SWAP1 DIV PUSH20 0xFFFFFFFFFFFFFFFFFFFFFFFFFFFFFFFFFFFFFFFF AND DUP2 JUMP JUMPDEST DUP1 PUSH20 0xFFFFFFFFFFFFFFFFFFFFFFFFFFFFFFFFFFFFFFFF AND DUP3 PUSH20 0xFFFFFFFFFFFFFFFFFFFFFFFFFFFFFFFFFFFFFFFF AND EQ ISZERO PUSH2 0xA1A JUMPI PUSH1 0x0 DUP1 REVERT JUMPDEST DUP2 PUSH1 0x1 PUSH1 0x0 PUSH2 0x100 EXP DUP2 SLOAD DUP2 PUSH20 0xFFFFFFFFFFFFFFFFFFFFFFFFFFFFFFFFFFFFFFFF MUL NOT AND SWAP1 DUP4 PUSH20 0xFFFFFFFFFFFFFFFFFFFFFFFFFFFFFFFFFFFFFFFF AND MUL OR SWAP1 SSTORE POP DUP1 PUSH1 0x2 PUSH1 0x0 PUSH2 0x100 EXP DUP2 SLOAD DUP2 PUSH20 0xFFFFFFFFFFFFFFFFFFFFFFFFFFFFFFFFFFFFFFFF MUL NOT AND SWAP1 DUP4 PUSH20 0xFFFFFFFFFFFFFFFFFFFFFFFFFFFFFFFFFFFFFFFF AND MUL OR SWAP1 SSTORE POP PUSH32 0x55B25D7F9B5BF8EA934BA7079455D2BA00C68EA7E66C13695275F6B75B95E5F8 PUSH1 0x1 PUSH1 0x0 SWAP1 SLOAD SWAP1 PUSH2 0x100 EXP SWAP1 DIV PUSH20 0xFFFFFFFFFFFFFFFFFFFFFFFFFFFFFFFFFFFFFFFF AND PUSH1 0x2 PUSH1 0x0 SWAP1 SLOAD SWAP1 PUSH2 0x100 EXP SWAP1 DIV PUSH20 0xFFFFFFFFFFFFFFFFFFFFFFFFFFFFFFFFFFFFFFFF AND PUSH1 0x40 MLOAD PUSH2 0xB11 SWAP3 SWAP2 SWAP1 PUSH2 0x10AD JUMP JUMPDEST PUSH1 0x40 MLOAD DUP1 SWAP2 SUB SWAP1 LOG1 POP POP JUMP JUMPDEST PUSH2 0xB25 PUSH2 0xC92 JUMP JUMPDEST PUSH1 0x0 PUSH20 0xFFFFFFFFFFFFFFFFFFFFFFFFFFFFFFFFFFFFFFFF AND DUP2 PUSH20 0xFFFFFFFFFFFFFFFFFFFFFFFFFFFFFFFFFFFFFFFF AND EQ ISZERO PUSH2 0xB95 JUMPI PUSH1 0x40 MLOAD PUSH32 0x8C379A000000000000000000000000000000000000000000000000000000000 DUP2 MSTORE PUSH1 0x4 ADD PUSH2 0xB8C SWAP1 PUSH2 0x1185 JUMP JUMPDEST PUSH1 0x40 MLOAD DUP1 SWAP2 SUB SWAP1 REVERT JUMPDEST PUSH2 0xB9E DUP2 PUSH2 0xD10 JUMP JUMPDEST POP JUMP JUMPDEST PUSH1 0x12 PUSH1 0x20 MSTORE DUP1 PUSH1 0x0 MSTORE PUSH1 0x40 PUSH1 0x0 KECCAK256 PUSH1 0x0 SWAP2 POP SLOAD SWAP1 PUSH2 0x100 EXP SWAP1 DIV PUSH20 0xFFFFFFFFFFFFFFFFFFFFFFFFFFFFFFFFFFFFFFFF AND DUP2 JUMP JUMPDEST PUSH1 0x0 PUSH1 0x60 PUSH1 0x11 PUSH1 0x0 CALLER PUSH20 0xFFFFFFFFFFFFFFFFFFFFFFFFFFFFFFFFFFFFFFFF AND PUSH20 0xFFFFFFFFFFFFFFFFFFFFFFFFFFFFFFFFFFFFFFFF AND DUP2 MSTORE PUSH1 0x20 ADD SWAP1 DUP2 MSTORE PUSH1 0x20 ADD PUSH1 0x0 KECCAK256 DUP1 SLOAD DUP1 PUSH1 0x20 MUL PUSH1 0x20 ADD PUSH1 0x40 MLOAD SWAP1 DUP2 ADD PUSH1 0x40 MSTORE DUP1 SWAP3 SWAP2 SWAP1 DUP2 DUP2 MSTORE PUSH1 0x20 ADD DUP3 DUP1 SLOAD DUP1 ISZERO PUSH2 0xC87 JUMPI PUSH1 0x20 MUL DUP3 ADD SWAP2 SWAP1 PUSH1 0x0 MSTORE PUSH1 0x20 PUSH1 0x0 KECCAK256 SWAP1 PUSH1 0x0 SWAP1 JUMPDEST DUP3 DUP3 SWAP1 SLOAD SWAP1 PUSH2 0x100 EXP SWAP1 DIV PUSH1 0xFF AND PUSH1 0xFF AND DUP2 MSTORE PUSH1 0x20 ADD SWAP1 PUSH1 0x1 ADD SWAP1 PUSH1 0x20 DUP3 PUSH1 0x0 ADD DIV SWAP3 DUP4 ADD SWAP3 PUSH1 0x1 SUB DUP3 MUL SWAP2 POP DUP1 DUP5 GT PUSH2 0xC50 JUMPI SWAP1 POP JUMPDEST POP POP POP POP POP SWAP1 POP POP SWAP1 JUMP JUMPDEST PUSH2 0xC9A PUSH2 0xDD4 JUMP JUMPDEST PUSH20 0xFFFFFFFFFFFFFFFFFFFFFFFFFFFFFFFFFFFFFFFF AND PUSH2 0xCB8 PUSH2 0x8B8 JUMP JUMPDEST PUSH20 0xFFFFFFFFFFFFFFFFFFFFFFFFFFFFFFFFFFFFFFFF AND EQ PUSH2 0xD0E JUMPI PUSH1 0x40 MLOAD PUSH32 0x8C379A000000000000000000000000000000000000000000000000000000000 DUP2 MSTORE PUSH1 0x4 ADD PUSH2 0xD05 SWAP1 PUSH2 0x11A5 JUMP JUMPDEST PUSH1 0x40 MLOAD DUP1 SWAP2 SUB SWAP1 REVERT JUMPDEST JUMP JUMPDEST PUSH1 0x0 DUP1 PUSH1 0x0 SWAP1 SLOAD SWAP1 PUSH2 0x100 EXP SWAP1 DIV PUSH20 0xFFFFFFFFFFFFFFFFFFFFFFFFFFFFFFFFFFFFFFFF AND SWAP1 POP DUP2 PUSH1 0x0 DUP1 PUSH2 0x100 EXP DUP2 SLOAD DUP2 PUSH20 0xFFFFFFFFFFFFFFFFFFFFFFFFFFFFFFFFFFFFFFFF MUL NOT AND SWAP1 DUP4 PUSH20 0xFFFFFFFFFFFFFFFFFFFFFFFFFFFFFFFFFFFFFFFF AND MUL OR SWAP1 SSTORE POP DUP2 PUSH20 0xFFFFFFFFFFFFFFFFFFFFFFFFFFFFFFFFFFFFFFFF AND DUP2 PUSH20 0xFFFFFFFFFFFFFFFFFFFFFFFFFFFFFFFFFFFFFFFF AND PUSH32 0x8BE0079C531659141344CD1FD0A4F28419497F9722A3DAAFE3B4186F6B6457E0 PUSH1 0x40 MLOAD PUSH1 0x40 MLOAD DUP1 SWAP2 SUB SWAP1 LOG3 POP POP JUMP JUMPDEST PUSH1 0x0 CALLER SWAP1 POP SWAP1 JUMP JUMPDEST PUSH1 0x0 DUP2 CALLDATALOAD SWAP1 POP PUSH2 0xDEB DUP2 PUSH2 0x13D2 JUMP JUMPDEST SWAP3 SWAP2 POP POP JUMP JUMPDEST PUSH1 0x0 DUP2 CALLDATALOAD SWAP1 POP PUSH2 0xE00 DUP2 PUSH2 0x13E9 JUMP JUMPDEST SWAP3 SWAP2 POP POP JUMP JUMPDEST PUSH1 0x0 DUP2 CALLDATALOAD SWAP1 POP PUSH2 0xE15 DUP2 PUSH2 0x1400 JUMP JUMPDEST SWAP3 SWAP2 POP POP JUMP JUMPDEST PUSH1 0x0 PUSH1 0x20 DUP3 DUP5 SUB SLT ISZERO PUSH2 0xE31 JUMPI PUSH2 0xE30 PUSH2 0x12DA JUMP JUMPDEST JUMPDEST PUSH1 0x0 PUSH2 0xE3F DUP5 DUP3 DUP6 ADD PUSH2 0xDDC JUMP JUMPDEST SWAP2 POP POP SWAP3 SWAP2 POP POP JUMP JUMPDEST PUSH1 0x0 DUP1 PUSH1 0x40 DUP4 DUP6 SUB SLT ISZERO PUSH2 0xE5F JUMPI PUSH2 0xE5E PUSH2 0x12DA JUMP JUMPDEST JUMPDEST PUSH1 0x0 PUSH2 0xE6D DUP6 DUP3 DUP7 ADD PUSH2 0xDDC JUMP JUMPDEST SWAP3 POP POP PUSH1 0x20 PUSH2 0xE7E DUP6 DUP3 DUP7 ADD PUSH2 0xDDC JUMP JUMPDEST SWAP2 POP POP SWAP3 POP SWAP3 SWAP1 POP JUMP JUMPDEST PUSH1 0x0 DUP1 PUSH1 0x40 DUP4 DUP6 SUB SLT ISZERO PUSH2 0xE9F JUMPI PUSH2 0xE9E PUSH2 0x12DA JUMP JUMPDEST JUMPDEST PUSH1 0x0 PUSH2 0xEAD DUP6 DUP3 DUP7 ADD PUSH2 0xDDC JUMP JUMPDEST SWAP3 POP POP PUSH1 0x20 PUSH2 0xEBE DUP6 DUP3 DUP7 ADD PUSH2 0xDF1 JUMP JUMPDEST SWAP2 POP POP SWAP3 POP SWAP3 SWAP1 POP JUMP JUMPDEST PUSH1 0x0 PUSH1 0x20 DUP3 DUP5 SUB SLT ISZERO PUSH2 0xEDE JUMPI PUSH2 0xEDD PUSH2 0x12DA JUMP JUMPDEST JUMPDEST PUSH1 0x0 PUSH2 0xEEC DUP5 DUP3 DUP6 ADD PUSH2 0xDF1 JUMP JUMPDEST SWAP2 POP POP SWAP3 SWAP2 POP POP JUMP JUMPDEST PUSH1 0x0 PUSH1 0x20 DUP3 DUP5 SUB SLT ISZERO PUSH2 0xF0B JUMPI PUSH2 0xF0A PUSH2 0x12DA JUMP JUMPDEST JUMPDEST PUSH1 0x0 PUSH2 0xF19 DUP5 DUP3 DUP6 ADD PUSH2 0xE06 JUMP JUMPDEST SWAP2 POP POP SWAP3 SWAP2 POP POP JUMP JUMPDEST PUSH1 0x0 PUSH2 0xF2E DUP4 DUP4 PUSH2 0x1074 JUMP JUMPDEST PUSH1 0x20 DUP4 ADD SWAP1 POP SWAP3 SWAP2 POP POP JUMP JUMPDEST PUSH2 0xF43 DUP2 PUSH2 0x1285 JUMP JUMPDEST DUP3 MSTORE POP POP JUMP JUMPDEST PUSH1 0x0 PUSH2 0xF54 DUP3 PUSH2 0x124B JUMP JUMPDEST PUSH2 0xF5E DUP2 DUP6 PUSH2 0x1263 JUMP JUMPDEST SWAP4 POP PUSH2 0xF69 DUP4 PUSH2 0x123B JUMP JUMPDEST DUP1 PUSH1 0x0 JUMPDEST DUP4 DUP2 LT ISZERO PUSH2 0xF9A JUMPI DUP2 MLOAD PUSH2 0xF81 DUP9 DUP3 PUSH2 0xF22 JUMP JUMPDEST SWAP8 POP PUSH2 0xF8C DUP4 PUSH2 0x1256 JUMP JUMPDEST SWAP3 POP POP PUSH1 0x1 DUP2 ADD SWAP1 POP PUSH2 0xF6D JUMP JUMPDEST POP DUP6 SWAP4 POP POP POP POP SWAP3 SWAP2 POP POP JUMP JUMPDEST PUSH2 0xFB0 DUP2 PUSH2 0x1297 JUMP JUMPDEST DUP3 MSTORE POP POP JUMP JUMPDEST PUSH1 0x0 PUSH2 0xFC3 PUSH1 0xC DUP4 PUSH2 0x1274 JUMP JUMPDEST SWAP2 POP PUSH2 0xFCE DUP3 PUSH2 0x12DF JUMP JUMPDEST PUSH1 0x20 DUP3 ADD SWAP1 POP SWAP2 SWAP1 POP JUMP JUMPDEST PUSH1 0x0 PUSH2 0xFE6 PUSH1 0x26 DUP4 PUSH2 0x1274 JUMP JUMPDEST SWAP2 POP PUSH2 0xFF1 DUP3 PUSH2 0x1308 JUMP JUMPDEST PUSH1 0x40 DUP3 ADD SWAP1 POP SWAP2 SWAP1 POP JUMP JUMPDEST PUSH1 0x0 PUSH2 0x1009 PUSH1 0x20 DUP4 PUSH2 0x1274 JUMP JUMPDEST SWAP2 POP PUSH2 0x1014 DUP3 PUSH2 0x1357 JUMP JUMPDEST PUSH1 0x20 DUP3 ADD SWAP1 POP SWAP2 SWAP1 POP JUMP JUMPDEST PUSH1 0x0 PUSH2 0x102C PUSH1 0x10 DUP4 PUSH2 0x1274 JUMP JUMPDEST SWAP2 POP PUSH2 0x1037 DUP3 PUSH2 0x1380 JUMP JUMPDEST PUSH1 0x20 DUP3 ADD SWAP1 POP SWAP2 SWAP1 POP JUMP JUMPDEST PUSH1 0x0 PUSH2 0x104F PUSH1 0x15 DUP4 PUSH2 0x1274 JUMP JUMPDEST SWAP2 POP PUSH2 0x105A DUP3 PUSH2 0x13A9 JUMP JUMPDEST PUSH1 0x20 DUP3 ADD SWAP1 POP SWAP2 SWAP1 POP JUMP JUMPDEST PUSH2 0x106E DUP2 PUSH2 0x12C3 JUMP JUMPDEST DUP3 MSTORE POP POP JUMP JUMPDEST PUSH2 0x107D DUP2 PUSH2 0x12CD JUMP JUMPDEST DUP3 MSTORE POP POP JUMP JUMPDEST PUSH2 0x108C DUP2 PUSH2 0x12CD JUMP JUMPDEST DUP3 MSTORE POP POP JUMP JUMPDEST PUSH1 0x0 PUSH1 0x20 DUP3 ADD SWAP1 POP PUSH2 0x10A7 PUSH1 0x0 DUP4 ADD DUP5 PUSH2 0xF3A JUMP JUMPDEST SWAP3 SWAP2 POP POP JUMP JUMPDEST PUSH1 0x0 PUSH1 0x40 DUP3 ADD SWAP1 POP PUSH2 0x10C2 PUSH1 0x0 DUP4 ADD DUP6 PUSH2 0xF3A JUMP JUMPDEST PUSH2 0x10CF PUSH1 0x20 DUP4 ADD DUP5 PUSH2 0xF3A JUMP JUMPDEST SWAP4 SWAP3 POP POP POP JUMP JUMPDEST PUSH1 0x0 PUSH1 0x40 DUP3 ADD SWAP1 POP PUSH2 0x10EB PUSH1 0x0 DUP4 ADD DUP6 PUSH2 0xF3A JUMP JUMPDEST PUSH2 0x10F8 PUSH1 0x20 DUP4 ADD DUP5 PUSH2 0xFA7 JUMP JUMPDEST SWAP4 SWAP3 POP POP POP JUMP JUMPDEST PUSH1 0x0 PUSH1 0x40 DUP3 ADD SWAP1 POP PUSH2 0x1114 PUSH1 0x0 DUP4 ADD DUP6 PUSH2 0xF3A JUMP JUMPDEST PUSH2 0x1121 PUSH1 0x20 DUP4 ADD DUP5 PUSH2 0x1065 JUMP JUMPDEST SWAP4 SWAP3 POP POP POP JUMP JUMPDEST PUSH1 0x0 PUSH1 0x20 DUP3 ADD SWAP1 POP DUP2 DUP2 SUB PUSH1 0x0 DUP4 ADD MSTORE PUSH2 0x1142 DUP2 DUP5 PUSH2 0xF49 JUMP JUMPDEST SWAP1 POP SWAP3 SWAP2 POP POP JUMP JUMPDEST PUSH1 0x0 PUSH1 0x20 DUP3 ADD SWAP1 POP PUSH2 0x115F PUSH1 0x0 DUP4 ADD DUP5 PUSH2 0xFA7 JUMP JUMPDEST SWAP3 SWAP2 POP POP JUMP JUMPDEST PUSH1 0x0 PUSH1 0x20 DUP3 ADD SWAP1 POP DUP2 DUP2 SUB PUSH1 0x0 DUP4 ADD MSTORE PUSH2 0x117E DUP2 PUSH2 0xFB6 JUMP JUMPDEST SWAP1 POP SWAP2 SWAP1 POP JUMP JUMPDEST PUSH1 0x0 PUSH1 0x20 DUP3 ADD SWAP1 POP DUP2 DUP2 SUB PUSH1 0x0 DUP4 ADD MSTORE PUSH2 0x119E DUP2 PUSH2 0xFD9 JUMP JUMPDEST SWAP1 POP SWAP2 SWAP1 POP JUMP JUMPDEST PUSH1 0x0 PUSH1 0x20 DUP3 ADD SWAP1 POP DUP2 DUP2 SUB PUSH1 0x0 DUP4 ADD MSTORE PUSH2 0x11BE DUP2 PUSH2 0xFFC JUMP JUMPDEST SWAP1 POP SWAP2 SWAP1 POP JUMP JUMPDEST PUSH1 0x0 PUSH1 0x20 DUP3 ADD SWAP1 POP DUP2 DUP2 SUB PUSH1 0x0 DUP4 ADD MSTORE PUSH2 0x11DE DUP2 PUSH2 0x101F JUMP JUMPDEST SWAP1 POP SWAP2 SWAP1 POP JUMP JUMPDEST PUSH1 0x0 PUSH1 0x20 DUP3 ADD SWAP1 POP DUP2 DUP2 SUB PUSH1 0x0 DUP4 ADD MSTORE PUSH2 0x11FE DUP2 PUSH2 0x1042 JUMP JUMPDEST SWAP1 POP SWAP2 SWAP1 POP JUMP JUMPDEST PUSH1 0x0 PUSH1 0x20 DUP3 ADD SWAP1 POP PUSH2 0x121A PUSH1 0x0 DUP4 ADD DUP5 PUSH2 0x1065 JUMP JUMPDEST SWAP3 SWAP2 POP POP JUMP JUMPDEST PUSH1 0x0 PUSH1 0x20 DUP3 ADD SWAP1 POP PUSH2 0x1235 PUSH1 0x0 DUP4 ADD DUP5 PUSH2 0x1083 JUMP JUMPDEST SWAP3 SWAP2 POP POP JUMP JUMPDEST PUSH1 0x0 DUP2 SWAP1 POP PUSH1 0x20 DUP3 ADD SWAP1 POP SWAP2 SWAP1 POP JUMP JUMPDEST PUSH1 0x0 DUP2 MLOAD SWAP1 POP SWAP2 SWAP1 POP JUMP JUMPDEST PUSH1 0x0 PUSH1 0x20 DUP3 ADD SWAP1 POP SWAP2 SWAP1 POP JUMP JUMPDEST PUSH1 0x0 DUP3 DUP3 MSTORE PUSH1 0x20 DUP3 ADD SWAP1 POP SWAP3 SWAP2 POP POP JUMP JUMPDEST PUSH1 0x0 DUP3 DUP3 MSTORE PUSH1 0x20 DUP3 ADD SWAP1 POP SWAP3 SWAP2 POP POP JUMP JUMPDEST PUSH1 0x0 PUSH2 0x1290 DUP3 PUSH2 0x12A3 JUMP JUMPDEST SWAP1 POP SWAP2 SWAP1 POP JUMP JUMPDEST PUSH1 0x0 DUP2 ISZERO ISZERO SWAP1 POP SWAP2 SWAP1 POP JUMP JUMPDEST PUSH1 0x0 PUSH20 0xFFFFFFFFFFFFFFFFFFFFFFFFFFFFFFFFFFFFFFFF DUP3 AND SWAP1 POP SWAP2 SWAP1 POP JUMP JUMPDEST PUSH1 0x0 DUP2 SWAP1 POP SWAP2 SWAP1 POP JUMP JUMPDEST PUSH1 0x0 PUSH1 0xFF DUP3 AND SWAP1 POP SWAP2 SWAP1 POP JUMP JUMPDEST PUSH1 0x0 DUP1 REVERT JUMPDEST PUSH32 0x67616D65206973206F7665720000000000000000000000000000000000000000 PUSH1 0x0 DUP3 ADD MSTORE POP JUMP JUMPDEST PUSH32 0x4F776E61626C653A206E6577206F776E657220697320746865207A65726F2061 PUSH1 0x0 DUP3 ADD MSTORE PUSH32 0x6464726573730000000000000000000000000000000000000000000000000000 PUSH1 0x20 DUP3 ADD MSTORE POP JUMP JUMPDEST PUSH32 0x4F776E61626C653A2063616C6C6572206973206E6F7420746865206F776E6572 PUSH1 0x0 DUP3 ADD MSTORE POP JUMP JUMPDEST PUSH32 0x416C72656164792061737369676E656400000000000000000000000000000000 PUSH1 0x0 DUP3 ADD MSTORE POP JUMP JUMPDEST PUSH32 0x596F752063616E2774206D616B652061206D6F76650000000000000000000000 PUSH1 0x0 DUP3 ADD MSTORE POP JUMP JUMPDEST PUSH2 0x13DB DUP2 PUSH2 0x1285 JUMP JUMPDEST DUP2 EQ PUSH2 0x13E6 JUMPI PUSH1 0x0 DUP1 REVERT JUMPDEST POP JUMP JUMPDEST PUSH2 0x13F2 DUP2 PUSH2 0x12C3 JUMP JUMPDEST DUP2 EQ PUSH2 0x13FD JUMPI PUSH1 0x0 DUP1 REVERT JUMPDEST POP JUMP JUMPDEST PUSH2 0x1409 DUP2 PUSH2 0x12CD JUMP JUMPDEST DUP2 EQ PUSH2 0x1414 JUMPI PUSH1 0x0 DUP1 REVERT JUMPDEST POP JUMP INVALID LOG2 PUSH5 0x6970667358 0x22 SLT KECCAK256 MSTORE 0x4B 0xB5 SWAP1 0xB2 DUP2 LOG2 0x4C EQ 0xB5 0x4F GASPRICE DUP3 ISZERO DUP16 EXTCODESIZE PUSH25 0xB3FDD46AA1C48BD992C81A1F8B46A264736F6C634300080700 CALLER "
				},
				"gasEstimates": {
					"creation": {
						"codeDepositCost": "1039400",
						"executionCost": "infinite",
						"totalCost": "infinite"
					},
					"external": {
						"_startTurn()": "2453",
						"game()": "4762",
						"gameBoard(uint256)": "5001",
						"gameOver()": "2632",
						"getPlayersMoves()": "infinite",
						"lastPlayed()": "2558",
						"moveTaken()": "2452",
						"owner()": "2545",
						"player()": "4944",
						"playerA()": "2581",
						"playerB()": "2560",
						"pleya()": "4900",
						"renounceOwnership()": "30509",
						"s_moves(uint8)": "2977",
						"s_playerMoves(address,uint256)": "6877",
						"session()": "2496",
						"startGame(address,address)": "infinite",
						"timer()": "2604",
						"transferOwnership(address)": "30857",
						"turnsTaken()": "2518",
						"winner()": "2580",
						"yourMove(uint8)": "infinite"
					},
					"internal": {
						"addReward(uint256)": "infinite",
						"checkWin()": "infinite",
						"sendPrize()": "infinite"
					}
				},
				"methodIdentifiers": {
					"_startTurn()": "041a8486",
					"game()": "c3fe3e28",
					"gameBoard(uint256)": "5d248301",
					"gameOver()": "bdb337d1",
					"getPlayersMoves()": "620633cb",
					"lastPlayed()": "c5339132",
					"moveTaken()": "554693b1",
					"owner()": "8da5cb5b",
					"player()": "48db5f89",
					"playerA()": "a285c54a",
					"playerB()": "11bb1537",
					"pleya()": "1a8a8dd8",
					"renounceOwnership()": "715018a6",
					"s_moves(uint8)": "f96f3be9",
					"s_playerMoves(address,uint256)": "90228301",
					"session()": "5e3568b8",
					"startGame(address,address)": "eb23b56b",
					"timer()": "88c9cb3c",
					"transferOwnership(address)": "f2fde38b",
					"turnsTaken()": "bc120879",
					"winner()": "dfbf53ae",
					"yourMove(uint8)": "1ea169e5"
				}
			},
			"storageLayout": {
				"storage": [
					{
						"astId": 7,
						"contract": "ddd.sol:Tris",
						"label": "_owner",
						"offset": 0,
						"slot": "0",
						"type": "t_address"
					},
					{
						"astId": 141,
						"contract": "ddd.sol:Tris",
						"label": "playerA",
						"offset": 0,
						"slot": "1",
						"type": "t_address"
					},
					{
						"astId": 143,
						"contract": "ddd.sol:Tris",
						"label": "playerB",
						"offset": 0,
						"slot": "2",
						"type": "t_address"
					},
					{
						"astId": 145,
						"contract": "ddd.sol:Tris",
						"label": "lastPlayed",
						"offset": 0,
						"slot": "3",
						"type": "t_address"
					},
					{
						"astId": 147,
						"contract": "ddd.sol:Tris",
						"label": "winner",
						"offset": 0,
						"slot": "4",
						"type": "t_address"
					},
					{
						"astId": 149,
						"contract": "ddd.sol:Tris",
						"label": "gameOver",
						"offset": 20,
						"slot": "4",
						"type": "t_bool"
					},
					{
						"astId": 151,
						"contract": "ddd.sol:Tris",
						"label": "turnsTaken",
						"offset": 0,
						"slot": "5",
						"type": "t_uint256"
					},
					{
						"astId": 153,
						"contract": "ddd.sol:Tris",
						"label": "moveTaken",
						"offset": 0,
						"slot": "6",
						"type": "t_uint256"
					},
					{
						"astId": 155,
						"contract": "ddd.sol:Tris",
						"label": "session",
						"offset": 0,
						"slot": "7",
						"type": "t_uint256"
					},
					{
						"astId": 157,
						"contract": "ddd.sol:Tris",
						"label": "_startTurn",
						"offset": 0,
						"slot": "8",
						"type": "t_uint256"
					},
					{
						"astId": 159,
						"contract": "ddd.sol:Tris",
						"label": "timer",
						"offset": 0,
						"slot": "9",
						"type": "t_bool"
					},
					{
						"astId": 170,
						"contract": "ddd.sol:Tris",
						"label": "gameBoard",
						"offset": 0,
						"slot": "10",
						"type": "t_array(t_address)dyn_storage"
					},
					{
						"astId": 181,
						"contract": "ddd.sol:Tris",
						"label": "player",
						"offset": 0,
						"slot": "11",
						"type": "t_struct(Player)178_storage"
					},
					{
						"astId": 189,
						"contract": "ddd.sol:Tris",
						"label": "pleya",
						"offset": 0,
						"slot": "13",
						"type": "t_struct(Playe)186_storage"
					},
					{
						"astId": 200,
						"contract": "ddd.sol:Tris",
						"label": "game",
						"offset": 0,
						"slot": "14",
						"type": "t_struct(Game)197_storage"
					},
					{
						"astId": 244,
						"contract": "ddd.sol:Tris",
						"label": "s_playerMoves",
						"offset": 0,
						"slot": "17",
						"type": "t_mapping(t_address,t_array(t_uint8)dyn_storage)"
					},
					{
						"astId": 248,
						"contract": "ddd.sol:Tris",
						"label": "s_moves",
						"offset": 0,
						"slot": "18",
						"type": "t_mapping(t_uint8,t_address)"
					}
				],
				"types": {
					"t_address": {
						"encoding": "inplace",
						"label": "address",
						"numberOfBytes": "20"
					},
					"t_array(t_address)dyn_storage": {
						"base": "t_address",
						"encoding": "dynamic_array",
						"label": "address[]",
						"numberOfBytes": "32"
					},
					"t_array(t_uint256)dyn_storage": {
						"base": "t_uint256",
						"encoding": "dynamic_array",
						"label": "uint256[]",
						"numberOfBytes": "32"
					},
					"t_array(t_uint8)dyn_storage": {
						"base": "t_uint8",
						"encoding": "dynamic_array",
						"label": "uint8[]",
						"numberOfBytes": "32"
					},
					"t_bool": {
						"encoding": "inplace",
						"label": "bool",
						"numberOfBytes": "1"
					},
					"t_mapping(t_address,t_array(t_uint8)dyn_storage)": {
						"encoding": "mapping",
						"key": "t_address",
						"label": "mapping(address => uint8[])",
						"numberOfBytes": "32",
						"value": "t_array(t_uint8)dyn_storage"
					},
					"t_mapping(t_uint8,t_address)": {
						"encoding": "mapping",
						"key": "t_uint8",
						"label": "mapping(uint8 => address)",
						"numberOfBytes": "32",
						"value": "t_address"
					},
					"t_struct(Game)197_storage": {
						"encoding": "inplace",
						"label": "struct Tris.Game",
						"members": [
							{
								"astId": 191,
								"contract": "ddd.sol:Tris",
								"label": "lastPlayed",
								"offset": 0,
								"slot": "0",
								"type": "t_address"
							},
							{
								"astId": 193,
								"contract": "ddd.sol:Tris",
								"label": "playTime",
								"offset": 0,
								"slot": "1",
								"type": "t_uint256"
							},
							{
								"astId": 196,
								"contract": "ddd.sol:Tris",
								"label": "gameBoard",
								"offset": 0,
								"slot": "2",
								"type": "t_array(t_uint256)dyn_storage"
							}
						],
						"numberOfBytes": "96"
					},
					"t_struct(Playe)186_storage": {
						"encoding": "inplace",
						"label": "struct Tris.Playe",
						"members": [
							{
								"astId": 183,
								"contract": "ddd.sol:Tris",
								"label": "playerA",
								"offset": 0,
								"slot": "0",
								"type": "t_address"
							},
							{
								"astId": 185,
								"contract": "ddd.sol:Tris",
								"label": "start",
								"offset": 20,
								"slot": "0",
								"type": "t_bool"
							}
						],
						"numberOfBytes": "32"
					},
					"t_struct(Player)178_storage": {
						"encoding": "inplace",
						"label": "struct Tris.Player",
						"members": [
							{
								"astId": 172,
								"contract": "ddd.sol:Tris",
								"label": "user",
								"offset": 0,
								"slot": "0",
								"type": "t_address"
							},
							{
								"astId": 174,
								"contract": "ddd.sol:Tris",
								"label": "turnIsFinished",
								"offset": 20,
								"slot": "0",
								"type": "t_bool"
							},
							{
								"astId": 177,
								"contract": "ddd.sol:Tris",
								"label": "_playerMoves",
								"offset": 0,
								"slot": "1",
								"type": "t_array(t_uint256)dyn_storage"
							}
						],
						"numberOfBytes": "64"
					},
					"t_uint256": {
						"encoding": "inplace",
						"label": "uint256",
						"numberOfBytes": "32"
					},
					"t_uint8": {
						"encoding": "inplace",
						"label": "uint8",
						"numberOfBytes": "1"
					}
				}
			},
			"userdoc": {
				"kind": "user",
				"methods": {},
				"version": 1
			}
		}
	}
}