{
	"ddd.sol": {
		"Tris": {
			"abi": [
				{
					"inputs": [],
					"stateMutability": "nonpayable",
					"type": "constructor"
				},
				{
					"anonymous": false,
					"inputs": [
						{
							"indexed": false,
							"internalType": "address",
							"name": "playerA",
							"type": "address"
						},
						{
							"indexed": false,
							"internalType": "address",
							"name": "playerB",
							"type": "address"
						}
					],
					"name": "GameStarted",
					"type": "event"
				},
				{
					"anonymous": false,
					"inputs": [
						{
							"indexed": true,
							"internalType": "address",
							"name": "previousOwner",
							"type": "address"
						},
						{
							"indexed": true,
							"internalType": "address",
							"name": "newOwner",
							"type": "address"
						}
					],
					"name": "OwnershipTransferred",
					"type": "event"
				},
				{
					"inputs": [],
					"name": "_startTurn",
					"outputs": [
						{
							"internalType": "uint256",
							"name": "",
							"type": "uint256"
						}
					],
					"stateMutability": "view",
					"type": "function"
				},
				{
					"inputs": [],
					"name": "game",
					"outputs": [
						{
							"internalType": "address",
							"name": "lastPlayed",
							"type": "address"
						},
						{
							"internalType": "uint256",
							"name": "playTime",
							"type": "uint256"
						}
					],
					"stateMutability": "view",
					"type": "function"
				},
				{
					"inputs": [
						{
							"internalType": "uint256",
							"name": "",
							"type": "uint256"
						}
					],
					"name": "gameBoard",
					"outputs": [
						{
							"internalType": "address",
							"name": "",
							"type": "address"
						}
					],
					"stateMutability": "view",
					"type": "function"
				},
				{
					"inputs": [],
					"name": "gameOver",
					"outputs": [
						{
							"internalType": "bool",
							"name": "",
							"type": "bool"
						}
					],
					"stateMutability": "view",
					"type": "function"
				},
				{
					"inputs": [],
					"name": "getPlayersMoves",
					"outputs": [
						{
							"internalType": "uint8[]",
							"name": "",
							"type": "uint8[]"
						}
					],
					"stateMutability": "view",
					"type": "function"
				},
				{
					"inputs": [],
					"name": "lastPlayed",
					"outputs": [
						{
							"internalType": "address",
							"name": "",
							"type": "address"
						}
					],
					"stateMutability": "view",
					"type": "function"
				},
				{
					"inputs": [],
					"name": "moveTaken",
					"outputs": [
						{
							"internalType": "uint256",
							"name": "",
							"type": "uint256"
						}
					],
					"stateMutability": "view",
					"type": "function"
				},
				{
					"inputs": [],
					"name": "owner",
					"outputs": [
						{
							"internalType": "address",
							"name": "",
							"type": "address"
						}
					],
					"stateMutability": "view",
					"type": "function"
				},
				{
					"inputs": [],
					"name": "player",
					"outputs": [
						{
							"internalType": "address",
							"name": "user",
							"type": "address"
						},
						{
							"internalType": "bool",
							"name": "turnIsFinished",
							"type": "bool"
						}
					],
					"stateMutability": "view",
					"type": "function"
				},
				{
					"inputs": [],
					"name": "playerA",
					"outputs": [
						{
							"internalType": "address",
							"name": "",
							"type": "address"
						}
					],
					"stateMutability": "view",
					"type": "function"
				},
				{
					"inputs": [],
					"name": "playerB",
					"outputs": [
						{
							"internalType": "address",
							"name": "",
							"type": "address"
						}
					],
					"stateMutability": "view",
					"type": "function"
				},
				{
					"inputs": [
						{
							"internalType": "address",
							"name": "",
							"type": "address"
						},
						{
							"internalType": "uint256",
							"name": "",
							"type": "uint256"
						}
					],
					"name": "playerMoves",
					"outputs": [
						{
							"internalType": "uint8",
							"name": "",
							"type": "uint8"
						}
					],
					"stateMutability": "view",
					"type": "function"
				},
				{
					"inputs": [],
					"name": "pleya",
					"outputs": [
						{
							"internalType": "address",
							"name": "playerA",
							"type": "address"
						},
						{
							"internalType": "bool",
							"name": "start",
							"type": "bool"
						}
					],
					"stateMutability": "view",
					"type": "function"
				},
				{
					"inputs": [],
					"name": "renounceOwnership",
					"outputs": [],
					"stateMutability": "nonpayable",
					"type": "function"
				},
				{
					"inputs": [],
					"name": "session",
					"outputs": [
						{
							"internalType": "uint256",
							"name": "",
							"type": "uint256"
						}
					],
					"stateMutability": "view",
					"type": "function"
				},
				{
					"inputs": [
						{
							"internalType": "address",
							"name": "_player1",
							"type": "address"
						},
						{
							"internalType": "address",
							"name": "_player2",
							"type": "address"
						}
					],
					"name": "startGame",
					"outputs": [],
					"stateMutability": "nonpayable",
					"type": "function"
				},
				{
					"inputs": [],
					"name": "timer",
					"outputs": [
						{
							"internalType": "bool",
							"name": "",
							"type": "bool"
						}
					],
					"stateMutability": "view",
					"type": "function"
				},
				{
					"inputs": [
						{
							"internalType": "address",
							"name": "newOwner",
							"type": "address"
						}
					],
					"name": "transferOwnership",
					"outputs": [],
					"stateMutability": "nonpayable",
					"type": "function"
				},
				{
					"inputs": [],
					"name": "turnsTaken",
					"outputs": [
						{
							"internalType": "uint256",
							"name": "",
							"type": "uint256"
						}
					],
					"stateMutability": "view",
					"type": "function"
				},
				{
					"inputs": [],
					"name": "winner",
					"outputs": [
						{
							"internalType": "address",
							"name": "",
							"type": "address"
						}
					],
					"stateMutability": "view",
					"type": "function"
				},
				{
					"inputs": [
						{
							"internalType": "uint256",
							"name": "_move",
							"type": "uint256"
						}
					],
					"name": "yourMove",
					"outputs": [],
					"stateMutability": "nonpayable",
					"type": "function"
				}
			],
			"devdoc": {
				"kind": "dev",
				"methods": {
					"owner()": {
						"details": "Returns the address of the current owner."
					},
					"renounceOwnership()": {
						"details": "Leaves the contract without owner. It will not be possible to call `onlyOwner` functions anymore. Can only be called by the current owner. NOTE: Renouncing ownership will leave the contract without an owner, thereby removing any functionality that is only available to the owner."
					},
					"transferOwnership(address)": {
						"details": "Transfers ownership of the contract to a new account (`newOwner`). Can only be called by the current owner."
					}
				},
				"version": 1
			},
			"evm": {
				"assembly": "    /* \"ddd.sol\":116:3835  contract Tris is Ownable {\r... */\n  mstore(0x40, 0x80)\n    /* \"ddd.sol\":448:477  constructor () { \r... */\n  callvalue\n  dup1\n  iszero\n  tag_1\n  jumpi\n  0x00\n  dup1\n  revert\ntag_1:\n  pop\n    /* \"@openzeppelin/contracts/access/Ownable.sol\":936:968  _transferOwnership(_msgSender()) */\n  tag_5\n    /* \"@openzeppelin/contracts/access/Ownable.sol\":955:967  _msgSender() */\n  tag_6\n    /* \"@openzeppelin/contracts/access/Ownable.sol\":955:965  _msgSender */\n  shl(0x20, tag_7)\n    /* \"@openzeppelin/contracts/access/Ownable.sol\":955:967  _msgSender() */\n  0x20\n  shr\n  jump\t// in\ntag_6:\n    /* \"@openzeppelin/contracts/access/Ownable.sol\":936:954  _transferOwnership */\n  shl(0x20, tag_8)\n    /* \"@openzeppelin/contracts/access/Ownable.sol\":936:968  _transferOwnership(_msgSender()) */\n  0x20\n  shr\n  jump\t// in\ntag_5:\n    /* \"ddd.sol\":116:3835  contract Tris is Ownable {\r... */\n  jump(tag_10)\n    /* \"@openzeppelin/contracts/utils/Context.sol\":640:736  function _msgSender() internal view virtual returns (address) {... */\ntag_7:\n    /* \"@openzeppelin/contracts/utils/Context.sol\":693:700  address */\n  0x00\n    /* \"@openzeppelin/contracts/utils/Context.sol\":719:729  msg.sender */\n  caller\n    /* \"@openzeppelin/contracts/utils/Context.sol\":712:729  return msg.sender */\n  swap1\n  pop\n    /* \"@openzeppelin/contracts/utils/Context.sol\":640:736  function _msgSender() internal view virtual returns (address) {... */\n  swap1\n  jump\t// out\n    /* \"@openzeppelin/contracts/access/Ownable.sol\":2433:2620  function _transferOwnership(address newOwner) internal virtual {... */\ntag_8:\n    /* \"@openzeppelin/contracts/access/Ownable.sol\":2506:2522  address oldOwner */\n  0x00\n    /* \"@openzeppelin/contracts/access/Ownable.sol\":2525:2531  _owner */\n  dup1\n  0x00\n  swap1\n  sload\n  swap1\n  0x0100\n  exp\n  swap1\n  div\n  0xffffffffffffffffffffffffffffffffffffffff\n  and\n    /* \"@openzeppelin/contracts/access/Ownable.sol\":2506:2531  address oldOwner = _owner */\n  swap1\n  pop\n    /* \"@openzeppelin/contracts/access/Ownable.sol\":2550:2558  newOwner */\n  dup2\n    /* \"@openzeppelin/contracts/access/Ownable.sol\":2541:2547  _owner */\n  0x00\n  dup1\n    /* \"@openzeppelin/contracts/access/Ownable.sol\":2541:2558  _owner = newOwner */\n  0x0100\n  exp\n  dup2\n  sload\n  dup2\n  0xffffffffffffffffffffffffffffffffffffffff\n  mul\n  not\n  and\n  swap1\n  dup4\n  0xffffffffffffffffffffffffffffffffffffffff\n  and\n  mul\n  or\n  swap1\n  sstore\n  pop\n    /* \"@openzeppelin/contracts/access/Ownable.sol\":2604:2612  newOwner */\n  dup2\n    /* \"@openzeppelin/contracts/access/Ownable.sol\":2573:2613  OwnershipTransferred(oldOwner, newOwner) */\n  0xffffffffffffffffffffffffffffffffffffffff\n  and\n    /* \"@openzeppelin/contracts/access/Ownable.sol\":2594:2602  oldOwner */\n  dup2\n    /* \"@openzeppelin/contracts/access/Ownable.sol\":2573:2613  OwnershipTransferred(oldOwner, newOwner) */\n  0xffffffffffffffffffffffffffffffffffffffff\n  and\n  0x8be0079c531659141344cd1fd0a4f28419497f9722a3daafe3b4186f6b6457e0\n  mload(0x40)\n  mload(0x40)\n  dup1\n  swap2\n  sub\n  swap1\n  log3\n    /* \"@openzeppelin/contracts/access/Ownable.sol\":2496:2620  {... */\n  pop\n    /* \"@openzeppelin/contracts/access/Ownable.sol\":2433:2620  function _transferOwnership(address newOwner) internal virtual {... */\n  pop\n  jump\t// out\n    /* \"ddd.sol\":116:3835  contract Tris is Ownable {\r... */\ntag_10:\n  dataSize(sub_0)\n  dup1\n  dataOffset(sub_0)\n  0x00\n  codecopy\n  0x00\n  return\nstop\n\nsub_0: assembly {\n        /* \"ddd.sol\":116:3835  contract Tris is Ownable {\r... */\n      mstore(0x40, 0x80)\n      callvalue\n      dup1\n      iszero\n      tag_1\n      jumpi\n      0x00\n      dup1\n      revert\n    tag_1:\n      pop\n      jumpi(tag_2, lt(calldatasize, 0x04))\n      shr(0xe0, calldataload(0x00))\n      dup1\n      0x715018a6\n      gt\n      tag_24\n      jumpi\n      dup1\n      0xbdb337d1\n      gt\n      tag_25\n      jumpi\n      dup1\n      0xbdb337d1\n      eq\n      tag_18\n      jumpi\n      dup1\n      0xc3fe3e28\n      eq\n      tag_19\n      jumpi\n      dup1\n      0xc5339132\n      eq\n      tag_20\n      jumpi\n      dup1\n      0xdfbf53ae\n      eq\n      tag_21\n      jumpi\n      dup1\n      0xeb23b56b\n      eq\n      tag_22\n      jumpi\n      dup1\n      0xf2fde38b\n      eq\n      tag_23\n      jumpi\n      jump(tag_2)\n    tag_25:\n      dup1\n      0x715018a6\n      eq\n      tag_13\n      jumpi\n      dup1\n      0x88c9cb3c\n      eq\n      tag_14\n      jumpi\n      dup1\n      0x8da5cb5b\n      eq\n      tag_15\n      jumpi\n      dup1\n      0xa285c54a\n      eq\n      tag_16\n      jumpi\n      dup1\n      0xbc120879\n      eq\n      tag_17\n      jumpi\n      jump(tag_2)\n    tag_24:\n      dup1\n      0x48db5f89\n      gt\n      tag_26\n      jumpi\n      dup1\n      0x48db5f89\n      eq\n      tag_8\n      jumpi\n      dup1\n      0x554693b1\n      eq\n      tag_9\n      jumpi\n      dup1\n      0x5d248301\n      eq\n      tag_10\n      jumpi\n      dup1\n      0x5e3568b8\n      eq\n      tag_11\n      jumpi\n      dup1\n      0x620633cb\n      eq\n      tag_12\n      jumpi\n      jump(tag_2)\n    tag_26:\n      dup1\n      0x041a8486\n      eq\n      tag_3\n      jumpi\n      dup1\n      0x11bb1537\n      eq\n      tag_4\n      jumpi\n      dup1\n      0x1a8a8dd8\n      eq\n      tag_5\n      jumpi\n      dup1\n      0x22f976ff\n      eq\n      tag_6\n      jumpi\n      dup1\n      0x393f7eb6\n      eq\n      tag_7\n      jumpi\n    tag_2:\n      0x00\n      dup1\n      revert\n        /* \"ddd.sol\":389:411  uint public _startTurn */\n    tag_3:\n      tag_27\n      tag_28\n      jump\t// in\n    tag_27:\n      mload(0x40)\n      tag_29\n      swap2\n      swap1\n      tag_30\n      jump\t// in\n    tag_29:\n      mload(0x40)\n      dup1\n      swap2\n      sub\n      swap1\n      return\n        /* \"ddd.sol\":180:202  address public playerB */\n    tag_4:\n      tag_31\n      tag_32\n      jump\t// in\n    tag_31:\n      mload(0x40)\n      tag_33\n      swap2\n      swap1\n      tag_34\n      jump\t// in\n    tag_33:\n      mload(0x40)\n      dup1\n      swap2\n      sub\n      swap1\n      return\n        /* \"ddd.sol\":814:832  Playe public pleya */\n    tag_5:\n      tag_35\n      tag_36\n      jump\t// in\n    tag_35:\n      mload(0x40)\n      tag_37\n      swap3\n      swap2\n      swap1\n      tag_38\n      jump\t// in\n    tag_37:\n      mload(0x40)\n      dup1\n      swap2\n      sub\n      swap1\n      return\n        /* \"ddd.sol\":839:885  mapping(address => uint8[]) public playerMoves */\n    tag_6:\n      tag_39\n      0x04\n      dup1\n      calldatasize\n      sub\n      dup2\n      add\n      swap1\n      tag_40\n      swap2\n      swap1\n      tag_41\n      jump\t// in\n    tag_40:\n      tag_42\n      jump\t// in\n    tag_39:\n      mload(0x40)\n      tag_43\n      swap2\n      swap1\n      tag_44\n      jump\t// in\n    tag_43:\n      mload(0x40)\n      dup1\n      swap2\n      sub\n      swap1\n      return\n        /* \"ddd.sol\":1569:2733  function yourMove(uint _move) public {\r... */\n    tag_7:\n      tag_45\n      0x04\n      dup1\n      calldatasize\n      sub\n      dup2\n      add\n      swap1\n      tag_46\n      swap2\n      swap1\n      tag_47\n      jump\t// in\n    tag_46:\n      tag_48\n      jump\t// in\n    tag_45:\n      stop\n        /* \"ddd.sol\":655:675  Player public player */\n    tag_8:\n      tag_49\n      tag_50\n      jump\t// in\n    tag_49:\n      mload(0x40)\n      tag_51\n      swap3\n      swap2\n      swap1\n      tag_38\n      jump\t// in\n    tag_51:\n      mload(0x40)\n      dup1\n      swap2\n      sub\n      swap1\n      return\n        /* \"ddd.sol\":329:353  uint256 public moveTaken */\n    tag_9:\n      tag_52\n      tag_53\n      jump\t// in\n    tag_52:\n      mload(0x40)\n      tag_54\n      swap2\n      swap1\n      tag_30\n      jump\t// in\n    tag_54:\n      mload(0x40)\n      dup1\n      swap2\n      sub\n      swap1\n      return\n        /* \"ddd.sol\":507:533  address[] public gameBoard */\n    tag_10:\n      tag_55\n      0x04\n      dup1\n      calldatasize\n      sub\n      dup2\n      add\n      swap1\n      tag_56\n      swap2\n      swap1\n      tag_47\n      jump\t// in\n    tag_56:\n      tag_57\n      jump\t// in\n    tag_55:\n      mload(0x40)\n      tag_58\n      swap2\n      swap1\n      tag_34\n      jump\t// in\n    tag_58:\n      mload(0x40)\n      dup1\n      swap2\n      sub\n      swap1\n      return\n        /* \"ddd.sol\":360:382  uint256 public session */\n    tag_11:\n      tag_59\n      tag_60\n      jump\t// in\n    tag_59:\n      mload(0x40)\n      tag_61\n      swap2\n      swap1\n      tag_30\n      jump\t// in\n    tag_61:\n      mload(0x40)\n      dup1\n      swap2\n      sub\n      swap1\n      return\n        /* \"ddd.sol\":3717:3830  function getPlayersMoves() public view returns (uint8[] memory) {\r... */\n    tag_12:\n      tag_62\n      tag_63\n      jump\t// in\n    tag_62:\n      mload(0x40)\n      tag_64\n      swap2\n      swap1\n      tag_65\n      jump\t// in\n    tag_64:\n      mload(0x40)\n      dup1\n      swap2\n      sub\n      swap1\n      return\n        /* \"@openzeppelin/contracts/access/Ownable.sol\":1831:1932  function renounceOwnership() public virtual onlyOwner {... */\n    tag_13:\n      tag_66\n      tag_67\n      jump\t// in\n    tag_66:\n      stop\n        /* \"ddd.sol\":418:435  bool public timer */\n    tag_14:\n      tag_68\n      tag_69\n      jump\t// in\n    tag_68:\n      mload(0x40)\n      tag_70\n      swap2\n      swap1\n      tag_71\n      jump\t// in\n    tag_70:\n      mload(0x40)\n      dup1\n      swap2\n      sub\n      swap1\n      return\n        /* \"@openzeppelin/contracts/access/Ownable.sol\":1201:1286  function owner() public view virtual returns (address) {... */\n    tag_15:\n      tag_72\n      tag_73\n      jump\t// in\n    tag_72:\n      mload(0x40)\n      tag_74\n      swap2\n      swap1\n      tag_34\n      jump\t// in\n    tag_74:\n      mload(0x40)\n      dup1\n      swap2\n      sub\n      swap1\n      return\n        /* \"ddd.sol\":150:172  address public playerA */\n    tag_16:\n      tag_75\n      tag_76\n      jump\t// in\n    tag_75:\n      mload(0x40)\n      tag_77\n      swap2\n      swap1\n      tag_34\n      jump\t// in\n    tag_77:\n      mload(0x40)\n      dup1\n      swap2\n      sub\n      swap1\n      return\n        /* \"ddd.sol\":297:322  uint256 public turnsTaken */\n    tag_17:\n      tag_78\n      tag_79\n      jump\t// in\n    tag_78:\n      mload(0x40)\n      tag_80\n      swap2\n      swap1\n      tag_30\n      jump\t// in\n    tag_80:\n      mload(0x40)\n      dup1\n      swap2\n      sub\n      swap1\n      return\n        /* \"ddd.sol\":270:290  bool public gameOver */\n    tag_18:\n      tag_81\n      tag_82\n      jump\t// in\n    tag_81:\n      mload(0x40)\n      tag_83\n      swap2\n      swap1\n      tag_71\n      jump\t// in\n    tag_83:\n      mload(0x40)\n      dup1\n      swap2\n      sub\n      swap1\n      return\n        /* \"ddd.sol\":1160:1176  Game public game */\n    tag_19:\n      tag_84\n      tag_85\n      jump\t// in\n    tag_84:\n      mload(0x40)\n      tag_86\n      swap3\n      swap2\n      swap1\n      tag_87\n      jump\t// in\n    tag_86:\n      mload(0x40)\n      dup1\n      swap2\n      sub\n      swap1\n      return\n        /* \"ddd.sol\":210:235  address public lastPlayed */\n    tag_20:\n      tag_88\n      tag_89\n      jump\t// in\n    tag_88:\n      mload(0x40)\n      tag_90\n      swap2\n      swap1\n      tag_34\n      jump\t// in\n    tag_90:\n      mload(0x40)\n      dup1\n      swap2\n      sub\n      swap1\n      return\n        /* \"ddd.sol\":242:263  address public winner */\n    tag_21:\n      tag_91\n      tag_92\n      jump\t// in\n    tag_91:\n      mload(0x40)\n      tag_93\n      swap2\n      swap1\n      tag_34\n      jump\t// in\n    tag_93:\n      mload(0x40)\n      dup1\n      swap2\n      sub\n      swap1\n      return\n        /* \"ddd.sol\":1344:1559  function startGame(address _player1, address _player2) external {\r... */\n    tag_22:\n      tag_94\n      0x04\n      dup1\n      calldatasize\n      sub\n      dup2\n      add\n      swap1\n      tag_95\n      swap2\n      swap1\n      tag_96\n      jump\t// in\n    tag_95:\n      tag_97\n      jump\t// in\n    tag_94:\n      stop\n        /* \"@openzeppelin/contracts/access/Ownable.sol\":2081:2279  function transferOwnership(address newOwner) public virtual onlyOwner {... */\n    tag_23:\n      tag_98\n      0x04\n      dup1\n      calldatasize\n      sub\n      dup2\n      add\n      swap1\n      tag_99\n      swap2\n      swap1\n      tag_100\n      jump\t// in\n    tag_99:\n      tag_101\n      jump\t// in\n    tag_98:\n      stop\n        /* \"ddd.sol\":389:411  uint public _startTurn */\n    tag_28:\n      sload(0x08)\n      dup2\n      jump\t// out\n        /* \"ddd.sol\":180:202  address public playerB */\n    tag_32:\n      0x02\n      0x00\n      swap1\n      sload\n      swap1\n      0x0100\n      exp\n      swap1\n      div\n      0xffffffffffffffffffffffffffffffffffffffff\n      and\n      dup2\n      jump\t// out\n        /* \"ddd.sol\":814:832  Playe public pleya */\n    tag_36:\n      0x0d\n      dup1\n      0x00\n      add\n      0x00\n      swap1\n      sload\n      swap1\n      0x0100\n      exp\n      swap1\n      div\n      0xffffffffffffffffffffffffffffffffffffffff\n      and\n      swap1\n      dup1\n      0x00\n      add\n      0x14\n      swap1\n      sload\n      swap1\n      0x0100\n      exp\n      swap1\n      div\n      0xff\n      and\n      swap1\n      pop\n      dup3\n      jump\t// out\n        /* \"ddd.sol\":839:885  mapping(address => uint8[]) public playerMoves */\n    tag_42:\n      mstore(0x20, 0x0e)\n      dup2\n      0x00\n      mstore\n      keccak256(0x00, 0x40)\n      dup2\n      dup2\n      sload\n      dup2\n      lt\n      tag_102\n      jumpi\n      0x00\n      dup1\n      revert\n    tag_102:\n      swap1\n      0x00\n      mstore\n      keccak256(0x00, 0x20)\n      swap1\n      0x20\n      swap2\n      dup3\n      dup3\n      div\n      add\n      swap2\n      swap1\n      mod\n      swap2\n      pop\n      swap2\n      pop\n      swap1\n      sload\n      swap1\n      0x0100\n      exp\n      swap1\n      div\n      0xff\n      and\n      dup2\n      jump\t// out\n        /* \"ddd.sol\":1569:2733  function yourMove(uint _move) public {\r... */\n    tag_48:\n        /* \"ddd.sol\":1626:1634  gameOver */\n      0x04\n      0x14\n      swap1\n      sload\n      swap1\n      0x0100\n      exp\n      swap1\n      div\n      0xff\n      and\n        /* \"ddd.sol\":1625:1634  !gameOver */\n      iszero\n        /* \"ddd.sol\":1617:1651  require(!gameOver, \"game is over\") */\n      tag_105\n      jumpi\n      mload(0x40)\n      0x08c379a000000000000000000000000000000000000000000000000000000000\n      dup2\n      mstore\n      0x04\n      add\n      tag_106\n      swap1\n      tag_107\n      jump\t// in\n    tag_106:\n      mload(0x40)\n      dup1\n      swap2\n      sub\n      swap1\n      revert\n    tag_105:\n        /* \"ddd.sol\":1679:1688  moveTaken */\n      sload(0x06)\n        /* \"ddd.sol\":1670:1675  _move */\n      dup2\n        /* \"ddd.sol\":1670:1688  _move != moveTaken */\n      eq\n      iszero\n        /* \"ddd.sol\":1662:1705  require(_move != moveTaken , \"Spot taken!\") */\n      tag_108\n      jumpi\n      mload(0x40)\n      0x08c379a000000000000000000000000000000000000000000000000000000000\n      dup2\n      mstore\n      0x04\n      add\n      tag_109\n      swap1\n      tag_110\n      jump\t// in\n    tag_109:\n      mload(0x40)\n      dup1\n      swap2\n      sub\n      swap1\n      revert\n    tag_108:\n        /* \"ddd.sol\":1733:1734  1 */\n      0x01\n        /* \"ddd.sol\":1724:1729  _move */\n      dup2\n        /* \"ddd.sol\":1724:1734  _move >= 1 */\n      lt\n      iszero\n        /* \"ddd.sol\":1724:1748  _move >= 1 && _move <= 9 */\n      dup1\n      iszero\n      tag_111\n      jumpi\n      pop\n        /* \"ddd.sol\":1747:1748  9 */\n      0x09\n        /* \"ddd.sol\":1738:1743  _move */\n      dup2\n        /* \"ddd.sol\":1738:1748  _move <= 9 */\n      gt\n      iszero\n        /* \"ddd.sol\":1724:1748  _move >= 1 && _move <= 9 */\n    tag_111:\n        /* \"ddd.sol\":1716:1765  require(_move >= 1 && _move <= 9, \"move invalid\") */\n      tag_112\n      jumpi\n      mload(0x40)\n      0x08c379a000000000000000000000000000000000000000000000000000000000\n      dup2\n      mstore\n      0x04\n      add\n      tag_113\n      swap1\n      tag_114\n      jump\t// in\n    tag_113:\n      mload(0x40)\n      dup1\n      swap2\n      sub\n      swap1\n      revert\n    tag_112:\n        /* \"ddd.sol\":1798:1805  playerA */\n      0x01\n      0x00\n      swap1\n      sload\n      swap1\n      0x0100\n      exp\n      swap1\n      div\n      0xffffffffffffffffffffffffffffffffffffffff\n      and\n        /* \"ddd.sol\":1784:1805  msg.sender == playerA */\n      0xffffffffffffffffffffffffffffffffffffffff\n      and\n        /* \"ddd.sol\":1784:1794  msg.sender */\n      caller\n        /* \"ddd.sol\":1784:1805  msg.sender == playerA */\n      0xffffffffffffffffffffffffffffffffffffffff\n      and\n      eq\n        /* \"ddd.sol\":1784:1830  msg.sender == playerA || msg.sender == playerB */\n      dup1\n      tag_115\n      jumpi\n      pop\n        /* \"ddd.sol\":1823:1830  playerB */\n      0x02\n      0x00\n      swap1\n      sload\n      swap1\n      0x0100\n      exp\n      swap1\n      div\n      0xffffffffffffffffffffffffffffffffffffffff\n      and\n        /* \"ddd.sol\":1809:1830  msg.sender == playerB */\n      0xffffffffffffffffffffffffffffffffffffffff\n      and\n        /* \"ddd.sol\":1809:1819  msg.sender */\n      caller\n        /* \"ddd.sol\":1809:1830  msg.sender == playerB */\n      0xffffffffffffffffffffffffffffffffffffffff\n      and\n      eq\n        /* \"ddd.sol\":1784:1830  msg.sender == playerA || msg.sender == playerB */\n    tag_115:\n        /* \"ddd.sol\":1776:1860  require(msg.sender == playerA || msg.sender == playerB, \"this player isn't playing\") */\n      tag_116\n      jumpi\n      mload(0x40)\n      0x08c379a000000000000000000000000000000000000000000000000000000000\n      dup2\n      mstore\n      0x04\n      add\n      tag_117\n      swap1\n      tag_118\n      jump\t// in\n    tag_117:\n      mload(0x40)\n      dup1\n      swap2\n      sub\n      swap1\n      revert\n    tag_116:\n        /* \"ddd.sol\":1893:1903  lastPlayed */\n      0x03\n      0x00\n      swap1\n      sload\n      swap1\n      0x0100\n      exp\n      swap1\n      div\n      0xffffffffffffffffffffffffffffffffffffffff\n      and\n        /* \"ddd.sol\":1879:1903  msg.sender != lastPlayed */\n      0xffffffffffffffffffffffffffffffffffffffff\n      and\n        /* \"ddd.sol\":1879:1889  msg.sender */\n      caller\n        /* \"ddd.sol\":1879:1903  msg.sender != lastPlayed */\n      0xffffffffffffffffffffffffffffffffffffffff\n      and\n      eq\n      iszero\n        /* \"ddd.sol\":1871:1922  require(msg.sender != lastPlayed, \"Not your turn.\") */\n      tag_119\n      jumpi\n      mload(0x40)\n      0x08c379a000000000000000000000000000000000000000000000000000000000\n      dup2\n      mstore\n      0x04\n      add\n      tag_120\n      swap1\n      tag_121\n      jump\t// in\n    tag_120:\n      mload(0x40)\n      dup1\n      swap2\n      sub\n      swap1\n      revert\n    tag_119:\n        /* \"ddd.sol\":2028:2043  block.timestamp */\n      timestamp\n        /* \"ddd.sol\":2015:2025  _startTurn */\n      0x08\n        /* \"ddd.sol\":2015:2043  _startTurn = block.timestamp */\n      dup2\n      swap1\n      sstore\n      pop\n        /* \"ddd.sol\":2077:2087  30 seconds */\n      0x1e\n        /* \"ddd.sol\":2064:2074  _startTurn */\n      sload(0x08)\n        /* \"ddd.sol\":2064:2087  _startTurn + 30 seconds */\n      tag_122\n      swap2\n      swap1\n      tag_123\n      jump\t// in\n    tag_122:\n        /* \"ddd.sol\":2054:2061  session */\n      0x07\n        /* \"ddd.sol\":2054:2087  session = _startTurn + 30 seconds */\n      dup2\n      swap1\n      sstore\n      pop\n        /* \"ddd.sol\":2367:2376  gameBoard */\n      0x0a\n        /* \"ddd.sol\":2382:2392  msg.sender */\n      caller\n        /* \"ddd.sol\":2367:2393  gameBoard.push(msg.sender) */\n      swap1\n      dup1\n      0x01\n      dup2\n      sload\n      add\n      dup1\n      dup3\n      sstore\n      dup1\n      swap2\n      pop\n      pop\n      0x01\n      swap1\n      sub\n      swap1\n      0x00\n      mstore\n      keccak256(0x00, 0x20)\n      add\n      0x00\n      swap1\n      swap2\n      swap1\n      swap2\n      swap1\n      swap2\n      0x0100\n      exp\n      dup2\n      sload\n      dup2\n      0xffffffffffffffffffffffffffffffffffffffff\n      mul\n      not\n      and\n      swap1\n      dup4\n      0xffffffffffffffffffffffffffffffffffffffff\n      and\n      mul\n      or\n      swap1\n      sstore\n      pop\n        /* \"ddd.sol\":2465:2475  msg.sender */\n      caller\n        /* \"ddd.sol\":2452:2462  lastPlayed */\n      0x03\n      0x00\n        /* \"ddd.sol\":2452:2475  lastPlayed = msg.sender */\n      0x0100\n      exp\n      dup2\n      sload\n      dup2\n      0xffffffffffffffffffffffffffffffffffffffff\n      mul\n      not\n      and\n      swap1\n      dup4\n      0xffffffffffffffffffffffffffffffffffffffff\n      and\n      mul\n      or\n      swap1\n      sstore\n      pop\n        /* \"ddd.sol\":2498:2503  _move */\n      dup1\n        /* \"ddd.sol\":2486:2495  moveTaken */\n      0x06\n        /* \"ddd.sol\":2486:2503  moveTaken = _move */\n      dup2\n      swap1\n      sstore\n      pop\n        /* \"ddd.sol\":2514:2524  turnsTaken */\n      0x05\n      0x00\n        /* \"ddd.sol\":2514:2526  turnsTaken++ */\n      dup2\n      sload\n      dup1\n      swap3\n      swap2\n      swap1\n      tag_125\n      swap1\n      tag_126\n      jump\t// in\n    tag_125:\n      swap2\n      swap1\n      pop\n      sstore\n      pop\n        /* \"ddd.sol\":1569:2733  function yourMove(uint _move) public {\r... */\n      pop\n      jump\t// out\n        /* \"ddd.sol\":655:675  Player public player */\n    tag_50:\n      0x0b\n      dup1\n      0x00\n      add\n      0x00\n      swap1\n      sload\n      swap1\n      0x0100\n      exp\n      swap1\n      div\n      0xffffffffffffffffffffffffffffffffffffffff\n      and\n      swap1\n      dup1\n      0x00\n      add\n      0x14\n      swap1\n      sload\n      swap1\n      0x0100\n      exp\n      swap1\n      div\n      0xff\n      and\n      swap1\n      pop\n      dup3\n      jump\t// out\n        /* \"ddd.sol\":329:353  uint256 public moveTaken */\n    tag_53:\n      sload(0x06)\n      dup2\n      jump\t// out\n        /* \"ddd.sol\":507:533  address[] public gameBoard */\n    tag_57:\n      0x0a\n      dup2\n      dup2\n      sload\n      dup2\n      lt\n      tag_127\n      jumpi\n      0x00\n      dup1\n      revert\n    tag_127:\n      swap1\n      0x00\n      mstore\n      keccak256(0x00, 0x20)\n      add\n      0x00\n      swap2\n      pop\n      sload\n      swap1\n      0x0100\n      exp\n      swap1\n      div\n      0xffffffffffffffffffffffffffffffffffffffff\n      and\n      dup2\n      jump\t// out\n        /* \"ddd.sol\":360:382  uint256 public session */\n    tag_60:\n      sload(0x07)\n      dup2\n      jump\t// out\n        /* \"ddd.sol\":3717:3830  function getPlayersMoves() public view returns (uint8[] memory) {\r... */\n    tag_63:\n        /* \"ddd.sol\":3765:3779  uint8[] memory */\n      0x60\n        /* \"ddd.sol\":3799:3810  playerMoves */\n      0x0e\n        /* \"ddd.sol\":3799:3822  playerMoves[msg.sender] */\n      0x00\n        /* \"ddd.sol\":3811:3821  msg.sender */\n      caller\n        /* \"ddd.sol\":3799:3822  playerMoves[msg.sender] */\n      0xffffffffffffffffffffffffffffffffffffffff\n      and\n      0xffffffffffffffffffffffffffffffffffffffff\n      and\n      dup2\n      mstore\n      0x20\n      add\n      swap1\n      dup2\n      mstore\n      0x20\n      add\n      0x00\n      keccak256\n        /* \"ddd.sol\":3792:3822  return playerMoves[msg.sender] */\n      dup1\n      sload\n      dup1\n      0x20\n      mul\n      0x20\n      add\n      mload(0x40)\n      swap1\n      dup2\n      add\n      0x40\n      mstore\n      dup1\n      swap3\n      swap2\n      swap1\n      dup2\n      dup2\n      mstore\n      0x20\n      add\n      dup3\n      dup1\n      sload\n      dup1\n      iszero\n      tag_130\n      jumpi\n      0x20\n      mul\n      dup3\n      add\n      swap2\n      swap1\n      0x00\n      mstore\n      keccak256(0x00, 0x20)\n      swap1\n      0x00\n      swap1\n    tag_131:\n      dup3\n      dup3\n      swap1\n      sload\n      swap1\n      0x0100\n      exp\n      swap1\n      div\n      0xff\n      and\n      0xff\n      and\n      dup2\n      mstore\n      0x20\n      add\n      swap1\n      0x01\n      add\n      swap1\n      0x20\n      dup3\n      0x00\n      add\n      div\n      swap3\n      dup4\n      add\n      swap3\n      0x01\n      sub\n      dup3\n      mul\n      swap2\n      pop\n      dup1\n      dup5\n      gt\n      tag_131\n      jumpi\n      swap1\n      pop\n    tag_130:\n      pop\n      pop\n      pop\n      pop\n      pop\n      swap1\n      pop\n        /* \"ddd.sol\":3717:3830  function getPlayersMoves() public view returns (uint8[] memory) {\r... */\n      swap1\n      jump\t// out\n        /* \"@openzeppelin/contracts/access/Ownable.sol\":1831:1932  function renounceOwnership() public virtual onlyOwner {... */\n    tag_67:\n        /* \"@openzeppelin/contracts/access/Ownable.sol\":1094:1107  _checkOwner() */\n      tag_133\n        /* \"@openzeppelin/contracts/access/Ownable.sol\":1094:1105  _checkOwner */\n      tag_134\n        /* \"@openzeppelin/contracts/access/Ownable.sol\":1094:1107  _checkOwner() */\n      jump\t// in\n    tag_133:\n        /* \"@openzeppelin/contracts/access/Ownable.sol\":1895:1925  _transferOwnership(address(0)) */\n      tag_136\n        /* \"@openzeppelin/contracts/access/Ownable.sol\":1922:1923  0 */\n      0x00\n        /* \"@openzeppelin/contracts/access/Ownable.sol\":1895:1913  _transferOwnership */\n      tag_137\n        /* \"@openzeppelin/contracts/access/Ownable.sol\":1895:1925  _transferOwnership(address(0)) */\n      jump\t// in\n    tag_136:\n        /* \"@openzeppelin/contracts/access/Ownable.sol\":1831:1932  function renounceOwnership() public virtual onlyOwner {... */\n      jump\t// out\n        /* \"ddd.sol\":418:435  bool public timer */\n    tag_69:\n      0x09\n      0x00\n      swap1\n      sload\n      swap1\n      0x0100\n      exp\n      swap1\n      div\n      0xff\n      and\n      dup2\n      jump\t// out\n        /* \"@openzeppelin/contracts/access/Ownable.sol\":1201:1286  function owner() public view virtual returns (address) {... */\n    tag_73:\n        /* \"@openzeppelin/contracts/access/Ownable.sol\":1247:1254  address */\n      0x00\n        /* \"@openzeppelin/contracts/access/Ownable.sol\":1273:1279  _owner */\n      dup1\n      0x00\n      swap1\n      sload\n      swap1\n      0x0100\n      exp\n      swap1\n      div\n      0xffffffffffffffffffffffffffffffffffffffff\n      and\n        /* \"@openzeppelin/contracts/access/Ownable.sol\":1266:1279  return _owner */\n      swap1\n      pop\n        /* \"@openzeppelin/contracts/access/Ownable.sol\":1201:1286  function owner() public view virtual returns (address) {... */\n      swap1\n      jump\t// out\n        /* \"ddd.sol\":150:172  address public playerA */\n    tag_76:\n      0x01\n      0x00\n      swap1\n      sload\n      swap1\n      0x0100\n      exp\n      swap1\n      div\n      0xffffffffffffffffffffffffffffffffffffffff\n      and\n      dup2\n      jump\t// out\n        /* \"ddd.sol\":297:322  uint256 public turnsTaken */\n    tag_79:\n      sload(0x05)\n      dup2\n      jump\t// out\n        /* \"ddd.sol\":270:290  bool public gameOver */\n    tag_82:\n      0x04\n      0x14\n      swap1\n      sload\n      swap1\n      0x0100\n      exp\n      swap1\n      div\n      0xff\n      and\n      dup2\n      jump\t// out\n        /* \"ddd.sol\":1160:1176  Game public game */\n    tag_85:\n      0x0f\n      dup1\n      0x00\n      add\n      0x00\n      swap1\n      sload\n      swap1\n      0x0100\n      exp\n      swap1\n      div\n      0xffffffffffffffffffffffffffffffffffffffff\n      and\n      swap1\n      dup1\n      0x01\n      add\n      sload\n      swap1\n      pop\n      dup3\n      jump\t// out\n        /* \"ddd.sol\":210:235  address public lastPlayed */\n    tag_89:\n      0x03\n      0x00\n      swap1\n      sload\n      swap1\n      0x0100\n      exp\n      swap1\n      div\n      0xffffffffffffffffffffffffffffffffffffffff\n      and\n      dup2\n      jump\t// out\n        /* \"ddd.sol\":242:263  address public winner */\n    tag_92:\n      0x04\n      0x00\n      swap1\n      sload\n      swap1\n      0x0100\n      exp\n      swap1\n      div\n      0xffffffffffffffffffffffffffffffffffffffff\n      and\n      dup2\n      jump\t// out\n        /* \"ddd.sol\":1344:1559  function startGame(address _player1, address _player2) external {\r... */\n    tag_97:\n        /* \"ddd.sol\":1439:1447  _player2 */\n      dup1\n        /* \"ddd.sol\":1427:1447  _player1 != _player2 */\n      0xffffffffffffffffffffffffffffffffffffffff\n      and\n        /* \"ddd.sol\":1427:1435  _player1 */\n      dup3\n        /* \"ddd.sol\":1427:1447  _player1 != _player2 */\n      0xffffffffffffffffffffffffffffffffffffffff\n      and\n      eq\n      iszero\n        /* \"ddd.sol\":1419:1448  require(_player1 != _player2) */\n      tag_140\n      jumpi\n      0x00\n      dup1\n      revert\n    tag_140:\n        /* \"ddd.sol\":1469:1477  _player1 */\n      dup2\n        /* \"ddd.sol\":1459:1466  playerA */\n      0x01\n      0x00\n        /* \"ddd.sol\":1459:1477  playerA = _player1 */\n      0x0100\n      exp\n      dup2\n      sload\n      dup2\n      0xffffffffffffffffffffffffffffffffffffffff\n      mul\n      not\n      and\n      swap1\n      dup4\n      0xffffffffffffffffffffffffffffffffffffffff\n      and\n      mul\n      or\n      swap1\n      sstore\n      pop\n        /* \"ddd.sol\":1498:1506  _player2 */\n      dup1\n        /* \"ddd.sol\":1488:1495  playerB */\n      0x02\n      0x00\n        /* \"ddd.sol\":1488:1506  playerB = _player2 */\n      0x0100\n      exp\n      dup2\n      sload\n      dup2\n      0xffffffffffffffffffffffffffffffffffffffff\n      mul\n      not\n      and\n      swap1\n      dup4\n      0xffffffffffffffffffffffffffffffffffffffff\n      and\n      mul\n      or\n      swap1\n      sstore\n      pop\n        /* \"ddd.sol\":1522:1551  GameStarted(playerA, playerB) */\n      0x55b25d7f9b5bf8ea934ba7079455d2ba00c68ea7e66c13695275f6b75b95e5f8\n        /* \"ddd.sol\":1534:1541  playerA */\n      0x01\n      0x00\n      swap1\n      sload\n      swap1\n      0x0100\n      exp\n      swap1\n      div\n      0xffffffffffffffffffffffffffffffffffffffff\n      and\n        /* \"ddd.sol\":1543:1550  playerB */\n      0x02\n      0x00\n      swap1\n      sload\n      swap1\n      0x0100\n      exp\n      swap1\n      div\n      0xffffffffffffffffffffffffffffffffffffffff\n      and\n        /* \"ddd.sol\":1522:1551  GameStarted(playerA, playerB) */\n      mload(0x40)\n      tag_141\n      swap3\n      swap2\n      swap1\n      tag_142\n      jump\t// in\n    tag_141:\n      mload(0x40)\n      dup1\n      swap2\n      sub\n      swap1\n      log1\n        /* \"ddd.sol\":1344:1559  function startGame(address _player1, address _player2) external {\r... */\n      pop\n      pop\n      jump\t// out\n        /* \"@openzeppelin/contracts/access/Ownable.sol\":2081:2279  function transferOwnership(address newOwner) public virtual onlyOwner {... */\n    tag_101:\n        /* \"@openzeppelin/contracts/access/Ownable.sol\":1094:1107  _checkOwner() */\n      tag_144\n        /* \"@openzeppelin/contracts/access/Ownable.sol\":1094:1105  _checkOwner */\n      tag_134\n        /* \"@openzeppelin/contracts/access/Ownable.sol\":1094:1107  _checkOwner() */\n      jump\t// in\n    tag_144:\n        /* \"@openzeppelin/contracts/access/Ownable.sol\":2189:2190  0 */\n      0x00\n        /* \"@openzeppelin/contracts/access/Ownable.sol\":2169:2191  newOwner != address(0) */\n      0xffffffffffffffffffffffffffffffffffffffff\n      and\n        /* \"@openzeppelin/contracts/access/Ownable.sol\":2169:2177  newOwner */\n      dup2\n        /* \"@openzeppelin/contracts/access/Ownable.sol\":2169:2191  newOwner != address(0) */\n      0xffffffffffffffffffffffffffffffffffffffff\n      and\n      eq\n      iszero\n        /* \"@openzeppelin/contracts/access/Ownable.sol\":2161:2234  require(newOwner != address(0), \"Ownable: new owner is the zero address\") */\n      tag_146\n      jumpi\n      mload(0x40)\n      0x08c379a000000000000000000000000000000000000000000000000000000000\n      dup2\n      mstore\n      0x04\n      add\n      tag_147\n      swap1\n      tag_148\n      jump\t// in\n    tag_147:\n      mload(0x40)\n      dup1\n      swap2\n      sub\n      swap1\n      revert\n    tag_146:\n        /* \"@openzeppelin/contracts/access/Ownable.sol\":2244:2272  _transferOwnership(newOwner) */\n      tag_149\n        /* \"@openzeppelin/contracts/access/Ownable.sol\":2263:2271  newOwner */\n      dup2\n        /* \"@openzeppelin/contracts/access/Ownable.sol\":2244:2262  _transferOwnership */\n      tag_137\n        /* \"@openzeppelin/contracts/access/Ownable.sol\":2244:2272  _transferOwnership(newOwner) */\n      jump\t// in\n    tag_149:\n        /* \"@openzeppelin/contracts/access/Ownable.sol\":2081:2279  function transferOwnership(address newOwner) public virtual onlyOwner {... */\n      pop\n      jump\t// out\n        /* \"@openzeppelin/contracts/access/Ownable.sol\":1359:1489  function _checkOwner() internal view virtual {... */\n    tag_134:\n        /* \"@openzeppelin/contracts/access/Ownable.sol\":1433:1445  _msgSender() */\n      tag_151\n        /* \"@openzeppelin/contracts/access/Ownable.sol\":1433:1443  _msgSender */\n      tag_152\n        /* \"@openzeppelin/contracts/access/Ownable.sol\":1433:1445  _msgSender() */\n      jump\t// in\n    tag_151:\n        /* \"@openzeppelin/contracts/access/Ownable.sol\":1422:1445  owner() == _msgSender() */\n      0xffffffffffffffffffffffffffffffffffffffff\n      and\n        /* \"@openzeppelin/contracts/access/Ownable.sol\":1422:1429  owner() */\n      tag_153\n        /* \"@openzeppelin/contracts/access/Ownable.sol\":1422:1427  owner */\n      tag_73\n        /* \"@openzeppelin/contracts/access/Ownable.sol\":1422:1429  owner() */\n      jump\t// in\n    tag_153:\n        /* \"@openzeppelin/contracts/access/Ownable.sol\":1422:1445  owner() == _msgSender() */\n      0xffffffffffffffffffffffffffffffffffffffff\n      and\n      eq\n        /* \"@openzeppelin/contracts/access/Ownable.sol\":1414:1482  require(owner() == _msgSender(), \"Ownable: caller is not the owner\") */\n      tag_154\n      jumpi\n      mload(0x40)\n      0x08c379a000000000000000000000000000000000000000000000000000000000\n      dup2\n      mstore\n      0x04\n      add\n      tag_155\n      swap1\n      tag_156\n      jump\t// in\n    tag_155:\n      mload(0x40)\n      dup1\n      swap2\n      sub\n      swap1\n      revert\n    tag_154:\n        /* \"@openzeppelin/contracts/access/Ownable.sol\":1359:1489  function _checkOwner() internal view virtual {... */\n      jump\t// out\n        /* \"@openzeppelin/contracts/access/Ownable.sol\":2433:2620  function _transferOwnership(address newOwner) internal virtual {... */\n    tag_137:\n        /* \"@openzeppelin/contracts/access/Ownable.sol\":2506:2522  address oldOwner */\n      0x00\n        /* \"@openzeppelin/contracts/access/Ownable.sol\":2525:2531  _owner */\n      dup1\n      0x00\n      swap1\n      sload\n      swap1\n      0x0100\n      exp\n      swap1\n      div\n      0xffffffffffffffffffffffffffffffffffffffff\n      and\n        /* \"@openzeppelin/contracts/access/Ownable.sol\":2506:2531  address oldOwner = _owner */\n      swap1\n      pop\n        /* \"@openzeppelin/contracts/access/Ownable.sol\":2550:2558  newOwner */\n      dup2\n        /* \"@openzeppelin/contracts/access/Ownable.sol\":2541:2547  _owner */\n      0x00\n      dup1\n        /* \"@openzeppelin/contracts/access/Ownable.sol\":2541:2558  _owner = newOwner */\n      0x0100\n      exp\n      dup2\n      sload\n      dup2\n      0xffffffffffffffffffffffffffffffffffffffff\n      mul\n      not\n      and\n      swap1\n      dup4\n      0xffffffffffffffffffffffffffffffffffffffff\n      and\n      mul\n      or\n      swap1\n      sstore\n      pop\n        /* \"@openzeppelin/contracts/access/Ownable.sol\":2604:2612  newOwner */\n      dup2\n        /* \"@openzeppelin/contracts/access/Ownable.sol\":2573:2613  OwnershipTransferred(oldOwner, newOwner) */\n      0xffffffffffffffffffffffffffffffffffffffff\n      and\n        /* \"@openzeppelin/contracts/access/Ownable.sol\":2594:2602  oldOwner */\n      dup2\n        /* \"@openzeppelin/contracts/access/Ownable.sol\":2573:2613  OwnershipTransferred(oldOwner, newOwner) */\n      0xffffffffffffffffffffffffffffffffffffffff\n      and\n      0x8be0079c531659141344cd1fd0a4f28419497f9722a3daafe3b4186f6b6457e0\n      mload(0x40)\n      mload(0x40)\n      dup1\n      swap2\n      sub\n      swap1\n      log3\n        /* \"@openzeppelin/contracts/access/Ownable.sol\":2496:2620  {... */\n      pop\n        /* \"@openzeppelin/contracts/access/Ownable.sol\":2433:2620  function _transferOwnership(address newOwner) internal virtual {... */\n      pop\n      jump\t// out\n        /* \"@openzeppelin/contracts/utils/Context.sol\":640:736  function _msgSender() internal view virtual returns (address) {... */\n    tag_152:\n        /* \"@openzeppelin/contracts/utils/Context.sol\":693:700  address */\n      0x00\n        /* \"@openzeppelin/contracts/utils/Context.sol\":719:729  msg.sender */\n      caller\n        /* \"@openzeppelin/contracts/utils/Context.sol\":712:729  return msg.sender */\n      swap1\n      pop\n        /* \"@openzeppelin/contracts/utils/Context.sol\":640:736  function _msgSender() internal view virtual returns (address) {... */\n      swap1\n      jump\t// out\n        /* \"#utility.yul\":7:146   */\n    tag_160:\n        /* \"#utility.yul\":53:58   */\n      0x00\n        /* \"#utility.yul\":91:97   */\n      dup2\n        /* \"#utility.yul\":78:98   */\n      calldataload\n        /* \"#utility.yul\":69:98   */\n      swap1\n      pop\n        /* \"#utility.yul\":107:140   */\n      tag_162\n        /* \"#utility.yul\":134:139   */\n      dup2\n        /* \"#utility.yul\":107:140   */\n      tag_163\n      jump\t// in\n    tag_162:\n        /* \"#utility.yul\":7:146   */\n      swap3\n      swap2\n      pop\n      pop\n      jump\t// out\n        /* \"#utility.yul\":152:291   */\n    tag_164:\n        /* \"#utility.yul\":198:203   */\n      0x00\n        /* \"#utility.yul\":236:242   */\n      dup2\n        /* \"#utility.yul\":223:243   */\n      calldataload\n        /* \"#utility.yul\":214:243   */\n      swap1\n      pop\n        /* \"#utility.yul\":252:285   */\n      tag_166\n        /* \"#utility.yul\":279:284   */\n      dup2\n        /* \"#utility.yul\":252:285   */\n      tag_167\n      jump\t// in\n    tag_166:\n        /* \"#utility.yul\":152:291   */\n      swap3\n      swap2\n      pop\n      pop\n      jump\t// out\n        /* \"#utility.yul\":297:626   */\n    tag_100:\n        /* \"#utility.yul\":356:362   */\n      0x00\n        /* \"#utility.yul\":405:407   */\n      0x20\n        /* \"#utility.yul\":393:402   */\n      dup3\n        /* \"#utility.yul\":384:391   */\n      dup5\n        /* \"#utility.yul\":380:403   */\n      sub\n        /* \"#utility.yul\":376:408   */\n      slt\n        /* \"#utility.yul\":373:492   */\n      iszero\n      tag_169\n      jumpi\n        /* \"#utility.yul\":411:490   */\n      tag_170\n      tag_171\n      jump\t// in\n    tag_170:\n        /* \"#utility.yul\":373:492   */\n    tag_169:\n        /* \"#utility.yul\":531:532   */\n      0x00\n        /* \"#utility.yul\":556:609   */\n      tag_172\n        /* \"#utility.yul\":601:608   */\n      dup5\n        /* \"#utility.yul\":592:598   */\n      dup3\n        /* \"#utility.yul\":581:590   */\n      dup6\n        /* \"#utility.yul\":577:599   */\n      add\n        /* \"#utility.yul\":556:609   */\n      tag_160\n      jump\t// in\n    tag_172:\n        /* \"#utility.yul\":546:609   */\n      swap2\n      pop\n        /* \"#utility.yul\":502:619   */\n      pop\n        /* \"#utility.yul\":297:626   */\n      swap3\n      swap2\n      pop\n      pop\n      jump\t// out\n        /* \"#utility.yul\":632:1106   */\n    tag_96:\n        /* \"#utility.yul\":700:706   */\n      0x00\n        /* \"#utility.yul\":708:714   */\n      dup1\n        /* \"#utility.yul\":757:759   */\n      0x40\n        /* \"#utility.yul\":745:754   */\n      dup4\n        /* \"#utility.yul\":736:743   */\n      dup6\n        /* \"#utility.yul\":732:755   */\n      sub\n        /* \"#utility.yul\":728:760   */\n      slt\n        /* \"#utility.yul\":725:844   */\n      iszero\n      tag_174\n      jumpi\n        /* \"#utility.yul\":763:842   */\n      tag_175\n      tag_171\n      jump\t// in\n    tag_175:\n        /* \"#utility.yul\":725:844   */\n    tag_174:\n        /* \"#utility.yul\":883:884   */\n      0x00\n        /* \"#utility.yul\":908:961   */\n      tag_176\n        /* \"#utility.yul\":953:960   */\n      dup6\n        /* \"#utility.yul\":944:950   */\n      dup3\n        /* \"#utility.yul\":933:942   */\n      dup7\n        /* \"#utility.yul\":929:951   */\n      add\n        /* \"#utility.yul\":908:961   */\n      tag_160\n      jump\t// in\n    tag_176:\n        /* \"#utility.yul\":898:961   */\n      swap3\n      pop\n        /* \"#utility.yul\":854:971   */\n      pop\n        /* \"#utility.yul\":1010:1012   */\n      0x20\n        /* \"#utility.yul\":1036:1089   */\n      tag_177\n        /* \"#utility.yul\":1081:1088   */\n      dup6\n        /* \"#utility.yul\":1072:1078   */\n      dup3\n        /* \"#utility.yul\":1061:1070   */\n      dup7\n        /* \"#utility.yul\":1057:1079   */\n      add\n        /* \"#utility.yul\":1036:1089   */\n      tag_160\n      jump\t// in\n    tag_177:\n        /* \"#utility.yul\":1026:1089   */\n      swap2\n      pop\n        /* \"#utility.yul\":981:1099   */\n      pop\n        /* \"#utility.yul\":632:1106   */\n      swap3\n      pop\n      swap3\n      swap1\n      pop\n      jump\t// out\n        /* \"#utility.yul\":1112:1586   */\n    tag_41:\n        /* \"#utility.yul\":1180:1186   */\n      0x00\n        /* \"#utility.yul\":1188:1194   */\n      dup1\n        /* \"#utility.yul\":1237:1239   */\n      0x40\n        /* \"#utility.yul\":1225:1234   */\n      dup4\n        /* \"#utility.yul\":1216:1223   */\n      dup6\n        /* \"#utility.yul\":1212:1235   */\n      sub\n        /* \"#utility.yul\":1208:1240   */\n      slt\n        /* \"#utility.yul\":1205:1324   */\n      iszero\n      tag_179\n      jumpi\n        /* \"#utility.yul\":1243:1322   */\n      tag_180\n      tag_171\n      jump\t// in\n    tag_180:\n        /* \"#utility.yul\":1205:1324   */\n    tag_179:\n        /* \"#utility.yul\":1363:1364   */\n      0x00\n        /* \"#utility.yul\":1388:1441   */\n      tag_181\n        /* \"#utility.yul\":1433:1440   */\n      dup6\n        /* \"#utility.yul\":1424:1430   */\n      dup3\n        /* \"#utility.yul\":1413:1422   */\n      dup7\n        /* \"#utility.yul\":1409:1431   */\n      add\n        /* \"#utility.yul\":1388:1441   */\n      tag_160\n      jump\t// in\n    tag_181:\n        /* \"#utility.yul\":1378:1441   */\n      swap3\n      pop\n        /* \"#utility.yul\":1334:1451   */\n      pop\n        /* \"#utility.yul\":1490:1492   */\n      0x20\n        /* \"#utility.yul\":1516:1569   */\n      tag_182\n        /* \"#utility.yul\":1561:1568   */\n      dup6\n        /* \"#utility.yul\":1552:1558   */\n      dup3\n        /* \"#utility.yul\":1541:1550   */\n      dup7\n        /* \"#utility.yul\":1537:1559   */\n      add\n        /* \"#utility.yul\":1516:1569   */\n      tag_164\n      jump\t// in\n    tag_182:\n        /* \"#utility.yul\":1506:1569   */\n      swap2\n      pop\n        /* \"#utility.yul\":1461:1579   */\n      pop\n        /* \"#utility.yul\":1112:1586   */\n      swap3\n      pop\n      swap3\n      swap1\n      pop\n      jump\t// out\n        /* \"#utility.yul\":1592:1921   */\n    tag_47:\n        /* \"#utility.yul\":1651:1657   */\n      0x00\n        /* \"#utility.yul\":1700:1702   */\n      0x20\n        /* \"#utility.yul\":1688:1697   */\n      dup3\n        /* \"#utility.yul\":1679:1686   */\n      dup5\n        /* \"#utility.yul\":1675:1698   */\n      sub\n        /* \"#utility.yul\":1671:1703   */\n      slt\n        /* \"#utility.yul\":1668:1787   */\n      iszero\n      tag_184\n      jumpi\n        /* \"#utility.yul\":1706:1785   */\n      tag_185\n      tag_171\n      jump\t// in\n    tag_185:\n        /* \"#utility.yul\":1668:1787   */\n    tag_184:\n        /* \"#utility.yul\":1826:1827   */\n      0x00\n        /* \"#utility.yul\":1851:1904   */\n      tag_186\n        /* \"#utility.yul\":1896:1903   */\n      dup5\n        /* \"#utility.yul\":1887:1893   */\n      dup3\n        /* \"#utility.yul\":1876:1885   */\n      dup6\n        /* \"#utility.yul\":1872:1894   */\n      add\n        /* \"#utility.yul\":1851:1904   */\n      tag_164\n      jump\t// in\n    tag_186:\n        /* \"#utility.yul\":1841:1904   */\n      swap2\n      pop\n        /* \"#utility.yul\":1797:1914   */\n      pop\n        /* \"#utility.yul\":1592:1921   */\n      swap3\n      swap2\n      pop\n      pop\n      jump\t// out\n        /* \"#utility.yul\":1927:2098   */\n    tag_187:\n        /* \"#utility.yul\":1992:2002   */\n      0x00\n        /* \"#utility.yul\":2013:2055   */\n      tag_189\n        /* \"#utility.yul\":2051:2054   */\n      dup4\n        /* \"#utility.yul\":2043:2049   */\n      dup4\n        /* \"#utility.yul\":2013:2055   */\n      tag_190\n      jump\t// in\n    tag_189:\n        /* \"#utility.yul\":2087:2091   */\n      0x20\n        /* \"#utility.yul\":2082:2085   */\n      dup4\n        /* \"#utility.yul\":2078:2092   */\n      add\n        /* \"#utility.yul\":2064:2092   */\n      swap1\n      pop\n        /* \"#utility.yul\":1927:2098   */\n      swap3\n      swap2\n      pop\n      pop\n      jump\t// out\n        /* \"#utility.yul\":2104:2222   */\n    tag_191:\n        /* \"#utility.yul\":2191:2215   */\n      tag_193\n        /* \"#utility.yul\":2209:2214   */\n      dup2\n        /* \"#utility.yul\":2191:2215   */\n      tag_194\n      jump\t// in\n    tag_193:\n        /* \"#utility.yul\":2186:2189   */\n      dup3\n        /* \"#utility.yul\":2179:2216   */\n      mstore\n        /* \"#utility.yul\":2104:2222   */\n      pop\n      pop\n      jump\t// out\n        /* \"#utility.yul\":2254:2970   */\n    tag_195:\n        /* \"#utility.yul\":2369:2372   */\n      0x00\n        /* \"#utility.yul\":2398:2450   */\n      tag_197\n        /* \"#utility.yul\":2444:2449   */\n      dup3\n        /* \"#utility.yul\":2398:2450   */\n      tag_198\n      jump\t// in\n    tag_197:\n        /* \"#utility.yul\":2466:2550   */\n      tag_199\n        /* \"#utility.yul\":2543:2549   */\n      dup2\n        /* \"#utility.yul\":2538:2541   */\n      dup6\n        /* \"#utility.yul\":2466:2550   */\n      tag_200\n      jump\t// in\n    tag_199:\n        /* \"#utility.yul\":2459:2550   */\n      swap4\n      pop\n        /* \"#utility.yul\":2574:2628   */\n      tag_201\n        /* \"#utility.yul\":2622:2627   */\n      dup4\n        /* \"#utility.yul\":2574:2628   */\n      tag_202\n      jump\t// in\n    tag_201:\n        /* \"#utility.yul\":2651:2658   */\n      dup1\n        /* \"#utility.yul\":2682:2683   */\n      0x00\n        /* \"#utility.yul\":2667:2945   */\n    tag_203:\n        /* \"#utility.yul\":2692:2698   */\n      dup4\n        /* \"#utility.yul\":2689:2690   */\n      dup2\n        /* \"#utility.yul\":2686:2699   */\n      lt\n        /* \"#utility.yul\":2667:2945   */\n      iszero\n      tag_205\n      jumpi\n        /* \"#utility.yul\":2768:2774   */\n      dup2\n        /* \"#utility.yul\":2762:2775   */\n      mload\n        /* \"#utility.yul\":2795:2854   */\n      tag_206\n        /* \"#utility.yul\":2850:2853   */\n      dup9\n        /* \"#utility.yul\":2835:2848   */\n      dup3\n        /* \"#utility.yul\":2795:2854   */\n      tag_187\n      jump\t// in\n    tag_206:\n        /* \"#utility.yul\":2788:2854   */\n      swap8\n      pop\n        /* \"#utility.yul\":2877:2935   */\n      tag_207\n        /* \"#utility.yul\":2928:2934   */\n      dup4\n        /* \"#utility.yul\":2877:2935   */\n      tag_208\n      jump\t// in\n    tag_207:\n        /* \"#utility.yul\":2867:2935   */\n      swap3\n      pop\n        /* \"#utility.yul\":2727:2945   */\n      pop\n        /* \"#utility.yul\":2714:2715   */\n      0x01\n        /* \"#utility.yul\":2711:2712   */\n      dup2\n        /* \"#utility.yul\":2707:2716   */\n      add\n        /* \"#utility.yul\":2702:2716   */\n      swap1\n      pop\n        /* \"#utility.yul\":2667:2945   */\n      jump(tag_203)\n    tag_205:\n        /* \"#utility.yul\":2671:2685   */\n      pop\n        /* \"#utility.yul\":2961:2964   */\n      dup6\n        /* \"#utility.yul\":2954:2964   */\n      swap4\n      pop\n        /* \"#utility.yul\":2374:2970   */\n      pop\n      pop\n      pop\n        /* \"#utility.yul\":2254:2970   */\n      swap3\n      swap2\n      pop\n      pop\n      jump\t// out\n        /* \"#utility.yul\":2976:3085   */\n    tag_209:\n        /* \"#utility.yul\":3057:3078   */\n      tag_211\n        /* \"#utility.yul\":3072:3077   */\n      dup2\n        /* \"#utility.yul\":3057:3078   */\n      tag_212\n      jump\t// in\n    tag_211:\n        /* \"#utility.yul\":3052:3055   */\n      dup3\n        /* \"#utility.yul\":3045:3079   */\n      mstore\n        /* \"#utility.yul\":2976:3085   */\n      pop\n      pop\n      jump\t// out\n        /* \"#utility.yul\":3091:3457   */\n    tag_213:\n        /* \"#utility.yul\":3233:3236   */\n      0x00\n        /* \"#utility.yul\":3254:3321   */\n      tag_215\n        /* \"#utility.yul\":3318:3320   */\n      0x0c\n        /* \"#utility.yul\":3313:3316   */\n      dup4\n        /* \"#utility.yul\":3254:3321   */\n      tag_216\n      jump\t// in\n    tag_215:\n        /* \"#utility.yul\":3247:3321   */\n      swap2\n      pop\n        /* \"#utility.yul\":3330:3423   */\n      tag_217\n        /* \"#utility.yul\":3419:3422   */\n      dup3\n        /* \"#utility.yul\":3330:3423   */\n      tag_218\n      jump\t// in\n    tag_217:\n        /* \"#utility.yul\":3448:3450   */\n      0x20\n        /* \"#utility.yul\":3443:3446   */\n      dup3\n        /* \"#utility.yul\":3439:3451   */\n      add\n        /* \"#utility.yul\":3432:3451   */\n      swap1\n      pop\n        /* \"#utility.yul\":3091:3457   */\n      swap2\n      swap1\n      pop\n      jump\t// out\n        /* \"#utility.yul\":3463:3829   */\n    tag_219:\n        /* \"#utility.yul\":3605:3608   */\n      0x00\n        /* \"#utility.yul\":3626:3693   */\n      tag_221\n        /* \"#utility.yul\":3690:3692   */\n      0x26\n        /* \"#utility.yul\":3685:3688   */\n      dup4\n        /* \"#utility.yul\":3626:3693   */\n      tag_216\n      jump\t// in\n    tag_221:\n        /* \"#utility.yul\":3619:3693   */\n      swap2\n      pop\n        /* \"#utility.yul\":3702:3795   */\n      tag_222\n        /* \"#utility.yul\":3791:3794   */\n      dup3\n        /* \"#utility.yul\":3702:3795   */\n      tag_223\n      jump\t// in\n    tag_222:\n        /* \"#utility.yul\":3820:3822   */\n      0x40\n        /* \"#utility.yul\":3815:3818   */\n      dup3\n        /* \"#utility.yul\":3811:3823   */\n      add\n        /* \"#utility.yul\":3804:3823   */\n      swap1\n      pop\n        /* \"#utility.yul\":3463:3829   */\n      swap2\n      swap1\n      pop\n      jump\t// out\n        /* \"#utility.yul\":3835:4201   */\n    tag_224:\n        /* \"#utility.yul\":3977:3980   */\n      0x00\n        /* \"#utility.yul\":3998:4065   */\n      tag_226\n        /* \"#utility.yul\":4062:4064   */\n      0x0e\n        /* \"#utility.yul\":4057:4060   */\n      dup4\n        /* \"#utility.yul\":3998:4065   */\n      tag_216\n      jump\t// in\n    tag_226:\n        /* \"#utility.yul\":3991:4065   */\n      swap2\n      pop\n        /* \"#utility.yul\":4074:4167   */\n      tag_227\n        /* \"#utility.yul\":4163:4166   */\n      dup3\n        /* \"#utility.yul\":4074:4167   */\n      tag_228\n      jump\t// in\n    tag_227:\n        /* \"#utility.yul\":4192:4194   */\n      0x20\n        /* \"#utility.yul\":4187:4190   */\n      dup3\n        /* \"#utility.yul\":4183:4195   */\n      add\n        /* \"#utility.yul\":4176:4195   */\n      swap1\n      pop\n        /* \"#utility.yul\":3835:4201   */\n      swap2\n      swap1\n      pop\n      jump\t// out\n        /* \"#utility.yul\":4207:4573   */\n    tag_229:\n        /* \"#utility.yul\":4349:4352   */\n      0x00\n        /* \"#utility.yul\":4370:4437   */\n      tag_231\n        /* \"#utility.yul\":4434:4436   */\n      0x0c\n        /* \"#utility.yul\":4429:4432   */\n      dup4\n        /* \"#utility.yul\":4370:4437   */\n      tag_216\n      jump\t// in\n    tag_231:\n        /* \"#utility.yul\":4363:4437   */\n      swap2\n      pop\n        /* \"#utility.yul\":4446:4539   */\n      tag_232\n        /* \"#utility.yul\":4535:4538   */\n      dup3\n        /* \"#utility.yul\":4446:4539   */\n      tag_233\n      jump\t// in\n    tag_232:\n        /* \"#utility.yul\":4564:4566   */\n      0x20\n        /* \"#utility.yul\":4559:4562   */\n      dup3\n        /* \"#utility.yul\":4555:4567   */\n      add\n        /* \"#utility.yul\":4548:4567   */\n      swap1\n      pop\n        /* \"#utility.yul\":4207:4573   */\n      swap2\n      swap1\n      pop\n      jump\t// out\n        /* \"#utility.yul\":4579:4945   */\n    tag_234:\n        /* \"#utility.yul\":4721:4724   */\n      0x00\n        /* \"#utility.yul\":4742:4809   */\n      tag_236\n        /* \"#utility.yul\":4806:4808   */\n      0x0b\n        /* \"#utility.yul\":4801:4804   */\n      dup4\n        /* \"#utility.yul\":4742:4809   */\n      tag_216\n      jump\t// in\n    tag_236:\n        /* \"#utility.yul\":4735:4809   */\n      swap2\n      pop\n        /* \"#utility.yul\":4818:4911   */\n      tag_237\n        /* \"#utility.yul\":4907:4910   */\n      dup3\n        /* \"#utility.yul\":4818:4911   */\n      tag_238\n      jump\t// in\n    tag_237:\n        /* \"#utility.yul\":4936:4938   */\n      0x20\n        /* \"#utility.yul\":4931:4934   */\n      dup3\n        /* \"#utility.yul\":4927:4939   */\n      add\n        /* \"#utility.yul\":4920:4939   */\n      swap1\n      pop\n        /* \"#utility.yul\":4579:4945   */\n      swap2\n      swap1\n      pop\n      jump\t// out\n        /* \"#utility.yul\":4951:5317   */\n    tag_239:\n        /* \"#utility.yul\":5093:5096   */\n      0x00\n        /* \"#utility.yul\":5114:5181   */\n      tag_241\n        /* \"#utility.yul\":5178:5180   */\n      0x20\n        /* \"#utility.yul\":5173:5176   */\n      dup4\n        /* \"#utility.yul\":5114:5181   */\n      tag_216\n      jump\t// in\n    tag_241:\n        /* \"#utility.yul\":5107:5181   */\n      swap2\n      pop\n        /* \"#utility.yul\":5190:5283   */\n      tag_242\n        /* \"#utility.yul\":5279:5282   */\n      dup3\n        /* \"#utility.yul\":5190:5283   */\n      tag_243\n      jump\t// in\n    tag_242:\n        /* \"#utility.yul\":5308:5310   */\n      0x20\n        /* \"#utility.yul\":5303:5306   */\n      dup3\n        /* \"#utility.yul\":5299:5311   */\n      add\n        /* \"#utility.yul\":5292:5311   */\n      swap1\n      pop\n        /* \"#utility.yul\":4951:5317   */\n      swap2\n      swap1\n      pop\n      jump\t// out\n        /* \"#utility.yul\":5323:5689   */\n    tag_244:\n        /* \"#utility.yul\":5465:5468   */\n      0x00\n        /* \"#utility.yul\":5486:5553   */\n      tag_246\n        /* \"#utility.yul\":5550:5552   */\n      0x19\n        /* \"#utility.yul\":5545:5548   */\n      dup4\n        /* \"#utility.yul\":5486:5553   */\n      tag_216\n      jump\t// in\n    tag_246:\n        /* \"#utility.yul\":5479:5553   */\n      swap2\n      pop\n        /* \"#utility.yul\":5562:5655   */\n      tag_247\n        /* \"#utility.yul\":5651:5654   */\n      dup3\n        /* \"#utility.yul\":5562:5655   */\n      tag_248\n      jump\t// in\n    tag_247:\n        /* \"#utility.yul\":5680:5682   */\n      0x20\n        /* \"#utility.yul\":5675:5678   */\n      dup3\n        /* \"#utility.yul\":5671:5683   */\n      add\n        /* \"#utility.yul\":5664:5683   */\n      swap1\n      pop\n        /* \"#utility.yul\":5323:5689   */\n      swap2\n      swap1\n      pop\n      jump\t// out\n        /* \"#utility.yul\":5695:5813   */\n    tag_249:\n        /* \"#utility.yul\":5782:5806   */\n      tag_251\n        /* \"#utility.yul\":5800:5805   */\n      dup2\n        /* \"#utility.yul\":5782:5806   */\n      tag_252\n      jump\t// in\n    tag_251:\n        /* \"#utility.yul\":5777:5780   */\n      dup3\n        /* \"#utility.yul\":5770:5807   */\n      mstore\n        /* \"#utility.yul\":5695:5813   */\n      pop\n      pop\n      jump\t// out\n        /* \"#utility.yul\":5819:5921   */\n    tag_190:\n        /* \"#utility.yul\":5892:5914   */\n      tag_254\n        /* \"#utility.yul\":5908:5913   */\n      dup2\n        /* \"#utility.yul\":5892:5914   */\n      tag_255\n      jump\t// in\n    tag_254:\n        /* \"#utility.yul\":5887:5890   */\n      dup3\n        /* \"#utility.yul\":5880:5915   */\n      mstore\n        /* \"#utility.yul\":5819:5921   */\n      pop\n      pop\n      jump\t// out\n        /* \"#utility.yul\":5927:6039   */\n    tag_256:\n        /* \"#utility.yul\":6010:6032   */\n      tag_258\n        /* \"#utility.yul\":6026:6031   */\n      dup2\n        /* \"#utility.yul\":6010:6032   */\n      tag_255\n      jump\t// in\n    tag_258:\n        /* \"#utility.yul\":6005:6008   */\n      dup3\n        /* \"#utility.yul\":5998:6033   */\n      mstore\n        /* \"#utility.yul\":5927:6039   */\n      pop\n      pop\n      jump\t// out\n        /* \"#utility.yul\":6045:6267   */\n    tag_34:\n        /* \"#utility.yul\":6138:6142   */\n      0x00\n        /* \"#utility.yul\":6176:6178   */\n      0x20\n        /* \"#utility.yul\":6165:6174   */\n      dup3\n        /* \"#utility.yul\":6161:6179   */\n      add\n        /* \"#utility.yul\":6153:6179   */\n      swap1\n      pop\n        /* \"#utility.yul\":6189:6260   */\n      tag_260\n        /* \"#utility.yul\":6257:6258   */\n      0x00\n        /* \"#utility.yul\":6246:6255   */\n      dup4\n        /* \"#utility.yul\":6242:6259   */\n      add\n        /* \"#utility.yul\":6233:6239   */\n      dup5\n        /* \"#utility.yul\":6189:6260   */\n      tag_191\n      jump\t// in\n    tag_260:\n        /* \"#utility.yul\":6045:6267   */\n      swap3\n      swap2\n      pop\n      pop\n      jump\t// out\n        /* \"#utility.yul\":6273:6605   */\n    tag_142:\n        /* \"#utility.yul\":6394:6398   */\n      0x00\n        /* \"#utility.yul\":6432:6434   */\n      0x40\n        /* \"#utility.yul\":6421:6430   */\n      dup3\n        /* \"#utility.yul\":6417:6435   */\n      add\n        /* \"#utility.yul\":6409:6435   */\n      swap1\n      pop\n        /* \"#utility.yul\":6445:6516   */\n      tag_262\n        /* \"#utility.yul\":6513:6514   */\n      0x00\n        /* \"#utility.yul\":6502:6511   */\n      dup4\n        /* \"#utility.yul\":6498:6515   */\n      add\n        /* \"#utility.yul\":6489:6495   */\n      dup6\n        /* \"#utility.yul\":6445:6516   */\n      tag_191\n      jump\t// in\n    tag_262:\n        /* \"#utility.yul\":6526:6598   */\n      tag_263\n        /* \"#utility.yul\":6594:6596   */\n      0x20\n        /* \"#utility.yul\":6583:6592   */\n      dup4\n        /* \"#utility.yul\":6579:6597   */\n      add\n        /* \"#utility.yul\":6570:6576   */\n      dup5\n        /* \"#utility.yul\":6526:6598   */\n      tag_191\n      jump\t// in\n    tag_263:\n        /* \"#utility.yul\":6273:6605   */\n      swap4\n      swap3\n      pop\n      pop\n      pop\n      jump\t// out\n        /* \"#utility.yul\":6611:6931   */\n    tag_38:\n        /* \"#utility.yul\":6726:6730   */\n      0x00\n        /* \"#utility.yul\":6764:6766   */\n      0x40\n        /* \"#utility.yul\":6753:6762   */\n      dup3\n        /* \"#utility.yul\":6749:6767   */\n      add\n        /* \"#utility.yul\":6741:6767   */\n      swap1\n      pop\n        /* \"#utility.yul\":6777:6848   */\n      tag_265\n        /* \"#utility.yul\":6845:6846   */\n      0x00\n        /* \"#utility.yul\":6834:6843   */\n      dup4\n        /* \"#utility.yul\":6830:6847   */\n      add\n        /* \"#utility.yul\":6821:6827   */\n      dup6\n        /* \"#utility.yul\":6777:6848   */\n      tag_191\n      jump\t// in\n    tag_265:\n        /* \"#utility.yul\":6858:6924   */\n      tag_266\n        /* \"#utility.yul\":6920:6922   */\n      0x20\n        /* \"#utility.yul\":6909:6918   */\n      dup4\n        /* \"#utility.yul\":6905:6923   */\n      add\n        /* \"#utility.yul\":6896:6902   */\n      dup5\n        /* \"#utility.yul\":6858:6924   */\n      tag_209\n      jump\t// in\n    tag_266:\n        /* \"#utility.yul\":6611:6931   */\n      swap4\n      swap3\n      pop\n      pop\n      pop\n      jump\t// out\n        /* \"#utility.yul\":6937:7269   */\n    tag_87:\n        /* \"#utility.yul\":7058:7062   */\n      0x00\n        /* \"#utility.yul\":7096:7098   */\n      0x40\n        /* \"#utility.yul\":7085:7094   */\n      dup3\n        /* \"#utility.yul\":7081:7099   */\n      add\n        /* \"#utility.yul\":7073:7099   */\n      swap1\n      pop\n        /* \"#utility.yul\":7109:7180   */\n      tag_268\n        /* \"#utility.yul\":7177:7178   */\n      0x00\n        /* \"#utility.yul\":7166:7175   */\n      dup4\n        /* \"#utility.yul\":7162:7179   */\n      add\n        /* \"#utility.yul\":7153:7159   */\n      dup6\n        /* \"#utility.yul\":7109:7180   */\n      tag_191\n      jump\t// in\n    tag_268:\n        /* \"#utility.yul\":7190:7262   */\n      tag_269\n        /* \"#utility.yul\":7258:7260   */\n      0x20\n        /* \"#utility.yul\":7247:7256   */\n      dup4\n        /* \"#utility.yul\":7243:7261   */\n      add\n        /* \"#utility.yul\":7234:7240   */\n      dup5\n        /* \"#utility.yul\":7190:7262   */\n      tag_249\n      jump\t// in\n    tag_269:\n        /* \"#utility.yul\":6937:7269   */\n      swap4\n      swap3\n      pop\n      pop\n      pop\n      jump\t// out\n        /* \"#utility.yul\":7275:7640   */\n    tag_65:\n        /* \"#utility.yul\":7414:7418   */\n      0x00\n        /* \"#utility.yul\":7452:7454   */\n      0x20\n        /* \"#utility.yul\":7441:7450   */\n      dup3\n        /* \"#utility.yul\":7437:7455   */\n      add\n        /* \"#utility.yul\":7429:7455   */\n      swap1\n      pop\n        /* \"#utility.yul\":7501:7510   */\n      dup2\n        /* \"#utility.yul\":7495:7499   */\n      dup2\n        /* \"#utility.yul\":7491:7511   */\n      sub\n        /* \"#utility.yul\":7487:7488   */\n      0x00\n        /* \"#utility.yul\":7476:7485   */\n      dup4\n        /* \"#utility.yul\":7472:7489   */\n      add\n        /* \"#utility.yul\":7465:7512   */\n      mstore\n        /* \"#utility.yul\":7529:7633   */\n      tag_271\n        /* \"#utility.yul\":7628:7632   */\n      dup2\n        /* \"#utility.yul\":7619:7625   */\n      dup5\n        /* \"#utility.yul\":7529:7633   */\n      tag_195\n      jump\t// in\n    tag_271:\n        /* \"#utility.yul\":7521:7633   */\n      swap1\n      pop\n        /* \"#utility.yul\":7275:7640   */\n      swap3\n      swap2\n      pop\n      pop\n      jump\t// out\n        /* \"#utility.yul\":7646:7856   */\n    tag_71:\n        /* \"#utility.yul\":7733:7737   */\n      0x00\n        /* \"#utility.yul\":7771:7773   */\n      0x20\n        /* \"#utility.yul\":7760:7769   */\n      dup3\n        /* \"#utility.yul\":7756:7774   */\n      add\n        /* \"#utility.yul\":7748:7774   */\n      swap1\n      pop\n        /* \"#utility.yul\":7784:7849   */\n      tag_273\n        /* \"#utility.yul\":7846:7847   */\n      0x00\n        /* \"#utility.yul\":7835:7844   */\n      dup4\n        /* \"#utility.yul\":7831:7848   */\n      add\n        /* \"#utility.yul\":7822:7828   */\n      dup5\n        /* \"#utility.yul\":7784:7849   */\n      tag_209\n      jump\t// in\n    tag_273:\n        /* \"#utility.yul\":7646:7856   */\n      swap3\n      swap2\n      pop\n      pop\n      jump\t// out\n        /* \"#utility.yul\":7862:8281   */\n    tag_107:\n        /* \"#utility.yul\":8028:8032   */\n      0x00\n        /* \"#utility.yul\":8066:8068   */\n      0x20\n        /* \"#utility.yul\":8055:8064   */\n      dup3\n        /* \"#utility.yul\":8051:8069   */\n      add\n        /* \"#utility.yul\":8043:8069   */\n      swap1\n      pop\n        /* \"#utility.yul\":8115:8124   */\n      dup2\n        /* \"#utility.yul\":8109:8113   */\n      dup2\n        /* \"#utility.yul\":8105:8125   */\n      sub\n        /* \"#utility.yul\":8101:8102   */\n      0x00\n        /* \"#utility.yul\":8090:8099   */\n      dup4\n        /* \"#utility.yul\":8086:8103   */\n      add\n        /* \"#utility.yul\":8079:8126   */\n      mstore\n        /* \"#utility.yul\":8143:8274   */\n      tag_275\n        /* \"#utility.yul\":8269:8273   */\n      dup2\n        /* \"#utility.yul\":8143:8274   */\n      tag_213\n      jump\t// in\n    tag_275:\n        /* \"#utility.yul\":8135:8274   */\n      swap1\n      pop\n        /* \"#utility.yul\":7862:8281   */\n      swap2\n      swap1\n      pop\n      jump\t// out\n        /* \"#utility.yul\":8287:8706   */\n    tag_148:\n        /* \"#utility.yul\":8453:8457   */\n      0x00\n        /* \"#utility.yul\":8491:8493   */\n      0x20\n        /* \"#utility.yul\":8480:8489   */\n      dup3\n        /* \"#utility.yul\":8476:8494   */\n      add\n        /* \"#utility.yul\":8468:8494   */\n      swap1\n      pop\n        /* \"#utility.yul\":8540:8549   */\n      dup2\n        /* \"#utility.yul\":8534:8538   */\n      dup2\n        /* \"#utility.yul\":8530:8550   */\n      sub\n        /* \"#utility.yul\":8526:8527   */\n      0x00\n        /* \"#utility.yul\":8515:8524   */\n      dup4\n        /* \"#utility.yul\":8511:8528   */\n      add\n        /* \"#utility.yul\":8504:8551   */\n      mstore\n        /* \"#utility.yul\":8568:8699   */\n      tag_277\n        /* \"#utility.yul\":8694:8698   */\n      dup2\n        /* \"#utility.yul\":8568:8699   */\n      tag_219\n      jump\t// in\n    tag_277:\n        /* \"#utility.yul\":8560:8699   */\n      swap1\n      pop\n        /* \"#utility.yul\":8287:8706   */\n      swap2\n      swap1\n      pop\n      jump\t// out\n        /* \"#utility.yul\":8712:9131   */\n    tag_121:\n        /* \"#utility.yul\":8878:8882   */\n      0x00\n        /* \"#utility.yul\":8916:8918   */\n      0x20\n        /* \"#utility.yul\":8905:8914   */\n      dup3\n        /* \"#utility.yul\":8901:8919   */\n      add\n        /* \"#utility.yul\":8893:8919   */\n      swap1\n      pop\n        /* \"#utility.yul\":8965:8974   */\n      dup2\n        /* \"#utility.yul\":8959:8963   */\n      dup2\n        /* \"#utility.yul\":8955:8975   */\n      sub\n        /* \"#utility.yul\":8951:8952   */\n      0x00\n        /* \"#utility.yul\":8940:8949   */\n      dup4\n        /* \"#utility.yul\":8936:8953   */\n      add\n        /* \"#utility.yul\":8929:8976   */\n      mstore\n        /* \"#utility.yul\":8993:9124   */\n      tag_279\n        /* \"#utility.yul\":9119:9123   */\n      dup2\n        /* \"#utility.yul\":8993:9124   */\n      tag_224\n      jump\t// in\n    tag_279:\n        /* \"#utility.yul\":8985:9124   */\n      swap1\n      pop\n        /* \"#utility.yul\":8712:9131   */\n      swap2\n      swap1\n      pop\n      jump\t// out\n        /* \"#utility.yul\":9137:9556   */\n    tag_114:\n        /* \"#utility.yul\":9303:9307   */\n      0x00\n        /* \"#utility.yul\":9341:9343   */\n      0x20\n        /* \"#utility.yul\":9330:9339   */\n      dup3\n        /* \"#utility.yul\":9326:9344   */\n      add\n        /* \"#utility.yul\":9318:9344   */\n      swap1\n      pop\n        /* \"#utility.yul\":9390:9399   */\n      dup2\n        /* \"#utility.yul\":9384:9388   */\n      dup2\n        /* \"#utility.yul\":9380:9400   */\n      sub\n        /* \"#utility.yul\":9376:9377   */\n      0x00\n        /* \"#utility.yul\":9365:9374   */\n      dup4\n        /* \"#utility.yul\":9361:9378   */\n      add\n        /* \"#utility.yul\":9354:9401   */\n      mstore\n        /* \"#utility.yul\":9418:9549   */\n      tag_281\n        /* \"#utility.yul\":9544:9548   */\n      dup2\n        /* \"#utility.yul\":9418:9549   */\n      tag_229\n      jump\t// in\n    tag_281:\n        /* \"#utility.yul\":9410:9549   */\n      swap1\n      pop\n        /* \"#utility.yul\":9137:9556   */\n      swap2\n      swap1\n      pop\n      jump\t// out\n        /* \"#utility.yul\":9562:9981   */\n    tag_110:\n        /* \"#utility.yul\":9728:9732   */\n      0x00\n        /* \"#utility.yul\":9766:9768   */\n      0x20\n        /* \"#utility.yul\":9755:9764   */\n      dup3\n        /* \"#utility.yul\":9751:9769   */\n      add\n        /* \"#utility.yul\":9743:9769   */\n      swap1\n      pop\n        /* \"#utility.yul\":9815:9824   */\n      dup2\n        /* \"#utility.yul\":9809:9813   */\n      dup2\n        /* \"#utility.yul\":9805:9825   */\n      sub\n        /* \"#utility.yul\":9801:9802   */\n      0x00\n        /* \"#utility.yul\":9790:9799   */\n      dup4\n        /* \"#utility.yul\":9786:9803   */\n      add\n        /* \"#utility.yul\":9779:9826   */\n      mstore\n        /* \"#utility.yul\":9843:9974   */\n      tag_283\n        /* \"#utility.yul\":9969:9973   */\n      dup2\n        /* \"#utility.yul\":9843:9974   */\n      tag_234\n      jump\t// in\n    tag_283:\n        /* \"#utility.yul\":9835:9974   */\n      swap1\n      pop\n        /* \"#utility.yul\":9562:9981   */\n      swap2\n      swap1\n      pop\n      jump\t// out\n        /* \"#utility.yul\":9987:10406   */\n    tag_156:\n        /* \"#utility.yul\":10153:10157   */\n      0x00\n        /* \"#utility.yul\":10191:10193   */\n      0x20\n        /* \"#utility.yul\":10180:10189   */\n      dup3\n        /* \"#utility.yul\":10176:10194   */\n      add\n        /* \"#utility.yul\":10168:10194   */\n      swap1\n      pop\n        /* \"#utility.yul\":10240:10249   */\n      dup2\n        /* \"#utility.yul\":10234:10238   */\n      dup2\n        /* \"#utility.yul\":10230:10250   */\n      sub\n        /* \"#utility.yul\":10226:10227   */\n      0x00\n        /* \"#utility.yul\":10215:10224   */\n      dup4\n        /* \"#utility.yul\":10211:10228   */\n      add\n        /* \"#utility.yul\":10204:10251   */\n      mstore\n        /* \"#utility.yul\":10268:10399   */\n      tag_285\n        /* \"#utility.yul\":10394:10398   */\n      dup2\n        /* \"#utility.yul\":10268:10399   */\n      tag_239\n      jump\t// in\n    tag_285:\n        /* \"#utility.yul\":10260:10399   */\n      swap1\n      pop\n        /* \"#utility.yul\":9987:10406   */\n      swap2\n      swap1\n      pop\n      jump\t// out\n        /* \"#utility.yul\":10412:10831   */\n    tag_118:\n        /* \"#utility.yul\":10578:10582   */\n      0x00\n        /* \"#utility.yul\":10616:10618   */\n      0x20\n        /* \"#utility.yul\":10605:10614   */\n      dup3\n        /* \"#utility.yul\":10601:10619   */\n      add\n        /* \"#utility.yul\":10593:10619   */\n      swap1\n      pop\n        /* \"#utility.yul\":10665:10674   */\n      dup2\n        /* \"#utility.yul\":10659:10663   */\n      dup2\n        /* \"#utility.yul\":10655:10675   */\n      sub\n        /* \"#utility.yul\":10651:10652   */\n      0x00\n        /* \"#utility.yul\":10640:10649   */\n      dup4\n        /* \"#utility.yul\":10636:10653   */\n      add\n        /* \"#utility.yul\":10629:10676   */\n      mstore\n        /* \"#utility.yul\":10693:10824   */\n      tag_287\n        /* \"#utility.yul\":10819:10823   */\n      dup2\n        /* \"#utility.yul\":10693:10824   */\n      tag_244\n      jump\t// in\n    tag_287:\n        /* \"#utility.yul\":10685:10824   */\n      swap1\n      pop\n        /* \"#utility.yul\":10412:10831   */\n      swap2\n      swap1\n      pop\n      jump\t// out\n        /* \"#utility.yul\":10837:11059   */\n    tag_30:\n        /* \"#utility.yul\":10930:10934   */\n      0x00\n        /* \"#utility.yul\":10968:10970   */\n      0x20\n        /* \"#utility.yul\":10957:10966   */\n      dup3\n        /* \"#utility.yul\":10953:10971   */\n      add\n        /* \"#utility.yul\":10945:10971   */\n      swap1\n      pop\n        /* \"#utility.yul\":10981:11052   */\n      tag_289\n        /* \"#utility.yul\":11049:11050   */\n      0x00\n        /* \"#utility.yul\":11038:11047   */\n      dup4\n        /* \"#utility.yul\":11034:11051   */\n      add\n        /* \"#utility.yul\":11025:11031   */\n      dup5\n        /* \"#utility.yul\":10981:11052   */\n      tag_249\n      jump\t// in\n    tag_289:\n        /* \"#utility.yul\":10837:11059   */\n      swap3\n      swap2\n      pop\n      pop\n      jump\t// out\n        /* \"#utility.yul\":11065:11279   */\n    tag_44:\n        /* \"#utility.yul\":11154:11158   */\n      0x00\n        /* \"#utility.yul\":11192:11194   */\n      0x20\n        /* \"#utility.yul\":11181:11190   */\n      dup3\n        /* \"#utility.yul\":11177:11195   */\n      add\n        /* \"#utility.yul\":11169:11195   */\n      swap1\n      pop\n        /* \"#utility.yul\":11205:11272   */\n      tag_291\n        /* \"#utility.yul\":11269:11270   */\n      0x00\n        /* \"#utility.yul\":11258:11267   */\n      dup4\n        /* \"#utility.yul\":11254:11271   */\n      add\n        /* \"#utility.yul\":11245:11251   */\n      dup5\n        /* \"#utility.yul\":11205:11272   */\n      tag_256\n      jump\t// in\n    tag_291:\n        /* \"#utility.yul\":11065:11279   */\n      swap3\n      swap2\n      pop\n      pop\n      jump\t// out\n        /* \"#utility.yul\":11366:11496   */\n    tag_202:\n        /* \"#utility.yul\":11431:11435   */\n      0x00\n        /* \"#utility.yul\":11454:11457   */\n      dup2\n        /* \"#utility.yul\":11446:11457   */\n      swap1\n      pop\n        /* \"#utility.yul\":11484:11488   */\n      0x20\n        /* \"#utility.yul\":11479:11482   */\n      dup3\n        /* \"#utility.yul\":11475:11489   */\n      add\n        /* \"#utility.yul\":11467:11489   */\n      swap1\n      pop\n        /* \"#utility.yul\":11366:11496   */\n      swap2\n      swap1\n      pop\n      jump\t// out\n        /* \"#utility.yul\":11502:11614   */\n    tag_198:\n        /* \"#utility.yul\":11567:11573   */\n      0x00\n        /* \"#utility.yul\":11601:11606   */\n      dup2\n        /* \"#utility.yul\":11595:11607   */\n      mload\n        /* \"#utility.yul\":11585:11607   */\n      swap1\n      pop\n        /* \"#utility.yul\":11502:11614   */\n      swap2\n      swap1\n      pop\n      jump\t// out\n        /* \"#utility.yul\":11620:11731   */\n    tag_208:\n        /* \"#utility.yul\":11688:11692   */\n      0x00\n        /* \"#utility.yul\":11720:11724   */\n      0x20\n        /* \"#utility.yul\":11715:11718   */\n      dup3\n        /* \"#utility.yul\":11711:11725   */\n      add\n        /* \"#utility.yul\":11703:11725   */\n      swap1\n      pop\n        /* \"#utility.yul\":11620:11731   */\n      swap2\n      swap1\n      pop\n      jump\t// out\n        /* \"#utility.yul\":11737:11919   */\n    tag_200:\n        /* \"#utility.yul\":11834:11845   */\n      0x00\n        /* \"#utility.yul\":11868:11874   */\n      dup3\n        /* \"#utility.yul\":11863:11866   */\n      dup3\n        /* \"#utility.yul\":11856:11875   */\n      mstore\n        /* \"#utility.yul\":11908:11912   */\n      0x20\n        /* \"#utility.yul\":11903:11906   */\n      dup3\n        /* \"#utility.yul\":11899:11913   */\n      add\n        /* \"#utility.yul\":11884:11913   */\n      swap1\n      pop\n        /* \"#utility.yul\":11737:11919   */\n      swap3\n      swap2\n      pop\n      pop\n      jump\t// out\n        /* \"#utility.yul\":11925:12094   */\n    tag_216:\n        /* \"#utility.yul\":12009:12020   */\n      0x00\n        /* \"#utility.yul\":12043:12049   */\n      dup3\n        /* \"#utility.yul\":12038:12041   */\n      dup3\n        /* \"#utility.yul\":12031:12050   */\n      mstore\n        /* \"#utility.yul\":12083:12087   */\n      0x20\n        /* \"#utility.yul\":12078:12081   */\n      dup3\n        /* \"#utility.yul\":12074:12088   */\n      add\n        /* \"#utility.yul\":12059:12088   */\n      swap1\n      pop\n        /* \"#utility.yul\":11925:12094   */\n      swap3\n      swap2\n      pop\n      pop\n      jump\t// out\n        /* \"#utility.yul\":12100:12405   */\n    tag_123:\n        /* \"#utility.yul\":12140:12143   */\n      0x00\n        /* \"#utility.yul\":12159:12179   */\n      tag_300\n        /* \"#utility.yul\":12177:12178   */\n      dup3\n        /* \"#utility.yul\":12159:12179   */\n      tag_252\n      jump\t// in\n    tag_300:\n        /* \"#utility.yul\":12154:12179   */\n      swap2\n      pop\n        /* \"#utility.yul\":12193:12213   */\n      tag_301\n        /* \"#utility.yul\":12211:12212   */\n      dup4\n        /* \"#utility.yul\":12193:12213   */\n      tag_252\n      jump\t// in\n    tag_301:\n        /* \"#utility.yul\":12188:12213   */\n      swap3\n      pop\n        /* \"#utility.yul\":12347:12348   */\n      dup3\n        /* \"#utility.yul\":12279:12345   */\n      0xffffffffffffffffffffffffffffffffffffffffffffffffffffffffffffffff\n        /* \"#utility.yul\":12275:12349   */\n      sub\n        /* \"#utility.yul\":12272:12273   */\n      dup3\n        /* \"#utility.yul\":12269:12350   */\n      gt\n        /* \"#utility.yul\":12266:12373   */\n      iszero\n      tag_302\n      jumpi\n        /* \"#utility.yul\":12353:12371   */\n      tag_303\n      tag_304\n      jump\t// in\n    tag_303:\n        /* \"#utility.yul\":12266:12373   */\n    tag_302:\n        /* \"#utility.yul\":12397:12398   */\n      dup3\n        /* \"#utility.yul\":12394:12395   */\n      dup3\n        /* \"#utility.yul\":12390:12399   */\n      add\n        /* \"#utility.yul\":12383:12399   */\n      swap1\n      pop\n        /* \"#utility.yul\":12100:12405   */\n      swap3\n      swap2\n      pop\n      pop\n      jump\t// out\n        /* \"#utility.yul\":12411:12507   */\n    tag_194:\n        /* \"#utility.yul\":12448:12455   */\n      0x00\n        /* \"#utility.yul\":12477:12501   */\n      tag_306\n        /* \"#utility.yul\":12495:12500   */\n      dup3\n        /* \"#utility.yul\":12477:12501   */\n      tag_307\n      jump\t// in\n    tag_306:\n        /* \"#utility.yul\":12466:12501   */\n      swap1\n      pop\n        /* \"#utility.yul\":12411:12507   */\n      swap2\n      swap1\n      pop\n      jump\t// out\n        /* \"#utility.yul\":12513:12603   */\n    tag_212:\n        /* \"#utility.yul\":12547:12554   */\n      0x00\n        /* \"#utility.yul\":12590:12595   */\n      dup2\n        /* \"#utility.yul\":12583:12596   */\n      iszero\n        /* \"#utility.yul\":12576:12597   */\n      iszero\n        /* \"#utility.yul\":12565:12597   */\n      swap1\n      pop\n        /* \"#utility.yul\":12513:12603   */\n      swap2\n      swap1\n      pop\n      jump\t// out\n        /* \"#utility.yul\":12609:12735   */\n    tag_307:\n        /* \"#utility.yul\":12646:12653   */\n      0x00\n        /* \"#utility.yul\":12686:12728   */\n      0xffffffffffffffffffffffffffffffffffffffff\n        /* \"#utility.yul\":12679:12684   */\n      dup3\n        /* \"#utility.yul\":12675:12729   */\n      and\n        /* \"#utility.yul\":12664:12729   */\n      swap1\n      pop\n        /* \"#utility.yul\":12609:12735   */\n      swap2\n      swap1\n      pop\n      jump\t// out\n        /* \"#utility.yul\":12741:12818   */\n    tag_252:\n        /* \"#utility.yul\":12778:12785   */\n      0x00\n        /* \"#utility.yul\":12807:12812   */\n      dup2\n        /* \"#utility.yul\":12796:12812   */\n      swap1\n      pop\n        /* \"#utility.yul\":12741:12818   */\n      swap2\n      swap1\n      pop\n      jump\t// out\n        /* \"#utility.yul\":12824:12910   */\n    tag_255:\n        /* \"#utility.yul\":12859:12866   */\n      0x00\n        /* \"#utility.yul\":12899:12903   */\n      0xff\n        /* \"#utility.yul\":12892:12897   */\n      dup3\n        /* \"#utility.yul\":12888:12904   */\n      and\n        /* \"#utility.yul\":12877:12904   */\n      swap1\n      pop\n        /* \"#utility.yul\":12824:12910   */\n      swap2\n      swap1\n      pop\n      jump\t// out\n        /* \"#utility.yul\":12916:13149   */\n    tag_126:\n        /* \"#utility.yul\":12955:12958   */\n      0x00\n        /* \"#utility.yul\":12978:13002   */\n      tag_313\n        /* \"#utility.yul\":12996:13001   */\n      dup3\n        /* \"#utility.yul\":12978:13002   */\n      tag_252\n      jump\t// in\n    tag_313:\n        /* \"#utility.yul\":12969:13002   */\n      swap2\n      pop\n        /* \"#utility.yul\":13024:13090   */\n      0xffffffffffffffffffffffffffffffffffffffffffffffffffffffffffffffff\n        /* \"#utility.yul\":13017:13022   */\n      dup3\n        /* \"#utility.yul\":13014:13091   */\n      eq\n        /* \"#utility.yul\":13011:13114   */\n      iszero\n      tag_314\n      jumpi\n        /* \"#utility.yul\":13094:13112   */\n      tag_315\n      tag_304\n      jump\t// in\n    tag_315:\n        /* \"#utility.yul\":13011:13114   */\n    tag_314:\n        /* \"#utility.yul\":13141:13142   */\n      0x01\n        /* \"#utility.yul\":13134:13139   */\n      dup3\n        /* \"#utility.yul\":13130:13143   */\n      add\n        /* \"#utility.yul\":13123:13143   */\n      swap1\n      pop\n        /* \"#utility.yul\":12916:13149   */\n      swap2\n      swap1\n      pop\n      jump\t// out\n        /* \"#utility.yul\":13155:13335   */\n    tag_304:\n        /* \"#utility.yul\":13203:13280   */\n      0x4e487b7100000000000000000000000000000000000000000000000000000000\n        /* \"#utility.yul\":13200:13201   */\n      0x00\n        /* \"#utility.yul\":13193:13281   */\n      mstore\n        /* \"#utility.yul\":13300:13304   */\n      0x11\n        /* \"#utility.yul\":13297:13298   */\n      0x04\n        /* \"#utility.yul\":13290:13305   */\n      mstore\n        /* \"#utility.yul\":13324:13328   */\n      0x24\n        /* \"#utility.yul\":13321:13322   */\n      0x00\n        /* \"#utility.yul\":13314:13329   */\n      revert\n        /* \"#utility.yul\":13464:13581   */\n    tag_171:\n        /* \"#utility.yul\":13573:13574   */\n      0x00\n        /* \"#utility.yul\":13570:13571   */\n      dup1\n        /* \"#utility.yul\":13563:13575   */\n      revert\n        /* \"#utility.yul\":13587:13749   */\n    tag_218:\n        /* \"#utility.yul\":13727:13741   */\n      0x67616d65206973206f7665720000000000000000000000000000000000000000\n        /* \"#utility.yul\":13723:13724   */\n      0x00\n        /* \"#utility.yul\":13715:13721   */\n      dup3\n        /* \"#utility.yul\":13711:13725   */\n      add\n        /* \"#utility.yul\":13704:13742   */\n      mstore\n        /* \"#utility.yul\":13587:13749   */\n      pop\n      jump\t// out\n        /* \"#utility.yul\":13755:13980   */\n    tag_223:\n        /* \"#utility.yul\":13895:13929   */\n      0x4f776e61626c653a206e6577206f776e657220697320746865207a65726f2061\n        /* \"#utility.yul\":13891:13892   */\n      0x00\n        /* \"#utility.yul\":13883:13889   */\n      dup3\n        /* \"#utility.yul\":13879:13893   */\n      add\n        /* \"#utility.yul\":13872:13930   */\n      mstore\n        /* \"#utility.yul\":13964:13972   */\n      0x6464726573730000000000000000000000000000000000000000000000000000\n        /* \"#utility.yul\":13959:13961   */\n      0x20\n        /* \"#utility.yul\":13951:13957   */\n      dup3\n        /* \"#utility.yul\":13947:13962   */\n      add\n        /* \"#utility.yul\":13940:13973   */\n      mstore\n        /* \"#utility.yul\":13755:13980   */\n      pop\n      jump\t// out\n        /* \"#utility.yul\":13986:14150   */\n    tag_228:\n        /* \"#utility.yul\":14126:14142   */\n      0x4e6f7420796f7572207475726e2e000000000000000000000000000000000000\n        /* \"#utility.yul\":14122:14123   */\n      0x00\n        /* \"#utility.yul\":14114:14120   */\n      dup3\n        /* \"#utility.yul\":14110:14124   */\n      add\n        /* \"#utility.yul\":14103:14143   */\n      mstore\n        /* \"#utility.yul\":13986:14150   */\n      pop\n      jump\t// out\n        /* \"#utility.yul\":14156:14318   */\n    tag_233:\n        /* \"#utility.yul\":14296:14310   */\n      0x6d6f766520696e76616c69640000000000000000000000000000000000000000\n        /* \"#utility.yul\":14292:14293   */\n      0x00\n        /* \"#utility.yul\":14284:14290   */\n      dup3\n        /* \"#utility.yul\":14280:14294   */\n      add\n        /* \"#utility.yul\":14273:14311   */\n      mstore\n        /* \"#utility.yul\":14156:14318   */\n      pop\n      jump\t// out\n        /* \"#utility.yul\":14324:14485   */\n    tag_238:\n        /* \"#utility.yul\":14464:14477   */\n      0x53706f742074616b656e21000000000000000000000000000000000000000000\n        /* \"#utility.yul\":14460:14461   */\n      0x00\n        /* \"#utility.yul\":14452:14458   */\n      dup3\n        /* \"#utility.yul\":14448:14462   */\n      add\n        /* \"#utility.yul\":14441:14478   */\n      mstore\n        /* \"#utility.yul\":14324:14485   */\n      pop\n      jump\t// out\n        /* \"#utility.yul\":14491:14673   */\n    tag_243:\n        /* \"#utility.yul\":14631:14665   */\n      0x4f776e61626c653a2063616c6c6572206973206e6f7420746865206f776e6572\n        /* \"#utility.yul\":14627:14628   */\n      0x00\n        /* \"#utility.yul\":14619:14625   */\n      dup3\n        /* \"#utility.yul\":14615:14629   */\n      add\n        /* \"#utility.yul\":14608:14666   */\n      mstore\n        /* \"#utility.yul\":14491:14673   */\n      pop\n      jump\t// out\n        /* \"#utility.yul\":14679:14854   */\n    tag_248:\n        /* \"#utility.yul\":14819:14846   */\n      0x7468697320706c617965722069736e277420706c6179696e6700000000000000\n        /* \"#utility.yul\":14815:14816   */\n      0x00\n        /* \"#utility.yul\":14807:14813   */\n      dup3\n        /* \"#utility.yul\":14803:14817   */\n      add\n        /* \"#utility.yul\":14796:14847   */\n      mstore\n        /* \"#utility.yul\":14679:14854   */\n      pop\n      jump\t// out\n        /* \"#utility.yul\":14860:14982   */\n    tag_163:\n        /* \"#utility.yul\":14933:14957   */\n      tag_328\n        /* \"#utility.yul\":14951:14956   */\n      dup2\n        /* \"#utility.yul\":14933:14957   */\n      tag_194\n      jump\t// in\n    tag_328:\n        /* \"#utility.yul\":14926:14931   */\n      dup2\n        /* \"#utility.yul\":14923:14958   */\n      eq\n        /* \"#utility.yul\":14913:14976   */\n      tag_329\n      jumpi\n        /* \"#utility.yul\":14972:14973   */\n      0x00\n        /* \"#utility.yul\":14969:14970   */\n      dup1\n        /* \"#utility.yul\":14962:14974   */\n      revert\n        /* \"#utility.yul\":14913:14976   */\n    tag_329:\n        /* \"#utility.yul\":14860:14982   */\n      pop\n      jump\t// out\n        /* \"#utility.yul\":14988:15110   */\n    tag_167:\n        /* \"#utility.yul\":15061:15085   */\n      tag_331\n        /* \"#utility.yul\":15079:15084   */\n      dup2\n        /* \"#utility.yul\":15061:15085   */\n      tag_252\n      jump\t// in\n    tag_331:\n        /* \"#utility.yul\":15054:15059   */\n      dup2\n        /* \"#utility.yul\":15051:15086   */\n      eq\n        /* \"#utility.yul\":15041:15104   */\n      tag_332\n      jumpi\n        /* \"#utility.yul\":15100:15101   */\n      0x00\n        /* \"#utility.yul\":15097:15098   */\n      dup1\n        /* \"#utility.yul\":15090:15102   */\n      revert\n        /* \"#utility.yul\":15041:15104   */\n    tag_332:\n        /* \"#utility.yul\":14988:15110   */\n      pop\n      jump\t// out\n\n    auxdata: 0xa26469706673582212202a69574848cd2e5991513ed13fa550a98fc5c6b8daa235935b4a1d69f58b8cbf64736f6c63430008070033\n}\n",
				"bytecode": {
					"linkReferences": {},
					"object": "608060405234801561001057600080fd5b5061002d61002261003260201b60201c565b61003a60201b60201c565b6100fe565b600033905090565b60008060009054906101000a900473ffffffffffffffffffffffffffffffffffffffff169050816000806101000a81548173ffffffffffffffffffffffffffffffffffffffff021916908373ffffffffffffffffffffffffffffffffffffffff1602179055508173ffffffffffffffffffffffffffffffffffffffff168173ffffffffffffffffffffffffffffffffffffffff167f8be0079c531659141344cd1fd0a4f28419497f9722a3daafe3b4186f6b6457e060405160405180910390a35050565b6114c88061010d6000396000f3fe608060405234801561001057600080fd5b50600436106101375760003560e01c8063715018a6116100b8578063bdb337d11161007c578063bdb337d11461030e578063c3fe3e281461032c578063c53391321461034b578063dfbf53ae14610369578063eb23b56b14610387578063f2fde38b146103a357610137565b8063715018a61461028c57806388c9cb3c146102965780638da5cb5b146102b4578063a285c54a146102d2578063bc120879146102f057610137565b806348db5f89116100ff57806348db5f89146101e3578063554693b1146102025780635d248301146102205780635e3568b814610250578063620633cb1461026e57610137565b8063041a84861461013c57806311bb15371461015a5780631a8a8dd81461017857806322f976ff14610197578063393f7eb6146101c7575b600080fd5b6101446103bf565b6040516101519190611177565b60405180910390f35b6101626103c5565b60405161016f9190610fc4565b60405180910390f35b6101806103eb565b60405161018e929190611008565b60405180910390f35b6101b160048036038101906101ac9190610da1565b61042a565b6040516101be9190611192565b60405180910390f35b6101e160048036038101906101dc9190610de1565b61046d565b005b6101eb6107ae565b6040516101f9929190611008565b60405180910390f35b61020a6107ed565b6040516102179190611177565b60405180910390f35b61023a60048036038101906102359190610de1565b6107f3565b6040516102479190610fc4565b60405180910390f35b610258610832565b6040516102659190611177565b60405180910390f35b610276610838565b604051610283919061105a565b60405180910390f35b6102946108f3565b005b61029e610907565b6040516102ab919061107c565b60405180910390f35b6102bc61091a565b6040516102c99190610fc4565b60405180910390f35b6102da610943565b6040516102e79190610fc4565b60405180910390f35b6102f8610969565b6040516103059190611177565b60405180910390f35b61031661096f565b604051610323919061107c565b60405180910390f35b610334610982565b604051610342929190611031565b60405180910390f35b6103536109b4565b6040516103609190610fc4565b60405180910390f35b6103716109da565b60405161037e9190610fc4565b60405180910390f35b6103a1600480360381019061039c9190610d61565b610a00565b005b6103bd60048036038101906103b89190610d34565b610b3c565b005b60085481565b600260009054906101000a900473ffffffffffffffffffffffffffffffffffffffff1681565b600d8060000160009054906101000a900473ffffffffffffffffffffffffffffffffffffffff16908060000160149054906101000a900460ff16905082565b600e602052816000526040600020818154811061044657600080fd5b9060005260206000209060209182820401919006915091509054906101000a900460ff1681565b600460149054906101000a900460ff16156104bd576040517f08c379a00000000000000000000000000000000000000000000000000000000081526004016104b490611097565b60405180910390fd5b600654811415610502576040517f08c379a00000000000000000000000000000000000000000000000000000000081526004016104f990611117565b60405180910390fd5b60018110158015610514575060098111155b610553576040517f08c379a000000000000000000000000000000000000000000000000000000000815260040161054a906110f7565b60405180910390fd5b600160009054906101000a900473ffffffffffffffffffffffffffffffffffffffff1673ffffffffffffffffffffffffffffffffffffffff163373ffffffffffffffffffffffffffffffffffffffff1614806105fc5750600260009054906101000a900473ffffffffffffffffffffffffffffffffffffffff1673ffffffffffffffffffffffffffffffffffffffff163373ffffffffffffffffffffffffffffffffffffffff16145b61063b576040517f08c379a000000000000000000000000000000000000000000000000000000000815260040161063290611157565b60405180910390fd5b600360009054906101000a900473ffffffffffffffffffffffffffffffffffffffff1673ffffffffffffffffffffffffffffffffffffffff163373ffffffffffffffffffffffffffffffffffffffff1614156106cc576040517f08c379a00000000000000000000000000000000000000000000000000000000081526004016106c3906110d7565b60405180910390fd5b42600881905550601e6008546106e291906111f7565b600781905550600a339080600181540180825580915050600190039060005260206000200160009091909190916101000a81548173ffffffffffffffffffffffffffffffffffffffff021916908373ffffffffffffffffffffffffffffffffffffffff16021790555033600360006101000a81548173ffffffffffffffffffffffffffffffffffffffff021916908373ffffffffffffffffffffffffffffffffffffffff16021790555080600681905550600560008154809291906107a6906112a2565b919050555050565b600b8060000160009054906101000a900473ffffffffffffffffffffffffffffffffffffffff16908060000160149054906101000a900460ff16905082565b60065481565b600a818154811061080357600080fd5b906000526020600020016000915054906101000a900473ffffffffffffffffffffffffffffffffffffffff1681565b60075481565b6060600e60003373ffffffffffffffffffffffffffffffffffffffff1673ffffffffffffffffffffffffffffffffffffffff1681526020019081526020016000208054806020026020016040519081016040528092919081815260200182805480156108e957602002820191906000526020600020906000905b82829054906101000a900460ff1660ff16815260200190600101906020826000010492830192600103820291508084116108b25790505b5050505050905090565b6108fb610bc0565b6109056000610c3e565b565b600960009054906101000a900460ff1681565b60008060009054906101000a900473ffffffffffffffffffffffffffffffffffffffff16905090565b600160009054906101000a900473ffffffffffffffffffffffffffffffffffffffff1681565b60055481565b600460149054906101000a900460ff1681565b600f8060000160009054906101000a900473ffffffffffffffffffffffffffffffffffffffff16908060010154905082565b600360009054906101000a900473ffffffffffffffffffffffffffffffffffffffff1681565b600460009054906101000a900473ffffffffffffffffffffffffffffffffffffffff1681565b8073ffffffffffffffffffffffffffffffffffffffff168273ffffffffffffffffffffffffffffffffffffffff161415610a3957600080fd5b81600160006101000a81548173ffffffffffffffffffffffffffffffffffffffff021916908373ffffffffffffffffffffffffffffffffffffffff16021790555080600260006101000a81548173ffffffffffffffffffffffffffffffffffffffff021916908373ffffffffffffffffffffffffffffffffffffffff1602179055507f55b25d7f9b5bf8ea934ba7079455d2ba00c68ea7e66c13695275f6b75b95e5f8600160009054906101000a900473ffffffffffffffffffffffffffffffffffffffff16600260009054906101000a900473ffffffffffffffffffffffffffffffffffffffff16604051610b30929190610fdf565b60405180910390a15050565b610b44610bc0565b600073ffffffffffffffffffffffffffffffffffffffff168173ffffffffffffffffffffffffffffffffffffffff161415610bb4576040517f08c379a0000000000000000000000000000000000000000000000000000000008152600401610bab906110b7565b60405180910390fd5b610bbd81610c3e565b50565b610bc8610d02565b73ffffffffffffffffffffffffffffffffffffffff16610be661091a565b73ffffffffffffffffffffffffffffffffffffffff1614610c3c576040517f08c379a0000000000000000000000000000000000000000000000000000000008152600401610c3390611137565b60405180910390fd5b565b60008060009054906101000a900473ffffffffffffffffffffffffffffffffffffffff169050816000806101000a81548173ffffffffffffffffffffffffffffffffffffffff021916908373ffffffffffffffffffffffffffffffffffffffff1602179055508173ffffffffffffffffffffffffffffffffffffffff168173ffffffffffffffffffffffffffffffffffffffff167f8be0079c531659141344cd1fd0a4f28419497f9722a3daafe3b4186f6b6457e060405160405180910390a35050565b600033905090565b600081359050610d1981611464565b92915050565b600081359050610d2e8161147b565b92915050565b600060208284031215610d4a57610d4961131a565b5b6000610d5884828501610d0a565b91505092915050565b60008060408385031215610d7857610d7761131a565b5b6000610d8685828601610d0a565b9250506020610d9785828601610d0a565b9150509250929050565b60008060408385031215610db857610db761131a565b5b6000610dc685828601610d0a565b9250506020610dd785828601610d1f565b9150509250929050565b600060208284031215610df757610df661131a565b5b6000610e0584828501610d1f565b91505092915050565b6000610e1a8383610fa6565b60208301905092915050565b610e2f8161124d565b82525050565b6000610e40826111bd565b610e4a81856111d5565b9350610e55836111ad565b8060005b83811015610e86578151610e6d8882610e0e565b9750610e78836111c8565b925050600181019050610e59565b5085935050505092915050565b610e9c8161125f565b82525050565b6000610eaf600c836111e6565b9150610eba8261131f565b602082019050919050565b6000610ed26026836111e6565b9150610edd82611348565b604082019050919050565b6000610ef5600e836111e6565b9150610f0082611397565b602082019050919050565b6000610f18600c836111e6565b9150610f23826113c0565b602082019050919050565b6000610f3b600b836111e6565b9150610f46826113e9565b602082019050919050565b6000610f5e6020836111e6565b9150610f6982611412565b602082019050919050565b6000610f816019836111e6565b9150610f8c8261143b565b602082019050919050565b610fa08161128b565b82525050565b610faf81611295565b82525050565b610fbe81611295565b82525050565b6000602082019050610fd96000830184610e26565b92915050565b6000604082019050610ff46000830185610e26565b6110016020830184610e26565b9392505050565b600060408201905061101d6000830185610e26565b61102a6020830184610e93565b9392505050565b60006040820190506110466000830185610e26565b6110536020830184610f97565b9392505050565b600060208201905081810360008301526110748184610e35565b905092915050565b60006020820190506110916000830184610e93565b92915050565b600060208201905081810360008301526110b081610ea2565b9050919050565b600060208201905081810360008301526110d081610ec5565b9050919050565b600060208201905081810360008301526110f081610ee8565b9050919050565b6000602082019050818103600083015261111081610f0b565b9050919050565b6000602082019050818103600083015261113081610f2e565b9050919050565b6000602082019050818103600083015261115081610f51565b9050919050565b6000602082019050818103600083015261117081610f74565b9050919050565b600060208201905061118c6000830184610f97565b92915050565b60006020820190506111a76000830184610fb5565b92915050565b6000819050602082019050919050565b600081519050919050565b6000602082019050919050565b600082825260208201905092915050565b600082825260208201905092915050565b60006112028261128b565b915061120d8361128b565b9250827fffffffffffffffffffffffffffffffffffffffffffffffffffffffffffffffff03821115611242576112416112eb565b5b828201905092915050565b60006112588261126b565b9050919050565b60008115159050919050565b600073ffffffffffffffffffffffffffffffffffffffff82169050919050565b6000819050919050565b600060ff82169050919050565b60006112ad8261128b565b91507fffffffffffffffffffffffffffffffffffffffffffffffffffffffffffffffff8214156112e0576112df6112eb565b5b600182019050919050565b7f4e487b7100000000000000000000000000000000000000000000000000000000600052601160045260246000fd5b600080fd5b7f67616d65206973206f7665720000000000000000000000000000000000000000600082015250565b7f4f776e61626c653a206e6577206f776e657220697320746865207a65726f206160008201527f6464726573730000000000000000000000000000000000000000000000000000602082015250565b7f4e6f7420796f7572207475726e2e000000000000000000000000000000000000600082015250565b7f6d6f766520696e76616c69640000000000000000000000000000000000000000600082015250565b7f53706f742074616b656e21000000000000000000000000000000000000000000600082015250565b7f4f776e61626c653a2063616c6c6572206973206e6f7420746865206f776e6572600082015250565b7f7468697320706c617965722069736e277420706c6179696e6700000000000000600082015250565b61146d8161124d565b811461147857600080fd5b50565b6114848161128b565b811461148f57600080fd5b5056fea26469706673582212202a69574848cd2e5991513ed13fa550a98fc5c6b8daa235935b4a1d69f58b8cbf64736f6c63430008070033",
					"opcodes": "PUSH1 0x80 PUSH1 0x40 MSTORE CALLVALUE DUP1 ISZERO PUSH2 0x10 JUMPI PUSH1 0x0 DUP1 REVERT JUMPDEST POP PUSH2 0x2D PUSH2 0x22 PUSH2 0x32 PUSH1 0x20 SHL PUSH1 0x20 SHR JUMP JUMPDEST PUSH2 0x3A PUSH1 0x20 SHL PUSH1 0x20 SHR JUMP JUMPDEST PUSH2 0xFE JUMP JUMPDEST PUSH1 0x0 CALLER SWAP1 POP SWAP1 JUMP JUMPDEST PUSH1 0x0 DUP1 PUSH1 0x0 SWAP1 SLOAD SWAP1 PUSH2 0x100 EXP SWAP1 DIV PUSH20 0xFFFFFFFFFFFFFFFFFFFFFFFFFFFFFFFFFFFFFFFF AND SWAP1 POP DUP2 PUSH1 0x0 DUP1 PUSH2 0x100 EXP DUP2 SLOAD DUP2 PUSH20 0xFFFFFFFFFFFFFFFFFFFFFFFFFFFFFFFFFFFFFFFF MUL NOT AND SWAP1 DUP4 PUSH20 0xFFFFFFFFFFFFFFFFFFFFFFFFFFFFFFFFFFFFFFFF AND MUL OR SWAP1 SSTORE POP DUP2 PUSH20 0xFFFFFFFFFFFFFFFFFFFFFFFFFFFFFFFFFFFFFFFF AND DUP2 PUSH20 0xFFFFFFFFFFFFFFFFFFFFFFFFFFFFFFFFFFFFFFFF AND PUSH32 0x8BE0079C531659141344CD1FD0A4F28419497F9722A3DAAFE3B4186F6B6457E0 PUSH1 0x40 MLOAD PUSH1 0x40 MLOAD DUP1 SWAP2 SUB SWAP1 LOG3 POP POP JUMP JUMPDEST PUSH2 0x14C8 DUP1 PUSH2 0x10D PUSH1 0x0 CODECOPY PUSH1 0x0 RETURN INVALID PUSH1 0x80 PUSH1 0x40 MSTORE CALLVALUE DUP1 ISZERO PUSH2 0x10 JUMPI PUSH1 0x0 DUP1 REVERT JUMPDEST POP PUSH1 0x4 CALLDATASIZE LT PUSH2 0x137 JUMPI PUSH1 0x0 CALLDATALOAD PUSH1 0xE0 SHR DUP1 PUSH4 0x715018A6 GT PUSH2 0xB8 JUMPI DUP1 PUSH4 0xBDB337D1 GT PUSH2 0x7C JUMPI DUP1 PUSH4 0xBDB337D1 EQ PUSH2 0x30E JUMPI DUP1 PUSH4 0xC3FE3E28 EQ PUSH2 0x32C JUMPI DUP1 PUSH4 0xC5339132 EQ PUSH2 0x34B JUMPI DUP1 PUSH4 0xDFBF53AE EQ PUSH2 0x369 JUMPI DUP1 PUSH4 0xEB23B56B EQ PUSH2 0x387 JUMPI DUP1 PUSH4 0xF2FDE38B EQ PUSH2 0x3A3 JUMPI PUSH2 0x137 JUMP JUMPDEST DUP1 PUSH4 0x715018A6 EQ PUSH2 0x28C JUMPI DUP1 PUSH4 0x88C9CB3C EQ PUSH2 0x296 JUMPI DUP1 PUSH4 0x8DA5CB5B EQ PUSH2 0x2B4 JUMPI DUP1 PUSH4 0xA285C54A EQ PUSH2 0x2D2 JUMPI DUP1 PUSH4 0xBC120879 EQ PUSH2 0x2F0 JUMPI PUSH2 0x137 JUMP JUMPDEST DUP1 PUSH4 0x48DB5F89 GT PUSH2 0xFF JUMPI DUP1 PUSH4 0x48DB5F89 EQ PUSH2 0x1E3 JUMPI DUP1 PUSH4 0x554693B1 EQ PUSH2 0x202 JUMPI DUP1 PUSH4 0x5D248301 EQ PUSH2 0x220 JUMPI DUP1 PUSH4 0x5E3568B8 EQ PUSH2 0x250 JUMPI DUP1 PUSH4 0x620633CB EQ PUSH2 0x26E JUMPI PUSH2 0x137 JUMP JUMPDEST DUP1 PUSH4 0x41A8486 EQ PUSH2 0x13C JUMPI DUP1 PUSH4 0x11BB1537 EQ PUSH2 0x15A JUMPI DUP1 PUSH4 0x1A8A8DD8 EQ PUSH2 0x178 JUMPI DUP1 PUSH4 0x22F976FF EQ PUSH2 0x197 JUMPI DUP1 PUSH4 0x393F7EB6 EQ PUSH2 0x1C7 JUMPI JUMPDEST PUSH1 0x0 DUP1 REVERT JUMPDEST PUSH2 0x144 PUSH2 0x3BF JUMP JUMPDEST PUSH1 0x40 MLOAD PUSH2 0x151 SWAP2 SWAP1 PUSH2 0x1177 JUMP JUMPDEST PUSH1 0x40 MLOAD DUP1 SWAP2 SUB SWAP1 RETURN JUMPDEST PUSH2 0x162 PUSH2 0x3C5 JUMP JUMPDEST PUSH1 0x40 MLOAD PUSH2 0x16F SWAP2 SWAP1 PUSH2 0xFC4 JUMP JUMPDEST PUSH1 0x40 MLOAD DUP1 SWAP2 SUB SWAP1 RETURN JUMPDEST PUSH2 0x180 PUSH2 0x3EB JUMP JUMPDEST PUSH1 0x40 MLOAD PUSH2 0x18E SWAP3 SWAP2 SWAP1 PUSH2 0x1008 JUMP JUMPDEST PUSH1 0x40 MLOAD DUP1 SWAP2 SUB SWAP1 RETURN JUMPDEST PUSH2 0x1B1 PUSH1 0x4 DUP1 CALLDATASIZE SUB DUP2 ADD SWAP1 PUSH2 0x1AC SWAP2 SWAP1 PUSH2 0xDA1 JUMP JUMPDEST PUSH2 0x42A JUMP JUMPDEST PUSH1 0x40 MLOAD PUSH2 0x1BE SWAP2 SWAP1 PUSH2 0x1192 JUMP JUMPDEST PUSH1 0x40 MLOAD DUP1 SWAP2 SUB SWAP1 RETURN JUMPDEST PUSH2 0x1E1 PUSH1 0x4 DUP1 CALLDATASIZE SUB DUP2 ADD SWAP1 PUSH2 0x1DC SWAP2 SWAP1 PUSH2 0xDE1 JUMP JUMPDEST PUSH2 0x46D JUMP JUMPDEST STOP JUMPDEST PUSH2 0x1EB PUSH2 0x7AE JUMP JUMPDEST PUSH1 0x40 MLOAD PUSH2 0x1F9 SWAP3 SWAP2 SWAP1 PUSH2 0x1008 JUMP JUMPDEST PUSH1 0x40 MLOAD DUP1 SWAP2 SUB SWAP1 RETURN JUMPDEST PUSH2 0x20A PUSH2 0x7ED JUMP JUMPDEST PUSH1 0x40 MLOAD PUSH2 0x217 SWAP2 SWAP1 PUSH2 0x1177 JUMP JUMPDEST PUSH1 0x40 MLOAD DUP1 SWAP2 SUB SWAP1 RETURN JUMPDEST PUSH2 0x23A PUSH1 0x4 DUP1 CALLDATASIZE SUB DUP2 ADD SWAP1 PUSH2 0x235 SWAP2 SWAP1 PUSH2 0xDE1 JUMP JUMPDEST PUSH2 0x7F3 JUMP JUMPDEST PUSH1 0x40 MLOAD PUSH2 0x247 SWAP2 SWAP1 PUSH2 0xFC4 JUMP JUMPDEST PUSH1 0x40 MLOAD DUP1 SWAP2 SUB SWAP1 RETURN JUMPDEST PUSH2 0x258 PUSH2 0x832 JUMP JUMPDEST PUSH1 0x40 MLOAD PUSH2 0x265 SWAP2 SWAP1 PUSH2 0x1177 JUMP JUMPDEST PUSH1 0x40 MLOAD DUP1 SWAP2 SUB SWAP1 RETURN JUMPDEST PUSH2 0x276 PUSH2 0x838 JUMP JUMPDEST PUSH1 0x40 MLOAD PUSH2 0x283 SWAP2 SWAP1 PUSH2 0x105A JUMP JUMPDEST PUSH1 0x40 MLOAD DUP1 SWAP2 SUB SWAP1 RETURN JUMPDEST PUSH2 0x294 PUSH2 0x8F3 JUMP JUMPDEST STOP JUMPDEST PUSH2 0x29E PUSH2 0x907 JUMP JUMPDEST PUSH1 0x40 MLOAD PUSH2 0x2AB SWAP2 SWAP1 PUSH2 0x107C JUMP JUMPDEST PUSH1 0x40 MLOAD DUP1 SWAP2 SUB SWAP1 RETURN JUMPDEST PUSH2 0x2BC PUSH2 0x91A JUMP JUMPDEST PUSH1 0x40 MLOAD PUSH2 0x2C9 SWAP2 SWAP1 PUSH2 0xFC4 JUMP JUMPDEST PUSH1 0x40 MLOAD DUP1 SWAP2 SUB SWAP1 RETURN JUMPDEST PUSH2 0x2DA PUSH2 0x943 JUMP JUMPDEST PUSH1 0x40 MLOAD PUSH2 0x2E7 SWAP2 SWAP1 PUSH2 0xFC4 JUMP JUMPDEST PUSH1 0x40 MLOAD DUP1 SWAP2 SUB SWAP1 RETURN JUMPDEST PUSH2 0x2F8 PUSH2 0x969 JUMP JUMPDEST PUSH1 0x40 MLOAD PUSH2 0x305 SWAP2 SWAP1 PUSH2 0x1177 JUMP JUMPDEST PUSH1 0x40 MLOAD DUP1 SWAP2 SUB SWAP1 RETURN JUMPDEST PUSH2 0x316 PUSH2 0x96F JUMP JUMPDEST PUSH1 0x40 MLOAD PUSH2 0x323 SWAP2 SWAP1 PUSH2 0x107C JUMP JUMPDEST PUSH1 0x40 MLOAD DUP1 SWAP2 SUB SWAP1 RETURN JUMPDEST PUSH2 0x334 PUSH2 0x982 JUMP JUMPDEST PUSH1 0x40 MLOAD PUSH2 0x342 SWAP3 SWAP2 SWAP1 PUSH2 0x1031 JUMP JUMPDEST PUSH1 0x40 MLOAD DUP1 SWAP2 SUB SWAP1 RETURN JUMPDEST PUSH2 0x353 PUSH2 0x9B4 JUMP JUMPDEST PUSH1 0x40 MLOAD PUSH2 0x360 SWAP2 SWAP1 PUSH2 0xFC4 JUMP JUMPDEST PUSH1 0x40 MLOAD DUP1 SWAP2 SUB SWAP1 RETURN JUMPDEST PUSH2 0x371 PUSH2 0x9DA JUMP JUMPDEST PUSH1 0x40 MLOAD PUSH2 0x37E SWAP2 SWAP1 PUSH2 0xFC4 JUMP JUMPDEST PUSH1 0x40 MLOAD DUP1 SWAP2 SUB SWAP1 RETURN JUMPDEST PUSH2 0x3A1 PUSH1 0x4 DUP1 CALLDATASIZE SUB DUP2 ADD SWAP1 PUSH2 0x39C SWAP2 SWAP1 PUSH2 0xD61 JUMP JUMPDEST PUSH2 0xA00 JUMP JUMPDEST STOP JUMPDEST PUSH2 0x3BD PUSH1 0x4 DUP1 CALLDATASIZE SUB DUP2 ADD SWAP1 PUSH2 0x3B8 SWAP2 SWAP1 PUSH2 0xD34 JUMP JUMPDEST PUSH2 0xB3C JUMP JUMPDEST STOP JUMPDEST PUSH1 0x8 SLOAD DUP2 JUMP JUMPDEST PUSH1 0x2 PUSH1 0x0 SWAP1 SLOAD SWAP1 PUSH2 0x100 EXP SWAP1 DIV PUSH20 0xFFFFFFFFFFFFFFFFFFFFFFFFFFFFFFFFFFFFFFFF AND DUP2 JUMP JUMPDEST PUSH1 0xD DUP1 PUSH1 0x0 ADD PUSH1 0x0 SWAP1 SLOAD SWAP1 PUSH2 0x100 EXP SWAP1 DIV PUSH20 0xFFFFFFFFFFFFFFFFFFFFFFFFFFFFFFFFFFFFFFFF AND SWAP1 DUP1 PUSH1 0x0 ADD PUSH1 0x14 SWAP1 SLOAD SWAP1 PUSH2 0x100 EXP SWAP1 DIV PUSH1 0xFF AND SWAP1 POP DUP3 JUMP JUMPDEST PUSH1 0xE PUSH1 0x20 MSTORE DUP2 PUSH1 0x0 MSTORE PUSH1 0x40 PUSH1 0x0 KECCAK256 DUP2 DUP2 SLOAD DUP2 LT PUSH2 0x446 JUMPI PUSH1 0x0 DUP1 REVERT JUMPDEST SWAP1 PUSH1 0x0 MSTORE PUSH1 0x20 PUSH1 0x0 KECCAK256 SWAP1 PUSH1 0x20 SWAP2 DUP3 DUP3 DIV ADD SWAP2 SWAP1 MOD SWAP2 POP SWAP2 POP SWAP1 SLOAD SWAP1 PUSH2 0x100 EXP SWAP1 DIV PUSH1 0xFF AND DUP2 JUMP JUMPDEST PUSH1 0x4 PUSH1 0x14 SWAP1 SLOAD SWAP1 PUSH2 0x100 EXP SWAP1 DIV PUSH1 0xFF AND ISZERO PUSH2 0x4BD JUMPI PUSH1 0x40 MLOAD PUSH32 0x8C379A000000000000000000000000000000000000000000000000000000000 DUP2 MSTORE PUSH1 0x4 ADD PUSH2 0x4B4 SWAP1 PUSH2 0x1097 JUMP JUMPDEST PUSH1 0x40 MLOAD DUP1 SWAP2 SUB SWAP1 REVERT JUMPDEST PUSH1 0x6 SLOAD DUP2 EQ ISZERO PUSH2 0x502 JUMPI PUSH1 0x40 MLOAD PUSH32 0x8C379A000000000000000000000000000000000000000000000000000000000 DUP2 MSTORE PUSH1 0x4 ADD PUSH2 0x4F9 SWAP1 PUSH2 0x1117 JUMP JUMPDEST PUSH1 0x40 MLOAD DUP1 SWAP2 SUB SWAP1 REVERT JUMPDEST PUSH1 0x1 DUP2 LT ISZERO DUP1 ISZERO PUSH2 0x514 JUMPI POP PUSH1 0x9 DUP2 GT ISZERO JUMPDEST PUSH2 0x553 JUMPI PUSH1 0x40 MLOAD PUSH32 0x8C379A000000000000000000000000000000000000000000000000000000000 DUP2 MSTORE PUSH1 0x4 ADD PUSH2 0x54A SWAP1 PUSH2 0x10F7 JUMP JUMPDEST PUSH1 0x40 MLOAD DUP1 SWAP2 SUB SWAP1 REVERT JUMPDEST PUSH1 0x1 PUSH1 0x0 SWAP1 SLOAD SWAP1 PUSH2 0x100 EXP SWAP1 DIV PUSH20 0xFFFFFFFFFFFFFFFFFFFFFFFFFFFFFFFFFFFFFFFF AND PUSH20 0xFFFFFFFFFFFFFFFFFFFFFFFFFFFFFFFFFFFFFFFF AND CALLER PUSH20 0xFFFFFFFFFFFFFFFFFFFFFFFFFFFFFFFFFFFFFFFF AND EQ DUP1 PUSH2 0x5FC JUMPI POP PUSH1 0x2 PUSH1 0x0 SWAP1 SLOAD SWAP1 PUSH2 0x100 EXP SWAP1 DIV PUSH20 0xFFFFFFFFFFFFFFFFFFFFFFFFFFFFFFFFFFFFFFFF AND PUSH20 0xFFFFFFFFFFFFFFFFFFFFFFFFFFFFFFFFFFFFFFFF AND CALLER PUSH20 0xFFFFFFFFFFFFFFFFFFFFFFFFFFFFFFFFFFFFFFFF AND EQ JUMPDEST PUSH2 0x63B JUMPI PUSH1 0x40 MLOAD PUSH32 0x8C379A000000000000000000000000000000000000000000000000000000000 DUP2 MSTORE PUSH1 0x4 ADD PUSH2 0x632 SWAP1 PUSH2 0x1157 JUMP JUMPDEST PUSH1 0x40 MLOAD DUP1 SWAP2 SUB SWAP1 REVERT JUMPDEST PUSH1 0x3 PUSH1 0x0 SWAP1 SLOAD SWAP1 PUSH2 0x100 EXP SWAP1 DIV PUSH20 0xFFFFFFFFFFFFFFFFFFFFFFFFFFFFFFFFFFFFFFFF AND PUSH20 0xFFFFFFFFFFFFFFFFFFFFFFFFFFFFFFFFFFFFFFFF AND CALLER PUSH20 0xFFFFFFFFFFFFFFFFFFFFFFFFFFFFFFFFFFFFFFFF AND EQ ISZERO PUSH2 0x6CC JUMPI PUSH1 0x40 MLOAD PUSH32 0x8C379A000000000000000000000000000000000000000000000000000000000 DUP2 MSTORE PUSH1 0x4 ADD PUSH2 0x6C3 SWAP1 PUSH2 0x10D7 JUMP JUMPDEST PUSH1 0x40 MLOAD DUP1 SWAP2 SUB SWAP1 REVERT JUMPDEST TIMESTAMP PUSH1 0x8 DUP2 SWAP1 SSTORE POP PUSH1 0x1E PUSH1 0x8 SLOAD PUSH2 0x6E2 SWAP2 SWAP1 PUSH2 0x11F7 JUMP JUMPDEST PUSH1 0x7 DUP2 SWAP1 SSTORE POP PUSH1 0xA CALLER SWAP1 DUP1 PUSH1 0x1 DUP2 SLOAD ADD DUP1 DUP3 SSTORE DUP1 SWAP2 POP POP PUSH1 0x1 SWAP1 SUB SWAP1 PUSH1 0x0 MSTORE PUSH1 0x20 PUSH1 0x0 KECCAK256 ADD PUSH1 0x0 SWAP1 SWAP2 SWAP1 SWAP2 SWAP1 SWAP2 PUSH2 0x100 EXP DUP2 SLOAD DUP2 PUSH20 0xFFFFFFFFFFFFFFFFFFFFFFFFFFFFFFFFFFFFFFFF MUL NOT AND SWAP1 DUP4 PUSH20 0xFFFFFFFFFFFFFFFFFFFFFFFFFFFFFFFFFFFFFFFF AND MUL OR SWAP1 SSTORE POP CALLER PUSH1 0x3 PUSH1 0x0 PUSH2 0x100 EXP DUP2 SLOAD DUP2 PUSH20 0xFFFFFFFFFFFFFFFFFFFFFFFFFFFFFFFFFFFFFFFF MUL NOT AND SWAP1 DUP4 PUSH20 0xFFFFFFFFFFFFFFFFFFFFFFFFFFFFFFFFFFFFFFFF AND MUL OR SWAP1 SSTORE POP DUP1 PUSH1 0x6 DUP2 SWAP1 SSTORE POP PUSH1 0x5 PUSH1 0x0 DUP2 SLOAD DUP1 SWAP3 SWAP2 SWAP1 PUSH2 0x7A6 SWAP1 PUSH2 0x12A2 JUMP JUMPDEST SWAP2 SWAP1 POP SSTORE POP POP JUMP JUMPDEST PUSH1 0xB DUP1 PUSH1 0x0 ADD PUSH1 0x0 SWAP1 SLOAD SWAP1 PUSH2 0x100 EXP SWAP1 DIV PUSH20 0xFFFFFFFFFFFFFFFFFFFFFFFFFFFFFFFFFFFFFFFF AND SWAP1 DUP1 PUSH1 0x0 ADD PUSH1 0x14 SWAP1 SLOAD SWAP1 PUSH2 0x100 EXP SWAP1 DIV PUSH1 0xFF AND SWAP1 POP DUP3 JUMP JUMPDEST PUSH1 0x6 SLOAD DUP2 JUMP JUMPDEST PUSH1 0xA DUP2 DUP2 SLOAD DUP2 LT PUSH2 0x803 JUMPI PUSH1 0x0 DUP1 REVERT JUMPDEST SWAP1 PUSH1 0x0 MSTORE PUSH1 0x20 PUSH1 0x0 KECCAK256 ADD PUSH1 0x0 SWAP2 POP SLOAD SWAP1 PUSH2 0x100 EXP SWAP1 DIV PUSH20 0xFFFFFFFFFFFFFFFFFFFFFFFFFFFFFFFFFFFFFFFF AND DUP2 JUMP JUMPDEST PUSH1 0x7 SLOAD DUP2 JUMP JUMPDEST PUSH1 0x60 PUSH1 0xE PUSH1 0x0 CALLER PUSH20 0xFFFFFFFFFFFFFFFFFFFFFFFFFFFFFFFFFFFFFFFF AND PUSH20 0xFFFFFFFFFFFFFFFFFFFFFFFFFFFFFFFFFFFFFFFF AND DUP2 MSTORE PUSH1 0x20 ADD SWAP1 DUP2 MSTORE PUSH1 0x20 ADD PUSH1 0x0 KECCAK256 DUP1 SLOAD DUP1 PUSH1 0x20 MUL PUSH1 0x20 ADD PUSH1 0x40 MLOAD SWAP1 DUP2 ADD PUSH1 0x40 MSTORE DUP1 SWAP3 SWAP2 SWAP1 DUP2 DUP2 MSTORE PUSH1 0x20 ADD DUP3 DUP1 SLOAD DUP1 ISZERO PUSH2 0x8E9 JUMPI PUSH1 0x20 MUL DUP3 ADD SWAP2 SWAP1 PUSH1 0x0 MSTORE PUSH1 0x20 PUSH1 0x0 KECCAK256 SWAP1 PUSH1 0x0 SWAP1 JUMPDEST DUP3 DUP3 SWAP1 SLOAD SWAP1 PUSH2 0x100 EXP SWAP1 DIV PUSH1 0xFF AND PUSH1 0xFF AND DUP2 MSTORE PUSH1 0x20 ADD SWAP1 PUSH1 0x1 ADD SWAP1 PUSH1 0x20 DUP3 PUSH1 0x0 ADD DIV SWAP3 DUP4 ADD SWAP3 PUSH1 0x1 SUB DUP3 MUL SWAP2 POP DUP1 DUP5 GT PUSH2 0x8B2 JUMPI SWAP1 POP JUMPDEST POP POP POP POP POP SWAP1 POP SWAP1 JUMP JUMPDEST PUSH2 0x8FB PUSH2 0xBC0 JUMP JUMPDEST PUSH2 0x905 PUSH1 0x0 PUSH2 0xC3E JUMP JUMPDEST JUMP JUMPDEST PUSH1 0x9 PUSH1 0x0 SWAP1 SLOAD SWAP1 PUSH2 0x100 EXP SWAP1 DIV PUSH1 0xFF AND DUP2 JUMP JUMPDEST PUSH1 0x0 DUP1 PUSH1 0x0 SWAP1 SLOAD SWAP1 PUSH2 0x100 EXP SWAP1 DIV PUSH20 0xFFFFFFFFFFFFFFFFFFFFFFFFFFFFFFFFFFFFFFFF AND SWAP1 POP SWAP1 JUMP JUMPDEST PUSH1 0x1 PUSH1 0x0 SWAP1 SLOAD SWAP1 PUSH2 0x100 EXP SWAP1 DIV PUSH20 0xFFFFFFFFFFFFFFFFFFFFFFFFFFFFFFFFFFFFFFFF AND DUP2 JUMP JUMPDEST PUSH1 0x5 SLOAD DUP2 JUMP JUMPDEST PUSH1 0x4 PUSH1 0x14 SWAP1 SLOAD SWAP1 PUSH2 0x100 EXP SWAP1 DIV PUSH1 0xFF AND DUP2 JUMP JUMPDEST PUSH1 0xF DUP1 PUSH1 0x0 ADD PUSH1 0x0 SWAP1 SLOAD SWAP1 PUSH2 0x100 EXP SWAP1 DIV PUSH20 0xFFFFFFFFFFFFFFFFFFFFFFFFFFFFFFFFFFFFFFFF AND SWAP1 DUP1 PUSH1 0x1 ADD SLOAD SWAP1 POP DUP3 JUMP JUMPDEST PUSH1 0x3 PUSH1 0x0 SWAP1 SLOAD SWAP1 PUSH2 0x100 EXP SWAP1 DIV PUSH20 0xFFFFFFFFFFFFFFFFFFFFFFFFFFFFFFFFFFFFFFFF AND DUP2 JUMP JUMPDEST PUSH1 0x4 PUSH1 0x0 SWAP1 SLOAD SWAP1 PUSH2 0x100 EXP SWAP1 DIV PUSH20 0xFFFFFFFFFFFFFFFFFFFFFFFFFFFFFFFFFFFFFFFF AND DUP2 JUMP JUMPDEST DUP1 PUSH20 0xFFFFFFFFFFFFFFFFFFFFFFFFFFFFFFFFFFFFFFFF AND DUP3 PUSH20 0xFFFFFFFFFFFFFFFFFFFFFFFFFFFFFFFFFFFFFFFF AND EQ ISZERO PUSH2 0xA39 JUMPI PUSH1 0x0 DUP1 REVERT JUMPDEST DUP2 PUSH1 0x1 PUSH1 0x0 PUSH2 0x100 EXP DUP2 SLOAD DUP2 PUSH20 0xFFFFFFFFFFFFFFFFFFFFFFFFFFFFFFFFFFFFFFFF MUL NOT AND SWAP1 DUP4 PUSH20 0xFFFFFFFFFFFFFFFFFFFFFFFFFFFFFFFFFFFFFFFF AND MUL OR SWAP1 SSTORE POP DUP1 PUSH1 0x2 PUSH1 0x0 PUSH2 0x100 EXP DUP2 SLOAD DUP2 PUSH20 0xFFFFFFFFFFFFFFFFFFFFFFFFFFFFFFFFFFFFFFFF MUL NOT AND SWAP1 DUP4 PUSH20 0xFFFFFFFFFFFFFFFFFFFFFFFFFFFFFFFFFFFFFFFF AND MUL OR SWAP1 SSTORE POP PUSH32 0x55B25D7F9B5BF8EA934BA7079455D2BA00C68EA7E66C13695275F6B75B95E5F8 PUSH1 0x1 PUSH1 0x0 SWAP1 SLOAD SWAP1 PUSH2 0x100 EXP SWAP1 DIV PUSH20 0xFFFFFFFFFFFFFFFFFFFFFFFFFFFFFFFFFFFFFFFF AND PUSH1 0x2 PUSH1 0x0 SWAP1 SLOAD SWAP1 PUSH2 0x100 EXP SWAP1 DIV PUSH20 0xFFFFFFFFFFFFFFFFFFFFFFFFFFFFFFFFFFFFFFFF AND PUSH1 0x40 MLOAD PUSH2 0xB30 SWAP3 SWAP2 SWAP1 PUSH2 0xFDF JUMP JUMPDEST PUSH1 0x40 MLOAD DUP1 SWAP2 SUB SWAP1 LOG1 POP POP JUMP JUMPDEST PUSH2 0xB44 PUSH2 0xBC0 JUMP JUMPDEST PUSH1 0x0 PUSH20 0xFFFFFFFFFFFFFFFFFFFFFFFFFFFFFFFFFFFFFFFF AND DUP2 PUSH20 0xFFFFFFFFFFFFFFFFFFFFFFFFFFFFFFFFFFFFFFFF AND EQ ISZERO PUSH2 0xBB4 JUMPI PUSH1 0x40 MLOAD PUSH32 0x8C379A000000000000000000000000000000000000000000000000000000000 DUP2 MSTORE PUSH1 0x4 ADD PUSH2 0xBAB SWAP1 PUSH2 0x10B7 JUMP JUMPDEST PUSH1 0x40 MLOAD DUP1 SWAP2 SUB SWAP1 REVERT JUMPDEST PUSH2 0xBBD DUP2 PUSH2 0xC3E JUMP JUMPDEST POP JUMP JUMPDEST PUSH2 0xBC8 PUSH2 0xD02 JUMP JUMPDEST PUSH20 0xFFFFFFFFFFFFFFFFFFFFFFFFFFFFFFFFFFFFFFFF AND PUSH2 0xBE6 PUSH2 0x91A JUMP JUMPDEST PUSH20 0xFFFFFFFFFFFFFFFFFFFFFFFFFFFFFFFFFFFFFFFF AND EQ PUSH2 0xC3C JUMPI PUSH1 0x40 MLOAD PUSH32 0x8C379A000000000000000000000000000000000000000000000000000000000 DUP2 MSTORE PUSH1 0x4 ADD PUSH2 0xC33 SWAP1 PUSH2 0x1137 JUMP JUMPDEST PUSH1 0x40 MLOAD DUP1 SWAP2 SUB SWAP1 REVERT JUMPDEST JUMP JUMPDEST PUSH1 0x0 DUP1 PUSH1 0x0 SWAP1 SLOAD SWAP1 PUSH2 0x100 EXP SWAP1 DIV PUSH20 0xFFFFFFFFFFFFFFFFFFFFFFFFFFFFFFFFFFFFFFFF AND SWAP1 POP DUP2 PUSH1 0x0 DUP1 PUSH2 0x100 EXP DUP2 SLOAD DUP2 PUSH20 0xFFFFFFFFFFFFFFFFFFFFFFFFFFFFFFFFFFFFFFFF MUL NOT AND SWAP1 DUP4 PUSH20 0xFFFFFFFFFFFFFFFFFFFFFFFFFFFFFFFFFFFFFFFF AND MUL OR SWAP1 SSTORE POP DUP2 PUSH20 0xFFFFFFFFFFFFFFFFFFFFFFFFFFFFFFFFFFFFFFFF AND DUP2 PUSH20 0xFFFFFFFFFFFFFFFFFFFFFFFFFFFFFFFFFFFFFFFF AND PUSH32 0x8BE0079C531659141344CD1FD0A4F28419497F9722A3DAAFE3B4186F6B6457E0 PUSH1 0x40 MLOAD PUSH1 0x40 MLOAD DUP1 SWAP2 SUB SWAP1 LOG3 POP POP JUMP JUMPDEST PUSH1 0x0 CALLER SWAP1 POP SWAP1 JUMP JUMPDEST PUSH1 0x0 DUP2 CALLDATALOAD SWAP1 POP PUSH2 0xD19 DUP2 PUSH2 0x1464 JUMP JUMPDEST SWAP3 SWAP2 POP POP JUMP JUMPDEST PUSH1 0x0 DUP2 CALLDATALOAD SWAP1 POP PUSH2 0xD2E DUP2 PUSH2 0x147B JUMP JUMPDEST SWAP3 SWAP2 POP POP JUMP JUMPDEST PUSH1 0x0 PUSH1 0x20 DUP3 DUP5 SUB SLT ISZERO PUSH2 0xD4A JUMPI PUSH2 0xD49 PUSH2 0x131A JUMP JUMPDEST JUMPDEST PUSH1 0x0 PUSH2 0xD58 DUP5 DUP3 DUP6 ADD PUSH2 0xD0A JUMP JUMPDEST SWAP2 POP POP SWAP3 SWAP2 POP POP JUMP JUMPDEST PUSH1 0x0 DUP1 PUSH1 0x40 DUP4 DUP6 SUB SLT ISZERO PUSH2 0xD78 JUMPI PUSH2 0xD77 PUSH2 0x131A JUMP JUMPDEST JUMPDEST PUSH1 0x0 PUSH2 0xD86 DUP6 DUP3 DUP7 ADD PUSH2 0xD0A JUMP JUMPDEST SWAP3 POP POP PUSH1 0x20 PUSH2 0xD97 DUP6 DUP3 DUP7 ADD PUSH2 0xD0A JUMP JUMPDEST SWAP2 POP POP SWAP3 POP SWAP3 SWAP1 POP JUMP JUMPDEST PUSH1 0x0 DUP1 PUSH1 0x40 DUP4 DUP6 SUB SLT ISZERO PUSH2 0xDB8 JUMPI PUSH2 0xDB7 PUSH2 0x131A JUMP JUMPDEST JUMPDEST PUSH1 0x0 PUSH2 0xDC6 DUP6 DUP3 DUP7 ADD PUSH2 0xD0A JUMP JUMPDEST SWAP3 POP POP PUSH1 0x20 PUSH2 0xDD7 DUP6 DUP3 DUP7 ADD PUSH2 0xD1F JUMP JUMPDEST SWAP2 POP POP SWAP3 POP SWAP3 SWAP1 POP JUMP JUMPDEST PUSH1 0x0 PUSH1 0x20 DUP3 DUP5 SUB SLT ISZERO PUSH2 0xDF7 JUMPI PUSH2 0xDF6 PUSH2 0x131A JUMP JUMPDEST JUMPDEST PUSH1 0x0 PUSH2 0xE05 DUP5 DUP3 DUP6 ADD PUSH2 0xD1F JUMP JUMPDEST SWAP2 POP POP SWAP3 SWAP2 POP POP JUMP JUMPDEST PUSH1 0x0 PUSH2 0xE1A DUP4 DUP4 PUSH2 0xFA6 JUMP JUMPDEST PUSH1 0x20 DUP4 ADD SWAP1 POP SWAP3 SWAP2 POP POP JUMP JUMPDEST PUSH2 0xE2F DUP2 PUSH2 0x124D JUMP JUMPDEST DUP3 MSTORE POP POP JUMP JUMPDEST PUSH1 0x0 PUSH2 0xE40 DUP3 PUSH2 0x11BD JUMP JUMPDEST PUSH2 0xE4A DUP2 DUP6 PUSH2 0x11D5 JUMP JUMPDEST SWAP4 POP PUSH2 0xE55 DUP4 PUSH2 0x11AD JUMP JUMPDEST DUP1 PUSH1 0x0 JUMPDEST DUP4 DUP2 LT ISZERO PUSH2 0xE86 JUMPI DUP2 MLOAD PUSH2 0xE6D DUP9 DUP3 PUSH2 0xE0E JUMP JUMPDEST SWAP8 POP PUSH2 0xE78 DUP4 PUSH2 0x11C8 JUMP JUMPDEST SWAP3 POP POP PUSH1 0x1 DUP2 ADD SWAP1 POP PUSH2 0xE59 JUMP JUMPDEST POP DUP6 SWAP4 POP POP POP POP SWAP3 SWAP2 POP POP JUMP JUMPDEST PUSH2 0xE9C DUP2 PUSH2 0x125F JUMP JUMPDEST DUP3 MSTORE POP POP JUMP JUMPDEST PUSH1 0x0 PUSH2 0xEAF PUSH1 0xC DUP4 PUSH2 0x11E6 JUMP JUMPDEST SWAP2 POP PUSH2 0xEBA DUP3 PUSH2 0x131F JUMP JUMPDEST PUSH1 0x20 DUP3 ADD SWAP1 POP SWAP2 SWAP1 POP JUMP JUMPDEST PUSH1 0x0 PUSH2 0xED2 PUSH1 0x26 DUP4 PUSH2 0x11E6 JUMP JUMPDEST SWAP2 POP PUSH2 0xEDD DUP3 PUSH2 0x1348 JUMP JUMPDEST PUSH1 0x40 DUP3 ADD SWAP1 POP SWAP2 SWAP1 POP JUMP JUMPDEST PUSH1 0x0 PUSH2 0xEF5 PUSH1 0xE DUP4 PUSH2 0x11E6 JUMP JUMPDEST SWAP2 POP PUSH2 0xF00 DUP3 PUSH2 0x1397 JUMP JUMPDEST PUSH1 0x20 DUP3 ADD SWAP1 POP SWAP2 SWAP1 POP JUMP JUMPDEST PUSH1 0x0 PUSH2 0xF18 PUSH1 0xC DUP4 PUSH2 0x11E6 JUMP JUMPDEST SWAP2 POP PUSH2 0xF23 DUP3 PUSH2 0x13C0 JUMP JUMPDEST PUSH1 0x20 DUP3 ADD SWAP1 POP SWAP2 SWAP1 POP JUMP JUMPDEST PUSH1 0x0 PUSH2 0xF3B PUSH1 0xB DUP4 PUSH2 0x11E6 JUMP JUMPDEST SWAP2 POP PUSH2 0xF46 DUP3 PUSH2 0x13E9 JUMP JUMPDEST PUSH1 0x20 DUP3 ADD SWAP1 POP SWAP2 SWAP1 POP JUMP JUMPDEST PUSH1 0x0 PUSH2 0xF5E PUSH1 0x20 DUP4 PUSH2 0x11E6 JUMP JUMPDEST SWAP2 POP PUSH2 0xF69 DUP3 PUSH2 0x1412 JUMP JUMPDEST PUSH1 0x20 DUP3 ADD SWAP1 POP SWAP2 SWAP1 POP JUMP JUMPDEST PUSH1 0x0 PUSH2 0xF81 PUSH1 0x19 DUP4 PUSH2 0x11E6 JUMP JUMPDEST SWAP2 POP PUSH2 0xF8C DUP3 PUSH2 0x143B JUMP JUMPDEST PUSH1 0x20 DUP3 ADD SWAP1 POP SWAP2 SWAP1 POP JUMP JUMPDEST PUSH2 0xFA0 DUP2 PUSH2 0x128B JUMP JUMPDEST DUP3 MSTORE POP POP JUMP JUMPDEST PUSH2 0xFAF DUP2 PUSH2 0x1295 JUMP JUMPDEST DUP3 MSTORE POP POP JUMP JUMPDEST PUSH2 0xFBE DUP2 PUSH2 0x1295 JUMP JUMPDEST DUP3 MSTORE POP POP JUMP JUMPDEST PUSH1 0x0 PUSH1 0x20 DUP3 ADD SWAP1 POP PUSH2 0xFD9 PUSH1 0x0 DUP4 ADD DUP5 PUSH2 0xE26 JUMP JUMPDEST SWAP3 SWAP2 POP POP JUMP JUMPDEST PUSH1 0x0 PUSH1 0x40 DUP3 ADD SWAP1 POP PUSH2 0xFF4 PUSH1 0x0 DUP4 ADD DUP6 PUSH2 0xE26 JUMP JUMPDEST PUSH2 0x1001 PUSH1 0x20 DUP4 ADD DUP5 PUSH2 0xE26 JUMP JUMPDEST SWAP4 SWAP3 POP POP POP JUMP JUMPDEST PUSH1 0x0 PUSH1 0x40 DUP3 ADD SWAP1 POP PUSH2 0x101D PUSH1 0x0 DUP4 ADD DUP6 PUSH2 0xE26 JUMP JUMPDEST PUSH2 0x102A PUSH1 0x20 DUP4 ADD DUP5 PUSH2 0xE93 JUMP JUMPDEST SWAP4 SWAP3 POP POP POP JUMP JUMPDEST PUSH1 0x0 PUSH1 0x40 DUP3 ADD SWAP1 POP PUSH2 0x1046 PUSH1 0x0 DUP4 ADD DUP6 PUSH2 0xE26 JUMP JUMPDEST PUSH2 0x1053 PUSH1 0x20 DUP4 ADD DUP5 PUSH2 0xF97 JUMP JUMPDEST SWAP4 SWAP3 POP POP POP JUMP JUMPDEST PUSH1 0x0 PUSH1 0x20 DUP3 ADD SWAP1 POP DUP2 DUP2 SUB PUSH1 0x0 DUP4 ADD MSTORE PUSH2 0x1074 DUP2 DUP5 PUSH2 0xE35 JUMP JUMPDEST SWAP1 POP SWAP3 SWAP2 POP POP JUMP JUMPDEST PUSH1 0x0 PUSH1 0x20 DUP3 ADD SWAP1 POP PUSH2 0x1091 PUSH1 0x0 DUP4 ADD DUP5 PUSH2 0xE93 JUMP JUMPDEST SWAP3 SWAP2 POP POP JUMP JUMPDEST PUSH1 0x0 PUSH1 0x20 DUP3 ADD SWAP1 POP DUP2 DUP2 SUB PUSH1 0x0 DUP4 ADD MSTORE PUSH2 0x10B0 DUP2 PUSH2 0xEA2 JUMP JUMPDEST SWAP1 POP SWAP2 SWAP1 POP JUMP JUMPDEST PUSH1 0x0 PUSH1 0x20 DUP3 ADD SWAP1 POP DUP2 DUP2 SUB PUSH1 0x0 DUP4 ADD MSTORE PUSH2 0x10D0 DUP2 PUSH2 0xEC5 JUMP JUMPDEST SWAP1 POP SWAP2 SWAP1 POP JUMP JUMPDEST PUSH1 0x0 PUSH1 0x20 DUP3 ADD SWAP1 POP DUP2 DUP2 SUB PUSH1 0x0 DUP4 ADD MSTORE PUSH2 0x10F0 DUP2 PUSH2 0xEE8 JUMP JUMPDEST SWAP1 POP SWAP2 SWAP1 POP JUMP JUMPDEST PUSH1 0x0 PUSH1 0x20 DUP3 ADD SWAP1 POP DUP2 DUP2 SUB PUSH1 0x0 DUP4 ADD MSTORE PUSH2 0x1110 DUP2 PUSH2 0xF0B JUMP JUMPDEST SWAP1 POP SWAP2 SWAP1 POP JUMP JUMPDEST PUSH1 0x0 PUSH1 0x20 DUP3 ADD SWAP1 POP DUP2 DUP2 SUB PUSH1 0x0 DUP4 ADD MSTORE PUSH2 0x1130 DUP2 PUSH2 0xF2E JUMP JUMPDEST SWAP1 POP SWAP2 SWAP1 POP JUMP JUMPDEST PUSH1 0x0 PUSH1 0x20 DUP3 ADD SWAP1 POP DUP2 DUP2 SUB PUSH1 0x0 DUP4 ADD MSTORE PUSH2 0x1150 DUP2 PUSH2 0xF51 JUMP JUMPDEST SWAP1 POP SWAP2 SWAP1 POP JUMP JUMPDEST PUSH1 0x0 PUSH1 0x20 DUP3 ADD SWAP1 POP DUP2 DUP2 SUB PUSH1 0x0 DUP4 ADD MSTORE PUSH2 0x1170 DUP2 PUSH2 0xF74 JUMP JUMPDEST SWAP1 POP SWAP2 SWAP1 POP JUMP JUMPDEST PUSH1 0x0 PUSH1 0x20 DUP3 ADD SWAP1 POP PUSH2 0x118C PUSH1 0x0 DUP4 ADD DUP5 PUSH2 0xF97 JUMP JUMPDEST SWAP3 SWAP2 POP POP JUMP JUMPDEST PUSH1 0x0 PUSH1 0x20 DUP3 ADD SWAP1 POP PUSH2 0x11A7 PUSH1 0x0 DUP4 ADD DUP5 PUSH2 0xFB5 JUMP JUMPDEST SWAP3 SWAP2 POP POP JUMP JUMPDEST PUSH1 0x0 DUP2 SWAP1 POP PUSH1 0x20 DUP3 ADD SWAP1 POP SWAP2 SWAP1 POP JUMP JUMPDEST PUSH1 0x0 DUP2 MLOAD SWAP1 POP SWAP2 SWAP1 POP JUMP JUMPDEST PUSH1 0x0 PUSH1 0x20 DUP3 ADD SWAP1 POP SWAP2 SWAP1 POP JUMP JUMPDEST PUSH1 0x0 DUP3 DUP3 MSTORE PUSH1 0x20 DUP3 ADD SWAP1 POP SWAP3 SWAP2 POP POP JUMP JUMPDEST PUSH1 0x0 DUP3 DUP3 MSTORE PUSH1 0x20 DUP3 ADD SWAP1 POP SWAP3 SWAP2 POP POP JUMP JUMPDEST PUSH1 0x0 PUSH2 0x1202 DUP3 PUSH2 0x128B JUMP JUMPDEST SWAP2 POP PUSH2 0x120D DUP4 PUSH2 0x128B JUMP JUMPDEST SWAP3 POP DUP3 PUSH32 0xFFFFFFFFFFFFFFFFFFFFFFFFFFFFFFFFFFFFFFFFFFFFFFFFFFFFFFFFFFFFFFFF SUB DUP3 GT ISZERO PUSH2 0x1242 JUMPI PUSH2 0x1241 PUSH2 0x12EB JUMP JUMPDEST JUMPDEST DUP3 DUP3 ADD SWAP1 POP SWAP3 SWAP2 POP POP JUMP JUMPDEST PUSH1 0x0 PUSH2 0x1258 DUP3 PUSH2 0x126B JUMP JUMPDEST SWAP1 POP SWAP2 SWAP1 POP JUMP JUMPDEST PUSH1 0x0 DUP2 ISZERO ISZERO SWAP1 POP SWAP2 SWAP1 POP JUMP JUMPDEST PUSH1 0x0 PUSH20 0xFFFFFFFFFFFFFFFFFFFFFFFFFFFFFFFFFFFFFFFF DUP3 AND SWAP1 POP SWAP2 SWAP1 POP JUMP JUMPDEST PUSH1 0x0 DUP2 SWAP1 POP SWAP2 SWAP1 POP JUMP JUMPDEST PUSH1 0x0 PUSH1 0xFF DUP3 AND SWAP1 POP SWAP2 SWAP1 POP JUMP JUMPDEST PUSH1 0x0 PUSH2 0x12AD DUP3 PUSH2 0x128B JUMP JUMPDEST SWAP2 POP PUSH32 0xFFFFFFFFFFFFFFFFFFFFFFFFFFFFFFFFFFFFFFFFFFFFFFFFFFFFFFFFFFFFFFFF DUP3 EQ ISZERO PUSH2 0x12E0 JUMPI PUSH2 0x12DF PUSH2 0x12EB JUMP JUMPDEST JUMPDEST PUSH1 0x1 DUP3 ADD SWAP1 POP SWAP2 SWAP1 POP JUMP JUMPDEST PUSH32 0x4E487B7100000000000000000000000000000000000000000000000000000000 PUSH1 0x0 MSTORE PUSH1 0x11 PUSH1 0x4 MSTORE PUSH1 0x24 PUSH1 0x0 REVERT JUMPDEST PUSH1 0x0 DUP1 REVERT JUMPDEST PUSH32 0x67616D65206973206F7665720000000000000000000000000000000000000000 PUSH1 0x0 DUP3 ADD MSTORE POP JUMP JUMPDEST PUSH32 0x4F776E61626C653A206E6577206F776E657220697320746865207A65726F2061 PUSH1 0x0 DUP3 ADD MSTORE PUSH32 0x6464726573730000000000000000000000000000000000000000000000000000 PUSH1 0x20 DUP3 ADD MSTORE POP JUMP JUMPDEST PUSH32 0x4E6F7420796F7572207475726E2E000000000000000000000000000000000000 PUSH1 0x0 DUP3 ADD MSTORE POP JUMP JUMPDEST PUSH32 0x6D6F766520696E76616C69640000000000000000000000000000000000000000 PUSH1 0x0 DUP3 ADD MSTORE POP JUMP JUMPDEST PUSH32 0x53706F742074616B656E21000000000000000000000000000000000000000000 PUSH1 0x0 DUP3 ADD MSTORE POP JUMP JUMPDEST PUSH32 0x4F776E61626C653A2063616C6C6572206973206E6F7420746865206F776E6572 PUSH1 0x0 DUP3 ADD MSTORE POP JUMP JUMPDEST PUSH32 0x7468697320706C617965722069736E277420706C6179696E6700000000000000 PUSH1 0x0 DUP3 ADD MSTORE POP JUMP JUMPDEST PUSH2 0x146D DUP2 PUSH2 0x124D JUMP JUMPDEST DUP2 EQ PUSH2 0x1478 JUMPI PUSH1 0x0 DUP1 REVERT JUMPDEST POP JUMP JUMPDEST PUSH2 0x1484 DUP2 PUSH2 0x128B JUMP JUMPDEST DUP2 EQ PUSH2 0x148F JUMPI PUSH1 0x0 DUP1 REVERT JUMPDEST POP JUMP INVALID LOG2 PUSH5 0x6970667358 0x22 SLT KECCAK256 0x2A PUSH10 0x574848CD2E5991513ED1 EXTCODEHASH 0xA5 POP 0xA9 DUP16 0xC5 0xC6 0xB8 0xDA LOG2 CALLDATALOAD SWAP4 JUMPDEST 0x4A SAR PUSH10 0xF58B8CBF64736F6C6343 STOP ADDMOD SMOD STOP CALLER "
				},
				"gasEstimates": {
					"creation": {
						"codeDepositCost": "1064000",
						"executionCost": "infinite",
						"totalCost": "infinite"
					},
					"external": {
						"_startTurn()": "2453",
						"game()": "4784",
						"gameBoard(uint256)": "5023",
						"gameOver()": "2543",
						"getPlayersMoves()": "infinite",
						"lastPlayed()": "2580",
						"moveTaken()": "2474",
						"owner()": "2589",
						"player()": "4855",
						"playerA()": "2603",
						"playerB()": "2560",
						"playerMoves(address,uint256)": "6922",
						"pleya()": "4900",
						"renounceOwnership()": "30421",
						"session()": "2518",
						"startGame(address,address)": "infinite",
						"timer()": "2516",
						"transferOwnership(address)": "30879",
						"turnsTaken()": "2540",
						"winner()": "2602",
						"yourMove(uint256)": "infinite"
					},
					"internal": {
						"addReward(uint256)": "infinite",
						"isWinner(address)": "infinite",
						"sendPrize()": "infinite"
					}
				},
				"methodIdentifiers": {
					"_startTurn()": "041a8486",
					"game()": "c3fe3e28",
					"gameBoard(uint256)": "5d248301",
					"gameOver()": "bdb337d1",
					"getPlayersMoves()": "620633cb",
					"lastPlayed()": "c5339132",
					"moveTaken()": "554693b1",
					"owner()": "8da5cb5b",
					"player()": "48db5f89",
					"playerA()": "a285c54a",
					"playerB()": "11bb1537",
					"playerMoves(address,uint256)": "22f976ff",
					"pleya()": "1a8a8dd8",
					"renounceOwnership()": "715018a6",
					"session()": "5e3568b8",
					"startGame(address,address)": "eb23b56b",
					"timer()": "88c9cb3c",
					"transferOwnership(address)": "f2fde38b",
					"turnsTaken()": "bc120879",
					"winner()": "dfbf53ae",
					"yourMove(uint256)": "393f7eb6"
				}
			},
			"storageLayout": {
				"storage": [
					{
						"astId": 7,
						"contract": "ddd.sol:Tris",
						"label": "_owner",
						"offset": 0,
						"slot": "0",
						"type": "t_address"
					},
					{
						"astId": 141,
						"contract": "ddd.sol:Tris",
						"label": "playerA",
						"offset": 0,
						"slot": "1",
						"type": "t_address"
					},
					{
						"astId": 143,
						"contract": "ddd.sol:Tris",
						"label": "playerB",
						"offset": 0,
						"slot": "2",
						"type": "t_address"
					},
					{
						"astId": 145,
						"contract": "ddd.sol:Tris",
						"label": "lastPlayed",
						"offset": 0,
						"slot": "3",
						"type": "t_address"
					},
					{
						"astId": 147,
						"contract": "ddd.sol:Tris",
						"label": "winner",
						"offset": 0,
						"slot": "4",
						"type": "t_address"
					},
					{
						"astId": 149,
						"contract": "ddd.sol:Tris",
						"label": "gameOver",
						"offset": 20,
						"slot": "4",
						"type": "t_bool"
					},
					{
						"astId": 151,
						"contract": "ddd.sol:Tris",
						"label": "turnsTaken",
						"offset": 0,
						"slot": "5",
						"type": "t_uint256"
					},
					{
						"astId": 153,
						"contract": "ddd.sol:Tris",
						"label": "moveTaken",
						"offset": 0,
						"slot": "6",
						"type": "t_uint256"
					},
					{
						"astId": 155,
						"contract": "ddd.sol:Tris",
						"label": "session",
						"offset": 0,
						"slot": "7",
						"type": "t_uint256"
					},
					{
						"astId": 157,
						"contract": "ddd.sol:Tris",
						"label": "_startTurn",
						"offset": 0,
						"slot": "8",
						"type": "t_uint256"
					},
					{
						"astId": 159,
						"contract": "ddd.sol:Tris",
						"label": "timer",
						"offset": 0,
						"slot": "9",
						"type": "t_bool"
					},
					{
						"astId": 166,
						"contract": "ddd.sol:Tris",
						"label": "gameBoard",
						"offset": 0,
						"slot": "10",
						"type": "t_array(t_address)dyn_storage"
					},
					{
						"astId": 177,
						"contract": "ddd.sol:Tris",
						"label": "player",
						"offset": 0,
						"slot": "11",
						"type": "t_struct(Player)174_storage"
					},
					{
						"astId": 185,
						"contract": "ddd.sol:Tris",
						"label": "pleya",
						"offset": 0,
						"slot": "13",
						"type": "t_struct(Playe)182_storage"
					},
					{
						"astId": 190,
						"contract": "ddd.sol:Tris",
						"label": "playerMoves",
						"offset": 0,
						"slot": "14",
						"type": "t_mapping(t_address,t_array(t_uint8)dyn_storage)"
					},
					{
						"astId": 201,
						"contract": "ddd.sol:Tris",
						"label": "game",
						"offset": 0,
						"slot": "15",
						"type": "t_struct(Game)198_storage"
					}
				],
				"types": {
					"t_address": {
						"encoding": "inplace",
						"label": "address",
						"numberOfBytes": "20"
					},
					"t_array(t_address)dyn_storage": {
						"base": "t_address",
						"encoding": "dynamic_array",
						"label": "address[]",
						"numberOfBytes": "32"
					},
					"t_array(t_uint256)dyn_storage": {
						"base": "t_uint256",
						"encoding": "dynamic_array",
						"label": "uint256[]",
						"numberOfBytes": "32"
					},
					"t_array(t_uint8)dyn_storage": {
						"base": "t_uint8",
						"encoding": "dynamic_array",
						"label": "uint8[]",
						"numberOfBytes": "32"
					},
					"t_bool": {
						"encoding": "inplace",
						"label": "bool",
						"numberOfBytes": "1"
					},
					"t_mapping(t_address,t_array(t_uint8)dyn_storage)": {
						"encoding": "mapping",
						"key": "t_address",
						"label": "mapping(address => uint8[])",
						"numberOfBytes": "32",
						"value": "t_array(t_uint8)dyn_storage"
					},
					"t_struct(Game)198_storage": {
						"encoding": "inplace",
						"label": "struct Tris.Game",
						"members": [
							{
								"astId": 192,
								"contract": "ddd.sol:Tris",
								"label": "lastPlayed",
								"offset": 0,
								"slot": "0",
								"type": "t_address"
							},
							{
								"astId": 194,
								"contract": "ddd.sol:Tris",
								"label": "playTime",
								"offset": 0,
								"slot": "1",
								"type": "t_uint256"
							},
							{
								"astId": 197,
								"contract": "ddd.sol:Tris",
								"label": "gameBoard",
								"offset": 0,
								"slot": "2",
								"type": "t_array(t_uint256)dyn_storage"
							}
						],
						"numberOfBytes": "96"
					},
					"t_struct(Playe)182_storage": {
						"encoding": "inplace",
						"label": "struct Tris.Playe",
						"members": [
							{
								"astId": 179,
								"contract": "ddd.sol:Tris",
								"label": "playerA",
								"offset": 0,
								"slot": "0",
								"type": "t_address"
							},
							{
								"astId": 181,
								"contract": "ddd.sol:Tris",
								"label": "start",
								"offset": 20,
								"slot": "0",
								"type": "t_bool"
							}
						],
						"numberOfBytes": "32"
					},
					"t_struct(Player)174_storage": {
						"encoding": "inplace",
						"label": "struct Tris.Player",
						"members": [
							{
								"astId": 168,
								"contract": "ddd.sol:Tris",
								"label": "user",
								"offset": 0,
								"slot": "0",
								"type": "t_address"
							},
							{
								"astId": 170,
								"contract": "ddd.sol:Tris",
								"label": "turnIsFinished",
								"offset": 20,
								"slot": "0",
								"type": "t_bool"
							},
							{
								"astId": 173,
								"contract": "ddd.sol:Tris",
								"label": "_playerMoves",
								"offset": 0,
								"slot": "1",
								"type": "t_array(t_uint256)dyn_storage"
							}
						],
						"numberOfBytes": "64"
					},
					"t_uint256": {
						"encoding": "inplace",
						"label": "uint256",
						"numberOfBytes": "32"
					},
					"t_uint8": {
						"encoding": "inplace",
						"label": "uint8",
						"numberOfBytes": "1"
					}
				}
			},
			"userdoc": {
				"kind": "user",
				"methods": {},
				"version": 1
			}
		}
	}
}