{
	"contracts/Missions.sol": {
		"Staking": {
			"abi": [
				{
					"inputs": [
						{
							"internalType": "address",
							"name": "_nftContract",
							"type": "address"
						},
						{
							"internalType": "address",
							"name": "_tokenContract",
							"type": "address"
						}
					],
					"stateMutability": "nonpayable",
					"type": "constructor"
				},
				{
					"inputs": [
						{
							"internalType": "uint256",
							"name": "_tokenID",
							"type": "uint256"
						}
					],
					"name": "getStakes",
					"outputs": [
						{
							"internalType": "address",
							"name": "add",
							"type": "address"
						},
						{
							"internalType": "uint256",
							"name": "time",
							"type": "uint256"
						}
					],
					"stateMutability": "view",
					"type": "function"
				},
				{
					"inputs": [],
					"name": "nftcontract",
					"outputs": [
						{
							"internalType": "address",
							"name": "",
							"type": "address"
						}
					],
					"stateMutability": "view",
					"type": "function"
				},
				{
					"inputs": [
						{
							"internalType": "address",
							"name": "collection",
							"type": "address"
						},
						{
							"internalType": "address",
							"name": "_operator",
							"type": "address"
						},
						{
							"internalType": "address",
							"name": "_nftcontract",
							"type": "address"
						},
						{
							"internalType": "uint256",
							"name": "tokenID",
							"type": "uint256"
						},
						{
							"internalType": "bytes",
							"name": "",
							"type": "bytes"
						}
					],
					"name": "onERC721Received",
					"outputs": [
						{
							"internalType": "bytes4",
							"name": "",
							"type": "bytes4"
						}
					],
					"stateMutability": "nonpayable",
					"type": "function"
				},
				{
					"inputs": [],
					"name": "operator",
					"outputs": [
						{
							"internalType": "address",
							"name": "",
							"type": "address"
						}
					],
					"stateMutability": "view",
					"type": "function"
				},
				{
					"inputs": [],
					"name": "parentNFT",
					"outputs": [
						{
							"internalType": "contract IERC721",
							"name": "",
							"type": "address"
						}
					],
					"stateMutability": "view",
					"type": "function"
				},
				{
					"inputs": [],
					"name": "parentNFTAddress",
					"outputs": [
						{
							"internalType": "address",
							"name": "",
							"type": "address"
						}
					],
					"stateMutability": "view",
					"type": "function"
				},
				{
					"inputs": [],
					"name": "parentNftFunctions",
					"outputs": [
						{
							"internalType": "contract INFTGame",
							"name": "",
							"type": "address"
						}
					],
					"stateMutability": "view",
					"type": "function"
				},
				{
					"inputs": [],
					"name": "parentToken",
					"outputs": [
						{
							"internalType": "contract IERC20",
							"name": "",
							"type": "address"
						}
					],
					"stateMutability": "view",
					"type": "function"
				}
			],
			"devdoc": {
				"kind": "dev",
				"methods": {},
				"version": 1
			},
			"evm": {
				"assembly": "    /* \"contracts/Missions.sol\":341:1482  contract Staking is ReentrancyGuard {\r... */\n  mstore(0x40, 0x80)\n    /* \"contracts/Missions.sol\":526:788  constructor(address _nftContract, address _tokenContract){\r... */\n  callvalue\n  dup1\n  iszero\n  tag_1\n  jumpi\n  0x00\n  dup1\n  revert\ntag_1:\n  pop\n  mload(0x40)\n  sub(codesize, bytecodeSize)\n  dup1\n  bytecodeSize\n  dup4\n  codecopy\n  dup2\n  dup2\n  add\n  0x40\n  mstore\n  dup2\n  add\n  swap1\n  tag_2\n  swap2\n  swap1\n  tag_3\n  jump\t// in\ntag_2:\n    /* \"@openzeppelin/contracts/security/ReentrancyGuard.sol\":1701:1702  1 */\n  0x01\n    /* \"@openzeppelin/contracts/security/ReentrancyGuard.sol\":1806:1813  _status */\n  0x00\n    /* \"@openzeppelin/contracts/security/ReentrancyGuard.sol\":1806:1828  _status = _NOT_ENTERED */\n  dup2\n  swap1\n  sstore\n  pop\n    /* \"contracts/Missions.sol\":614:626  _nftContract */\n  dup2\n    /* \"contracts/Missions.sol\":594:603  parentNFT */\n  0x02\n  0x00\n    /* \"contracts/Missions.sol\":594:627  parentNFT = IERC721(_nftContract) */\n  0x0100\n  exp\n  dup2\n  sload\n  dup2\n  0xffffffffffffffffffffffffffffffffffffffff\n  mul\n  not\n  and\n  swap1\n  dup4\n  0xffffffffffffffffffffffffffffffffffffffff\n  and\n  mul\n  or\n  swap1\n  sstore\n  pop\n    /* \"contracts/Missions.sol\":668:680  _nftContract */\n  dup2\n    /* \"contracts/Missions.sol\":638:656  parentNftFunctions */\n  0x03\n  0x00\n    /* \"contracts/Missions.sol\":638:681  parentNftFunctions = INFTGame(_nftContract) */\n  0x0100\n  exp\n  dup2\n  sload\n  dup2\n  0xffffffffffffffffffffffffffffffffffffffff\n  mul\n  not\n  and\n  swap1\n  dup4\n  0xffffffffffffffffffffffffffffffffffffffff\n  and\n  mul\n  or\n  swap1\n  sstore\n  pop\n    /* \"contracts/Missions.sol\":713:727  _tokenContract */\n  dup1\n    /* \"contracts/Missions.sol\":692:703  parentToken */\n  0x01\n  0x00\n    /* \"contracts/Missions.sol\":692:728  parentToken = IERC20(_tokenContract) */\n  0x0100\n  exp\n  dup2\n  sload\n  dup2\n  0xffffffffffffffffffffffffffffffffffffffff\n  mul\n  not\n  and\n  swap1\n  dup4\n  0xffffffffffffffffffffffffffffffffffffffff\n  and\n  mul\n  or\n  swap1\n  sstore\n  pop\n    /* \"contracts/Missions.sol\":758:770  _nftContract */\n  dup2\n    /* \"contracts/Missions.sol\":739:755  parentNFTAddress */\n  0x04\n  0x00\n    /* \"contracts/Missions.sol\":739:770  parentNFTAddress = _nftContract */\n  0x0100\n  exp\n  dup2\n  sload\n  dup2\n  0xffffffffffffffffffffffffffffffffffffffff\n  mul\n  not\n  and\n  swap1\n  dup4\n  0xffffffffffffffffffffffffffffffffffffffff\n  and\n  mul\n  or\n  swap1\n  sstore\n  pop\n    /* \"contracts/Missions.sol\":526:788  constructor(address _nftContract, address _tokenContract){\r... */\n  pop\n  pop\n    /* \"contracts/Missions.sol\":341:1482  contract Staking is ReentrancyGuard {\r... */\n  jump(tag_8)\n    /* \"#utility.yul\":7:150   */\ntag_10:\n    /* \"#utility.yul\":64:69   */\n  0x00\n    /* \"#utility.yul\":95:101   */\n  dup2\n    /* \"#utility.yul\":89:102   */\n  mload\n    /* \"#utility.yul\":80:102   */\n  swap1\n  pop\n    /* \"#utility.yul\":111:144   */\n  tag_12\n    /* \"#utility.yul\":138:143   */\n  dup2\n    /* \"#utility.yul\":111:144   */\n  tag_13\n  jump\t// in\ntag_12:\n    /* \"#utility.yul\":7:150   */\n  swap3\n  swap2\n  pop\n  pop\n  jump\t// out\n    /* \"#utility.yul\":156:663   */\ntag_3:\n    /* \"#utility.yul\":235:241   */\n  0x00\n    /* \"#utility.yul\":243:249   */\n  dup1\n    /* \"#utility.yul\":292:294   */\n  0x40\n    /* \"#utility.yul\":280:289   */\n  dup4\n    /* \"#utility.yul\":271:278   */\n  dup6\n    /* \"#utility.yul\":267:290   */\n  sub\n    /* \"#utility.yul\":263:295   */\n  slt\n    /* \"#utility.yul\":260:379   */\n  iszero\n  tag_15\n  jumpi\n    /* \"#utility.yul\":298:377   */\n  tag_16\n  tag_17\n  jump\t// in\ntag_16:\n    /* \"#utility.yul\":260:379   */\ntag_15:\n    /* \"#utility.yul\":418:419   */\n  0x00\n    /* \"#utility.yul\":443:507   */\n  tag_18\n    /* \"#utility.yul\":499:506   */\n  dup6\n    /* \"#utility.yul\":490:496   */\n  dup3\n    /* \"#utility.yul\":479:488   */\n  dup7\n    /* \"#utility.yul\":475:497   */\n  add\n    /* \"#utility.yul\":443:507   */\n  tag_10\n  jump\t// in\ntag_18:\n    /* \"#utility.yul\":433:507   */\n  swap3\n  pop\n    /* \"#utility.yul\":389:517   */\n  pop\n    /* \"#utility.yul\":556:558   */\n  0x20\n    /* \"#utility.yul\":582:646   */\n  tag_19\n    /* \"#utility.yul\":638:645   */\n  dup6\n    /* \"#utility.yul\":629:635   */\n  dup3\n    /* \"#utility.yul\":618:627   */\n  dup7\n    /* \"#utility.yul\":614:636   */\n  add\n    /* \"#utility.yul\":582:646   */\n  tag_10\n  jump\t// in\ntag_19:\n    /* \"#utility.yul\":572:646   */\n  swap2\n  pop\n    /* \"#utility.yul\":527:656   */\n  pop\n    /* \"#utility.yul\":156:663   */\n  swap3\n  pop\n  swap3\n  swap1\n  pop\n  jump\t// out\n    /* \"#utility.yul\":750:846   */\ntag_22:\n    /* \"#utility.yul\":787:794   */\n  0x00\n    /* \"#utility.yul\":816:840   */\n  tag_24\n    /* \"#utility.yul\":834:839   */\n  dup3\n    /* \"#utility.yul\":816:840   */\n  tag_25\n  jump\t// in\ntag_24:\n    /* \"#utility.yul\":805:840   */\n  swap1\n  pop\n    /* \"#utility.yul\":750:846   */\n  swap2\n  swap1\n  pop\n  jump\t// out\n    /* \"#utility.yul\":852:978   */\ntag_25:\n    /* \"#utility.yul\":889:896   */\n  0x00\n    /* \"#utility.yul\":929:971   */\n  0xffffffffffffffffffffffffffffffffffffffff\n    /* \"#utility.yul\":922:927   */\n  dup3\n    /* \"#utility.yul\":918:972   */\n  and\n    /* \"#utility.yul\":907:972   */\n  swap1\n  pop\n    /* \"#utility.yul\":852:978   */\n  swap2\n  swap1\n  pop\n  jump\t// out\n    /* \"#utility.yul\":1107:1224   */\ntag_17:\n    /* \"#utility.yul\":1216:1217   */\n  0x00\n    /* \"#utility.yul\":1213:1214   */\n  dup1\n    /* \"#utility.yul\":1206:1218   */\n  revert\n    /* \"#utility.yul\":1230:1352   */\ntag_13:\n    /* \"#utility.yul\":1303:1327   */\n  tag_31\n    /* \"#utility.yul\":1321:1326   */\n  dup2\n    /* \"#utility.yul\":1303:1327   */\n  tag_22\n  jump\t// in\ntag_31:\n    /* \"#utility.yul\":1296:1301   */\n  dup2\n    /* \"#utility.yul\":1293:1328   */\n  eq\n    /* \"#utility.yul\":1283:1346   */\n  tag_32\n  jumpi\n    /* \"#utility.yul\":1342:1343   */\n  0x00\n    /* \"#utility.yul\":1339:1340   */\n  dup1\n    /* \"#utility.yul\":1332:1344   */\n  revert\n    /* \"#utility.yul\":1283:1346   */\ntag_32:\n    /* \"#utility.yul\":1230:1352   */\n  pop\n  jump\t// out\n    /* \"contracts/Missions.sol\":341:1482  contract Staking is ReentrancyGuard {\r... */\ntag_8:\n  dataSize(sub_0)\n  dup1\n  dataOffset(sub_0)\n  0x00\n  codecopy\n  0x00\n  return\nstop\n\nsub_0: assembly {\n        /* \"contracts/Missions.sol\":341:1482  contract Staking is ReentrancyGuard {\r... */\n      mstore(0x40, 0x80)\n      callvalue\n      dup1\n      iszero\n      tag_1\n      jumpi\n      0x00\n      dup1\n      revert\n    tag_1:\n      pop\n      jumpi(tag_2, lt(calldatasize, 0x04))\n      shr(0xe0, calldataload(0x00))\n      dup1\n      0x6a9315b3\n      gt\n      tag_11\n      jumpi\n      dup1\n      0x6a9315b3\n      eq\n      tag_7\n      jumpi\n      dup1\n      0x80a54001\n      eq\n      tag_8\n      jumpi\n      dup1\n      0xb8e33fb2\n      eq\n      tag_9\n      jumpi\n      dup1\n      0xfead3d6e\n      eq\n      tag_10\n      jumpi\n      jump(tag_2)\n    tag_11:\n      dup1\n      0x401405e2\n      eq\n      tag_3\n      jumpi\n      dup1\n      0x472343b9\n      eq\n      tag_4\n      jumpi\n      dup1\n      0x570ca735\n      eq\n      tag_5\n      jumpi\n      dup1\n      0x66bb863b\n      eq\n      tag_6\n      jumpi\n    tag_2:\n      0x00\n      dup1\n      revert\n        /* \"contracts/Missions.sol\":1130:1444  function onERC721Received(address collection, address _operator, address _nftcontract, uint256 tokenID, bytes memory) public virtual returns (bytes4) {\r... */\n    tag_3:\n      tag_12\n      0x04\n      dup1\n      calldatasize\n      sub\n      dup2\n      add\n      swap1\n      tag_13\n      swap2\n      swap1\n      tag_14\n      jump\t// in\n    tag_13:\n      tag_15\n      jump\t// in\n    tag_12:\n      mload(0x40)\n      tag_16\n      swap2\n      swap1\n      tag_17\n      jump\t// in\n    tag_16:\n      mload(0x40)\n      dup1\n      swap2\n      sub\n      swap1\n      return\n        /* \"contracts/Missions.sol\":895:1053  function getStakes(uint256 _tokenID) public view returns (address add, uint256 time){\r... */\n    tag_4:\n      tag_18\n      0x04\n      dup1\n      calldatasize\n      sub\n      dup2\n      add\n      swap1\n      tag_19\n      swap2\n      swap1\n      tag_20\n      jump\t// in\n    tag_19:\n      tag_21\n      jump\t// in\n    tag_18:\n      mload(0x40)\n      tag_22\n      swap3\n      swap2\n      swap1\n      tag_23\n      jump\t// in\n    tag_22:\n      mload(0x40)\n      dup1\n      swap2\n      sub\n      swap1\n      return\n        /* \"contracts/Missions.sol\":1059:1082  address public operator */\n    tag_5:\n      tag_24\n      tag_25\n      jump\t// in\n    tag_24:\n      mload(0x40)\n      tag_26\n      swap2\n      swap1\n      tag_27\n      jump\t// in\n    tag_26:\n      mload(0x40)\n      dup1\n      swap2\n      sub\n      swap1\n      return\n        /* \"contracts/Missions.sol\":488:519  address public parentNFTAddress */\n    tag_6:\n      tag_28\n      tag_29\n      jump\t// in\n    tag_28:\n      mload(0x40)\n      tag_30\n      swap2\n      swap1\n      tag_27\n      jump\t// in\n    tag_30:\n      mload(0x40)\n      dup1\n      swap2\n      sub\n      swap1\n      return\n        /* \"contracts/Missions.sol\":1089:1115  address public nftcontract */\n    tag_7:\n      tag_31\n      tag_32\n      jump\t// in\n    tag_31:\n      mload(0x40)\n      tag_33\n      swap2\n      swap1\n      tag_27\n      jump\t// in\n    tag_33:\n      mload(0x40)\n      dup1\n      swap2\n      sub\n      swap1\n      return\n        /* \"contracts/Missions.sol\":384:409  IERC20 public parentToken */\n    tag_8:\n      tag_34\n      tag_35\n      jump\t// in\n    tag_34:\n      mload(0x40)\n      tag_36\n      swap2\n      swap1\n      tag_37\n      jump\t// in\n    tag_36:\n      mload(0x40)\n      dup1\n      swap2\n      sub\n      swap1\n      return\n        /* \"contracts/Missions.sol\":416:440  IERC721 public parentNFT */\n    tag_9:\n      tag_38\n      tag_39\n      jump\t// in\n    tag_38:\n      mload(0x40)\n      tag_40\n      swap2\n      swap1\n      tag_41\n      jump\t// in\n    tag_40:\n      mload(0x40)\n      dup1\n      swap2\n      sub\n      swap1\n      return\n        /* \"contracts/Missions.sol\":447:481  INFTGame public parentNftFunctions */\n    tag_10:\n      tag_42\n      tag_43\n      jump\t// in\n    tag_42:\n      mload(0x40)\n      tag_44\n      swap2\n      swap1\n      tag_45\n      jump\t// in\n    tag_44:\n      mload(0x40)\n      dup1\n      swap2\n      sub\n      swap1\n      return\n        /* \"contracts/Missions.sol\":1130:1444  function onERC721Received(address collection, address _operator, address _nftcontract, uint256 tokenID, bytes memory) public virtual returns (bytes4) {\r... */\n    tag_15:\n        /* \"contracts/Missions.sol\":1272:1278  bytes4 */\n      0x00\n        /* \"contracts/Missions.sol\":1305:1317  _nftcontract */\n      dup4\n        /* \"contracts/Missions.sol\":1291:1302  nftcontract */\n      0x08\n      0x00\n        /* \"contracts/Missions.sol\":1291:1317  nftcontract = _nftcontract */\n      0x0100\n      exp\n      dup2\n      sload\n      dup2\n      0xffffffffffffffffffffffffffffffffffffffff\n      mul\n      not\n      and\n      swap1\n      dup4\n      0xffffffffffffffffffffffffffffffffffffffff\n      and\n      mul\n      or\n      swap1\n      sstore\n      pop\n        /* \"contracts/Missions.sol\":1339:1348  _operator */\n      dup5\n        /* \"contracts/Missions.sol\":1328:1336  operator */\n      0x07\n      0x00\n        /* \"contracts/Missions.sol\":1328:1348  operator = _operator */\n      0x0100\n      exp\n      dup2\n      sload\n      dup2\n      0xffffffffffffffffffffffffffffffffffffffff\n      mul\n      not\n      and\n      swap1\n      dup4\n      0xffffffffffffffffffffffffffffffffffffffff\n      and\n      mul\n      or\n      swap1\n      sstore\n      pop\n        /* \"contracts/Missions.sol\":1380:1388  operator */\n      0x07\n      0x00\n      swap1\n      sload\n      swap1\n      0x0100\n      exp\n      swap1\n      div\n      0xffffffffffffffffffffffffffffffffffffffff\n      and\n        /* \"contracts/Missions.sol\":1359:1368  s_stakers */\n      0x05\n        /* \"contracts/Missions.sol\":1359:1377  s_stakers[tokenID] */\n      0x00\n        /* \"contracts/Missions.sol\":1369:1376  tokenID */\n      dup6\n        /* \"contracts/Missions.sol\":1359:1377  s_stakers[tokenID] */\n      dup2\n      mstore\n      0x20\n      add\n      swap1\n      dup2\n      mstore\n      0x20\n      add\n      0x00\n      keccak256\n      0x00\n        /* \"contracts/Missions.sol\":1359:1388  s_stakers[tokenID] = operator */\n      0x0100\n      exp\n      dup2\n      sload\n      dup2\n      0xffffffffffffffffffffffffffffffffffffffff\n      mul\n      not\n      and\n      swap1\n      dup4\n      0xffffffffffffffffffffffffffffffffffffffff\n      and\n      mul\n      or\n      swap1\n      sstore\n      pop\n        /* \"contracts/Missions.sol\":1406:1436  this.onERC721Received.selector */\n      shl(0xe0, 0x401405e2)\n        /* \"contracts/Missions.sol\":1399:1436  return this.onERC721Received.selector */\n      swap1\n      pop\n        /* \"contracts/Missions.sol\":1130:1444  function onERC721Received(address collection, address _operator, address _nftcontract, uint256 tokenID, bytes memory) public virtual returns (bytes4) {\r... */\n      swap6\n      swap5\n      pop\n      pop\n      pop\n      pop\n      pop\n      jump\t// out\n        /* \"contracts/Missions.sol\":895:1053  function getStakes(uint256 _tokenID) public view returns (address add, uint256 time){\r... */\n    tag_21:\n        /* \"contracts/Missions.sol\":953:964  address add */\n      0x00\n        /* \"contracts/Missions.sol\":966:978  uint256 time */\n      dup1\n        /* \"contracts/Missions.sol\":998:1007  s_stakers */\n      0x05\n        /* \"contracts/Missions.sol\":998:1017  s_stakers[_tokenID] */\n      0x00\n        /* \"contracts/Missions.sol\":1008:1016  _tokenID */\n      dup5\n        /* \"contracts/Missions.sol\":998:1017  s_stakers[_tokenID] */\n      dup2\n      mstore\n      0x20\n      add\n      swap1\n      dup2\n      mstore\n      0x20\n      add\n      0x00\n      keccak256\n      0x00\n      swap1\n      sload\n      swap1\n      0x0100\n      exp\n      swap1\n      div\n      0xffffffffffffffffffffffffffffffffffffffff\n      and\n        /* \"contracts/Missions.sol\":1019:1034  s_missionTimers */\n      0x06\n        /* \"contracts/Missions.sol\":1019:1044  s_missionTimers[_tokenID] */\n      0x00\n        /* \"contracts/Missions.sol\":1035:1043  _tokenID */\n      dup6\n        /* \"contracts/Missions.sol\":1019:1044  s_missionTimers[_tokenID] */\n      dup2\n      mstore\n      0x20\n      add\n      swap1\n      dup2\n      mstore\n      0x20\n      add\n      0x00\n      keccak256\n      sload\n        /* \"contracts/Missions.sol\":990:1045  return (s_stakers[_tokenID], s_missionTimers[_tokenID]) */\n      swap2\n      pop\n      swap2\n      pop\n        /* \"contracts/Missions.sol\":895:1053  function getStakes(uint256 _tokenID) public view returns (address add, uint256 time){\r... */\n      swap2\n      pop\n      swap2\n      jump\t// out\n        /* \"contracts/Missions.sol\":1059:1082  address public operator */\n    tag_25:\n      0x07\n      0x00\n      swap1\n      sload\n      swap1\n      0x0100\n      exp\n      swap1\n      div\n      0xffffffffffffffffffffffffffffffffffffffff\n      and\n      dup2\n      jump\t// out\n        /* \"contracts/Missions.sol\":488:519  address public parentNFTAddress */\n    tag_29:\n      0x04\n      0x00\n      swap1\n      sload\n      swap1\n      0x0100\n      exp\n      swap1\n      div\n      0xffffffffffffffffffffffffffffffffffffffff\n      and\n      dup2\n      jump\t// out\n        /* \"contracts/Missions.sol\":1089:1115  address public nftcontract */\n    tag_32:\n      0x08\n      0x00\n      swap1\n      sload\n      swap1\n      0x0100\n      exp\n      swap1\n      div\n      0xffffffffffffffffffffffffffffffffffffffff\n      and\n      dup2\n      jump\t// out\n        /* \"contracts/Missions.sol\":384:409  IERC20 public parentToken */\n    tag_35:\n      0x01\n      0x00\n      swap1\n      sload\n      swap1\n      0x0100\n      exp\n      swap1\n      div\n      0xffffffffffffffffffffffffffffffffffffffff\n      and\n      dup2\n      jump\t// out\n        /* \"contracts/Missions.sol\":416:440  IERC721 public parentNFT */\n    tag_39:\n      0x02\n      0x00\n      swap1\n      sload\n      swap1\n      0x0100\n      exp\n      swap1\n      div\n      0xffffffffffffffffffffffffffffffffffffffff\n      and\n      dup2\n      jump\t// out\n        /* \"contracts/Missions.sol\":447:481  INFTGame public parentNftFunctions */\n    tag_43:\n      0x03\n      0x00\n      swap1\n      sload\n      swap1\n      0x0100\n      exp\n      swap1\n      div\n      0xffffffffffffffffffffffffffffffffffffffff\n      and\n      dup2\n      jump\t// out\n        /* \"#utility.yul\":7:417   */\n    tag_49:\n        /* \"#utility.yul\":84:89   */\n      0x00\n        /* \"#utility.yul\":109:174   */\n      tag_51\n        /* \"#utility.yul\":125:173   */\n      tag_52\n        /* \"#utility.yul\":166:172   */\n      dup5\n        /* \"#utility.yul\":125:173   */\n      tag_53\n      jump\t// in\n    tag_52:\n        /* \"#utility.yul\":109:174   */\n      tag_54\n      jump\t// in\n    tag_51:\n        /* \"#utility.yul\":100:174   */\n      swap1\n      pop\n        /* \"#utility.yul\":197:203   */\n      dup3\n        /* \"#utility.yul\":190:195   */\n      dup2\n        /* \"#utility.yul\":183:204   */\n      mstore\n        /* \"#utility.yul\":235:239   */\n      0x20\n        /* \"#utility.yul\":228:233   */\n      dup2\n        /* \"#utility.yul\":224:240   */\n      add\n        /* \"#utility.yul\":273:276   */\n      dup5\n        /* \"#utility.yul\":264:270   */\n      dup5\n        /* \"#utility.yul\":259:262   */\n      dup5\n        /* \"#utility.yul\":255:271   */\n      add\n        /* \"#utility.yul\":252:277   */\n      gt\n        /* \"#utility.yul\":249:361   */\n      iszero\n      tag_55\n      jumpi\n        /* \"#utility.yul\":280:359   */\n      tag_56\n      tag_57\n      jump\t// in\n    tag_56:\n        /* \"#utility.yul\":249:361   */\n    tag_55:\n        /* \"#utility.yul\":370:411   */\n      tag_58\n        /* \"#utility.yul\":404:410   */\n      dup5\n        /* \"#utility.yul\":399:402   */\n      dup3\n        /* \"#utility.yul\":394:397   */\n      dup6\n        /* \"#utility.yul\":370:411   */\n      tag_59\n      jump\t// in\n    tag_58:\n        /* \"#utility.yul\":90:417   */\n      pop\n        /* \"#utility.yul\":7:417   */\n      swap4\n      swap3\n      pop\n      pop\n      pop\n      jump\t// out\n        /* \"#utility.yul\":423:562   */\n    tag_60:\n        /* \"#utility.yul\":469:474   */\n      0x00\n        /* \"#utility.yul\":507:513   */\n      dup2\n        /* \"#utility.yul\":494:514   */\n      calldataload\n        /* \"#utility.yul\":485:514   */\n      swap1\n      pop\n        /* \"#utility.yul\":523:556   */\n      tag_62\n        /* \"#utility.yul\":550:555   */\n      dup2\n        /* \"#utility.yul\":523:556   */\n      tag_63\n      jump\t// in\n    tag_62:\n        /* \"#utility.yul\":423:562   */\n      swap3\n      swap2\n      pop\n      pop\n      jump\t// out\n        /* \"#utility.yul\":581:919   */\n    tag_64:\n        /* \"#utility.yul\":636:641   */\n      0x00\n        /* \"#utility.yul\":685:688   */\n      dup3\n        /* \"#utility.yul\":678:682   */\n      0x1f\n        /* \"#utility.yul\":670:676   */\n      dup4\n        /* \"#utility.yul\":666:683   */\n      add\n        /* \"#utility.yul\":662:689   */\n      slt\n        /* \"#utility.yul\":652:774   */\n      tag_66\n      jumpi\n        /* \"#utility.yul\":693:772   */\n      tag_67\n      tag_68\n      jump\t// in\n    tag_67:\n        /* \"#utility.yul\":652:774   */\n    tag_66:\n        /* \"#utility.yul\":810:816   */\n      dup2\n        /* \"#utility.yul\":797:817   */\n      calldataload\n        /* \"#utility.yul\":835:913   */\n      tag_69\n        /* \"#utility.yul\":909:912   */\n      dup5\n        /* \"#utility.yul\":901:907   */\n      dup3\n        /* \"#utility.yul\":894:898   */\n      0x20\n        /* \"#utility.yul\":886:892   */\n      dup7\n        /* \"#utility.yul\":882:899   */\n      add\n        /* \"#utility.yul\":835:913   */\n      tag_49\n      jump\t// in\n    tag_69:\n        /* \"#utility.yul\":826:913   */\n      swap2\n      pop\n        /* \"#utility.yul\":642:919   */\n      pop\n        /* \"#utility.yul\":581:919   */\n      swap3\n      swap2\n      pop\n      pop\n      jump\t// out\n        /* \"#utility.yul\":925:1064   */\n    tag_70:\n        /* \"#utility.yul\":971:976   */\n      0x00\n        /* \"#utility.yul\":1009:1015   */\n      dup2\n        /* \"#utility.yul\":996:1016   */\n      calldataload\n        /* \"#utility.yul\":987:1016   */\n      swap1\n      pop\n        /* \"#utility.yul\":1025:1058   */\n      tag_72\n        /* \"#utility.yul\":1052:1057   */\n      dup2\n        /* \"#utility.yul\":1025:1058   */\n      tag_73\n      jump\t// in\n    tag_72:\n        /* \"#utility.yul\":925:1064   */\n      swap3\n      swap2\n      pop\n      pop\n      jump\t// out\n        /* \"#utility.yul\":1070:2159   */\n    tag_14:\n        /* \"#utility.yul\":1174:1180   */\n      0x00\n        /* \"#utility.yul\":1182:1188   */\n      dup1\n        /* \"#utility.yul\":1190:1196   */\n      0x00\n        /* \"#utility.yul\":1198:1204   */\n      dup1\n        /* \"#utility.yul\":1206:1212   */\n      0x00\n        /* \"#utility.yul\":1255:1258   */\n      0xa0\n        /* \"#utility.yul\":1243:1252   */\n      dup7\n        /* \"#utility.yul\":1234:1241   */\n      dup9\n        /* \"#utility.yul\":1230:1253   */\n      sub\n        /* \"#utility.yul\":1226:1259   */\n      slt\n        /* \"#utility.yul\":1223:1343   */\n      iszero\n      tag_75\n      jumpi\n        /* \"#utility.yul\":1262:1341   */\n      tag_76\n      tag_77\n      jump\t// in\n    tag_76:\n        /* \"#utility.yul\":1223:1343   */\n    tag_75:\n        /* \"#utility.yul\":1382:1383   */\n      0x00\n        /* \"#utility.yul\":1407:1460   */\n      tag_78\n        /* \"#utility.yul\":1452:1459   */\n      dup9\n        /* \"#utility.yul\":1443:1449   */\n      dup3\n        /* \"#utility.yul\":1432:1441   */\n      dup10\n        /* \"#utility.yul\":1428:1450   */\n      add\n        /* \"#utility.yul\":1407:1460   */\n      tag_60\n      jump\t// in\n    tag_78:\n        /* \"#utility.yul\":1397:1460   */\n      swap6\n      pop\n        /* \"#utility.yul\":1353:1470   */\n      pop\n        /* \"#utility.yul\":1509:1511   */\n      0x20\n        /* \"#utility.yul\":1535:1588   */\n      tag_79\n        /* \"#utility.yul\":1580:1587   */\n      dup9\n        /* \"#utility.yul\":1571:1577   */\n      dup3\n        /* \"#utility.yul\":1560:1569   */\n      dup10\n        /* \"#utility.yul\":1556:1578   */\n      add\n        /* \"#utility.yul\":1535:1588   */\n      tag_60\n      jump\t// in\n    tag_79:\n        /* \"#utility.yul\":1525:1588   */\n      swap5\n      pop\n        /* \"#utility.yul\":1480:1598   */\n      pop\n        /* \"#utility.yul\":1637:1639   */\n      0x40\n        /* \"#utility.yul\":1663:1716   */\n      tag_80\n        /* \"#utility.yul\":1708:1715   */\n      dup9\n        /* \"#utility.yul\":1699:1705   */\n      dup3\n        /* \"#utility.yul\":1688:1697   */\n      dup10\n        /* \"#utility.yul\":1684:1706   */\n      add\n        /* \"#utility.yul\":1663:1716   */\n      tag_60\n      jump\t// in\n    tag_80:\n        /* \"#utility.yul\":1653:1716   */\n      swap4\n      pop\n        /* \"#utility.yul\":1608:1726   */\n      pop\n        /* \"#utility.yul\":1765:1767   */\n      0x60\n        /* \"#utility.yul\":1791:1844   */\n      tag_81\n        /* \"#utility.yul\":1836:1843   */\n      dup9\n        /* \"#utility.yul\":1827:1833   */\n      dup3\n        /* \"#utility.yul\":1816:1825   */\n      dup10\n        /* \"#utility.yul\":1812:1834   */\n      add\n        /* \"#utility.yul\":1791:1844   */\n      tag_70\n      jump\t// in\n    tag_81:\n        /* \"#utility.yul\":1781:1844   */\n      swap3\n      pop\n        /* \"#utility.yul\":1736:1854   */\n      pop\n        /* \"#utility.yul\":1921:1924   */\n      0x80\n        /* \"#utility.yul\":1910:1919   */\n      dup7\n        /* \"#utility.yul\":1906:1925   */\n      add\n        /* \"#utility.yul\":1893:1926   */\n      calldataload\n        /* \"#utility.yul\":1953:1971   */\n      0xffffffffffffffff\n        /* \"#utility.yul\":1945:1951   */\n      dup2\n        /* \"#utility.yul\":1942:1972   */\n      gt\n        /* \"#utility.yul\":1939:2056   */\n      iszero\n      tag_82\n      jumpi\n        /* \"#utility.yul\":1975:2054   */\n      tag_83\n      tag_84\n      jump\t// in\n    tag_83:\n        /* \"#utility.yul\":1939:2056   */\n    tag_82:\n        /* \"#utility.yul\":2080:2142   */\n      tag_85\n        /* \"#utility.yul\":2134:2141   */\n      dup9\n        /* \"#utility.yul\":2125:2131   */\n      dup3\n        /* \"#utility.yul\":2114:2123   */\n      dup10\n        /* \"#utility.yul\":2110:2132   */\n      add\n        /* \"#utility.yul\":2080:2142   */\n      tag_64\n      jump\t// in\n    tag_85:\n        /* \"#utility.yul\":2070:2142   */\n      swap2\n      pop\n        /* \"#utility.yul\":1864:2152   */\n      pop\n        /* \"#utility.yul\":1070:2159   */\n      swap3\n      swap6\n      pop\n      swap3\n      swap6\n      swap1\n      swap4\n      pop\n      jump\t// out\n        /* \"#utility.yul\":2165:2494   */\n    tag_20:\n        /* \"#utility.yul\":2224:2230   */\n      0x00\n        /* \"#utility.yul\":2273:2275   */\n      0x20\n        /* \"#utility.yul\":2261:2270   */\n      dup3\n        /* \"#utility.yul\":2252:2259   */\n      dup5\n        /* \"#utility.yul\":2248:2271   */\n      sub\n        /* \"#utility.yul\":2244:2276   */\n      slt\n        /* \"#utility.yul\":2241:2360   */\n      iszero\n      tag_87\n      jumpi\n        /* \"#utility.yul\":2279:2358   */\n      tag_88\n      tag_77\n      jump\t// in\n    tag_88:\n        /* \"#utility.yul\":2241:2360   */\n    tag_87:\n        /* \"#utility.yul\":2399:2400   */\n      0x00\n        /* \"#utility.yul\":2424:2477   */\n      tag_89\n        /* \"#utility.yul\":2469:2476   */\n      dup5\n        /* \"#utility.yul\":2460:2466   */\n      dup3\n        /* \"#utility.yul\":2449:2458   */\n      dup6\n        /* \"#utility.yul\":2445:2467   */\n      add\n        /* \"#utility.yul\":2424:2477   */\n      tag_70\n      jump\t// in\n    tag_89:\n        /* \"#utility.yul\":2414:2477   */\n      swap2\n      pop\n        /* \"#utility.yul\":2370:2487   */\n      pop\n        /* \"#utility.yul\":2165:2494   */\n      swap3\n      swap2\n      pop\n      pop\n      jump\t// out\n        /* \"#utility.yul\":2500:2618   */\n    tag_90:\n        /* \"#utility.yul\":2587:2611   */\n      tag_92\n        /* \"#utility.yul\":2605:2610   */\n      dup2\n        /* \"#utility.yul\":2587:2611   */\n      tag_93\n      jump\t// in\n    tag_92:\n        /* \"#utility.yul\":2582:2585   */\n      dup3\n        /* \"#utility.yul\":2575:2612   */\n      mstore\n        /* \"#utility.yul\":2500:2618   */\n      pop\n      pop\n      jump\t// out\n        /* \"#utility.yul\":2624:2739   */\n    tag_94:\n        /* \"#utility.yul\":2709:2732   */\n      tag_96\n        /* \"#utility.yul\":2726:2731   */\n      dup2\n        /* \"#utility.yul\":2709:2732   */\n      tag_97\n      jump\t// in\n    tag_96:\n        /* \"#utility.yul\":2704:2707   */\n      dup3\n        /* \"#utility.yul\":2697:2733   */\n      mstore\n        /* \"#utility.yul\":2624:2739   */\n      pop\n      pop\n      jump\t// out\n        /* \"#utility.yul\":2745:2904   */\n    tag_98:\n        /* \"#utility.yul\":2846:2897   */\n      tag_100\n        /* \"#utility.yul\":2891:2896   */\n      dup2\n        /* \"#utility.yul\":2846:2897   */\n      tag_101\n      jump\t// in\n    tag_100:\n        /* \"#utility.yul\":2841:2844   */\n      dup3\n        /* \"#utility.yul\":2834:2898   */\n      mstore\n        /* \"#utility.yul\":2745:2904   */\n      pop\n      pop\n      jump\t// out\n        /* \"#utility.yul\":2910:3071   */\n    tag_102:\n        /* \"#utility.yul\":3012:3064   */\n      tag_104\n        /* \"#utility.yul\":3058:3063   */\n      dup2\n        /* \"#utility.yul\":3012:3064   */\n      tag_105\n      jump\t// in\n    tag_104:\n        /* \"#utility.yul\":3007:3010   */\n      dup3\n        /* \"#utility.yul\":3000:3065   */\n      mstore\n        /* \"#utility.yul\":2910:3071   */\n      pop\n      pop\n      jump\t// out\n        /* \"#utility.yul\":3077:3240   */\n    tag_106:\n        /* \"#utility.yul\":3180:3233   */\n      tag_108\n        /* \"#utility.yul\":3227:3232   */\n      dup2\n        /* \"#utility.yul\":3180:3233   */\n      tag_109\n      jump\t// in\n    tag_108:\n        /* \"#utility.yul\":3175:3178   */\n      dup3\n        /* \"#utility.yul\":3168:3234   */\n      mstore\n        /* \"#utility.yul\":3077:3240   */\n      pop\n      pop\n      jump\t// out\n        /* \"#utility.yul\":3246:3364   */\n    tag_110:\n        /* \"#utility.yul\":3333:3357   */\n      tag_112\n        /* \"#utility.yul\":3351:3356   */\n      dup2\n        /* \"#utility.yul\":3333:3357   */\n      tag_113\n      jump\t// in\n    tag_112:\n        /* \"#utility.yul\":3328:3331   */\n      dup3\n        /* \"#utility.yul\":3321:3358   */\n      mstore\n        /* \"#utility.yul\":3246:3364   */\n      pop\n      pop\n      jump\t// out\n        /* \"#utility.yul\":3370:3592   */\n    tag_27:\n        /* \"#utility.yul\":3463:3467   */\n      0x00\n        /* \"#utility.yul\":3501:3503   */\n      0x20\n        /* \"#utility.yul\":3490:3499   */\n      dup3\n        /* \"#utility.yul\":3486:3504   */\n      add\n        /* \"#utility.yul\":3478:3504   */\n      swap1\n      pop\n        /* \"#utility.yul\":3514:3585   */\n      tag_115\n        /* \"#utility.yul\":3582:3583   */\n      0x00\n        /* \"#utility.yul\":3571:3580   */\n      dup4\n        /* \"#utility.yul\":3567:3584   */\n      add\n        /* \"#utility.yul\":3558:3564   */\n      dup5\n        /* \"#utility.yul\":3514:3585   */\n      tag_90\n      jump\t// in\n    tag_115:\n        /* \"#utility.yul\":3370:3592   */\n      swap3\n      swap2\n      pop\n      pop\n      jump\t// out\n        /* \"#utility.yul\":3598:3930   */\n    tag_23:\n        /* \"#utility.yul\":3719:3723   */\n      0x00\n        /* \"#utility.yul\":3757:3759   */\n      0x40\n        /* \"#utility.yul\":3746:3755   */\n      dup3\n        /* \"#utility.yul\":3742:3760   */\n      add\n        /* \"#utility.yul\":3734:3760   */\n      swap1\n      pop\n        /* \"#utility.yul\":3770:3841   */\n      tag_117\n        /* \"#utility.yul\":3838:3839   */\n      0x00\n        /* \"#utility.yul\":3827:3836   */\n      dup4\n        /* \"#utility.yul\":3823:3840   */\n      add\n        /* \"#utility.yul\":3814:3820   */\n      dup6\n        /* \"#utility.yul\":3770:3841   */\n      tag_90\n      jump\t// in\n    tag_117:\n        /* \"#utility.yul\":3851:3923   */\n      tag_118\n        /* \"#utility.yul\":3919:3921   */\n      0x20\n        /* \"#utility.yul\":3908:3917   */\n      dup4\n        /* \"#utility.yul\":3904:3922   */\n      add\n        /* \"#utility.yul\":3895:3901   */\n      dup5\n        /* \"#utility.yul\":3851:3923   */\n      tag_110\n      jump\t// in\n    tag_118:\n        /* \"#utility.yul\":3598:3930   */\n      swap4\n      swap3\n      pop\n      pop\n      pop\n      jump\t// out\n        /* \"#utility.yul\":3936:4154   */\n    tag_17:\n        /* \"#utility.yul\":4027:4031   */\n      0x00\n        /* \"#utility.yul\":4065:4067   */\n      0x20\n        /* \"#utility.yul\":4054:4063   */\n      dup3\n        /* \"#utility.yul\":4050:4068   */\n      add\n        /* \"#utility.yul\":4042:4068   */\n      swap1\n      pop\n        /* \"#utility.yul\":4078:4147   */\n      tag_120\n        /* \"#utility.yul\":4144:4145   */\n      0x00\n        /* \"#utility.yul\":4133:4142   */\n      dup4\n        /* \"#utility.yul\":4129:4146   */\n      add\n        /* \"#utility.yul\":4120:4126   */\n      dup5\n        /* \"#utility.yul\":4078:4147   */\n      tag_94\n      jump\t// in\n    tag_120:\n        /* \"#utility.yul\":3936:4154   */\n      swap3\n      swap2\n      pop\n      pop\n      jump\t// out\n        /* \"#utility.yul\":4160:4410   */\n    tag_37:\n        /* \"#utility.yul\":4267:4271   */\n      0x00\n        /* \"#utility.yul\":4305:4307   */\n      0x20\n        /* \"#utility.yul\":4294:4303   */\n      dup3\n        /* \"#utility.yul\":4290:4308   */\n      add\n        /* \"#utility.yul\":4282:4308   */\n      swap1\n      pop\n        /* \"#utility.yul\":4318:4403   */\n      tag_122\n        /* \"#utility.yul\":4400:4401   */\n      0x00\n        /* \"#utility.yul\":4389:4398   */\n      dup4\n        /* \"#utility.yul\":4385:4402   */\n      add\n        /* \"#utility.yul\":4376:4382   */\n      dup5\n        /* \"#utility.yul\":4318:4403   */\n      tag_98\n      jump\t// in\n    tag_122:\n        /* \"#utility.yul\":4160:4410   */\n      swap3\n      swap2\n      pop\n      pop\n      jump\t// out\n        /* \"#utility.yul\":4416:4668   */\n    tag_41:\n        /* \"#utility.yul\":4524:4528   */\n      0x00\n        /* \"#utility.yul\":4562:4564   */\n      0x20\n        /* \"#utility.yul\":4551:4560   */\n      dup3\n        /* \"#utility.yul\":4547:4565   */\n      add\n        /* \"#utility.yul\":4539:4565   */\n      swap1\n      pop\n        /* \"#utility.yul\":4575:4661   */\n      tag_124\n        /* \"#utility.yul\":4658:4659   */\n      0x00\n        /* \"#utility.yul\":4647:4656   */\n      dup4\n        /* \"#utility.yul\":4643:4660   */\n      add\n        /* \"#utility.yul\":4634:4640   */\n      dup5\n        /* \"#utility.yul\":4575:4661   */\n      tag_102\n      jump\t// in\n    tag_124:\n        /* \"#utility.yul\":4416:4668   */\n      swap3\n      swap2\n      pop\n      pop\n      jump\t// out\n        /* \"#utility.yul\":4674:4928   */\n    tag_45:\n        /* \"#utility.yul\":4783:4787   */\n      0x00\n        /* \"#utility.yul\":4821:4823   */\n      0x20\n        /* \"#utility.yul\":4810:4819   */\n      dup3\n        /* \"#utility.yul\":4806:4824   */\n      add\n        /* \"#utility.yul\":4798:4824   */\n      swap1\n      pop\n        /* \"#utility.yul\":4834:4921   */\n      tag_126\n        /* \"#utility.yul\":4918:4919   */\n      0x00\n        /* \"#utility.yul\":4907:4916   */\n      dup4\n        /* \"#utility.yul\":4903:4920   */\n      add\n        /* \"#utility.yul\":4894:4900   */\n      dup5\n        /* \"#utility.yul\":4834:4921   */\n      tag_106\n      jump\t// in\n    tag_126:\n        /* \"#utility.yul\":4674:4928   */\n      swap3\n      swap2\n      pop\n      pop\n      jump\t// out\n        /* \"#utility.yul\":4934:5063   */\n    tag_54:\n        /* \"#utility.yul\":4968:4974   */\n      0x00\n        /* \"#utility.yul\":4995:5015   */\n      tag_128\n      tag_129\n      jump\t// in\n    tag_128:\n        /* \"#utility.yul\":4985:5015   */\n      swap1\n      pop\n        /* \"#utility.yul\":5024:5057   */\n      tag_130\n        /* \"#utility.yul\":5052:5056   */\n      dup3\n        /* \"#utility.yul\":5044:5050   */\n      dup3\n        /* \"#utility.yul\":5024:5057   */\n      tag_131\n      jump\t// in\n    tag_130:\n        /* \"#utility.yul\":4934:5063   */\n      swap2\n      swap1\n      pop\n      jump\t// out\n        /* \"#utility.yul\":5069:5144   */\n    tag_129:\n        /* \"#utility.yul\":5102:5108   */\n      0x00\n        /* \"#utility.yul\":5135:5137   */\n      0x40\n        /* \"#utility.yul\":5129:5138   */\n      mload\n        /* \"#utility.yul\":5119:5138   */\n      swap1\n      pop\n        /* \"#utility.yul\":5069:5144   */\n      swap1\n      jump\t// out\n        /* \"#utility.yul\":5150:5457   */\n    tag_53:\n        /* \"#utility.yul\":5211:5215   */\n      0x00\n        /* \"#utility.yul\":5301:5319   */\n      0xffffffffffffffff\n        /* \"#utility.yul\":5293:5299   */\n      dup3\n        /* \"#utility.yul\":5290:5320   */\n      gt\n        /* \"#utility.yul\":5287:5343   */\n      iszero\n      tag_134\n      jumpi\n        /* \"#utility.yul\":5323:5341   */\n      tag_135\n      tag_136\n      jump\t// in\n    tag_135:\n        /* \"#utility.yul\":5287:5343   */\n    tag_134:\n        /* \"#utility.yul\":5361:5390   */\n      tag_137\n        /* \"#utility.yul\":5383:5389   */\n      dup3\n        /* \"#utility.yul\":5361:5390   */\n      tag_138\n      jump\t// in\n    tag_137:\n        /* \"#utility.yul\":5353:5390   */\n      swap1\n      pop\n        /* \"#utility.yul\":5445:5449   */\n      0x20\n        /* \"#utility.yul\":5439:5443   */\n      dup2\n        /* \"#utility.yul\":5435:5450   */\n      add\n        /* \"#utility.yul\":5427:5450   */\n      swap1\n      pop\n        /* \"#utility.yul\":5150:5457   */\n      swap2\n      swap1\n      pop\n      jump\t// out\n        /* \"#utility.yul\":5463:5559   */\n    tag_93:\n        /* \"#utility.yul\":5500:5507   */\n      0x00\n        /* \"#utility.yul\":5529:5553   */\n      tag_140\n        /* \"#utility.yul\":5547:5552   */\n      dup3\n        /* \"#utility.yul\":5529:5553   */\n      tag_141\n      jump\t// in\n    tag_140:\n        /* \"#utility.yul\":5518:5553   */\n      swap1\n      pop\n        /* \"#utility.yul\":5463:5559   */\n      swap2\n      swap1\n      pop\n      jump\t// out\n        /* \"#utility.yul\":5565:5714   */\n    tag_97:\n        /* \"#utility.yul\":5601:5608   */\n      0x00\n        /* \"#utility.yul\":5641:5707   */\n      0xffffffff00000000000000000000000000000000000000000000000000000000\n        /* \"#utility.yul\":5634:5639   */\n      dup3\n        /* \"#utility.yul\":5630:5708   */\n      and\n        /* \"#utility.yul\":5619:5708   */\n      swap1\n      pop\n        /* \"#utility.yul\":5565:5714   */\n      swap2\n      swap1\n      pop\n      jump\t// out\n        /* \"#utility.yul\":5720:5846   */\n    tag_141:\n        /* \"#utility.yul\":5757:5764   */\n      0x00\n        /* \"#utility.yul\":5797:5839   */\n      0xffffffffffffffffffffffffffffffffffffffff\n        /* \"#utility.yul\":5790:5795   */\n      dup3\n        /* \"#utility.yul\":5786:5840   */\n      and\n        /* \"#utility.yul\":5775:5840   */\n      swap1\n      pop\n        /* \"#utility.yul\":5720:5846   */\n      swap2\n      swap1\n      pop\n      jump\t// out\n        /* \"#utility.yul\":5852:5929   */\n    tag_113:\n        /* \"#utility.yul\":5889:5896   */\n      0x00\n        /* \"#utility.yul\":5918:5923   */\n      dup2\n        /* \"#utility.yul\":5907:5923   */\n      swap1\n      pop\n        /* \"#utility.yul\":5852:5929   */\n      swap2\n      swap1\n      pop\n      jump\t// out\n        /* \"#utility.yul\":5935:6075   */\n    tag_101:\n        /* \"#utility.yul\":5999:6008   */\n      0x00\n        /* \"#utility.yul\":6032:6069   */\n      tag_146\n        /* \"#utility.yul\":6063:6068   */\n      dup3\n        /* \"#utility.yul\":6032:6069   */\n      tag_147\n      jump\t// in\n    tag_146:\n        /* \"#utility.yul\":6019:6069   */\n      swap1\n      pop\n        /* \"#utility.yul\":5935:6075   */\n      swap2\n      swap1\n      pop\n      jump\t// out\n        /* \"#utility.yul\":6081:6222   */\n    tag_105:\n        /* \"#utility.yul\":6146:6155   */\n      0x00\n        /* \"#utility.yul\":6179:6216   */\n      tag_149\n        /* \"#utility.yul\":6210:6215   */\n      dup3\n        /* \"#utility.yul\":6179:6216   */\n      tag_147\n      jump\t// in\n    tag_149:\n        /* \"#utility.yul\":6166:6216   */\n      swap1\n      pop\n        /* \"#utility.yul\":6081:6222   */\n      swap2\n      swap1\n      pop\n      jump\t// out\n        /* \"#utility.yul\":6228:6370   */\n    tag_109:\n        /* \"#utility.yul\":6294:6303   */\n      0x00\n        /* \"#utility.yul\":6327:6364   */\n      tag_151\n        /* \"#utility.yul\":6358:6363   */\n      dup3\n        /* \"#utility.yul\":6327:6364   */\n      tag_147\n      jump\t// in\n    tag_151:\n        /* \"#utility.yul\":6314:6364   */\n      swap1\n      pop\n        /* \"#utility.yul\":6228:6370   */\n      swap2\n      swap1\n      pop\n      jump\t// out\n        /* \"#utility.yul\":6376:6502   */\n    tag_147:\n        /* \"#utility.yul\":6426:6435   */\n      0x00\n        /* \"#utility.yul\":6459:6496   */\n      tag_153\n        /* \"#utility.yul\":6490:6495   */\n      dup3\n        /* \"#utility.yul\":6459:6496   */\n      tag_154\n      jump\t// in\n    tag_153:\n        /* \"#utility.yul\":6446:6496   */\n      swap1\n      pop\n        /* \"#utility.yul\":6376:6502   */\n      swap2\n      swap1\n      pop\n      jump\t// out\n        /* \"#utility.yul\":6508:6621   */\n    tag_154:\n        /* \"#utility.yul\":6558:6567   */\n      0x00\n        /* \"#utility.yul\":6591:6615   */\n      tag_156\n        /* \"#utility.yul\":6609:6614   */\n      dup3\n        /* \"#utility.yul\":6591:6615   */\n      tag_141\n      jump\t// in\n    tag_156:\n        /* \"#utility.yul\":6578:6615   */\n      swap1\n      pop\n        /* \"#utility.yul\":6508:6621   */\n      swap2\n      swap1\n      pop\n      jump\t// out\n        /* \"#utility.yul\":6627:6781   */\n    tag_59:\n        /* \"#utility.yul\":6711:6717   */\n      dup3\n        /* \"#utility.yul\":6706:6709   */\n      dup2\n        /* \"#utility.yul\":6701:6704   */\n      dup4\n        /* \"#utility.yul\":6688:6718   */\n      calldatacopy\n        /* \"#utility.yul\":6773:6774   */\n      0x00\n        /* \"#utility.yul\":6764:6770   */\n      dup4\n        /* \"#utility.yul\":6759:6762   */\n      dup4\n        /* \"#utility.yul\":6755:6771   */\n      add\n        /* \"#utility.yul\":6748:6775   */\n      mstore\n        /* \"#utility.yul\":6627:6781   */\n      pop\n      pop\n      pop\n      jump\t// out\n        /* \"#utility.yul\":6787:7068   */\n    tag_131:\n        /* \"#utility.yul\":6870:6897   */\n      tag_159\n        /* \"#utility.yul\":6892:6896   */\n      dup3\n        /* \"#utility.yul\":6870:6897   */\n      tag_138\n      jump\t// in\n    tag_159:\n        /* \"#utility.yul\":6862:6868   */\n      dup2\n        /* \"#utility.yul\":6858:6898   */\n      add\n        /* \"#utility.yul\":7000:7006   */\n      dup2\n        /* \"#utility.yul\":6988:6998   */\n      dup2\n        /* \"#utility.yul\":6985:7007   */\n      lt\n        /* \"#utility.yul\":6964:6982   */\n      0xffffffffffffffff\n        /* \"#utility.yul\":6952:6962   */\n      dup3\n        /* \"#utility.yul\":6949:6983   */\n      gt\n        /* \"#utility.yul\":6946:7008   */\n      or\n        /* \"#utility.yul\":6943:7031   */\n      iszero\n      tag_160\n      jumpi\n        /* \"#utility.yul\":7011:7029   */\n      tag_161\n      tag_136\n      jump\t// in\n    tag_161:\n        /* \"#utility.yul\":6943:7031   */\n    tag_160:\n        /* \"#utility.yul\":7051:7061   */\n      dup1\n        /* \"#utility.yul\":7047:7049   */\n      0x40\n        /* \"#utility.yul\":7040:7062   */\n      mstore\n        /* \"#utility.yul\":6830:7068   */\n      pop\n        /* \"#utility.yul\":6787:7068   */\n      pop\n      pop\n      jump\t// out\n        /* \"#utility.yul\":7074:7254   */\n    tag_136:\n        /* \"#utility.yul\":7122:7199   */\n      0x4e487b7100000000000000000000000000000000000000000000000000000000\n        /* \"#utility.yul\":7119:7120   */\n      0x00\n        /* \"#utility.yul\":7112:7200   */\n      mstore\n        /* \"#utility.yul\":7219:7223   */\n      0x41\n        /* \"#utility.yul\":7216:7217   */\n      0x04\n        /* \"#utility.yul\":7209:7224   */\n      mstore\n        /* \"#utility.yul\":7243:7247   */\n      0x24\n        /* \"#utility.yul\":7240:7241   */\n      0x00\n        /* \"#utility.yul\":7233:7248   */\n      revert\n        /* \"#utility.yul\":7260:7377   */\n    tag_68:\n        /* \"#utility.yul\":7369:7370   */\n      0x00\n        /* \"#utility.yul\":7366:7367   */\n      dup1\n        /* \"#utility.yul\":7359:7371   */\n      revert\n        /* \"#utility.yul\":7383:7500   */\n    tag_57:\n        /* \"#utility.yul\":7492:7493   */\n      0x00\n        /* \"#utility.yul\":7489:7490   */\n      dup1\n        /* \"#utility.yul\":7482:7494   */\n      revert\n        /* \"#utility.yul\":7506:7623   */\n    tag_84:\n        /* \"#utility.yul\":7615:7616   */\n      0x00\n        /* \"#utility.yul\":7612:7613   */\n      dup1\n        /* \"#utility.yul\":7605:7617   */\n      revert\n        /* \"#utility.yul\":7629:7746   */\n    tag_77:\n        /* \"#utility.yul\":7738:7739   */\n      0x00\n        /* \"#utility.yul\":7735:7736   */\n      dup1\n        /* \"#utility.yul\":7728:7740   */\n      revert\n        /* \"#utility.yul\":7752:7854   */\n    tag_138:\n        /* \"#utility.yul\":7793:7799   */\n      0x00\n        /* \"#utility.yul\":7844:7846   */\n      0x1f\n        /* \"#utility.yul\":7840:7847   */\n      not\n        /* \"#utility.yul\":7835:7837   */\n      0x1f\n        /* \"#utility.yul\":7828:7833   */\n      dup4\n        /* \"#utility.yul\":7824:7838   */\n      add\n        /* \"#utility.yul\":7820:7848   */\n      and\n        /* \"#utility.yul\":7810:7848   */\n      swap1\n      pop\n        /* \"#utility.yul\":7752:7854   */\n      swap2\n      swap1\n      pop\n      jump\t// out\n        /* \"#utility.yul\":7860:7982   */\n    tag_63:\n        /* \"#utility.yul\":7933:7957   */\n      tag_169\n        /* \"#utility.yul\":7951:7956   */\n      dup2\n        /* \"#utility.yul\":7933:7957   */\n      tag_93\n      jump\t// in\n    tag_169:\n        /* \"#utility.yul\":7926:7931   */\n      dup2\n        /* \"#utility.yul\":7923:7958   */\n      eq\n        /* \"#utility.yul\":7913:7976   */\n      tag_170\n      jumpi\n        /* \"#utility.yul\":7972:7973   */\n      0x00\n        /* \"#utility.yul\":7969:7970   */\n      dup1\n        /* \"#utility.yul\":7962:7974   */\n      revert\n        /* \"#utility.yul\":7913:7976   */\n    tag_170:\n        /* \"#utility.yul\":7860:7982   */\n      pop\n      jump\t// out\n        /* \"#utility.yul\":7988:8110   */\n    tag_73:\n        /* \"#utility.yul\":8061:8085   */\n      tag_172\n        /* \"#utility.yul\":8079:8084   */\n      dup2\n        /* \"#utility.yul\":8061:8085   */\n      tag_113\n      jump\t// in\n    tag_172:\n        /* \"#utility.yul\":8054:8059   */\n      dup2\n        /* \"#utility.yul\":8051:8086   */\n      eq\n        /* \"#utility.yul\":8041:8104   */\n      tag_173\n      jumpi\n        /* \"#utility.yul\":8100:8101   */\n      0x00\n        /* \"#utility.yul\":8097:8098   */\n      dup1\n        /* \"#utility.yul\":8090:8102   */\n      revert\n        /* \"#utility.yul\":8041:8104   */\n    tag_173:\n        /* \"#utility.yul\":7988:8110   */\n      pop\n      jump\t// out\n\n    auxdata: 0xa26469706673582212206bca565afda1a1bd9db540d009d879d13f8bc642d3aa27feb2f87c07681a5c4064736f6c63430008070033\n}\n",
				"bytecode": {
					"linkReferences": {},
					"object": "608060405234801561001057600080fd5b50604051610a54380380610a548339818101604052810190610032919061015a565b600160008190555081600260006101000a81548173ffffffffffffffffffffffffffffffffffffffff021916908373ffffffffffffffffffffffffffffffffffffffff16021790555081600360006101000a81548173ffffffffffffffffffffffffffffffffffffffff021916908373ffffffffffffffffffffffffffffffffffffffff16021790555080600160006101000a81548173ffffffffffffffffffffffffffffffffffffffff021916908373ffffffffffffffffffffffffffffffffffffffff16021790555081600460006101000a81548173ffffffffffffffffffffffffffffffffffffffff021916908373ffffffffffffffffffffffffffffffffffffffff16021790555050506101e8565b600081519050610154816101d1565b92915050565b60008060408385031215610171576101706101cc565b5b600061017f85828601610145565b925050602061019085828601610145565b9150509250929050565b60006101a5826101ac565b9050919050565b600073ffffffffffffffffffffffffffffffffffffffff82169050919050565b600080fd5b6101da8161019a565b81146101e557600080fd5b50565b61085d806101f76000396000f3fe608060405234801561001057600080fd5b50600436106100885760003560e01c80636a9315b31161005b5780636a9315b31461012a57806380a5400114610148578063b8e33fb214610166578063fead3d6e1461018457610088565b8063401405e21461008d578063472343b9146100bd578063570ca735146100ee57806366bb863b1461010c575b600080fd5b6100a760048036038101906100a2919061047f565b6101a2565b6040516100b491906105e1565b60405180910390f35b6100d760048036038101906100d29190610516565b6102ad565b6040516100e59291906105b8565b60405180910390f35b6100f6610301565b604051610103919061059d565b60405180910390f35b610114610327565b604051610121919061059d565b60405180910390f35b61013261034d565b60405161013f919061059d565b60405180910390f35b610150610373565b60405161015d91906105fc565b60405180910390f35b61016e610399565b60405161017b9190610617565b60405180910390f35b61018c6103bf565b6040516101999190610632565b60405180910390f35b600083600860006101000a81548173ffffffffffffffffffffffffffffffffffffffff021916908373ffffffffffffffffffffffffffffffffffffffff16021790555084600760006101000a81548173ffffffffffffffffffffffffffffffffffffffff021916908373ffffffffffffffffffffffffffffffffffffffff160217905550600760009054906101000a900473ffffffffffffffffffffffffffffffffffffffff166005600085815260200190815260200160002060006101000a81548173ffffffffffffffffffffffffffffffffffffffff021916908373ffffffffffffffffffffffffffffffffffffffff16021790555063401405e260e01b905095945050505050565b6000806005600084815260200190815260200160002060009054906101000a900473ffffffffffffffffffffffffffffffffffffffff16600660008581526020019081526020016000205491509150915091565b600760009054906101000a900473ffffffffffffffffffffffffffffffffffffffff1681565b600460009054906101000a900473ffffffffffffffffffffffffffffffffffffffff1681565b600860009054906101000a900473ffffffffffffffffffffffffffffffffffffffff1681565b600160009054906101000a900473ffffffffffffffffffffffffffffffffffffffff1681565b600260009054906101000a900473ffffffffffffffffffffffffffffffffffffffff1681565b600360009054906101000a900473ffffffffffffffffffffffffffffffffffffffff1681565b60006103f86103f384610672565b61064d565b905082815260208101848484011115610414576104136107d9565b5b61041f848285610765565b509392505050565b600081359050610436816107f9565b92915050565b600082601f830112610451576104506107d4565b5b81356104618482602086016103e5565b91505092915050565b60008135905061047981610810565b92915050565b600080600080600060a0868803121561049b5761049a6107e3565b5b60006104a988828901610427565b95505060206104ba88828901610427565b94505060406104cb88828901610427565b93505060606104dc8882890161046a565b925050608086013567ffffffffffffffff8111156104fd576104fc6107de565b5b6105098882890161043c565b9150509295509295909350565b60006020828403121561052c5761052b6107e3565b5b600061053a8482850161046a565b91505092915050565b61054c816106a3565b82525050565b61055b816106b5565b82525050565b61056a8161070b565b82525050565b6105798161071d565b82525050565b6105888161072f565b82525050565b61059781610701565b82525050565b60006020820190506105b26000830184610543565b92915050565b60006040820190506105cd6000830185610543565b6105da602083018461058e565b9392505050565b60006020820190506105f66000830184610552565b92915050565b60006020820190506106116000830184610561565b92915050565b600060208201905061062c6000830184610570565b92915050565b6000602082019050610647600083018461057f565b92915050565b6000610657610668565b90506106638282610774565b919050565b6000604051905090565b600067ffffffffffffffff82111561068d5761068c6107a5565b5b610696826107e8565b9050602081019050919050565b60006106ae826106e1565b9050919050565b60007fffffffff0000000000000000000000000000000000000000000000000000000082169050919050565b600073ffffffffffffffffffffffffffffffffffffffff82169050919050565b6000819050919050565b600061071682610741565b9050919050565b600061072882610741565b9050919050565b600061073a82610741565b9050919050565b600061074c82610753565b9050919050565b600061075e826106e1565b9050919050565b82818337600083830152505050565b61077d826107e8565b810181811067ffffffffffffffff8211171561079c5761079b6107a5565b5b80604052505050565b7f4e487b7100000000000000000000000000000000000000000000000000000000600052604160045260246000fd5b600080fd5b600080fd5b600080fd5b600080fd5b6000601f19601f8301169050919050565b610802816106a3565b811461080d57600080fd5b50565b61081981610701565b811461082457600080fd5b5056fea26469706673582212206bca565afda1a1bd9db540d009d879d13f8bc642d3aa27feb2f87c07681a5c4064736f6c63430008070033",
					"opcodes": "PUSH1 0x80 PUSH1 0x40 MSTORE CALLVALUE DUP1 ISZERO PUSH2 0x10 JUMPI PUSH1 0x0 DUP1 REVERT JUMPDEST POP PUSH1 0x40 MLOAD PUSH2 0xA54 CODESIZE SUB DUP1 PUSH2 0xA54 DUP4 CODECOPY DUP2 DUP2 ADD PUSH1 0x40 MSTORE DUP2 ADD SWAP1 PUSH2 0x32 SWAP2 SWAP1 PUSH2 0x15A JUMP JUMPDEST PUSH1 0x1 PUSH1 0x0 DUP2 SWAP1 SSTORE POP DUP2 PUSH1 0x2 PUSH1 0x0 PUSH2 0x100 EXP DUP2 SLOAD DUP2 PUSH20 0xFFFFFFFFFFFFFFFFFFFFFFFFFFFFFFFFFFFFFFFF MUL NOT AND SWAP1 DUP4 PUSH20 0xFFFFFFFFFFFFFFFFFFFFFFFFFFFFFFFFFFFFFFFF AND MUL OR SWAP1 SSTORE POP DUP2 PUSH1 0x3 PUSH1 0x0 PUSH2 0x100 EXP DUP2 SLOAD DUP2 PUSH20 0xFFFFFFFFFFFFFFFFFFFFFFFFFFFFFFFFFFFFFFFF MUL NOT AND SWAP1 DUP4 PUSH20 0xFFFFFFFFFFFFFFFFFFFFFFFFFFFFFFFFFFFFFFFF AND MUL OR SWAP1 SSTORE POP DUP1 PUSH1 0x1 PUSH1 0x0 PUSH2 0x100 EXP DUP2 SLOAD DUP2 PUSH20 0xFFFFFFFFFFFFFFFFFFFFFFFFFFFFFFFFFFFFFFFF MUL NOT AND SWAP1 DUP4 PUSH20 0xFFFFFFFFFFFFFFFFFFFFFFFFFFFFFFFFFFFFFFFF AND MUL OR SWAP1 SSTORE POP DUP2 PUSH1 0x4 PUSH1 0x0 PUSH2 0x100 EXP DUP2 SLOAD DUP2 PUSH20 0xFFFFFFFFFFFFFFFFFFFFFFFFFFFFFFFFFFFFFFFF MUL NOT AND SWAP1 DUP4 PUSH20 0xFFFFFFFFFFFFFFFFFFFFFFFFFFFFFFFFFFFFFFFF AND MUL OR SWAP1 SSTORE POP POP POP PUSH2 0x1E8 JUMP JUMPDEST PUSH1 0x0 DUP2 MLOAD SWAP1 POP PUSH2 0x154 DUP2 PUSH2 0x1D1 JUMP JUMPDEST SWAP3 SWAP2 POP POP JUMP JUMPDEST PUSH1 0x0 DUP1 PUSH1 0x40 DUP4 DUP6 SUB SLT ISZERO PUSH2 0x171 JUMPI PUSH2 0x170 PUSH2 0x1CC JUMP JUMPDEST JUMPDEST PUSH1 0x0 PUSH2 0x17F DUP6 DUP3 DUP7 ADD PUSH2 0x145 JUMP JUMPDEST SWAP3 POP POP PUSH1 0x20 PUSH2 0x190 DUP6 DUP3 DUP7 ADD PUSH2 0x145 JUMP JUMPDEST SWAP2 POP POP SWAP3 POP SWAP3 SWAP1 POP JUMP JUMPDEST PUSH1 0x0 PUSH2 0x1A5 DUP3 PUSH2 0x1AC JUMP JUMPDEST SWAP1 POP SWAP2 SWAP1 POP JUMP JUMPDEST PUSH1 0x0 PUSH20 0xFFFFFFFFFFFFFFFFFFFFFFFFFFFFFFFFFFFFFFFF DUP3 AND SWAP1 POP SWAP2 SWAP1 POP JUMP JUMPDEST PUSH1 0x0 DUP1 REVERT JUMPDEST PUSH2 0x1DA DUP2 PUSH2 0x19A JUMP JUMPDEST DUP2 EQ PUSH2 0x1E5 JUMPI PUSH1 0x0 DUP1 REVERT JUMPDEST POP JUMP JUMPDEST PUSH2 0x85D DUP1 PUSH2 0x1F7 PUSH1 0x0 CODECOPY PUSH1 0x0 RETURN INVALID PUSH1 0x80 PUSH1 0x40 MSTORE CALLVALUE DUP1 ISZERO PUSH2 0x10 JUMPI PUSH1 0x0 DUP1 REVERT JUMPDEST POP PUSH1 0x4 CALLDATASIZE LT PUSH2 0x88 JUMPI PUSH1 0x0 CALLDATALOAD PUSH1 0xE0 SHR DUP1 PUSH4 0x6A9315B3 GT PUSH2 0x5B JUMPI DUP1 PUSH4 0x6A9315B3 EQ PUSH2 0x12A JUMPI DUP1 PUSH4 0x80A54001 EQ PUSH2 0x148 JUMPI DUP1 PUSH4 0xB8E33FB2 EQ PUSH2 0x166 JUMPI DUP1 PUSH4 0xFEAD3D6E EQ PUSH2 0x184 JUMPI PUSH2 0x88 JUMP JUMPDEST DUP1 PUSH4 0x401405E2 EQ PUSH2 0x8D JUMPI DUP1 PUSH4 0x472343B9 EQ PUSH2 0xBD JUMPI DUP1 PUSH4 0x570CA735 EQ PUSH2 0xEE JUMPI DUP1 PUSH4 0x66BB863B EQ PUSH2 0x10C JUMPI JUMPDEST PUSH1 0x0 DUP1 REVERT JUMPDEST PUSH2 0xA7 PUSH1 0x4 DUP1 CALLDATASIZE SUB DUP2 ADD SWAP1 PUSH2 0xA2 SWAP2 SWAP1 PUSH2 0x47F JUMP JUMPDEST PUSH2 0x1A2 JUMP JUMPDEST PUSH1 0x40 MLOAD PUSH2 0xB4 SWAP2 SWAP1 PUSH2 0x5E1 JUMP JUMPDEST PUSH1 0x40 MLOAD DUP1 SWAP2 SUB SWAP1 RETURN JUMPDEST PUSH2 0xD7 PUSH1 0x4 DUP1 CALLDATASIZE SUB DUP2 ADD SWAP1 PUSH2 0xD2 SWAP2 SWAP1 PUSH2 0x516 JUMP JUMPDEST PUSH2 0x2AD JUMP JUMPDEST PUSH1 0x40 MLOAD PUSH2 0xE5 SWAP3 SWAP2 SWAP1 PUSH2 0x5B8 JUMP JUMPDEST PUSH1 0x40 MLOAD DUP1 SWAP2 SUB SWAP1 RETURN JUMPDEST PUSH2 0xF6 PUSH2 0x301 JUMP JUMPDEST PUSH1 0x40 MLOAD PUSH2 0x103 SWAP2 SWAP1 PUSH2 0x59D JUMP JUMPDEST PUSH1 0x40 MLOAD DUP1 SWAP2 SUB SWAP1 RETURN JUMPDEST PUSH2 0x114 PUSH2 0x327 JUMP JUMPDEST PUSH1 0x40 MLOAD PUSH2 0x121 SWAP2 SWAP1 PUSH2 0x59D JUMP JUMPDEST PUSH1 0x40 MLOAD DUP1 SWAP2 SUB SWAP1 RETURN JUMPDEST PUSH2 0x132 PUSH2 0x34D JUMP JUMPDEST PUSH1 0x40 MLOAD PUSH2 0x13F SWAP2 SWAP1 PUSH2 0x59D JUMP JUMPDEST PUSH1 0x40 MLOAD DUP1 SWAP2 SUB SWAP1 RETURN JUMPDEST PUSH2 0x150 PUSH2 0x373 JUMP JUMPDEST PUSH1 0x40 MLOAD PUSH2 0x15D SWAP2 SWAP1 PUSH2 0x5FC JUMP JUMPDEST PUSH1 0x40 MLOAD DUP1 SWAP2 SUB SWAP1 RETURN JUMPDEST PUSH2 0x16E PUSH2 0x399 JUMP JUMPDEST PUSH1 0x40 MLOAD PUSH2 0x17B SWAP2 SWAP1 PUSH2 0x617 JUMP JUMPDEST PUSH1 0x40 MLOAD DUP1 SWAP2 SUB SWAP1 RETURN JUMPDEST PUSH2 0x18C PUSH2 0x3BF JUMP JUMPDEST PUSH1 0x40 MLOAD PUSH2 0x199 SWAP2 SWAP1 PUSH2 0x632 JUMP JUMPDEST PUSH1 0x40 MLOAD DUP1 SWAP2 SUB SWAP1 RETURN JUMPDEST PUSH1 0x0 DUP4 PUSH1 0x8 PUSH1 0x0 PUSH2 0x100 EXP DUP2 SLOAD DUP2 PUSH20 0xFFFFFFFFFFFFFFFFFFFFFFFFFFFFFFFFFFFFFFFF MUL NOT AND SWAP1 DUP4 PUSH20 0xFFFFFFFFFFFFFFFFFFFFFFFFFFFFFFFFFFFFFFFF AND MUL OR SWAP1 SSTORE POP DUP5 PUSH1 0x7 PUSH1 0x0 PUSH2 0x100 EXP DUP2 SLOAD DUP2 PUSH20 0xFFFFFFFFFFFFFFFFFFFFFFFFFFFFFFFFFFFFFFFF MUL NOT AND SWAP1 DUP4 PUSH20 0xFFFFFFFFFFFFFFFFFFFFFFFFFFFFFFFFFFFFFFFF AND MUL OR SWAP1 SSTORE POP PUSH1 0x7 PUSH1 0x0 SWAP1 SLOAD SWAP1 PUSH2 0x100 EXP SWAP1 DIV PUSH20 0xFFFFFFFFFFFFFFFFFFFFFFFFFFFFFFFFFFFFFFFF AND PUSH1 0x5 PUSH1 0x0 DUP6 DUP2 MSTORE PUSH1 0x20 ADD SWAP1 DUP2 MSTORE PUSH1 0x20 ADD PUSH1 0x0 KECCAK256 PUSH1 0x0 PUSH2 0x100 EXP DUP2 SLOAD DUP2 PUSH20 0xFFFFFFFFFFFFFFFFFFFFFFFFFFFFFFFFFFFFFFFF MUL NOT AND SWAP1 DUP4 PUSH20 0xFFFFFFFFFFFFFFFFFFFFFFFFFFFFFFFFFFFFFFFF AND MUL OR SWAP1 SSTORE POP PUSH4 0x401405E2 PUSH1 0xE0 SHL SWAP1 POP SWAP6 SWAP5 POP POP POP POP POP JUMP JUMPDEST PUSH1 0x0 DUP1 PUSH1 0x5 PUSH1 0x0 DUP5 DUP2 MSTORE PUSH1 0x20 ADD SWAP1 DUP2 MSTORE PUSH1 0x20 ADD PUSH1 0x0 KECCAK256 PUSH1 0x0 SWAP1 SLOAD SWAP1 PUSH2 0x100 EXP SWAP1 DIV PUSH20 0xFFFFFFFFFFFFFFFFFFFFFFFFFFFFFFFFFFFFFFFF AND PUSH1 0x6 PUSH1 0x0 DUP6 DUP2 MSTORE PUSH1 0x20 ADD SWAP1 DUP2 MSTORE PUSH1 0x20 ADD PUSH1 0x0 KECCAK256 SLOAD SWAP2 POP SWAP2 POP SWAP2 POP SWAP2 JUMP JUMPDEST PUSH1 0x7 PUSH1 0x0 SWAP1 SLOAD SWAP1 PUSH2 0x100 EXP SWAP1 DIV PUSH20 0xFFFFFFFFFFFFFFFFFFFFFFFFFFFFFFFFFFFFFFFF AND DUP2 JUMP JUMPDEST PUSH1 0x4 PUSH1 0x0 SWAP1 SLOAD SWAP1 PUSH2 0x100 EXP SWAP1 DIV PUSH20 0xFFFFFFFFFFFFFFFFFFFFFFFFFFFFFFFFFFFFFFFF AND DUP2 JUMP JUMPDEST PUSH1 0x8 PUSH1 0x0 SWAP1 SLOAD SWAP1 PUSH2 0x100 EXP SWAP1 DIV PUSH20 0xFFFFFFFFFFFFFFFFFFFFFFFFFFFFFFFFFFFFFFFF AND DUP2 JUMP JUMPDEST PUSH1 0x1 PUSH1 0x0 SWAP1 SLOAD SWAP1 PUSH2 0x100 EXP SWAP1 DIV PUSH20 0xFFFFFFFFFFFFFFFFFFFFFFFFFFFFFFFFFFFFFFFF AND DUP2 JUMP JUMPDEST PUSH1 0x2 PUSH1 0x0 SWAP1 SLOAD SWAP1 PUSH2 0x100 EXP SWAP1 DIV PUSH20 0xFFFFFFFFFFFFFFFFFFFFFFFFFFFFFFFFFFFFFFFF AND DUP2 JUMP JUMPDEST PUSH1 0x3 PUSH1 0x0 SWAP1 SLOAD SWAP1 PUSH2 0x100 EXP SWAP1 DIV PUSH20 0xFFFFFFFFFFFFFFFFFFFFFFFFFFFFFFFFFFFFFFFF AND DUP2 JUMP JUMPDEST PUSH1 0x0 PUSH2 0x3F8 PUSH2 0x3F3 DUP5 PUSH2 0x672 JUMP JUMPDEST PUSH2 0x64D JUMP JUMPDEST SWAP1 POP DUP3 DUP2 MSTORE PUSH1 0x20 DUP2 ADD DUP5 DUP5 DUP5 ADD GT ISZERO PUSH2 0x414 JUMPI PUSH2 0x413 PUSH2 0x7D9 JUMP JUMPDEST JUMPDEST PUSH2 0x41F DUP5 DUP3 DUP6 PUSH2 0x765 JUMP JUMPDEST POP SWAP4 SWAP3 POP POP POP JUMP JUMPDEST PUSH1 0x0 DUP2 CALLDATALOAD SWAP1 POP PUSH2 0x436 DUP2 PUSH2 0x7F9 JUMP JUMPDEST SWAP3 SWAP2 POP POP JUMP JUMPDEST PUSH1 0x0 DUP3 PUSH1 0x1F DUP4 ADD SLT PUSH2 0x451 JUMPI PUSH2 0x450 PUSH2 0x7D4 JUMP JUMPDEST JUMPDEST DUP2 CALLDATALOAD PUSH2 0x461 DUP5 DUP3 PUSH1 0x20 DUP7 ADD PUSH2 0x3E5 JUMP JUMPDEST SWAP2 POP POP SWAP3 SWAP2 POP POP JUMP JUMPDEST PUSH1 0x0 DUP2 CALLDATALOAD SWAP1 POP PUSH2 0x479 DUP2 PUSH2 0x810 JUMP JUMPDEST SWAP3 SWAP2 POP POP JUMP JUMPDEST PUSH1 0x0 DUP1 PUSH1 0x0 DUP1 PUSH1 0x0 PUSH1 0xA0 DUP7 DUP9 SUB SLT ISZERO PUSH2 0x49B JUMPI PUSH2 0x49A PUSH2 0x7E3 JUMP JUMPDEST JUMPDEST PUSH1 0x0 PUSH2 0x4A9 DUP9 DUP3 DUP10 ADD PUSH2 0x427 JUMP JUMPDEST SWAP6 POP POP PUSH1 0x20 PUSH2 0x4BA DUP9 DUP3 DUP10 ADD PUSH2 0x427 JUMP JUMPDEST SWAP5 POP POP PUSH1 0x40 PUSH2 0x4CB DUP9 DUP3 DUP10 ADD PUSH2 0x427 JUMP JUMPDEST SWAP4 POP POP PUSH1 0x60 PUSH2 0x4DC DUP9 DUP3 DUP10 ADD PUSH2 0x46A JUMP JUMPDEST SWAP3 POP POP PUSH1 0x80 DUP7 ADD CALLDATALOAD PUSH8 0xFFFFFFFFFFFFFFFF DUP2 GT ISZERO PUSH2 0x4FD JUMPI PUSH2 0x4FC PUSH2 0x7DE JUMP JUMPDEST JUMPDEST PUSH2 0x509 DUP9 DUP3 DUP10 ADD PUSH2 0x43C JUMP JUMPDEST SWAP2 POP POP SWAP3 SWAP6 POP SWAP3 SWAP6 SWAP1 SWAP4 POP JUMP JUMPDEST PUSH1 0x0 PUSH1 0x20 DUP3 DUP5 SUB SLT ISZERO PUSH2 0x52C JUMPI PUSH2 0x52B PUSH2 0x7E3 JUMP JUMPDEST JUMPDEST PUSH1 0x0 PUSH2 0x53A DUP5 DUP3 DUP6 ADD PUSH2 0x46A JUMP JUMPDEST SWAP2 POP POP SWAP3 SWAP2 POP POP JUMP JUMPDEST PUSH2 0x54C DUP2 PUSH2 0x6A3 JUMP JUMPDEST DUP3 MSTORE POP POP JUMP JUMPDEST PUSH2 0x55B DUP2 PUSH2 0x6B5 JUMP JUMPDEST DUP3 MSTORE POP POP JUMP JUMPDEST PUSH2 0x56A DUP2 PUSH2 0x70B JUMP JUMPDEST DUP3 MSTORE POP POP JUMP JUMPDEST PUSH2 0x579 DUP2 PUSH2 0x71D JUMP JUMPDEST DUP3 MSTORE POP POP JUMP JUMPDEST PUSH2 0x588 DUP2 PUSH2 0x72F JUMP JUMPDEST DUP3 MSTORE POP POP JUMP JUMPDEST PUSH2 0x597 DUP2 PUSH2 0x701 JUMP JUMPDEST DUP3 MSTORE POP POP JUMP JUMPDEST PUSH1 0x0 PUSH1 0x20 DUP3 ADD SWAP1 POP PUSH2 0x5B2 PUSH1 0x0 DUP4 ADD DUP5 PUSH2 0x543 JUMP JUMPDEST SWAP3 SWAP2 POP POP JUMP JUMPDEST PUSH1 0x0 PUSH1 0x40 DUP3 ADD SWAP1 POP PUSH2 0x5CD PUSH1 0x0 DUP4 ADD DUP6 PUSH2 0x543 JUMP JUMPDEST PUSH2 0x5DA PUSH1 0x20 DUP4 ADD DUP5 PUSH2 0x58E JUMP JUMPDEST SWAP4 SWAP3 POP POP POP JUMP JUMPDEST PUSH1 0x0 PUSH1 0x20 DUP3 ADD SWAP1 POP PUSH2 0x5F6 PUSH1 0x0 DUP4 ADD DUP5 PUSH2 0x552 JUMP JUMPDEST SWAP3 SWAP2 POP POP JUMP JUMPDEST PUSH1 0x0 PUSH1 0x20 DUP3 ADD SWAP1 POP PUSH2 0x611 PUSH1 0x0 DUP4 ADD DUP5 PUSH2 0x561 JUMP JUMPDEST SWAP3 SWAP2 POP POP JUMP JUMPDEST PUSH1 0x0 PUSH1 0x20 DUP3 ADD SWAP1 POP PUSH2 0x62C PUSH1 0x0 DUP4 ADD DUP5 PUSH2 0x570 JUMP JUMPDEST SWAP3 SWAP2 POP POP JUMP JUMPDEST PUSH1 0x0 PUSH1 0x20 DUP3 ADD SWAP1 POP PUSH2 0x647 PUSH1 0x0 DUP4 ADD DUP5 PUSH2 0x57F JUMP JUMPDEST SWAP3 SWAP2 POP POP JUMP JUMPDEST PUSH1 0x0 PUSH2 0x657 PUSH2 0x668 JUMP JUMPDEST SWAP1 POP PUSH2 0x663 DUP3 DUP3 PUSH2 0x774 JUMP JUMPDEST SWAP2 SWAP1 POP JUMP JUMPDEST PUSH1 0x0 PUSH1 0x40 MLOAD SWAP1 POP SWAP1 JUMP JUMPDEST PUSH1 0x0 PUSH8 0xFFFFFFFFFFFFFFFF DUP3 GT ISZERO PUSH2 0x68D JUMPI PUSH2 0x68C PUSH2 0x7A5 JUMP JUMPDEST JUMPDEST PUSH2 0x696 DUP3 PUSH2 0x7E8 JUMP JUMPDEST SWAP1 POP PUSH1 0x20 DUP2 ADD SWAP1 POP SWAP2 SWAP1 POP JUMP JUMPDEST PUSH1 0x0 PUSH2 0x6AE DUP3 PUSH2 0x6E1 JUMP JUMPDEST SWAP1 POP SWAP2 SWAP1 POP JUMP JUMPDEST PUSH1 0x0 PUSH32 0xFFFFFFFF00000000000000000000000000000000000000000000000000000000 DUP3 AND SWAP1 POP SWAP2 SWAP1 POP JUMP JUMPDEST PUSH1 0x0 PUSH20 0xFFFFFFFFFFFFFFFFFFFFFFFFFFFFFFFFFFFFFFFF DUP3 AND SWAP1 POP SWAP2 SWAP1 POP JUMP JUMPDEST PUSH1 0x0 DUP2 SWAP1 POP SWAP2 SWAP1 POP JUMP JUMPDEST PUSH1 0x0 PUSH2 0x716 DUP3 PUSH2 0x741 JUMP JUMPDEST SWAP1 POP SWAP2 SWAP1 POP JUMP JUMPDEST PUSH1 0x0 PUSH2 0x728 DUP3 PUSH2 0x741 JUMP JUMPDEST SWAP1 POP SWAP2 SWAP1 POP JUMP JUMPDEST PUSH1 0x0 PUSH2 0x73A DUP3 PUSH2 0x741 JUMP JUMPDEST SWAP1 POP SWAP2 SWAP1 POP JUMP JUMPDEST PUSH1 0x0 PUSH2 0x74C DUP3 PUSH2 0x753 JUMP JUMPDEST SWAP1 POP SWAP2 SWAP1 POP JUMP JUMPDEST PUSH1 0x0 PUSH2 0x75E DUP3 PUSH2 0x6E1 JUMP JUMPDEST SWAP1 POP SWAP2 SWAP1 POP JUMP JUMPDEST DUP3 DUP2 DUP4 CALLDATACOPY PUSH1 0x0 DUP4 DUP4 ADD MSTORE POP POP POP JUMP JUMPDEST PUSH2 0x77D DUP3 PUSH2 0x7E8 JUMP JUMPDEST DUP2 ADD DUP2 DUP2 LT PUSH8 0xFFFFFFFFFFFFFFFF DUP3 GT OR ISZERO PUSH2 0x79C JUMPI PUSH2 0x79B PUSH2 0x7A5 JUMP JUMPDEST JUMPDEST DUP1 PUSH1 0x40 MSTORE POP POP POP JUMP JUMPDEST PUSH32 0x4E487B7100000000000000000000000000000000000000000000000000000000 PUSH1 0x0 MSTORE PUSH1 0x41 PUSH1 0x4 MSTORE PUSH1 0x24 PUSH1 0x0 REVERT JUMPDEST PUSH1 0x0 DUP1 REVERT JUMPDEST PUSH1 0x0 DUP1 REVERT JUMPDEST PUSH1 0x0 DUP1 REVERT JUMPDEST PUSH1 0x0 DUP1 REVERT JUMPDEST PUSH1 0x0 PUSH1 0x1F NOT PUSH1 0x1F DUP4 ADD AND SWAP1 POP SWAP2 SWAP1 POP JUMP JUMPDEST PUSH2 0x802 DUP2 PUSH2 0x6A3 JUMP JUMPDEST DUP2 EQ PUSH2 0x80D JUMPI PUSH1 0x0 DUP1 REVERT JUMPDEST POP JUMP JUMPDEST PUSH2 0x819 DUP2 PUSH2 0x701 JUMP JUMPDEST DUP2 EQ PUSH2 0x824 JUMPI PUSH1 0x0 DUP1 REVERT JUMPDEST POP JUMP INVALID LOG2 PUSH5 0x6970667358 0x22 SLT KECCAK256 PUSH12 0xCA565AFDA1A1BD9DB540D009 0xD8 PUSH26 0xD13F8BC642D3AA27FEB2F87C07681A5C4064736F6C6343000807 STOP CALLER "
				},
				"gasEstimates": {
					"creation": {
						"codeDepositCost": "428200",
						"executionCost": "infinite",
						"totalCost": "infinite"
					},
					"external": {
						"getStakes(uint256)": "infinite",
						"nftcontract()": "2514",
						"onERC721Received(address,address,address,uint256,bytes)": "infinite",
						"operator()": "2559",
						"parentNFT()": "2644",
						"parentNFTAddress()": "2581",
						"parentNftFunctions()": "2666",
						"parentToken()": "2622"
					}
				},
				"methodIdentifiers": {
					"getStakes(uint256)": "472343b9",
					"nftcontract()": "6a9315b3",
					"onERC721Received(address,address,address,uint256,bytes)": "401405e2",
					"operator()": "570ca735",
					"parentNFT()": "b8e33fb2",
					"parentNFTAddress()": "66bb863b",
					"parentNftFunctions()": "fead3d6e",
					"parentToken()": "80a54001"
				}
			},
			"storageLayout": {
				"storage": [
					{
						"astId": 10,
						"contract": "contracts/Missions.sol:Staking",
						"label": "_status",
						"offset": 0,
						"slot": "0",
						"type": "t_uint256"
					},
					{
						"astId": 263,
						"contract": "contracts/Missions.sol:Staking",
						"label": "parentToken",
						"offset": 0,
						"slot": "1",
						"type": "t_contract(IERC20)117"
					},
					{
						"astId": 266,
						"contract": "contracts/Missions.sol:Staking",
						"label": "parentNFT",
						"offset": 0,
						"slot": "2",
						"type": "t_contract(IERC721)233"
					},
					{
						"astId": 269,
						"contract": "contracts/Missions.sol:Staking",
						"label": "parentNftFunctions",
						"offset": 0,
						"slot": "3",
						"type": "t_contract(INFTGame)258"
					},
					{
						"astId": 271,
						"contract": "contracts/Missions.sol:Staking",
						"label": "parentNFTAddress",
						"offset": 0,
						"slot": "4",
						"type": "t_address"
					},
					{
						"astId": 305,
						"contract": "contracts/Missions.sol:Staking",
						"label": "s_stakers",
						"offset": 0,
						"slot": "5",
						"type": "t_mapping(t_uint256,t_address)"
					},
					{
						"astId": 309,
						"contract": "contracts/Missions.sol:Staking",
						"label": "s_missionTimers",
						"offset": 0,
						"slot": "6",
						"type": "t_mapping(t_uint256,t_uint256)"
					},
					{
						"astId": 329,
						"contract": "contracts/Missions.sol:Staking",
						"label": "operator",
						"offset": 0,
						"slot": "7",
						"type": "t_address"
					},
					{
						"astId": 331,
						"contract": "contracts/Missions.sol:Staking",
						"label": "nftcontract",
						"offset": 0,
						"slot": "8",
						"type": "t_address"
					}
				],
				"types": {
					"t_address": {
						"encoding": "inplace",
						"label": "address",
						"numberOfBytes": "20"
					},
					"t_contract(IERC20)117": {
						"encoding": "inplace",
						"label": "contract IERC20",
						"numberOfBytes": "20"
					},
					"t_contract(IERC721)233": {
						"encoding": "inplace",
						"label": "contract IERC721",
						"numberOfBytes": "20"
					},
					"t_contract(INFTGame)258": {
						"encoding": "inplace",
						"label": "contract INFTGame",
						"numberOfBytes": "20"
					},
					"t_mapping(t_uint256,t_address)": {
						"encoding": "mapping",
						"key": "t_uint256",
						"label": "mapping(uint256 => address)",
						"numberOfBytes": "32",
						"value": "t_address"
					},
					"t_mapping(t_uint256,t_uint256)": {
						"encoding": "mapping",
						"key": "t_uint256",
						"label": "mapping(uint256 => uint256)",
						"numberOfBytes": "32",
						"value": "t_uint256"
					},
					"t_uint256": {
						"encoding": "inplace",
						"label": "uint256",
						"numberOfBytes": "32"
					}
				}
			},
			"userdoc": {
				"kind": "user",
				"methods": {},
				"version": 1
			}
		}
	}
}