{
	"contracts/Missions.sol": {
		"Staking": {
			"abi": [
				{
					"inputs": [
						{
							"internalType": "address",
							"name": "_nftContract",
							"type": "address"
						},
						{
							"internalType": "address",
							"name": "_tokenContract",
							"type": "address"
						}
					],
					"stateMutability": "nonpayable",
					"type": "constructor"
				},
				{
					"inputs": [
						{
							"internalType": "uint256",
							"name": "_tokenID",
							"type": "uint256"
						}
					],
					"name": "emergencyUnstake",
					"outputs": [
						{
							"internalType": "uint256",
							"name": "tokenID",
							"type": "uint256"
						},
						{
							"internalType": "address",
							"name": "to",
							"type": "address"
						}
					],
					"stateMutability": "nonpayable",
					"type": "function"
				},
				{
					"inputs": [
						{
							"internalType": "uint256",
							"name": "_tokenID",
							"type": "uint256"
						}
					],
					"name": "getStakes",
					"outputs": [
						{
							"internalType": "address",
							"name": "add",
							"type": "address"
						},
						{
							"internalType": "uint256",
							"name": "time",
							"type": "uint256"
						}
					],
					"stateMutability": "view",
					"type": "function"
				},
				{
					"inputs": [
						{
							"internalType": "address",
							"name": "_operator",
							"type": "address"
						},
						{
							"internalType": "address",
							"name": "_sender",
							"type": "address"
						},
						{
							"internalType": "uint256",
							"name": "_tokenID",
							"type": "uint256"
						},
						{
							"internalType": "bytes",
							"name": "",
							"type": "bytes"
						}
					],
					"name": "onERC721Received",
					"outputs": [
						{
							"internalType": "bytes4",
							"name": "",
							"type": "bytes4"
						}
					],
					"stateMutability": "nonpayable",
					"type": "function"
				},
				{
					"inputs": [],
					"name": "parentNFT",
					"outputs": [
						{
							"internalType": "contract IERC721",
							"name": "",
							"type": "address"
						}
					],
					"stateMutability": "view",
					"type": "function"
				},
				{
					"inputs": [],
					"name": "parentNFTAddress",
					"outputs": [
						{
							"internalType": "address",
							"name": "",
							"type": "address"
						}
					],
					"stateMutability": "view",
					"type": "function"
				},
				{
					"inputs": [],
					"name": "parentNftFunctions",
					"outputs": [
						{
							"internalType": "contract INFTGame",
							"name": "",
							"type": "address"
						}
					],
					"stateMutability": "view",
					"type": "function"
				},
				{
					"inputs": [
						{
							"internalType": "uint256",
							"name": "_tokenID",
							"type": "uint256"
						}
					],
					"name": "unstake",
					"outputs": [
						{
							"internalType": "uint256",
							"name": "tokenID",
							"type": "uint256"
						},
						{
							"internalType": "address",
							"name": "to",
							"type": "address"
						},
						{
							"internalType": "uint256",
							"name": "amountClaimed",
							"type": "uint256"
						}
					],
					"stateMutability": "nonpayable",
					"type": "function"
				},
				{
					"inputs": [],
					"name": "vGas",
					"outputs": [
						{
							"internalType": "contract IERC20",
							"name": "",
							"type": "address"
						}
					],
					"stateMutability": "view",
					"type": "function"
				}
			],
			"devdoc": {
				"kind": "dev",
				"methods": {},
				"version": 1
			},
			"evm": {
				"assembly": "    /* \"contracts/Missions.sol\":483:2709  contract Staking is ReentrancyGuard {\r... */\n  mstore(0x40, 0x80)\n    /* \"contracts/Missions.sol\":757:1024  constructor(address _nftContract, address _tokenContract)\r... */\n  callvalue\n  dup1\n  iszero\n  tag_1\n  jumpi\n  0x00\n  dup1\n  revert\ntag_1:\n  pop\n  mload(0x40)\n  sub(codesize, bytecodeSize)\n  dup1\n  bytecodeSize\n  dup4\n  codecopy\n  dup2\n  dup2\n  add\n  0x40\n  mstore\n  dup2\n  add\n  swap1\n  tag_2\n  swap2\n  swap1\n  tag_3\n  jump\t// in\ntag_2:\n    /* \"@openzeppelin/contracts/security/ReentrancyGuard.sol\":1701:1702  1 */\n  0x01\n    /* \"@openzeppelin/contracts/security/ReentrancyGuard.sol\":1806:1813  _status */\n  0x00\n    /* \"@openzeppelin/contracts/security/ReentrancyGuard.sol\":1806:1828  _status = _NOT_ENTERED */\n  dup2\n  swap1\n  sstore\n  pop\n    /* \"contracts/Missions.sol\":857:869  _nftContract */\n  dup2\n    /* \"contracts/Missions.sol\":837:846  parentNFT */\n  0x02\n  0x00\n    /* \"contracts/Missions.sol\":837:870  parentNFT = IERC721(_nftContract) */\n  0x0100\n  exp\n  dup2\n  sload\n  dup2\n  0xffffffffffffffffffffffffffffffffffffffff\n  mul\n  not\n  and\n  swap1\n  dup4\n  0xffffffffffffffffffffffffffffffffffffffff\n  and\n  mul\n  or\n  swap1\n  sstore\n  pop\n    /* \"contracts/Missions.sol\":911:923  _nftContract */\n  dup2\n    /* \"contracts/Missions.sol\":881:899  parentNftFunctions */\n  0x03\n  0x00\n    /* \"contracts/Missions.sol\":881:924  parentNftFunctions = INFTGame(_nftContract) */\n  0x0100\n  exp\n  dup2\n  sload\n  dup2\n  0xffffffffffffffffffffffffffffffffffffffff\n  mul\n  not\n  and\n  swap1\n  dup4\n  0xffffffffffffffffffffffffffffffffffffffff\n  and\n  mul\n  or\n  swap1\n  sstore\n  pop\n    /* \"contracts/Missions.sol\":949:963  _tokenContract */\n  dup1\n    /* \"contracts/Missions.sol\":935:939  vGas */\n  0x01\n  0x00\n    /* \"contracts/Missions.sol\":935:964  vGas = IERC20(_tokenContract) */\n  0x0100\n  exp\n  dup2\n  sload\n  dup2\n  0xffffffffffffffffffffffffffffffffffffffff\n  mul\n  not\n  and\n  swap1\n  dup4\n  0xffffffffffffffffffffffffffffffffffffffff\n  and\n  mul\n  or\n  swap1\n  sstore\n  pop\n    /* \"contracts/Missions.sol\":994:1006  _nftContract */\n  dup2\n    /* \"contracts/Missions.sol\":975:991  parentNFTAddress */\n  0x04\n  0x00\n    /* \"contracts/Missions.sol\":975:1006  parentNFTAddress = _nftContract */\n  0x0100\n  exp\n  dup2\n  sload\n  dup2\n  0xffffffffffffffffffffffffffffffffffffffff\n  mul\n  not\n  and\n  swap1\n  dup4\n  0xffffffffffffffffffffffffffffffffffffffff\n  and\n  mul\n  or\n  swap1\n  sstore\n  pop\n    /* \"contracts/Missions.sol\":757:1024  constructor(address _nftContract, address _tokenContract)\r... */\n  pop\n  pop\n    /* \"contracts/Missions.sol\":483:2709  contract Staking is ReentrancyGuard {\r... */\n  jump(tag_8)\n    /* \"#utility.yul\":7:150   */\ntag_10:\n    /* \"#utility.yul\":64:69   */\n  0x00\n    /* \"#utility.yul\":95:101   */\n  dup2\n    /* \"#utility.yul\":89:102   */\n  mload\n    /* \"#utility.yul\":80:102   */\n  swap1\n  pop\n    /* \"#utility.yul\":111:144   */\n  tag_12\n    /* \"#utility.yul\":138:143   */\n  dup2\n    /* \"#utility.yul\":111:144   */\n  tag_13\n  jump\t// in\ntag_12:\n    /* \"#utility.yul\":7:150   */\n  swap3\n  swap2\n  pop\n  pop\n  jump\t// out\n    /* \"#utility.yul\":156:663   */\ntag_3:\n    /* \"#utility.yul\":235:241   */\n  0x00\n    /* \"#utility.yul\":243:249   */\n  dup1\n    /* \"#utility.yul\":292:294   */\n  0x40\n    /* \"#utility.yul\":280:289   */\n  dup4\n    /* \"#utility.yul\":271:278   */\n  dup6\n    /* \"#utility.yul\":267:290   */\n  sub\n    /* \"#utility.yul\":263:295   */\n  slt\n    /* \"#utility.yul\":260:379   */\n  iszero\n  tag_15\n  jumpi\n    /* \"#utility.yul\":298:377   */\n  tag_16\n  tag_17\n  jump\t// in\ntag_16:\n    /* \"#utility.yul\":260:379   */\ntag_15:\n    /* \"#utility.yul\":418:419   */\n  0x00\n    /* \"#utility.yul\":443:507   */\n  tag_18\n    /* \"#utility.yul\":499:506   */\n  dup6\n    /* \"#utility.yul\":490:496   */\n  dup3\n    /* \"#utility.yul\":479:488   */\n  dup7\n    /* \"#utility.yul\":475:497   */\n  add\n    /* \"#utility.yul\":443:507   */\n  tag_10\n  jump\t// in\ntag_18:\n    /* \"#utility.yul\":433:507   */\n  swap3\n  pop\n    /* \"#utility.yul\":389:517   */\n  pop\n    /* \"#utility.yul\":556:558   */\n  0x20\n    /* \"#utility.yul\":582:646   */\n  tag_19\n    /* \"#utility.yul\":638:645   */\n  dup6\n    /* \"#utility.yul\":629:635   */\n  dup3\n    /* \"#utility.yul\":618:627   */\n  dup7\n    /* \"#utility.yul\":614:636   */\n  add\n    /* \"#utility.yul\":582:646   */\n  tag_10\n  jump\t// in\ntag_19:\n    /* \"#utility.yul\":572:646   */\n  swap2\n  pop\n    /* \"#utility.yul\":527:656   */\n  pop\n    /* \"#utility.yul\":156:663   */\n  swap3\n  pop\n  swap3\n  swap1\n  pop\n  jump\t// out\n    /* \"#utility.yul\":750:846   */\ntag_22:\n    /* \"#utility.yul\":787:794   */\n  0x00\n    /* \"#utility.yul\":816:840   */\n  tag_24\n    /* \"#utility.yul\":834:839   */\n  dup3\n    /* \"#utility.yul\":816:840   */\n  tag_25\n  jump\t// in\ntag_24:\n    /* \"#utility.yul\":805:840   */\n  swap1\n  pop\n    /* \"#utility.yul\":750:846   */\n  swap2\n  swap1\n  pop\n  jump\t// out\n    /* \"#utility.yul\":852:978   */\ntag_25:\n    /* \"#utility.yul\":889:896   */\n  0x00\n    /* \"#utility.yul\":929:971   */\n  0xffffffffffffffffffffffffffffffffffffffff\n    /* \"#utility.yul\":922:927   */\n  dup3\n    /* \"#utility.yul\":918:972   */\n  and\n    /* \"#utility.yul\":907:972   */\n  swap1\n  pop\n    /* \"#utility.yul\":852:978   */\n  swap2\n  swap1\n  pop\n  jump\t// out\n    /* \"#utility.yul\":1107:1224   */\ntag_17:\n    /* \"#utility.yul\":1216:1217   */\n  0x00\n    /* \"#utility.yul\":1213:1214   */\n  dup1\n    /* \"#utility.yul\":1206:1218   */\n  revert\n    /* \"#utility.yul\":1230:1352   */\ntag_13:\n    /* \"#utility.yul\":1303:1327   */\n  tag_31\n    /* \"#utility.yul\":1321:1326   */\n  dup2\n    /* \"#utility.yul\":1303:1327   */\n  tag_22\n  jump\t// in\ntag_31:\n    /* \"#utility.yul\":1296:1301   */\n  dup2\n    /* \"#utility.yul\":1293:1328   */\n  eq\n    /* \"#utility.yul\":1283:1346   */\n  tag_32\n  jumpi\n    /* \"#utility.yul\":1342:1343   */\n  0x00\n    /* \"#utility.yul\":1339:1340   */\n  dup1\n    /* \"#utility.yul\":1332:1344   */\n  revert\n    /* \"#utility.yul\":1283:1346   */\ntag_32:\n    /* \"#utility.yul\":1230:1352   */\n  pop\n  jump\t// out\n    /* \"contracts/Missions.sol\":483:2709  contract Staking is ReentrancyGuard {\r... */\ntag_8:\n  dataSize(sub_0)\n  dup1\n  dataOffset(sub_0)\n  0x00\n  codecopy\n  0x00\n  return\nstop\n\nsub_0: assembly {\n        /* \"contracts/Missions.sol\":483:2709  contract Staking is ReentrancyGuard {\r... */\n      mstore(0x40, 0x80)\n      callvalue\n      dup1\n      iszero\n      tag_1\n      jumpi\n      0x00\n      dup1\n      revert\n    tag_1:\n      pop\n      jumpi(tag_2, lt(calldatasize, 0x04))\n      shr(0xe0, calldataload(0x00))\n      dup1\n      0x66bb863b\n      gt\n      tag_11\n      jumpi\n      dup1\n      0x66bb863b\n      eq\n      tag_7\n      jumpi\n      dup1\n      0xb8e33fb2\n      eq\n      tag_8\n      jumpi\n      dup1\n      0xfdb681d2\n      eq\n      tag_9\n      jumpi\n      dup1\n      0xfead3d6e\n      eq\n      tag_10\n      jumpi\n      jump(tag_2)\n    tag_11:\n      dup1\n      0x012ce501\n      eq\n      tag_3\n      jumpi\n      dup1\n      0x150b7a02\n      eq\n      tag_4\n      jumpi\n      dup1\n      0x2e17de78\n      eq\n      tag_5\n      jumpi\n      dup1\n      0x472343b9\n      eq\n      tag_6\n      jumpi\n    tag_2:\n      0x00\n      dup1\n      revert\n        /* \"contracts/Missions.sol\":1922:2280  function emergencyUnstake(uint256 _tokenID) public returns (uint256 tokenID, address to)\r... */\n    tag_3:\n      tag_12\n      0x04\n      dup1\n      calldatasize\n      sub\n      dup2\n      add\n      swap1\n      tag_13\n      swap2\n      swap1\n      tag_14\n      jump\t// in\n    tag_13:\n      tag_15\n      jump\t// in\n    tag_12:\n      mload(0x40)\n      tag_16\n      swap3\n      swap2\n      swap1\n      tag_17\n      jump\t// in\n    tag_16:\n      mload(0x40)\n      dup1\n      swap2\n      sub\n      swap1\n      return\n        /* \"contracts/Missions.sol\":2298:2669  function onERC721Received(address _operator, address _sender, uint256 _tokenID, bytes memory) public virtual returns (bytes4) \r... */\n    tag_4:\n      tag_18\n      0x04\n      dup1\n      calldatasize\n      sub\n      dup2\n      add\n      swap1\n      tag_19\n      swap2\n      swap1\n      tag_20\n      jump\t// in\n    tag_19:\n      tag_21\n      jump\t// in\n    tag_18:\n      mload(0x40)\n      tag_22\n      swap2\n      swap1\n      tag_23\n      jump\t// in\n    tag_22:\n      mload(0x40)\n      dup1\n      swap2\n      sub\n      swap1\n      return\n        /* \"contracts/Missions.sol\":1215:1914  function unstake(uint256 _tokenID) public  returns (uint256 tokenID, address to, uint256 amountClaimed)\r... */\n    tag_5:\n      tag_24\n      0x04\n      dup1\n      calldatasize\n      sub\n      dup2\n      add\n      swap1\n      tag_25\n      swap2\n      swap1\n      tag_14\n      jump\t// in\n    tag_25:\n      tag_26\n      jump\t// in\n    tag_24:\n      mload(0x40)\n      tag_27\n      swap4\n      swap3\n      swap2\n      swap1\n      tag_28\n      jump\t// in\n    tag_27:\n      mload(0x40)\n      dup1\n      swap2\n      sub\n      swap1\n      return\n        /* \"contracts/Missions.sol\":1039:1203  function getStakes(uint256 _tokenID) public view returns (address add, uint256 time)\r... */\n    tag_6:\n      tag_29\n      0x04\n      dup1\n      calldatasize\n      sub\n      dup2\n      add\n      swap1\n      tag_30\n      swap2\n      swap1\n      tag_14\n      jump\t// in\n    tag_30:\n      tag_31\n      jump\t// in\n    tag_29:\n      mload(0x40)\n      tag_32\n      swap3\n      swap2\n      swap1\n      tag_33\n      jump\t// in\n    tag_32:\n      mload(0x40)\n      dup1\n      swap2\n      sub\n      swap1\n      return\n        /* \"contracts/Missions.sol\":623:654  address public parentNFTAddress */\n    tag_7:\n      tag_34\n      tag_35\n      jump\t// in\n    tag_34:\n      mload(0x40)\n      tag_36\n      swap2\n      swap1\n      tag_37\n      jump\t// in\n    tag_36:\n      mload(0x40)\n      dup1\n      swap2\n      sub\n      swap1\n      return\n        /* \"contracts/Missions.sol\":551:575  IERC721 public parentNFT */\n    tag_8:\n      tag_38\n      tag_39\n      jump\t// in\n    tag_38:\n      mload(0x40)\n      tag_40\n      swap2\n      swap1\n      tag_41\n      jump\t// in\n    tag_40:\n      mload(0x40)\n      dup1\n      swap2\n      sub\n      swap1\n      return\n        /* \"contracts/Missions.sol\":526:544  IERC20 public vGas */\n    tag_9:\n      tag_42\n      tag_43\n      jump\t// in\n    tag_42:\n      mload(0x40)\n      tag_44\n      swap2\n      swap1\n      tag_45\n      jump\t// in\n    tag_44:\n      mload(0x40)\n      dup1\n      swap2\n      sub\n      swap1\n      return\n        /* \"contracts/Missions.sol\":582:616  INFTGame public parentNftFunctions */\n    tag_10:\n      tag_46\n      tag_47\n      jump\t// in\n    tag_46:\n      mload(0x40)\n      tag_48\n      swap2\n      swap1\n      tag_49\n      jump\t// in\n    tag_48:\n      mload(0x40)\n      dup1\n      swap2\n      sub\n      swap1\n      return\n        /* \"contracts/Missions.sol\":1922:2280  function emergencyUnstake(uint256 _tokenID) public returns (uint256 tokenID, address to)\r... */\n    tag_15:\n        /* \"contracts/Missions.sol\":1982:1997  uint256 tokenID */\n      0x00\n        /* \"contracts/Missions.sol\":1999:2009  address to */\n      dup1\n        /* \"contracts/Missions.sol\":2049:2058  s_stakers */\n      0x05\n        /* \"contracts/Missions.sol\":2049:2068  s_stakers[_tokenID] */\n      0x00\n        /* \"contracts/Missions.sol\":2059:2067  _tokenID */\n      dup5\n        /* \"contracts/Missions.sol\":2049:2068  s_stakers[_tokenID] */\n      dup2\n      mstore\n      0x20\n      add\n      swap1\n      dup2\n      mstore\n      0x20\n      add\n      0x00\n      keccak256\n      0x00\n      swap1\n      sload\n      swap1\n      0x0100\n      exp\n      swap1\n      div\n      0xffffffffffffffffffffffffffffffffffffffff\n      and\n        /* \"contracts/Missions.sol\":2035:2068  msg.sender == s_stakers[_tokenID] */\n      0xffffffffffffffffffffffffffffffffffffffff\n      and\n        /* \"contracts/Missions.sol\":2035:2045  msg.sender */\n      caller\n        /* \"contracts/Missions.sol\":2035:2068  msg.sender == s_stakers[_tokenID] */\n      0xffffffffffffffffffffffffffffffffffffffff\n      and\n      eq\n        /* \"contracts/Missions.sol\":2027:2103  require(msg.sender == s_stakers[_tokenID], \"Not allowed to claim ownership\") */\n      tag_51\n      jumpi\n      mload(0x40)\n      0x08c379a000000000000000000000000000000000000000000000000000000000\n      dup2\n      mstore\n      0x04\n      add\n      tag_52\n      swap1\n      tag_53\n      jump\t// in\n    tag_52:\n      mload(0x40)\n      dup1\n      swap2\n      sub\n      swap1\n      revert\n    tag_51:\n        /* \"contracts/Missions.sol\":2124:2133  parentNFT */\n      0x02\n      0x00\n      swap1\n      sload\n      swap1\n      0x0100\n      exp\n      swap1\n      div\n      0xffffffffffffffffffffffffffffffffffffffff\n      and\n        /* \"contracts/Missions.sol\":2124:2150  parentNFT.safeTransferFrom */\n      0xffffffffffffffffffffffffffffffffffffffff\n      and\n      0x42842e0e\n        /* \"contracts/Missions.sol\":2159:2163  this */\n      address\n        /* \"contracts/Missions.sol\":2166:2176  msg.sender */\n      caller\n        /* \"contracts/Missions.sol\":2178:2186  _tokenID */\n      dup7\n        /* \"contracts/Missions.sol\":2124:2187  parentNFT.safeTransferFrom(address(this), msg.sender, _tokenID) */\n      mload(0x40)\n      dup5\n      0xffffffff\n      and\n      0xe0\n      shl\n      dup2\n      mstore\n      0x04\n      add\n      tag_54\n      swap4\n      swap3\n      swap2\n      swap1\n      tag_55\n      jump\t// in\n    tag_54:\n      0x00\n      mload(0x40)\n      dup1\n      dup4\n      sub\n      dup2\n      0x00\n      dup8\n      dup1\n      extcodesize\n      iszero\n      dup1\n      iszero\n      tag_56\n      jumpi\n      0x00\n      dup1\n      revert\n    tag_56:\n      pop\n      gas\n      call\n      iszero\n      dup1\n      iszero\n      tag_58\n      jumpi\n      returndatasize\n      0x00\n      dup1\n      returndatacopy\n      revert(0x00, returndatasize)\n    tag_58:\n      pop\n      pop\n      pop\n      pop\n        /* \"contracts/Missions.sol\":2228:2229  0 */\n      0x00\n        /* \"contracts/Missions.sol\":2198:2207  s_stakers */\n      0x05\n        /* \"contracts/Missions.sol\":2198:2217  s_stakers[_tokenID] */\n      0x00\n        /* \"contracts/Missions.sol\":2208:2216  _tokenID */\n      dup6\n        /* \"contracts/Missions.sol\":2198:2217  s_stakers[_tokenID] */\n      dup2\n      mstore\n      0x20\n      add\n      swap1\n      dup2\n      mstore\n      0x20\n      add\n      0x00\n      keccak256\n      0x00\n        /* \"contracts/Missions.sol\":2198:2230  s_stakers[_tokenID] = address(0) */\n      0x0100\n      exp\n      dup2\n      sload\n      dup2\n      0xffffffffffffffffffffffffffffffffffffffff\n      mul\n      not\n      and\n      swap1\n      dup4\n      0xffffffffffffffffffffffffffffffffffffffff\n      and\n      mul\n      or\n      swap1\n      sstore\n      pop\n        /* \"contracts/Missions.sol\":2249:2257  _tokenID */\n      dup3\n        /* \"contracts/Missions.sol\":2259:2269  msg.sender */\n      caller\n        /* \"contracts/Missions.sol\":2241:2270  return (_tokenID, msg.sender) */\n      swap2\n      pop\n      swap2\n      pop\n        /* \"contracts/Missions.sol\":1922:2280  function emergencyUnstake(uint256 _tokenID) public returns (uint256 tokenID, address to)\r... */\n      swap2\n      pop\n      swap2\n      jump\t// out\n        /* \"contracts/Missions.sol\":2298:2669  function onERC721Received(address _operator, address _sender, uint256 _tokenID, bytes memory) public virtual returns (bytes4) \r... */\n    tag_21:\n        /* \"contracts/Missions.sol\":2416:2422  bytes4 */\n      0x00\n        /* \"contracts/Missions.sol\":2458:2474  parentNFTAddress */\n      0x04\n      0x00\n      swap1\n      sload\n      swap1\n      0x0100\n      exp\n      swap1\n      div\n      0xffffffffffffffffffffffffffffffffffffffff\n      and\n        /* \"contracts/Missions.sol\":2445:2474  _operator == parentNFTAddress */\n      0xffffffffffffffffffffffffffffffffffffffff\n      and\n        /* \"contracts/Missions.sol\":2445:2454  _operator */\n      dup6\n        /* \"contracts/Missions.sol\":2445:2474  _operator == parentNFTAddress */\n      0xffffffffffffffffffffffffffffffffffffffff\n      and\n      eq\n        /* \"contracts/Missions.sol\":2441:2604  if (_operator == parentNFTAddress)\r... */\n      iszero\n      tag_60\n      jumpi\n        /* \"contracts/Missions.sol\":2518:2525  _sender */\n      dup4\n        /* \"contracts/Missions.sol\":2496:2505  s_stakers */\n      0x05\n        /* \"contracts/Missions.sol\":2496:2515  s_stakers[_tokenID] */\n      0x00\n        /* \"contracts/Missions.sol\":2506:2514  _tokenID */\n      dup6\n        /* \"contracts/Missions.sol\":2496:2515  s_stakers[_tokenID] */\n      dup2\n      mstore\n      0x20\n      add\n      swap1\n      dup2\n      mstore\n      0x20\n      add\n      0x00\n      keccak256\n      0x00\n        /* \"contracts/Missions.sol\":2496:2525  s_stakers[_tokenID] = _sender */\n      0x0100\n      exp\n      dup2\n      sload\n      dup2\n      0xffffffffffffffffffffffffffffffffffffffff\n      mul\n      not\n      and\n      swap1\n      dup4\n      0xffffffffffffffffffffffffffffffffffffffff\n      and\n      mul\n      or\n      swap1\n      sstore\n      pop\n        /* \"contracts/Missions.sol\":2582:2592  10 seconds */\n      0x0a\n        /* \"contracts/Missions.sol\":2564:2579  block.timestamp */\n      timestamp\n        /* \"contracts/Missions.sol\":2564:2592  block.timestamp + 10 seconds */\n      tag_61\n      swap2\n      swap1\n      tag_62\n      jump\t// in\n    tag_61:\n        /* \"contracts/Missions.sol\":2536:2551  s_missionTimers */\n      0x06\n        /* \"contracts/Missions.sol\":2536:2561  s_missionTimers[_tokenID] */\n      0x00\n        /* \"contracts/Missions.sol\":2552:2560  _tokenID */\n      dup6\n        /* \"contracts/Missions.sol\":2536:2561  s_missionTimers[_tokenID] */\n      dup2\n      mstore\n      0x20\n      add\n      swap1\n      dup2\n      mstore\n      0x20\n      add\n      0x00\n      keccak256\n        /* \"contracts/Missions.sol\":2536:2592  s_missionTimers[_tokenID] = block.timestamp + 10 seconds */\n      dup2\n      swap1\n      sstore\n      pop\n        /* \"contracts/Missions.sol\":2441:2604  if (_operator == parentNFTAddress)\r... */\n    tag_60:\n        /* \"contracts/Missions.sol\":2631:2661  this.onERC721Received.selector */\n      shl(0xe0, 0x150b7a02)\n        /* \"contracts/Missions.sol\":2624:2661  return this.onERC721Received.selector */\n      swap1\n      pop\n        /* \"contracts/Missions.sol\":2298:2669  function onERC721Received(address _operator, address _sender, uint256 _tokenID, bytes memory) public virtual returns (bytes4) \r... */\n      swap5\n      swap4\n      pop\n      pop\n      pop\n      pop\n      jump\t// out\n        /* \"contracts/Missions.sol\":1215:1914  function unstake(uint256 _tokenID) public  returns (uint256 tokenID, address to, uint256 amountClaimed)\r... */\n    tag_26:\n        /* \"contracts/Missions.sol\":1267:1282  uint256 tokenID */\n      0x00\n        /* \"contracts/Missions.sol\":1284:1294  address to */\n      dup1\n        /* \"contracts/Missions.sol\":1296:1317  uint256 amountClaimed */\n      0x00\n        /* \"contracts/Missions.sol\":1360:1369  s_stakers */\n      0x05\n        /* \"contracts/Missions.sol\":1360:1379  s_stakers[_tokenID] */\n      0x00\n        /* \"contracts/Missions.sol\":1370:1378  _tokenID */\n      dup6\n        /* \"contracts/Missions.sol\":1360:1379  s_stakers[_tokenID] */\n      dup2\n      mstore\n      0x20\n      add\n      swap1\n      dup2\n      mstore\n      0x20\n      add\n      0x00\n      keccak256\n      0x00\n      swap1\n      sload\n      swap1\n      0x0100\n      exp\n      swap1\n      div\n      0xffffffffffffffffffffffffffffffffffffffff\n      and\n        /* \"contracts/Missions.sol\":1346:1379  msg.sender == s_stakers[_tokenID] */\n      0xffffffffffffffffffffffffffffffffffffffff\n      and\n        /* \"contracts/Missions.sol\":1346:1356  msg.sender */\n      caller\n        /* \"contracts/Missions.sol\":1346:1379  msg.sender == s_stakers[_tokenID] */\n      0xffffffffffffffffffffffffffffffffffffffff\n      and\n      eq\n        /* \"contracts/Missions.sol\":1338:1414  require(msg.sender == s_stakers[_tokenID], \"Not allowed to claim ownership\") */\n      tag_64\n      jumpi\n      mload(0x40)\n      0x08c379a000000000000000000000000000000000000000000000000000000000\n      dup2\n      mstore\n      0x04\n      add\n      tag_65\n      swap1\n      tag_53\n      jump\t// in\n    tag_65:\n      mload(0x40)\n      dup1\n      swap2\n      sub\n      swap1\n      revert\n    tag_64:\n        /* \"contracts/Missions.sol\":1451:1466  s_missionTimers */\n      0x06\n        /* \"contracts/Missions.sol\":1451:1476  s_missionTimers[_tokenID] */\n      0x00\n        /* \"contracts/Missions.sol\":1467:1475  _tokenID */\n      dup6\n        /* \"contracts/Missions.sol\":1451:1476  s_missionTimers[_tokenID] */\n      dup2\n      mstore\n      0x20\n      add\n      swap1\n      dup2\n      mstore\n      0x20\n      add\n      0x00\n      keccak256\n      sload\n        /* \"contracts/Missions.sol\":1433:1448  block.timestamp */\n      timestamp\n        /* \"contracts/Missions.sol\":1433:1476  block.timestamp > s_missionTimers[_tokenID] */\n      gt\n        /* \"contracts/Missions.sol\":1425:1542  require(block.timestamp > s_missionTimers[_tokenID], \"Too early to claim ownership, you can call emergency function\") */\n      tag_66\n      jumpi\n      mload(0x40)\n      0x08c379a000000000000000000000000000000000000000000000000000000000\n      dup2\n      mstore\n      0x04\n      add\n      tag_67\n      swap1\n      tag_68\n      jump\t// in\n    tag_67:\n      mload(0x40)\n      dup1\n      swap2\n      sub\n      swap1\n      revert\n    tag_66:\n        /* \"contracts/Missions.sol\":1553:1567  uint256 amount */\n      0x00\n        /* \"contracts/Missions.sol\":1613:1614  5 */\n      0x05\n        /* \"contracts/Missions.sol\":1610:1611  1 */\n      0x01\n        /* \"contracts/Missions.sol\":1572:1590  parentNftFunctions */\n      0x03\n      0x00\n      swap1\n      sload\n      swap1\n      0x0100\n      exp\n      swap1\n      div\n      0xffffffffffffffffffffffffffffffffffffffff\n      and\n        /* \"contracts/Missions.sol\":1572:1599  parentNftFunctions.getLevel */\n      0xffffffffffffffffffffffffffffffffffffffff\n      and\n      0x86481d40\n        /* \"contracts/Missions.sol\":1600:1608  _tokenID */\n      dup9\n        /* \"contracts/Missions.sol\":1572:1609  parentNftFunctions.getLevel(_tokenID) */\n      mload(0x40)\n      dup3\n      0xffffffff\n      and\n      0xe0\n      shl\n      dup2\n      mstore\n      0x04\n      add\n      tag_69\n      swap2\n      swap1\n      tag_70\n      jump\t// in\n    tag_69:\n      0x20\n      mload(0x40)\n      dup1\n      dup4\n      sub\n      dup2\n      dup7\n      dup1\n      extcodesize\n      iszero\n      dup1\n      iszero\n      tag_71\n      jumpi\n      0x00\n      dup1\n      revert\n    tag_71:\n      pop\n      gas\n      staticcall\n      iszero\n      dup1\n      iszero\n      tag_73\n      jumpi\n      returndatasize\n      0x00\n      dup1\n      returndatacopy\n      revert(0x00, returndatasize)\n    tag_73:\n      pop\n      pop\n      pop\n      pop\n      mload(0x40)\n      returndatasize\n      not(0x1f)\n      0x1f\n      dup3\n      add\n      and\n      dup3\n      add\n      dup1\n      0x40\n      mstore\n      pop\n      dup2\n      add\n      swap1\n      tag_74\n      swap2\n      swap1\n      tag_75\n      jump\t// in\n    tag_74:\n        /* \"contracts/Missions.sol\":1572:1611  parentNftFunctions.getLevel(_tokenID)+1 */\n      tag_76\n      swap2\n      swap1\n      tag_62\n      jump\t// in\n    tag_76:\n        /* \"contracts/Missions.sol\":1571:1614  (parentNftFunctions.getLevel(_tokenID)+1)*5 */\n      tag_77\n      swap2\n      swap1\n      tag_78\n      jump\t// in\n    tag_77:\n        /* \"contracts/Missions.sol\":1553:1615  uint256 amount = ((parentNftFunctions.getLevel(_tokenID)+1)*5) */\n      swap1\n      pop\n        /* \"contracts/Missions.sol\":1626:1644  parentNftFunctions */\n      0x03\n      0x00\n      swap1\n      sload\n      swap1\n      0x0100\n      exp\n      swap1\n      div\n      0xffffffffffffffffffffffffffffffffffffffff\n      and\n        /* \"contracts/Missions.sol\":1626:1657  parentNftFunctions.assignPoints */\n      0xffffffffffffffffffffffffffffffffffffffff\n      and\n      0xc316d108\n        /* \"contracts/Missions.sol\":1658:1666  _tokenID */\n      dup7\n        /* \"contracts/Missions.sol\":1668:1674  amount */\n      dup4\n        /* \"contracts/Missions.sol\":1626:1675  parentNftFunctions.assignPoints(_tokenID, amount) */\n      mload(0x40)\n      dup4\n      0xffffffff\n      and\n      0xe0\n      shl\n      dup2\n      mstore\n      0x04\n      add\n      tag_79\n      swap3\n      swap2\n      swap1\n      tag_80\n      jump\t// in\n    tag_79:\n      0x20\n      mload(0x40)\n      dup1\n      dup4\n      sub\n      dup2\n      0x00\n      dup8\n      dup1\n      extcodesize\n      iszero\n      dup1\n      iszero\n      tag_81\n      jumpi\n      0x00\n      dup1\n      revert\n    tag_81:\n      pop\n      gas\n      call\n      iszero\n      dup1\n      iszero\n      tag_83\n      jumpi\n      returndatasize\n      0x00\n      dup1\n      returndatacopy\n      revert(0x00, returndatasize)\n    tag_83:\n      pop\n      pop\n      pop\n      pop\n      mload(0x40)\n      returndatasize\n      not(0x1f)\n      0x1f\n      dup3\n      add\n      and\n      dup3\n      add\n      dup1\n      0x40\n      mstore\n      pop\n      dup2\n      add\n      swap1\n      tag_84\n      swap2\n      swap1\n      tag_85\n      jump\t// in\n    tag_84:\n      pop\n        /* \"contracts/Missions.sol\":1686:1695  parentNFT */\n      0x02\n      0x00\n      swap1\n      sload\n      swap1\n      0x0100\n      exp\n      swap1\n      div\n      0xffffffffffffffffffffffffffffffffffffffff\n      and\n        /* \"contracts/Missions.sol\":1686:1712  parentNFT.safeTransferFrom */\n      0xffffffffffffffffffffffffffffffffffffffff\n      and\n      0x42842e0e\n        /* \"contracts/Missions.sol\":1721:1725  this */\n      address\n        /* \"contracts/Missions.sol\":1728:1738  msg.sender */\n      caller\n        /* \"contracts/Missions.sol\":1740:1748  _tokenID */\n      dup9\n        /* \"contracts/Missions.sol\":1686:1749  parentNFT.safeTransferFrom(address(this), msg.sender, _tokenID) */\n      mload(0x40)\n      dup5\n      0xffffffff\n      and\n      0xe0\n      shl\n      dup2\n      mstore\n      0x04\n      add\n      tag_86\n      swap4\n      swap3\n      swap2\n      swap1\n      tag_55\n      jump\t// in\n    tag_86:\n      0x00\n      mload(0x40)\n      dup1\n      dup4\n      sub\n      dup2\n      0x00\n      dup8\n      dup1\n      extcodesize\n      iszero\n      dup1\n      iszero\n      tag_87\n      jumpi\n      0x00\n      dup1\n      revert\n    tag_87:\n      pop\n      gas\n      call\n      iszero\n      dup1\n      iszero\n      tag_89\n      jumpi\n      returndatasize\n      0x00\n      dup1\n      returndatacopy\n      revert(0x00, returndatasize)\n    tag_89:\n      pop\n      pop\n      pop\n      pop\n        /* \"contracts/Missions.sol\":1760:1764  vGas */\n      0x01\n      0x00\n      swap1\n      sload\n      swap1\n      0x0100\n      exp\n      swap1\n      div\n      0xffffffffffffffffffffffffffffffffffffffff\n      and\n        /* \"contracts/Missions.sol\":1760:1773  vGas.transfer */\n      0xffffffffffffffffffffffffffffffffffffffff\n      and\n      0xa9059cbb\n        /* \"contracts/Missions.sol\":1774:1784  msg.sender */\n      caller\n        /* \"contracts/Missions.sol\":1786:1792  amount */\n      dup4\n        /* \"contracts/Missions.sol\":1760:1793  vGas.transfer(msg.sender, amount) */\n      mload(0x40)\n      dup4\n      0xffffffff\n      and\n      0xe0\n      shl\n      dup2\n      mstore\n      0x04\n      add\n      tag_90\n      swap3\n      swap2\n      swap1\n      tag_33\n      jump\t// in\n    tag_90:\n      0x20\n      mload(0x40)\n      dup1\n      dup4\n      sub\n      dup2\n      0x00\n      dup8\n      dup1\n      extcodesize\n      iszero\n      dup1\n      iszero\n      tag_91\n      jumpi\n      0x00\n      dup1\n      revert\n    tag_91:\n      pop\n      gas\n      call\n      iszero\n      dup1\n      iszero\n      tag_93\n      jumpi\n      returndatasize\n      0x00\n      dup1\n      returndatacopy\n      revert(0x00, returndatasize)\n    tag_93:\n      pop\n      pop\n      pop\n      pop\n      mload(0x40)\n      returndatasize\n      not(0x1f)\n      0x1f\n      dup3\n      add\n      and\n      dup3\n      add\n      dup1\n      0x40\n      mstore\n      pop\n      dup2\n      add\n      swap1\n      tag_94\n      swap2\n      swap1\n      tag_85\n      jump\t// in\n    tag_94:\n      pop\n        /* \"contracts/Missions.sol\":1837:1838  0 */\n      0x00\n        /* \"contracts/Missions.sol\":1807:1816  s_stakers */\n      0x05\n        /* \"contracts/Missions.sol\":1807:1826  s_stakers[_tokenID] */\n      0x00\n        /* \"contracts/Missions.sol\":1817:1825  _tokenID */\n      dup8\n        /* \"contracts/Missions.sol\":1807:1826  s_stakers[_tokenID] */\n      dup2\n      mstore\n      0x20\n      add\n      swap1\n      dup2\n      mstore\n      0x20\n      add\n      0x00\n      keccak256\n      0x00\n        /* \"contracts/Missions.sol\":1807:1839  s_stakers[_tokenID] = address(0) */\n      0x0100\n      exp\n      dup2\n      sload\n      dup2\n      0xffffffffffffffffffffffffffffffffffffffff\n      mul\n      not\n      and\n      swap1\n      dup4\n      0xffffffffffffffffffffffffffffffffffffffff\n      and\n      mul\n      or\n      swap1\n      sstore\n      pop\n        /* \"contracts/Missions.sol\":1858:1866  _tokenID */\n      dup5\n        /* \"contracts/Missions.sol\":1868:1878  msg.sender */\n      caller\n        /* \"contracts/Missions.sol\":1880:1895  s_missionTimers */\n      0x06\n        /* \"contracts/Missions.sol\":1880:1905  s_missionTimers[_tokenID] */\n      0x00\n        /* \"contracts/Missions.sol\":1896:1904  _tokenID */\n      dup9\n        /* \"contracts/Missions.sol\":1880:1905  s_missionTimers[_tokenID] */\n      dup2\n      mstore\n      0x20\n      add\n      swap1\n      dup2\n      mstore\n      0x20\n      add\n      0x00\n      keccak256\n      sload\n        /* \"contracts/Missions.sol\":1850:1906  return (_tokenID, msg.sender, s_missionTimers[_tokenID]) */\n      swap4\n      pop\n      swap4\n      pop\n      swap4\n      pop\n      pop\n        /* \"contracts/Missions.sol\":1215:1914  function unstake(uint256 _tokenID) public  returns (uint256 tokenID, address to, uint256 amountClaimed)\r... */\n      swap2\n      swap4\n      swap1\n      swap3\n      pop\n      jump\t// out\n        /* \"contracts/Missions.sol\":1039:1203  function getStakes(uint256 _tokenID) public view returns (address add, uint256 time)\r... */\n    tag_31:\n        /* \"contracts/Missions.sol\":1097:1108  address add */\n      0x00\n        /* \"contracts/Missions.sol\":1110:1122  uint256 time */\n      dup1\n        /* \"contracts/Missions.sol\":1148:1157  s_stakers */\n      0x05\n        /* \"contracts/Missions.sol\":1148:1167  s_stakers[_tokenID] */\n      0x00\n        /* \"contracts/Missions.sol\":1158:1166  _tokenID */\n      dup5\n        /* \"contracts/Missions.sol\":1148:1167  s_stakers[_tokenID] */\n      dup2\n      mstore\n      0x20\n      add\n      swap1\n      dup2\n      mstore\n      0x20\n      add\n      0x00\n      keccak256\n      0x00\n      swap1\n      sload\n      swap1\n      0x0100\n      exp\n      swap1\n      div\n      0xffffffffffffffffffffffffffffffffffffffff\n      and\n        /* \"contracts/Missions.sol\":1169:1184  s_missionTimers */\n      0x06\n        /* \"contracts/Missions.sol\":1169:1194  s_missionTimers[_tokenID] */\n      0x00\n        /* \"contracts/Missions.sol\":1185:1193  _tokenID */\n      dup6\n        /* \"contracts/Missions.sol\":1169:1194  s_missionTimers[_tokenID] */\n      dup2\n      mstore\n      0x20\n      add\n      swap1\n      dup2\n      mstore\n      0x20\n      add\n      0x00\n      keccak256\n      sload\n        /* \"contracts/Missions.sol\":1140:1195  return (s_stakers[_tokenID], s_missionTimers[_tokenID]) */\n      swap2\n      pop\n      swap2\n      pop\n        /* \"contracts/Missions.sol\":1039:1203  function getStakes(uint256 _tokenID) public view returns (address add, uint256 time)\r... */\n      swap2\n      pop\n      swap2\n      jump\t// out\n        /* \"contracts/Missions.sol\":623:654  address public parentNFTAddress */\n    tag_35:\n      0x04\n      0x00\n      swap1\n      sload\n      swap1\n      0x0100\n      exp\n      swap1\n      div\n      0xffffffffffffffffffffffffffffffffffffffff\n      and\n      dup2\n      jump\t// out\n        /* \"contracts/Missions.sol\":551:575  IERC721 public parentNFT */\n    tag_39:\n      0x02\n      0x00\n      swap1\n      sload\n      swap1\n      0x0100\n      exp\n      swap1\n      div\n      0xffffffffffffffffffffffffffffffffffffffff\n      and\n      dup2\n      jump\t// out\n        /* \"contracts/Missions.sol\":526:544  IERC20 public vGas */\n    tag_43:\n      0x01\n      0x00\n      swap1\n      sload\n      swap1\n      0x0100\n      exp\n      swap1\n      div\n      0xffffffffffffffffffffffffffffffffffffffff\n      and\n      dup2\n      jump\t// out\n        /* \"contracts/Missions.sol\":582:616  INFTGame public parentNftFunctions */\n    tag_47:\n      0x03\n      0x00\n      swap1\n      sload\n      swap1\n      0x0100\n      exp\n      swap1\n      div\n      0xffffffffffffffffffffffffffffffffffffffff\n      and\n      dup2\n      jump\t// out\n        /* \"#utility.yul\":7:417   */\n    tag_97:\n        /* \"#utility.yul\":84:89   */\n      0x00\n        /* \"#utility.yul\":109:174   */\n      tag_99\n        /* \"#utility.yul\":125:173   */\n      tag_100\n        /* \"#utility.yul\":166:172   */\n      dup5\n        /* \"#utility.yul\":125:173   */\n      tag_101\n      jump\t// in\n    tag_100:\n        /* \"#utility.yul\":109:174   */\n      tag_102\n      jump\t// in\n    tag_99:\n        /* \"#utility.yul\":100:174   */\n      swap1\n      pop\n        /* \"#utility.yul\":197:203   */\n      dup3\n        /* \"#utility.yul\":190:195   */\n      dup2\n        /* \"#utility.yul\":183:204   */\n      mstore\n        /* \"#utility.yul\":235:239   */\n      0x20\n        /* \"#utility.yul\":228:233   */\n      dup2\n        /* \"#utility.yul\":224:240   */\n      add\n        /* \"#utility.yul\":273:276   */\n      dup5\n        /* \"#utility.yul\":264:270   */\n      dup5\n        /* \"#utility.yul\":259:262   */\n      dup5\n        /* \"#utility.yul\":255:271   */\n      add\n        /* \"#utility.yul\":252:277   */\n      gt\n        /* \"#utility.yul\":249:361   */\n      iszero\n      tag_103\n      jumpi\n        /* \"#utility.yul\":280:359   */\n      tag_104\n      tag_105\n      jump\t// in\n    tag_104:\n        /* \"#utility.yul\":249:361   */\n    tag_103:\n        /* \"#utility.yul\":370:411   */\n      tag_106\n        /* \"#utility.yul\":404:410   */\n      dup5\n        /* \"#utility.yul\":399:402   */\n      dup3\n        /* \"#utility.yul\":394:397   */\n      dup6\n        /* \"#utility.yul\":370:411   */\n      tag_107\n      jump\t// in\n    tag_106:\n        /* \"#utility.yul\":90:417   */\n      pop\n        /* \"#utility.yul\":7:417   */\n      swap4\n      swap3\n      pop\n      pop\n      pop\n      jump\t// out\n        /* \"#utility.yul\":423:562   */\n    tag_108:\n        /* \"#utility.yul\":469:474   */\n      0x00\n        /* \"#utility.yul\":507:513   */\n      dup2\n        /* \"#utility.yul\":494:514   */\n      calldataload\n        /* \"#utility.yul\":485:514   */\n      swap1\n      pop\n        /* \"#utility.yul\":523:556   */\n      tag_110\n        /* \"#utility.yul\":550:555   */\n      dup2\n        /* \"#utility.yul\":523:556   */\n      tag_111\n      jump\t// in\n    tag_110:\n        /* \"#utility.yul\":423:562   */\n      swap3\n      swap2\n      pop\n      pop\n      jump\t// out\n        /* \"#utility.yul\":568:705   */\n    tag_112:\n        /* \"#utility.yul\":622:627   */\n      0x00\n        /* \"#utility.yul\":653:659   */\n      dup2\n        /* \"#utility.yul\":647:660   */\n      mload\n        /* \"#utility.yul\":638:660   */\n      swap1\n      pop\n        /* \"#utility.yul\":669:699   */\n      tag_114\n        /* \"#utility.yul\":693:698   */\n      dup2\n        /* \"#utility.yul\":669:699   */\n      tag_115\n      jump\t// in\n    tag_114:\n        /* \"#utility.yul\":568:705   */\n      swap3\n      swap2\n      pop\n      pop\n      jump\t// out\n        /* \"#utility.yul\":724:1062   */\n    tag_116:\n        /* \"#utility.yul\":779:784   */\n      0x00\n        /* \"#utility.yul\":828:831   */\n      dup3\n        /* \"#utility.yul\":821:825   */\n      0x1f\n        /* \"#utility.yul\":813:819   */\n      dup4\n        /* \"#utility.yul\":809:826   */\n      add\n        /* \"#utility.yul\":805:832   */\n      slt\n        /* \"#utility.yul\":795:917   */\n      tag_118\n      jumpi\n        /* \"#utility.yul\":836:915   */\n      tag_119\n      tag_120\n      jump\t// in\n    tag_119:\n        /* \"#utility.yul\":795:917   */\n    tag_118:\n        /* \"#utility.yul\":953:959   */\n      dup2\n        /* \"#utility.yul\":940:960   */\n      calldataload\n        /* \"#utility.yul\":978:1056   */\n      tag_121\n        /* \"#utility.yul\":1052:1055   */\n      dup5\n        /* \"#utility.yul\":1044:1050   */\n      dup3\n        /* \"#utility.yul\":1037:1041   */\n      0x20\n        /* \"#utility.yul\":1029:1035   */\n      dup7\n        /* \"#utility.yul\":1025:1042   */\n      add\n        /* \"#utility.yul\":978:1056   */\n      tag_97\n      jump\t// in\n    tag_121:\n        /* \"#utility.yul\":969:1056   */\n      swap2\n      pop\n        /* \"#utility.yul\":785:1062   */\n      pop\n        /* \"#utility.yul\":724:1062   */\n      swap3\n      swap2\n      pop\n      pop\n      jump\t// out\n        /* \"#utility.yul\":1068:1207   */\n    tag_122:\n        /* \"#utility.yul\":1114:1119   */\n      0x00\n        /* \"#utility.yul\":1152:1158   */\n      dup2\n        /* \"#utility.yul\":1139:1159   */\n      calldataload\n        /* \"#utility.yul\":1130:1159   */\n      swap1\n      pop\n        /* \"#utility.yul\":1168:1201   */\n      tag_124\n        /* \"#utility.yul\":1195:1200   */\n      dup2\n        /* \"#utility.yul\":1168:1201   */\n      tag_125\n      jump\t// in\n    tag_124:\n        /* \"#utility.yul\":1068:1207   */\n      swap3\n      swap2\n      pop\n      pop\n      jump\t// out\n        /* \"#utility.yul\":1213:1356   */\n    tag_126:\n        /* \"#utility.yul\":1270:1275   */\n      0x00\n        /* \"#utility.yul\":1301:1307   */\n      dup2\n        /* \"#utility.yul\":1295:1308   */\n      mload\n        /* \"#utility.yul\":1286:1308   */\n      swap1\n      pop\n        /* \"#utility.yul\":1317:1350   */\n      tag_128\n        /* \"#utility.yul\":1344:1349   */\n      dup2\n        /* \"#utility.yul\":1317:1350   */\n      tag_125\n      jump\t// in\n    tag_128:\n        /* \"#utility.yul\":1213:1356   */\n      swap3\n      swap2\n      pop\n      pop\n      jump\t// out\n        /* \"#utility.yul\":1362:2305   */\n    tag_20:\n        /* \"#utility.yul\":1457:1463   */\n      0x00\n        /* \"#utility.yul\":1465:1471   */\n      dup1\n        /* \"#utility.yul\":1473:1479   */\n      0x00\n        /* \"#utility.yul\":1481:1487   */\n      dup1\n        /* \"#utility.yul\":1530:1533   */\n      0x80\n        /* \"#utility.yul\":1518:1527   */\n      dup6\n        /* \"#utility.yul\":1509:1516   */\n      dup8\n        /* \"#utility.yul\":1505:1528   */\n      sub\n        /* \"#utility.yul\":1501:1534   */\n      slt\n        /* \"#utility.yul\":1498:1618   */\n      iszero\n      tag_130\n      jumpi\n        /* \"#utility.yul\":1537:1616   */\n      tag_131\n      tag_132\n      jump\t// in\n    tag_131:\n        /* \"#utility.yul\":1498:1618   */\n    tag_130:\n        /* \"#utility.yul\":1657:1658   */\n      0x00\n        /* \"#utility.yul\":1682:1735   */\n      tag_133\n        /* \"#utility.yul\":1727:1734   */\n      dup8\n        /* \"#utility.yul\":1718:1724   */\n      dup3\n        /* \"#utility.yul\":1707:1716   */\n      dup9\n        /* \"#utility.yul\":1703:1725   */\n      add\n        /* \"#utility.yul\":1682:1735   */\n      tag_108\n      jump\t// in\n    tag_133:\n        /* \"#utility.yul\":1672:1735   */\n      swap5\n      pop\n        /* \"#utility.yul\":1628:1745   */\n      pop\n        /* \"#utility.yul\":1784:1786   */\n      0x20\n        /* \"#utility.yul\":1810:1863   */\n      tag_134\n        /* \"#utility.yul\":1855:1862   */\n      dup8\n        /* \"#utility.yul\":1846:1852   */\n      dup3\n        /* \"#utility.yul\":1835:1844   */\n      dup9\n        /* \"#utility.yul\":1831:1853   */\n      add\n        /* \"#utility.yul\":1810:1863   */\n      tag_108\n      jump\t// in\n    tag_134:\n        /* \"#utility.yul\":1800:1863   */\n      swap4\n      pop\n        /* \"#utility.yul\":1755:1873   */\n      pop\n        /* \"#utility.yul\":1912:1914   */\n      0x40\n        /* \"#utility.yul\":1938:1991   */\n      tag_135\n        /* \"#utility.yul\":1983:1990   */\n      dup8\n        /* \"#utility.yul\":1974:1980   */\n      dup3\n        /* \"#utility.yul\":1963:1972   */\n      dup9\n        /* \"#utility.yul\":1959:1981   */\n      add\n        /* \"#utility.yul\":1938:1991   */\n      tag_122\n      jump\t// in\n    tag_135:\n        /* \"#utility.yul\":1928:1991   */\n      swap3\n      pop\n        /* \"#utility.yul\":1883:2001   */\n      pop\n        /* \"#utility.yul\":2068:2070   */\n      0x60\n        /* \"#utility.yul\":2057:2066   */\n      dup6\n        /* \"#utility.yul\":2053:2071   */\n      add\n        /* \"#utility.yul\":2040:2072   */\n      calldataload\n        /* \"#utility.yul\":2099:2117   */\n      0xffffffffffffffff\n        /* \"#utility.yul\":2091:2097   */\n      dup2\n        /* \"#utility.yul\":2088:2118   */\n      gt\n        /* \"#utility.yul\":2085:2202   */\n      iszero\n      tag_136\n      jumpi\n        /* \"#utility.yul\":2121:2200   */\n      tag_137\n      tag_138\n      jump\t// in\n    tag_137:\n        /* \"#utility.yul\":2085:2202   */\n    tag_136:\n        /* \"#utility.yul\":2226:2288   */\n      tag_139\n        /* \"#utility.yul\":2280:2287   */\n      dup8\n        /* \"#utility.yul\":2271:2277   */\n      dup3\n        /* \"#utility.yul\":2260:2269   */\n      dup9\n        /* \"#utility.yul\":2256:2278   */\n      add\n        /* \"#utility.yul\":2226:2288   */\n      tag_116\n      jump\t// in\n    tag_139:\n        /* \"#utility.yul\":2216:2288   */\n      swap2\n      pop\n        /* \"#utility.yul\":2011:2298   */\n      pop\n        /* \"#utility.yul\":1362:2305   */\n      swap3\n      swap6\n      swap2\n      swap5\n      pop\n      swap3\n      pop\n      jump\t// out\n        /* \"#utility.yul\":2311:2656   */\n    tag_85:\n        /* \"#utility.yul\":2378:2384   */\n      0x00\n        /* \"#utility.yul\":2427:2429   */\n      0x20\n        /* \"#utility.yul\":2415:2424   */\n      dup3\n        /* \"#utility.yul\":2406:2413   */\n      dup5\n        /* \"#utility.yul\":2402:2425   */\n      sub\n        /* \"#utility.yul\":2398:2430   */\n      slt\n        /* \"#utility.yul\":2395:2514   */\n      iszero\n      tag_141\n      jumpi\n        /* \"#utility.yul\":2433:2512   */\n      tag_142\n      tag_132\n      jump\t// in\n    tag_142:\n        /* \"#utility.yul\":2395:2514   */\n    tag_141:\n        /* \"#utility.yul\":2553:2554   */\n      0x00\n        /* \"#utility.yul\":2578:2639   */\n      tag_143\n        /* \"#utility.yul\":2631:2638   */\n      dup5\n        /* \"#utility.yul\":2622:2628   */\n      dup3\n        /* \"#utility.yul\":2611:2620   */\n      dup6\n        /* \"#utility.yul\":2607:2629   */\n      add\n        /* \"#utility.yul\":2578:2639   */\n      tag_112\n      jump\t// in\n    tag_143:\n        /* \"#utility.yul\":2568:2639   */\n      swap2\n      pop\n        /* \"#utility.yul\":2524:2649   */\n      pop\n        /* \"#utility.yul\":2311:2656   */\n      swap3\n      swap2\n      pop\n      pop\n      jump\t// out\n        /* \"#utility.yul\":2662:2991   */\n    tag_14:\n        /* \"#utility.yul\":2721:2727   */\n      0x00\n        /* \"#utility.yul\":2770:2772   */\n      0x20\n        /* \"#utility.yul\":2758:2767   */\n      dup3\n        /* \"#utility.yul\":2749:2756   */\n      dup5\n        /* \"#utility.yul\":2745:2768   */\n      sub\n        /* \"#utility.yul\":2741:2773   */\n      slt\n        /* \"#utility.yul\":2738:2857   */\n      iszero\n      tag_145\n      jumpi\n        /* \"#utility.yul\":2776:2855   */\n      tag_146\n      tag_132\n      jump\t// in\n    tag_146:\n        /* \"#utility.yul\":2738:2857   */\n    tag_145:\n        /* \"#utility.yul\":2896:2897   */\n      0x00\n        /* \"#utility.yul\":2921:2974   */\n      tag_147\n        /* \"#utility.yul\":2966:2973   */\n      dup5\n        /* \"#utility.yul\":2957:2963   */\n      dup3\n        /* \"#utility.yul\":2946:2955   */\n      dup6\n        /* \"#utility.yul\":2942:2964   */\n      add\n        /* \"#utility.yul\":2921:2974   */\n      tag_122\n      jump\t// in\n    tag_147:\n        /* \"#utility.yul\":2911:2974   */\n      swap2\n      pop\n        /* \"#utility.yul\":2867:2984   */\n      pop\n        /* \"#utility.yul\":2662:2991   */\n      swap3\n      swap2\n      pop\n      pop\n      jump\t// out\n        /* \"#utility.yul\":2997:3348   */\n    tag_75:\n        /* \"#utility.yul\":3067:3073   */\n      0x00\n        /* \"#utility.yul\":3116:3118   */\n      0x20\n        /* \"#utility.yul\":3104:3113   */\n      dup3\n        /* \"#utility.yul\":3095:3102   */\n      dup5\n        /* \"#utility.yul\":3091:3114   */\n      sub\n        /* \"#utility.yul\":3087:3119   */\n      slt\n        /* \"#utility.yul\":3084:3203   */\n      iszero\n      tag_149\n      jumpi\n        /* \"#utility.yul\":3122:3201   */\n      tag_150\n      tag_132\n      jump\t// in\n    tag_150:\n        /* \"#utility.yul\":3084:3203   */\n    tag_149:\n        /* \"#utility.yul\":3242:3243   */\n      0x00\n        /* \"#utility.yul\":3267:3331   */\n      tag_151\n        /* \"#utility.yul\":3323:3330   */\n      dup5\n        /* \"#utility.yul\":3314:3320   */\n      dup3\n        /* \"#utility.yul\":3303:3312   */\n      dup6\n        /* \"#utility.yul\":3299:3321   */\n      add\n        /* \"#utility.yul\":3267:3331   */\n      tag_126\n      jump\t// in\n    tag_151:\n        /* \"#utility.yul\":3257:3331   */\n      swap2\n      pop\n        /* \"#utility.yul\":3213:3341   */\n      pop\n        /* \"#utility.yul\":2997:3348   */\n      swap3\n      swap2\n      pop\n      pop\n      jump\t// out\n        /* \"#utility.yul\":3354:3472   */\n    tag_152:\n        /* \"#utility.yul\":3441:3465   */\n      tag_154\n        /* \"#utility.yul\":3459:3464   */\n      dup2\n        /* \"#utility.yul\":3441:3465   */\n      tag_155\n      jump\t// in\n    tag_154:\n        /* \"#utility.yul\":3436:3439   */\n      dup3\n        /* \"#utility.yul\":3429:3466   */\n      mstore\n        /* \"#utility.yul\":3354:3472   */\n      pop\n      pop\n      jump\t// out\n        /* \"#utility.yul\":3478:3593   */\n    tag_156:\n        /* \"#utility.yul\":3563:3586   */\n      tag_158\n        /* \"#utility.yul\":3580:3585   */\n      dup2\n        /* \"#utility.yul\":3563:3586   */\n      tag_159\n      jump\t// in\n    tag_158:\n        /* \"#utility.yul\":3558:3561   */\n      dup3\n        /* \"#utility.yul\":3551:3587   */\n      mstore\n        /* \"#utility.yul\":3478:3593   */\n      pop\n      pop\n      jump\t// out\n        /* \"#utility.yul\":3599:3758   */\n    tag_160:\n        /* \"#utility.yul\":3700:3751   */\n      tag_162\n        /* \"#utility.yul\":3745:3750   */\n      dup2\n        /* \"#utility.yul\":3700:3751   */\n      tag_163\n      jump\t// in\n    tag_162:\n        /* \"#utility.yul\":3695:3698   */\n      dup3\n        /* \"#utility.yul\":3688:3752   */\n      mstore\n        /* \"#utility.yul\":3599:3758   */\n      pop\n      pop\n      jump\t// out\n        /* \"#utility.yul\":3764:3927   */\n    tag_164:\n        /* \"#utility.yul\":3867:3920   */\n      tag_166\n        /* \"#utility.yul\":3914:3919   */\n      dup2\n        /* \"#utility.yul\":3867:3920   */\n      tag_167\n      jump\t// in\n    tag_166:\n        /* \"#utility.yul\":3862:3865   */\n      dup3\n        /* \"#utility.yul\":3855:3921   */\n      mstore\n        /* \"#utility.yul\":3764:3927   */\n      pop\n      pop\n      jump\t// out\n        /* \"#utility.yul\":3933:4098   */\n    tag_168:\n        /* \"#utility.yul\":4037:4091   */\n      tag_170\n        /* \"#utility.yul\":4085:4090   */\n      dup2\n        /* \"#utility.yul\":4037:4091   */\n      tag_171\n      jump\t// in\n    tag_170:\n        /* \"#utility.yul\":4032:4035   */\n      dup3\n        /* \"#utility.yul\":4025:4092   */\n      mstore\n        /* \"#utility.yul\":3933:4098   */\n      pop\n      pop\n      jump\t// out\n        /* \"#utility.yul\":4104:4470   */\n    tag_172:\n        /* \"#utility.yul\":4246:4249   */\n      0x00\n        /* \"#utility.yul\":4267:4334   */\n      tag_174\n        /* \"#utility.yul\":4331:4333   */\n      0x1e\n        /* \"#utility.yul\":4326:4329   */\n      dup4\n        /* \"#utility.yul\":4267:4334   */\n      tag_175\n      jump\t// in\n    tag_174:\n        /* \"#utility.yul\":4260:4334   */\n      swap2\n      pop\n        /* \"#utility.yul\":4343:4436   */\n      tag_176\n        /* \"#utility.yul\":4432:4435   */\n      dup3\n        /* \"#utility.yul\":4343:4436   */\n      tag_177\n      jump\t// in\n    tag_176:\n        /* \"#utility.yul\":4461:4463   */\n      0x20\n        /* \"#utility.yul\":4456:4459   */\n      dup3\n        /* \"#utility.yul\":4452:4464   */\n      add\n        /* \"#utility.yul\":4445:4464   */\n      swap1\n      pop\n        /* \"#utility.yul\":4104:4470   */\n      swap2\n      swap1\n      pop\n      jump\t// out\n        /* \"#utility.yul\":4476:4842   */\n    tag_178:\n        /* \"#utility.yul\":4618:4621   */\n      0x00\n        /* \"#utility.yul\":4639:4706   */\n      tag_180\n        /* \"#utility.yul\":4703:4705   */\n      0x3d\n        /* \"#utility.yul\":4698:4701   */\n      dup4\n        /* \"#utility.yul\":4639:4706   */\n      tag_175\n      jump\t// in\n    tag_180:\n        /* \"#utility.yul\":4632:4706   */\n      swap2\n      pop\n        /* \"#utility.yul\":4715:4808   */\n      tag_181\n        /* \"#utility.yul\":4804:4807   */\n      dup3\n        /* \"#utility.yul\":4715:4808   */\n      tag_182\n      jump\t// in\n    tag_181:\n        /* \"#utility.yul\":4833:4835   */\n      0x40\n        /* \"#utility.yul\":4828:4831   */\n      dup3\n        /* \"#utility.yul\":4824:4836   */\n      add\n        /* \"#utility.yul\":4817:4836   */\n      swap1\n      pop\n        /* \"#utility.yul\":4476:4842   */\n      swap2\n      swap1\n      pop\n      jump\t// out\n        /* \"#utility.yul\":4848:4966   */\n    tag_183:\n        /* \"#utility.yul\":4935:4959   */\n      tag_185\n        /* \"#utility.yul\":4953:4958   */\n      dup2\n        /* \"#utility.yul\":4935:4959   */\n      tag_186\n      jump\t// in\n    tag_185:\n        /* \"#utility.yul\":4930:4933   */\n      dup3\n        /* \"#utility.yul\":4923:4960   */\n      mstore\n        /* \"#utility.yul\":4848:4966   */\n      pop\n      pop\n      jump\t// out\n        /* \"#utility.yul\":4972:5194   */\n    tag_37:\n        /* \"#utility.yul\":5065:5069   */\n      0x00\n        /* \"#utility.yul\":5103:5105   */\n      0x20\n        /* \"#utility.yul\":5092:5101   */\n      dup3\n        /* \"#utility.yul\":5088:5106   */\n      add\n        /* \"#utility.yul\":5080:5106   */\n      swap1\n      pop\n        /* \"#utility.yul\":5116:5187   */\n      tag_188\n        /* \"#utility.yul\":5184:5185   */\n      0x00\n        /* \"#utility.yul\":5173:5182   */\n      dup4\n        /* \"#utility.yul\":5169:5186   */\n      add\n        /* \"#utility.yul\":5160:5166   */\n      dup5\n        /* \"#utility.yul\":5116:5187   */\n      tag_152\n      jump\t// in\n    tag_188:\n        /* \"#utility.yul\":4972:5194   */\n      swap3\n      swap2\n      pop\n      pop\n      jump\t// out\n        /* \"#utility.yul\":5200:5642   */\n    tag_55:\n        /* \"#utility.yul\":5349:5353   */\n      0x00\n        /* \"#utility.yul\":5387:5389   */\n      0x60\n        /* \"#utility.yul\":5376:5385   */\n      dup3\n        /* \"#utility.yul\":5372:5390   */\n      add\n        /* \"#utility.yul\":5364:5390   */\n      swap1\n      pop\n        /* \"#utility.yul\":5400:5471   */\n      tag_190\n        /* \"#utility.yul\":5468:5469   */\n      0x00\n        /* \"#utility.yul\":5457:5466   */\n      dup4\n        /* \"#utility.yul\":5453:5470   */\n      add\n        /* \"#utility.yul\":5444:5450   */\n      dup7\n        /* \"#utility.yul\":5400:5471   */\n      tag_152\n      jump\t// in\n    tag_190:\n        /* \"#utility.yul\":5481:5553   */\n      tag_191\n        /* \"#utility.yul\":5549:5551   */\n      0x20\n        /* \"#utility.yul\":5538:5547   */\n      dup4\n        /* \"#utility.yul\":5534:5552   */\n      add\n        /* \"#utility.yul\":5525:5531   */\n      dup6\n        /* \"#utility.yul\":5481:5553   */\n      tag_152\n      jump\t// in\n    tag_191:\n        /* \"#utility.yul\":5563:5635   */\n      tag_192\n        /* \"#utility.yul\":5631:5633   */\n      0x40\n        /* \"#utility.yul\":5620:5629   */\n      dup4\n        /* \"#utility.yul\":5616:5634   */\n      add\n        /* \"#utility.yul\":5607:5613   */\n      dup5\n        /* \"#utility.yul\":5563:5635   */\n      tag_183\n      jump\t// in\n    tag_192:\n        /* \"#utility.yul\":5200:5642   */\n      swap5\n      swap4\n      pop\n      pop\n      pop\n      pop\n      jump\t// out\n        /* \"#utility.yul\":5648:5980   */\n    tag_33:\n        /* \"#utility.yul\":5769:5773   */\n      0x00\n        /* \"#utility.yul\":5807:5809   */\n      0x40\n        /* \"#utility.yul\":5796:5805   */\n      dup3\n        /* \"#utility.yul\":5792:5810   */\n      add\n        /* \"#utility.yul\":5784:5810   */\n      swap1\n      pop\n        /* \"#utility.yul\":5820:5891   */\n      tag_194\n        /* \"#utility.yul\":5888:5889   */\n      0x00\n        /* \"#utility.yul\":5877:5886   */\n      dup4\n        /* \"#utility.yul\":5873:5890   */\n      add\n        /* \"#utility.yul\":5864:5870   */\n      dup6\n        /* \"#utility.yul\":5820:5891   */\n      tag_152\n      jump\t// in\n    tag_194:\n        /* \"#utility.yul\":5901:5973   */\n      tag_195\n        /* \"#utility.yul\":5969:5971   */\n      0x20\n        /* \"#utility.yul\":5958:5967   */\n      dup4\n        /* \"#utility.yul\":5954:5972   */\n      add\n        /* \"#utility.yul\":5945:5951   */\n      dup5\n        /* \"#utility.yul\":5901:5973   */\n      tag_183\n      jump\t// in\n    tag_195:\n        /* \"#utility.yul\":5648:5980   */\n      swap4\n      swap3\n      pop\n      pop\n      pop\n      jump\t// out\n        /* \"#utility.yul\":5986:6204   */\n    tag_23:\n        /* \"#utility.yul\":6077:6081   */\n      0x00\n        /* \"#utility.yul\":6115:6117   */\n      0x20\n        /* \"#utility.yul\":6104:6113   */\n      dup3\n        /* \"#utility.yul\":6100:6118   */\n      add\n        /* \"#utility.yul\":6092:6118   */\n      swap1\n      pop\n        /* \"#utility.yul\":6128:6197   */\n      tag_197\n        /* \"#utility.yul\":6194:6195   */\n      0x00\n        /* \"#utility.yul\":6183:6192   */\n      dup4\n        /* \"#utility.yul\":6179:6196   */\n      add\n        /* \"#utility.yul\":6170:6176   */\n      dup5\n        /* \"#utility.yul\":6128:6197   */\n      tag_156\n      jump\t// in\n    tag_197:\n        /* \"#utility.yul\":5986:6204   */\n      swap3\n      swap2\n      pop\n      pop\n      jump\t// out\n        /* \"#utility.yul\":6210:6460   */\n    tag_45:\n        /* \"#utility.yul\":6317:6321   */\n      0x00\n        /* \"#utility.yul\":6355:6357   */\n      0x20\n        /* \"#utility.yul\":6344:6353   */\n      dup3\n        /* \"#utility.yul\":6340:6358   */\n      add\n        /* \"#utility.yul\":6332:6358   */\n      swap1\n      pop\n        /* \"#utility.yul\":6368:6453   */\n      tag_199\n        /* \"#utility.yul\":6450:6451   */\n      0x00\n        /* \"#utility.yul\":6439:6448   */\n      dup4\n        /* \"#utility.yul\":6435:6452   */\n      add\n        /* \"#utility.yul\":6426:6432   */\n      dup5\n        /* \"#utility.yul\":6368:6453   */\n      tag_160\n      jump\t// in\n    tag_199:\n        /* \"#utility.yul\":6210:6460   */\n      swap3\n      swap2\n      pop\n      pop\n      jump\t// out\n        /* \"#utility.yul\":6466:6720   */\n    tag_41:\n        /* \"#utility.yul\":6575:6579   */\n      0x00\n        /* \"#utility.yul\":6613:6615   */\n      0x20\n        /* \"#utility.yul\":6602:6611   */\n      dup3\n        /* \"#utility.yul\":6598:6616   */\n      add\n        /* \"#utility.yul\":6590:6616   */\n      swap1\n      pop\n        /* \"#utility.yul\":6626:6713   */\n      tag_201\n        /* \"#utility.yul\":6710:6711   */\n      0x00\n        /* \"#utility.yul\":6699:6708   */\n      dup4\n        /* \"#utility.yul\":6695:6712   */\n      add\n        /* \"#utility.yul\":6686:6692   */\n      dup5\n        /* \"#utility.yul\":6626:6713   */\n      tag_164\n      jump\t// in\n    tag_201:\n        /* \"#utility.yul\":6466:6720   */\n      swap3\n      swap2\n      pop\n      pop\n      jump\t// out\n        /* \"#utility.yul\":6726:6982   */\n    tag_49:\n        /* \"#utility.yul\":6836:6840   */\n      0x00\n        /* \"#utility.yul\":6874:6876   */\n      0x20\n        /* \"#utility.yul\":6863:6872   */\n      dup3\n        /* \"#utility.yul\":6859:6877   */\n      add\n        /* \"#utility.yul\":6851:6877   */\n      swap1\n      pop\n        /* \"#utility.yul\":6887:6975   */\n      tag_203\n        /* \"#utility.yul\":6972:6973   */\n      0x00\n        /* \"#utility.yul\":6961:6970   */\n      dup4\n        /* \"#utility.yul\":6957:6974   */\n      add\n        /* \"#utility.yul\":6948:6954   */\n      dup5\n        /* \"#utility.yul\":6887:6975   */\n      tag_168\n      jump\t// in\n    tag_203:\n        /* \"#utility.yul\":6726:6982   */\n      swap3\n      swap2\n      pop\n      pop\n      jump\t// out\n        /* \"#utility.yul\":6988:7407   */\n    tag_53:\n        /* \"#utility.yul\":7154:7158   */\n      0x00\n        /* \"#utility.yul\":7192:7194   */\n      0x20\n        /* \"#utility.yul\":7181:7190   */\n      dup3\n        /* \"#utility.yul\":7177:7195   */\n      add\n        /* \"#utility.yul\":7169:7195   */\n      swap1\n      pop\n        /* \"#utility.yul\":7241:7250   */\n      dup2\n        /* \"#utility.yul\":7235:7239   */\n      dup2\n        /* \"#utility.yul\":7231:7251   */\n      sub\n        /* \"#utility.yul\":7227:7228   */\n      0x00\n        /* \"#utility.yul\":7216:7225   */\n      dup4\n        /* \"#utility.yul\":7212:7229   */\n      add\n        /* \"#utility.yul\":7205:7252   */\n      mstore\n        /* \"#utility.yul\":7269:7400   */\n      tag_205\n        /* \"#utility.yul\":7395:7399   */\n      dup2\n        /* \"#utility.yul\":7269:7400   */\n      tag_172\n      jump\t// in\n    tag_205:\n        /* \"#utility.yul\":7261:7400   */\n      swap1\n      pop\n        /* \"#utility.yul\":6988:7407   */\n      swap2\n      swap1\n      pop\n      jump\t// out\n        /* \"#utility.yul\":7413:7832   */\n    tag_68:\n        /* \"#utility.yul\":7579:7583   */\n      0x00\n        /* \"#utility.yul\":7617:7619   */\n      0x20\n        /* \"#utility.yul\":7606:7615   */\n      dup3\n        /* \"#utility.yul\":7602:7620   */\n      add\n        /* \"#utility.yul\":7594:7620   */\n      swap1\n      pop\n        /* \"#utility.yul\":7666:7675   */\n      dup2\n        /* \"#utility.yul\":7660:7664   */\n      dup2\n        /* \"#utility.yul\":7656:7676   */\n      sub\n        /* \"#utility.yul\":7652:7653   */\n      0x00\n        /* \"#utility.yul\":7641:7650   */\n      dup4\n        /* \"#utility.yul\":7637:7654   */\n      add\n        /* \"#utility.yul\":7630:7677   */\n      mstore\n        /* \"#utility.yul\":7694:7825   */\n      tag_207\n        /* \"#utility.yul\":7820:7824   */\n      dup2\n        /* \"#utility.yul\":7694:7825   */\n      tag_178\n      jump\t// in\n    tag_207:\n        /* \"#utility.yul\":7686:7825   */\n      swap1\n      pop\n        /* \"#utility.yul\":7413:7832   */\n      swap2\n      swap1\n      pop\n      jump\t// out\n        /* \"#utility.yul\":7838:8060   */\n    tag_70:\n        /* \"#utility.yul\":7931:7935   */\n      0x00\n        /* \"#utility.yul\":7969:7971   */\n      0x20\n        /* \"#utility.yul\":7958:7967   */\n      dup3\n        /* \"#utility.yul\":7954:7972   */\n      add\n        /* \"#utility.yul\":7946:7972   */\n      swap1\n      pop\n        /* \"#utility.yul\":7982:8053   */\n      tag_209\n        /* \"#utility.yul\":8050:8051   */\n      0x00\n        /* \"#utility.yul\":8039:8048   */\n      dup4\n        /* \"#utility.yul\":8035:8052   */\n      add\n        /* \"#utility.yul\":8026:8032   */\n      dup5\n        /* \"#utility.yul\":7982:8053   */\n      tag_183\n      jump\t// in\n    tag_209:\n        /* \"#utility.yul\":7838:8060   */\n      swap3\n      swap2\n      pop\n      pop\n      jump\t// out\n        /* \"#utility.yul\":8066:8398   */\n    tag_17:\n        /* \"#utility.yul\":8187:8191   */\n      0x00\n        /* \"#utility.yul\":8225:8227   */\n      0x40\n        /* \"#utility.yul\":8214:8223   */\n      dup3\n        /* \"#utility.yul\":8210:8228   */\n      add\n        /* \"#utility.yul\":8202:8228   */\n      swap1\n      pop\n        /* \"#utility.yul\":8238:8309   */\n      tag_211\n        /* \"#utility.yul\":8306:8307   */\n      0x00\n        /* \"#utility.yul\":8295:8304   */\n      dup4\n        /* \"#utility.yul\":8291:8308   */\n      add\n        /* \"#utility.yul\":8282:8288   */\n      dup6\n        /* \"#utility.yul\":8238:8309   */\n      tag_183\n      jump\t// in\n    tag_211:\n        /* \"#utility.yul\":8319:8391   */\n      tag_212\n        /* \"#utility.yul\":8387:8389   */\n      0x20\n        /* \"#utility.yul\":8376:8385   */\n      dup4\n        /* \"#utility.yul\":8372:8390   */\n      add\n        /* \"#utility.yul\":8363:8369   */\n      dup5\n        /* \"#utility.yul\":8319:8391   */\n      tag_152\n      jump\t// in\n    tag_212:\n        /* \"#utility.yul\":8066:8398   */\n      swap4\n      swap3\n      pop\n      pop\n      pop\n      jump\t// out\n        /* \"#utility.yul\":8404:8846   */\n    tag_28:\n        /* \"#utility.yul\":8553:8557   */\n      0x00\n        /* \"#utility.yul\":8591:8593   */\n      0x60\n        /* \"#utility.yul\":8580:8589   */\n      dup3\n        /* \"#utility.yul\":8576:8594   */\n      add\n        /* \"#utility.yul\":8568:8594   */\n      swap1\n      pop\n        /* \"#utility.yul\":8604:8675   */\n      tag_214\n        /* \"#utility.yul\":8672:8673   */\n      0x00\n        /* \"#utility.yul\":8661:8670   */\n      dup4\n        /* \"#utility.yul\":8657:8674   */\n      add\n        /* \"#utility.yul\":8648:8654   */\n      dup7\n        /* \"#utility.yul\":8604:8675   */\n      tag_183\n      jump\t// in\n    tag_214:\n        /* \"#utility.yul\":8685:8757   */\n      tag_215\n        /* \"#utility.yul\":8753:8755   */\n      0x20\n        /* \"#utility.yul\":8742:8751   */\n      dup4\n        /* \"#utility.yul\":8738:8756   */\n      add\n        /* \"#utility.yul\":8729:8735   */\n      dup6\n        /* \"#utility.yul\":8685:8757   */\n      tag_152\n      jump\t// in\n    tag_215:\n        /* \"#utility.yul\":8767:8839   */\n      tag_216\n        /* \"#utility.yul\":8835:8837   */\n      0x40\n        /* \"#utility.yul\":8824:8833   */\n      dup4\n        /* \"#utility.yul\":8820:8838   */\n      add\n        /* \"#utility.yul\":8811:8817   */\n      dup5\n        /* \"#utility.yul\":8767:8839   */\n      tag_183\n      jump\t// in\n    tag_216:\n        /* \"#utility.yul\":8404:8846   */\n      swap5\n      swap4\n      pop\n      pop\n      pop\n      pop\n      jump\t// out\n        /* \"#utility.yul\":8852:9184   */\n    tag_80:\n        /* \"#utility.yul\":8973:8977   */\n      0x00\n        /* \"#utility.yul\":9011:9013   */\n      0x40\n        /* \"#utility.yul\":9000:9009   */\n      dup3\n        /* \"#utility.yul\":8996:9014   */\n      add\n        /* \"#utility.yul\":8988:9014   */\n      swap1\n      pop\n        /* \"#utility.yul\":9024:9095   */\n      tag_218\n        /* \"#utility.yul\":9092:9093   */\n      0x00\n        /* \"#utility.yul\":9081:9090   */\n      dup4\n        /* \"#utility.yul\":9077:9094   */\n      add\n        /* \"#utility.yul\":9068:9074   */\n      dup6\n        /* \"#utility.yul\":9024:9095   */\n      tag_183\n      jump\t// in\n    tag_218:\n        /* \"#utility.yul\":9105:9177   */\n      tag_219\n        /* \"#utility.yul\":9173:9175   */\n      0x20\n        /* \"#utility.yul\":9162:9171   */\n      dup4\n        /* \"#utility.yul\":9158:9176   */\n      add\n        /* \"#utility.yul\":9149:9155   */\n      dup5\n        /* \"#utility.yul\":9105:9177   */\n      tag_183\n      jump\t// in\n    tag_219:\n        /* \"#utility.yul\":8852:9184   */\n      swap4\n      swap3\n      pop\n      pop\n      pop\n      jump\t// out\n        /* \"#utility.yul\":9190:9319   */\n    tag_102:\n        /* \"#utility.yul\":9224:9230   */\n      0x00\n        /* \"#utility.yul\":9251:9271   */\n      tag_221\n      tag_222\n      jump\t// in\n    tag_221:\n        /* \"#utility.yul\":9241:9271   */\n      swap1\n      pop\n        /* \"#utility.yul\":9280:9313   */\n      tag_223\n        /* \"#utility.yul\":9308:9312   */\n      dup3\n        /* \"#utility.yul\":9300:9306   */\n      dup3\n        /* \"#utility.yul\":9280:9313   */\n      tag_224\n      jump\t// in\n    tag_223:\n        /* \"#utility.yul\":9190:9319   */\n      swap2\n      swap1\n      pop\n      jump\t// out\n        /* \"#utility.yul\":9325:9400   */\n    tag_222:\n        /* \"#utility.yul\":9358:9364   */\n      0x00\n        /* \"#utility.yul\":9391:9393   */\n      0x40\n        /* \"#utility.yul\":9385:9394   */\n      mload\n        /* \"#utility.yul\":9375:9394   */\n      swap1\n      pop\n        /* \"#utility.yul\":9325:9400   */\n      swap1\n      jump\t// out\n        /* \"#utility.yul\":9406:9713   */\n    tag_101:\n        /* \"#utility.yul\":9467:9471   */\n      0x00\n        /* \"#utility.yul\":9557:9575   */\n      0xffffffffffffffff\n        /* \"#utility.yul\":9549:9555   */\n      dup3\n        /* \"#utility.yul\":9546:9576   */\n      gt\n        /* \"#utility.yul\":9543:9599   */\n      iszero\n      tag_227\n      jumpi\n        /* \"#utility.yul\":9579:9597   */\n      tag_228\n      tag_229\n      jump\t// in\n    tag_228:\n        /* \"#utility.yul\":9543:9599   */\n    tag_227:\n        /* \"#utility.yul\":9617:9646   */\n      tag_230\n        /* \"#utility.yul\":9639:9645   */\n      dup3\n        /* \"#utility.yul\":9617:9646   */\n      tag_231\n      jump\t// in\n    tag_230:\n        /* \"#utility.yul\":9609:9646   */\n      swap1\n      pop\n        /* \"#utility.yul\":9701:9705   */\n      0x20\n        /* \"#utility.yul\":9695:9699   */\n      dup2\n        /* \"#utility.yul\":9691:9706   */\n      add\n        /* \"#utility.yul\":9683:9706   */\n      swap1\n      pop\n        /* \"#utility.yul\":9406:9713   */\n      swap2\n      swap1\n      pop\n      jump\t// out\n        /* \"#utility.yul\":9719:9888   */\n    tag_175:\n        /* \"#utility.yul\":9803:9814   */\n      0x00\n        /* \"#utility.yul\":9837:9843   */\n      dup3\n        /* \"#utility.yul\":9832:9835   */\n      dup3\n        /* \"#utility.yul\":9825:9844   */\n      mstore\n        /* \"#utility.yul\":9877:9881   */\n      0x20\n        /* \"#utility.yul\":9872:9875   */\n      dup3\n        /* \"#utility.yul\":9868:9882   */\n      add\n        /* \"#utility.yul\":9853:9882   */\n      swap1\n      pop\n        /* \"#utility.yul\":9719:9888   */\n      swap3\n      swap2\n      pop\n      pop\n      jump\t// out\n        /* \"#utility.yul\":9894:10199   */\n    tag_62:\n        /* \"#utility.yul\":9934:9937   */\n      0x00\n        /* \"#utility.yul\":9953:9973   */\n      tag_234\n        /* \"#utility.yul\":9971:9972   */\n      dup3\n        /* \"#utility.yul\":9953:9973   */\n      tag_186\n      jump\t// in\n    tag_234:\n        /* \"#utility.yul\":9948:9973   */\n      swap2\n      pop\n        /* \"#utility.yul\":9987:10007   */\n      tag_235\n        /* \"#utility.yul\":10005:10006   */\n      dup4\n        /* \"#utility.yul\":9987:10007   */\n      tag_186\n      jump\t// in\n    tag_235:\n        /* \"#utility.yul\":9982:10007   */\n      swap3\n      pop\n        /* \"#utility.yul\":10141:10142   */\n      dup3\n        /* \"#utility.yul\":10073:10139   */\n      0xffffffffffffffffffffffffffffffffffffffffffffffffffffffffffffffff\n        /* \"#utility.yul\":10069:10143   */\n      sub\n        /* \"#utility.yul\":10066:10067   */\n      dup3\n        /* \"#utility.yul\":10063:10144   */\n      gt\n        /* \"#utility.yul\":10060:10167   */\n      iszero\n      tag_236\n      jumpi\n        /* \"#utility.yul\":10147:10165   */\n      tag_237\n      tag_238\n      jump\t// in\n    tag_237:\n        /* \"#utility.yul\":10060:10167   */\n    tag_236:\n        /* \"#utility.yul\":10191:10192   */\n      dup3\n        /* \"#utility.yul\":10188:10189   */\n      dup3\n        /* \"#utility.yul\":10184:10193   */\n      add\n        /* \"#utility.yul\":10177:10193   */\n      swap1\n      pop\n        /* \"#utility.yul\":9894:10199   */\n      swap3\n      swap2\n      pop\n      pop\n      jump\t// out\n        /* \"#utility.yul\":10205:10553   */\n    tag_78:\n        /* \"#utility.yul\":10245:10252   */\n      0x00\n        /* \"#utility.yul\":10268:10288   */\n      tag_240\n        /* \"#utility.yul\":10286:10287   */\n      dup3\n        /* \"#utility.yul\":10268:10288   */\n      tag_186\n      jump\t// in\n    tag_240:\n        /* \"#utility.yul\":10263:10288   */\n      swap2\n      pop\n        /* \"#utility.yul\":10302:10322   */\n      tag_241\n        /* \"#utility.yul\":10320:10321   */\n      dup4\n        /* \"#utility.yul\":10302:10322   */\n      tag_186\n      jump\t// in\n    tag_241:\n        /* \"#utility.yul\":10297:10322   */\n      swap3\n      pop\n        /* \"#utility.yul\":10490:10491   */\n      dup2\n        /* \"#utility.yul\":10422:10488   */\n      0xffffffffffffffffffffffffffffffffffffffffffffffffffffffffffffffff\n        /* \"#utility.yul\":10418:10492   */\n      div\n        /* \"#utility.yul\":10415:10416   */\n      dup4\n        /* \"#utility.yul\":10412:10493   */\n      gt\n        /* \"#utility.yul\":10407:10408   */\n      dup3\n        /* \"#utility.yul\":10400:10409   */\n      iszero\n        /* \"#utility.yul\":10393:10410   */\n      iszero\n        /* \"#utility.yul\":10389:10494   */\n      and\n        /* \"#utility.yul\":10386:10517   */\n      iszero\n      tag_242\n      jumpi\n        /* \"#utility.yul\":10497:10515   */\n      tag_243\n      tag_238\n      jump\t// in\n    tag_243:\n        /* \"#utility.yul\":10386:10517   */\n    tag_242:\n        /* \"#utility.yul\":10545:10546   */\n      dup3\n        /* \"#utility.yul\":10542:10543   */\n      dup3\n        /* \"#utility.yul\":10538:10547   */\n      mul\n        /* \"#utility.yul\":10527:10547   */\n      swap1\n      pop\n        /* \"#utility.yul\":10205:10553   */\n      swap3\n      swap2\n      pop\n      pop\n      jump\t// out\n        /* \"#utility.yul\":10559:10655   */\n    tag_155:\n        /* \"#utility.yul\":10596:10603   */\n      0x00\n        /* \"#utility.yul\":10625:10649   */\n      tag_245\n        /* \"#utility.yul\":10643:10648   */\n      dup3\n        /* \"#utility.yul\":10625:10649   */\n      tag_246\n      jump\t// in\n    tag_245:\n        /* \"#utility.yul\":10614:10649   */\n      swap1\n      pop\n        /* \"#utility.yul\":10559:10655   */\n      swap2\n      swap1\n      pop\n      jump\t// out\n        /* \"#utility.yul\":10661:10751   */\n    tag_247:\n        /* \"#utility.yul\":10695:10702   */\n      0x00\n        /* \"#utility.yul\":10738:10743   */\n      dup2\n        /* \"#utility.yul\":10731:10744   */\n      iszero\n        /* \"#utility.yul\":10724:10745   */\n      iszero\n        /* \"#utility.yul\":10713:10745   */\n      swap1\n      pop\n        /* \"#utility.yul\":10661:10751   */\n      swap2\n      swap1\n      pop\n      jump\t// out\n        /* \"#utility.yul\":10757:10906   */\n    tag_159:\n        /* \"#utility.yul\":10793:10800   */\n      0x00\n        /* \"#utility.yul\":10833:10899   */\n      0xffffffff00000000000000000000000000000000000000000000000000000000\n        /* \"#utility.yul\":10826:10831   */\n      dup3\n        /* \"#utility.yul\":10822:10900   */\n      and\n        /* \"#utility.yul\":10811:10900   */\n      swap1\n      pop\n        /* \"#utility.yul\":10757:10906   */\n      swap2\n      swap1\n      pop\n      jump\t// out\n        /* \"#utility.yul\":10912:11038   */\n    tag_246:\n        /* \"#utility.yul\":10949:10956   */\n      0x00\n        /* \"#utility.yul\":10989:11031   */\n      0xffffffffffffffffffffffffffffffffffffffff\n        /* \"#utility.yul\":10982:10987   */\n      dup3\n        /* \"#utility.yul\":10978:11032   */\n      and\n        /* \"#utility.yul\":10967:11032   */\n      swap1\n      pop\n        /* \"#utility.yul\":10912:11038   */\n      swap2\n      swap1\n      pop\n      jump\t// out\n        /* \"#utility.yul\":11044:11121   */\n    tag_186:\n        /* \"#utility.yul\":11081:11088   */\n      0x00\n        /* \"#utility.yul\":11110:11115   */\n      dup2\n        /* \"#utility.yul\":11099:11115   */\n      swap1\n      pop\n        /* \"#utility.yul\":11044:11121   */\n      swap2\n      swap1\n      pop\n      jump\t// out\n        /* \"#utility.yul\":11127:11267   */\n    tag_163:\n        /* \"#utility.yul\":11191:11200   */\n      0x00\n        /* \"#utility.yul\":11224:11261   */\n      tag_253\n        /* \"#utility.yul\":11255:11260   */\n      dup3\n        /* \"#utility.yul\":11224:11261   */\n      tag_254\n      jump\t// in\n    tag_253:\n        /* \"#utility.yul\":11211:11261   */\n      swap1\n      pop\n        /* \"#utility.yul\":11127:11267   */\n      swap2\n      swap1\n      pop\n      jump\t// out\n        /* \"#utility.yul\":11273:11415   */\n    tag_167:\n        /* \"#utility.yul\":11339:11348   */\n      0x00\n        /* \"#utility.yul\":11372:11409   */\n      tag_256\n        /* \"#utility.yul\":11403:11408   */\n      dup3\n        /* \"#utility.yul\":11372:11409   */\n      tag_254\n      jump\t// in\n    tag_256:\n        /* \"#utility.yul\":11359:11409   */\n      swap1\n      pop\n        /* \"#utility.yul\":11273:11415   */\n      swap2\n      swap1\n      pop\n      jump\t// out\n        /* \"#utility.yul\":11421:11564   */\n    tag_171:\n        /* \"#utility.yul\":11488:11497   */\n      0x00\n        /* \"#utility.yul\":11521:11558   */\n      tag_258\n        /* \"#utility.yul\":11552:11557   */\n      dup3\n        /* \"#utility.yul\":11521:11558   */\n      tag_254\n      jump\t// in\n    tag_258:\n        /* \"#utility.yul\":11508:11558   */\n      swap1\n      pop\n        /* \"#utility.yul\":11421:11564   */\n      swap2\n      swap1\n      pop\n      jump\t// out\n        /* \"#utility.yul\":11570:11696   */\n    tag_254:\n        /* \"#utility.yul\":11620:11629   */\n      0x00\n        /* \"#utility.yul\":11653:11690   */\n      tag_260\n        /* \"#utility.yul\":11684:11689   */\n      dup3\n        /* \"#utility.yul\":11653:11690   */\n      tag_261\n      jump\t// in\n    tag_260:\n        /* \"#utility.yul\":11640:11690   */\n      swap1\n      pop\n        /* \"#utility.yul\":11570:11696   */\n      swap2\n      swap1\n      pop\n      jump\t// out\n        /* \"#utility.yul\":11702:11815   */\n    tag_261:\n        /* \"#utility.yul\":11752:11761   */\n      0x00\n        /* \"#utility.yul\":11785:11809   */\n      tag_263\n        /* \"#utility.yul\":11803:11808   */\n      dup3\n        /* \"#utility.yul\":11785:11809   */\n      tag_246\n      jump\t// in\n    tag_263:\n        /* \"#utility.yul\":11772:11809   */\n      swap1\n      pop\n        /* \"#utility.yul\":11702:11815   */\n      swap2\n      swap1\n      pop\n      jump\t// out\n        /* \"#utility.yul\":11821:11975   */\n    tag_107:\n        /* \"#utility.yul\":11905:11911   */\n      dup3\n        /* \"#utility.yul\":11900:11903   */\n      dup2\n        /* \"#utility.yul\":11895:11898   */\n      dup4\n        /* \"#utility.yul\":11882:11912   */\n      calldatacopy\n        /* \"#utility.yul\":11967:11968   */\n      0x00\n        /* \"#utility.yul\":11958:11964   */\n      dup4\n        /* \"#utility.yul\":11953:11956   */\n      dup4\n        /* \"#utility.yul\":11949:11965   */\n      add\n        /* \"#utility.yul\":11942:11969   */\n      mstore\n        /* \"#utility.yul\":11821:11975   */\n      pop\n      pop\n      pop\n      jump\t// out\n        /* \"#utility.yul\":11981:12262   */\n    tag_224:\n        /* \"#utility.yul\":12064:12091   */\n      tag_266\n        /* \"#utility.yul\":12086:12090   */\n      dup3\n        /* \"#utility.yul\":12064:12091   */\n      tag_231\n      jump\t// in\n    tag_266:\n        /* \"#utility.yul\":12056:12062   */\n      dup2\n        /* \"#utility.yul\":12052:12092   */\n      add\n        /* \"#utility.yul\":12194:12200   */\n      dup2\n        /* \"#utility.yul\":12182:12192   */\n      dup2\n        /* \"#utility.yul\":12179:12201   */\n      lt\n        /* \"#utility.yul\":12158:12176   */\n      0xffffffffffffffff\n        /* \"#utility.yul\":12146:12156   */\n      dup3\n        /* \"#utility.yul\":12143:12177   */\n      gt\n        /* \"#utility.yul\":12140:12202   */\n      or\n        /* \"#utility.yul\":12137:12225   */\n      iszero\n      tag_267\n      jumpi\n        /* \"#utility.yul\":12205:12223   */\n      tag_268\n      tag_229\n      jump\t// in\n    tag_268:\n        /* \"#utility.yul\":12137:12225   */\n    tag_267:\n        /* \"#utility.yul\":12245:12255   */\n      dup1\n        /* \"#utility.yul\":12241:12243   */\n      0x40\n        /* \"#utility.yul\":12234:12256   */\n      mstore\n        /* \"#utility.yul\":12024:12262   */\n      pop\n        /* \"#utility.yul\":11981:12262   */\n      pop\n      pop\n      jump\t// out\n        /* \"#utility.yul\":12268:12448   */\n    tag_238:\n        /* \"#utility.yul\":12316:12393   */\n      0x4e487b7100000000000000000000000000000000000000000000000000000000\n        /* \"#utility.yul\":12313:12314   */\n      0x00\n        /* \"#utility.yul\":12306:12394   */\n      mstore\n        /* \"#utility.yul\":12413:12417   */\n      0x11\n        /* \"#utility.yul\":12410:12411   */\n      0x04\n        /* \"#utility.yul\":12403:12418   */\n      mstore\n        /* \"#utility.yul\":12437:12441   */\n      0x24\n        /* \"#utility.yul\":12434:12435   */\n      0x00\n        /* \"#utility.yul\":12427:12442   */\n      revert\n        /* \"#utility.yul\":12454:12634   */\n    tag_229:\n        /* \"#utility.yul\":12502:12579   */\n      0x4e487b7100000000000000000000000000000000000000000000000000000000\n        /* \"#utility.yul\":12499:12500   */\n      0x00\n        /* \"#utility.yul\":12492:12580   */\n      mstore\n        /* \"#utility.yul\":12599:12603   */\n      0x41\n        /* \"#utility.yul\":12596:12597   */\n      0x04\n        /* \"#utility.yul\":12589:12604   */\n      mstore\n        /* \"#utility.yul\":12623:12627   */\n      0x24\n        /* \"#utility.yul\":12620:12621   */\n      0x00\n        /* \"#utility.yul\":12613:12628   */\n      revert\n        /* \"#utility.yul\":12640:12757   */\n    tag_120:\n        /* \"#utility.yul\":12749:12750   */\n      0x00\n        /* \"#utility.yul\":12746:12747   */\n      dup1\n        /* \"#utility.yul\":12739:12751   */\n      revert\n        /* \"#utility.yul\":12763:12880   */\n    tag_105:\n        /* \"#utility.yul\":12872:12873   */\n      0x00\n        /* \"#utility.yul\":12869:12870   */\n      dup1\n        /* \"#utility.yul\":12862:12874   */\n      revert\n        /* \"#utility.yul\":12886:13003   */\n    tag_138:\n        /* \"#utility.yul\":12995:12996   */\n      0x00\n        /* \"#utility.yul\":12992:12993   */\n      dup1\n        /* \"#utility.yul\":12985:12997   */\n      revert\n        /* \"#utility.yul\":13009:13126   */\n    tag_132:\n        /* \"#utility.yul\":13118:13119   */\n      0x00\n        /* \"#utility.yul\":13115:13116   */\n      dup1\n        /* \"#utility.yul\":13108:13120   */\n      revert\n        /* \"#utility.yul\":13132:13234   */\n    tag_231:\n        /* \"#utility.yul\":13173:13179   */\n      0x00\n        /* \"#utility.yul\":13224:13226   */\n      0x1f\n        /* \"#utility.yul\":13220:13227   */\n      not\n        /* \"#utility.yul\":13215:13217   */\n      0x1f\n        /* \"#utility.yul\":13208:13213   */\n      dup4\n        /* \"#utility.yul\":13204:13218   */\n      add\n        /* \"#utility.yul\":13200:13228   */\n      and\n        /* \"#utility.yul\":13190:13228   */\n      swap1\n      pop\n        /* \"#utility.yul\":13132:13234   */\n      swap2\n      swap1\n      pop\n      jump\t// out\n        /* \"#utility.yul\":13240:13420   */\n    tag_177:\n        /* \"#utility.yul\":13380:13412   */\n      0x4e6f7420616c6c6f77656420746f20636c61696d206f776e6572736869700000\n        /* \"#utility.yul\":13376:13377   */\n      0x00\n        /* \"#utility.yul\":13368:13374   */\n      dup3\n        /* \"#utility.yul\":13364:13378   */\n      add\n        /* \"#utility.yul\":13357:13413   */\n      mstore\n        /* \"#utility.yul\":13240:13420   */\n      pop\n      jump\t// out\n        /* \"#utility.yul\":13426:13674   */\n    tag_182:\n        /* \"#utility.yul\":13566:13600   */\n      0x546f6f206561726c7920746f20636c61696d206f776e6572736869702c20796f\n        /* \"#utility.yul\":13562:13563   */\n      0x00\n        /* \"#utility.yul\":13554:13560   */\n      dup3\n        /* \"#utility.yul\":13550:13564   */\n      add\n        /* \"#utility.yul\":13543:13601   */\n      mstore\n        /* \"#utility.yul\":13635:13666   */\n      0x752063616e2063616c6c20656d657267656e63792066756e6374696f6e000000\n        /* \"#utility.yul\":13630:13632   */\n      0x20\n        /* \"#utility.yul\":13622:13628   */\n      dup3\n        /* \"#utility.yul\":13618:13633   */\n      add\n        /* \"#utility.yul\":13611:13667   */\n      mstore\n        /* \"#utility.yul\":13426:13674   */\n      pop\n      jump\t// out\n        /* \"#utility.yul\":13680:13802   */\n    tag_111:\n        /* \"#utility.yul\":13753:13777   */\n      tag_279\n        /* \"#utility.yul\":13771:13776   */\n      dup2\n        /* \"#utility.yul\":13753:13777   */\n      tag_155\n      jump\t// in\n    tag_279:\n        /* \"#utility.yul\":13746:13751   */\n      dup2\n        /* \"#utility.yul\":13743:13778   */\n      eq\n        /* \"#utility.yul\":13733:13796   */\n      tag_280\n      jumpi\n        /* \"#utility.yul\":13792:13793   */\n      0x00\n        /* \"#utility.yul\":13789:13790   */\n      dup1\n        /* \"#utility.yul\":13782:13794   */\n      revert\n        /* \"#utility.yul\":13733:13796   */\n    tag_280:\n        /* \"#utility.yul\":13680:13802   */\n      pop\n      jump\t// out\n        /* \"#utility.yul\":13808:13924   */\n    tag_115:\n        /* \"#utility.yul\":13878:13899   */\n      tag_282\n        /* \"#utility.yul\":13893:13898   */\n      dup2\n        /* \"#utility.yul\":13878:13899   */\n      tag_247\n      jump\t// in\n    tag_282:\n        /* \"#utility.yul\":13871:13876   */\n      dup2\n        /* \"#utility.yul\":13868:13900   */\n      eq\n        /* \"#utility.yul\":13858:13918   */\n      tag_283\n      jumpi\n        /* \"#utility.yul\":13914:13915   */\n      0x00\n        /* \"#utility.yul\":13911:13912   */\n      dup1\n        /* \"#utility.yul\":13904:13916   */\n      revert\n        /* \"#utility.yul\":13858:13918   */\n    tag_283:\n        /* \"#utility.yul\":13808:13924   */\n      pop\n      jump\t// out\n        /* \"#utility.yul\":13930:14052   */\n    tag_125:\n        /* \"#utility.yul\":14003:14027   */\n      tag_285\n        /* \"#utility.yul\":14021:14026   */\n      dup2\n        /* \"#utility.yul\":14003:14027   */\n      tag_186\n      jump\t// in\n    tag_285:\n        /* \"#utility.yul\":13996:14001   */\n      dup2\n        /* \"#utility.yul\":13993:14028   */\n      eq\n        /* \"#utility.yul\":13983:14046   */\n      tag_286\n      jumpi\n        /* \"#utility.yul\":14042:14043   */\n      0x00\n        /* \"#utility.yul\":14039:14040   */\n      dup1\n        /* \"#utility.yul\":14032:14044   */\n      revert\n        /* \"#utility.yul\":13983:14046   */\n    tag_286:\n        /* \"#utility.yul\":13930:14052   */\n      pop\n      jump\t// out\n\n    auxdata: 0xa26469706673582212203b421f59be18f6f7430365740d2ff9c0a03cbf9dc9d86436505a5d92c344ac1f64736f6c63430008070033\n}\n",
				"bytecode": {
					"linkReferences": {},
					"object": "60806040523480156200001157600080fd5b506040516200133338038062001333833981810160405281019062000037919062000162565b600160008190555081600260006101000a81548173ffffffffffffffffffffffffffffffffffffffff021916908373ffffffffffffffffffffffffffffffffffffffff16021790555081600360006101000a81548173ffffffffffffffffffffffffffffffffffffffff021916908373ffffffffffffffffffffffffffffffffffffffff16021790555080600160006101000a81548173ffffffffffffffffffffffffffffffffffffffff021916908373ffffffffffffffffffffffffffffffffffffffff16021790555081600460006101000a81548173ffffffffffffffffffffffffffffffffffffffff021916908373ffffffffffffffffffffffffffffffffffffffff1602179055505050620001fc565b6000815190506200015c81620001e2565b92915050565b600080604083850312156200017c576200017b620001dd565b5b60006200018c858286016200014b565b92505060206200019f858286016200014b565b9150509250929050565b6000620001b682620001bd565b9050919050565b600073ffffffffffffffffffffffffffffffffffffffff82169050919050565b600080fd5b620001ed81620001a9565b8114620001f957600080fd5b50565b611127806200020c6000396000f3fe608060405234801561001057600080fd5b50600436106100885760003560e01c806366bb863b1161005b57806366bb863b14610151578063b8e33fb21461016f578063fdb681d21461018d578063fead3d6e146101ab57610088565b8063012ce5011461008d578063150b7a02146100be5780632e17de78146100ee578063472343b914610120575b600080fd5b6100a760048036038101906100a29190610ac7565b6101c9565b6040516100b5929190610d03565b60405180910390f35b6100d860048036038101906100d39190610a17565b61035c565b6040516100e59190610c3c565b60405180910390f35b61010860048036038101906101039190610ac7565b61043d565b60405161011793929190610d2c565b60405180910390f35b61013a60048036038101906101359190610ac7565b610867565b604051610148929190610c13565b60405180910390f35b6101596108bb565b6040516101669190610bc1565b60405180910390f35b6101776108e1565b6040516101849190610c72565b60405180910390f35b610195610907565b6040516101a29190610c57565b60405180910390f35b6101b361092d565b6040516101c09190610c8d565b60405180910390f35b6000806005600084815260200190815260200160002060009054906101000a900473ffffffffffffffffffffffffffffffffffffffff1673ffffffffffffffffffffffffffffffffffffffff163373ffffffffffffffffffffffffffffffffffffffff161461026d576040517f08c379a000000000000000000000000000000000000000000000000000000000815260040161026490610ca8565b60405180910390fd5b600260009054906101000a900473ffffffffffffffffffffffffffffffffffffffff1673ffffffffffffffffffffffffffffffffffffffff166342842e0e3033866040518463ffffffff1660e01b81526004016102cc93929190610bdc565b600060405180830381600087803b1580156102e657600080fd5b505af11580156102fa573d6000803e3d6000fd5b5050505060006005600085815260200190815260200160002060006101000a81548173ffffffffffffffffffffffffffffffffffffffff021916908373ffffffffffffffffffffffffffffffffffffffff160217905550823391509150915091565b6000600460009054906101000a900473ffffffffffffffffffffffffffffffffffffffff1673ffffffffffffffffffffffffffffffffffffffff168573ffffffffffffffffffffffffffffffffffffffff16141561042b57836005600085815260200190815260200160002060006101000a81548173ffffffffffffffffffffffffffffffffffffffff021916908373ffffffffffffffffffffffffffffffffffffffff160217905550600a426104139190610df3565b60066000858152602001908152602001600020819055505b63150b7a0260e01b9050949350505050565b60008060006005600085815260200190815260200160002060009054906101000a900473ffffffffffffffffffffffffffffffffffffffff1673ffffffffffffffffffffffffffffffffffffffff163373ffffffffffffffffffffffffffffffffffffffff16146104e3576040517f08c379a00000000000000000000000000000000000000000000000000000000081526004016104da90610ca8565b60405180910390fd5b60066000858152602001908152602001600020544211610538576040517f08c379a000000000000000000000000000000000000000000000000000000000815260040161052f90610cc8565b60405180910390fd5b600060056001600360009054906101000a900473ffffffffffffffffffffffffffffffffffffffff1673ffffffffffffffffffffffffffffffffffffffff166386481d40886040518263ffffffff1660e01b81526004016105999190610ce8565b60206040518083038186803b1580156105b157600080fd5b505afa1580156105c5573d6000803e3d6000fd5b505050506040513d601f19601f820116820180604052508101906105e99190610af4565b6105f39190610df3565b6105fd9190610e49565b9050600360009054906101000a900473ffffffffffffffffffffffffffffffffffffffff1673ffffffffffffffffffffffffffffffffffffffff1663c316d10886836040518363ffffffff1660e01b815260040161065c929190610d63565b602060405180830381600087803b15801561067657600080fd5b505af115801561068a573d6000803e3d6000fd5b505050506040513d601f19601f820116820180604052508101906106ae9190610a9a565b50600260009054906101000a900473ffffffffffffffffffffffffffffffffffffffff1673ffffffffffffffffffffffffffffffffffffffff166342842e0e3033886040518463ffffffff1660e01b815260040161070e93929190610bdc565b600060405180830381600087803b15801561072857600080fd5b505af115801561073c573d6000803e3d6000fd5b50505050600160009054906101000a900473ffffffffffffffffffffffffffffffffffffffff1673ffffffffffffffffffffffffffffffffffffffff1663a9059cbb33836040518363ffffffff1660e01b815260040161079d929190610c13565b602060405180830381600087803b1580156107b757600080fd5b505af11580156107cb573d6000803e3d6000fd5b505050506040513d601f19601f820116820180604052508101906107ef9190610a9a565b5060006005600087815260200190815260200160002060006101000a81548173ffffffffffffffffffffffffffffffffffffffff021916908373ffffffffffffffffffffffffffffffffffffffff16021790555084336006600088815260200190815260200160002054935093509350509193909250565b6000806005600084815260200190815260200160002060009054906101000a900473ffffffffffffffffffffffffffffffffffffffff16600660008581526020019081526020016000205491509150915091565b600460009054906101000a900473ffffffffffffffffffffffffffffffffffffffff1681565b600260009054906101000a900473ffffffffffffffffffffffffffffffffffffffff1681565b600160009054906101000a900473ffffffffffffffffffffffffffffffffffffffff1681565b600360009054906101000a900473ffffffffffffffffffffffffffffffffffffffff1681565b600061096661096184610db1565b610d8c565b90508281526020810184848401111561098257610981611014565b5b61098d848285610f71565b509392505050565b6000813590506109a4816110ac565b92915050565b6000815190506109b9816110c3565b92915050565b600082601f8301126109d4576109d361100f565b5b81356109e4848260208601610953565b91505092915050565b6000813590506109fc816110da565b92915050565b600081519050610a11816110da565b92915050565b60008060008060808587031215610a3157610a3061101e565b5b6000610a3f87828801610995565b9450506020610a5087828801610995565b9350506040610a61878288016109ed565b925050606085013567ffffffffffffffff811115610a8257610a81611019565b5b610a8e878288016109bf565b91505092959194509250565b600060208284031215610ab057610aaf61101e565b5b6000610abe848285016109aa565b91505092915050565b600060208284031215610add57610adc61101e565b5b6000610aeb848285016109ed565b91505092915050565b600060208284031215610b0a57610b0961101e565b5b6000610b1884828501610a02565b91505092915050565b610b2a81610ea3565b82525050565b610b3981610ec1565b82525050565b610b4881610f17565b82525050565b610b5781610f29565b82525050565b610b6681610f3b565b82525050565b6000610b79601e83610de2565b9150610b8482611034565b602082019050919050565b6000610b9c603d83610de2565b9150610ba78261105d565b604082019050919050565b610bbb81610f0d565b82525050565b6000602082019050610bd66000830184610b21565b92915050565b6000606082019050610bf16000830186610b21565b610bfe6020830185610b21565b610c0b6040830184610bb2565b949350505050565b6000604082019050610c286000830185610b21565b610c356020830184610bb2565b9392505050565b6000602082019050610c516000830184610b30565b92915050565b6000602082019050610c6c6000830184610b3f565b92915050565b6000602082019050610c876000830184610b4e565b92915050565b6000602082019050610ca26000830184610b5d565b92915050565b60006020820190508181036000830152610cc181610b6c565b9050919050565b60006020820190508181036000830152610ce181610b8f565b9050919050565b6000602082019050610cfd6000830184610bb2565b92915050565b6000604082019050610d186000830185610bb2565b610d256020830184610b21565b9392505050565b6000606082019050610d416000830186610bb2565b610d4e6020830185610b21565b610d5b6040830184610bb2565b949350505050565b6000604082019050610d786000830185610bb2565b610d856020830184610bb2565b9392505050565b6000610d96610da7565b9050610da28282610f80565b919050565b6000604051905090565b600067ffffffffffffffff821115610dcc57610dcb610fe0565b5b610dd582611023565b9050602081019050919050565b600082825260208201905092915050565b6000610dfe82610f0d565b9150610e0983610f0d565b9250827fffffffffffffffffffffffffffffffffffffffffffffffffffffffffffffffff03821115610e3e57610e3d610fb1565b5b828201905092915050565b6000610e5482610f0d565b9150610e5f83610f0d565b9250817fffffffffffffffffffffffffffffffffffffffffffffffffffffffffffffffff0483118215151615610e9857610e97610fb1565b5b828202905092915050565b6000610eae82610eed565b9050919050565b60008115159050919050565b60007fffffffff0000000000000000000000000000000000000000000000000000000082169050919050565b600073ffffffffffffffffffffffffffffffffffffffff82169050919050565b6000819050919050565b6000610f2282610f4d565b9050919050565b6000610f3482610f4d565b9050919050565b6000610f4682610f4d565b9050919050565b6000610f5882610f5f565b9050919050565b6000610f6a82610eed565b9050919050565b82818337600083830152505050565b610f8982611023565b810181811067ffffffffffffffff82111715610fa857610fa7610fe0565b5b80604052505050565b7f4e487b7100000000000000000000000000000000000000000000000000000000600052601160045260246000fd5b7f4e487b7100000000000000000000000000000000000000000000000000000000600052604160045260246000fd5b600080fd5b600080fd5b600080fd5b600080fd5b6000601f19601f8301169050919050565b7f4e6f7420616c6c6f77656420746f20636c61696d206f776e6572736869700000600082015250565b7f546f6f206561726c7920746f20636c61696d206f776e6572736869702c20796f60008201527f752063616e2063616c6c20656d657267656e63792066756e6374696f6e000000602082015250565b6110b581610ea3565b81146110c057600080fd5b50565b6110cc81610eb5565b81146110d757600080fd5b50565b6110e381610f0d565b81146110ee57600080fd5b5056fea26469706673582212203b421f59be18f6f7430365740d2ff9c0a03cbf9dc9d86436505a5d92c344ac1f64736f6c63430008070033",
					"opcodes": "PUSH1 0x80 PUSH1 0x40 MSTORE CALLVALUE DUP1 ISZERO PUSH3 0x11 JUMPI PUSH1 0x0 DUP1 REVERT JUMPDEST POP PUSH1 0x40 MLOAD PUSH3 0x1333 CODESIZE SUB DUP1 PUSH3 0x1333 DUP4 CODECOPY DUP2 DUP2 ADD PUSH1 0x40 MSTORE DUP2 ADD SWAP1 PUSH3 0x37 SWAP2 SWAP1 PUSH3 0x162 JUMP JUMPDEST PUSH1 0x1 PUSH1 0x0 DUP2 SWAP1 SSTORE POP DUP2 PUSH1 0x2 PUSH1 0x0 PUSH2 0x100 EXP DUP2 SLOAD DUP2 PUSH20 0xFFFFFFFFFFFFFFFFFFFFFFFFFFFFFFFFFFFFFFFF MUL NOT AND SWAP1 DUP4 PUSH20 0xFFFFFFFFFFFFFFFFFFFFFFFFFFFFFFFFFFFFFFFF AND MUL OR SWAP1 SSTORE POP DUP2 PUSH1 0x3 PUSH1 0x0 PUSH2 0x100 EXP DUP2 SLOAD DUP2 PUSH20 0xFFFFFFFFFFFFFFFFFFFFFFFFFFFFFFFFFFFFFFFF MUL NOT AND SWAP1 DUP4 PUSH20 0xFFFFFFFFFFFFFFFFFFFFFFFFFFFFFFFFFFFFFFFF AND MUL OR SWAP1 SSTORE POP DUP1 PUSH1 0x1 PUSH1 0x0 PUSH2 0x100 EXP DUP2 SLOAD DUP2 PUSH20 0xFFFFFFFFFFFFFFFFFFFFFFFFFFFFFFFFFFFFFFFF MUL NOT AND SWAP1 DUP4 PUSH20 0xFFFFFFFFFFFFFFFFFFFFFFFFFFFFFFFFFFFFFFFF AND MUL OR SWAP1 SSTORE POP DUP2 PUSH1 0x4 PUSH1 0x0 PUSH2 0x100 EXP DUP2 SLOAD DUP2 PUSH20 0xFFFFFFFFFFFFFFFFFFFFFFFFFFFFFFFFFFFFFFFF MUL NOT AND SWAP1 DUP4 PUSH20 0xFFFFFFFFFFFFFFFFFFFFFFFFFFFFFFFFFFFFFFFF AND MUL OR SWAP1 SSTORE POP POP POP PUSH3 0x1FC JUMP JUMPDEST PUSH1 0x0 DUP2 MLOAD SWAP1 POP PUSH3 0x15C DUP2 PUSH3 0x1E2 JUMP JUMPDEST SWAP3 SWAP2 POP POP JUMP JUMPDEST PUSH1 0x0 DUP1 PUSH1 0x40 DUP4 DUP6 SUB SLT ISZERO PUSH3 0x17C JUMPI PUSH3 0x17B PUSH3 0x1DD JUMP JUMPDEST JUMPDEST PUSH1 0x0 PUSH3 0x18C DUP6 DUP3 DUP7 ADD PUSH3 0x14B JUMP JUMPDEST SWAP3 POP POP PUSH1 0x20 PUSH3 0x19F DUP6 DUP3 DUP7 ADD PUSH3 0x14B JUMP JUMPDEST SWAP2 POP POP SWAP3 POP SWAP3 SWAP1 POP JUMP JUMPDEST PUSH1 0x0 PUSH3 0x1B6 DUP3 PUSH3 0x1BD JUMP JUMPDEST SWAP1 POP SWAP2 SWAP1 POP JUMP JUMPDEST PUSH1 0x0 PUSH20 0xFFFFFFFFFFFFFFFFFFFFFFFFFFFFFFFFFFFFFFFF DUP3 AND SWAP1 POP SWAP2 SWAP1 POP JUMP JUMPDEST PUSH1 0x0 DUP1 REVERT JUMPDEST PUSH3 0x1ED DUP2 PUSH3 0x1A9 JUMP JUMPDEST DUP2 EQ PUSH3 0x1F9 JUMPI PUSH1 0x0 DUP1 REVERT JUMPDEST POP JUMP JUMPDEST PUSH2 0x1127 DUP1 PUSH3 0x20C PUSH1 0x0 CODECOPY PUSH1 0x0 RETURN INVALID PUSH1 0x80 PUSH1 0x40 MSTORE CALLVALUE DUP1 ISZERO PUSH2 0x10 JUMPI PUSH1 0x0 DUP1 REVERT JUMPDEST POP PUSH1 0x4 CALLDATASIZE LT PUSH2 0x88 JUMPI PUSH1 0x0 CALLDATALOAD PUSH1 0xE0 SHR DUP1 PUSH4 0x66BB863B GT PUSH2 0x5B JUMPI DUP1 PUSH4 0x66BB863B EQ PUSH2 0x151 JUMPI DUP1 PUSH4 0xB8E33FB2 EQ PUSH2 0x16F JUMPI DUP1 PUSH4 0xFDB681D2 EQ PUSH2 0x18D JUMPI DUP1 PUSH4 0xFEAD3D6E EQ PUSH2 0x1AB JUMPI PUSH2 0x88 JUMP JUMPDEST DUP1 PUSH4 0x12CE501 EQ PUSH2 0x8D JUMPI DUP1 PUSH4 0x150B7A02 EQ PUSH2 0xBE JUMPI DUP1 PUSH4 0x2E17DE78 EQ PUSH2 0xEE JUMPI DUP1 PUSH4 0x472343B9 EQ PUSH2 0x120 JUMPI JUMPDEST PUSH1 0x0 DUP1 REVERT JUMPDEST PUSH2 0xA7 PUSH1 0x4 DUP1 CALLDATASIZE SUB DUP2 ADD SWAP1 PUSH2 0xA2 SWAP2 SWAP1 PUSH2 0xAC7 JUMP JUMPDEST PUSH2 0x1C9 JUMP JUMPDEST PUSH1 0x40 MLOAD PUSH2 0xB5 SWAP3 SWAP2 SWAP1 PUSH2 0xD03 JUMP JUMPDEST PUSH1 0x40 MLOAD DUP1 SWAP2 SUB SWAP1 RETURN JUMPDEST PUSH2 0xD8 PUSH1 0x4 DUP1 CALLDATASIZE SUB DUP2 ADD SWAP1 PUSH2 0xD3 SWAP2 SWAP1 PUSH2 0xA17 JUMP JUMPDEST PUSH2 0x35C JUMP JUMPDEST PUSH1 0x40 MLOAD PUSH2 0xE5 SWAP2 SWAP1 PUSH2 0xC3C JUMP JUMPDEST PUSH1 0x40 MLOAD DUP1 SWAP2 SUB SWAP1 RETURN JUMPDEST PUSH2 0x108 PUSH1 0x4 DUP1 CALLDATASIZE SUB DUP2 ADD SWAP1 PUSH2 0x103 SWAP2 SWAP1 PUSH2 0xAC7 JUMP JUMPDEST PUSH2 0x43D JUMP JUMPDEST PUSH1 0x40 MLOAD PUSH2 0x117 SWAP4 SWAP3 SWAP2 SWAP1 PUSH2 0xD2C JUMP JUMPDEST PUSH1 0x40 MLOAD DUP1 SWAP2 SUB SWAP1 RETURN JUMPDEST PUSH2 0x13A PUSH1 0x4 DUP1 CALLDATASIZE SUB DUP2 ADD SWAP1 PUSH2 0x135 SWAP2 SWAP1 PUSH2 0xAC7 JUMP JUMPDEST PUSH2 0x867 JUMP JUMPDEST PUSH1 0x40 MLOAD PUSH2 0x148 SWAP3 SWAP2 SWAP1 PUSH2 0xC13 JUMP JUMPDEST PUSH1 0x40 MLOAD DUP1 SWAP2 SUB SWAP1 RETURN JUMPDEST PUSH2 0x159 PUSH2 0x8BB JUMP JUMPDEST PUSH1 0x40 MLOAD PUSH2 0x166 SWAP2 SWAP1 PUSH2 0xBC1 JUMP JUMPDEST PUSH1 0x40 MLOAD DUP1 SWAP2 SUB SWAP1 RETURN JUMPDEST PUSH2 0x177 PUSH2 0x8E1 JUMP JUMPDEST PUSH1 0x40 MLOAD PUSH2 0x184 SWAP2 SWAP1 PUSH2 0xC72 JUMP JUMPDEST PUSH1 0x40 MLOAD DUP1 SWAP2 SUB SWAP1 RETURN JUMPDEST PUSH2 0x195 PUSH2 0x907 JUMP JUMPDEST PUSH1 0x40 MLOAD PUSH2 0x1A2 SWAP2 SWAP1 PUSH2 0xC57 JUMP JUMPDEST PUSH1 0x40 MLOAD DUP1 SWAP2 SUB SWAP1 RETURN JUMPDEST PUSH2 0x1B3 PUSH2 0x92D JUMP JUMPDEST PUSH1 0x40 MLOAD PUSH2 0x1C0 SWAP2 SWAP1 PUSH2 0xC8D JUMP JUMPDEST PUSH1 0x40 MLOAD DUP1 SWAP2 SUB SWAP1 RETURN JUMPDEST PUSH1 0x0 DUP1 PUSH1 0x5 PUSH1 0x0 DUP5 DUP2 MSTORE PUSH1 0x20 ADD SWAP1 DUP2 MSTORE PUSH1 0x20 ADD PUSH1 0x0 KECCAK256 PUSH1 0x0 SWAP1 SLOAD SWAP1 PUSH2 0x100 EXP SWAP1 DIV PUSH20 0xFFFFFFFFFFFFFFFFFFFFFFFFFFFFFFFFFFFFFFFF AND PUSH20 0xFFFFFFFFFFFFFFFFFFFFFFFFFFFFFFFFFFFFFFFF AND CALLER PUSH20 0xFFFFFFFFFFFFFFFFFFFFFFFFFFFFFFFFFFFFFFFF AND EQ PUSH2 0x26D JUMPI PUSH1 0x40 MLOAD PUSH32 0x8C379A000000000000000000000000000000000000000000000000000000000 DUP2 MSTORE PUSH1 0x4 ADD PUSH2 0x264 SWAP1 PUSH2 0xCA8 JUMP JUMPDEST PUSH1 0x40 MLOAD DUP1 SWAP2 SUB SWAP1 REVERT JUMPDEST PUSH1 0x2 PUSH1 0x0 SWAP1 SLOAD SWAP1 PUSH2 0x100 EXP SWAP1 DIV PUSH20 0xFFFFFFFFFFFFFFFFFFFFFFFFFFFFFFFFFFFFFFFF AND PUSH20 0xFFFFFFFFFFFFFFFFFFFFFFFFFFFFFFFFFFFFFFFF AND PUSH4 0x42842E0E ADDRESS CALLER DUP7 PUSH1 0x40 MLOAD DUP5 PUSH4 0xFFFFFFFF AND PUSH1 0xE0 SHL DUP2 MSTORE PUSH1 0x4 ADD PUSH2 0x2CC SWAP4 SWAP3 SWAP2 SWAP1 PUSH2 0xBDC JUMP JUMPDEST PUSH1 0x0 PUSH1 0x40 MLOAD DUP1 DUP4 SUB DUP2 PUSH1 0x0 DUP8 DUP1 EXTCODESIZE ISZERO DUP1 ISZERO PUSH2 0x2E6 JUMPI PUSH1 0x0 DUP1 REVERT JUMPDEST POP GAS CALL ISZERO DUP1 ISZERO PUSH2 0x2FA JUMPI RETURNDATASIZE PUSH1 0x0 DUP1 RETURNDATACOPY RETURNDATASIZE PUSH1 0x0 REVERT JUMPDEST POP POP POP POP PUSH1 0x0 PUSH1 0x5 PUSH1 0x0 DUP6 DUP2 MSTORE PUSH1 0x20 ADD SWAP1 DUP2 MSTORE PUSH1 0x20 ADD PUSH1 0x0 KECCAK256 PUSH1 0x0 PUSH2 0x100 EXP DUP2 SLOAD DUP2 PUSH20 0xFFFFFFFFFFFFFFFFFFFFFFFFFFFFFFFFFFFFFFFF MUL NOT AND SWAP1 DUP4 PUSH20 0xFFFFFFFFFFFFFFFFFFFFFFFFFFFFFFFFFFFFFFFF AND MUL OR SWAP1 SSTORE POP DUP3 CALLER SWAP2 POP SWAP2 POP SWAP2 POP SWAP2 JUMP JUMPDEST PUSH1 0x0 PUSH1 0x4 PUSH1 0x0 SWAP1 SLOAD SWAP1 PUSH2 0x100 EXP SWAP1 DIV PUSH20 0xFFFFFFFFFFFFFFFFFFFFFFFFFFFFFFFFFFFFFFFF AND PUSH20 0xFFFFFFFFFFFFFFFFFFFFFFFFFFFFFFFFFFFFFFFF AND DUP6 PUSH20 0xFFFFFFFFFFFFFFFFFFFFFFFFFFFFFFFFFFFFFFFF AND EQ ISZERO PUSH2 0x42B JUMPI DUP4 PUSH1 0x5 PUSH1 0x0 DUP6 DUP2 MSTORE PUSH1 0x20 ADD SWAP1 DUP2 MSTORE PUSH1 0x20 ADD PUSH1 0x0 KECCAK256 PUSH1 0x0 PUSH2 0x100 EXP DUP2 SLOAD DUP2 PUSH20 0xFFFFFFFFFFFFFFFFFFFFFFFFFFFFFFFFFFFFFFFF MUL NOT AND SWAP1 DUP4 PUSH20 0xFFFFFFFFFFFFFFFFFFFFFFFFFFFFFFFFFFFFFFFF AND MUL OR SWAP1 SSTORE POP PUSH1 0xA TIMESTAMP PUSH2 0x413 SWAP2 SWAP1 PUSH2 0xDF3 JUMP JUMPDEST PUSH1 0x6 PUSH1 0x0 DUP6 DUP2 MSTORE PUSH1 0x20 ADD SWAP1 DUP2 MSTORE PUSH1 0x20 ADD PUSH1 0x0 KECCAK256 DUP2 SWAP1 SSTORE POP JUMPDEST PUSH4 0x150B7A02 PUSH1 0xE0 SHL SWAP1 POP SWAP5 SWAP4 POP POP POP POP JUMP JUMPDEST PUSH1 0x0 DUP1 PUSH1 0x0 PUSH1 0x5 PUSH1 0x0 DUP6 DUP2 MSTORE PUSH1 0x20 ADD SWAP1 DUP2 MSTORE PUSH1 0x20 ADD PUSH1 0x0 KECCAK256 PUSH1 0x0 SWAP1 SLOAD SWAP1 PUSH2 0x100 EXP SWAP1 DIV PUSH20 0xFFFFFFFFFFFFFFFFFFFFFFFFFFFFFFFFFFFFFFFF AND PUSH20 0xFFFFFFFFFFFFFFFFFFFFFFFFFFFFFFFFFFFFFFFF AND CALLER PUSH20 0xFFFFFFFFFFFFFFFFFFFFFFFFFFFFFFFFFFFFFFFF AND EQ PUSH2 0x4E3 JUMPI PUSH1 0x40 MLOAD PUSH32 0x8C379A000000000000000000000000000000000000000000000000000000000 DUP2 MSTORE PUSH1 0x4 ADD PUSH2 0x4DA SWAP1 PUSH2 0xCA8 JUMP JUMPDEST PUSH1 0x40 MLOAD DUP1 SWAP2 SUB SWAP1 REVERT JUMPDEST PUSH1 0x6 PUSH1 0x0 DUP6 DUP2 MSTORE PUSH1 0x20 ADD SWAP1 DUP2 MSTORE PUSH1 0x20 ADD PUSH1 0x0 KECCAK256 SLOAD TIMESTAMP GT PUSH2 0x538 JUMPI PUSH1 0x40 MLOAD PUSH32 0x8C379A000000000000000000000000000000000000000000000000000000000 DUP2 MSTORE PUSH1 0x4 ADD PUSH2 0x52F SWAP1 PUSH2 0xCC8 JUMP JUMPDEST PUSH1 0x40 MLOAD DUP1 SWAP2 SUB SWAP1 REVERT JUMPDEST PUSH1 0x0 PUSH1 0x5 PUSH1 0x1 PUSH1 0x3 PUSH1 0x0 SWAP1 SLOAD SWAP1 PUSH2 0x100 EXP SWAP1 DIV PUSH20 0xFFFFFFFFFFFFFFFFFFFFFFFFFFFFFFFFFFFFFFFF AND PUSH20 0xFFFFFFFFFFFFFFFFFFFFFFFFFFFFFFFFFFFFFFFF AND PUSH4 0x86481D40 DUP9 PUSH1 0x40 MLOAD DUP3 PUSH4 0xFFFFFFFF AND PUSH1 0xE0 SHL DUP2 MSTORE PUSH1 0x4 ADD PUSH2 0x599 SWAP2 SWAP1 PUSH2 0xCE8 JUMP JUMPDEST PUSH1 0x20 PUSH1 0x40 MLOAD DUP1 DUP4 SUB DUP2 DUP7 DUP1 EXTCODESIZE ISZERO DUP1 ISZERO PUSH2 0x5B1 JUMPI PUSH1 0x0 DUP1 REVERT JUMPDEST POP GAS STATICCALL ISZERO DUP1 ISZERO PUSH2 0x5C5 JUMPI RETURNDATASIZE PUSH1 0x0 DUP1 RETURNDATACOPY RETURNDATASIZE PUSH1 0x0 REVERT JUMPDEST POP POP POP POP PUSH1 0x40 MLOAD RETURNDATASIZE PUSH1 0x1F NOT PUSH1 0x1F DUP3 ADD AND DUP3 ADD DUP1 PUSH1 0x40 MSTORE POP DUP2 ADD SWAP1 PUSH2 0x5E9 SWAP2 SWAP1 PUSH2 0xAF4 JUMP JUMPDEST PUSH2 0x5F3 SWAP2 SWAP1 PUSH2 0xDF3 JUMP JUMPDEST PUSH2 0x5FD SWAP2 SWAP1 PUSH2 0xE49 JUMP JUMPDEST SWAP1 POP PUSH1 0x3 PUSH1 0x0 SWAP1 SLOAD SWAP1 PUSH2 0x100 EXP SWAP1 DIV PUSH20 0xFFFFFFFFFFFFFFFFFFFFFFFFFFFFFFFFFFFFFFFF AND PUSH20 0xFFFFFFFFFFFFFFFFFFFFFFFFFFFFFFFFFFFFFFFF AND PUSH4 0xC316D108 DUP7 DUP4 PUSH1 0x40 MLOAD DUP4 PUSH4 0xFFFFFFFF AND PUSH1 0xE0 SHL DUP2 MSTORE PUSH1 0x4 ADD PUSH2 0x65C SWAP3 SWAP2 SWAP1 PUSH2 0xD63 JUMP JUMPDEST PUSH1 0x20 PUSH1 0x40 MLOAD DUP1 DUP4 SUB DUP2 PUSH1 0x0 DUP8 DUP1 EXTCODESIZE ISZERO DUP1 ISZERO PUSH2 0x676 JUMPI PUSH1 0x0 DUP1 REVERT JUMPDEST POP GAS CALL ISZERO DUP1 ISZERO PUSH2 0x68A JUMPI RETURNDATASIZE PUSH1 0x0 DUP1 RETURNDATACOPY RETURNDATASIZE PUSH1 0x0 REVERT JUMPDEST POP POP POP POP PUSH1 0x40 MLOAD RETURNDATASIZE PUSH1 0x1F NOT PUSH1 0x1F DUP3 ADD AND DUP3 ADD DUP1 PUSH1 0x40 MSTORE POP DUP2 ADD SWAP1 PUSH2 0x6AE SWAP2 SWAP1 PUSH2 0xA9A JUMP JUMPDEST POP PUSH1 0x2 PUSH1 0x0 SWAP1 SLOAD SWAP1 PUSH2 0x100 EXP SWAP1 DIV PUSH20 0xFFFFFFFFFFFFFFFFFFFFFFFFFFFFFFFFFFFFFFFF AND PUSH20 0xFFFFFFFFFFFFFFFFFFFFFFFFFFFFFFFFFFFFFFFF AND PUSH4 0x42842E0E ADDRESS CALLER DUP9 PUSH1 0x40 MLOAD DUP5 PUSH4 0xFFFFFFFF AND PUSH1 0xE0 SHL DUP2 MSTORE PUSH1 0x4 ADD PUSH2 0x70E SWAP4 SWAP3 SWAP2 SWAP1 PUSH2 0xBDC JUMP JUMPDEST PUSH1 0x0 PUSH1 0x40 MLOAD DUP1 DUP4 SUB DUP2 PUSH1 0x0 DUP8 DUP1 EXTCODESIZE ISZERO DUP1 ISZERO PUSH2 0x728 JUMPI PUSH1 0x0 DUP1 REVERT JUMPDEST POP GAS CALL ISZERO DUP1 ISZERO PUSH2 0x73C JUMPI RETURNDATASIZE PUSH1 0x0 DUP1 RETURNDATACOPY RETURNDATASIZE PUSH1 0x0 REVERT JUMPDEST POP POP POP POP PUSH1 0x1 PUSH1 0x0 SWAP1 SLOAD SWAP1 PUSH2 0x100 EXP SWAP1 DIV PUSH20 0xFFFFFFFFFFFFFFFFFFFFFFFFFFFFFFFFFFFFFFFF AND PUSH20 0xFFFFFFFFFFFFFFFFFFFFFFFFFFFFFFFFFFFFFFFF AND PUSH4 0xA9059CBB CALLER DUP4 PUSH1 0x40 MLOAD DUP4 PUSH4 0xFFFFFFFF AND PUSH1 0xE0 SHL DUP2 MSTORE PUSH1 0x4 ADD PUSH2 0x79D SWAP3 SWAP2 SWAP1 PUSH2 0xC13 JUMP JUMPDEST PUSH1 0x20 PUSH1 0x40 MLOAD DUP1 DUP4 SUB DUP2 PUSH1 0x0 DUP8 DUP1 EXTCODESIZE ISZERO DUP1 ISZERO PUSH2 0x7B7 JUMPI PUSH1 0x0 DUP1 REVERT JUMPDEST POP GAS CALL ISZERO DUP1 ISZERO PUSH2 0x7CB JUMPI RETURNDATASIZE PUSH1 0x0 DUP1 RETURNDATACOPY RETURNDATASIZE PUSH1 0x0 REVERT JUMPDEST POP POP POP POP PUSH1 0x40 MLOAD RETURNDATASIZE PUSH1 0x1F NOT PUSH1 0x1F DUP3 ADD AND DUP3 ADD DUP1 PUSH1 0x40 MSTORE POP DUP2 ADD SWAP1 PUSH2 0x7EF SWAP2 SWAP1 PUSH2 0xA9A JUMP JUMPDEST POP PUSH1 0x0 PUSH1 0x5 PUSH1 0x0 DUP8 DUP2 MSTORE PUSH1 0x20 ADD SWAP1 DUP2 MSTORE PUSH1 0x20 ADD PUSH1 0x0 KECCAK256 PUSH1 0x0 PUSH2 0x100 EXP DUP2 SLOAD DUP2 PUSH20 0xFFFFFFFFFFFFFFFFFFFFFFFFFFFFFFFFFFFFFFFF MUL NOT AND SWAP1 DUP4 PUSH20 0xFFFFFFFFFFFFFFFFFFFFFFFFFFFFFFFFFFFFFFFF AND MUL OR SWAP1 SSTORE POP DUP5 CALLER PUSH1 0x6 PUSH1 0x0 DUP9 DUP2 MSTORE PUSH1 0x20 ADD SWAP1 DUP2 MSTORE PUSH1 0x20 ADD PUSH1 0x0 KECCAK256 SLOAD SWAP4 POP SWAP4 POP SWAP4 POP POP SWAP2 SWAP4 SWAP1 SWAP3 POP JUMP JUMPDEST PUSH1 0x0 DUP1 PUSH1 0x5 PUSH1 0x0 DUP5 DUP2 MSTORE PUSH1 0x20 ADD SWAP1 DUP2 MSTORE PUSH1 0x20 ADD PUSH1 0x0 KECCAK256 PUSH1 0x0 SWAP1 SLOAD SWAP1 PUSH2 0x100 EXP SWAP1 DIV PUSH20 0xFFFFFFFFFFFFFFFFFFFFFFFFFFFFFFFFFFFFFFFF AND PUSH1 0x6 PUSH1 0x0 DUP6 DUP2 MSTORE PUSH1 0x20 ADD SWAP1 DUP2 MSTORE PUSH1 0x20 ADD PUSH1 0x0 KECCAK256 SLOAD SWAP2 POP SWAP2 POP SWAP2 POP SWAP2 JUMP JUMPDEST PUSH1 0x4 PUSH1 0x0 SWAP1 SLOAD SWAP1 PUSH2 0x100 EXP SWAP1 DIV PUSH20 0xFFFFFFFFFFFFFFFFFFFFFFFFFFFFFFFFFFFFFFFF AND DUP2 JUMP JUMPDEST PUSH1 0x2 PUSH1 0x0 SWAP1 SLOAD SWAP1 PUSH2 0x100 EXP SWAP1 DIV PUSH20 0xFFFFFFFFFFFFFFFFFFFFFFFFFFFFFFFFFFFFFFFF AND DUP2 JUMP JUMPDEST PUSH1 0x1 PUSH1 0x0 SWAP1 SLOAD SWAP1 PUSH2 0x100 EXP SWAP1 DIV PUSH20 0xFFFFFFFFFFFFFFFFFFFFFFFFFFFFFFFFFFFFFFFF AND DUP2 JUMP JUMPDEST PUSH1 0x3 PUSH1 0x0 SWAP1 SLOAD SWAP1 PUSH2 0x100 EXP SWAP1 DIV PUSH20 0xFFFFFFFFFFFFFFFFFFFFFFFFFFFFFFFFFFFFFFFF AND DUP2 JUMP JUMPDEST PUSH1 0x0 PUSH2 0x966 PUSH2 0x961 DUP5 PUSH2 0xDB1 JUMP JUMPDEST PUSH2 0xD8C JUMP JUMPDEST SWAP1 POP DUP3 DUP2 MSTORE PUSH1 0x20 DUP2 ADD DUP5 DUP5 DUP5 ADD GT ISZERO PUSH2 0x982 JUMPI PUSH2 0x981 PUSH2 0x1014 JUMP JUMPDEST JUMPDEST PUSH2 0x98D DUP5 DUP3 DUP6 PUSH2 0xF71 JUMP JUMPDEST POP SWAP4 SWAP3 POP POP POP JUMP JUMPDEST PUSH1 0x0 DUP2 CALLDATALOAD SWAP1 POP PUSH2 0x9A4 DUP2 PUSH2 0x10AC JUMP JUMPDEST SWAP3 SWAP2 POP POP JUMP JUMPDEST PUSH1 0x0 DUP2 MLOAD SWAP1 POP PUSH2 0x9B9 DUP2 PUSH2 0x10C3 JUMP JUMPDEST SWAP3 SWAP2 POP POP JUMP JUMPDEST PUSH1 0x0 DUP3 PUSH1 0x1F DUP4 ADD SLT PUSH2 0x9D4 JUMPI PUSH2 0x9D3 PUSH2 0x100F JUMP JUMPDEST JUMPDEST DUP2 CALLDATALOAD PUSH2 0x9E4 DUP5 DUP3 PUSH1 0x20 DUP7 ADD PUSH2 0x953 JUMP JUMPDEST SWAP2 POP POP SWAP3 SWAP2 POP POP JUMP JUMPDEST PUSH1 0x0 DUP2 CALLDATALOAD SWAP1 POP PUSH2 0x9FC DUP2 PUSH2 0x10DA JUMP JUMPDEST SWAP3 SWAP2 POP POP JUMP JUMPDEST PUSH1 0x0 DUP2 MLOAD SWAP1 POP PUSH2 0xA11 DUP2 PUSH2 0x10DA JUMP JUMPDEST SWAP3 SWAP2 POP POP JUMP JUMPDEST PUSH1 0x0 DUP1 PUSH1 0x0 DUP1 PUSH1 0x80 DUP6 DUP8 SUB SLT ISZERO PUSH2 0xA31 JUMPI PUSH2 0xA30 PUSH2 0x101E JUMP JUMPDEST JUMPDEST PUSH1 0x0 PUSH2 0xA3F DUP8 DUP3 DUP9 ADD PUSH2 0x995 JUMP JUMPDEST SWAP5 POP POP PUSH1 0x20 PUSH2 0xA50 DUP8 DUP3 DUP9 ADD PUSH2 0x995 JUMP JUMPDEST SWAP4 POP POP PUSH1 0x40 PUSH2 0xA61 DUP8 DUP3 DUP9 ADD PUSH2 0x9ED JUMP JUMPDEST SWAP3 POP POP PUSH1 0x60 DUP6 ADD CALLDATALOAD PUSH8 0xFFFFFFFFFFFFFFFF DUP2 GT ISZERO PUSH2 0xA82 JUMPI PUSH2 0xA81 PUSH2 0x1019 JUMP JUMPDEST JUMPDEST PUSH2 0xA8E DUP8 DUP3 DUP9 ADD PUSH2 0x9BF JUMP JUMPDEST SWAP2 POP POP SWAP3 SWAP6 SWAP2 SWAP5 POP SWAP3 POP JUMP JUMPDEST PUSH1 0x0 PUSH1 0x20 DUP3 DUP5 SUB SLT ISZERO PUSH2 0xAB0 JUMPI PUSH2 0xAAF PUSH2 0x101E JUMP JUMPDEST JUMPDEST PUSH1 0x0 PUSH2 0xABE DUP5 DUP3 DUP6 ADD PUSH2 0x9AA JUMP JUMPDEST SWAP2 POP POP SWAP3 SWAP2 POP POP JUMP JUMPDEST PUSH1 0x0 PUSH1 0x20 DUP3 DUP5 SUB SLT ISZERO PUSH2 0xADD JUMPI PUSH2 0xADC PUSH2 0x101E JUMP JUMPDEST JUMPDEST PUSH1 0x0 PUSH2 0xAEB DUP5 DUP3 DUP6 ADD PUSH2 0x9ED JUMP JUMPDEST SWAP2 POP POP SWAP3 SWAP2 POP POP JUMP JUMPDEST PUSH1 0x0 PUSH1 0x20 DUP3 DUP5 SUB SLT ISZERO PUSH2 0xB0A JUMPI PUSH2 0xB09 PUSH2 0x101E JUMP JUMPDEST JUMPDEST PUSH1 0x0 PUSH2 0xB18 DUP5 DUP3 DUP6 ADD PUSH2 0xA02 JUMP JUMPDEST SWAP2 POP POP SWAP3 SWAP2 POP POP JUMP JUMPDEST PUSH2 0xB2A DUP2 PUSH2 0xEA3 JUMP JUMPDEST DUP3 MSTORE POP POP JUMP JUMPDEST PUSH2 0xB39 DUP2 PUSH2 0xEC1 JUMP JUMPDEST DUP3 MSTORE POP POP JUMP JUMPDEST PUSH2 0xB48 DUP2 PUSH2 0xF17 JUMP JUMPDEST DUP3 MSTORE POP POP JUMP JUMPDEST PUSH2 0xB57 DUP2 PUSH2 0xF29 JUMP JUMPDEST DUP3 MSTORE POP POP JUMP JUMPDEST PUSH2 0xB66 DUP2 PUSH2 0xF3B JUMP JUMPDEST DUP3 MSTORE POP POP JUMP JUMPDEST PUSH1 0x0 PUSH2 0xB79 PUSH1 0x1E DUP4 PUSH2 0xDE2 JUMP JUMPDEST SWAP2 POP PUSH2 0xB84 DUP3 PUSH2 0x1034 JUMP JUMPDEST PUSH1 0x20 DUP3 ADD SWAP1 POP SWAP2 SWAP1 POP JUMP JUMPDEST PUSH1 0x0 PUSH2 0xB9C PUSH1 0x3D DUP4 PUSH2 0xDE2 JUMP JUMPDEST SWAP2 POP PUSH2 0xBA7 DUP3 PUSH2 0x105D JUMP JUMPDEST PUSH1 0x40 DUP3 ADD SWAP1 POP SWAP2 SWAP1 POP JUMP JUMPDEST PUSH2 0xBBB DUP2 PUSH2 0xF0D JUMP JUMPDEST DUP3 MSTORE POP POP JUMP JUMPDEST PUSH1 0x0 PUSH1 0x20 DUP3 ADD SWAP1 POP PUSH2 0xBD6 PUSH1 0x0 DUP4 ADD DUP5 PUSH2 0xB21 JUMP JUMPDEST SWAP3 SWAP2 POP POP JUMP JUMPDEST PUSH1 0x0 PUSH1 0x60 DUP3 ADD SWAP1 POP PUSH2 0xBF1 PUSH1 0x0 DUP4 ADD DUP7 PUSH2 0xB21 JUMP JUMPDEST PUSH2 0xBFE PUSH1 0x20 DUP4 ADD DUP6 PUSH2 0xB21 JUMP JUMPDEST PUSH2 0xC0B PUSH1 0x40 DUP4 ADD DUP5 PUSH2 0xBB2 JUMP JUMPDEST SWAP5 SWAP4 POP POP POP POP JUMP JUMPDEST PUSH1 0x0 PUSH1 0x40 DUP3 ADD SWAP1 POP PUSH2 0xC28 PUSH1 0x0 DUP4 ADD DUP6 PUSH2 0xB21 JUMP JUMPDEST PUSH2 0xC35 PUSH1 0x20 DUP4 ADD DUP5 PUSH2 0xBB2 JUMP JUMPDEST SWAP4 SWAP3 POP POP POP JUMP JUMPDEST PUSH1 0x0 PUSH1 0x20 DUP3 ADD SWAP1 POP PUSH2 0xC51 PUSH1 0x0 DUP4 ADD DUP5 PUSH2 0xB30 JUMP JUMPDEST SWAP3 SWAP2 POP POP JUMP JUMPDEST PUSH1 0x0 PUSH1 0x20 DUP3 ADD SWAP1 POP PUSH2 0xC6C PUSH1 0x0 DUP4 ADD DUP5 PUSH2 0xB3F JUMP JUMPDEST SWAP3 SWAP2 POP POP JUMP JUMPDEST PUSH1 0x0 PUSH1 0x20 DUP3 ADD SWAP1 POP PUSH2 0xC87 PUSH1 0x0 DUP4 ADD DUP5 PUSH2 0xB4E JUMP JUMPDEST SWAP3 SWAP2 POP POP JUMP JUMPDEST PUSH1 0x0 PUSH1 0x20 DUP3 ADD SWAP1 POP PUSH2 0xCA2 PUSH1 0x0 DUP4 ADD DUP5 PUSH2 0xB5D JUMP JUMPDEST SWAP3 SWAP2 POP POP JUMP JUMPDEST PUSH1 0x0 PUSH1 0x20 DUP3 ADD SWAP1 POP DUP2 DUP2 SUB PUSH1 0x0 DUP4 ADD MSTORE PUSH2 0xCC1 DUP2 PUSH2 0xB6C JUMP JUMPDEST SWAP1 POP SWAP2 SWAP1 POP JUMP JUMPDEST PUSH1 0x0 PUSH1 0x20 DUP3 ADD SWAP1 POP DUP2 DUP2 SUB PUSH1 0x0 DUP4 ADD MSTORE PUSH2 0xCE1 DUP2 PUSH2 0xB8F JUMP JUMPDEST SWAP1 POP SWAP2 SWAP1 POP JUMP JUMPDEST PUSH1 0x0 PUSH1 0x20 DUP3 ADD SWAP1 POP PUSH2 0xCFD PUSH1 0x0 DUP4 ADD DUP5 PUSH2 0xBB2 JUMP JUMPDEST SWAP3 SWAP2 POP POP JUMP JUMPDEST PUSH1 0x0 PUSH1 0x40 DUP3 ADD SWAP1 POP PUSH2 0xD18 PUSH1 0x0 DUP4 ADD DUP6 PUSH2 0xBB2 JUMP JUMPDEST PUSH2 0xD25 PUSH1 0x20 DUP4 ADD DUP5 PUSH2 0xB21 JUMP JUMPDEST SWAP4 SWAP3 POP POP POP JUMP JUMPDEST PUSH1 0x0 PUSH1 0x60 DUP3 ADD SWAP1 POP PUSH2 0xD41 PUSH1 0x0 DUP4 ADD DUP7 PUSH2 0xBB2 JUMP JUMPDEST PUSH2 0xD4E PUSH1 0x20 DUP4 ADD DUP6 PUSH2 0xB21 JUMP JUMPDEST PUSH2 0xD5B PUSH1 0x40 DUP4 ADD DUP5 PUSH2 0xBB2 JUMP JUMPDEST SWAP5 SWAP4 POP POP POP POP JUMP JUMPDEST PUSH1 0x0 PUSH1 0x40 DUP3 ADD SWAP1 POP PUSH2 0xD78 PUSH1 0x0 DUP4 ADD DUP6 PUSH2 0xBB2 JUMP JUMPDEST PUSH2 0xD85 PUSH1 0x20 DUP4 ADD DUP5 PUSH2 0xBB2 JUMP JUMPDEST SWAP4 SWAP3 POP POP POP JUMP JUMPDEST PUSH1 0x0 PUSH2 0xD96 PUSH2 0xDA7 JUMP JUMPDEST SWAP1 POP PUSH2 0xDA2 DUP3 DUP3 PUSH2 0xF80 JUMP JUMPDEST SWAP2 SWAP1 POP JUMP JUMPDEST PUSH1 0x0 PUSH1 0x40 MLOAD SWAP1 POP SWAP1 JUMP JUMPDEST PUSH1 0x0 PUSH8 0xFFFFFFFFFFFFFFFF DUP3 GT ISZERO PUSH2 0xDCC JUMPI PUSH2 0xDCB PUSH2 0xFE0 JUMP JUMPDEST JUMPDEST PUSH2 0xDD5 DUP3 PUSH2 0x1023 JUMP JUMPDEST SWAP1 POP PUSH1 0x20 DUP2 ADD SWAP1 POP SWAP2 SWAP1 POP JUMP JUMPDEST PUSH1 0x0 DUP3 DUP3 MSTORE PUSH1 0x20 DUP3 ADD SWAP1 POP SWAP3 SWAP2 POP POP JUMP JUMPDEST PUSH1 0x0 PUSH2 0xDFE DUP3 PUSH2 0xF0D JUMP JUMPDEST SWAP2 POP PUSH2 0xE09 DUP4 PUSH2 0xF0D JUMP JUMPDEST SWAP3 POP DUP3 PUSH32 0xFFFFFFFFFFFFFFFFFFFFFFFFFFFFFFFFFFFFFFFFFFFFFFFFFFFFFFFFFFFFFFFF SUB DUP3 GT ISZERO PUSH2 0xE3E JUMPI PUSH2 0xE3D PUSH2 0xFB1 JUMP JUMPDEST JUMPDEST DUP3 DUP3 ADD SWAP1 POP SWAP3 SWAP2 POP POP JUMP JUMPDEST PUSH1 0x0 PUSH2 0xE54 DUP3 PUSH2 0xF0D JUMP JUMPDEST SWAP2 POP PUSH2 0xE5F DUP4 PUSH2 0xF0D JUMP JUMPDEST SWAP3 POP DUP2 PUSH32 0xFFFFFFFFFFFFFFFFFFFFFFFFFFFFFFFFFFFFFFFFFFFFFFFFFFFFFFFFFFFFFFFF DIV DUP4 GT DUP3 ISZERO ISZERO AND ISZERO PUSH2 0xE98 JUMPI PUSH2 0xE97 PUSH2 0xFB1 JUMP JUMPDEST JUMPDEST DUP3 DUP3 MUL SWAP1 POP SWAP3 SWAP2 POP POP JUMP JUMPDEST PUSH1 0x0 PUSH2 0xEAE DUP3 PUSH2 0xEED JUMP JUMPDEST SWAP1 POP SWAP2 SWAP1 POP JUMP JUMPDEST PUSH1 0x0 DUP2 ISZERO ISZERO SWAP1 POP SWAP2 SWAP1 POP JUMP JUMPDEST PUSH1 0x0 PUSH32 0xFFFFFFFF00000000000000000000000000000000000000000000000000000000 DUP3 AND SWAP1 POP SWAP2 SWAP1 POP JUMP JUMPDEST PUSH1 0x0 PUSH20 0xFFFFFFFFFFFFFFFFFFFFFFFFFFFFFFFFFFFFFFFF DUP3 AND SWAP1 POP SWAP2 SWAP1 POP JUMP JUMPDEST PUSH1 0x0 DUP2 SWAP1 POP SWAP2 SWAP1 POP JUMP JUMPDEST PUSH1 0x0 PUSH2 0xF22 DUP3 PUSH2 0xF4D JUMP JUMPDEST SWAP1 POP SWAP2 SWAP1 POP JUMP JUMPDEST PUSH1 0x0 PUSH2 0xF34 DUP3 PUSH2 0xF4D JUMP JUMPDEST SWAP1 POP SWAP2 SWAP1 POP JUMP JUMPDEST PUSH1 0x0 PUSH2 0xF46 DUP3 PUSH2 0xF4D JUMP JUMPDEST SWAP1 POP SWAP2 SWAP1 POP JUMP JUMPDEST PUSH1 0x0 PUSH2 0xF58 DUP3 PUSH2 0xF5F JUMP JUMPDEST SWAP1 POP SWAP2 SWAP1 POP JUMP JUMPDEST PUSH1 0x0 PUSH2 0xF6A DUP3 PUSH2 0xEED JUMP JUMPDEST SWAP1 POP SWAP2 SWAP1 POP JUMP JUMPDEST DUP3 DUP2 DUP4 CALLDATACOPY PUSH1 0x0 DUP4 DUP4 ADD MSTORE POP POP POP JUMP JUMPDEST PUSH2 0xF89 DUP3 PUSH2 0x1023 JUMP JUMPDEST DUP2 ADD DUP2 DUP2 LT PUSH8 0xFFFFFFFFFFFFFFFF DUP3 GT OR ISZERO PUSH2 0xFA8 JUMPI PUSH2 0xFA7 PUSH2 0xFE0 JUMP JUMPDEST JUMPDEST DUP1 PUSH1 0x40 MSTORE POP POP POP JUMP JUMPDEST PUSH32 0x4E487B7100000000000000000000000000000000000000000000000000000000 PUSH1 0x0 MSTORE PUSH1 0x11 PUSH1 0x4 MSTORE PUSH1 0x24 PUSH1 0x0 REVERT JUMPDEST PUSH32 0x4E487B7100000000000000000000000000000000000000000000000000000000 PUSH1 0x0 MSTORE PUSH1 0x41 PUSH1 0x4 MSTORE PUSH1 0x24 PUSH1 0x0 REVERT JUMPDEST PUSH1 0x0 DUP1 REVERT JUMPDEST PUSH1 0x0 DUP1 REVERT JUMPDEST PUSH1 0x0 DUP1 REVERT JUMPDEST PUSH1 0x0 DUP1 REVERT JUMPDEST PUSH1 0x0 PUSH1 0x1F NOT PUSH1 0x1F DUP4 ADD AND SWAP1 POP SWAP2 SWAP1 POP JUMP JUMPDEST PUSH32 0x4E6F7420616C6C6F77656420746F20636C61696D206F776E6572736869700000 PUSH1 0x0 DUP3 ADD MSTORE POP JUMP JUMPDEST PUSH32 0x546F6F206561726C7920746F20636C61696D206F776E6572736869702C20796F PUSH1 0x0 DUP3 ADD MSTORE PUSH32 0x752063616E2063616C6C20656D657267656E63792066756E6374696F6E000000 PUSH1 0x20 DUP3 ADD MSTORE POP JUMP JUMPDEST PUSH2 0x10B5 DUP2 PUSH2 0xEA3 JUMP JUMPDEST DUP2 EQ PUSH2 0x10C0 JUMPI PUSH1 0x0 DUP1 REVERT JUMPDEST POP JUMP JUMPDEST PUSH2 0x10CC DUP2 PUSH2 0xEB5 JUMP JUMPDEST DUP2 EQ PUSH2 0x10D7 JUMPI PUSH1 0x0 DUP1 REVERT JUMPDEST POP JUMP JUMPDEST PUSH2 0x10E3 DUP2 PUSH2 0xF0D JUMP JUMPDEST DUP2 EQ PUSH2 0x10EE JUMPI PUSH1 0x0 DUP1 REVERT JUMPDEST POP JUMP INVALID LOG2 PUSH5 0x6970667358 0x22 SLT KECCAK256 EXTCODESIZE TIMESTAMP 0x1F MSIZE 0xBE XOR 0xF6 0xF7 NUMBER SUB PUSH6 0x740D2FF9C0A0 EXTCODECOPY 0xBF SWAP14 0xC9 0xD8 PUSH5 0x36505A5D92 0xC3 DIFFICULTY 0xAC 0x1F PUSH5 0x736F6C6343 STOP ADDMOD SMOD STOP CALLER "
				},
				"gasEstimates": {
					"creation": {
						"codeDepositCost": "878200",
						"executionCost": "infinite",
						"totalCost": "infinite"
					},
					"external": {
						"emergencyUnstake(uint256)": "infinite",
						"getStakes(uint256)": "infinite",
						"onERC721Received(address,address,uint256,bytes)": "infinite",
						"parentNFT()": "2622",
						"parentNFTAddress()": "2514",
						"parentNftFunctions()": "2666",
						"unstake(uint256)": "infinite",
						"vGas()": "2644"
					}
				},
				"methodIdentifiers": {
					"emergencyUnstake(uint256)": "012ce501",
					"getStakes(uint256)": "472343b9",
					"onERC721Received(address,address,uint256,bytes)": "150b7a02",
					"parentNFT()": "b8e33fb2",
					"parentNFTAddress()": "66bb863b",
					"parentNftFunctions()": "fead3d6e",
					"unstake(uint256)": "2e17de78",
					"vGas()": "fdb681d2"
				}
			},
			"storageLayout": {
				"storage": [
					{
						"astId": 10,
						"contract": "contracts/Missions.sol:Staking",
						"label": "_status",
						"offset": 0,
						"slot": "0",
						"type": "t_uint256"
					},
					{
						"astId": 1752,
						"contract": "contracts/Missions.sol:Staking",
						"label": "vGas",
						"offset": 0,
						"slot": "1",
						"type": "t_contract(IERC20)117"
					},
					{
						"astId": 1755,
						"contract": "contracts/Missions.sol:Staking",
						"label": "parentNFT",
						"offset": 0,
						"slot": "2",
						"type": "t_contract(IERC721)1100"
					},
					{
						"astId": 1758,
						"contract": "contracts/Missions.sol:Staking",
						"label": "parentNftFunctions",
						"offset": 0,
						"slot": "3",
						"type": "t_contract(INFTGame)1747"
					},
					{
						"astId": 1760,
						"contract": "contracts/Missions.sol:Staking",
						"label": "parentNFTAddress",
						"offset": 0,
						"slot": "4",
						"type": "t_address"
					},
					{
						"astId": 1764,
						"contract": "contracts/Missions.sol:Staking",
						"label": "s_stakers",
						"offset": 0,
						"slot": "5",
						"type": "t_mapping(t_uint256,t_address)"
					},
					{
						"astId": 1768,
						"contract": "contracts/Missions.sol:Staking",
						"label": "s_missionTimers",
						"offset": 0,
						"slot": "6",
						"type": "t_mapping(t_uint256,t_uint256)"
					}
				],
				"types": {
					"t_address": {
						"encoding": "inplace",
						"label": "address",
						"numberOfBytes": "20"
					},
					"t_contract(IERC20)117": {
						"encoding": "inplace",
						"label": "contract IERC20",
						"numberOfBytes": "20"
					},
					"t_contract(IERC721)1100": {
						"encoding": "inplace",
						"label": "contract IERC721",
						"numberOfBytes": "20"
					},
					"t_contract(INFTGame)1747": {
						"encoding": "inplace",
						"label": "contract INFTGame",
						"numberOfBytes": "20"
					},
					"t_mapping(t_uint256,t_address)": {
						"encoding": "mapping",
						"key": "t_uint256",
						"label": "mapping(uint256 => address)",
						"numberOfBytes": "32",
						"value": "t_address"
					},
					"t_mapping(t_uint256,t_uint256)": {
						"encoding": "mapping",
						"key": "t_uint256",
						"label": "mapping(uint256 => uint256)",
						"numberOfBytes": "32",
						"value": "t_uint256"
					},
					"t_uint256": {
						"encoding": "inplace",
						"label": "uint256",
						"numberOfBytes": "32"
					}
				}
			},
			"userdoc": {
				"kind": "user",
				"methods": {},
				"version": 1
			}
		}
	}
}