{
	"contracts/Missions.sol": {
		"Staking": {
			"abi": [
				{
					"inputs": [
						{
							"internalType": "address",
							"name": "_nftContract",
							"type": "address"
						},
						{
							"internalType": "address",
							"name": "_tokenContract",
							"type": "address"
						}
					],
					"stateMutability": "nonpayable",
					"type": "constructor"
				},
				{
					"inputs": [
						{
							"internalType": "uint256",
							"name": "_tokenID",
							"type": "uint256"
						}
					],
					"name": "getStakes",
					"outputs": [
						{
							"internalType": "address",
							"name": "add",
							"type": "address"
						},
						{
							"internalType": "uint256",
							"name": "time",
							"type": "uint256"
						}
					],
					"stateMutability": "view",
					"type": "function"
				},
				{
					"inputs": [
						{
							"internalType": "address",
							"name": "_operator",
							"type": "address"
						},
						{
							"internalType": "address",
							"name": "_sender",
							"type": "address"
						},
						{
							"internalType": "uint256",
							"name": "_tokenID",
							"type": "uint256"
						},
						{
							"internalType": "bytes",
							"name": "",
							"type": "bytes"
						}
					],
					"name": "onERC721Received",
					"outputs": [
						{
							"internalType": "bytes4",
							"name": "",
							"type": "bytes4"
						}
					],
					"stateMutability": "nonpayable",
					"type": "function"
				},
				{
					"inputs": [],
					"name": "parentNFT",
					"outputs": [
						{
							"internalType": "contract IERC721",
							"name": "",
							"type": "address"
						}
					],
					"stateMutability": "view",
					"type": "function"
				},
				{
					"inputs": [],
					"name": "parentNFTAddress",
					"outputs": [
						{
							"internalType": "address",
							"name": "",
							"type": "address"
						}
					],
					"stateMutability": "view",
					"type": "function"
				},
				{
					"inputs": [],
					"name": "parentNftFunctions",
					"outputs": [
						{
							"internalType": "contract INFTGame",
							"name": "",
							"type": "address"
						}
					],
					"stateMutability": "view",
					"type": "function"
				},
				{
					"inputs": [],
					"name": "parentToken",
					"outputs": [
						{
							"internalType": "contract IERC20",
							"name": "",
							"type": "address"
						}
					],
					"stateMutability": "view",
					"type": "function"
				},
				{
					"inputs": [
						{
							"internalType": "uint256",
							"name": "_tokenID",
							"type": "uint256"
						}
					],
					"name": "unstake",
					"outputs": [
						{
							"internalType": "uint256",
							"name": "tokenID",
							"type": "uint256"
						},
						{
							"internalType": "uint256",
							"name": "amount",
							"type": "uint256"
						}
					],
					"stateMutability": "view",
					"type": "function"
				}
			],
			"devdoc": {
				"kind": "dev",
				"methods": {},
				"version": 1
			},
			"evm": {
				"assembly": "    /* \"contracts/Missions.sol\":341:1584  contract Staking is ReentrancyGuard {\r... */\n  mstore(0x40, 0x80)\n    /* \"contracts/Missions.sol\":526:788  constructor(address _nftContract, address _tokenContract){\r... */\n  callvalue\n  dup1\n  iszero\n  tag_1\n  jumpi\n  0x00\n  dup1\n  revert\ntag_1:\n  pop\n  mload(0x40)\n  sub(codesize, bytecodeSize)\n  dup1\n  bytecodeSize\n  dup4\n  codecopy\n  dup2\n  dup2\n  add\n  0x40\n  mstore\n  dup2\n  add\n  swap1\n  tag_2\n  swap2\n  swap1\n  tag_3\n  jump\t// in\ntag_2:\n    /* \"@openzeppelin/contracts/security/ReentrancyGuard.sol\":1701:1702  1 */\n  0x01\n    /* \"@openzeppelin/contracts/security/ReentrancyGuard.sol\":1806:1813  _status */\n  0x00\n    /* \"@openzeppelin/contracts/security/ReentrancyGuard.sol\":1806:1828  _status = _NOT_ENTERED */\n  dup2\n  swap1\n  sstore\n  pop\n    /* \"contracts/Missions.sol\":614:626  _nftContract */\n  dup2\n    /* \"contracts/Missions.sol\":594:603  parentNFT */\n  0x02\n  0x00\n    /* \"contracts/Missions.sol\":594:627  parentNFT = IERC721(_nftContract) */\n  0x0100\n  exp\n  dup2\n  sload\n  dup2\n  0xffffffffffffffffffffffffffffffffffffffff\n  mul\n  not\n  and\n  swap1\n  dup4\n  0xffffffffffffffffffffffffffffffffffffffff\n  and\n  mul\n  or\n  swap1\n  sstore\n  pop\n    /* \"contracts/Missions.sol\":668:680  _nftContract */\n  dup2\n    /* \"contracts/Missions.sol\":638:656  parentNftFunctions */\n  0x03\n  0x00\n    /* \"contracts/Missions.sol\":638:681  parentNftFunctions = INFTGame(_nftContract) */\n  0x0100\n  exp\n  dup2\n  sload\n  dup2\n  0xffffffffffffffffffffffffffffffffffffffff\n  mul\n  not\n  and\n  swap1\n  dup4\n  0xffffffffffffffffffffffffffffffffffffffff\n  and\n  mul\n  or\n  swap1\n  sstore\n  pop\n    /* \"contracts/Missions.sol\":713:727  _tokenContract */\n  dup1\n    /* \"contracts/Missions.sol\":692:703  parentToken */\n  0x01\n  0x00\n    /* \"contracts/Missions.sol\":692:728  parentToken = IERC20(_tokenContract) */\n  0x0100\n  exp\n  dup2\n  sload\n  dup2\n  0xffffffffffffffffffffffffffffffffffffffff\n  mul\n  not\n  and\n  swap1\n  dup4\n  0xffffffffffffffffffffffffffffffffffffffff\n  and\n  mul\n  or\n  swap1\n  sstore\n  pop\n    /* \"contracts/Missions.sol\":758:770  _nftContract */\n  dup2\n    /* \"contracts/Missions.sol\":739:755  parentNFTAddress */\n  0x04\n  0x00\n    /* \"contracts/Missions.sol\":739:770  parentNFTAddress = _nftContract */\n  0x0100\n  exp\n  dup2\n  sload\n  dup2\n  0xffffffffffffffffffffffffffffffffffffffff\n  mul\n  not\n  and\n  swap1\n  dup4\n  0xffffffffffffffffffffffffffffffffffffffff\n  and\n  mul\n  or\n  swap1\n  sstore\n  pop\n    /* \"contracts/Missions.sol\":526:788  constructor(address _nftContract, address _tokenContract){\r... */\n  pop\n  pop\n    /* \"contracts/Missions.sol\":341:1584  contract Staking is ReentrancyGuard {\r... */\n  jump(tag_8)\n    /* \"#utility.yul\":7:150   */\ntag_10:\n    /* \"#utility.yul\":64:69   */\n  0x00\n    /* \"#utility.yul\":95:101   */\n  dup2\n    /* \"#utility.yul\":89:102   */\n  mload\n    /* \"#utility.yul\":80:102   */\n  swap1\n  pop\n    /* \"#utility.yul\":111:144   */\n  tag_12\n    /* \"#utility.yul\":138:143   */\n  dup2\n    /* \"#utility.yul\":111:144   */\n  tag_13\n  jump\t// in\ntag_12:\n    /* \"#utility.yul\":7:150   */\n  swap3\n  swap2\n  pop\n  pop\n  jump\t// out\n    /* \"#utility.yul\":156:663   */\ntag_3:\n    /* \"#utility.yul\":235:241   */\n  0x00\n    /* \"#utility.yul\":243:249   */\n  dup1\n    /* \"#utility.yul\":292:294   */\n  0x40\n    /* \"#utility.yul\":280:289   */\n  dup4\n    /* \"#utility.yul\":271:278   */\n  dup6\n    /* \"#utility.yul\":267:290   */\n  sub\n    /* \"#utility.yul\":263:295   */\n  slt\n    /* \"#utility.yul\":260:379   */\n  iszero\n  tag_15\n  jumpi\n    /* \"#utility.yul\":298:377   */\n  tag_16\n  tag_17\n  jump\t// in\ntag_16:\n    /* \"#utility.yul\":260:379   */\ntag_15:\n    /* \"#utility.yul\":418:419   */\n  0x00\n    /* \"#utility.yul\":443:507   */\n  tag_18\n    /* \"#utility.yul\":499:506   */\n  dup6\n    /* \"#utility.yul\":490:496   */\n  dup3\n    /* \"#utility.yul\":479:488   */\n  dup7\n    /* \"#utility.yul\":475:497   */\n  add\n    /* \"#utility.yul\":443:507   */\n  tag_10\n  jump\t// in\ntag_18:\n    /* \"#utility.yul\":433:507   */\n  swap3\n  pop\n    /* \"#utility.yul\":389:517   */\n  pop\n    /* \"#utility.yul\":556:558   */\n  0x20\n    /* \"#utility.yul\":582:646   */\n  tag_19\n    /* \"#utility.yul\":638:645   */\n  dup6\n    /* \"#utility.yul\":629:635   */\n  dup3\n    /* \"#utility.yul\":618:627   */\n  dup7\n    /* \"#utility.yul\":614:636   */\n  add\n    /* \"#utility.yul\":582:646   */\n  tag_10\n  jump\t// in\ntag_19:\n    /* \"#utility.yul\":572:646   */\n  swap2\n  pop\n    /* \"#utility.yul\":527:656   */\n  pop\n    /* \"#utility.yul\":156:663   */\n  swap3\n  pop\n  swap3\n  swap1\n  pop\n  jump\t// out\n    /* \"#utility.yul\":750:846   */\ntag_22:\n    /* \"#utility.yul\":787:794   */\n  0x00\n    /* \"#utility.yul\":816:840   */\n  tag_24\n    /* \"#utility.yul\":834:839   */\n  dup3\n    /* \"#utility.yul\":816:840   */\n  tag_25\n  jump\t// in\ntag_24:\n    /* \"#utility.yul\":805:840   */\n  swap1\n  pop\n    /* \"#utility.yul\":750:846   */\n  swap2\n  swap1\n  pop\n  jump\t// out\n    /* \"#utility.yul\":852:978   */\ntag_25:\n    /* \"#utility.yul\":889:896   */\n  0x00\n    /* \"#utility.yul\":929:971   */\n  0xffffffffffffffffffffffffffffffffffffffff\n    /* \"#utility.yul\":922:927   */\n  dup3\n    /* \"#utility.yul\":918:972   */\n  and\n    /* \"#utility.yul\":907:972   */\n  swap1\n  pop\n    /* \"#utility.yul\":852:978   */\n  swap2\n  swap1\n  pop\n  jump\t// out\n    /* \"#utility.yul\":1107:1224   */\ntag_17:\n    /* \"#utility.yul\":1216:1217   */\n  0x00\n    /* \"#utility.yul\":1213:1214   */\n  dup1\n    /* \"#utility.yul\":1206:1218   */\n  revert\n    /* \"#utility.yul\":1230:1352   */\ntag_13:\n    /* \"#utility.yul\":1303:1327   */\n  tag_31\n    /* \"#utility.yul\":1321:1326   */\n  dup2\n    /* \"#utility.yul\":1303:1327   */\n  tag_22\n  jump\t// in\ntag_31:\n    /* \"#utility.yul\":1296:1301   */\n  dup2\n    /* \"#utility.yul\":1293:1328   */\n  eq\n    /* \"#utility.yul\":1283:1346   */\n  tag_32\n  jumpi\n    /* \"#utility.yul\":1342:1343   */\n  0x00\n    /* \"#utility.yul\":1339:1340   */\n  dup1\n    /* \"#utility.yul\":1332:1344   */\n  revert\n    /* \"#utility.yul\":1283:1346   */\ntag_32:\n    /* \"#utility.yul\":1230:1352   */\n  pop\n  jump\t// out\n    /* \"contracts/Missions.sol\":341:1584  contract Staking is ReentrancyGuard {\r... */\ntag_8:\n  dataSize(sub_0)\n  dup1\n  dataOffset(sub_0)\n  0x00\n  codecopy\n  0x00\n  return\nstop\n\nsub_0: assembly {\n        /* \"contracts/Missions.sol\":341:1584  contract Staking is ReentrancyGuard {\r... */\n      mstore(0x40, 0x80)\n      callvalue\n      dup1\n      iszero\n      tag_1\n      jumpi\n      0x00\n      dup1\n      revert\n    tag_1:\n      pop\n      jumpi(tag_2, lt(calldatasize, 0x04))\n      shr(0xe0, calldataload(0x00))\n      dup1\n      0x66bb863b\n      gt\n      tag_10\n      jumpi\n      dup1\n      0x66bb863b\n      eq\n      tag_6\n      jumpi\n      dup1\n      0x80a54001\n      eq\n      tag_7\n      jumpi\n      dup1\n      0xb8e33fb2\n      eq\n      tag_8\n      jumpi\n      dup1\n      0xfead3d6e\n      eq\n      tag_9\n      jumpi\n      jump(tag_2)\n    tag_10:\n      dup1\n      0x150b7a02\n      eq\n      tag_3\n      jumpi\n      dup1\n      0x2e17de78\n      eq\n      tag_4\n      jumpi\n      dup1\n      0x472343b9\n      eq\n      tag_5\n      jumpi\n    tag_2:\n      0x00\n      dup1\n      revert\n        /* \"contracts/Missions.sol\":1181:1544  function onERC721Received(address _operator, address _sender, uint256 _tokenID, bytes memory) public virtual returns (bytes4) {\r... */\n    tag_3:\n      tag_11\n      0x04\n      dup1\n      calldatasize\n      sub\n      dup2\n      add\n      swap1\n      tag_12\n      swap2\n      swap1\n      tag_13\n      jump\t// in\n    tag_12:\n      tag_14\n      jump\t// in\n    tag_11:\n      mload(0x40)\n      tag_15\n      swap2\n      swap1\n      tag_16\n      jump\t// in\n    tag_15:\n      mload(0x40)\n      dup1\n      swap2\n      sub\n      swap1\n      return\n        /* \"contracts/Missions.sol\":1065:1163  function unstake(uint256 _tokenID) public view returns (uint256 tokenID, uint256 amount){\r... */\n    tag_4:\n      tag_17\n      0x04\n      dup1\n      calldatasize\n      sub\n      dup2\n      add\n      swap1\n      tag_18\n      swap2\n      swap1\n      tag_19\n      jump\t// in\n    tag_18:\n      tag_20\n      jump\t// in\n    tag_17:\n      mload(0x40)\n      tag_21\n      swap3\n      swap2\n      swap1\n      tag_22\n      jump\t// in\n    tag_21:\n      mload(0x40)\n      dup1\n      swap2\n      sub\n      swap1\n      return\n        /* \"contracts/Missions.sol\":895:1053  function getStakes(uint256 _tokenID) public view returns (address add, uint256 time){\r... */\n    tag_5:\n      tag_23\n      0x04\n      dup1\n      calldatasize\n      sub\n      dup2\n      add\n      swap1\n      tag_24\n      swap2\n      swap1\n      tag_19\n      jump\t// in\n    tag_24:\n      tag_25\n      jump\t// in\n    tag_23:\n      mload(0x40)\n      tag_26\n      swap3\n      swap2\n      swap1\n      tag_27\n      jump\t// in\n    tag_26:\n      mload(0x40)\n      dup1\n      swap2\n      sub\n      swap1\n      return\n        /* \"contracts/Missions.sol\":488:519  address public parentNFTAddress */\n    tag_6:\n      tag_28\n      tag_29\n      jump\t// in\n    tag_28:\n      mload(0x40)\n      tag_30\n      swap2\n      swap1\n      tag_31\n      jump\t// in\n    tag_30:\n      mload(0x40)\n      dup1\n      swap2\n      sub\n      swap1\n      return\n        /* \"contracts/Missions.sol\":384:409  IERC20 public parentToken */\n    tag_7:\n      tag_32\n      tag_33\n      jump\t// in\n    tag_32:\n      mload(0x40)\n      tag_34\n      swap2\n      swap1\n      tag_35\n      jump\t// in\n    tag_34:\n      mload(0x40)\n      dup1\n      swap2\n      sub\n      swap1\n      return\n        /* \"contracts/Missions.sol\":416:440  IERC721 public parentNFT */\n    tag_8:\n      tag_36\n      tag_37\n      jump\t// in\n    tag_36:\n      mload(0x40)\n      tag_38\n      swap2\n      swap1\n      tag_39\n      jump\t// in\n    tag_38:\n      mload(0x40)\n      dup1\n      swap2\n      sub\n      swap1\n      return\n        /* \"contracts/Missions.sol\":447:481  INFTGame public parentNftFunctions */\n    tag_9:\n      tag_40\n      tag_41\n      jump\t// in\n    tag_40:\n      mload(0x40)\n      tag_42\n      swap2\n      swap1\n      tag_43\n      jump\t// in\n    tag_42:\n      mload(0x40)\n      dup1\n      swap2\n      sub\n      swap1\n      return\n        /* \"contracts/Missions.sol\":1181:1544  function onERC721Received(address _operator, address _sender, uint256 _tokenID, bytes memory) public virtual returns (bytes4) {\r... */\n    tag_14:\n        /* \"contracts/Missions.sol\":1299:1305  bytes4 */\n      0x00\n        /* \"contracts/Missions.sol\":1347:1363  parentNFTAddress */\n      0x04\n      0x00\n      swap1\n      sload\n      swap1\n      0x0100\n      exp\n      swap1\n      div\n      0xffffffffffffffffffffffffffffffffffffffff\n      and\n        /* \"contracts/Missions.sol\":1334:1363  _operator == parentNFTAddress */\n      0xffffffffffffffffffffffffffffffffffffffff\n      and\n        /* \"contracts/Missions.sol\":1334:1343  _operator */\n      dup6\n        /* \"contracts/Missions.sol\":1334:1363  _operator == parentNFTAddress */\n      0xffffffffffffffffffffffffffffffffffffffff\n      and\n      eq\n        /* \"contracts/Missions.sol\":1330:1479  if (_operator == parentNFTAddress){\r... */\n      iszero\n      tag_45\n      jumpi\n        /* \"contracts/Missions.sol\":1397:1404  _sender */\n      dup4\n        /* \"contracts/Missions.sol\":1375:1384  s_stakers */\n      0x05\n        /* \"contracts/Missions.sol\":1375:1394  s_stakers[_tokenID] */\n      0x00\n        /* \"contracts/Missions.sol\":1385:1393  _tokenID */\n      dup6\n        /* \"contracts/Missions.sol\":1375:1394  s_stakers[_tokenID] */\n      dup2\n      mstore\n      0x20\n      add\n      swap1\n      dup2\n      mstore\n      0x20\n      add\n      0x00\n      keccak256\n      0x00\n        /* \"contracts/Missions.sol\":1375:1404  s_stakers[_tokenID] = _sender */\n      0x0100\n      exp\n      dup2\n      sload\n      dup2\n      0xffffffffffffffffffffffffffffffffffffffff\n      mul\n      not\n      and\n      swap1\n      dup4\n      0xffffffffffffffffffffffffffffffffffffffff\n      and\n      mul\n      or\n      swap1\n      sstore\n      pop\n        /* \"contracts/Missions.sol\":1461:1467  5 days */\n      0x069780\n        /* \"contracts/Missions.sol\":1443:1458  block.timestamp */\n      timestamp\n        /* \"contracts/Missions.sol\":1443:1467  block.timestamp + 5 days */\n      tag_46\n      swap2\n      swap1\n      tag_47\n      jump\t// in\n    tag_46:\n        /* \"contracts/Missions.sol\":1415:1430  s_missionTimers */\n      0x06\n        /* \"contracts/Missions.sol\":1415:1440  s_missionTimers[_tokenID] */\n      0x00\n        /* \"contracts/Missions.sol\":1431:1439  _tokenID */\n      dup6\n        /* \"contracts/Missions.sol\":1415:1440  s_missionTimers[_tokenID] */\n      dup2\n      mstore\n      0x20\n      add\n      swap1\n      dup2\n      mstore\n      0x20\n      add\n      0x00\n      keccak256\n        /* \"contracts/Missions.sol\":1415:1467  s_missionTimers[_tokenID] = block.timestamp + 5 days */\n      dup2\n      swap1\n      sstore\n      pop\n        /* \"contracts/Missions.sol\":1330:1479  if (_operator == parentNFTAddress){\r... */\n    tag_45:\n        /* \"contracts/Missions.sol\":1506:1536  this.onERC721Received.selector */\n      shl(0xe0, 0x150b7a02)\n        /* \"contracts/Missions.sol\":1499:1536  return this.onERC721Received.selector */\n      swap1\n      pop\n        /* \"contracts/Missions.sol\":1181:1544  function onERC721Received(address _operator, address _sender, uint256 _tokenID, bytes memory) public virtual returns (bytes4) {\r... */\n      swap5\n      swap4\n      pop\n      pop\n      pop\n      pop\n      jump\t// out\n        /* \"contracts/Missions.sol\":1065:1163  function unstake(uint256 _tokenID) public view returns (uint256 tokenID, uint256 amount){\r... */\n    tag_20:\n        /* \"contracts/Missions.sol\":1121:1136  uint256 tokenID */\n      0x00\n        /* \"contracts/Missions.sol\":1138:1152  uint256 amount */\n      dup1\n        /* \"contracts/Missions.sol\":1065:1163  function unstake(uint256 _tokenID) public view returns (uint256 tokenID, uint256 amount){\r... */\n      swap2\n      pop\n      swap2\n      jump\t// out\n        /* \"contracts/Missions.sol\":895:1053  function getStakes(uint256 _tokenID) public view returns (address add, uint256 time){\r... */\n    tag_25:\n        /* \"contracts/Missions.sol\":953:964  address add */\n      0x00\n        /* \"contracts/Missions.sol\":966:978  uint256 time */\n      dup1\n        /* \"contracts/Missions.sol\":998:1007  s_stakers */\n      0x05\n        /* \"contracts/Missions.sol\":998:1017  s_stakers[_tokenID] */\n      0x00\n        /* \"contracts/Missions.sol\":1008:1016  _tokenID */\n      dup5\n        /* \"contracts/Missions.sol\":998:1017  s_stakers[_tokenID] */\n      dup2\n      mstore\n      0x20\n      add\n      swap1\n      dup2\n      mstore\n      0x20\n      add\n      0x00\n      keccak256\n      0x00\n      swap1\n      sload\n      swap1\n      0x0100\n      exp\n      swap1\n      div\n      0xffffffffffffffffffffffffffffffffffffffff\n      and\n        /* \"contracts/Missions.sol\":1019:1034  s_missionTimers */\n      0x06\n        /* \"contracts/Missions.sol\":1019:1044  s_missionTimers[_tokenID] */\n      0x00\n        /* \"contracts/Missions.sol\":1035:1043  _tokenID */\n      dup6\n        /* \"contracts/Missions.sol\":1019:1044  s_missionTimers[_tokenID] */\n      dup2\n      mstore\n      0x20\n      add\n      swap1\n      dup2\n      mstore\n      0x20\n      add\n      0x00\n      keccak256\n      sload\n        /* \"contracts/Missions.sol\":990:1045  return (s_stakers[_tokenID], s_missionTimers[_tokenID]) */\n      swap2\n      pop\n      swap2\n      pop\n        /* \"contracts/Missions.sol\":895:1053  function getStakes(uint256 _tokenID) public view returns (address add, uint256 time){\r... */\n      swap2\n      pop\n      swap2\n      jump\t// out\n        /* \"contracts/Missions.sol\":488:519  address public parentNFTAddress */\n    tag_29:\n      0x04\n      0x00\n      swap1\n      sload\n      swap1\n      0x0100\n      exp\n      swap1\n      div\n      0xffffffffffffffffffffffffffffffffffffffff\n      and\n      dup2\n      jump\t// out\n        /* \"contracts/Missions.sol\":384:409  IERC20 public parentToken */\n    tag_33:\n      0x01\n      0x00\n      swap1\n      sload\n      swap1\n      0x0100\n      exp\n      swap1\n      div\n      0xffffffffffffffffffffffffffffffffffffffff\n      and\n      dup2\n      jump\t// out\n        /* \"contracts/Missions.sol\":416:440  IERC721 public parentNFT */\n    tag_37:\n      0x02\n      0x00\n      swap1\n      sload\n      swap1\n      0x0100\n      exp\n      swap1\n      div\n      0xffffffffffffffffffffffffffffffffffffffff\n      and\n      dup2\n      jump\t// out\n        /* \"contracts/Missions.sol\":447:481  INFTGame public parentNftFunctions */\n    tag_41:\n      0x03\n      0x00\n      swap1\n      sload\n      swap1\n      0x0100\n      exp\n      swap1\n      div\n      0xffffffffffffffffffffffffffffffffffffffff\n      and\n      dup2\n      jump\t// out\n        /* \"#utility.yul\":7:417   */\n    tag_51:\n        /* \"#utility.yul\":84:89   */\n      0x00\n        /* \"#utility.yul\":109:174   */\n      tag_53\n        /* \"#utility.yul\":125:173   */\n      tag_54\n        /* \"#utility.yul\":166:172   */\n      dup5\n        /* \"#utility.yul\":125:173   */\n      tag_55\n      jump\t// in\n    tag_54:\n        /* \"#utility.yul\":109:174   */\n      tag_56\n      jump\t// in\n    tag_53:\n        /* \"#utility.yul\":100:174   */\n      swap1\n      pop\n        /* \"#utility.yul\":197:203   */\n      dup3\n        /* \"#utility.yul\":190:195   */\n      dup2\n        /* \"#utility.yul\":183:204   */\n      mstore\n        /* \"#utility.yul\":235:239   */\n      0x20\n        /* \"#utility.yul\":228:233   */\n      dup2\n        /* \"#utility.yul\":224:240   */\n      add\n        /* \"#utility.yul\":273:276   */\n      dup5\n        /* \"#utility.yul\":264:270   */\n      dup5\n        /* \"#utility.yul\":259:262   */\n      dup5\n        /* \"#utility.yul\":255:271   */\n      add\n        /* \"#utility.yul\":252:277   */\n      gt\n        /* \"#utility.yul\":249:361   */\n      iszero\n      tag_57\n      jumpi\n        /* \"#utility.yul\":280:359   */\n      tag_58\n      tag_59\n      jump\t// in\n    tag_58:\n        /* \"#utility.yul\":249:361   */\n    tag_57:\n        /* \"#utility.yul\":370:411   */\n      tag_60\n        /* \"#utility.yul\":404:410   */\n      dup5\n        /* \"#utility.yul\":399:402   */\n      dup3\n        /* \"#utility.yul\":394:397   */\n      dup6\n        /* \"#utility.yul\":370:411   */\n      tag_61\n      jump\t// in\n    tag_60:\n        /* \"#utility.yul\":90:417   */\n      pop\n        /* \"#utility.yul\":7:417   */\n      swap4\n      swap3\n      pop\n      pop\n      pop\n      jump\t// out\n        /* \"#utility.yul\":423:562   */\n    tag_62:\n        /* \"#utility.yul\":469:474   */\n      0x00\n        /* \"#utility.yul\":507:513   */\n      dup2\n        /* \"#utility.yul\":494:514   */\n      calldataload\n        /* \"#utility.yul\":485:514   */\n      swap1\n      pop\n        /* \"#utility.yul\":523:556   */\n      tag_64\n        /* \"#utility.yul\":550:555   */\n      dup2\n        /* \"#utility.yul\":523:556   */\n      tag_65\n      jump\t// in\n    tag_64:\n        /* \"#utility.yul\":423:562   */\n      swap3\n      swap2\n      pop\n      pop\n      jump\t// out\n        /* \"#utility.yul\":581:919   */\n    tag_66:\n        /* \"#utility.yul\":636:641   */\n      0x00\n        /* \"#utility.yul\":685:688   */\n      dup3\n        /* \"#utility.yul\":678:682   */\n      0x1f\n        /* \"#utility.yul\":670:676   */\n      dup4\n        /* \"#utility.yul\":666:683   */\n      add\n        /* \"#utility.yul\":662:689   */\n      slt\n        /* \"#utility.yul\":652:774   */\n      tag_68\n      jumpi\n        /* \"#utility.yul\":693:772   */\n      tag_69\n      tag_70\n      jump\t// in\n    tag_69:\n        /* \"#utility.yul\":652:774   */\n    tag_68:\n        /* \"#utility.yul\":810:816   */\n      dup2\n        /* \"#utility.yul\":797:817   */\n      calldataload\n        /* \"#utility.yul\":835:913   */\n      tag_71\n        /* \"#utility.yul\":909:912   */\n      dup5\n        /* \"#utility.yul\":901:907   */\n      dup3\n        /* \"#utility.yul\":894:898   */\n      0x20\n        /* \"#utility.yul\":886:892   */\n      dup7\n        /* \"#utility.yul\":882:899   */\n      add\n        /* \"#utility.yul\":835:913   */\n      tag_51\n      jump\t// in\n    tag_71:\n        /* \"#utility.yul\":826:913   */\n      swap2\n      pop\n        /* \"#utility.yul\":642:919   */\n      pop\n        /* \"#utility.yul\":581:919   */\n      swap3\n      swap2\n      pop\n      pop\n      jump\t// out\n        /* \"#utility.yul\":925:1064   */\n    tag_72:\n        /* \"#utility.yul\":971:976   */\n      0x00\n        /* \"#utility.yul\":1009:1015   */\n      dup2\n        /* \"#utility.yul\":996:1016   */\n      calldataload\n        /* \"#utility.yul\":987:1016   */\n      swap1\n      pop\n        /* \"#utility.yul\":1025:1058   */\n      tag_74\n        /* \"#utility.yul\":1052:1057   */\n      dup2\n        /* \"#utility.yul\":1025:1058   */\n      tag_75\n      jump\t// in\n    tag_74:\n        /* \"#utility.yul\":925:1064   */\n      swap3\n      swap2\n      pop\n      pop\n      jump\t// out\n        /* \"#utility.yul\":1070:2013   */\n    tag_13:\n        /* \"#utility.yul\":1165:1171   */\n      0x00\n        /* \"#utility.yul\":1173:1179   */\n      dup1\n        /* \"#utility.yul\":1181:1187   */\n      0x00\n        /* \"#utility.yul\":1189:1195   */\n      dup1\n        /* \"#utility.yul\":1238:1241   */\n      0x80\n        /* \"#utility.yul\":1226:1235   */\n      dup6\n        /* \"#utility.yul\":1217:1224   */\n      dup8\n        /* \"#utility.yul\":1213:1236   */\n      sub\n        /* \"#utility.yul\":1209:1242   */\n      slt\n        /* \"#utility.yul\":1206:1326   */\n      iszero\n      tag_77\n      jumpi\n        /* \"#utility.yul\":1245:1324   */\n      tag_78\n      tag_79\n      jump\t// in\n    tag_78:\n        /* \"#utility.yul\":1206:1326   */\n    tag_77:\n        /* \"#utility.yul\":1365:1366   */\n      0x00\n        /* \"#utility.yul\":1390:1443   */\n      tag_80\n        /* \"#utility.yul\":1435:1442   */\n      dup8\n        /* \"#utility.yul\":1426:1432   */\n      dup3\n        /* \"#utility.yul\":1415:1424   */\n      dup9\n        /* \"#utility.yul\":1411:1433   */\n      add\n        /* \"#utility.yul\":1390:1443   */\n      tag_62\n      jump\t// in\n    tag_80:\n        /* \"#utility.yul\":1380:1443   */\n      swap5\n      pop\n        /* \"#utility.yul\":1336:1453   */\n      pop\n        /* \"#utility.yul\":1492:1494   */\n      0x20\n        /* \"#utility.yul\":1518:1571   */\n      tag_81\n        /* \"#utility.yul\":1563:1570   */\n      dup8\n        /* \"#utility.yul\":1554:1560   */\n      dup3\n        /* \"#utility.yul\":1543:1552   */\n      dup9\n        /* \"#utility.yul\":1539:1561   */\n      add\n        /* \"#utility.yul\":1518:1571   */\n      tag_62\n      jump\t// in\n    tag_81:\n        /* \"#utility.yul\":1508:1571   */\n      swap4\n      pop\n        /* \"#utility.yul\":1463:1581   */\n      pop\n        /* \"#utility.yul\":1620:1622   */\n      0x40\n        /* \"#utility.yul\":1646:1699   */\n      tag_82\n        /* \"#utility.yul\":1691:1698   */\n      dup8\n        /* \"#utility.yul\":1682:1688   */\n      dup3\n        /* \"#utility.yul\":1671:1680   */\n      dup9\n        /* \"#utility.yul\":1667:1689   */\n      add\n        /* \"#utility.yul\":1646:1699   */\n      tag_72\n      jump\t// in\n    tag_82:\n        /* \"#utility.yul\":1636:1699   */\n      swap3\n      pop\n        /* \"#utility.yul\":1591:1709   */\n      pop\n        /* \"#utility.yul\":1776:1778   */\n      0x60\n        /* \"#utility.yul\":1765:1774   */\n      dup6\n        /* \"#utility.yul\":1761:1779   */\n      add\n        /* \"#utility.yul\":1748:1780   */\n      calldataload\n        /* \"#utility.yul\":1807:1825   */\n      0xffffffffffffffff\n        /* \"#utility.yul\":1799:1805   */\n      dup2\n        /* \"#utility.yul\":1796:1826   */\n      gt\n        /* \"#utility.yul\":1793:1910   */\n      iszero\n      tag_83\n      jumpi\n        /* \"#utility.yul\":1829:1908   */\n      tag_84\n      tag_85\n      jump\t// in\n    tag_84:\n        /* \"#utility.yul\":1793:1910   */\n    tag_83:\n        /* \"#utility.yul\":1934:1996   */\n      tag_86\n        /* \"#utility.yul\":1988:1995   */\n      dup8\n        /* \"#utility.yul\":1979:1985   */\n      dup3\n        /* \"#utility.yul\":1968:1977   */\n      dup9\n        /* \"#utility.yul\":1964:1986   */\n      add\n        /* \"#utility.yul\":1934:1996   */\n      tag_66\n      jump\t// in\n    tag_86:\n        /* \"#utility.yul\":1924:1996   */\n      swap2\n      pop\n        /* \"#utility.yul\":1719:2006   */\n      pop\n        /* \"#utility.yul\":1070:2013   */\n      swap3\n      swap6\n      swap2\n      swap5\n      pop\n      swap3\n      pop\n      jump\t// out\n        /* \"#utility.yul\":2019:2348   */\n    tag_19:\n        /* \"#utility.yul\":2078:2084   */\n      0x00\n        /* \"#utility.yul\":2127:2129   */\n      0x20\n        /* \"#utility.yul\":2115:2124   */\n      dup3\n        /* \"#utility.yul\":2106:2113   */\n      dup5\n        /* \"#utility.yul\":2102:2125   */\n      sub\n        /* \"#utility.yul\":2098:2130   */\n      slt\n        /* \"#utility.yul\":2095:2214   */\n      iszero\n      tag_88\n      jumpi\n        /* \"#utility.yul\":2133:2212   */\n      tag_89\n      tag_79\n      jump\t// in\n    tag_89:\n        /* \"#utility.yul\":2095:2214   */\n    tag_88:\n        /* \"#utility.yul\":2253:2254   */\n      0x00\n        /* \"#utility.yul\":2278:2331   */\n      tag_90\n        /* \"#utility.yul\":2323:2330   */\n      dup5\n        /* \"#utility.yul\":2314:2320   */\n      dup3\n        /* \"#utility.yul\":2303:2312   */\n      dup6\n        /* \"#utility.yul\":2299:2321   */\n      add\n        /* \"#utility.yul\":2278:2331   */\n      tag_72\n      jump\t// in\n    tag_90:\n        /* \"#utility.yul\":2268:2331   */\n      swap2\n      pop\n        /* \"#utility.yul\":2224:2341   */\n      pop\n        /* \"#utility.yul\":2019:2348   */\n      swap3\n      swap2\n      pop\n      pop\n      jump\t// out\n        /* \"#utility.yul\":2354:2472   */\n    tag_91:\n        /* \"#utility.yul\":2441:2465   */\n      tag_93\n        /* \"#utility.yul\":2459:2464   */\n      dup2\n        /* \"#utility.yul\":2441:2465   */\n      tag_94\n      jump\t// in\n    tag_93:\n        /* \"#utility.yul\":2436:2439   */\n      dup3\n        /* \"#utility.yul\":2429:2466   */\n      mstore\n        /* \"#utility.yul\":2354:2472   */\n      pop\n      pop\n      jump\t// out\n        /* \"#utility.yul\":2478:2593   */\n    tag_95:\n        /* \"#utility.yul\":2563:2586   */\n      tag_97\n        /* \"#utility.yul\":2580:2585   */\n      dup2\n        /* \"#utility.yul\":2563:2586   */\n      tag_98\n      jump\t// in\n    tag_97:\n        /* \"#utility.yul\":2558:2561   */\n      dup3\n        /* \"#utility.yul\":2551:2587   */\n      mstore\n        /* \"#utility.yul\":2478:2593   */\n      pop\n      pop\n      jump\t// out\n        /* \"#utility.yul\":2599:2758   */\n    tag_99:\n        /* \"#utility.yul\":2700:2751   */\n      tag_101\n        /* \"#utility.yul\":2745:2750   */\n      dup2\n        /* \"#utility.yul\":2700:2751   */\n      tag_102\n      jump\t// in\n    tag_101:\n        /* \"#utility.yul\":2695:2698   */\n      dup3\n        /* \"#utility.yul\":2688:2752   */\n      mstore\n        /* \"#utility.yul\":2599:2758   */\n      pop\n      pop\n      jump\t// out\n        /* \"#utility.yul\":2764:2925   */\n    tag_103:\n        /* \"#utility.yul\":2866:2918   */\n      tag_105\n        /* \"#utility.yul\":2912:2917   */\n      dup2\n        /* \"#utility.yul\":2866:2918   */\n      tag_106\n      jump\t// in\n    tag_105:\n        /* \"#utility.yul\":2861:2864   */\n      dup3\n        /* \"#utility.yul\":2854:2919   */\n      mstore\n        /* \"#utility.yul\":2764:2925   */\n      pop\n      pop\n      jump\t// out\n        /* \"#utility.yul\":2931:3094   */\n    tag_107:\n        /* \"#utility.yul\":3034:3087   */\n      tag_109\n        /* \"#utility.yul\":3081:3086   */\n      dup2\n        /* \"#utility.yul\":3034:3087   */\n      tag_110\n      jump\t// in\n    tag_109:\n        /* \"#utility.yul\":3029:3032   */\n      dup3\n        /* \"#utility.yul\":3022:3088   */\n      mstore\n        /* \"#utility.yul\":2931:3094   */\n      pop\n      pop\n      jump\t// out\n        /* \"#utility.yul\":3100:3218   */\n    tag_111:\n        /* \"#utility.yul\":3187:3211   */\n      tag_113\n        /* \"#utility.yul\":3205:3210   */\n      dup2\n        /* \"#utility.yul\":3187:3211   */\n      tag_114\n      jump\t// in\n    tag_113:\n        /* \"#utility.yul\":3182:3185   */\n      dup3\n        /* \"#utility.yul\":3175:3212   */\n      mstore\n        /* \"#utility.yul\":3100:3218   */\n      pop\n      pop\n      jump\t// out\n        /* \"#utility.yul\":3224:3446   */\n    tag_31:\n        /* \"#utility.yul\":3317:3321   */\n      0x00\n        /* \"#utility.yul\":3355:3357   */\n      0x20\n        /* \"#utility.yul\":3344:3353   */\n      dup3\n        /* \"#utility.yul\":3340:3358   */\n      add\n        /* \"#utility.yul\":3332:3358   */\n      swap1\n      pop\n        /* \"#utility.yul\":3368:3439   */\n      tag_116\n        /* \"#utility.yul\":3436:3437   */\n      0x00\n        /* \"#utility.yul\":3425:3434   */\n      dup4\n        /* \"#utility.yul\":3421:3438   */\n      add\n        /* \"#utility.yul\":3412:3418   */\n      dup5\n        /* \"#utility.yul\":3368:3439   */\n      tag_91\n      jump\t// in\n    tag_116:\n        /* \"#utility.yul\":3224:3446   */\n      swap3\n      swap2\n      pop\n      pop\n      jump\t// out\n        /* \"#utility.yul\":3452:3784   */\n    tag_27:\n        /* \"#utility.yul\":3573:3577   */\n      0x00\n        /* \"#utility.yul\":3611:3613   */\n      0x40\n        /* \"#utility.yul\":3600:3609   */\n      dup3\n        /* \"#utility.yul\":3596:3614   */\n      add\n        /* \"#utility.yul\":3588:3614   */\n      swap1\n      pop\n        /* \"#utility.yul\":3624:3695   */\n      tag_118\n        /* \"#utility.yul\":3692:3693   */\n      0x00\n        /* \"#utility.yul\":3681:3690   */\n      dup4\n        /* \"#utility.yul\":3677:3694   */\n      add\n        /* \"#utility.yul\":3668:3674   */\n      dup6\n        /* \"#utility.yul\":3624:3695   */\n      tag_91\n      jump\t// in\n    tag_118:\n        /* \"#utility.yul\":3705:3777   */\n      tag_119\n        /* \"#utility.yul\":3773:3775   */\n      0x20\n        /* \"#utility.yul\":3762:3771   */\n      dup4\n        /* \"#utility.yul\":3758:3776   */\n      add\n        /* \"#utility.yul\":3749:3755   */\n      dup5\n        /* \"#utility.yul\":3705:3777   */\n      tag_111\n      jump\t// in\n    tag_119:\n        /* \"#utility.yul\":3452:3784   */\n      swap4\n      swap3\n      pop\n      pop\n      pop\n      jump\t// out\n        /* \"#utility.yul\":3790:4008   */\n    tag_16:\n        /* \"#utility.yul\":3881:3885   */\n      0x00\n        /* \"#utility.yul\":3919:3921   */\n      0x20\n        /* \"#utility.yul\":3908:3917   */\n      dup3\n        /* \"#utility.yul\":3904:3922   */\n      add\n        /* \"#utility.yul\":3896:3922   */\n      swap1\n      pop\n        /* \"#utility.yul\":3932:4001   */\n      tag_121\n        /* \"#utility.yul\":3998:3999   */\n      0x00\n        /* \"#utility.yul\":3987:3996   */\n      dup4\n        /* \"#utility.yul\":3983:4000   */\n      add\n        /* \"#utility.yul\":3974:3980   */\n      dup5\n        /* \"#utility.yul\":3932:4001   */\n      tag_95\n      jump\t// in\n    tag_121:\n        /* \"#utility.yul\":3790:4008   */\n      swap3\n      swap2\n      pop\n      pop\n      jump\t// out\n        /* \"#utility.yul\":4014:4264   */\n    tag_35:\n        /* \"#utility.yul\":4121:4125   */\n      0x00\n        /* \"#utility.yul\":4159:4161   */\n      0x20\n        /* \"#utility.yul\":4148:4157   */\n      dup3\n        /* \"#utility.yul\":4144:4162   */\n      add\n        /* \"#utility.yul\":4136:4162   */\n      swap1\n      pop\n        /* \"#utility.yul\":4172:4257   */\n      tag_123\n        /* \"#utility.yul\":4254:4255   */\n      0x00\n        /* \"#utility.yul\":4243:4252   */\n      dup4\n        /* \"#utility.yul\":4239:4256   */\n      add\n        /* \"#utility.yul\":4230:4236   */\n      dup5\n        /* \"#utility.yul\":4172:4257   */\n      tag_99\n      jump\t// in\n    tag_123:\n        /* \"#utility.yul\":4014:4264   */\n      swap3\n      swap2\n      pop\n      pop\n      jump\t// out\n        /* \"#utility.yul\":4270:4522   */\n    tag_39:\n        /* \"#utility.yul\":4378:4382   */\n      0x00\n        /* \"#utility.yul\":4416:4418   */\n      0x20\n        /* \"#utility.yul\":4405:4414   */\n      dup3\n        /* \"#utility.yul\":4401:4419   */\n      add\n        /* \"#utility.yul\":4393:4419   */\n      swap1\n      pop\n        /* \"#utility.yul\":4429:4515   */\n      tag_125\n        /* \"#utility.yul\":4512:4513   */\n      0x00\n        /* \"#utility.yul\":4501:4510   */\n      dup4\n        /* \"#utility.yul\":4497:4514   */\n      add\n        /* \"#utility.yul\":4488:4494   */\n      dup5\n        /* \"#utility.yul\":4429:4515   */\n      tag_103\n      jump\t// in\n    tag_125:\n        /* \"#utility.yul\":4270:4522   */\n      swap3\n      swap2\n      pop\n      pop\n      jump\t// out\n        /* \"#utility.yul\":4528:4782   */\n    tag_43:\n        /* \"#utility.yul\":4637:4641   */\n      0x00\n        /* \"#utility.yul\":4675:4677   */\n      0x20\n        /* \"#utility.yul\":4664:4673   */\n      dup3\n        /* \"#utility.yul\":4660:4678   */\n      add\n        /* \"#utility.yul\":4652:4678   */\n      swap1\n      pop\n        /* \"#utility.yul\":4688:4775   */\n      tag_127\n        /* \"#utility.yul\":4772:4773   */\n      0x00\n        /* \"#utility.yul\":4761:4770   */\n      dup4\n        /* \"#utility.yul\":4757:4774   */\n      add\n        /* \"#utility.yul\":4748:4754   */\n      dup5\n        /* \"#utility.yul\":4688:4775   */\n      tag_107\n      jump\t// in\n    tag_127:\n        /* \"#utility.yul\":4528:4782   */\n      swap3\n      swap2\n      pop\n      pop\n      jump\t// out\n        /* \"#utility.yul\":4788:5120   */\n    tag_22:\n        /* \"#utility.yul\":4909:4913   */\n      0x00\n        /* \"#utility.yul\":4947:4949   */\n      0x40\n        /* \"#utility.yul\":4936:4945   */\n      dup3\n        /* \"#utility.yul\":4932:4950   */\n      add\n        /* \"#utility.yul\":4924:4950   */\n      swap1\n      pop\n        /* \"#utility.yul\":4960:5031   */\n      tag_129\n        /* \"#utility.yul\":5028:5029   */\n      0x00\n        /* \"#utility.yul\":5017:5026   */\n      dup4\n        /* \"#utility.yul\":5013:5030   */\n      add\n        /* \"#utility.yul\":5004:5010   */\n      dup6\n        /* \"#utility.yul\":4960:5031   */\n      tag_111\n      jump\t// in\n    tag_129:\n        /* \"#utility.yul\":5041:5113   */\n      tag_130\n        /* \"#utility.yul\":5109:5111   */\n      0x20\n        /* \"#utility.yul\":5098:5107   */\n      dup4\n        /* \"#utility.yul\":5094:5112   */\n      add\n        /* \"#utility.yul\":5085:5091   */\n      dup5\n        /* \"#utility.yul\":5041:5113   */\n      tag_111\n      jump\t// in\n    tag_130:\n        /* \"#utility.yul\":4788:5120   */\n      swap4\n      swap3\n      pop\n      pop\n      pop\n      jump\t// out\n        /* \"#utility.yul\":5126:5255   */\n    tag_56:\n        /* \"#utility.yul\":5160:5166   */\n      0x00\n        /* \"#utility.yul\":5187:5207   */\n      tag_132\n      tag_133\n      jump\t// in\n    tag_132:\n        /* \"#utility.yul\":5177:5207   */\n      swap1\n      pop\n        /* \"#utility.yul\":5216:5249   */\n      tag_134\n        /* \"#utility.yul\":5244:5248   */\n      dup3\n        /* \"#utility.yul\":5236:5242   */\n      dup3\n        /* \"#utility.yul\":5216:5249   */\n      tag_135\n      jump\t// in\n    tag_134:\n        /* \"#utility.yul\":5126:5255   */\n      swap2\n      swap1\n      pop\n      jump\t// out\n        /* \"#utility.yul\":5261:5336   */\n    tag_133:\n        /* \"#utility.yul\":5294:5300   */\n      0x00\n        /* \"#utility.yul\":5327:5329   */\n      0x40\n        /* \"#utility.yul\":5321:5330   */\n      mload\n        /* \"#utility.yul\":5311:5330   */\n      swap1\n      pop\n        /* \"#utility.yul\":5261:5336   */\n      swap1\n      jump\t// out\n        /* \"#utility.yul\":5342:5649   */\n    tag_55:\n        /* \"#utility.yul\":5403:5407   */\n      0x00\n        /* \"#utility.yul\":5493:5511   */\n      0xffffffffffffffff\n        /* \"#utility.yul\":5485:5491   */\n      dup3\n        /* \"#utility.yul\":5482:5512   */\n      gt\n        /* \"#utility.yul\":5479:5535   */\n      iszero\n      tag_138\n      jumpi\n        /* \"#utility.yul\":5515:5533   */\n      tag_139\n      tag_140\n      jump\t// in\n    tag_139:\n        /* \"#utility.yul\":5479:5535   */\n    tag_138:\n        /* \"#utility.yul\":5553:5582   */\n      tag_141\n        /* \"#utility.yul\":5575:5581   */\n      dup3\n        /* \"#utility.yul\":5553:5582   */\n      tag_142\n      jump\t// in\n    tag_141:\n        /* \"#utility.yul\":5545:5582   */\n      swap1\n      pop\n        /* \"#utility.yul\":5637:5641   */\n      0x20\n        /* \"#utility.yul\":5631:5635   */\n      dup2\n        /* \"#utility.yul\":5627:5642   */\n      add\n        /* \"#utility.yul\":5619:5642   */\n      swap1\n      pop\n        /* \"#utility.yul\":5342:5649   */\n      swap2\n      swap1\n      pop\n      jump\t// out\n        /* \"#utility.yul\":5655:5960   */\n    tag_47:\n        /* \"#utility.yul\":5695:5698   */\n      0x00\n        /* \"#utility.yul\":5714:5734   */\n      tag_144\n        /* \"#utility.yul\":5732:5733   */\n      dup3\n        /* \"#utility.yul\":5714:5734   */\n      tag_114\n      jump\t// in\n    tag_144:\n        /* \"#utility.yul\":5709:5734   */\n      swap2\n      pop\n        /* \"#utility.yul\":5748:5768   */\n      tag_145\n        /* \"#utility.yul\":5766:5767   */\n      dup4\n        /* \"#utility.yul\":5748:5768   */\n      tag_114\n      jump\t// in\n    tag_145:\n        /* \"#utility.yul\":5743:5768   */\n      swap3\n      pop\n        /* \"#utility.yul\":5902:5903   */\n      dup3\n        /* \"#utility.yul\":5834:5900   */\n      0xffffffffffffffffffffffffffffffffffffffffffffffffffffffffffffffff\n        /* \"#utility.yul\":5830:5904   */\n      sub\n        /* \"#utility.yul\":5827:5828   */\n      dup3\n        /* \"#utility.yul\":5824:5905   */\n      gt\n        /* \"#utility.yul\":5821:5928   */\n      iszero\n      tag_146\n      jumpi\n        /* \"#utility.yul\":5908:5926   */\n      tag_147\n      tag_148\n      jump\t// in\n    tag_147:\n        /* \"#utility.yul\":5821:5928   */\n    tag_146:\n        /* \"#utility.yul\":5952:5953   */\n      dup3\n        /* \"#utility.yul\":5949:5950   */\n      dup3\n        /* \"#utility.yul\":5945:5954   */\n      add\n        /* \"#utility.yul\":5938:5954   */\n      swap1\n      pop\n        /* \"#utility.yul\":5655:5960   */\n      swap3\n      swap2\n      pop\n      pop\n      jump\t// out\n        /* \"#utility.yul\":5966:6062   */\n    tag_94:\n        /* \"#utility.yul\":6003:6010   */\n      0x00\n        /* \"#utility.yul\":6032:6056   */\n      tag_150\n        /* \"#utility.yul\":6050:6055   */\n      dup3\n        /* \"#utility.yul\":6032:6056   */\n      tag_151\n      jump\t// in\n    tag_150:\n        /* \"#utility.yul\":6021:6056   */\n      swap1\n      pop\n        /* \"#utility.yul\":5966:6062   */\n      swap2\n      swap1\n      pop\n      jump\t// out\n        /* \"#utility.yul\":6068:6217   */\n    tag_98:\n        /* \"#utility.yul\":6104:6111   */\n      0x00\n        /* \"#utility.yul\":6144:6210   */\n      0xffffffff00000000000000000000000000000000000000000000000000000000\n        /* \"#utility.yul\":6137:6142   */\n      dup3\n        /* \"#utility.yul\":6133:6211   */\n      and\n        /* \"#utility.yul\":6122:6211   */\n      swap1\n      pop\n        /* \"#utility.yul\":6068:6217   */\n      swap2\n      swap1\n      pop\n      jump\t// out\n        /* \"#utility.yul\":6223:6349   */\n    tag_151:\n        /* \"#utility.yul\":6260:6267   */\n      0x00\n        /* \"#utility.yul\":6300:6342   */\n      0xffffffffffffffffffffffffffffffffffffffff\n        /* \"#utility.yul\":6293:6298   */\n      dup3\n        /* \"#utility.yul\":6289:6343   */\n      and\n        /* \"#utility.yul\":6278:6343   */\n      swap1\n      pop\n        /* \"#utility.yul\":6223:6349   */\n      swap2\n      swap1\n      pop\n      jump\t// out\n        /* \"#utility.yul\":6355:6432   */\n    tag_114:\n        /* \"#utility.yul\":6392:6399   */\n      0x00\n        /* \"#utility.yul\":6421:6426   */\n      dup2\n        /* \"#utility.yul\":6410:6426   */\n      swap1\n      pop\n        /* \"#utility.yul\":6355:6432   */\n      swap2\n      swap1\n      pop\n      jump\t// out\n        /* \"#utility.yul\":6438:6578   */\n    tag_102:\n        /* \"#utility.yul\":6502:6511   */\n      0x00\n        /* \"#utility.yul\":6535:6572   */\n      tag_156\n        /* \"#utility.yul\":6566:6571   */\n      dup3\n        /* \"#utility.yul\":6535:6572   */\n      tag_157\n      jump\t// in\n    tag_156:\n        /* \"#utility.yul\":6522:6572   */\n      swap1\n      pop\n        /* \"#utility.yul\":6438:6578   */\n      swap2\n      swap1\n      pop\n      jump\t// out\n        /* \"#utility.yul\":6584:6725   */\n    tag_106:\n        /* \"#utility.yul\":6649:6658   */\n      0x00\n        /* \"#utility.yul\":6682:6719   */\n      tag_159\n        /* \"#utility.yul\":6713:6718   */\n      dup3\n        /* \"#utility.yul\":6682:6719   */\n      tag_157\n      jump\t// in\n    tag_159:\n        /* \"#utility.yul\":6669:6719   */\n      swap1\n      pop\n        /* \"#utility.yul\":6584:6725   */\n      swap2\n      swap1\n      pop\n      jump\t// out\n        /* \"#utility.yul\":6731:6873   */\n    tag_110:\n        /* \"#utility.yul\":6797:6806   */\n      0x00\n        /* \"#utility.yul\":6830:6867   */\n      tag_161\n        /* \"#utility.yul\":6861:6866   */\n      dup3\n        /* \"#utility.yul\":6830:6867   */\n      tag_157\n      jump\t// in\n    tag_161:\n        /* \"#utility.yul\":6817:6867   */\n      swap1\n      pop\n        /* \"#utility.yul\":6731:6873   */\n      swap2\n      swap1\n      pop\n      jump\t// out\n        /* \"#utility.yul\":6879:7005   */\n    tag_157:\n        /* \"#utility.yul\":6929:6938   */\n      0x00\n        /* \"#utility.yul\":6962:6999   */\n      tag_163\n        /* \"#utility.yul\":6993:6998   */\n      dup3\n        /* \"#utility.yul\":6962:6999   */\n      tag_164\n      jump\t// in\n    tag_163:\n        /* \"#utility.yul\":6949:6999   */\n      swap1\n      pop\n        /* \"#utility.yul\":6879:7005   */\n      swap2\n      swap1\n      pop\n      jump\t// out\n        /* \"#utility.yul\":7011:7124   */\n    tag_164:\n        /* \"#utility.yul\":7061:7070   */\n      0x00\n        /* \"#utility.yul\":7094:7118   */\n      tag_166\n        /* \"#utility.yul\":7112:7117   */\n      dup3\n        /* \"#utility.yul\":7094:7118   */\n      tag_151\n      jump\t// in\n    tag_166:\n        /* \"#utility.yul\":7081:7118   */\n      swap1\n      pop\n        /* \"#utility.yul\":7011:7124   */\n      swap2\n      swap1\n      pop\n      jump\t// out\n        /* \"#utility.yul\":7130:7284   */\n    tag_61:\n        /* \"#utility.yul\":7214:7220   */\n      dup3\n        /* \"#utility.yul\":7209:7212   */\n      dup2\n        /* \"#utility.yul\":7204:7207   */\n      dup4\n        /* \"#utility.yul\":7191:7221   */\n      calldatacopy\n        /* \"#utility.yul\":7276:7277   */\n      0x00\n        /* \"#utility.yul\":7267:7273   */\n      dup4\n        /* \"#utility.yul\":7262:7265   */\n      dup4\n        /* \"#utility.yul\":7258:7274   */\n      add\n        /* \"#utility.yul\":7251:7278   */\n      mstore\n        /* \"#utility.yul\":7130:7284   */\n      pop\n      pop\n      pop\n      jump\t// out\n        /* \"#utility.yul\":7290:7571   */\n    tag_135:\n        /* \"#utility.yul\":7373:7400   */\n      tag_169\n        /* \"#utility.yul\":7395:7399   */\n      dup3\n        /* \"#utility.yul\":7373:7400   */\n      tag_142\n      jump\t// in\n    tag_169:\n        /* \"#utility.yul\":7365:7371   */\n      dup2\n        /* \"#utility.yul\":7361:7401   */\n      add\n        /* \"#utility.yul\":7503:7509   */\n      dup2\n        /* \"#utility.yul\":7491:7501   */\n      dup2\n        /* \"#utility.yul\":7488:7510   */\n      lt\n        /* \"#utility.yul\":7467:7485   */\n      0xffffffffffffffff\n        /* \"#utility.yul\":7455:7465   */\n      dup3\n        /* \"#utility.yul\":7452:7486   */\n      gt\n        /* \"#utility.yul\":7449:7511   */\n      or\n        /* \"#utility.yul\":7446:7534   */\n      iszero\n      tag_170\n      jumpi\n        /* \"#utility.yul\":7514:7532   */\n      tag_171\n      tag_140\n      jump\t// in\n    tag_171:\n        /* \"#utility.yul\":7446:7534   */\n    tag_170:\n        /* \"#utility.yul\":7554:7564   */\n      dup1\n        /* \"#utility.yul\":7550:7552   */\n      0x40\n        /* \"#utility.yul\":7543:7565   */\n      mstore\n        /* \"#utility.yul\":7333:7571   */\n      pop\n        /* \"#utility.yul\":7290:7571   */\n      pop\n      pop\n      jump\t// out\n        /* \"#utility.yul\":7577:7757   */\n    tag_148:\n        /* \"#utility.yul\":7625:7702   */\n      0x4e487b7100000000000000000000000000000000000000000000000000000000\n        /* \"#utility.yul\":7622:7623   */\n      0x00\n        /* \"#utility.yul\":7615:7703   */\n      mstore\n        /* \"#utility.yul\":7722:7726   */\n      0x11\n        /* \"#utility.yul\":7719:7720   */\n      0x04\n        /* \"#utility.yul\":7712:7727   */\n      mstore\n        /* \"#utility.yul\":7746:7750   */\n      0x24\n        /* \"#utility.yul\":7743:7744   */\n      0x00\n        /* \"#utility.yul\":7736:7751   */\n      revert\n        /* \"#utility.yul\":7763:7943   */\n    tag_140:\n        /* \"#utility.yul\":7811:7888   */\n      0x4e487b7100000000000000000000000000000000000000000000000000000000\n        /* \"#utility.yul\":7808:7809   */\n      0x00\n        /* \"#utility.yul\":7801:7889   */\n      mstore\n        /* \"#utility.yul\":7908:7912   */\n      0x41\n        /* \"#utility.yul\":7905:7906   */\n      0x04\n        /* \"#utility.yul\":7898:7913   */\n      mstore\n        /* \"#utility.yul\":7932:7936   */\n      0x24\n        /* \"#utility.yul\":7929:7930   */\n      0x00\n        /* \"#utility.yul\":7922:7937   */\n      revert\n        /* \"#utility.yul\":7949:8066   */\n    tag_70:\n        /* \"#utility.yul\":8058:8059   */\n      0x00\n        /* \"#utility.yul\":8055:8056   */\n      dup1\n        /* \"#utility.yul\":8048:8060   */\n      revert\n        /* \"#utility.yul\":8072:8189   */\n    tag_59:\n        /* \"#utility.yul\":8181:8182   */\n      0x00\n        /* \"#utility.yul\":8178:8179   */\n      dup1\n        /* \"#utility.yul\":8171:8183   */\n      revert\n        /* \"#utility.yul\":8195:8312   */\n    tag_85:\n        /* \"#utility.yul\":8304:8305   */\n      0x00\n        /* \"#utility.yul\":8301:8302   */\n      dup1\n        /* \"#utility.yul\":8294:8306   */\n      revert\n        /* \"#utility.yul\":8318:8435   */\n    tag_79:\n        /* \"#utility.yul\":8427:8428   */\n      0x00\n        /* \"#utility.yul\":8424:8425   */\n      dup1\n        /* \"#utility.yul\":8417:8429   */\n      revert\n        /* \"#utility.yul\":8441:8543   */\n    tag_142:\n        /* \"#utility.yul\":8482:8488   */\n      0x00\n        /* \"#utility.yul\":8533:8535   */\n      0x1f\n        /* \"#utility.yul\":8529:8536   */\n      not\n        /* \"#utility.yul\":8524:8526   */\n      0x1f\n        /* \"#utility.yul\":8517:8522   */\n      dup4\n        /* \"#utility.yul\":8513:8527   */\n      add\n        /* \"#utility.yul\":8509:8537   */\n      and\n        /* \"#utility.yul\":8499:8537   */\n      swap1\n      pop\n        /* \"#utility.yul\":8441:8543   */\n      swap2\n      swap1\n      pop\n      jump\t// out\n        /* \"#utility.yul\":8549:8671   */\n    tag_65:\n        /* \"#utility.yul\":8622:8646   */\n      tag_180\n        /* \"#utility.yul\":8640:8645   */\n      dup2\n        /* \"#utility.yul\":8622:8646   */\n      tag_94\n      jump\t// in\n    tag_180:\n        /* \"#utility.yul\":8615:8620   */\n      dup2\n        /* \"#utility.yul\":8612:8647   */\n      eq\n        /* \"#utility.yul\":8602:8665   */\n      tag_181\n      jumpi\n        /* \"#utility.yul\":8661:8662   */\n      0x00\n        /* \"#utility.yul\":8658:8659   */\n      dup1\n        /* \"#utility.yul\":8651:8663   */\n      revert\n        /* \"#utility.yul\":8602:8665   */\n    tag_181:\n        /* \"#utility.yul\":8549:8671   */\n      pop\n      jump\t// out\n        /* \"#utility.yul\":8677:8799   */\n    tag_75:\n        /* \"#utility.yul\":8750:8774   */\n      tag_183\n        /* \"#utility.yul\":8768:8773   */\n      dup2\n        /* \"#utility.yul\":8750:8774   */\n      tag_114\n      jump\t// in\n    tag_183:\n        /* \"#utility.yul\":8743:8748   */\n      dup2\n        /* \"#utility.yul\":8740:8775   */\n      eq\n        /* \"#utility.yul\":8730:8793   */\n      tag_184\n      jumpi\n        /* \"#utility.yul\":8789:8790   */\n      0x00\n        /* \"#utility.yul\":8786:8787   */\n      dup1\n        /* \"#utility.yul\":8779:8791   */\n      revert\n        /* \"#utility.yul\":8730:8793   */\n    tag_184:\n        /* \"#utility.yul\":8677:8799   */\n      pop\n      jump\t// out\n\n    auxdata: 0xa2646970667358221220e2e4427bc70f4cda84f21fdeeb4c5b32e54b201d2e2709049f8c89a734728ec264736f6c63430008070033\n}\n",
				"bytecode": {
					"linkReferences": {},
					"object": "608060405234801561001057600080fd5b50604051610a6c380380610a6c8339818101604052810190610032919061015a565b600160008190555081600260006101000a81548173ffffffffffffffffffffffffffffffffffffffff021916908373ffffffffffffffffffffffffffffffffffffffff16021790555081600360006101000a81548173ffffffffffffffffffffffffffffffffffffffff021916908373ffffffffffffffffffffffffffffffffffffffff16021790555080600160006101000a81548173ffffffffffffffffffffffffffffffffffffffff021916908373ffffffffffffffffffffffffffffffffffffffff16021790555081600460006101000a81548173ffffffffffffffffffffffffffffffffffffffff021916908373ffffffffffffffffffffffffffffffffffffffff16021790555050506101e8565b600081519050610154816101d1565b92915050565b60008060408385031215610171576101706101cc565b5b600061017f85828601610145565b925050602061019085828601610145565b9150509250929050565b60006101a5826101ac565b9050919050565b600073ffffffffffffffffffffffffffffffffffffffff82169050919050565b600080fd5b6101da8161019a565b81146101e557600080fd5b50565b610875806101f76000396000f3fe608060405234801561001057600080fd5b506004361061007d5760003560e01c806366bb863b1161005b57806366bb863b1461011457806380a5400114610132578063b8e33fb214610150578063fead3d6e1461016e5761007d565b8063150b7a02146100825780632e17de78146100b2578063472343b9146100e3575b600080fd5b61009c600480360381019061009791906103fd565b61018c565b6040516100a9919061054b565b60405180910390f35b6100cc60048036038101906100c79190610480565b61026f565b6040516100da9291906105b7565b60405180910390f35b6100fd60048036038101906100f89190610480565b610277565b60405161010b929190610522565b60405180910390f35b61011c6102cb565b6040516101299190610507565b60405180910390f35b61013a6102f1565b6040516101479190610566565b60405180910390f35b610158610317565b6040516101659190610581565b60405180910390f35b61017661033d565b604051610183919061059c565b60405180910390f35b6000600460009054906101000a900473ffffffffffffffffffffffffffffffffffffffff1673ffffffffffffffffffffffffffffffffffffffff168573ffffffffffffffffffffffffffffffffffffffff16141561025d57836005600085815260200190815260200160002060006101000a81548173ffffffffffffffffffffffffffffffffffffffff021916908373ffffffffffffffffffffffffffffffffffffffff16021790555062069780426102459190610636565b60066000858152602001908152602001600020819055505b63150b7a0260e01b9050949350505050565b600080915091565b6000806005600084815260200190815260200160002060009054906101000a900473ffffffffffffffffffffffffffffffffffffffff16600660008581526020019081526020016000205491509150915091565b600460009054906101000a900473ffffffffffffffffffffffffffffffffffffffff1681565b600160009054906101000a900473ffffffffffffffffffffffffffffffffffffffff1681565b600260009054906101000a900473ffffffffffffffffffffffffffffffffffffffff1681565b600360009054906101000a900473ffffffffffffffffffffffffffffffffffffffff1681565b600061037661037184610605565b6105e0565b905082815260208101848484011115610392576103916107f1565b5b61039d84828561074e565b509392505050565b6000813590506103b481610811565b92915050565b600082601f8301126103cf576103ce6107ec565b5b81356103df848260208601610363565b91505092915050565b6000813590506103f781610828565b92915050565b60008060008060808587031215610417576104166107fb565b5b6000610425878288016103a5565b9450506020610436878288016103a5565b9350506040610447878288016103e8565b925050606085013567ffffffffffffffff811115610468576104676107f6565b5b610474878288016103ba565b91505092959194509250565b600060208284031215610496576104956107fb565b5b60006104a4848285016103e8565b91505092915050565b6104b68161068c565b82525050565b6104c58161069e565b82525050565b6104d4816106f4565b82525050565b6104e381610706565b82525050565b6104f281610718565b82525050565b610501816106ea565b82525050565b600060208201905061051c60008301846104ad565b92915050565b600060408201905061053760008301856104ad565b61054460208301846104f8565b9392505050565b600060208201905061056060008301846104bc565b92915050565b600060208201905061057b60008301846104cb565b92915050565b600060208201905061059660008301846104da565b92915050565b60006020820190506105b160008301846104e9565b92915050565b60006040820190506105cc60008301856104f8565b6105d960208301846104f8565b9392505050565b60006105ea6105fb565b90506105f6828261075d565b919050565b6000604051905090565b600067ffffffffffffffff8211156106205761061f6107bd565b5b61062982610800565b9050602081019050919050565b6000610641826106ea565b915061064c836106ea565b9250827fffffffffffffffffffffffffffffffffffffffffffffffffffffffffffffffff038211156106815761068061078e565b5b828201905092915050565b6000610697826106ca565b9050919050565b60007fffffffff0000000000000000000000000000000000000000000000000000000082169050919050565b600073ffffffffffffffffffffffffffffffffffffffff82169050919050565b6000819050919050565b60006106ff8261072a565b9050919050565b60006107118261072a565b9050919050565b60006107238261072a565b9050919050565b60006107358261073c565b9050919050565b6000610747826106ca565b9050919050565b82818337600083830152505050565b61076682610800565b810181811067ffffffffffffffff82111715610785576107846107bd565b5b80604052505050565b7f4e487b7100000000000000000000000000000000000000000000000000000000600052601160045260246000fd5b7f4e487b7100000000000000000000000000000000000000000000000000000000600052604160045260246000fd5b600080fd5b600080fd5b600080fd5b600080fd5b6000601f19601f8301169050919050565b61081a8161068c565b811461082557600080fd5b50565b610831816106ea565b811461083c57600080fd5b5056fea2646970667358221220e2e4427bc70f4cda84f21fdeeb4c5b32e54b201d2e2709049f8c89a734728ec264736f6c63430008070033",
					"opcodes": "PUSH1 0x80 PUSH1 0x40 MSTORE CALLVALUE DUP1 ISZERO PUSH2 0x10 JUMPI PUSH1 0x0 DUP1 REVERT JUMPDEST POP PUSH1 0x40 MLOAD PUSH2 0xA6C CODESIZE SUB DUP1 PUSH2 0xA6C DUP4 CODECOPY DUP2 DUP2 ADD PUSH1 0x40 MSTORE DUP2 ADD SWAP1 PUSH2 0x32 SWAP2 SWAP1 PUSH2 0x15A JUMP JUMPDEST PUSH1 0x1 PUSH1 0x0 DUP2 SWAP1 SSTORE POP DUP2 PUSH1 0x2 PUSH1 0x0 PUSH2 0x100 EXP DUP2 SLOAD DUP2 PUSH20 0xFFFFFFFFFFFFFFFFFFFFFFFFFFFFFFFFFFFFFFFF MUL NOT AND SWAP1 DUP4 PUSH20 0xFFFFFFFFFFFFFFFFFFFFFFFFFFFFFFFFFFFFFFFF AND MUL OR SWAP1 SSTORE POP DUP2 PUSH1 0x3 PUSH1 0x0 PUSH2 0x100 EXP DUP2 SLOAD DUP2 PUSH20 0xFFFFFFFFFFFFFFFFFFFFFFFFFFFFFFFFFFFFFFFF MUL NOT AND SWAP1 DUP4 PUSH20 0xFFFFFFFFFFFFFFFFFFFFFFFFFFFFFFFFFFFFFFFF AND MUL OR SWAP1 SSTORE POP DUP1 PUSH1 0x1 PUSH1 0x0 PUSH2 0x100 EXP DUP2 SLOAD DUP2 PUSH20 0xFFFFFFFFFFFFFFFFFFFFFFFFFFFFFFFFFFFFFFFF MUL NOT AND SWAP1 DUP4 PUSH20 0xFFFFFFFFFFFFFFFFFFFFFFFFFFFFFFFFFFFFFFFF AND MUL OR SWAP1 SSTORE POP DUP2 PUSH1 0x4 PUSH1 0x0 PUSH2 0x100 EXP DUP2 SLOAD DUP2 PUSH20 0xFFFFFFFFFFFFFFFFFFFFFFFFFFFFFFFFFFFFFFFF MUL NOT AND SWAP1 DUP4 PUSH20 0xFFFFFFFFFFFFFFFFFFFFFFFFFFFFFFFFFFFFFFFF AND MUL OR SWAP1 SSTORE POP POP POP PUSH2 0x1E8 JUMP JUMPDEST PUSH1 0x0 DUP2 MLOAD SWAP1 POP PUSH2 0x154 DUP2 PUSH2 0x1D1 JUMP JUMPDEST SWAP3 SWAP2 POP POP JUMP JUMPDEST PUSH1 0x0 DUP1 PUSH1 0x40 DUP4 DUP6 SUB SLT ISZERO PUSH2 0x171 JUMPI PUSH2 0x170 PUSH2 0x1CC JUMP JUMPDEST JUMPDEST PUSH1 0x0 PUSH2 0x17F DUP6 DUP3 DUP7 ADD PUSH2 0x145 JUMP JUMPDEST SWAP3 POP POP PUSH1 0x20 PUSH2 0x190 DUP6 DUP3 DUP7 ADD PUSH2 0x145 JUMP JUMPDEST SWAP2 POP POP SWAP3 POP SWAP3 SWAP1 POP JUMP JUMPDEST PUSH1 0x0 PUSH2 0x1A5 DUP3 PUSH2 0x1AC JUMP JUMPDEST SWAP1 POP SWAP2 SWAP1 POP JUMP JUMPDEST PUSH1 0x0 PUSH20 0xFFFFFFFFFFFFFFFFFFFFFFFFFFFFFFFFFFFFFFFF DUP3 AND SWAP1 POP SWAP2 SWAP1 POP JUMP JUMPDEST PUSH1 0x0 DUP1 REVERT JUMPDEST PUSH2 0x1DA DUP2 PUSH2 0x19A JUMP JUMPDEST DUP2 EQ PUSH2 0x1E5 JUMPI PUSH1 0x0 DUP1 REVERT JUMPDEST POP JUMP JUMPDEST PUSH2 0x875 DUP1 PUSH2 0x1F7 PUSH1 0x0 CODECOPY PUSH1 0x0 RETURN INVALID PUSH1 0x80 PUSH1 0x40 MSTORE CALLVALUE DUP1 ISZERO PUSH2 0x10 JUMPI PUSH1 0x0 DUP1 REVERT JUMPDEST POP PUSH1 0x4 CALLDATASIZE LT PUSH2 0x7D JUMPI PUSH1 0x0 CALLDATALOAD PUSH1 0xE0 SHR DUP1 PUSH4 0x66BB863B GT PUSH2 0x5B JUMPI DUP1 PUSH4 0x66BB863B EQ PUSH2 0x114 JUMPI DUP1 PUSH4 0x80A54001 EQ PUSH2 0x132 JUMPI DUP1 PUSH4 0xB8E33FB2 EQ PUSH2 0x150 JUMPI DUP1 PUSH4 0xFEAD3D6E EQ PUSH2 0x16E JUMPI PUSH2 0x7D JUMP JUMPDEST DUP1 PUSH4 0x150B7A02 EQ PUSH2 0x82 JUMPI DUP1 PUSH4 0x2E17DE78 EQ PUSH2 0xB2 JUMPI DUP1 PUSH4 0x472343B9 EQ PUSH2 0xE3 JUMPI JUMPDEST PUSH1 0x0 DUP1 REVERT JUMPDEST PUSH2 0x9C PUSH1 0x4 DUP1 CALLDATASIZE SUB DUP2 ADD SWAP1 PUSH2 0x97 SWAP2 SWAP1 PUSH2 0x3FD JUMP JUMPDEST PUSH2 0x18C JUMP JUMPDEST PUSH1 0x40 MLOAD PUSH2 0xA9 SWAP2 SWAP1 PUSH2 0x54B JUMP JUMPDEST PUSH1 0x40 MLOAD DUP1 SWAP2 SUB SWAP1 RETURN JUMPDEST PUSH2 0xCC PUSH1 0x4 DUP1 CALLDATASIZE SUB DUP2 ADD SWAP1 PUSH2 0xC7 SWAP2 SWAP1 PUSH2 0x480 JUMP JUMPDEST PUSH2 0x26F JUMP JUMPDEST PUSH1 0x40 MLOAD PUSH2 0xDA SWAP3 SWAP2 SWAP1 PUSH2 0x5B7 JUMP JUMPDEST PUSH1 0x40 MLOAD DUP1 SWAP2 SUB SWAP1 RETURN JUMPDEST PUSH2 0xFD PUSH1 0x4 DUP1 CALLDATASIZE SUB DUP2 ADD SWAP1 PUSH2 0xF8 SWAP2 SWAP1 PUSH2 0x480 JUMP JUMPDEST PUSH2 0x277 JUMP JUMPDEST PUSH1 0x40 MLOAD PUSH2 0x10B SWAP3 SWAP2 SWAP1 PUSH2 0x522 JUMP JUMPDEST PUSH1 0x40 MLOAD DUP1 SWAP2 SUB SWAP1 RETURN JUMPDEST PUSH2 0x11C PUSH2 0x2CB JUMP JUMPDEST PUSH1 0x40 MLOAD PUSH2 0x129 SWAP2 SWAP1 PUSH2 0x507 JUMP JUMPDEST PUSH1 0x40 MLOAD DUP1 SWAP2 SUB SWAP1 RETURN JUMPDEST PUSH2 0x13A PUSH2 0x2F1 JUMP JUMPDEST PUSH1 0x40 MLOAD PUSH2 0x147 SWAP2 SWAP1 PUSH2 0x566 JUMP JUMPDEST PUSH1 0x40 MLOAD DUP1 SWAP2 SUB SWAP1 RETURN JUMPDEST PUSH2 0x158 PUSH2 0x317 JUMP JUMPDEST PUSH1 0x40 MLOAD PUSH2 0x165 SWAP2 SWAP1 PUSH2 0x581 JUMP JUMPDEST PUSH1 0x40 MLOAD DUP1 SWAP2 SUB SWAP1 RETURN JUMPDEST PUSH2 0x176 PUSH2 0x33D JUMP JUMPDEST PUSH1 0x40 MLOAD PUSH2 0x183 SWAP2 SWAP1 PUSH2 0x59C JUMP JUMPDEST PUSH1 0x40 MLOAD DUP1 SWAP2 SUB SWAP1 RETURN JUMPDEST PUSH1 0x0 PUSH1 0x4 PUSH1 0x0 SWAP1 SLOAD SWAP1 PUSH2 0x100 EXP SWAP1 DIV PUSH20 0xFFFFFFFFFFFFFFFFFFFFFFFFFFFFFFFFFFFFFFFF AND PUSH20 0xFFFFFFFFFFFFFFFFFFFFFFFFFFFFFFFFFFFFFFFF AND DUP6 PUSH20 0xFFFFFFFFFFFFFFFFFFFFFFFFFFFFFFFFFFFFFFFF AND EQ ISZERO PUSH2 0x25D JUMPI DUP4 PUSH1 0x5 PUSH1 0x0 DUP6 DUP2 MSTORE PUSH1 0x20 ADD SWAP1 DUP2 MSTORE PUSH1 0x20 ADD PUSH1 0x0 KECCAK256 PUSH1 0x0 PUSH2 0x100 EXP DUP2 SLOAD DUP2 PUSH20 0xFFFFFFFFFFFFFFFFFFFFFFFFFFFFFFFFFFFFFFFF MUL NOT AND SWAP1 DUP4 PUSH20 0xFFFFFFFFFFFFFFFFFFFFFFFFFFFFFFFFFFFFFFFF AND MUL OR SWAP1 SSTORE POP PUSH3 0x69780 TIMESTAMP PUSH2 0x245 SWAP2 SWAP1 PUSH2 0x636 JUMP JUMPDEST PUSH1 0x6 PUSH1 0x0 DUP6 DUP2 MSTORE PUSH1 0x20 ADD SWAP1 DUP2 MSTORE PUSH1 0x20 ADD PUSH1 0x0 KECCAK256 DUP2 SWAP1 SSTORE POP JUMPDEST PUSH4 0x150B7A02 PUSH1 0xE0 SHL SWAP1 POP SWAP5 SWAP4 POP POP POP POP JUMP JUMPDEST PUSH1 0x0 DUP1 SWAP2 POP SWAP2 JUMP JUMPDEST PUSH1 0x0 DUP1 PUSH1 0x5 PUSH1 0x0 DUP5 DUP2 MSTORE PUSH1 0x20 ADD SWAP1 DUP2 MSTORE PUSH1 0x20 ADD PUSH1 0x0 KECCAK256 PUSH1 0x0 SWAP1 SLOAD SWAP1 PUSH2 0x100 EXP SWAP1 DIV PUSH20 0xFFFFFFFFFFFFFFFFFFFFFFFFFFFFFFFFFFFFFFFF AND PUSH1 0x6 PUSH1 0x0 DUP6 DUP2 MSTORE PUSH1 0x20 ADD SWAP1 DUP2 MSTORE PUSH1 0x20 ADD PUSH1 0x0 KECCAK256 SLOAD SWAP2 POP SWAP2 POP SWAP2 POP SWAP2 JUMP JUMPDEST PUSH1 0x4 PUSH1 0x0 SWAP1 SLOAD SWAP1 PUSH2 0x100 EXP SWAP1 DIV PUSH20 0xFFFFFFFFFFFFFFFFFFFFFFFFFFFFFFFFFFFFFFFF AND DUP2 JUMP JUMPDEST PUSH1 0x1 PUSH1 0x0 SWAP1 SLOAD SWAP1 PUSH2 0x100 EXP SWAP1 DIV PUSH20 0xFFFFFFFFFFFFFFFFFFFFFFFFFFFFFFFFFFFFFFFF AND DUP2 JUMP JUMPDEST PUSH1 0x2 PUSH1 0x0 SWAP1 SLOAD SWAP1 PUSH2 0x100 EXP SWAP1 DIV PUSH20 0xFFFFFFFFFFFFFFFFFFFFFFFFFFFFFFFFFFFFFFFF AND DUP2 JUMP JUMPDEST PUSH1 0x3 PUSH1 0x0 SWAP1 SLOAD SWAP1 PUSH2 0x100 EXP SWAP1 DIV PUSH20 0xFFFFFFFFFFFFFFFFFFFFFFFFFFFFFFFFFFFFFFFF AND DUP2 JUMP JUMPDEST PUSH1 0x0 PUSH2 0x376 PUSH2 0x371 DUP5 PUSH2 0x605 JUMP JUMPDEST PUSH2 0x5E0 JUMP JUMPDEST SWAP1 POP DUP3 DUP2 MSTORE PUSH1 0x20 DUP2 ADD DUP5 DUP5 DUP5 ADD GT ISZERO PUSH2 0x392 JUMPI PUSH2 0x391 PUSH2 0x7F1 JUMP JUMPDEST JUMPDEST PUSH2 0x39D DUP5 DUP3 DUP6 PUSH2 0x74E JUMP JUMPDEST POP SWAP4 SWAP3 POP POP POP JUMP JUMPDEST PUSH1 0x0 DUP2 CALLDATALOAD SWAP1 POP PUSH2 0x3B4 DUP2 PUSH2 0x811 JUMP JUMPDEST SWAP3 SWAP2 POP POP JUMP JUMPDEST PUSH1 0x0 DUP3 PUSH1 0x1F DUP4 ADD SLT PUSH2 0x3CF JUMPI PUSH2 0x3CE PUSH2 0x7EC JUMP JUMPDEST JUMPDEST DUP2 CALLDATALOAD PUSH2 0x3DF DUP5 DUP3 PUSH1 0x20 DUP7 ADD PUSH2 0x363 JUMP JUMPDEST SWAP2 POP POP SWAP3 SWAP2 POP POP JUMP JUMPDEST PUSH1 0x0 DUP2 CALLDATALOAD SWAP1 POP PUSH2 0x3F7 DUP2 PUSH2 0x828 JUMP JUMPDEST SWAP3 SWAP2 POP POP JUMP JUMPDEST PUSH1 0x0 DUP1 PUSH1 0x0 DUP1 PUSH1 0x80 DUP6 DUP8 SUB SLT ISZERO PUSH2 0x417 JUMPI PUSH2 0x416 PUSH2 0x7FB JUMP JUMPDEST JUMPDEST PUSH1 0x0 PUSH2 0x425 DUP8 DUP3 DUP9 ADD PUSH2 0x3A5 JUMP JUMPDEST SWAP5 POP POP PUSH1 0x20 PUSH2 0x436 DUP8 DUP3 DUP9 ADD PUSH2 0x3A5 JUMP JUMPDEST SWAP4 POP POP PUSH1 0x40 PUSH2 0x447 DUP8 DUP3 DUP9 ADD PUSH2 0x3E8 JUMP JUMPDEST SWAP3 POP POP PUSH1 0x60 DUP6 ADD CALLDATALOAD PUSH8 0xFFFFFFFFFFFFFFFF DUP2 GT ISZERO PUSH2 0x468 JUMPI PUSH2 0x467 PUSH2 0x7F6 JUMP JUMPDEST JUMPDEST PUSH2 0x474 DUP8 DUP3 DUP9 ADD PUSH2 0x3BA JUMP JUMPDEST SWAP2 POP POP SWAP3 SWAP6 SWAP2 SWAP5 POP SWAP3 POP JUMP JUMPDEST PUSH1 0x0 PUSH1 0x20 DUP3 DUP5 SUB SLT ISZERO PUSH2 0x496 JUMPI PUSH2 0x495 PUSH2 0x7FB JUMP JUMPDEST JUMPDEST PUSH1 0x0 PUSH2 0x4A4 DUP5 DUP3 DUP6 ADD PUSH2 0x3E8 JUMP JUMPDEST SWAP2 POP POP SWAP3 SWAP2 POP POP JUMP JUMPDEST PUSH2 0x4B6 DUP2 PUSH2 0x68C JUMP JUMPDEST DUP3 MSTORE POP POP JUMP JUMPDEST PUSH2 0x4C5 DUP2 PUSH2 0x69E JUMP JUMPDEST DUP3 MSTORE POP POP JUMP JUMPDEST PUSH2 0x4D4 DUP2 PUSH2 0x6F4 JUMP JUMPDEST DUP3 MSTORE POP POP JUMP JUMPDEST PUSH2 0x4E3 DUP2 PUSH2 0x706 JUMP JUMPDEST DUP3 MSTORE POP POP JUMP JUMPDEST PUSH2 0x4F2 DUP2 PUSH2 0x718 JUMP JUMPDEST DUP3 MSTORE POP POP JUMP JUMPDEST PUSH2 0x501 DUP2 PUSH2 0x6EA JUMP JUMPDEST DUP3 MSTORE POP POP JUMP JUMPDEST PUSH1 0x0 PUSH1 0x20 DUP3 ADD SWAP1 POP PUSH2 0x51C PUSH1 0x0 DUP4 ADD DUP5 PUSH2 0x4AD JUMP JUMPDEST SWAP3 SWAP2 POP POP JUMP JUMPDEST PUSH1 0x0 PUSH1 0x40 DUP3 ADD SWAP1 POP PUSH2 0x537 PUSH1 0x0 DUP4 ADD DUP6 PUSH2 0x4AD JUMP JUMPDEST PUSH2 0x544 PUSH1 0x20 DUP4 ADD DUP5 PUSH2 0x4F8 JUMP JUMPDEST SWAP4 SWAP3 POP POP POP JUMP JUMPDEST PUSH1 0x0 PUSH1 0x20 DUP3 ADD SWAP1 POP PUSH2 0x560 PUSH1 0x0 DUP4 ADD DUP5 PUSH2 0x4BC JUMP JUMPDEST SWAP3 SWAP2 POP POP JUMP JUMPDEST PUSH1 0x0 PUSH1 0x20 DUP3 ADD SWAP1 POP PUSH2 0x57B PUSH1 0x0 DUP4 ADD DUP5 PUSH2 0x4CB JUMP JUMPDEST SWAP3 SWAP2 POP POP JUMP JUMPDEST PUSH1 0x0 PUSH1 0x20 DUP3 ADD SWAP1 POP PUSH2 0x596 PUSH1 0x0 DUP4 ADD DUP5 PUSH2 0x4DA JUMP JUMPDEST SWAP3 SWAP2 POP POP JUMP JUMPDEST PUSH1 0x0 PUSH1 0x20 DUP3 ADD SWAP1 POP PUSH2 0x5B1 PUSH1 0x0 DUP4 ADD DUP5 PUSH2 0x4E9 JUMP JUMPDEST SWAP3 SWAP2 POP POP JUMP JUMPDEST PUSH1 0x0 PUSH1 0x40 DUP3 ADD SWAP1 POP PUSH2 0x5CC PUSH1 0x0 DUP4 ADD DUP6 PUSH2 0x4F8 JUMP JUMPDEST PUSH2 0x5D9 PUSH1 0x20 DUP4 ADD DUP5 PUSH2 0x4F8 JUMP JUMPDEST SWAP4 SWAP3 POP POP POP JUMP JUMPDEST PUSH1 0x0 PUSH2 0x5EA PUSH2 0x5FB JUMP JUMPDEST SWAP1 POP PUSH2 0x5F6 DUP3 DUP3 PUSH2 0x75D JUMP JUMPDEST SWAP2 SWAP1 POP JUMP JUMPDEST PUSH1 0x0 PUSH1 0x40 MLOAD SWAP1 POP SWAP1 JUMP JUMPDEST PUSH1 0x0 PUSH8 0xFFFFFFFFFFFFFFFF DUP3 GT ISZERO PUSH2 0x620 JUMPI PUSH2 0x61F PUSH2 0x7BD JUMP JUMPDEST JUMPDEST PUSH2 0x629 DUP3 PUSH2 0x800 JUMP JUMPDEST SWAP1 POP PUSH1 0x20 DUP2 ADD SWAP1 POP SWAP2 SWAP1 POP JUMP JUMPDEST PUSH1 0x0 PUSH2 0x641 DUP3 PUSH2 0x6EA JUMP JUMPDEST SWAP2 POP PUSH2 0x64C DUP4 PUSH2 0x6EA JUMP JUMPDEST SWAP3 POP DUP3 PUSH32 0xFFFFFFFFFFFFFFFFFFFFFFFFFFFFFFFFFFFFFFFFFFFFFFFFFFFFFFFFFFFFFFFF SUB DUP3 GT ISZERO PUSH2 0x681 JUMPI PUSH2 0x680 PUSH2 0x78E JUMP JUMPDEST JUMPDEST DUP3 DUP3 ADD SWAP1 POP SWAP3 SWAP2 POP POP JUMP JUMPDEST PUSH1 0x0 PUSH2 0x697 DUP3 PUSH2 0x6CA JUMP JUMPDEST SWAP1 POP SWAP2 SWAP1 POP JUMP JUMPDEST PUSH1 0x0 PUSH32 0xFFFFFFFF00000000000000000000000000000000000000000000000000000000 DUP3 AND SWAP1 POP SWAP2 SWAP1 POP JUMP JUMPDEST PUSH1 0x0 PUSH20 0xFFFFFFFFFFFFFFFFFFFFFFFFFFFFFFFFFFFFFFFF DUP3 AND SWAP1 POP SWAP2 SWAP1 POP JUMP JUMPDEST PUSH1 0x0 DUP2 SWAP1 POP SWAP2 SWAP1 POP JUMP JUMPDEST PUSH1 0x0 PUSH2 0x6FF DUP3 PUSH2 0x72A JUMP JUMPDEST SWAP1 POP SWAP2 SWAP1 POP JUMP JUMPDEST PUSH1 0x0 PUSH2 0x711 DUP3 PUSH2 0x72A JUMP JUMPDEST SWAP1 POP SWAP2 SWAP1 POP JUMP JUMPDEST PUSH1 0x0 PUSH2 0x723 DUP3 PUSH2 0x72A JUMP JUMPDEST SWAP1 POP SWAP2 SWAP1 POP JUMP JUMPDEST PUSH1 0x0 PUSH2 0x735 DUP3 PUSH2 0x73C JUMP JUMPDEST SWAP1 POP SWAP2 SWAP1 POP JUMP JUMPDEST PUSH1 0x0 PUSH2 0x747 DUP3 PUSH2 0x6CA JUMP JUMPDEST SWAP1 POP SWAP2 SWAP1 POP JUMP JUMPDEST DUP3 DUP2 DUP4 CALLDATACOPY PUSH1 0x0 DUP4 DUP4 ADD MSTORE POP POP POP JUMP JUMPDEST PUSH2 0x766 DUP3 PUSH2 0x800 JUMP JUMPDEST DUP2 ADD DUP2 DUP2 LT PUSH8 0xFFFFFFFFFFFFFFFF DUP3 GT OR ISZERO PUSH2 0x785 JUMPI PUSH2 0x784 PUSH2 0x7BD JUMP JUMPDEST JUMPDEST DUP1 PUSH1 0x40 MSTORE POP POP POP JUMP JUMPDEST PUSH32 0x4E487B7100000000000000000000000000000000000000000000000000000000 PUSH1 0x0 MSTORE PUSH1 0x11 PUSH1 0x4 MSTORE PUSH1 0x24 PUSH1 0x0 REVERT JUMPDEST PUSH32 0x4E487B7100000000000000000000000000000000000000000000000000000000 PUSH1 0x0 MSTORE PUSH1 0x41 PUSH1 0x4 MSTORE PUSH1 0x24 PUSH1 0x0 REVERT JUMPDEST PUSH1 0x0 DUP1 REVERT JUMPDEST PUSH1 0x0 DUP1 REVERT JUMPDEST PUSH1 0x0 DUP1 REVERT JUMPDEST PUSH1 0x0 DUP1 REVERT JUMPDEST PUSH1 0x0 PUSH1 0x1F NOT PUSH1 0x1F DUP4 ADD AND SWAP1 POP SWAP2 SWAP1 POP JUMP JUMPDEST PUSH2 0x81A DUP2 PUSH2 0x68C JUMP JUMPDEST DUP2 EQ PUSH2 0x825 JUMPI PUSH1 0x0 DUP1 REVERT JUMPDEST POP JUMP JUMPDEST PUSH2 0x831 DUP2 PUSH2 0x6EA JUMP JUMPDEST DUP2 EQ PUSH2 0x83C JUMPI PUSH1 0x0 DUP1 REVERT JUMPDEST POP JUMP INVALID LOG2 PUSH5 0x6970667358 0x22 SLT KECCAK256 0xE2 0xE4 TIMESTAMP PUSH28 0xC70F4CDA84F21FDEEB4C5B32E54B201D2E2709049F8C89A734728EC2 PUSH5 0x736F6C6343 STOP ADDMOD SMOD STOP CALLER "
				},
				"gasEstimates": {
					"creation": {
						"codeDepositCost": "433000",
						"executionCost": "infinite",
						"totalCost": "infinite"
					},
					"external": {
						"getStakes(uint256)": "infinite",
						"onERC721Received(address,address,uint256,bytes)": "infinite",
						"parentNFT()": "2644",
						"parentNFTAddress()": "2514",
						"parentNftFunctions()": "2666",
						"parentToken()": "2622",
						"unstake(uint256)": "infinite"
					}
				},
				"methodIdentifiers": {
					"getStakes(uint256)": "472343b9",
					"onERC721Received(address,address,uint256,bytes)": "150b7a02",
					"parentNFT()": "b8e33fb2",
					"parentNFTAddress()": "66bb863b",
					"parentNftFunctions()": "fead3d6e",
					"parentToken()": "80a54001",
					"unstake(uint256)": "2e17de78"
				}
			},
			"storageLayout": {
				"storage": [
					{
						"astId": 10,
						"contract": "contracts/Missions.sol:Staking",
						"label": "_status",
						"offset": 0,
						"slot": "0",
						"type": "t_uint256"
					},
					{
						"astId": 263,
						"contract": "contracts/Missions.sol:Staking",
						"label": "parentToken",
						"offset": 0,
						"slot": "1",
						"type": "t_contract(IERC20)117"
					},
					{
						"astId": 266,
						"contract": "contracts/Missions.sol:Staking",
						"label": "parentNFT",
						"offset": 0,
						"slot": "2",
						"type": "t_contract(IERC721)233"
					},
					{
						"astId": 269,
						"contract": "contracts/Missions.sol:Staking",
						"label": "parentNftFunctions",
						"offset": 0,
						"slot": "3",
						"type": "t_contract(INFTGame)258"
					},
					{
						"astId": 271,
						"contract": "contracts/Missions.sol:Staking",
						"label": "parentNFTAddress",
						"offset": 0,
						"slot": "4",
						"type": "t_address"
					},
					{
						"astId": 305,
						"contract": "contracts/Missions.sol:Staking",
						"label": "s_stakers",
						"offset": 0,
						"slot": "5",
						"type": "t_mapping(t_uint256,t_address)"
					},
					{
						"astId": 309,
						"contract": "contracts/Missions.sol:Staking",
						"label": "s_missionTimers",
						"offset": 0,
						"slot": "6",
						"type": "t_mapping(t_uint256,t_uint256)"
					}
				],
				"types": {
					"t_address": {
						"encoding": "inplace",
						"label": "address",
						"numberOfBytes": "20"
					},
					"t_contract(IERC20)117": {
						"encoding": "inplace",
						"label": "contract IERC20",
						"numberOfBytes": "20"
					},
					"t_contract(IERC721)233": {
						"encoding": "inplace",
						"label": "contract IERC721",
						"numberOfBytes": "20"
					},
					"t_contract(INFTGame)258": {
						"encoding": "inplace",
						"label": "contract INFTGame",
						"numberOfBytes": "20"
					},
					"t_mapping(t_uint256,t_address)": {
						"encoding": "mapping",
						"key": "t_uint256",
						"label": "mapping(uint256 => address)",
						"numberOfBytes": "32",
						"value": "t_address"
					},
					"t_mapping(t_uint256,t_uint256)": {
						"encoding": "mapping",
						"key": "t_uint256",
						"label": "mapping(uint256 => uint256)",
						"numberOfBytes": "32",
						"value": "t_uint256"
					},
					"t_uint256": {
						"encoding": "inplace",
						"label": "uint256",
						"numberOfBytes": "32"
					}
				}
			},
			"userdoc": {
				"kind": "user",
				"methods": {},
				"version": 1
			}
		}
	}
}