{
	"contracts/Missions.sol": {
		"Staking": {
			"abi": [
				{
					"inputs": [
						{
							"internalType": "address",
							"name": "_nftContract",
							"type": "address"
						},
						{
							"internalType": "address",
							"name": "_tokenContract",
							"type": "address"
						}
					],
					"stateMutability": "nonpayable",
					"type": "constructor"
				},
				{
					"inputs": [],
					"name": "parentNFT",
					"outputs": [
						{
							"internalType": "contract IERC721",
							"name": "",
							"type": "address"
						}
					],
					"stateMutability": "view",
					"type": "function"
				},
				{
					"inputs": [],
					"name": "parentNFTAddress",
					"outputs": [
						{
							"internalType": "address",
							"name": "",
							"type": "address"
						}
					],
					"stateMutability": "view",
					"type": "function"
				},
				{
					"inputs": [],
					"name": "parentNftFunctions",
					"outputs": [
						{
							"internalType": "contract INFTGame",
							"name": "",
							"type": "address"
						}
					],
					"stateMutability": "view",
					"type": "function"
				},
				{
					"inputs": [],
					"name": "parentToken",
					"outputs": [
						{
							"internalType": "contract IERC20",
							"name": "",
							"type": "address"
						}
					],
					"stateMutability": "view",
					"type": "function"
				},
				{
					"inputs": [
						{
							"internalType": "uint256",
							"name": "_tokenID",
							"type": "uint256"
						}
					],
					"name": "stake",
					"outputs": [],
					"stateMutability": "nonpayable",
					"type": "function"
				}
			],
			"devdoc": {
				"kind": "dev",
				"methods": {},
				"version": 1
			},
			"evm": {
				"assembly": "    /* \"contracts/Missions.sol\":341:1050  contract Staking is ReentrancyGuard {\r... */\n  mstore(0x40, 0x80)\n    /* \"contracts/Missions.sol\":526:788  constructor(address _nftContract, address _tokenContract){\r... */\n  callvalue\n  dup1\n  iszero\n  tag_1\n  jumpi\n  0x00\n  dup1\n  revert\ntag_1:\n  pop\n  mload(0x40)\n  sub(codesize, bytecodeSize)\n  dup1\n  bytecodeSize\n  dup4\n  codecopy\n  dup2\n  dup2\n  add\n  0x40\n  mstore\n  dup2\n  add\n  swap1\n  tag_2\n  swap2\n  swap1\n  tag_3\n  jump\t// in\ntag_2:\n    /* \"@openzeppelin/contracts/security/ReentrancyGuard.sol\":1701:1702  1 */\n  0x01\n    /* \"@openzeppelin/contracts/security/ReentrancyGuard.sol\":1806:1813  _status */\n  0x00\n    /* \"@openzeppelin/contracts/security/ReentrancyGuard.sol\":1806:1828  _status = _NOT_ENTERED */\n  dup2\n  swap1\n  sstore\n  pop\n    /* \"contracts/Missions.sol\":614:626  _nftContract */\n  dup2\n    /* \"contracts/Missions.sol\":594:603  parentNFT */\n  0x02\n  0x00\n    /* \"contracts/Missions.sol\":594:627  parentNFT = IERC721(_nftContract) */\n  0x0100\n  exp\n  dup2\n  sload\n  dup2\n  0xffffffffffffffffffffffffffffffffffffffff\n  mul\n  not\n  and\n  swap1\n  dup4\n  0xffffffffffffffffffffffffffffffffffffffff\n  and\n  mul\n  or\n  swap1\n  sstore\n  pop\n    /* \"contracts/Missions.sol\":668:680  _nftContract */\n  dup2\n    /* \"contracts/Missions.sol\":638:656  parentNftFunctions */\n  0x03\n  0x00\n    /* \"contracts/Missions.sol\":638:681  parentNftFunctions = INFTGame(_nftContract) */\n  0x0100\n  exp\n  dup2\n  sload\n  dup2\n  0xffffffffffffffffffffffffffffffffffffffff\n  mul\n  not\n  and\n  swap1\n  dup4\n  0xffffffffffffffffffffffffffffffffffffffff\n  and\n  mul\n  or\n  swap1\n  sstore\n  pop\n    /* \"contracts/Missions.sol\":713:727  _tokenContract */\n  dup1\n    /* \"contracts/Missions.sol\":692:703  parentToken */\n  0x01\n  0x00\n    /* \"contracts/Missions.sol\":692:728  parentToken = IERC20(_tokenContract) */\n  0x0100\n  exp\n  dup2\n  sload\n  dup2\n  0xffffffffffffffffffffffffffffffffffffffff\n  mul\n  not\n  and\n  swap1\n  dup4\n  0xffffffffffffffffffffffffffffffffffffffff\n  and\n  mul\n  or\n  swap1\n  sstore\n  pop\n    /* \"contracts/Missions.sol\":758:770  _nftContract */\n  dup2\n    /* \"contracts/Missions.sol\":739:755  parentNFTAddress */\n  0x04\n  0x00\n    /* \"contracts/Missions.sol\":739:770  parentNFTAddress = _nftContract */\n  0x0100\n  exp\n  dup2\n  sload\n  dup2\n  0xffffffffffffffffffffffffffffffffffffffff\n  mul\n  not\n  and\n  swap1\n  dup4\n  0xffffffffffffffffffffffffffffffffffffffff\n  and\n  mul\n  or\n  swap1\n  sstore\n  pop\n    /* \"contracts/Missions.sol\":526:788  constructor(address _nftContract, address _tokenContract){\r... */\n  pop\n  pop\n    /* \"contracts/Missions.sol\":341:1050  contract Staking is ReentrancyGuard {\r... */\n  jump(tag_8)\n    /* \"#utility.yul\":7:150   */\ntag_10:\n    /* \"#utility.yul\":64:69   */\n  0x00\n    /* \"#utility.yul\":95:101   */\n  dup2\n    /* \"#utility.yul\":89:102   */\n  mload\n    /* \"#utility.yul\":80:102   */\n  swap1\n  pop\n    /* \"#utility.yul\":111:144   */\n  tag_12\n    /* \"#utility.yul\":138:143   */\n  dup2\n    /* \"#utility.yul\":111:144   */\n  tag_13\n  jump\t// in\ntag_12:\n    /* \"#utility.yul\":7:150   */\n  swap3\n  swap2\n  pop\n  pop\n  jump\t// out\n    /* \"#utility.yul\":156:663   */\ntag_3:\n    /* \"#utility.yul\":235:241   */\n  0x00\n    /* \"#utility.yul\":243:249   */\n  dup1\n    /* \"#utility.yul\":292:294   */\n  0x40\n    /* \"#utility.yul\":280:289   */\n  dup4\n    /* \"#utility.yul\":271:278   */\n  dup6\n    /* \"#utility.yul\":267:290   */\n  sub\n    /* \"#utility.yul\":263:295   */\n  slt\n    /* \"#utility.yul\":260:379   */\n  iszero\n  tag_15\n  jumpi\n    /* \"#utility.yul\":298:377   */\n  tag_16\n  tag_17\n  jump\t// in\ntag_16:\n    /* \"#utility.yul\":260:379   */\ntag_15:\n    /* \"#utility.yul\":418:419   */\n  0x00\n    /* \"#utility.yul\":443:507   */\n  tag_18\n    /* \"#utility.yul\":499:506   */\n  dup6\n    /* \"#utility.yul\":490:496   */\n  dup3\n    /* \"#utility.yul\":479:488   */\n  dup7\n    /* \"#utility.yul\":475:497   */\n  add\n    /* \"#utility.yul\":443:507   */\n  tag_10\n  jump\t// in\ntag_18:\n    /* \"#utility.yul\":433:507   */\n  swap3\n  pop\n    /* \"#utility.yul\":389:517   */\n  pop\n    /* \"#utility.yul\":556:558   */\n  0x20\n    /* \"#utility.yul\":582:646   */\n  tag_19\n    /* \"#utility.yul\":638:645   */\n  dup6\n    /* \"#utility.yul\":629:635   */\n  dup3\n    /* \"#utility.yul\":618:627   */\n  dup7\n    /* \"#utility.yul\":614:636   */\n  add\n    /* \"#utility.yul\":582:646   */\n  tag_10\n  jump\t// in\ntag_19:\n    /* \"#utility.yul\":572:646   */\n  swap2\n  pop\n    /* \"#utility.yul\":527:656   */\n  pop\n    /* \"#utility.yul\":156:663   */\n  swap3\n  pop\n  swap3\n  swap1\n  pop\n  jump\t// out\n    /* \"#utility.yul\":750:846   */\ntag_22:\n    /* \"#utility.yul\":787:794   */\n  0x00\n    /* \"#utility.yul\":816:840   */\n  tag_24\n    /* \"#utility.yul\":834:839   */\n  dup3\n    /* \"#utility.yul\":816:840   */\n  tag_25\n  jump\t// in\ntag_24:\n    /* \"#utility.yul\":805:840   */\n  swap1\n  pop\n    /* \"#utility.yul\":750:846   */\n  swap2\n  swap1\n  pop\n  jump\t// out\n    /* \"#utility.yul\":852:978   */\ntag_25:\n    /* \"#utility.yul\":889:896   */\n  0x00\n    /* \"#utility.yul\":929:971   */\n  0xffffffffffffffffffffffffffffffffffffffff\n    /* \"#utility.yul\":922:927   */\n  dup3\n    /* \"#utility.yul\":918:972   */\n  and\n    /* \"#utility.yul\":907:972   */\n  swap1\n  pop\n    /* \"#utility.yul\":852:978   */\n  swap2\n  swap1\n  pop\n  jump\t// out\n    /* \"#utility.yul\":1107:1224   */\ntag_17:\n    /* \"#utility.yul\":1216:1217   */\n  0x00\n    /* \"#utility.yul\":1213:1214   */\n  dup1\n    /* \"#utility.yul\":1206:1218   */\n  revert\n    /* \"#utility.yul\":1230:1352   */\ntag_13:\n    /* \"#utility.yul\":1303:1327   */\n  tag_31\n    /* \"#utility.yul\":1321:1326   */\n  dup2\n    /* \"#utility.yul\":1303:1327   */\n  tag_22\n  jump\t// in\ntag_31:\n    /* \"#utility.yul\":1296:1301   */\n  dup2\n    /* \"#utility.yul\":1293:1328   */\n  eq\n    /* \"#utility.yul\":1283:1346   */\n  tag_32\n  jumpi\n    /* \"#utility.yul\":1342:1343   */\n  0x00\n    /* \"#utility.yul\":1339:1340   */\n  dup1\n    /* \"#utility.yul\":1332:1344   */\n  revert\n    /* \"#utility.yul\":1283:1346   */\ntag_32:\n    /* \"#utility.yul\":1230:1352   */\n  pop\n  jump\t// out\n    /* \"contracts/Missions.sol\":341:1050  contract Staking is ReentrancyGuard {\r... */\ntag_8:\n  dataSize(sub_0)\n  dup1\n  dataOffset(sub_0)\n  0x00\n  codecopy\n  0x00\n  return\nstop\n\nsub_0: assembly {\n        /* \"contracts/Missions.sol\":341:1050  contract Staking is ReentrancyGuard {\r... */\n      mstore(0x40, 0x80)\n      callvalue\n      dup1\n      iszero\n      tag_1\n      jumpi\n      0x00\n      dup1\n      revert\n    tag_1:\n      pop\n      jumpi(tag_2, lt(calldatasize, 0x04))\n      shr(0xe0, calldataload(0x00))\n      dup1\n      0x66bb863b\n      eq\n      tag_3\n      jumpi\n      dup1\n      0x80a54001\n      eq\n      tag_4\n      jumpi\n      dup1\n      0xa694fc3a\n      eq\n      tag_5\n      jumpi\n      dup1\n      0xb8e33fb2\n      eq\n      tag_6\n      jumpi\n      dup1\n      0xfead3d6e\n      eq\n      tag_7\n      jumpi\n    tag_2:\n      0x00\n      dup1\n      revert\n        /* \"contracts/Missions.sol\":488:519  address public parentNFTAddress */\n    tag_3:\n      tag_8\n      tag_9\n      jump\t// in\n    tag_8:\n      mload(0x40)\n      tag_10\n      swap2\n      swap1\n      tag_11\n      jump\t// in\n    tag_10:\n      mload(0x40)\n      dup1\n      swap2\n      sub\n      swap1\n      return\n        /* \"contracts/Missions.sol\":384:409  IERC20 public parentToken */\n    tag_4:\n      tag_12\n      tag_13\n      jump\t// in\n    tag_12:\n      mload(0x40)\n      tag_14\n      swap2\n      swap1\n      tag_15\n      jump\t// in\n    tag_14:\n      mload(0x40)\n      dup1\n      swap2\n      sub\n      swap1\n      return\n        /* \"contracts/Missions.sol\":796:998  function stake(uint256 _tokenID) public nonReentrant() {\r... */\n    tag_5:\n      tag_16\n      0x04\n      dup1\n      calldatasize\n      sub\n      dup2\n      add\n      swap1\n      tag_17\n      swap2\n      swap1\n      tag_18\n      jump\t// in\n    tag_17:\n      tag_19\n      jump\t// in\n    tag_16:\n      stop\n        /* \"contracts/Missions.sol\":416:440  IERC721 public parentNFT */\n    tag_6:\n      tag_20\n      tag_21\n      jump\t// in\n    tag_20:\n      mload(0x40)\n      tag_22\n      swap2\n      swap1\n      tag_23\n      jump\t// in\n    tag_22:\n      mload(0x40)\n      dup1\n      swap2\n      sub\n      swap1\n      return\n        /* \"contracts/Missions.sol\":447:481  INFTGame public parentNftFunctions */\n    tag_7:\n      tag_24\n      tag_25\n      jump\t// in\n    tag_24:\n      mload(0x40)\n      tag_26\n      swap2\n      swap1\n      tag_27\n      jump\t// in\n    tag_26:\n      mload(0x40)\n      dup1\n      swap2\n      sub\n      swap1\n      return\n        /* \"contracts/Missions.sol\":488:519  address public parentNFTAddress */\n    tag_9:\n      0x04\n      0x00\n      swap1\n      sload\n      swap1\n      0x0100\n      exp\n      swap1\n      div\n      0xffffffffffffffffffffffffffffffffffffffff\n      and\n      dup2\n      jump\t// out\n        /* \"contracts/Missions.sol\":384:409  IERC20 public parentToken */\n    tag_13:\n      0x01\n      0x00\n      swap1\n      sload\n      swap1\n      0x0100\n      exp\n      swap1\n      div\n      0xffffffffffffffffffffffffffffffffffffffff\n      and\n      dup2\n      jump\t// out\n        /* \"contracts/Missions.sol\":796:998  function stake(uint256 _tokenID) public nonReentrant() {\r... */\n    tag_19:\n        /* \"@openzeppelin/contracts/security/ReentrancyGuard.sol\":1744:1745  2 */\n      0x02\n        /* \"@openzeppelin/contracts/security/ReentrancyGuard.sol\":2325:2332  _status */\n      sload(0x00)\n        /* \"@openzeppelin/contracts/security/ReentrancyGuard.sol\":2325:2344  _status != _ENTERED */\n      eq\n      iszero\n        /* \"@openzeppelin/contracts/security/ReentrancyGuard.sol\":2317:2380  require(_status != _ENTERED, \"ReentrancyGuard: reentrant call\") */\n      tag_29\n      jumpi\n      mload(0x40)\n      0x08c379a000000000000000000000000000000000000000000000000000000000\n      dup2\n      mstore\n      0x04\n      add\n      tag_30\n      swap1\n      tag_31\n      jump\t// in\n    tag_30:\n      mload(0x40)\n      dup1\n      swap2\n      sub\n      swap1\n      revert\n    tag_29:\n        /* \"@openzeppelin/contracts/security/ReentrancyGuard.sol\":1744:1745  2 */\n      0x02\n        /* \"@openzeppelin/contracts/security/ReentrancyGuard.sol\":2455:2462  _status */\n      0x00\n        /* \"@openzeppelin/contracts/security/ReentrancyGuard.sol\":2455:2473  _status = _ENTERED */\n      dup2\n      swap1\n      sstore\n      pop\n        /* \"contracts/Missions.sol\":901:911  msg.sender */\n      caller\n        /* \"contracts/Missions.sol\":870:911  parentNFT.ownerOf(_tokenID) == msg.sender */\n      0xffffffffffffffffffffffffffffffffffffffff\n      and\n        /* \"contracts/Missions.sol\":870:879  parentNFT */\n      0x02\n      0x00\n      swap1\n      sload\n      swap1\n      0x0100\n      exp\n      swap1\n      div\n      0xffffffffffffffffffffffffffffffffffffffff\n      and\n        /* \"contracts/Missions.sol\":870:887  parentNFT.ownerOf */\n      0xffffffffffffffffffffffffffffffffffffffff\n      and\n      0x6352211e\n        /* \"contracts/Missions.sol\":888:896  _tokenID */\n      dup4\n        /* \"contracts/Missions.sol\":870:897  parentNFT.ownerOf(_tokenID) */\n      mload(0x40)\n      dup3\n      0xffffffff\n      and\n      0xe0\n      shl\n      dup2\n      mstore\n      0x04\n      add\n      tag_33\n      swap2\n      swap1\n      tag_34\n      jump\t// in\n    tag_33:\n      0x20\n      mload(0x40)\n      dup1\n      dup4\n      sub\n      dup2\n      dup7\n      dup1\n      extcodesize\n      iszero\n      dup1\n      iszero\n      tag_35\n      jumpi\n      0x00\n      dup1\n      revert\n    tag_35:\n      pop\n      gas\n      staticcall\n      iszero\n      dup1\n      iszero\n      tag_37\n      jumpi\n      returndatasize\n      0x00\n      dup1\n      returndatacopy\n      revert(0x00, returndatasize)\n    tag_37:\n      pop\n      pop\n      pop\n      pop\n      mload(0x40)\n      returndatasize\n      not(0x1f)\n      0x1f\n      dup3\n      add\n      and\n      dup3\n      add\n      dup1\n      0x40\n      mstore\n      pop\n      dup2\n      add\n      swap1\n      tag_38\n      swap2\n      swap1\n      tag_39\n      jump\t// in\n    tag_38:\n        /* \"contracts/Missions.sol\":870:911  parentNFT.ownerOf(_tokenID) == msg.sender */\n      0xffffffffffffffffffffffffffffffffffffffff\n      and\n      eq\n        /* \"contracts/Missions.sol\":862:925  require(parentNFT.ownerOf(_tokenID) == msg.sender, \"Not owner\") */\n      tag_40\n      jumpi\n      mload(0x40)\n      0x08c379a000000000000000000000000000000000000000000000000000000000\n      dup2\n      mstore\n      0x04\n      add\n      tag_41\n      swap1\n      tag_42\n      jump\t// in\n    tag_41:\n      mload(0x40)\n      dup1\n      swap2\n      sub\n      swap1\n      revert\n    tag_40:\n        /* \"contracts/Missions.sol\":936:945  parentNFT */\n      0x02\n      0x00\n      swap1\n      sload\n      swap1\n      0x0100\n      exp\n      swap1\n      div\n      0xffffffffffffffffffffffffffffffffffffffff\n      and\n        /* \"contracts/Missions.sol\":936:953  parentNFT.approve */\n      0xffffffffffffffffffffffffffffffffffffffff\n      and\n      0x095ea7b3\n        /* \"contracts/Missions.sol\":962:966  this */\n      address\n        /* \"contracts/Missions.sol\":969:970  1 */\n      0x01\n        /* \"contracts/Missions.sol\":936:971  parentNFT.approve(address(this), 1) */\n      mload(0x40)\n      dup4\n      0xffffffff\n      and\n      0xe0\n      shl\n      dup2\n      mstore\n      0x04\n      add\n      tag_43\n      swap3\n      swap2\n      swap1\n      tag_44\n      jump\t// in\n    tag_43:\n      0x00\n      mload(0x40)\n      dup1\n      dup4\n      sub\n      dup2\n      0x00\n      dup8\n      dup1\n      extcodesize\n      iszero\n      dup1\n      iszero\n      tag_45\n      jumpi\n      0x00\n      dup1\n      revert\n    tag_45:\n      pop\n      gas\n      call\n      iszero\n      dup1\n      iszero\n      tag_47\n      jumpi\n      returndatasize\n      0x00\n      dup1\n      returndatacopy\n      revert(0x00, returndatasize)\n    tag_47:\n      pop\n      pop\n      pop\n      pop\n        /* \"@openzeppelin/contracts/security/ReentrancyGuard.sol\":1701:1702  1 */\n      0x01\n        /* \"@openzeppelin/contracts/security/ReentrancyGuard.sol\":2628:2635  _status */\n      0x00\n        /* \"@openzeppelin/contracts/security/ReentrancyGuard.sol\":2628:2650  _status = _NOT_ENTERED */\n      dup2\n      swap1\n      sstore\n      pop\n        /* \"contracts/Missions.sol\":796:998  function stake(uint256 _tokenID) public nonReentrant() {\r... */\n      pop\n      jump\t// out\n        /* \"contracts/Missions.sol\":416:440  IERC721 public parentNFT */\n    tag_21:\n      0x02\n      0x00\n      swap1\n      sload\n      swap1\n      0x0100\n      exp\n      swap1\n      div\n      0xffffffffffffffffffffffffffffffffffffffff\n      and\n      dup2\n      jump\t// out\n        /* \"contracts/Missions.sol\":447:481  INFTGame public parentNftFunctions */\n    tag_25:\n      0x03\n      0x00\n      swap1\n      sload\n      swap1\n      0x0100\n      exp\n      swap1\n      div\n      0xffffffffffffffffffffffffffffffffffffffff\n      and\n      dup2\n      jump\t// out\n        /* \"#utility.yul\":7:150   */\n    tag_49:\n        /* \"#utility.yul\":64:69   */\n      0x00\n        /* \"#utility.yul\":95:101   */\n      dup2\n        /* \"#utility.yul\":89:102   */\n      mload\n        /* \"#utility.yul\":80:102   */\n      swap1\n      pop\n        /* \"#utility.yul\":111:144   */\n      tag_51\n        /* \"#utility.yul\":138:143   */\n      dup2\n        /* \"#utility.yul\":111:144   */\n      tag_52\n      jump\t// in\n    tag_51:\n        /* \"#utility.yul\":7:150   */\n      swap3\n      swap2\n      pop\n      pop\n      jump\t// out\n        /* \"#utility.yul\":156:295   */\n    tag_53:\n        /* \"#utility.yul\":202:207   */\n      0x00\n        /* \"#utility.yul\":240:246   */\n      dup2\n        /* \"#utility.yul\":227:247   */\n      calldataload\n        /* \"#utility.yul\":218:247   */\n      swap1\n      pop\n        /* \"#utility.yul\":256:289   */\n      tag_55\n        /* \"#utility.yul\":283:288   */\n      dup2\n        /* \"#utility.yul\":256:289   */\n      tag_56\n      jump\t// in\n    tag_55:\n        /* \"#utility.yul\":156:295   */\n      swap3\n      swap2\n      pop\n      pop\n      jump\t// out\n        /* \"#utility.yul\":301:652   */\n    tag_39:\n        /* \"#utility.yul\":371:377   */\n      0x00\n        /* \"#utility.yul\":420:422   */\n      0x20\n        /* \"#utility.yul\":408:417   */\n      dup3\n        /* \"#utility.yul\":399:406   */\n      dup5\n        /* \"#utility.yul\":395:418   */\n      sub\n        /* \"#utility.yul\":391:423   */\n      slt\n        /* \"#utility.yul\":388:507   */\n      iszero\n      tag_58\n      jumpi\n        /* \"#utility.yul\":426:505   */\n      tag_59\n      tag_60\n      jump\t// in\n    tag_59:\n        /* \"#utility.yul\":388:507   */\n    tag_58:\n        /* \"#utility.yul\":546:547   */\n      0x00\n        /* \"#utility.yul\":571:635   */\n      tag_61\n        /* \"#utility.yul\":627:634   */\n      dup5\n        /* \"#utility.yul\":618:624   */\n      dup3\n        /* \"#utility.yul\":607:616   */\n      dup6\n        /* \"#utility.yul\":603:625   */\n      add\n        /* \"#utility.yul\":571:635   */\n      tag_49\n      jump\t// in\n    tag_61:\n        /* \"#utility.yul\":561:635   */\n      swap2\n      pop\n        /* \"#utility.yul\":517:645   */\n      pop\n        /* \"#utility.yul\":301:652   */\n      swap3\n      swap2\n      pop\n      pop\n      jump\t// out\n        /* \"#utility.yul\":658:987   */\n    tag_18:\n        /* \"#utility.yul\":717:723   */\n      0x00\n        /* \"#utility.yul\":766:768   */\n      0x20\n        /* \"#utility.yul\":754:763   */\n      dup3\n        /* \"#utility.yul\":745:752   */\n      dup5\n        /* \"#utility.yul\":741:764   */\n      sub\n        /* \"#utility.yul\":737:769   */\n      slt\n        /* \"#utility.yul\":734:853   */\n      iszero\n      tag_63\n      jumpi\n        /* \"#utility.yul\":772:851   */\n      tag_64\n      tag_60\n      jump\t// in\n    tag_64:\n        /* \"#utility.yul\":734:853   */\n    tag_63:\n        /* \"#utility.yul\":892:893   */\n      0x00\n        /* \"#utility.yul\":917:970   */\n      tag_65\n        /* \"#utility.yul\":962:969   */\n      dup5\n        /* \"#utility.yul\":953:959   */\n      dup3\n        /* \"#utility.yul\":942:951   */\n      dup6\n        /* \"#utility.yul\":938:960   */\n      add\n        /* \"#utility.yul\":917:970   */\n      tag_53\n      jump\t// in\n    tag_65:\n        /* \"#utility.yul\":907:970   */\n      swap2\n      pop\n        /* \"#utility.yul\":863:980   */\n      pop\n        /* \"#utility.yul\":658:987   */\n      swap3\n      swap2\n      pop\n      pop\n      jump\t// out\n        /* \"#utility.yul\":993:1111   */\n    tag_66:\n        /* \"#utility.yul\":1080:1104   */\n      tag_68\n        /* \"#utility.yul\":1098:1103   */\n      dup2\n        /* \"#utility.yul\":1080:1104   */\n      tag_69\n      jump\t// in\n    tag_68:\n        /* \"#utility.yul\":1075:1078   */\n      dup3\n        /* \"#utility.yul\":1068:1105   */\n      mstore\n        /* \"#utility.yul\":993:1111   */\n      pop\n      pop\n      jump\t// out\n        /* \"#utility.yul\":1117:1276   */\n    tag_70:\n        /* \"#utility.yul\":1218:1269   */\n      tag_72\n        /* \"#utility.yul\":1263:1268   */\n      dup2\n        /* \"#utility.yul\":1218:1269   */\n      tag_73\n      jump\t// in\n    tag_72:\n        /* \"#utility.yul\":1213:1216   */\n      dup3\n        /* \"#utility.yul\":1206:1270   */\n      mstore\n        /* \"#utility.yul\":1117:1276   */\n      pop\n      pop\n      jump\t// out\n        /* \"#utility.yul\":1282:1443   */\n    tag_74:\n        /* \"#utility.yul\":1384:1436   */\n      tag_76\n        /* \"#utility.yul\":1430:1435   */\n      dup2\n        /* \"#utility.yul\":1384:1436   */\n      tag_77\n      jump\t// in\n    tag_76:\n        /* \"#utility.yul\":1379:1382   */\n      dup3\n        /* \"#utility.yul\":1372:1437   */\n      mstore\n        /* \"#utility.yul\":1282:1443   */\n      pop\n      pop\n      jump\t// out\n        /* \"#utility.yul\":1449:1612   */\n    tag_78:\n        /* \"#utility.yul\":1552:1605   */\n      tag_80\n        /* \"#utility.yul\":1599:1604   */\n      dup2\n        /* \"#utility.yul\":1552:1605   */\n      tag_81\n      jump\t// in\n    tag_80:\n        /* \"#utility.yul\":1547:1550   */\n      dup3\n        /* \"#utility.yul\":1540:1606   */\n      mstore\n        /* \"#utility.yul\":1449:1612   */\n      pop\n      pop\n      jump\t// out\n        /* \"#utility.yul\":1618:1765   */\n    tag_82:\n        /* \"#utility.yul\":1713:1758   */\n      tag_84\n        /* \"#utility.yul\":1752:1757   */\n      dup2\n        /* \"#utility.yul\":1713:1758   */\n      tag_85\n      jump\t// in\n    tag_84:\n        /* \"#utility.yul\":1708:1711   */\n      dup3\n        /* \"#utility.yul\":1701:1759   */\n      mstore\n        /* \"#utility.yul\":1618:1765   */\n      pop\n      pop\n      jump\t// out\n        /* \"#utility.yul\":1771:2136   */\n    tag_86:\n        /* \"#utility.yul\":1913:1916   */\n      0x00\n        /* \"#utility.yul\":1934:2000   */\n      tag_88\n        /* \"#utility.yul\":1998:1999   */\n      0x09\n        /* \"#utility.yul\":1993:1996   */\n      dup4\n        /* \"#utility.yul\":1934:2000   */\n      tag_89\n      jump\t// in\n    tag_88:\n        /* \"#utility.yul\":1927:2000   */\n      swap2\n      pop\n        /* \"#utility.yul\":2009:2102   */\n      tag_90\n        /* \"#utility.yul\":2098:2101   */\n      dup3\n        /* \"#utility.yul\":2009:2102   */\n      tag_91\n      jump\t// in\n    tag_90:\n        /* \"#utility.yul\":2127:2129   */\n      0x20\n        /* \"#utility.yul\":2122:2125   */\n      dup3\n        /* \"#utility.yul\":2118:2130   */\n      add\n        /* \"#utility.yul\":2111:2130   */\n      swap1\n      pop\n        /* \"#utility.yul\":1771:2136   */\n      swap2\n      swap1\n      pop\n      jump\t// out\n        /* \"#utility.yul\":2142:2508   */\n    tag_92:\n        /* \"#utility.yul\":2284:2287   */\n      0x00\n        /* \"#utility.yul\":2305:2372   */\n      tag_94\n        /* \"#utility.yul\":2369:2371   */\n      0x1f\n        /* \"#utility.yul\":2364:2367   */\n      dup4\n        /* \"#utility.yul\":2305:2372   */\n      tag_89\n      jump\t// in\n    tag_94:\n        /* \"#utility.yul\":2298:2372   */\n      swap2\n      pop\n        /* \"#utility.yul\":2381:2474   */\n      tag_95\n        /* \"#utility.yul\":2470:2473   */\n      dup3\n        /* \"#utility.yul\":2381:2474   */\n      tag_96\n      jump\t// in\n    tag_95:\n        /* \"#utility.yul\":2499:2501   */\n      0x20\n        /* \"#utility.yul\":2494:2497   */\n      dup3\n        /* \"#utility.yul\":2490:2502   */\n      add\n        /* \"#utility.yul\":2483:2502   */\n      swap1\n      pop\n        /* \"#utility.yul\":2142:2508   */\n      swap2\n      swap1\n      pop\n      jump\t// out\n        /* \"#utility.yul\":2514:2632   */\n    tag_97:\n        /* \"#utility.yul\":2601:2625   */\n      tag_99\n        /* \"#utility.yul\":2619:2624   */\n      dup2\n        /* \"#utility.yul\":2601:2625   */\n      tag_100\n      jump\t// in\n    tag_99:\n        /* \"#utility.yul\":2596:2599   */\n      dup3\n        /* \"#utility.yul\":2589:2626   */\n      mstore\n        /* \"#utility.yul\":2514:2632   */\n      pop\n      pop\n      jump\t// out\n        /* \"#utility.yul\":2638:2860   */\n    tag_11:\n        /* \"#utility.yul\":2731:2735   */\n      0x00\n        /* \"#utility.yul\":2769:2771   */\n      0x20\n        /* \"#utility.yul\":2758:2767   */\n      dup3\n        /* \"#utility.yul\":2754:2772   */\n      add\n        /* \"#utility.yul\":2746:2772   */\n      swap1\n      pop\n        /* \"#utility.yul\":2782:2853   */\n      tag_102\n        /* \"#utility.yul\":2850:2851   */\n      0x00\n        /* \"#utility.yul\":2839:2848   */\n      dup4\n        /* \"#utility.yul\":2835:2852   */\n      add\n        /* \"#utility.yul\":2826:2832   */\n      dup5\n        /* \"#utility.yul\":2782:2853   */\n      tag_66\n      jump\t// in\n    tag_102:\n        /* \"#utility.yul\":2638:2860   */\n      swap3\n      swap2\n      pop\n      pop\n      jump\t// out\n        /* \"#utility.yul\":2866:3214   */\n    tag_44:\n        /* \"#utility.yul\":2995:2999   */\n      0x00\n        /* \"#utility.yul\":3033:3035   */\n      0x40\n        /* \"#utility.yul\":3022:3031   */\n      dup3\n        /* \"#utility.yul\":3018:3036   */\n      add\n        /* \"#utility.yul\":3010:3036   */\n      swap1\n      pop\n        /* \"#utility.yul\":3046:3117   */\n      tag_104\n        /* \"#utility.yul\":3114:3115   */\n      0x00\n        /* \"#utility.yul\":3103:3112   */\n      dup4\n        /* \"#utility.yul\":3099:3116   */\n      add\n        /* \"#utility.yul\":3090:3096   */\n      dup6\n        /* \"#utility.yul\":3046:3117   */\n      tag_66\n      jump\t// in\n    tag_104:\n        /* \"#utility.yul\":3127:3207   */\n      tag_105\n        /* \"#utility.yul\":3203:3205   */\n      0x20\n        /* \"#utility.yul\":3192:3201   */\n      dup4\n        /* \"#utility.yul\":3188:3206   */\n      add\n        /* \"#utility.yul\":3179:3185   */\n      dup5\n        /* \"#utility.yul\":3127:3207   */\n      tag_82\n      jump\t// in\n    tag_105:\n        /* \"#utility.yul\":2866:3214   */\n      swap4\n      swap3\n      pop\n      pop\n      pop\n      jump\t// out\n        /* \"#utility.yul\":3220:3470   */\n    tag_15:\n        /* \"#utility.yul\":3327:3331   */\n      0x00\n        /* \"#utility.yul\":3365:3367   */\n      0x20\n        /* \"#utility.yul\":3354:3363   */\n      dup3\n        /* \"#utility.yul\":3350:3368   */\n      add\n        /* \"#utility.yul\":3342:3368   */\n      swap1\n      pop\n        /* \"#utility.yul\":3378:3463   */\n      tag_107\n        /* \"#utility.yul\":3460:3461   */\n      0x00\n        /* \"#utility.yul\":3449:3458   */\n      dup4\n        /* \"#utility.yul\":3445:3462   */\n      add\n        /* \"#utility.yul\":3436:3442   */\n      dup5\n        /* \"#utility.yul\":3378:3463   */\n      tag_70\n      jump\t// in\n    tag_107:\n        /* \"#utility.yul\":3220:3470   */\n      swap3\n      swap2\n      pop\n      pop\n      jump\t// out\n        /* \"#utility.yul\":3476:3728   */\n    tag_23:\n        /* \"#utility.yul\":3584:3588   */\n      0x00\n        /* \"#utility.yul\":3622:3624   */\n      0x20\n        /* \"#utility.yul\":3611:3620   */\n      dup3\n        /* \"#utility.yul\":3607:3625   */\n      add\n        /* \"#utility.yul\":3599:3625   */\n      swap1\n      pop\n        /* \"#utility.yul\":3635:3721   */\n      tag_109\n        /* \"#utility.yul\":3718:3719   */\n      0x00\n        /* \"#utility.yul\":3707:3716   */\n      dup4\n        /* \"#utility.yul\":3703:3720   */\n      add\n        /* \"#utility.yul\":3694:3700   */\n      dup5\n        /* \"#utility.yul\":3635:3721   */\n      tag_74\n      jump\t// in\n    tag_109:\n        /* \"#utility.yul\":3476:3728   */\n      swap3\n      swap2\n      pop\n      pop\n      jump\t// out\n        /* \"#utility.yul\":3734:3988   */\n    tag_27:\n        /* \"#utility.yul\":3843:3847   */\n      0x00\n        /* \"#utility.yul\":3881:3883   */\n      0x20\n        /* \"#utility.yul\":3870:3879   */\n      dup3\n        /* \"#utility.yul\":3866:3884   */\n      add\n        /* \"#utility.yul\":3858:3884   */\n      swap1\n      pop\n        /* \"#utility.yul\":3894:3981   */\n      tag_111\n        /* \"#utility.yul\":3978:3979   */\n      0x00\n        /* \"#utility.yul\":3967:3976   */\n      dup4\n        /* \"#utility.yul\":3963:3980   */\n      add\n        /* \"#utility.yul\":3954:3960   */\n      dup5\n        /* \"#utility.yul\":3894:3981   */\n      tag_78\n      jump\t// in\n    tag_111:\n        /* \"#utility.yul\":3734:3988   */\n      swap3\n      swap2\n      pop\n      pop\n      jump\t// out\n        /* \"#utility.yul\":3994:4413   */\n    tag_42:\n        /* \"#utility.yul\":4160:4164   */\n      0x00\n        /* \"#utility.yul\":4198:4200   */\n      0x20\n        /* \"#utility.yul\":4187:4196   */\n      dup3\n        /* \"#utility.yul\":4183:4201   */\n      add\n        /* \"#utility.yul\":4175:4201   */\n      swap1\n      pop\n        /* \"#utility.yul\":4247:4256   */\n      dup2\n        /* \"#utility.yul\":4241:4245   */\n      dup2\n        /* \"#utility.yul\":4237:4257   */\n      sub\n        /* \"#utility.yul\":4233:4234   */\n      0x00\n        /* \"#utility.yul\":4222:4231   */\n      dup4\n        /* \"#utility.yul\":4218:4235   */\n      add\n        /* \"#utility.yul\":4211:4258   */\n      mstore\n        /* \"#utility.yul\":4275:4406   */\n      tag_113\n        /* \"#utility.yul\":4401:4405   */\n      dup2\n        /* \"#utility.yul\":4275:4406   */\n      tag_86\n      jump\t// in\n    tag_113:\n        /* \"#utility.yul\":4267:4406   */\n      swap1\n      pop\n        /* \"#utility.yul\":3994:4413   */\n      swap2\n      swap1\n      pop\n      jump\t// out\n        /* \"#utility.yul\":4419:4838   */\n    tag_31:\n        /* \"#utility.yul\":4585:4589   */\n      0x00\n        /* \"#utility.yul\":4623:4625   */\n      0x20\n        /* \"#utility.yul\":4612:4621   */\n      dup3\n        /* \"#utility.yul\":4608:4626   */\n      add\n        /* \"#utility.yul\":4600:4626   */\n      swap1\n      pop\n        /* \"#utility.yul\":4672:4681   */\n      dup2\n        /* \"#utility.yul\":4666:4670   */\n      dup2\n        /* \"#utility.yul\":4662:4682   */\n      sub\n        /* \"#utility.yul\":4658:4659   */\n      0x00\n        /* \"#utility.yul\":4647:4656   */\n      dup4\n        /* \"#utility.yul\":4643:4660   */\n      add\n        /* \"#utility.yul\":4636:4683   */\n      mstore\n        /* \"#utility.yul\":4700:4831   */\n      tag_115\n        /* \"#utility.yul\":4826:4830   */\n      dup2\n        /* \"#utility.yul\":4700:4831   */\n      tag_92\n      jump\t// in\n    tag_115:\n        /* \"#utility.yul\":4692:4831   */\n      swap1\n      pop\n        /* \"#utility.yul\":4419:4838   */\n      swap2\n      swap1\n      pop\n      jump\t// out\n        /* \"#utility.yul\":4844:5066   */\n    tag_34:\n        /* \"#utility.yul\":4937:4941   */\n      0x00\n        /* \"#utility.yul\":4975:4977   */\n      0x20\n        /* \"#utility.yul\":4964:4973   */\n      dup3\n        /* \"#utility.yul\":4960:4978   */\n      add\n        /* \"#utility.yul\":4952:4978   */\n      swap1\n      pop\n        /* \"#utility.yul\":4988:5059   */\n      tag_117\n        /* \"#utility.yul\":5056:5057   */\n      0x00\n        /* \"#utility.yul\":5045:5054   */\n      dup4\n        /* \"#utility.yul\":5041:5058   */\n      add\n        /* \"#utility.yul\":5032:5038   */\n      dup5\n        /* \"#utility.yul\":4988:5059   */\n      tag_97\n      jump\t// in\n    tag_117:\n        /* \"#utility.yul\":4844:5066   */\n      swap3\n      swap2\n      pop\n      pop\n      jump\t// out\n        /* \"#utility.yul\":5153:5322   */\n    tag_89:\n        /* \"#utility.yul\":5237:5248   */\n      0x00\n        /* \"#utility.yul\":5271:5277   */\n      dup3\n        /* \"#utility.yul\":5266:5269   */\n      dup3\n        /* \"#utility.yul\":5259:5278   */\n      mstore\n        /* \"#utility.yul\":5311:5315   */\n      0x20\n        /* \"#utility.yul\":5306:5309   */\n      dup3\n        /* \"#utility.yul\":5302:5316   */\n      add\n        /* \"#utility.yul\":5287:5316   */\n      swap1\n      pop\n        /* \"#utility.yul\":5153:5322   */\n      swap3\n      swap2\n      pop\n      pop\n      jump\t// out\n        /* \"#utility.yul\":5328:5424   */\n    tag_69:\n        /* \"#utility.yul\":5365:5372   */\n      0x00\n        /* \"#utility.yul\":5394:5418   */\n      tag_122\n        /* \"#utility.yul\":5412:5417   */\n      dup3\n        /* \"#utility.yul\":5394:5418   */\n      tag_123\n      jump\t// in\n    tag_122:\n        /* \"#utility.yul\":5383:5418   */\n      swap1\n      pop\n        /* \"#utility.yul\":5328:5424   */\n      swap2\n      swap1\n      pop\n      jump\t// out\n        /* \"#utility.yul\":5430:5556   */\n    tag_123:\n        /* \"#utility.yul\":5467:5474   */\n      0x00\n        /* \"#utility.yul\":5507:5549   */\n      0xffffffffffffffffffffffffffffffffffffffff\n        /* \"#utility.yul\":5500:5505   */\n      dup3\n        /* \"#utility.yul\":5496:5550   */\n      and\n        /* \"#utility.yul\":5485:5550   */\n      swap1\n      pop\n        /* \"#utility.yul\":5430:5556   */\n      swap2\n      swap1\n      pop\n      jump\t// out\n        /* \"#utility.yul\":5562:5639   */\n    tag_100:\n        /* \"#utility.yul\":5599:5606   */\n      0x00\n        /* \"#utility.yul\":5628:5633   */\n      dup2\n        /* \"#utility.yul\":5617:5633   */\n      swap1\n      pop\n        /* \"#utility.yul\":5562:5639   */\n      swap2\n      swap1\n      pop\n      jump\t// out\n        /* \"#utility.yul\":5645:5785   */\n    tag_73:\n        /* \"#utility.yul\":5709:5718   */\n      0x00\n        /* \"#utility.yul\":5742:5779   */\n      tag_127\n        /* \"#utility.yul\":5773:5778   */\n      dup3\n        /* \"#utility.yul\":5742:5779   */\n      tag_128\n      jump\t// in\n    tag_127:\n        /* \"#utility.yul\":5729:5779   */\n      swap1\n      pop\n        /* \"#utility.yul\":5645:5785   */\n      swap2\n      swap1\n      pop\n      jump\t// out\n        /* \"#utility.yul\":5791:5932   */\n    tag_77:\n        /* \"#utility.yul\":5856:5865   */\n      0x00\n        /* \"#utility.yul\":5889:5926   */\n      tag_130\n        /* \"#utility.yul\":5920:5925   */\n      dup3\n        /* \"#utility.yul\":5889:5926   */\n      tag_128\n      jump\t// in\n    tag_130:\n        /* \"#utility.yul\":5876:5926   */\n      swap1\n      pop\n        /* \"#utility.yul\":5791:5932   */\n      swap2\n      swap1\n      pop\n      jump\t// out\n        /* \"#utility.yul\":5938:6080   */\n    tag_81:\n        /* \"#utility.yul\":6004:6013   */\n      0x00\n        /* \"#utility.yul\":6037:6074   */\n      tag_132\n        /* \"#utility.yul\":6068:6073   */\n      dup3\n        /* \"#utility.yul\":6037:6074   */\n      tag_128\n      jump\t// in\n    tag_132:\n        /* \"#utility.yul\":6024:6074   */\n      swap1\n      pop\n        /* \"#utility.yul\":5938:6080   */\n      swap2\n      swap1\n      pop\n      jump\t// out\n        /* \"#utility.yul\":6086:6207   */\n    tag_85:\n        /* \"#utility.yul\":6144:6153   */\n      0x00\n        /* \"#utility.yul\":6177:6201   */\n      tag_134\n        /* \"#utility.yul\":6195:6200   */\n      dup3\n        /* \"#utility.yul\":6177:6201   */\n      tag_100\n      jump\t// in\n    tag_134:\n        /* \"#utility.yul\":6164:6201   */\n      swap1\n      pop\n        /* \"#utility.yul\":6086:6207   */\n      swap2\n      swap1\n      pop\n      jump\t// out\n        /* \"#utility.yul\":6213:6339   */\n    tag_128:\n        /* \"#utility.yul\":6263:6272   */\n      0x00\n        /* \"#utility.yul\":6296:6333   */\n      tag_136\n        /* \"#utility.yul\":6327:6332   */\n      dup3\n        /* \"#utility.yul\":6296:6333   */\n      tag_137\n      jump\t// in\n    tag_136:\n        /* \"#utility.yul\":6283:6333   */\n      swap1\n      pop\n        /* \"#utility.yul\":6213:6339   */\n      swap2\n      swap1\n      pop\n      jump\t// out\n        /* \"#utility.yul\":6345:6458   */\n    tag_137:\n        /* \"#utility.yul\":6395:6404   */\n      0x00\n        /* \"#utility.yul\":6428:6452   */\n      tag_139\n        /* \"#utility.yul\":6446:6451   */\n      dup3\n        /* \"#utility.yul\":6428:6452   */\n      tag_123\n      jump\t// in\n    tag_139:\n        /* \"#utility.yul\":6415:6452   */\n      swap1\n      pop\n        /* \"#utility.yul\":6345:6458   */\n      swap2\n      swap1\n      pop\n      jump\t// out\n        /* \"#utility.yul\":6587:6704   */\n    tag_60:\n        /* \"#utility.yul\":6696:6697   */\n      0x00\n        /* \"#utility.yul\":6693:6694   */\n      dup1\n        /* \"#utility.yul\":6686:6698   */\n      revert\n        /* \"#utility.yul\":6710:6869   */\n    tag_91:\n        /* \"#utility.yul\":6850:6861   */\n      0x4e6f74206f776e65720000000000000000000000000000000000000000000000\n        /* \"#utility.yul\":6846:6847   */\n      0x00\n        /* \"#utility.yul\":6838:6844   */\n      dup3\n        /* \"#utility.yul\":6834:6848   */\n      add\n        /* \"#utility.yul\":6827:6862   */\n      mstore\n        /* \"#utility.yul\":6710:6869   */\n      pop\n      jump\t// out\n        /* \"#utility.yul\":6875:7056   */\n    tag_96:\n        /* \"#utility.yul\":7015:7048   */\n      0x5265656e7472616e637947756172643a207265656e7472616e742063616c6c00\n        /* \"#utility.yul\":7011:7012   */\n      0x00\n        /* \"#utility.yul\":7003:7009   */\n      dup3\n        /* \"#utility.yul\":6999:7013   */\n      add\n        /* \"#utility.yul\":6992:7049   */\n      mstore\n        /* \"#utility.yul\":6875:7056   */\n      pop\n      jump\t// out\n        /* \"#utility.yul\":7062:7184   */\n    tag_52:\n        /* \"#utility.yul\":7135:7159   */\n      tag_146\n        /* \"#utility.yul\":7153:7158   */\n      dup2\n        /* \"#utility.yul\":7135:7159   */\n      tag_69\n      jump\t// in\n    tag_146:\n        /* \"#utility.yul\":7128:7133   */\n      dup2\n        /* \"#utility.yul\":7125:7160   */\n      eq\n        /* \"#utility.yul\":7115:7178   */\n      tag_147\n      jumpi\n        /* \"#utility.yul\":7174:7175   */\n      0x00\n        /* \"#utility.yul\":7171:7172   */\n      dup1\n        /* \"#utility.yul\":7164:7176   */\n      revert\n        /* \"#utility.yul\":7115:7178   */\n    tag_147:\n        /* \"#utility.yul\":7062:7184   */\n      pop\n      jump\t// out\n        /* \"#utility.yul\":7190:7312   */\n    tag_56:\n        /* \"#utility.yul\":7263:7287   */\n      tag_149\n        /* \"#utility.yul\":7281:7286   */\n      dup2\n        /* \"#utility.yul\":7263:7287   */\n      tag_100\n      jump\t// in\n    tag_149:\n        /* \"#utility.yul\":7256:7261   */\n      dup2\n        /* \"#utility.yul\":7253:7288   */\n      eq\n        /* \"#utility.yul\":7243:7306   */\n      tag_150\n      jumpi\n        /* \"#utility.yul\":7302:7303   */\n      0x00\n        /* \"#utility.yul\":7299:7300   */\n      dup1\n        /* \"#utility.yul\":7292:7304   */\n      revert\n        /* \"#utility.yul\":7243:7306   */\n    tag_150:\n        /* \"#utility.yul\":7190:7312   */\n      pop\n      jump\t// out\n\n    auxdata: 0xa2646970667358221220281230faa3facca15187b5202fcf45f60a8a8e5d3475b60a3da5bfcfe54396a064736f6c63430008070033\n}\n",
				"bytecode": {
					"linkReferences": {},
					"object": "608060405234801561001057600080fd5b506040516109083803806109088339818101604052810190610032919061015a565b600160008190555081600260006101000a81548173ffffffffffffffffffffffffffffffffffffffff021916908373ffffffffffffffffffffffffffffffffffffffff16021790555081600360006101000a81548173ffffffffffffffffffffffffffffffffffffffff021916908373ffffffffffffffffffffffffffffffffffffffff16021790555080600160006101000a81548173ffffffffffffffffffffffffffffffffffffffff021916908373ffffffffffffffffffffffffffffffffffffffff16021790555081600460006101000a81548173ffffffffffffffffffffffffffffffffffffffff021916908373ffffffffffffffffffffffffffffffffffffffff16021790555050506101e8565b600081519050610154816101d1565b92915050565b60008060408385031215610171576101706101cc565b5b600061017f85828601610145565b925050602061019085828601610145565b9150509250929050565b60006101a5826101ac565b9050919050565b600073ffffffffffffffffffffffffffffffffffffffff82169050919050565b600080fd5b6101da8161019a565b81146101e557600080fd5b50565b610711806101f76000396000f3fe608060405234801561001057600080fd5b50600436106100575760003560e01c806366bb863b1461005c57806380a540011461007a578063a694fc3a14610098578063b8e33fb2146100b4578063fead3d6e146100d2575b600080fd5b6100646100f0565b60405161007191906104ad565b60405180910390f35b610082610116565b60405161008f91906104f1565b60405180910390f35b6100b260048036038101906100ad91906103e0565b61013c565b005b6100bc61033d565b6040516100c9919061050c565b60405180910390f35b6100da610363565b6040516100e79190610527565b60405180910390f35b600460009054906101000a900473ffffffffffffffffffffffffffffffffffffffff1681565b600160009054906101000a900473ffffffffffffffffffffffffffffffffffffffff1681565b60026000541415610182576040517f08c379a000000000000000000000000000000000000000000000000000000000815260040161017990610562565b60405180910390fd5b60026000819055503373ffffffffffffffffffffffffffffffffffffffff16600260009054906101000a900473ffffffffffffffffffffffffffffffffffffffff1673ffffffffffffffffffffffffffffffffffffffff16636352211e836040518263ffffffff1660e01b81526004016101fc9190610582565b60206040518083038186803b15801561021457600080fd5b505afa158015610228573d6000803e3d6000fd5b505050506040513d601f19601f8201168201806040525081019061024c91906103b3565b73ffffffffffffffffffffffffffffffffffffffff16146102a2576040517f08c379a000000000000000000000000000000000000000000000000000000000815260040161029990610542565b60405180910390fd5b600260009054906101000a900473ffffffffffffffffffffffffffffffffffffffff1673ffffffffffffffffffffffffffffffffffffffff1663095ea7b33060016040518363ffffffff1660e01b81526004016103009291906104c8565b600060405180830381600087803b15801561031a57600080fd5b505af115801561032e573d6000803e3d6000fd5b50505050600160008190555050565b600260009054906101000a900473ffffffffffffffffffffffffffffffffffffffff1681565b600360009054906101000a900473ffffffffffffffffffffffffffffffffffffffff1681565b600081519050610398816106ad565b92915050565b6000813590506103ad816106c4565b92915050565b6000602082840312156103c9576103c8610656565b5b60006103d784828501610389565b91505092915050565b6000602082840312156103f6576103f5610656565b5b60006104048482850161039e565b91505092915050565b610416816105ae565b82525050565b610425816105ea565b82525050565b610434816105fc565b82525050565b6104438161060e565b82525050565b61045281610620565b82525050565b600061046560098361059d565b91506104708261065b565b602082019050919050565b6000610488601f8361059d565b915061049382610684565b602082019050919050565b6104a7816105e0565b82525050565b60006020820190506104c2600083018461040d565b92915050565b60006040820190506104dd600083018561040d565b6104ea6020830184610449565b9392505050565b6000602082019050610506600083018461041c565b92915050565b6000602082019050610521600083018461042b565b92915050565b600060208201905061053c600083018461043a565b92915050565b6000602082019050818103600083015261055b81610458565b9050919050565b6000602082019050818103600083015261057b8161047b565b9050919050565b6000602082019050610597600083018461049e565b92915050565b600082825260208201905092915050565b60006105b9826105c0565b9050919050565b600073ffffffffffffffffffffffffffffffffffffffff82169050919050565b6000819050919050565b60006105f582610632565b9050919050565b600061060782610632565b9050919050565b600061061982610632565b9050919050565b600061062b826105e0565b9050919050565b600061063d82610644565b9050919050565b600061064f826105c0565b9050919050565b600080fd5b7f4e6f74206f776e65720000000000000000000000000000000000000000000000600082015250565b7f5265656e7472616e637947756172643a207265656e7472616e742063616c6c00600082015250565b6106b6816105ae565b81146106c157600080fd5b50565b6106cd816105e0565b81146106d857600080fd5b5056fea2646970667358221220281230faa3facca15187b5202fcf45f60a8a8e5d3475b60a3da5bfcfe54396a064736f6c63430008070033",
					"opcodes": "PUSH1 0x80 PUSH1 0x40 MSTORE CALLVALUE DUP1 ISZERO PUSH2 0x10 JUMPI PUSH1 0x0 DUP1 REVERT JUMPDEST POP PUSH1 0x40 MLOAD PUSH2 0x908 CODESIZE SUB DUP1 PUSH2 0x908 DUP4 CODECOPY DUP2 DUP2 ADD PUSH1 0x40 MSTORE DUP2 ADD SWAP1 PUSH2 0x32 SWAP2 SWAP1 PUSH2 0x15A JUMP JUMPDEST PUSH1 0x1 PUSH1 0x0 DUP2 SWAP1 SSTORE POP DUP2 PUSH1 0x2 PUSH1 0x0 PUSH2 0x100 EXP DUP2 SLOAD DUP2 PUSH20 0xFFFFFFFFFFFFFFFFFFFFFFFFFFFFFFFFFFFFFFFF MUL NOT AND SWAP1 DUP4 PUSH20 0xFFFFFFFFFFFFFFFFFFFFFFFFFFFFFFFFFFFFFFFF AND MUL OR SWAP1 SSTORE POP DUP2 PUSH1 0x3 PUSH1 0x0 PUSH2 0x100 EXP DUP2 SLOAD DUP2 PUSH20 0xFFFFFFFFFFFFFFFFFFFFFFFFFFFFFFFFFFFFFFFF MUL NOT AND SWAP1 DUP4 PUSH20 0xFFFFFFFFFFFFFFFFFFFFFFFFFFFFFFFFFFFFFFFF AND MUL OR SWAP1 SSTORE POP DUP1 PUSH1 0x1 PUSH1 0x0 PUSH2 0x100 EXP DUP2 SLOAD DUP2 PUSH20 0xFFFFFFFFFFFFFFFFFFFFFFFFFFFFFFFFFFFFFFFF MUL NOT AND SWAP1 DUP4 PUSH20 0xFFFFFFFFFFFFFFFFFFFFFFFFFFFFFFFFFFFFFFFF AND MUL OR SWAP1 SSTORE POP DUP2 PUSH1 0x4 PUSH1 0x0 PUSH2 0x100 EXP DUP2 SLOAD DUP2 PUSH20 0xFFFFFFFFFFFFFFFFFFFFFFFFFFFFFFFFFFFFFFFF MUL NOT AND SWAP1 DUP4 PUSH20 0xFFFFFFFFFFFFFFFFFFFFFFFFFFFFFFFFFFFFFFFF AND MUL OR SWAP1 SSTORE POP POP POP PUSH2 0x1E8 JUMP JUMPDEST PUSH1 0x0 DUP2 MLOAD SWAP1 POP PUSH2 0x154 DUP2 PUSH2 0x1D1 JUMP JUMPDEST SWAP3 SWAP2 POP POP JUMP JUMPDEST PUSH1 0x0 DUP1 PUSH1 0x40 DUP4 DUP6 SUB SLT ISZERO PUSH2 0x171 JUMPI PUSH2 0x170 PUSH2 0x1CC JUMP JUMPDEST JUMPDEST PUSH1 0x0 PUSH2 0x17F DUP6 DUP3 DUP7 ADD PUSH2 0x145 JUMP JUMPDEST SWAP3 POP POP PUSH1 0x20 PUSH2 0x190 DUP6 DUP3 DUP7 ADD PUSH2 0x145 JUMP JUMPDEST SWAP2 POP POP SWAP3 POP SWAP3 SWAP1 POP JUMP JUMPDEST PUSH1 0x0 PUSH2 0x1A5 DUP3 PUSH2 0x1AC JUMP JUMPDEST SWAP1 POP SWAP2 SWAP1 POP JUMP JUMPDEST PUSH1 0x0 PUSH20 0xFFFFFFFFFFFFFFFFFFFFFFFFFFFFFFFFFFFFFFFF DUP3 AND SWAP1 POP SWAP2 SWAP1 POP JUMP JUMPDEST PUSH1 0x0 DUP1 REVERT JUMPDEST PUSH2 0x1DA DUP2 PUSH2 0x19A JUMP JUMPDEST DUP2 EQ PUSH2 0x1E5 JUMPI PUSH1 0x0 DUP1 REVERT JUMPDEST POP JUMP JUMPDEST PUSH2 0x711 DUP1 PUSH2 0x1F7 PUSH1 0x0 CODECOPY PUSH1 0x0 RETURN INVALID PUSH1 0x80 PUSH1 0x40 MSTORE CALLVALUE DUP1 ISZERO PUSH2 0x10 JUMPI PUSH1 0x0 DUP1 REVERT JUMPDEST POP PUSH1 0x4 CALLDATASIZE LT PUSH2 0x57 JUMPI PUSH1 0x0 CALLDATALOAD PUSH1 0xE0 SHR DUP1 PUSH4 0x66BB863B EQ PUSH2 0x5C JUMPI DUP1 PUSH4 0x80A54001 EQ PUSH2 0x7A JUMPI DUP1 PUSH4 0xA694FC3A EQ PUSH2 0x98 JUMPI DUP1 PUSH4 0xB8E33FB2 EQ PUSH2 0xB4 JUMPI DUP1 PUSH4 0xFEAD3D6E EQ PUSH2 0xD2 JUMPI JUMPDEST PUSH1 0x0 DUP1 REVERT JUMPDEST PUSH2 0x64 PUSH2 0xF0 JUMP JUMPDEST PUSH1 0x40 MLOAD PUSH2 0x71 SWAP2 SWAP1 PUSH2 0x4AD JUMP JUMPDEST PUSH1 0x40 MLOAD DUP1 SWAP2 SUB SWAP1 RETURN JUMPDEST PUSH2 0x82 PUSH2 0x116 JUMP JUMPDEST PUSH1 0x40 MLOAD PUSH2 0x8F SWAP2 SWAP1 PUSH2 0x4F1 JUMP JUMPDEST PUSH1 0x40 MLOAD DUP1 SWAP2 SUB SWAP1 RETURN JUMPDEST PUSH2 0xB2 PUSH1 0x4 DUP1 CALLDATASIZE SUB DUP2 ADD SWAP1 PUSH2 0xAD SWAP2 SWAP1 PUSH2 0x3E0 JUMP JUMPDEST PUSH2 0x13C JUMP JUMPDEST STOP JUMPDEST PUSH2 0xBC PUSH2 0x33D JUMP JUMPDEST PUSH1 0x40 MLOAD PUSH2 0xC9 SWAP2 SWAP1 PUSH2 0x50C JUMP JUMPDEST PUSH1 0x40 MLOAD DUP1 SWAP2 SUB SWAP1 RETURN JUMPDEST PUSH2 0xDA PUSH2 0x363 JUMP JUMPDEST PUSH1 0x40 MLOAD PUSH2 0xE7 SWAP2 SWAP1 PUSH2 0x527 JUMP JUMPDEST PUSH1 0x40 MLOAD DUP1 SWAP2 SUB SWAP1 RETURN JUMPDEST PUSH1 0x4 PUSH1 0x0 SWAP1 SLOAD SWAP1 PUSH2 0x100 EXP SWAP1 DIV PUSH20 0xFFFFFFFFFFFFFFFFFFFFFFFFFFFFFFFFFFFFFFFF AND DUP2 JUMP JUMPDEST PUSH1 0x1 PUSH1 0x0 SWAP1 SLOAD SWAP1 PUSH2 0x100 EXP SWAP1 DIV PUSH20 0xFFFFFFFFFFFFFFFFFFFFFFFFFFFFFFFFFFFFFFFF AND DUP2 JUMP JUMPDEST PUSH1 0x2 PUSH1 0x0 SLOAD EQ ISZERO PUSH2 0x182 JUMPI PUSH1 0x40 MLOAD PUSH32 0x8C379A000000000000000000000000000000000000000000000000000000000 DUP2 MSTORE PUSH1 0x4 ADD PUSH2 0x179 SWAP1 PUSH2 0x562 JUMP JUMPDEST PUSH1 0x40 MLOAD DUP1 SWAP2 SUB SWAP1 REVERT JUMPDEST PUSH1 0x2 PUSH1 0x0 DUP2 SWAP1 SSTORE POP CALLER PUSH20 0xFFFFFFFFFFFFFFFFFFFFFFFFFFFFFFFFFFFFFFFF AND PUSH1 0x2 PUSH1 0x0 SWAP1 SLOAD SWAP1 PUSH2 0x100 EXP SWAP1 DIV PUSH20 0xFFFFFFFFFFFFFFFFFFFFFFFFFFFFFFFFFFFFFFFF AND PUSH20 0xFFFFFFFFFFFFFFFFFFFFFFFFFFFFFFFFFFFFFFFF AND PUSH4 0x6352211E DUP4 PUSH1 0x40 MLOAD DUP3 PUSH4 0xFFFFFFFF AND PUSH1 0xE0 SHL DUP2 MSTORE PUSH1 0x4 ADD PUSH2 0x1FC SWAP2 SWAP1 PUSH2 0x582 JUMP JUMPDEST PUSH1 0x20 PUSH1 0x40 MLOAD DUP1 DUP4 SUB DUP2 DUP7 DUP1 EXTCODESIZE ISZERO DUP1 ISZERO PUSH2 0x214 JUMPI PUSH1 0x0 DUP1 REVERT JUMPDEST POP GAS STATICCALL ISZERO DUP1 ISZERO PUSH2 0x228 JUMPI RETURNDATASIZE PUSH1 0x0 DUP1 RETURNDATACOPY RETURNDATASIZE PUSH1 0x0 REVERT JUMPDEST POP POP POP POP PUSH1 0x40 MLOAD RETURNDATASIZE PUSH1 0x1F NOT PUSH1 0x1F DUP3 ADD AND DUP3 ADD DUP1 PUSH1 0x40 MSTORE POP DUP2 ADD SWAP1 PUSH2 0x24C SWAP2 SWAP1 PUSH2 0x3B3 JUMP JUMPDEST PUSH20 0xFFFFFFFFFFFFFFFFFFFFFFFFFFFFFFFFFFFFFFFF AND EQ PUSH2 0x2A2 JUMPI PUSH1 0x40 MLOAD PUSH32 0x8C379A000000000000000000000000000000000000000000000000000000000 DUP2 MSTORE PUSH1 0x4 ADD PUSH2 0x299 SWAP1 PUSH2 0x542 JUMP JUMPDEST PUSH1 0x40 MLOAD DUP1 SWAP2 SUB SWAP1 REVERT JUMPDEST PUSH1 0x2 PUSH1 0x0 SWAP1 SLOAD SWAP1 PUSH2 0x100 EXP SWAP1 DIV PUSH20 0xFFFFFFFFFFFFFFFFFFFFFFFFFFFFFFFFFFFFFFFF AND PUSH20 0xFFFFFFFFFFFFFFFFFFFFFFFFFFFFFFFFFFFFFFFF AND PUSH4 0x95EA7B3 ADDRESS PUSH1 0x1 PUSH1 0x40 MLOAD DUP4 PUSH4 0xFFFFFFFF AND PUSH1 0xE0 SHL DUP2 MSTORE PUSH1 0x4 ADD PUSH2 0x300 SWAP3 SWAP2 SWAP1 PUSH2 0x4C8 JUMP JUMPDEST PUSH1 0x0 PUSH1 0x40 MLOAD DUP1 DUP4 SUB DUP2 PUSH1 0x0 DUP8 DUP1 EXTCODESIZE ISZERO DUP1 ISZERO PUSH2 0x31A JUMPI PUSH1 0x0 DUP1 REVERT JUMPDEST POP GAS CALL ISZERO DUP1 ISZERO PUSH2 0x32E JUMPI RETURNDATASIZE PUSH1 0x0 DUP1 RETURNDATACOPY RETURNDATASIZE PUSH1 0x0 REVERT JUMPDEST POP POP POP POP PUSH1 0x1 PUSH1 0x0 DUP2 SWAP1 SSTORE POP POP JUMP JUMPDEST PUSH1 0x2 PUSH1 0x0 SWAP1 SLOAD SWAP1 PUSH2 0x100 EXP SWAP1 DIV PUSH20 0xFFFFFFFFFFFFFFFFFFFFFFFFFFFFFFFFFFFFFFFF AND DUP2 JUMP JUMPDEST PUSH1 0x3 PUSH1 0x0 SWAP1 SLOAD SWAP1 PUSH2 0x100 EXP SWAP1 DIV PUSH20 0xFFFFFFFFFFFFFFFFFFFFFFFFFFFFFFFFFFFFFFFF AND DUP2 JUMP JUMPDEST PUSH1 0x0 DUP2 MLOAD SWAP1 POP PUSH2 0x398 DUP2 PUSH2 0x6AD JUMP JUMPDEST SWAP3 SWAP2 POP POP JUMP JUMPDEST PUSH1 0x0 DUP2 CALLDATALOAD SWAP1 POP PUSH2 0x3AD DUP2 PUSH2 0x6C4 JUMP JUMPDEST SWAP3 SWAP2 POP POP JUMP JUMPDEST PUSH1 0x0 PUSH1 0x20 DUP3 DUP5 SUB SLT ISZERO PUSH2 0x3C9 JUMPI PUSH2 0x3C8 PUSH2 0x656 JUMP JUMPDEST JUMPDEST PUSH1 0x0 PUSH2 0x3D7 DUP5 DUP3 DUP6 ADD PUSH2 0x389 JUMP JUMPDEST SWAP2 POP POP SWAP3 SWAP2 POP POP JUMP JUMPDEST PUSH1 0x0 PUSH1 0x20 DUP3 DUP5 SUB SLT ISZERO PUSH2 0x3F6 JUMPI PUSH2 0x3F5 PUSH2 0x656 JUMP JUMPDEST JUMPDEST PUSH1 0x0 PUSH2 0x404 DUP5 DUP3 DUP6 ADD PUSH2 0x39E JUMP JUMPDEST SWAP2 POP POP SWAP3 SWAP2 POP POP JUMP JUMPDEST PUSH2 0x416 DUP2 PUSH2 0x5AE JUMP JUMPDEST DUP3 MSTORE POP POP JUMP JUMPDEST PUSH2 0x425 DUP2 PUSH2 0x5EA JUMP JUMPDEST DUP3 MSTORE POP POP JUMP JUMPDEST PUSH2 0x434 DUP2 PUSH2 0x5FC JUMP JUMPDEST DUP3 MSTORE POP POP JUMP JUMPDEST PUSH2 0x443 DUP2 PUSH2 0x60E JUMP JUMPDEST DUP3 MSTORE POP POP JUMP JUMPDEST PUSH2 0x452 DUP2 PUSH2 0x620 JUMP JUMPDEST DUP3 MSTORE POP POP JUMP JUMPDEST PUSH1 0x0 PUSH2 0x465 PUSH1 0x9 DUP4 PUSH2 0x59D JUMP JUMPDEST SWAP2 POP PUSH2 0x470 DUP3 PUSH2 0x65B JUMP JUMPDEST PUSH1 0x20 DUP3 ADD SWAP1 POP SWAP2 SWAP1 POP JUMP JUMPDEST PUSH1 0x0 PUSH2 0x488 PUSH1 0x1F DUP4 PUSH2 0x59D JUMP JUMPDEST SWAP2 POP PUSH2 0x493 DUP3 PUSH2 0x684 JUMP JUMPDEST PUSH1 0x20 DUP3 ADD SWAP1 POP SWAP2 SWAP1 POP JUMP JUMPDEST PUSH2 0x4A7 DUP2 PUSH2 0x5E0 JUMP JUMPDEST DUP3 MSTORE POP POP JUMP JUMPDEST PUSH1 0x0 PUSH1 0x20 DUP3 ADD SWAP1 POP PUSH2 0x4C2 PUSH1 0x0 DUP4 ADD DUP5 PUSH2 0x40D JUMP JUMPDEST SWAP3 SWAP2 POP POP JUMP JUMPDEST PUSH1 0x0 PUSH1 0x40 DUP3 ADD SWAP1 POP PUSH2 0x4DD PUSH1 0x0 DUP4 ADD DUP6 PUSH2 0x40D JUMP JUMPDEST PUSH2 0x4EA PUSH1 0x20 DUP4 ADD DUP5 PUSH2 0x449 JUMP JUMPDEST SWAP4 SWAP3 POP POP POP JUMP JUMPDEST PUSH1 0x0 PUSH1 0x20 DUP3 ADD SWAP1 POP PUSH2 0x506 PUSH1 0x0 DUP4 ADD DUP5 PUSH2 0x41C JUMP JUMPDEST SWAP3 SWAP2 POP POP JUMP JUMPDEST PUSH1 0x0 PUSH1 0x20 DUP3 ADD SWAP1 POP PUSH2 0x521 PUSH1 0x0 DUP4 ADD DUP5 PUSH2 0x42B JUMP JUMPDEST SWAP3 SWAP2 POP POP JUMP JUMPDEST PUSH1 0x0 PUSH1 0x20 DUP3 ADD SWAP1 POP PUSH2 0x53C PUSH1 0x0 DUP4 ADD DUP5 PUSH2 0x43A JUMP JUMPDEST SWAP3 SWAP2 POP POP JUMP JUMPDEST PUSH1 0x0 PUSH1 0x20 DUP3 ADD SWAP1 POP DUP2 DUP2 SUB PUSH1 0x0 DUP4 ADD MSTORE PUSH2 0x55B DUP2 PUSH2 0x458 JUMP JUMPDEST SWAP1 POP SWAP2 SWAP1 POP JUMP JUMPDEST PUSH1 0x0 PUSH1 0x20 DUP3 ADD SWAP1 POP DUP2 DUP2 SUB PUSH1 0x0 DUP4 ADD MSTORE PUSH2 0x57B DUP2 PUSH2 0x47B JUMP JUMPDEST SWAP1 POP SWAP2 SWAP1 POP JUMP JUMPDEST PUSH1 0x0 PUSH1 0x20 DUP3 ADD SWAP1 POP PUSH2 0x597 PUSH1 0x0 DUP4 ADD DUP5 PUSH2 0x49E JUMP JUMPDEST SWAP3 SWAP2 POP POP JUMP JUMPDEST PUSH1 0x0 DUP3 DUP3 MSTORE PUSH1 0x20 DUP3 ADD SWAP1 POP SWAP3 SWAP2 POP POP JUMP JUMPDEST PUSH1 0x0 PUSH2 0x5B9 DUP3 PUSH2 0x5C0 JUMP JUMPDEST SWAP1 POP SWAP2 SWAP1 POP JUMP JUMPDEST PUSH1 0x0 PUSH20 0xFFFFFFFFFFFFFFFFFFFFFFFFFFFFFFFFFFFFFFFF DUP3 AND SWAP1 POP SWAP2 SWAP1 POP JUMP JUMPDEST PUSH1 0x0 DUP2 SWAP1 POP SWAP2 SWAP1 POP JUMP JUMPDEST PUSH1 0x0 PUSH2 0x5F5 DUP3 PUSH2 0x632 JUMP JUMPDEST SWAP1 POP SWAP2 SWAP1 POP JUMP JUMPDEST PUSH1 0x0 PUSH2 0x607 DUP3 PUSH2 0x632 JUMP JUMPDEST SWAP1 POP SWAP2 SWAP1 POP JUMP JUMPDEST PUSH1 0x0 PUSH2 0x619 DUP3 PUSH2 0x632 JUMP JUMPDEST SWAP1 POP SWAP2 SWAP1 POP JUMP JUMPDEST PUSH1 0x0 PUSH2 0x62B DUP3 PUSH2 0x5E0 JUMP JUMPDEST SWAP1 POP SWAP2 SWAP1 POP JUMP JUMPDEST PUSH1 0x0 PUSH2 0x63D DUP3 PUSH2 0x644 JUMP JUMPDEST SWAP1 POP SWAP2 SWAP1 POP JUMP JUMPDEST PUSH1 0x0 PUSH2 0x64F DUP3 PUSH2 0x5C0 JUMP JUMPDEST SWAP1 POP SWAP2 SWAP1 POP JUMP JUMPDEST PUSH1 0x0 DUP1 REVERT JUMPDEST PUSH32 0x4E6F74206F776E65720000000000000000000000000000000000000000000000 PUSH1 0x0 DUP3 ADD MSTORE POP JUMP JUMPDEST PUSH32 0x5265656E7472616E637947756172643A207265656E7472616E742063616C6C00 PUSH1 0x0 DUP3 ADD MSTORE POP JUMP JUMPDEST PUSH2 0x6B6 DUP2 PUSH2 0x5AE JUMP JUMPDEST DUP2 EQ PUSH2 0x6C1 JUMPI PUSH1 0x0 DUP1 REVERT JUMPDEST POP JUMP JUMPDEST PUSH2 0x6CD DUP2 PUSH2 0x5E0 JUMP JUMPDEST DUP2 EQ PUSH2 0x6D8 JUMPI PUSH1 0x0 DUP1 REVERT JUMPDEST POP JUMP INVALID LOG2 PUSH5 0x6970667358 0x22 SLT KECCAK256 0x28 SLT ADDRESS STATICCALL LOG3 STATICCALL 0xCC LOG1 MLOAD DUP8 0xB5 KECCAK256 0x2F 0xCF GASLIMIT 0xF6 EXP DUP11 DUP15 0x5D CALLVALUE PUSH22 0xB60A3DA5BFCFE54396A064736F6C6343000807003300 "
				},
				"gasEstimates": {
					"creation": {
						"codeDepositCost": "361800",
						"executionCost": "infinite",
						"totalCost": "infinite"
					},
					"external": {
						"parentNFT()": "2644",
						"parentNFTAddress()": "2492",
						"parentNftFunctions()": "2666",
						"parentToken()": "2600",
						"stake(uint256)": "infinite"
					}
				},
				"methodIdentifiers": {
					"parentNFT()": "b8e33fb2",
					"parentNFTAddress()": "66bb863b",
					"parentNftFunctions()": "fead3d6e",
					"parentToken()": "80a54001",
					"stake(uint256)": "a694fc3a"
				}
			},
			"storageLayout": {
				"storage": [
					{
						"astId": 10,
						"contract": "contracts/Missions.sol:Staking",
						"label": "_status",
						"offset": 0,
						"slot": "0",
						"type": "t_uint256"
					},
					{
						"astId": 263,
						"contract": "contracts/Missions.sol:Staking",
						"label": "parentToken",
						"offset": 0,
						"slot": "1",
						"type": "t_contract(IERC20)117"
					},
					{
						"astId": 266,
						"contract": "contracts/Missions.sol:Staking",
						"label": "parentNFT",
						"offset": 0,
						"slot": "2",
						"type": "t_contract(IERC721)233"
					},
					{
						"astId": 269,
						"contract": "contracts/Missions.sol:Staking",
						"label": "parentNftFunctions",
						"offset": 0,
						"slot": "3",
						"type": "t_contract(INFTGame)258"
					},
					{
						"astId": 271,
						"contract": "contracts/Missions.sol:Staking",
						"label": "parentNFTAddress",
						"offset": 0,
						"slot": "4",
						"type": "t_address"
					}
				],
				"types": {
					"t_address": {
						"encoding": "inplace",
						"label": "address",
						"numberOfBytes": "20"
					},
					"t_contract(IERC20)117": {
						"encoding": "inplace",
						"label": "contract IERC20",
						"numberOfBytes": "20"
					},
					"t_contract(IERC721)233": {
						"encoding": "inplace",
						"label": "contract IERC721",
						"numberOfBytes": "20"
					},
					"t_contract(INFTGame)258": {
						"encoding": "inplace",
						"label": "contract INFTGame",
						"numberOfBytes": "20"
					},
					"t_uint256": {
						"encoding": "inplace",
						"label": "uint256",
						"numberOfBytes": "32"
					}
				}
			},
			"userdoc": {
				"kind": "user",
				"methods": {},
				"version": 1
			}
		}
	}
}