{
	"contracts/Missions.sol": {
		"Staking": {
			"abi": [
				{
					"inputs": [
						{
							"internalType": "address",
							"name": "_nftContract",
							"type": "address"
						},
						{
							"internalType": "address",
							"name": "_tokenContract",
							"type": "address"
						}
					],
					"stateMutability": "nonpayable",
					"type": "constructor"
				},
				{
					"inputs": [
						{
							"internalType": "uint256",
							"name": "_tokenID",
							"type": "uint256"
						}
					],
					"name": "claim",
					"outputs": [],
					"stateMutability": "nonpayable",
					"type": "function"
				},
				{
					"inputs": [
						{
							"internalType": "uint256",
							"name": "_tokenID",
							"type": "uint256"
						}
					],
					"name": "claimedTrophies",
					"outputs": [
						{
							"internalType": "uint256",
							"name": "",
							"type": "uint256"
						}
					],
					"stateMutability": "view",
					"type": "function"
				},
				{
					"inputs": [],
					"name": "parentNFT",
					"outputs": [
						{
							"internalType": "contract IERC721",
							"name": "",
							"type": "address"
						}
					],
					"stateMutability": "view",
					"type": "function"
				},
				{
					"inputs": [],
					"name": "parentNFTAddress",
					"outputs": [
						{
							"internalType": "address",
							"name": "",
							"type": "address"
						}
					],
					"stateMutability": "view",
					"type": "function"
				},
				{
					"inputs": [],
					"name": "parentNftFunctions",
					"outputs": [
						{
							"internalType": "contract INFTGame",
							"name": "",
							"type": "address"
						}
					],
					"stateMutability": "view",
					"type": "function"
				},
				{
					"inputs": [],
					"name": "parentToken",
					"outputs": [
						{
							"internalType": "contract IERC20",
							"name": "",
							"type": "address"
						}
					],
					"stateMutability": "view",
					"type": "function"
				},
				{
					"inputs": [
						{
							"internalType": "uint256",
							"name": "_tokenID",
							"type": "uint256"
						}
					],
					"name": "refreshTrophies",
					"outputs": [],
					"stateMutability": "nonpayable",
					"type": "function"
				},
				{
					"inputs": [
						{
							"internalType": "uint256",
							"name": "_tokenID",
							"type": "uint256"
						}
					],
					"name": "stake",
					"outputs": [],
					"stateMutability": "nonpayable",
					"type": "function"
				},
				{
					"inputs": [
						{
							"internalType": "uint256",
							"name": "_tokenID",
							"type": "uint256"
						}
					],
					"name": "unstake",
					"outputs": [],
					"stateMutability": "nonpayable",
					"type": "function"
				}
			],
			"devdoc": {
				"kind": "dev",
				"methods": {},
				"version": 1
			},
			"evm": {
				"assembly": "    /* \"contracts/Missions.sol\":341:3444  contract Staking is ReentrancyGuard {\r... */\n  mstore(0x40, 0x80)\n    /* \"contracts/Missions.sol\":526:788  constructor(address _nftContract, address _tokenContract){\r... */\n  callvalue\n  dup1\n  iszero\n  tag_1\n  jumpi\n  0x00\n  dup1\n  revert\ntag_1:\n  pop\n  mload(0x40)\n  sub(codesize, bytecodeSize)\n  dup1\n  bytecodeSize\n  dup4\n  codecopy\n  dup2\n  dup2\n  add\n  0x40\n  mstore\n  dup2\n  add\n  swap1\n  tag_2\n  swap2\n  swap1\n  tag_3\n  jump\t// in\ntag_2:\n    /* \"@openzeppelin/contracts/security/ReentrancyGuard.sol\":1701:1702  1 */\n  0x01\n    /* \"@openzeppelin/contracts/security/ReentrancyGuard.sol\":1806:1813  _status */\n  0x00\n    /* \"@openzeppelin/contracts/security/ReentrancyGuard.sol\":1806:1828  _status = _NOT_ENTERED */\n  dup2\n  swap1\n  sstore\n  pop\n    /* \"contracts/Missions.sol\":614:626  _nftContract */\n  dup2\n    /* \"contracts/Missions.sol\":594:603  parentNFT */\n  0x02\n  0x00\n    /* \"contracts/Missions.sol\":594:627  parentNFT = IERC721(_nftContract) */\n  0x0100\n  exp\n  dup2\n  sload\n  dup2\n  0xffffffffffffffffffffffffffffffffffffffff\n  mul\n  not\n  and\n  swap1\n  dup4\n  0xffffffffffffffffffffffffffffffffffffffff\n  and\n  mul\n  or\n  swap1\n  sstore\n  pop\n    /* \"contracts/Missions.sol\":668:680  _nftContract */\n  dup2\n    /* \"contracts/Missions.sol\":638:656  parentNftFunctions */\n  0x03\n  0x00\n    /* \"contracts/Missions.sol\":638:681  parentNftFunctions = INFTGame(_nftContract) */\n  0x0100\n  exp\n  dup2\n  sload\n  dup2\n  0xffffffffffffffffffffffffffffffffffffffff\n  mul\n  not\n  and\n  swap1\n  dup4\n  0xffffffffffffffffffffffffffffffffffffffff\n  and\n  mul\n  or\n  swap1\n  sstore\n  pop\n    /* \"contracts/Missions.sol\":713:727  _tokenContract */\n  dup1\n    /* \"contracts/Missions.sol\":692:703  parentToken */\n  0x01\n  0x00\n    /* \"contracts/Missions.sol\":692:728  parentToken = IERC20(_tokenContract) */\n  0x0100\n  exp\n  dup2\n  sload\n  dup2\n  0xffffffffffffffffffffffffffffffffffffffff\n  mul\n  not\n  and\n  swap1\n  dup4\n  0xffffffffffffffffffffffffffffffffffffffff\n  and\n  mul\n  or\n  swap1\n  sstore\n  pop\n    /* \"contracts/Missions.sol\":758:770  _nftContract */\n  dup2\n    /* \"contracts/Missions.sol\":739:755  parentNFTAddress */\n  0x04\n  0x00\n    /* \"contracts/Missions.sol\":739:770  parentNFTAddress = _nftContract */\n  0x0100\n  exp\n  dup2\n  sload\n  dup2\n  0xffffffffffffffffffffffffffffffffffffffff\n  mul\n  not\n  and\n  swap1\n  dup4\n  0xffffffffffffffffffffffffffffffffffffffff\n  and\n  mul\n  or\n  swap1\n  sstore\n  pop\n    /* \"contracts/Missions.sol\":526:788  constructor(address _nftContract, address _tokenContract){\r... */\n  pop\n  pop\n    /* \"contracts/Missions.sol\":341:3444  contract Staking is ReentrancyGuard {\r... */\n  jump(tag_8)\n    /* \"#utility.yul\":7:150   */\ntag_10:\n    /* \"#utility.yul\":64:69   */\n  0x00\n    /* \"#utility.yul\":95:101   */\n  dup2\n    /* \"#utility.yul\":89:102   */\n  mload\n    /* \"#utility.yul\":80:102   */\n  swap1\n  pop\n    /* \"#utility.yul\":111:144   */\n  tag_12\n    /* \"#utility.yul\":138:143   */\n  dup2\n    /* \"#utility.yul\":111:144   */\n  tag_13\n  jump\t// in\ntag_12:\n    /* \"#utility.yul\":7:150   */\n  swap3\n  swap2\n  pop\n  pop\n  jump\t// out\n    /* \"#utility.yul\":156:663   */\ntag_3:\n    /* \"#utility.yul\":235:241   */\n  0x00\n    /* \"#utility.yul\":243:249   */\n  dup1\n    /* \"#utility.yul\":292:294   */\n  0x40\n    /* \"#utility.yul\":280:289   */\n  dup4\n    /* \"#utility.yul\":271:278   */\n  dup6\n    /* \"#utility.yul\":267:290   */\n  sub\n    /* \"#utility.yul\":263:295   */\n  slt\n    /* \"#utility.yul\":260:379   */\n  iszero\n  tag_15\n  jumpi\n    /* \"#utility.yul\":298:377   */\n  tag_16\n  tag_17\n  jump\t// in\ntag_16:\n    /* \"#utility.yul\":260:379   */\ntag_15:\n    /* \"#utility.yul\":418:419   */\n  0x00\n    /* \"#utility.yul\":443:507   */\n  tag_18\n    /* \"#utility.yul\":499:506   */\n  dup6\n    /* \"#utility.yul\":490:496   */\n  dup3\n    /* \"#utility.yul\":479:488   */\n  dup7\n    /* \"#utility.yul\":475:497   */\n  add\n    /* \"#utility.yul\":443:507   */\n  tag_10\n  jump\t// in\ntag_18:\n    /* \"#utility.yul\":433:507   */\n  swap3\n  pop\n    /* \"#utility.yul\":389:517   */\n  pop\n    /* \"#utility.yul\":556:558   */\n  0x20\n    /* \"#utility.yul\":582:646   */\n  tag_19\n    /* \"#utility.yul\":638:645   */\n  dup6\n    /* \"#utility.yul\":629:635   */\n  dup3\n    /* \"#utility.yul\":618:627   */\n  dup7\n    /* \"#utility.yul\":614:636   */\n  add\n    /* \"#utility.yul\":582:646   */\n  tag_10\n  jump\t// in\ntag_19:\n    /* \"#utility.yul\":572:646   */\n  swap2\n  pop\n    /* \"#utility.yul\":527:656   */\n  pop\n    /* \"#utility.yul\":156:663   */\n  swap3\n  pop\n  swap3\n  swap1\n  pop\n  jump\t// out\n    /* \"#utility.yul\":750:846   */\ntag_22:\n    /* \"#utility.yul\":787:794   */\n  0x00\n    /* \"#utility.yul\":816:840   */\n  tag_24\n    /* \"#utility.yul\":834:839   */\n  dup3\n    /* \"#utility.yul\":816:840   */\n  tag_25\n  jump\t// in\ntag_24:\n    /* \"#utility.yul\":805:840   */\n  swap1\n  pop\n    /* \"#utility.yul\":750:846   */\n  swap2\n  swap1\n  pop\n  jump\t// out\n    /* \"#utility.yul\":852:978   */\ntag_25:\n    /* \"#utility.yul\":889:896   */\n  0x00\n    /* \"#utility.yul\":929:971   */\n  0xffffffffffffffffffffffffffffffffffffffff\n    /* \"#utility.yul\":922:927   */\n  dup3\n    /* \"#utility.yul\":918:972   */\n  and\n    /* \"#utility.yul\":907:972   */\n  swap1\n  pop\n    /* \"#utility.yul\":852:978   */\n  swap2\n  swap1\n  pop\n  jump\t// out\n    /* \"#utility.yul\":1107:1224   */\ntag_17:\n    /* \"#utility.yul\":1216:1217   */\n  0x00\n    /* \"#utility.yul\":1213:1214   */\n  dup1\n    /* \"#utility.yul\":1206:1218   */\n  revert\n    /* \"#utility.yul\":1230:1352   */\ntag_13:\n    /* \"#utility.yul\":1303:1327   */\n  tag_31\n    /* \"#utility.yul\":1321:1326   */\n  dup2\n    /* \"#utility.yul\":1303:1327   */\n  tag_22\n  jump\t// in\ntag_31:\n    /* \"#utility.yul\":1296:1301   */\n  dup2\n    /* \"#utility.yul\":1293:1328   */\n  eq\n    /* \"#utility.yul\":1283:1346   */\n  tag_32\n  jumpi\n    /* \"#utility.yul\":1342:1343   */\n  0x00\n    /* \"#utility.yul\":1339:1340   */\n  dup1\n    /* \"#utility.yul\":1332:1344   */\n  revert\n    /* \"#utility.yul\":1283:1346   */\ntag_32:\n    /* \"#utility.yul\":1230:1352   */\n  pop\n  jump\t// out\n    /* \"contracts/Missions.sol\":341:3444  contract Staking is ReentrancyGuard {\r... */\ntag_8:\n  dataSize(sub_0)\n  dup1\n  dataOffset(sub_0)\n  0x00\n  codecopy\n  0x00\n  return\nstop\n\nsub_0: assembly {\n        /* \"contracts/Missions.sol\":341:3444  contract Staking is ReentrancyGuard {\r... */\n      mstore(0x40, 0x80)\n      callvalue\n      dup1\n      iszero\n      tag_1\n      jumpi\n      0x00\n      dup1\n      revert\n    tag_1:\n      pop\n      jumpi(tag_2, lt(calldatasize, 0x04))\n      shr(0xe0, calldataload(0x00))\n      dup1\n      0x66bb863b\n      gt\n      tag_12\n      jumpi\n      dup1\n      0x66bb863b\n      eq\n      tag_7\n      jumpi\n      dup1\n      0x80a54001\n      eq\n      tag_8\n      jumpi\n      dup1\n      0xa694fc3a\n      eq\n      tag_9\n      jumpi\n      dup1\n      0xb8e33fb2\n      eq\n      tag_10\n      jumpi\n      dup1\n      0xfead3d6e\n      eq\n      tag_11\n      jumpi\n      jump(tag_2)\n    tag_12:\n      dup1\n      0x0eeadd30\n      eq\n      tag_3\n      jumpi\n      dup1\n      0x2e17de78\n      eq\n      tag_4\n      jumpi\n      dup1\n      0x379607f5\n      eq\n      tag_5\n      jumpi\n      dup1\n      0x53eebc6d\n      eq\n      tag_6\n      jumpi\n    tag_2:\n      0x00\n      dup1\n      revert\n        /* \"contracts/Missions.sol\":1086:1245  function refreshTrophies(uint256 _tokenID) public {\r... */\n    tag_3:\n      tag_13\n      0x04\n      dup1\n      calldatasize\n      sub\n      dup2\n      add\n      swap1\n      tag_14\n      swap2\n      swap1\n      tag_15\n      jump\t// in\n    tag_14:\n      tag_16\n      jump\t// in\n    tag_13:\n      stop\n        /* \"contracts/Missions.sol\":2548:3395  function unstake(uint256 _tokenID) public {\r... */\n    tag_4:\n      tag_17\n      0x04\n      dup1\n      calldatasize\n      sub\n      dup2\n      add\n      swap1\n      tag_18\n      swap2\n      swap1\n      tag_15\n      jump\t// in\n    tag_18:\n      tag_19\n      jump\t// in\n    tag_17:\n      stop\n        /* \"contracts/Missions.sol\":1746:2542  function claim(uint256 _tokenID) public nonReentrant {\r... */\n    tag_5:\n      tag_20\n      0x04\n      dup1\n      calldatasize\n      sub\n      dup2\n      add\n      swap1\n      tag_21\n      swap2\n      swap1\n      tag_15\n      jump\t// in\n    tag_21:\n      tag_22\n      jump\t// in\n    tag_20:\n      stop\n        /* \"contracts/Missions.sol\":1251:1388  function claimedTrophies(uint256 _tokenID) public view returns (uint256){\r... */\n    tag_6:\n      tag_23\n      0x04\n      dup1\n      calldatasize\n      sub\n      dup2\n      add\n      swap1\n      tag_24\n      swap2\n      swap1\n      tag_15\n      jump\t// in\n    tag_24:\n      tag_25\n      jump\t// in\n    tag_23:\n      mload(0x40)\n      tag_26\n      swap2\n      swap1\n      tag_27\n      jump\t// in\n    tag_26:\n      mload(0x40)\n      dup1\n      swap2\n      sub\n      swap1\n      return\n        /* \"contracts/Missions.sol\":488:519  address public parentNFTAddress */\n    tag_7:\n      tag_28\n      tag_29\n      jump\t// in\n    tag_28:\n      mload(0x40)\n      tag_30\n      swap2\n      swap1\n      tag_31\n      jump\t// in\n    tag_30:\n      mload(0x40)\n      dup1\n      swap2\n      sub\n      swap1\n      return\n        /* \"contracts/Missions.sol\":384:409  IERC20 public parentToken */\n    tag_8:\n      tag_32\n      tag_33\n      jump\t// in\n    tag_32:\n      mload(0x40)\n      tag_34\n      swap2\n      swap1\n      tag_35\n      jump\t// in\n    tag_34:\n      mload(0x40)\n      dup1\n      swap2\n      sub\n      swap1\n      return\n        /* \"contracts/Missions.sol\":1394:1734  function stake(uint256 _tokenID) public nonReentrant() {\r... */\n    tag_9:\n      tag_36\n      0x04\n      dup1\n      calldatasize\n      sub\n      dup2\n      add\n      swap1\n      tag_37\n      swap2\n      swap1\n      tag_15\n      jump\t// in\n    tag_37:\n      tag_38\n      jump\t// in\n    tag_36:\n      stop\n        /* \"contracts/Missions.sol\":416:440  IERC721 public parentNFT */\n    tag_10:\n      tag_39\n      tag_40\n      jump\t// in\n    tag_39:\n      mload(0x40)\n      tag_41\n      swap2\n      swap1\n      tag_42\n      jump\t// in\n    tag_41:\n      mload(0x40)\n      dup1\n      swap2\n      sub\n      swap1\n      return\n        /* \"contracts/Missions.sol\":447:481  INFTGame public parentNftFunctions */\n    tag_11:\n      tag_43\n      tag_44\n      jump\t// in\n    tag_43:\n      mload(0x40)\n      tag_45\n      swap2\n      swap1\n      tag_46\n      jump\t// in\n    tag_45:\n      mload(0x40)\n      dup1\n      swap2\n      sub\n      swap1\n      return\n        /* \"contracts/Missions.sol\":1086:1245  function refreshTrophies(uint256 _tokenID) public {\r... */\n    tag_16:\n        /* \"contracts/Missions.sol\":1188:1206  parentNftFunctions */\n      0x03\n      0x00\n      swap1\n      sload\n      swap1\n      0x0100\n      exp\n      swap1\n      div\n      0xffffffffffffffffffffffffffffffffffffffff\n      and\n        /* \"contracts/Missions.sol\":1188:1218  parentNftFunctions.getTrophies */\n      0xffffffffffffffffffffffffffffffffffffffff\n      and\n      0xa0c4442d\n        /* \"contracts/Missions.sol\":1219:1227  _tokenID */\n      dup3\n        /* \"contracts/Missions.sol\":1188:1228  parentNftFunctions.getTrophies(_tokenID) */\n      mload(0x40)\n      dup3\n      0xffffffff\n      and\n      0xe0\n      shl\n      dup2\n      mstore\n      0x04\n      add\n      tag_48\n      swap2\n      swap1\n      tag_27\n      jump\t// in\n    tag_48:\n      0x20\n      mload(0x40)\n      dup1\n      dup4\n      sub\n      dup2\n      0x00\n      dup8\n      dup1\n      extcodesize\n      iszero\n      dup1\n      iszero\n      tag_49\n      jumpi\n      0x00\n      dup1\n      revert\n    tag_49:\n      pop\n      gas\n      call\n      iszero\n      dup1\n      iszero\n      tag_51\n      jumpi\n      returndatasize\n      0x00\n      dup1\n      returndatacopy\n      revert(0x00, returndatasize)\n    tag_51:\n      pop\n      pop\n      pop\n      pop\n      mload(0x40)\n      returndatasize\n      not(0x1f)\n      0x1f\n      dup3\n      add\n      and\n      dup3\n      add\n      dup1\n      0x40\n      mstore\n      pop\n      dup2\n      add\n      swap1\n      tag_52\n      swap2\n      swap1\n      tag_53\n      jump\t// in\n    tag_52:\n        /* \"contracts/Missions.sol\":1146:1159  s_stakeReview */\n      0x05\n        /* \"contracts/Missions.sol\":1146:1169  s_stakeReview[_tokenID] */\n      0x00\n        /* \"contracts/Missions.sol\":1160:1168  _tokenID */\n      dup4\n        /* \"contracts/Missions.sol\":1146:1169  s_stakeReview[_tokenID] */\n      dup2\n      mstore\n      0x20\n      add\n      swap1\n      dup2\n      mstore\n      0x20\n      add\n      0x00\n      keccak256\n        /* \"contracts/Missions.sol\":1146:1185  s_stakeReview[_tokenID].claimedTrophies */\n      0x01\n      add\n        /* \"contracts/Missions.sol\":1146:1228  s_stakeReview[_tokenID].claimedTrophies = parentNftFunctions.getTrophies(_tokenID) */\n      dup2\n      swap1\n      sstore\n      pop\n        /* \"contracts/Missions.sol\":1086:1245  function refreshTrophies(uint256 _tokenID) public {\r... */\n      pop\n      jump\t// out\n        /* \"contracts/Missions.sol\":2548:3395  function unstake(uint256 _tokenID) public {\r... */\n    tag_19:\n        /* \"contracts/Missions.sol\":2648:2652  this */\n      address\n        /* \"contracts/Missions.sol\":2609:2653  parentNFT.ownerOf(_tokenID) == address(this) */\n      0xffffffffffffffffffffffffffffffffffffffff\n      and\n        /* \"contracts/Missions.sol\":2609:2618  parentNFT */\n      0x02\n      0x00\n      swap1\n      sload\n      swap1\n      0x0100\n      exp\n      swap1\n      div\n      0xffffffffffffffffffffffffffffffffffffffff\n      and\n        /* \"contracts/Missions.sol\":2609:2626  parentNFT.ownerOf */\n      0xffffffffffffffffffffffffffffffffffffffff\n      and\n      0x6352211e\n        /* \"contracts/Missions.sol\":2627:2635  _tokenID */\n      dup4\n        /* \"contracts/Missions.sol\":2609:2636  parentNFT.ownerOf(_tokenID) */\n      mload(0x40)\n      dup3\n      0xffffffff\n      and\n      0xe0\n      shl\n      dup2\n      mstore\n      0x04\n      add\n      tag_55\n      swap2\n      swap1\n      tag_27\n      jump\t// in\n    tag_55:\n      0x20\n      mload(0x40)\n      dup1\n      dup4\n      sub\n      dup2\n      dup7\n      dup1\n      extcodesize\n      iszero\n      dup1\n      iszero\n      tag_56\n      jumpi\n      0x00\n      dup1\n      revert\n    tag_56:\n      pop\n      gas\n      staticcall\n      iszero\n      dup1\n      iszero\n      tag_58\n      jumpi\n      returndatasize\n      0x00\n      dup1\n      returndatacopy\n      revert(0x00, returndatasize)\n    tag_58:\n      pop\n      pop\n      pop\n      pop\n      mload(0x40)\n      returndatasize\n      not(0x1f)\n      0x1f\n      dup3\n      add\n      and\n      dup3\n      add\n      dup1\n      0x40\n      mstore\n      pop\n      dup2\n      add\n      swap1\n      tag_59\n      swap2\n      swap1\n      tag_60\n      jump\t// in\n    tag_59:\n        /* \"contracts/Missions.sol\":2609:2653  parentNFT.ownerOf(_tokenID) == address(this) */\n      0xffffffffffffffffffffffffffffffffffffffff\n      and\n      eq\n        /* \"contracts/Missions.sol\":2601:2668  require(parentNFT.ownerOf(_tokenID) == address(this), \"Not staked\") */\n      tag_61\n      jumpi\n      mload(0x40)\n      0x08c379a000000000000000000000000000000000000000000000000000000000\n      dup2\n      mstore\n      0x04\n      add\n      tag_62\n      swap1\n      tag_63\n      jump\t// in\n    tag_62:\n      mload(0x40)\n      dup1\n      swap2\n      sub\n      swap1\n      revert\n    tag_61:\n        /* \"contracts/Missions.sol\":2724:2734  msg.sender */\n      caller\n        /* \"contracts/Missions.sol\":2687:2734  s_stakeReview[_tokenID].realOwner == msg.sender */\n      0xffffffffffffffffffffffffffffffffffffffff\n      and\n        /* \"contracts/Missions.sol\":2687:2700  s_stakeReview */\n      0x05\n        /* \"contracts/Missions.sol\":2687:2710  s_stakeReview[_tokenID] */\n      0x00\n        /* \"contracts/Missions.sol\":2701:2709  _tokenID */\n      dup4\n        /* \"contracts/Missions.sol\":2687:2710  s_stakeReview[_tokenID] */\n      dup2\n      mstore\n      0x20\n      add\n      swap1\n      dup2\n      mstore\n      0x20\n      add\n      0x00\n      keccak256\n        /* \"contracts/Missions.sol\":2687:2720  s_stakeReview[_tokenID].realOwner */\n      0x00\n      add\n      0x00\n      swap1\n      sload\n      swap1\n      0x0100\n      exp\n      swap1\n      div\n      0xffffffffffffffffffffffffffffffffffffffff\n      and\n        /* \"contracts/Missions.sol\":2687:2734  s_stakeReview[_tokenID].realOwner == msg.sender */\n      0xffffffffffffffffffffffffffffffffffffffff\n      and\n      eq\n        /* \"contracts/Missions.sol\":2679:2752  require(s_stakeReview[_tokenID].realOwner == msg.sender, \"Not realOwner\") */\n      tag_64\n      jumpi\n      mload(0x40)\n      0x08c379a000000000000000000000000000000000000000000000000000000000\n      dup2\n      mstore\n      0x04\n      add\n      tag_65\n      swap1\n      tag_66\n      jump\t// in\n    tag_65:\n      mload(0x40)\n      dup1\n      swap2\n      sub\n      swap1\n      revert\n    tag_64:\n        /* \"contracts/Missions.sol\":2763:2777  uint256 amount */\n      0x00\n        /* \"contracts/Missions.sol\":2885:2898  s_stakeReview */\n      0x05\n        /* \"contracts/Missions.sol\":2885:2908  s_stakeReview[_tokenID] */\n      0x00\n        /* \"contracts/Missions.sol\":2899:2907  _tokenID */\n      dup4\n        /* \"contracts/Missions.sol\":2885:2908  s_stakeReview[_tokenID] */\n      dup2\n      mstore\n      0x20\n      add\n      swap1\n      dup2\n      mstore\n      0x20\n      add\n      0x00\n      keccak256\n        /* \"contracts/Missions.sol\":2885:2924  s_stakeReview[_tokenID].claimedTrophies */\n      0x01\n      add\n      sload\n        /* \"contracts/Missions.sol\":2842:2860  parentNftFunctions */\n      0x03\n      0x00\n      swap1\n      sload\n      swap1\n      0x0100\n      exp\n      swap1\n      div\n      0xffffffffffffffffffffffffffffffffffffffff\n      and\n        /* \"contracts/Missions.sol\":2842:2872  parentNftFunctions.getTrophies */\n      0xffffffffffffffffffffffffffffffffffffffff\n      and\n      0xa0c4442d\n        /* \"contracts/Missions.sol\":2873:2881  _tokenID */\n      dup5\n        /* \"contracts/Missions.sol\":2842:2882  parentNftFunctions.getTrophies(_tokenID) */\n      mload(0x40)\n      dup3\n      0xffffffff\n      and\n      0xe0\n      shl\n      dup2\n      mstore\n      0x04\n      add\n      tag_67\n      swap2\n      swap1\n      tag_27\n      jump\t// in\n    tag_67:\n      0x20\n      mload(0x40)\n      dup1\n      dup4\n      sub\n      dup2\n      0x00\n      dup8\n      dup1\n      extcodesize\n      iszero\n      dup1\n      iszero\n      tag_68\n      jumpi\n      0x00\n      dup1\n      revert\n    tag_68:\n      pop\n      gas\n      call\n      iszero\n      dup1\n      iszero\n      tag_70\n      jumpi\n      returndatasize\n      0x00\n      dup1\n      returndatacopy\n      revert(0x00, returndatasize)\n    tag_70:\n      pop\n      pop\n      pop\n      pop\n      mload(0x40)\n      returndatasize\n      not(0x1f)\n      0x1f\n      dup3\n      add\n      and\n      dup3\n      add\n      dup1\n      0x40\n      mstore\n      pop\n      dup2\n      add\n      swap1\n      tag_71\n      swap2\n      swap1\n      tag_53\n      jump\t// in\n    tag_71:\n        /* \"contracts/Missions.sol\":2842:2924  parentNftFunctions.getTrophies(_tokenID) - s_stakeReview[_tokenID].claimedTrophies */\n      tag_72\n      swap2\n      swap1\n      tag_73\n      jump\t// in\n    tag_72:\n        /* \"contracts/Missions.sol\":2800:2813  s_stakeReview */\n      0x05\n        /* \"contracts/Missions.sol\":2800:2823  s_stakeReview[_tokenID] */\n      0x00\n        /* \"contracts/Missions.sol\":2814:2822  _tokenID */\n      dup5\n        /* \"contracts/Missions.sol\":2800:2823  s_stakeReview[_tokenID] */\n      dup2\n      mstore\n      0x20\n      add\n      swap1\n      dup2\n      mstore\n      0x20\n      add\n      0x00\n      keccak256\n        /* \"contracts/Missions.sol\":2800:2837  s_stakeReview[_tokenID].lastClaimTime */\n      0x02\n      add\n      sload\n        /* \"contracts/Missions.sol\":2782:2797  block.timestamp */\n      timestamp\n        /* \"contracts/Missions.sol\":2782:2837  block.timestamp - s_stakeReview[_tokenID].lastClaimTime */\n      tag_74\n      swap2\n      swap1\n      tag_73\n      jump\t// in\n    tag_74:\n        /* \"contracts/Missions.sol\":2781:2925  (block.timestamp - s_stakeReview[_tokenID].lastClaimTime) + (parentNftFunctions.getTrophies(_tokenID) - s_stakeReview[_tokenID].claimedTrophies) */\n      tag_75\n      swap2\n      swap1\n      tag_76\n      jump\t// in\n    tag_75:\n        /* \"contracts/Missions.sol\":2763:2927  uint256 amount = ((block.timestamp - s_stakeReview[_tokenID].lastClaimTime) + (parentNftFunctions.getTrophies(_tokenID) - s_stakeReview[_tokenID].claimedTrophies) ) */\n      swap1\n      pop\n        /* \"contracts/Missions.sol\":2939:2962  uint256 currentTrophies */\n      0x00\n        /* \"contracts/Missions.sol\":2965:2983  parentNftFunctions */\n      0x03\n      0x00\n      swap1\n      sload\n      swap1\n      0x0100\n      exp\n      swap1\n      div\n      0xffffffffffffffffffffffffffffffffffffffff\n      and\n        /* \"contracts/Missions.sol\":2965:2995  parentNftFunctions.getTrophies */\n      0xffffffffffffffffffffffffffffffffffffffff\n      and\n      0xa0c4442d\n        /* \"contracts/Missions.sol\":2996:3004  _tokenID */\n      dup5\n        /* \"contracts/Missions.sol\":2965:3005  parentNftFunctions.getTrophies(_tokenID) */\n      mload(0x40)\n      dup3\n      0xffffffff\n      and\n      0xe0\n      shl\n      dup2\n      mstore\n      0x04\n      add\n      tag_77\n      swap2\n      swap1\n      tag_27\n      jump\t// in\n    tag_77:\n      0x20\n      mload(0x40)\n      dup1\n      dup4\n      sub\n      dup2\n      0x00\n      dup8\n      dup1\n      extcodesize\n      iszero\n      dup1\n      iszero\n      tag_78\n      jumpi\n      0x00\n      dup1\n      revert\n    tag_78:\n      pop\n      gas\n      call\n      iszero\n      dup1\n      iszero\n      tag_80\n      jumpi\n      returndatasize\n      0x00\n      dup1\n      returndatacopy\n      revert(0x00, returndatasize)\n    tag_80:\n      pop\n      pop\n      pop\n      pop\n      mload(0x40)\n      returndatasize\n      not(0x1f)\n      0x1f\n      dup3\n      add\n      and\n      dup3\n      add\n      dup1\n      0x40\n      mstore\n      pop\n      dup2\n      add\n      swap1\n      tag_81\n      swap2\n      swap1\n      tag_53\n      jump\t// in\n    tag_81:\n        /* \"contracts/Missions.sol\":2939:3005  uint256 currentTrophies = parentNftFunctions.getTrophies(_tokenID) */\n      swap1\n      pop\n        /* \"contracts/Missions.sol\":3020:3031  parentToken */\n      0x01\n      0x00\n      swap1\n      sload\n      swap1\n      0x0100\n      exp\n      swap1\n      div\n      0xffffffffffffffffffffffffffffffffffffffff\n      and\n        /* \"contracts/Missions.sol\":3020:3040  parentToken.transfer */\n      0xffffffffffffffffffffffffffffffffffffffff\n      and\n      0xa9059cbb\n        /* \"contracts/Missions.sol\":3041:3051  msg.sender */\n      caller\n        /* \"contracts/Missions.sol\":3053:3059  amount */\n      dup5\n        /* \"contracts/Missions.sol\":3020:3060  parentToken.transfer(msg.sender, amount) */\n      mload(0x40)\n      dup4\n      0xffffffff\n      and\n      0xe0\n      shl\n      dup2\n      mstore\n      0x04\n      add\n      tag_82\n      swap3\n      swap2\n      swap1\n      tag_83\n      jump\t// in\n    tag_82:\n      0x20\n      mload(0x40)\n      dup1\n      dup4\n      sub\n      dup2\n      0x00\n      dup8\n      dup1\n      extcodesize\n      iszero\n      dup1\n      iszero\n      tag_84\n      jumpi\n      0x00\n      dup1\n      revert\n    tag_84:\n      pop\n      gas\n      call\n      iszero\n      dup1\n      iszero\n      tag_86\n      jumpi\n      returndatasize\n      0x00\n      dup1\n      returndatacopy\n      revert(0x00, returndatasize)\n    tag_86:\n      pop\n      pop\n      pop\n      pop\n      mload(0x40)\n      returndatasize\n      not(0x1f)\n      0x1f\n      dup3\n      add\n      and\n      dup3\n      add\n      dup1\n      0x40\n      mstore\n      pop\n      dup2\n      add\n      swap1\n      tag_87\n      swap2\n      swap1\n      tag_88\n      jump\t// in\n    tag_87:\n        /* \"contracts/Missions.sol\":3016:3261  if (parentToken.transfer(msg.sender, amount)){\r... */\n      iszero\n      tag_89\n      jumpi\n        /* \"contracts/Missions.sol\":3116:3131  block.timestamp */\n      timestamp\n        /* \"contracts/Missions.sol\":3076:3089  s_stakeReview */\n      0x05\n        /* \"contracts/Missions.sol\":3076:3099  s_stakeReview[_tokenID] */\n      0x00\n        /* \"contracts/Missions.sol\":3090:3098  _tokenID */\n      dup6\n        /* \"contracts/Missions.sol\":3076:3099  s_stakeReview[_tokenID] */\n      dup2\n      mstore\n      0x20\n      add\n      swap1\n      dup2\n      mstore\n      0x20\n      add\n      0x00\n      keccak256\n        /* \"contracts/Missions.sol\":3076:3113  s_stakeReview[_tokenID].lastClaimTime */\n      0x02\n      add\n        /* \"contracts/Missions.sol\":3076:3131  s_stakeReview[_tokenID].lastClaimTime = block.timestamp */\n      dup2\n      swap1\n      sstore\n      pop\n        /* \"contracts/Missions.sol\":3209:3222  s_stakeReview */\n      0x05\n        /* \"contracts/Missions.sol\":3209:3232  s_stakeReview[_tokenID] */\n      0x00\n        /* \"contracts/Missions.sol\":3223:3231  _tokenID */\n      dup5\n        /* \"contracts/Missions.sol\":3209:3232  s_stakeReview[_tokenID] */\n      dup2\n      mstore\n      0x20\n      add\n      swap1\n      dup2\n      mstore\n      0x20\n      add\n      0x00\n      keccak256\n        /* \"contracts/Missions.sol\":3209:3248  s_stakeReview[_tokenID].claimedTrophies */\n      0x01\n      add\n      sload\n        /* \"contracts/Missions.sol\":3191:3206  currentTrophies */\n      dup2\n        /* \"contracts/Missions.sol\":3191:3248  currentTrophies - s_stakeReview[_tokenID].claimedTrophies */\n      tag_90\n      swap2\n      swap1\n      tag_73\n      jump\t// in\n    tag_90:\n        /* \"contracts/Missions.sol\":3147:3160  s_stakeReview */\n      0x05\n        /* \"contracts/Missions.sol\":3147:3170  s_stakeReview[_tokenID] */\n      0x00\n        /* \"contracts/Missions.sol\":3161:3169  _tokenID */\n      dup6\n        /* \"contracts/Missions.sol\":3147:3170  s_stakeReview[_tokenID] */\n      dup2\n      mstore\n      0x20\n      add\n      swap1\n      dup2\n      mstore\n      0x20\n      add\n      0x00\n      keccak256\n        /* \"contracts/Missions.sol\":3147:3186  s_stakeReview[_tokenID].claimedTrophies */\n      0x01\n      add\n      0x00\n        /* \"contracts/Missions.sol\":3147:3249  s_stakeReview[_tokenID].claimedTrophies += (currentTrophies - s_stakeReview[_tokenID].claimedTrophies) */\n      dup3\n      dup3\n      sload\n      tag_91\n      swap2\n      swap1\n      tag_76\n      jump\t// in\n    tag_91:\n      swap3\n      pop\n      pop\n      dup2\n      swap1\n      sstore\n      pop\n        /* \"contracts/Missions.sol\":3016:3261  if (parentToken.transfer(msg.sender, amount)){\r... */\n    tag_89:\n        /* \"contracts/Missions.sol\":3271:3280  parentNFT */\n      0x02\n      0x00\n      swap1\n      sload\n      swap1\n      0x0100\n      exp\n      swap1\n      div\n      0xffffffffffffffffffffffffffffffffffffffff\n      and\n        /* \"contracts/Missions.sol\":3271:3293  parentNFT.transferFrom */\n      0xffffffffffffffffffffffffffffffffffffffff\n      and\n      0x23b872dd\n        /* \"contracts/Missions.sol\":3302:3306  this */\n      address\n        /* \"contracts/Missions.sol\":3309:3319  msg.sender */\n      caller\n        /* \"contracts/Missions.sol\":3321:3329  _tokenID */\n      dup7\n        /* \"contracts/Missions.sol\":3271:3330  parentNFT.transferFrom(address(this), msg.sender, _tokenID) */\n      mload(0x40)\n      dup5\n      0xffffffff\n      and\n      0xe0\n      shl\n      dup2\n      mstore\n      0x04\n      add\n      tag_92\n      swap4\n      swap3\n      swap2\n      swap1\n      tag_93\n      jump\t// in\n    tag_92:\n      0x00\n      mload(0x40)\n      dup1\n      dup4\n      sub\n      dup2\n      0x00\n      dup8\n      dup1\n      extcodesize\n      iszero\n      dup1\n      iszero\n      tag_94\n      jumpi\n      0x00\n      dup1\n      revert\n    tag_94:\n      pop\n      gas\n      call\n      iszero\n      dup1\n      iszero\n      tag_96\n      jumpi\n      returndatasize\n      0x00\n      dup1\n      returndatacopy\n      revert(0x00, returndatasize)\n    tag_96:\n      pop\n      pop\n      pop\n      pop\n        /* \"contracts/Missions.sol\":3385:3386  0 */\n      0x00\n        /* \"contracts/Missions.sol\":3341:3354  s_stakeReview */\n      0x05\n        /* \"contracts/Missions.sol\":3341:3364  s_stakeReview[_tokenID] */\n      0x00\n        /* \"contracts/Missions.sol\":3355:3363  _tokenID */\n      dup6\n        /* \"contracts/Missions.sol\":3341:3364  s_stakeReview[_tokenID] */\n      dup2\n      mstore\n      0x20\n      add\n      swap1\n      dup2\n      mstore\n      0x20\n      add\n      0x00\n      keccak256\n        /* \"contracts/Missions.sol\":3341:3374  s_stakeReview[_tokenID].realOwner */\n      0x00\n      add\n      0x00\n        /* \"contracts/Missions.sol\":3341:3387  s_stakeReview[_tokenID].realOwner = address(0) */\n      0x0100\n      exp\n      dup2\n      sload\n      dup2\n      0xffffffffffffffffffffffffffffffffffffffff\n      mul\n      not\n      and\n      swap1\n      dup4\n      0xffffffffffffffffffffffffffffffffffffffff\n      and\n      mul\n      or\n      swap1\n      sstore\n      pop\n        /* \"contracts/Missions.sol\":2590:3395  {\r... */\n      pop\n      pop\n        /* \"contracts/Missions.sol\":2548:3395  function unstake(uint256 _tokenID) public {\r... */\n      pop\n      jump\t// out\n        /* \"contracts/Missions.sol\":1746:2542  function claim(uint256 _tokenID) public nonReentrant {\r... */\n    tag_22:\n        /* \"@openzeppelin/contracts/security/ReentrancyGuard.sol\":1744:1745  2 */\n      0x02\n        /* \"@openzeppelin/contracts/security/ReentrancyGuard.sol\":2325:2332  _status */\n      sload(0x00)\n        /* \"@openzeppelin/contracts/security/ReentrancyGuard.sol\":2325:2344  _status != _ENTERED */\n      eq\n      iszero\n        /* \"@openzeppelin/contracts/security/ReentrancyGuard.sol\":2317:2380  require(_status != _ENTERED, \"ReentrancyGuard: reentrant call\") */\n      tag_98\n      jumpi\n      mload(0x40)\n      0x08c379a000000000000000000000000000000000000000000000000000000000\n      dup2\n      mstore\n      0x04\n      add\n      tag_99\n      swap1\n      tag_100\n      jump\t// in\n    tag_99:\n      mload(0x40)\n      dup1\n      swap2\n      sub\n      swap1\n      revert\n    tag_98:\n        /* \"@openzeppelin/contracts/security/ReentrancyGuard.sol\":1744:1745  2 */\n      0x02\n        /* \"@openzeppelin/contracts/security/ReentrancyGuard.sol\":2455:2462  _status */\n      0x00\n        /* \"@openzeppelin/contracts/security/ReentrancyGuard.sol\":2455:2473  _status = _ENTERED */\n      dup2\n      swap1\n      sstore\n      pop\n        /* \"contracts/Missions.sol\":1858:1859  0 */\n      0x00\n        /* \"contracts/Missions.sol\":1818:1831  s_stakeReview */\n      0x05\n        /* \"contracts/Missions.sol\":1818:1841  s_stakeReview[_tokenID] */\n      0x00\n        /* \"contracts/Missions.sol\":1832:1840  _tokenID */\n      dup4\n        /* \"contracts/Missions.sol\":1818:1841  s_stakeReview[_tokenID] */\n      dup2\n      mstore\n      0x20\n      add\n      swap1\n      dup2\n      mstore\n      0x20\n      add\n      0x00\n      keccak256\n        /* \"contracts/Missions.sol\":1818:1855  s_stakeReview[_tokenID].lastClaimTime */\n      0x02\n      add\n      sload\n        /* \"contracts/Missions.sol\":1818:1859  s_stakeReview[_tokenID].lastClaimTime > 0 */\n      gt\n        /* \"contracts/Missions.sol\":1810:1861  require(s_stakeReview[_tokenID].lastClaimTime > 0 ) */\n      tag_102\n      jumpi\n      0x00\n      dup1\n      revert\n    tag_102:\n        /* \"contracts/Missions.sol\":1917:1927  msg.sender */\n      caller\n        /* \"contracts/Missions.sol\":1880:1927  s_stakeReview[_tokenID].realOwner == msg.sender */\n      0xffffffffffffffffffffffffffffffffffffffff\n      and\n        /* \"contracts/Missions.sol\":1880:1893  s_stakeReview */\n      0x05\n        /* \"contracts/Missions.sol\":1880:1903  s_stakeReview[_tokenID] */\n      0x00\n        /* \"contracts/Missions.sol\":1894:1902  _tokenID */\n      dup4\n        /* \"contracts/Missions.sol\":1880:1903  s_stakeReview[_tokenID] */\n      dup2\n      mstore\n      0x20\n      add\n      swap1\n      dup2\n      mstore\n      0x20\n      add\n      0x00\n      keccak256\n        /* \"contracts/Missions.sol\":1880:1913  s_stakeReview[_tokenID].realOwner */\n      0x00\n      add\n      0x00\n      swap1\n      sload\n      swap1\n      0x0100\n      exp\n      swap1\n      div\n      0xffffffffffffffffffffffffffffffffffffffff\n      and\n        /* \"contracts/Missions.sol\":1880:1927  s_stakeReview[_tokenID].realOwner == msg.sender */\n      0xffffffffffffffffffffffffffffffffffffffff\n      and\n      eq\n        /* \"contracts/Missions.sol\":1872:1928  require(s_stakeReview[_tokenID].realOwner == msg.sender) */\n      tag_103\n      jumpi\n      0x00\n      dup1\n      revert\n    tag_103:\n        /* \"contracts/Missions.sol\":1983:2001  parentNftFunctions */\n      0x03\n      0x00\n      swap1\n      sload\n      swap1\n      0x0100\n      exp\n      swap1\n      div\n      0xffffffffffffffffffffffffffffffffffffffff\n      and\n        /* \"contracts/Missions.sol\":1983:2013  parentNftFunctions.getTrophies */\n      0xffffffffffffffffffffffffffffffffffffffff\n      and\n      0xa0c4442d\n        /* \"contracts/Missions.sol\":2014:2022  _tokenID */\n      dup3\n        /* \"contracts/Missions.sol\":1983:2023  parentNftFunctions.getTrophies(_tokenID) */\n      mload(0x40)\n      dup3\n      0xffffffff\n      and\n      0xe0\n      shl\n      dup2\n      mstore\n      0x04\n      add\n      tag_104\n      swap2\n      swap1\n      tag_27\n      jump\t// in\n    tag_104:\n      0x20\n      mload(0x40)\n      dup1\n      dup4\n      sub\n      dup2\n      0x00\n      dup8\n      dup1\n      extcodesize\n      iszero\n      dup1\n      iszero\n      tag_105\n      jumpi\n      0x00\n      dup1\n      revert\n    tag_105:\n      pop\n      gas\n      call\n      iszero\n      dup1\n      iszero\n      tag_107\n      jumpi\n      returndatasize\n      0x00\n      dup1\n      returndatacopy\n      revert(0x00, returndatasize)\n    tag_107:\n      pop\n      pop\n      pop\n      pop\n      mload(0x40)\n      returndatasize\n      not(0x1f)\n      0x1f\n      dup3\n      add\n      and\n      dup3\n      add\n      dup1\n      0x40\n      mstore\n      pop\n      dup2\n      add\n      swap1\n      tag_108\n      swap2\n      swap1\n      tag_53\n      jump\t// in\n    tag_108:\n        /* \"contracts/Missions.sol\":1941:1954  s_stakeReview */\n      0x05\n        /* \"contracts/Missions.sol\":1941:1964  s_stakeReview[_tokenID] */\n      0x00\n        /* \"contracts/Missions.sol\":1955:1963  _tokenID */\n      dup4\n        /* \"contracts/Missions.sol\":1941:1964  s_stakeReview[_tokenID] */\n      dup2\n      mstore\n      0x20\n      add\n      swap1\n      dup2\n      mstore\n      0x20\n      add\n      0x00\n      keccak256\n        /* \"contracts/Missions.sol\":1941:1980  s_stakeReview[_tokenID].claimedTrophies */\n      0x01\n      add\n        /* \"contracts/Missions.sol\":1941:2023  s_stakeReview[_tokenID].claimedTrophies = parentNftFunctions.getTrophies(_tokenID) */\n      dup2\n      swap1\n      sstore\n      pop\n        /* \"contracts/Missions.sol\":2034:2057  uint256 currentTrophies */\n      0x00\n        /* \"contracts/Missions.sol\":2060:2078  parentNftFunctions */\n      0x03\n      0x00\n      swap1\n      sload\n      swap1\n      0x0100\n      exp\n      swap1\n      div\n      0xffffffffffffffffffffffffffffffffffffffff\n      and\n        /* \"contracts/Missions.sol\":2060:2090  parentNftFunctions.getTrophies */\n      0xffffffffffffffffffffffffffffffffffffffff\n      and\n      0xa0c4442d\n        /* \"contracts/Missions.sol\":2091:2099  _tokenID */\n      dup4\n        /* \"contracts/Missions.sol\":2060:2100  parentNftFunctions.getTrophies(_tokenID) */\n      mload(0x40)\n      dup3\n      0xffffffff\n      and\n      0xe0\n      shl\n      dup2\n      mstore\n      0x04\n      add\n      tag_109\n      swap2\n      swap1\n      tag_27\n      jump\t// in\n    tag_109:\n      0x20\n      mload(0x40)\n      dup1\n      dup4\n      sub\n      dup2\n      0x00\n      dup8\n      dup1\n      extcodesize\n      iszero\n      dup1\n      iszero\n      tag_110\n      jumpi\n      0x00\n      dup1\n      revert\n    tag_110:\n      pop\n      gas\n      call\n      iszero\n      dup1\n      iszero\n      tag_112\n      jumpi\n      returndatasize\n      0x00\n      dup1\n      returndatacopy\n      revert(0x00, returndatasize)\n    tag_112:\n      pop\n      pop\n      pop\n      pop\n      mload(0x40)\n      returndatasize\n      not(0x1f)\n      0x1f\n      dup3\n      add\n      and\n      dup3\n      add\n      dup1\n      0x40\n      mstore\n      pop\n      dup2\n      add\n      swap1\n      tag_113\n      swap2\n      swap1\n      tag_53\n      jump\t// in\n    tag_113:\n        /* \"contracts/Missions.sol\":2034:2100  uint256 currentTrophies = parentNftFunctions.getTrophies(_tokenID) */\n      swap1\n      pop\n        /* \"contracts/Missions.sol\":2111:2125  uint256 amount */\n      0x00\n        /* \"contracts/Missions.sol\":2208:2221  s_stakeReview */\n      0x05\n        /* \"contracts/Missions.sol\":2208:2231  s_stakeReview[_tokenID] */\n      0x00\n        /* \"contracts/Missions.sol\":2222:2230  _tokenID */\n      dup5\n        /* \"contracts/Missions.sol\":2208:2231  s_stakeReview[_tokenID] */\n      dup2\n      mstore\n      0x20\n      add\n      swap1\n      dup2\n      mstore\n      0x20\n      add\n      0x00\n      keccak256\n        /* \"contracts/Missions.sol\":2208:2247  s_stakeReview[_tokenID].claimedTrophies */\n      0x01\n      add\n      sload\n        /* \"contracts/Missions.sol\":2190:2205  currentTrophies */\n      dup3\n        /* \"contracts/Missions.sol\":2190:2247  currentTrophies - s_stakeReview[_tokenID].claimedTrophies */\n      tag_114\n      swap2\n      swap1\n      tag_73\n      jump\t// in\n    tag_114:\n        /* \"contracts/Missions.sol\":2148:2161  s_stakeReview */\n      0x05\n        /* \"contracts/Missions.sol\":2148:2171  s_stakeReview[_tokenID] */\n      0x00\n        /* \"contracts/Missions.sol\":2162:2170  _tokenID */\n      dup6\n        /* \"contracts/Missions.sol\":2148:2171  s_stakeReview[_tokenID] */\n      dup2\n      mstore\n      0x20\n      add\n      swap1\n      dup2\n      mstore\n      0x20\n      add\n      0x00\n      keccak256\n        /* \"contracts/Missions.sol\":2148:2185  s_stakeReview[_tokenID].lastClaimTime */\n      0x02\n      add\n      sload\n        /* \"contracts/Missions.sol\":2130:2145  block.timestamp */\n      timestamp\n        /* \"contracts/Missions.sol\":2130:2185  block.timestamp - s_stakeReview[_tokenID].lastClaimTime */\n      tag_115\n      swap2\n      swap1\n      tag_73\n      jump\t// in\n    tag_115:\n        /* \"contracts/Missions.sol\":2129:2248  (block.timestamp - s_stakeReview[_tokenID].lastClaimTime) + (currentTrophies - s_stakeReview[_tokenID].claimedTrophies) */\n      tag_116\n      swap2\n      swap1\n      tag_76\n      jump\t// in\n    tag_116:\n        /* \"contracts/Missions.sol\":2111:2250  uint256 amount = ((block.timestamp - s_stakeReview[_tokenID].lastClaimTime) + (currentTrophies - s_stakeReview[_tokenID].claimedTrophies) ) */\n      swap1\n      pop\n        /* \"contracts/Missions.sol\":2265:2276  parentToken */\n      0x01\n      0x00\n      swap1\n      sload\n      swap1\n      0x0100\n      exp\n      swap1\n      div\n      0xffffffffffffffffffffffffffffffffffffffff\n      and\n        /* \"contracts/Missions.sol\":2265:2285  parentToken.transfer */\n      0xffffffffffffffffffffffffffffffffffffffff\n      and\n      0xa9059cbb\n        /* \"contracts/Missions.sol\":2286:2296  msg.sender */\n      caller\n        /* \"contracts/Missions.sol\":2298:2304  amount */\n      dup4\n        /* \"contracts/Missions.sol\":2265:2305  parentToken.transfer(msg.sender, amount) */\n      mload(0x40)\n      dup4\n      0xffffffff\n      and\n      0xe0\n      shl\n      dup2\n      mstore\n      0x04\n      add\n      tag_117\n      swap3\n      swap2\n      swap1\n      tag_83\n      jump\t// in\n    tag_117:\n      0x20\n      mload(0x40)\n      dup1\n      dup4\n      sub\n      dup2\n      0x00\n      dup8\n      dup1\n      extcodesize\n      iszero\n      dup1\n      iszero\n      tag_118\n      jumpi\n      0x00\n      dup1\n      revert\n    tag_118:\n      pop\n      gas\n      call\n      iszero\n      dup1\n      iszero\n      tag_120\n      jumpi\n      returndatasize\n      0x00\n      dup1\n      returndatacopy\n      revert(0x00, returndatasize)\n    tag_120:\n      pop\n      pop\n      pop\n      pop\n      mload(0x40)\n      returndatasize\n      not(0x1f)\n      0x1f\n      dup3\n      add\n      and\n      dup3\n      add\n      dup1\n      0x40\n      mstore\n      pop\n      dup2\n      add\n      swap1\n      tag_121\n      swap2\n      swap1\n      tag_88\n      jump\t// in\n    tag_121:\n        /* \"contracts/Missions.sol\":2261:2534  if (parentToken.transfer(msg.sender, amount)){\r... */\n      iszero\n      tag_122\n      jumpi\n        /* \"contracts/Missions.sol\":2361:2376  block.timestamp */\n      timestamp\n        /* \"contracts/Missions.sol\":2321:2334  s_stakeReview */\n      0x05\n        /* \"contracts/Missions.sol\":2321:2344  s_stakeReview[_tokenID] */\n      0x00\n        /* \"contracts/Missions.sol\":2335:2343  _tokenID */\n      dup6\n        /* \"contracts/Missions.sol\":2321:2344  s_stakeReview[_tokenID] */\n      dup2\n      mstore\n      0x20\n      add\n      swap1\n      dup2\n      mstore\n      0x20\n      add\n      0x00\n      keccak256\n        /* \"contracts/Missions.sol\":2321:2358  s_stakeReview[_tokenID].lastClaimTime */\n      0x02\n      add\n        /* \"contracts/Missions.sol\":2321:2376  s_stakeReview[_tokenID].lastClaimTime = block.timestamp */\n      dup2\n      swap1\n      sstore\n      pop\n        /* \"contracts/Missions.sol\":2453:2466  s_stakeReview */\n      0x05\n        /* \"contracts/Missions.sol\":2453:2476  s_stakeReview[_tokenID] */\n      0x00\n        /* \"contracts/Missions.sol\":2467:2475  _tokenID */\n      dup5\n        /* \"contracts/Missions.sol\":2453:2476  s_stakeReview[_tokenID] */\n      dup2\n      mstore\n      0x20\n      add\n      swap1\n      dup2\n      mstore\n      0x20\n      add\n      0x00\n      keccak256\n        /* \"contracts/Missions.sol\":2453:2492  s_stakeReview[_tokenID].claimedTrophies */\n      0x01\n      add\n      sload\n        /* \"contracts/Missions.sol\":2435:2450  currentTrophies */\n      dup3\n        /* \"contracts/Missions.sol\":2435:2492  currentTrophies - s_stakeReview[_tokenID].claimedTrophies */\n      tag_123\n      swap2\n      swap1\n      tag_73\n      jump\t// in\n    tag_123:\n        /* \"contracts/Missions.sol\":2391:2404  s_stakeReview */\n      0x05\n        /* \"contracts/Missions.sol\":2391:2414  s_stakeReview[_tokenID] */\n      0x00\n        /* \"contracts/Missions.sol\":2405:2413  _tokenID */\n      dup6\n        /* \"contracts/Missions.sol\":2391:2414  s_stakeReview[_tokenID] */\n      dup2\n      mstore\n      0x20\n      add\n      swap1\n      dup2\n      mstore\n      0x20\n      add\n      0x00\n      keccak256\n        /* \"contracts/Missions.sol\":2391:2430  s_stakeReview[_tokenID].claimedTrophies */\n      0x01\n      add\n      0x00\n        /* \"contracts/Missions.sol\":2391:2493  s_stakeReview[_tokenID].claimedTrophies += (currentTrophies - s_stakeReview[_tokenID].claimedTrophies) */\n      dup3\n      dup3\n      sload\n      tag_124\n      swap2\n      swap1\n      tag_76\n      jump\t// in\n    tag_124:\n      swap3\n      pop\n      pop\n      dup2\n      swap1\n      sstore\n      pop\n        /* \"contracts/Missions.sol\":2261:2534  if (parentToken.transfer(msg.sender, amount)){\r... */\n      jump(tag_125)\n    tag_122:\n        /* \"contracts/Missions.sol\":2511:2534  revert(\"Transfer fail\") */\n      mload(0x40)\n      0x08c379a000000000000000000000000000000000000000000000000000000000\n      dup2\n      mstore\n      0x04\n      add\n      tag_126\n      swap1\n      tag_127\n      jump\t// in\n    tag_126:\n      mload(0x40)\n      dup1\n      swap2\n      sub\n      swap1\n      revert\n        /* \"contracts/Missions.sol\":2261:2534  if (parentToken.transfer(msg.sender, amount)){\r... */\n    tag_125:\n        /* \"contracts/Missions.sol\":1799:2542  {\r... */\n      pop\n      pop\n        /* \"@openzeppelin/contracts/security/ReentrancyGuard.sol\":1701:1702  1 */\n      0x01\n        /* \"@openzeppelin/contracts/security/ReentrancyGuard.sol\":2628:2635  _status */\n      0x00\n        /* \"@openzeppelin/contracts/security/ReentrancyGuard.sol\":2628:2650  _status = _NOT_ENTERED */\n      dup2\n      swap1\n      sstore\n      pop\n        /* \"contracts/Missions.sol\":1746:2542  function claim(uint256 _tokenID) public nonReentrant {\r... */\n      pop\n      jump\t// out\n        /* \"contracts/Missions.sol\":1251:1388  function claimedTrophies(uint256 _tokenID) public view returns (uint256){\r... */\n    tag_25:\n        /* \"contracts/Missions.sol\":1315:1322  uint256 */\n      0x00\n        /* \"contracts/Missions.sol\":1341:1354  s_stakeReview */\n      0x05\n        /* \"contracts/Missions.sol\":1341:1364  s_stakeReview[_tokenID] */\n      0x00\n        /* \"contracts/Missions.sol\":1355:1363  _tokenID */\n      dup4\n        /* \"contracts/Missions.sol\":1341:1364  s_stakeReview[_tokenID] */\n      dup2\n      mstore\n      0x20\n      add\n      swap1\n      dup2\n      mstore\n      0x20\n      add\n      0x00\n      keccak256\n        /* \"contracts/Missions.sol\":1341:1380  s_stakeReview[_tokenID].claimedTrophies */\n      0x01\n      add\n      sload\n        /* \"contracts/Missions.sol\":1334:1380  return s_stakeReview[_tokenID].claimedTrophies */\n      swap1\n      pop\n        /* \"contracts/Missions.sol\":1251:1388  function claimedTrophies(uint256 _tokenID) public view returns (uint256){\r... */\n      swap2\n      swap1\n      pop\n      jump\t// out\n        /* \"contracts/Missions.sol\":488:519  address public parentNFTAddress */\n    tag_29:\n      0x04\n      0x00\n      swap1\n      sload\n      swap1\n      0x0100\n      exp\n      swap1\n      div\n      0xffffffffffffffffffffffffffffffffffffffff\n      and\n      dup2\n      jump\t// out\n        /* \"contracts/Missions.sol\":384:409  IERC20 public parentToken */\n    tag_33:\n      0x01\n      0x00\n      swap1\n      sload\n      swap1\n      0x0100\n      exp\n      swap1\n      div\n      0xffffffffffffffffffffffffffffffffffffffff\n      and\n      dup2\n      jump\t// out\n        /* \"contracts/Missions.sol\":1394:1734  function stake(uint256 _tokenID) public nonReentrant() {\r... */\n    tag_38:\n        /* \"@openzeppelin/contracts/security/ReentrancyGuard.sol\":1744:1745  2 */\n      0x02\n        /* \"@openzeppelin/contracts/security/ReentrancyGuard.sol\":2325:2332  _status */\n      sload(0x00)\n        /* \"@openzeppelin/contracts/security/ReentrancyGuard.sol\":2325:2344  _status != _ENTERED */\n      eq\n      iszero\n        /* \"@openzeppelin/contracts/security/ReentrancyGuard.sol\":2317:2380  require(_status != _ENTERED, \"ReentrancyGuard: reentrant call\") */\n      tag_130\n      jumpi\n      mload(0x40)\n      0x08c379a000000000000000000000000000000000000000000000000000000000\n      dup2\n      mstore\n      0x04\n      add\n      tag_131\n      swap1\n      tag_100\n      jump\t// in\n    tag_131:\n      mload(0x40)\n      dup1\n      swap2\n      sub\n      swap1\n      revert\n    tag_130:\n        /* \"@openzeppelin/contracts/security/ReentrancyGuard.sol\":1744:1745  2 */\n      0x02\n        /* \"@openzeppelin/contracts/security/ReentrancyGuard.sol\":2455:2462  _status */\n      0x00\n        /* \"@openzeppelin/contracts/security/ReentrancyGuard.sol\":2455:2473  _status = _ENTERED */\n      dup2\n      swap1\n      sstore\n      pop\n        /* \"contracts/Missions.sol\":1499:1509  msg.sender */\n      caller\n        /* \"contracts/Missions.sol\":1468:1509  parentNFT.ownerOf(_tokenID) == msg.sender */\n      0xffffffffffffffffffffffffffffffffffffffff\n      and\n        /* \"contracts/Missions.sol\":1468:1477  parentNFT */\n      0x02\n      0x00\n      swap1\n      sload\n      swap1\n      0x0100\n      exp\n      swap1\n      div\n      0xffffffffffffffffffffffffffffffffffffffff\n      and\n        /* \"contracts/Missions.sol\":1468:1485  parentNFT.ownerOf */\n      0xffffffffffffffffffffffffffffffffffffffff\n      and\n      0x6352211e\n        /* \"contracts/Missions.sol\":1486:1494  _tokenID */\n      dup4\n        /* \"contracts/Missions.sol\":1468:1495  parentNFT.ownerOf(_tokenID) */\n      mload(0x40)\n      dup3\n      0xffffffff\n      and\n      0xe0\n      shl\n      dup2\n      mstore\n      0x04\n      add\n      tag_133\n      swap2\n      swap1\n      tag_27\n      jump\t// in\n    tag_133:\n      0x20\n      mload(0x40)\n      dup1\n      dup4\n      sub\n      dup2\n      dup7\n      dup1\n      extcodesize\n      iszero\n      dup1\n      iszero\n      tag_134\n      jumpi\n      0x00\n      dup1\n      revert\n    tag_134:\n      pop\n      gas\n      staticcall\n      iszero\n      dup1\n      iszero\n      tag_136\n      jumpi\n      returndatasize\n      0x00\n      dup1\n      returndatacopy\n      revert(0x00, returndatasize)\n    tag_136:\n      pop\n      pop\n      pop\n      pop\n      mload(0x40)\n      returndatasize\n      not(0x1f)\n      0x1f\n      dup3\n      add\n      and\n      dup3\n      add\n      dup1\n      0x40\n      mstore\n      pop\n      dup2\n      add\n      swap1\n      tag_137\n      swap2\n      swap1\n      tag_60\n      jump\t// in\n    tag_137:\n        /* \"contracts/Missions.sol\":1468:1509  parentNFT.ownerOf(_tokenID) == msg.sender */\n      0xffffffffffffffffffffffffffffffffffffffff\n      and\n      eq\n        /* \"contracts/Missions.sol\":1460:1523  require(parentNFT.ownerOf(_tokenID) == msg.sender, \"Not owner\") */\n      tag_138\n      jumpi\n      mload(0x40)\n      0x08c379a000000000000000000000000000000000000000000000000000000000\n      dup2\n      mstore\n      0x04\n      add\n      tag_139\n      swap1\n      tag_140\n      jump\t// in\n    tag_139:\n      mload(0x40)\n      dup1\n      swap2\n      sub\n      swap1\n      revert\n    tag_138:\n        /* \"contracts/Missions.sol\":1544:1553  parentNFT */\n      0x02\n      0x00\n      swap1\n      sload\n      swap1\n      0x0100\n      exp\n      swap1\n      div\n      0xffffffffffffffffffffffffffffffffffffffff\n      and\n        /* \"contracts/Missions.sol\":1544:1566  parentNFT.transferFrom */\n      0xffffffffffffffffffffffffffffffffffffffff\n      and\n      0x23b872dd\n        /* \"contracts/Missions.sol\":1567:1577  msg.sender */\n      caller\n        /* \"contracts/Missions.sol\":1587:1591  this */\n      address\n        /* \"contracts/Missions.sol\":1594:1602  _tokenID */\n      dup5\n        /* \"contracts/Missions.sol\":1544:1603  parentNFT.transferFrom(msg.sender, address(this), _tokenID) */\n      mload(0x40)\n      dup5\n      0xffffffff\n      and\n      0xe0\n      shl\n      dup2\n      mstore\n      0x04\n      add\n      tag_141\n      swap4\n      swap3\n      swap2\n      swap1\n      tag_93\n      jump\t// in\n    tag_141:\n      0x00\n      mload(0x40)\n      dup1\n      dup4\n      sub\n      dup2\n      0x00\n      dup8\n      dup1\n      extcodesize\n      iszero\n      dup1\n      iszero\n      tag_142\n      jumpi\n      0x00\n      dup1\n      revert\n    tag_142:\n      pop\n      gas\n      call\n      iszero\n      dup1\n      iszero\n      tag_144\n      jumpi\n      returndatasize\n      0x00\n      dup1\n      returndatacopy\n      revert(0x00, returndatasize)\n    tag_144:\n      pop\n      pop\n      pop\n      pop\n        /* \"contracts/Missions.sol\":1650:1660  msg.sender */\n      caller\n        /* \"contracts/Missions.sol\":1614:1627  s_stakeReview */\n      0x05\n        /* \"contracts/Missions.sol\":1614:1637  s_stakeReview[_tokenID] */\n      0x00\n        /* \"contracts/Missions.sol\":1628:1636  _tokenID */\n      dup4\n        /* \"contracts/Missions.sol\":1614:1637  s_stakeReview[_tokenID] */\n      dup2\n      mstore\n      0x20\n      add\n      swap1\n      dup2\n      mstore\n      0x20\n      add\n      0x00\n      keccak256\n        /* \"contracts/Missions.sol\":1614:1647  s_stakeReview[_tokenID].realOwner */\n      0x00\n      add\n      0x00\n        /* \"contracts/Missions.sol\":1614:1660  s_stakeReview[_tokenID].realOwner = msg.sender */\n      0x0100\n      exp\n      dup2\n      sload\n      dup2\n      0xffffffffffffffffffffffffffffffffffffffff\n      mul\n      not\n      and\n      swap1\n      dup4\n      0xffffffffffffffffffffffffffffffffffffffff\n      and\n      mul\n      or\n      swap1\n      sstore\n      pop\n        /* \"contracts/Missions.sol\":1711:1726  block.timestamp */\n      timestamp\n        /* \"contracts/Missions.sol\":1671:1684  s_stakeReview */\n      0x05\n        /* \"contracts/Missions.sol\":1671:1694  s_stakeReview[_tokenID] */\n      0x00\n        /* \"contracts/Missions.sol\":1685:1693  _tokenID */\n      dup4\n        /* \"contracts/Missions.sol\":1671:1694  s_stakeReview[_tokenID] */\n      dup2\n      mstore\n      0x20\n      add\n      swap1\n      dup2\n      mstore\n      0x20\n      add\n      0x00\n      keccak256\n        /* \"contracts/Missions.sol\":1671:1708  s_stakeReview[_tokenID].lastClaimTime */\n      0x02\n      add\n        /* \"contracts/Missions.sol\":1671:1726  s_stakeReview[_tokenID].lastClaimTime = block.timestamp */\n      dup2\n      swap1\n      sstore\n      pop\n        /* \"@openzeppelin/contracts/security/ReentrancyGuard.sol\":1701:1702  1 */\n      0x01\n        /* \"@openzeppelin/contracts/security/ReentrancyGuard.sol\":2628:2635  _status */\n      0x00\n        /* \"@openzeppelin/contracts/security/ReentrancyGuard.sol\":2628:2650  _status = _NOT_ENTERED */\n      dup2\n      swap1\n      sstore\n      pop\n        /* \"contracts/Missions.sol\":1394:1734  function stake(uint256 _tokenID) public nonReentrant() {\r... */\n      pop\n      jump\t// out\n        /* \"contracts/Missions.sol\":416:440  IERC721 public parentNFT */\n    tag_40:\n      0x02\n      0x00\n      swap1\n      sload\n      swap1\n      0x0100\n      exp\n      swap1\n      div\n      0xffffffffffffffffffffffffffffffffffffffff\n      and\n      dup2\n      jump\t// out\n        /* \"contracts/Missions.sol\":447:481  INFTGame public parentNftFunctions */\n    tag_44:\n      0x03\n      0x00\n      swap1\n      sload\n      swap1\n      0x0100\n      exp\n      swap1\n      div\n      0xffffffffffffffffffffffffffffffffffffffff\n      and\n      dup2\n      jump\t// out\n        /* \"#utility.yul\":7:150   */\n    tag_146:\n        /* \"#utility.yul\":64:69   */\n      0x00\n        /* \"#utility.yul\":95:101   */\n      dup2\n        /* \"#utility.yul\":89:102   */\n      mload\n        /* \"#utility.yul\":80:102   */\n      swap1\n      pop\n        /* \"#utility.yul\":111:144   */\n      tag_148\n        /* \"#utility.yul\":138:143   */\n      dup2\n        /* \"#utility.yul\":111:144   */\n      tag_149\n      jump\t// in\n    tag_148:\n        /* \"#utility.yul\":7:150   */\n      swap3\n      swap2\n      pop\n      pop\n      jump\t// out\n        /* \"#utility.yul\":156:293   */\n    tag_150:\n        /* \"#utility.yul\":210:215   */\n      0x00\n        /* \"#utility.yul\":241:247   */\n      dup2\n        /* \"#utility.yul\":235:248   */\n      mload\n        /* \"#utility.yul\":226:248   */\n      swap1\n      pop\n        /* \"#utility.yul\":257:287   */\n      tag_152\n        /* \"#utility.yul\":281:286   */\n      dup2\n        /* \"#utility.yul\":257:287   */\n      tag_153\n      jump\t// in\n    tag_152:\n        /* \"#utility.yul\":156:293   */\n      swap3\n      swap2\n      pop\n      pop\n      jump\t// out\n        /* \"#utility.yul\":299:438   */\n    tag_154:\n        /* \"#utility.yul\":345:350   */\n      0x00\n        /* \"#utility.yul\":383:389   */\n      dup2\n        /* \"#utility.yul\":370:390   */\n      calldataload\n        /* \"#utility.yul\":361:390   */\n      swap1\n      pop\n        /* \"#utility.yul\":399:432   */\n      tag_156\n        /* \"#utility.yul\":426:431   */\n      dup2\n        /* \"#utility.yul\":399:432   */\n      tag_157\n      jump\t// in\n    tag_156:\n        /* \"#utility.yul\":299:438   */\n      swap3\n      swap2\n      pop\n      pop\n      jump\t// out\n        /* \"#utility.yul\":444:587   */\n    tag_158:\n        /* \"#utility.yul\":501:506   */\n      0x00\n        /* \"#utility.yul\":532:538   */\n      dup2\n        /* \"#utility.yul\":526:539   */\n      mload\n        /* \"#utility.yul\":517:539   */\n      swap1\n      pop\n        /* \"#utility.yul\":548:581   */\n      tag_160\n        /* \"#utility.yul\":575:580   */\n      dup2\n        /* \"#utility.yul\":548:581   */\n      tag_157\n      jump\t// in\n    tag_160:\n        /* \"#utility.yul\":444:587   */\n      swap3\n      swap2\n      pop\n      pop\n      jump\t// out\n        /* \"#utility.yul\":593:944   */\n    tag_60:\n        /* \"#utility.yul\":663:669   */\n      0x00\n        /* \"#utility.yul\":712:714   */\n      0x20\n        /* \"#utility.yul\":700:709   */\n      dup3\n        /* \"#utility.yul\":691:698   */\n      dup5\n        /* \"#utility.yul\":687:710   */\n      sub\n        /* \"#utility.yul\":683:715   */\n      slt\n        /* \"#utility.yul\":680:799   */\n      iszero\n      tag_162\n      jumpi\n        /* \"#utility.yul\":718:797   */\n      tag_163\n      tag_164\n      jump\t// in\n    tag_163:\n        /* \"#utility.yul\":680:799   */\n    tag_162:\n        /* \"#utility.yul\":838:839   */\n      0x00\n        /* \"#utility.yul\":863:927   */\n      tag_165\n        /* \"#utility.yul\":919:926   */\n      dup5\n        /* \"#utility.yul\":910:916   */\n      dup3\n        /* \"#utility.yul\":899:908   */\n      dup6\n        /* \"#utility.yul\":895:917   */\n      add\n        /* \"#utility.yul\":863:927   */\n      tag_146\n      jump\t// in\n    tag_165:\n        /* \"#utility.yul\":853:927   */\n      swap2\n      pop\n        /* \"#utility.yul\":809:937   */\n      pop\n        /* \"#utility.yul\":593:944   */\n      swap3\n      swap2\n      pop\n      pop\n      jump\t// out\n        /* \"#utility.yul\":950:1295   */\n    tag_88:\n        /* \"#utility.yul\":1017:1023   */\n      0x00\n        /* \"#utility.yul\":1066:1068   */\n      0x20\n        /* \"#utility.yul\":1054:1063   */\n      dup3\n        /* \"#utility.yul\":1045:1052   */\n      dup5\n        /* \"#utility.yul\":1041:1064   */\n      sub\n        /* \"#utility.yul\":1037:1069   */\n      slt\n        /* \"#utility.yul\":1034:1153   */\n      iszero\n      tag_167\n      jumpi\n        /* \"#utility.yul\":1072:1151   */\n      tag_168\n      tag_164\n      jump\t// in\n    tag_168:\n        /* \"#utility.yul\":1034:1153   */\n    tag_167:\n        /* \"#utility.yul\":1192:1193   */\n      0x00\n        /* \"#utility.yul\":1217:1278   */\n      tag_169\n        /* \"#utility.yul\":1270:1277   */\n      dup5\n        /* \"#utility.yul\":1261:1267   */\n      dup3\n        /* \"#utility.yul\":1250:1259   */\n      dup6\n        /* \"#utility.yul\":1246:1268   */\n      add\n        /* \"#utility.yul\":1217:1278   */\n      tag_150\n      jump\t// in\n    tag_169:\n        /* \"#utility.yul\":1207:1278   */\n      swap2\n      pop\n        /* \"#utility.yul\":1163:1288   */\n      pop\n        /* \"#utility.yul\":950:1295   */\n      swap3\n      swap2\n      pop\n      pop\n      jump\t// out\n        /* \"#utility.yul\":1301:1630   */\n    tag_15:\n        /* \"#utility.yul\":1360:1366   */\n      0x00\n        /* \"#utility.yul\":1409:1411   */\n      0x20\n        /* \"#utility.yul\":1397:1406   */\n      dup3\n        /* \"#utility.yul\":1388:1395   */\n      dup5\n        /* \"#utility.yul\":1384:1407   */\n      sub\n        /* \"#utility.yul\":1380:1412   */\n      slt\n        /* \"#utility.yul\":1377:1496   */\n      iszero\n      tag_171\n      jumpi\n        /* \"#utility.yul\":1415:1494   */\n      tag_172\n      tag_164\n      jump\t// in\n    tag_172:\n        /* \"#utility.yul\":1377:1496   */\n    tag_171:\n        /* \"#utility.yul\":1535:1536   */\n      0x00\n        /* \"#utility.yul\":1560:1613   */\n      tag_173\n        /* \"#utility.yul\":1605:1612   */\n      dup5\n        /* \"#utility.yul\":1596:1602   */\n      dup3\n        /* \"#utility.yul\":1585:1594   */\n      dup6\n        /* \"#utility.yul\":1581:1603   */\n      add\n        /* \"#utility.yul\":1560:1613   */\n      tag_154\n      jump\t// in\n    tag_173:\n        /* \"#utility.yul\":1550:1613   */\n      swap2\n      pop\n        /* \"#utility.yul\":1506:1623   */\n      pop\n        /* \"#utility.yul\":1301:1630   */\n      swap3\n      swap2\n      pop\n      pop\n      jump\t// out\n        /* \"#utility.yul\":1636:1987   */\n    tag_53:\n        /* \"#utility.yul\":1706:1712   */\n      0x00\n        /* \"#utility.yul\":1755:1757   */\n      0x20\n        /* \"#utility.yul\":1743:1752   */\n      dup3\n        /* \"#utility.yul\":1734:1741   */\n      dup5\n        /* \"#utility.yul\":1730:1753   */\n      sub\n        /* \"#utility.yul\":1726:1758   */\n      slt\n        /* \"#utility.yul\":1723:1842   */\n      iszero\n      tag_175\n      jumpi\n        /* \"#utility.yul\":1761:1840   */\n      tag_176\n      tag_164\n      jump\t// in\n    tag_176:\n        /* \"#utility.yul\":1723:1842   */\n    tag_175:\n        /* \"#utility.yul\":1881:1882   */\n      0x00\n        /* \"#utility.yul\":1906:1970   */\n      tag_177\n        /* \"#utility.yul\":1962:1969   */\n      dup5\n        /* \"#utility.yul\":1953:1959   */\n      dup3\n        /* \"#utility.yul\":1942:1951   */\n      dup6\n        /* \"#utility.yul\":1938:1960   */\n      add\n        /* \"#utility.yul\":1906:1970   */\n      tag_158\n      jump\t// in\n    tag_177:\n        /* \"#utility.yul\":1896:1970   */\n      swap2\n      pop\n        /* \"#utility.yul\":1852:1980   */\n      pop\n        /* \"#utility.yul\":1636:1987   */\n      swap3\n      swap2\n      pop\n      pop\n      jump\t// out\n        /* \"#utility.yul\":1993:2111   */\n    tag_178:\n        /* \"#utility.yul\":2080:2104   */\n      tag_180\n        /* \"#utility.yul\":2098:2103   */\n      dup2\n        /* \"#utility.yul\":2080:2104   */\n      tag_181\n      jump\t// in\n    tag_180:\n        /* \"#utility.yul\":2075:2078   */\n      dup3\n        /* \"#utility.yul\":2068:2105   */\n      mstore\n        /* \"#utility.yul\":1993:2111   */\n      pop\n      pop\n      jump\t// out\n        /* \"#utility.yul\":2117:2276   */\n    tag_182:\n        /* \"#utility.yul\":2218:2269   */\n      tag_184\n        /* \"#utility.yul\":2263:2268   */\n      dup2\n        /* \"#utility.yul\":2218:2269   */\n      tag_185\n      jump\t// in\n    tag_184:\n        /* \"#utility.yul\":2213:2216   */\n      dup3\n        /* \"#utility.yul\":2206:2270   */\n      mstore\n        /* \"#utility.yul\":2117:2276   */\n      pop\n      pop\n      jump\t// out\n        /* \"#utility.yul\":2282:2443   */\n    tag_186:\n        /* \"#utility.yul\":2384:2436   */\n      tag_188\n        /* \"#utility.yul\":2430:2435   */\n      dup2\n        /* \"#utility.yul\":2384:2436   */\n      tag_189\n      jump\t// in\n    tag_188:\n        /* \"#utility.yul\":2379:2382   */\n      dup3\n        /* \"#utility.yul\":2372:2437   */\n      mstore\n        /* \"#utility.yul\":2282:2443   */\n      pop\n      pop\n      jump\t// out\n        /* \"#utility.yul\":2449:2612   */\n    tag_190:\n        /* \"#utility.yul\":2552:2605   */\n      tag_192\n        /* \"#utility.yul\":2599:2604   */\n      dup2\n        /* \"#utility.yul\":2552:2605   */\n      tag_193\n      jump\t// in\n    tag_192:\n        /* \"#utility.yul\":2547:2550   */\n      dup3\n        /* \"#utility.yul\":2540:2606   */\n      mstore\n        /* \"#utility.yul\":2449:2612   */\n      pop\n      pop\n      jump\t// out\n        /* \"#utility.yul\":2618:2984   */\n    tag_194:\n        /* \"#utility.yul\":2760:2763   */\n      0x00\n        /* \"#utility.yul\":2781:2848   */\n      tag_196\n        /* \"#utility.yul\":2845:2847   */\n      0x0a\n        /* \"#utility.yul\":2840:2843   */\n      dup4\n        /* \"#utility.yul\":2781:2848   */\n      tag_197\n      jump\t// in\n    tag_196:\n        /* \"#utility.yul\":2774:2848   */\n      swap2\n      pop\n        /* \"#utility.yul\":2857:2950   */\n      tag_198\n        /* \"#utility.yul\":2946:2949   */\n      dup3\n        /* \"#utility.yul\":2857:2950   */\n      tag_199\n      jump\t// in\n    tag_198:\n        /* \"#utility.yul\":2975:2977   */\n      0x20\n        /* \"#utility.yul\":2970:2973   */\n      dup3\n        /* \"#utility.yul\":2966:2978   */\n      add\n        /* \"#utility.yul\":2959:2978   */\n      swap1\n      pop\n        /* \"#utility.yul\":2618:2984   */\n      swap2\n      swap1\n      pop\n      jump\t// out\n        /* \"#utility.yul\":2990:3356   */\n    tag_200:\n        /* \"#utility.yul\":3132:3135   */\n      0x00\n        /* \"#utility.yul\":3153:3220   */\n      tag_202\n        /* \"#utility.yul\":3217:3219   */\n      0x0d\n        /* \"#utility.yul\":3212:3215   */\n      dup4\n        /* \"#utility.yul\":3153:3220   */\n      tag_197\n      jump\t// in\n    tag_202:\n        /* \"#utility.yul\":3146:3220   */\n      swap2\n      pop\n        /* \"#utility.yul\":3229:3322   */\n      tag_203\n        /* \"#utility.yul\":3318:3321   */\n      dup3\n        /* \"#utility.yul\":3229:3322   */\n      tag_204\n      jump\t// in\n    tag_203:\n        /* \"#utility.yul\":3347:3349   */\n      0x20\n        /* \"#utility.yul\":3342:3345   */\n      dup3\n        /* \"#utility.yul\":3338:3350   */\n      add\n        /* \"#utility.yul\":3331:3350   */\n      swap1\n      pop\n        /* \"#utility.yul\":2990:3356   */\n      swap2\n      swap1\n      pop\n      jump\t// out\n        /* \"#utility.yul\":3362:3728   */\n    tag_205:\n        /* \"#utility.yul\":3504:3507   */\n      0x00\n        /* \"#utility.yul\":3525:3592   */\n      tag_207\n        /* \"#utility.yul\":3589:3591   */\n      0x0d\n        /* \"#utility.yul\":3584:3587   */\n      dup4\n        /* \"#utility.yul\":3525:3592   */\n      tag_197\n      jump\t// in\n    tag_207:\n        /* \"#utility.yul\":3518:3592   */\n      swap2\n      pop\n        /* \"#utility.yul\":3601:3694   */\n      tag_208\n        /* \"#utility.yul\":3690:3693   */\n      dup3\n        /* \"#utility.yul\":3601:3694   */\n      tag_209\n      jump\t// in\n    tag_208:\n        /* \"#utility.yul\":3719:3721   */\n      0x20\n        /* \"#utility.yul\":3714:3717   */\n      dup3\n        /* \"#utility.yul\":3710:3722   */\n      add\n        /* \"#utility.yul\":3703:3722   */\n      swap1\n      pop\n        /* \"#utility.yul\":3362:3728   */\n      swap2\n      swap1\n      pop\n      jump\t// out\n        /* \"#utility.yul\":3734:4099   */\n    tag_210:\n        /* \"#utility.yul\":3876:3879   */\n      0x00\n        /* \"#utility.yul\":3897:3963   */\n      tag_212\n        /* \"#utility.yul\":3961:3962   */\n      0x09\n        /* \"#utility.yul\":3956:3959   */\n      dup4\n        /* \"#utility.yul\":3897:3963   */\n      tag_197\n      jump\t// in\n    tag_212:\n        /* \"#utility.yul\":3890:3963   */\n      swap2\n      pop\n        /* \"#utility.yul\":3972:4065   */\n      tag_213\n        /* \"#utility.yul\":4061:4064   */\n      dup3\n        /* \"#utility.yul\":3972:4065   */\n      tag_214\n      jump\t// in\n    tag_213:\n        /* \"#utility.yul\":4090:4092   */\n      0x20\n        /* \"#utility.yul\":4085:4088   */\n      dup3\n        /* \"#utility.yul\":4081:4093   */\n      add\n        /* \"#utility.yul\":4074:4093   */\n      swap1\n      pop\n        /* \"#utility.yul\":3734:4099   */\n      swap2\n      swap1\n      pop\n      jump\t// out\n        /* \"#utility.yul\":4105:4471   */\n    tag_215:\n        /* \"#utility.yul\":4247:4250   */\n      0x00\n        /* \"#utility.yul\":4268:4335   */\n      tag_217\n        /* \"#utility.yul\":4332:4334   */\n      0x1f\n        /* \"#utility.yul\":4327:4330   */\n      dup4\n        /* \"#utility.yul\":4268:4335   */\n      tag_197\n      jump\t// in\n    tag_217:\n        /* \"#utility.yul\":4261:4335   */\n      swap2\n      pop\n        /* \"#utility.yul\":4344:4437   */\n      tag_218\n        /* \"#utility.yul\":4433:4436   */\n      dup3\n        /* \"#utility.yul\":4344:4437   */\n      tag_219\n      jump\t// in\n    tag_218:\n        /* \"#utility.yul\":4462:4464   */\n      0x20\n        /* \"#utility.yul\":4457:4460   */\n      dup3\n        /* \"#utility.yul\":4453:4465   */\n      add\n        /* \"#utility.yul\":4446:4465   */\n      swap1\n      pop\n        /* \"#utility.yul\":4105:4471   */\n      swap2\n      swap1\n      pop\n      jump\t// out\n        /* \"#utility.yul\":4477:4595   */\n    tag_220:\n        /* \"#utility.yul\":4564:4588   */\n      tag_222\n        /* \"#utility.yul\":4582:4587   */\n      dup2\n        /* \"#utility.yul\":4564:4588   */\n      tag_223\n      jump\t// in\n    tag_222:\n        /* \"#utility.yul\":4559:4562   */\n      dup3\n        /* \"#utility.yul\":4552:4589   */\n      mstore\n        /* \"#utility.yul\":4477:4595   */\n      pop\n      pop\n      jump\t// out\n        /* \"#utility.yul\":4601:4823   */\n    tag_31:\n        /* \"#utility.yul\":4694:4698   */\n      0x00\n        /* \"#utility.yul\":4732:4734   */\n      0x20\n        /* \"#utility.yul\":4721:4730   */\n      dup3\n        /* \"#utility.yul\":4717:4735   */\n      add\n        /* \"#utility.yul\":4709:4735   */\n      swap1\n      pop\n        /* \"#utility.yul\":4745:4816   */\n      tag_225\n        /* \"#utility.yul\":4813:4814   */\n      0x00\n        /* \"#utility.yul\":4802:4811   */\n      dup4\n        /* \"#utility.yul\":4798:4815   */\n      add\n        /* \"#utility.yul\":4789:4795   */\n      dup5\n        /* \"#utility.yul\":4745:4816   */\n      tag_178\n      jump\t// in\n    tag_225:\n        /* \"#utility.yul\":4601:4823   */\n      swap3\n      swap2\n      pop\n      pop\n      jump\t// out\n        /* \"#utility.yul\":4829:5271   */\n    tag_93:\n        /* \"#utility.yul\":4978:4982   */\n      0x00\n        /* \"#utility.yul\":5016:5018   */\n      0x60\n        /* \"#utility.yul\":5005:5014   */\n      dup3\n        /* \"#utility.yul\":5001:5019   */\n      add\n        /* \"#utility.yul\":4993:5019   */\n      swap1\n      pop\n        /* \"#utility.yul\":5029:5100   */\n      tag_227\n        /* \"#utility.yul\":5097:5098   */\n      0x00\n        /* \"#utility.yul\":5086:5095   */\n      dup4\n        /* \"#utility.yul\":5082:5099   */\n      add\n        /* \"#utility.yul\":5073:5079   */\n      dup7\n        /* \"#utility.yul\":5029:5100   */\n      tag_178\n      jump\t// in\n    tag_227:\n        /* \"#utility.yul\":5110:5182   */\n      tag_228\n        /* \"#utility.yul\":5178:5180   */\n      0x20\n        /* \"#utility.yul\":5167:5176   */\n      dup4\n        /* \"#utility.yul\":5163:5181   */\n      add\n        /* \"#utility.yul\":5154:5160   */\n      dup6\n        /* \"#utility.yul\":5110:5182   */\n      tag_178\n      jump\t// in\n    tag_228:\n        /* \"#utility.yul\":5192:5264   */\n      tag_229\n        /* \"#utility.yul\":5260:5262   */\n      0x40\n        /* \"#utility.yul\":5249:5258   */\n      dup4\n        /* \"#utility.yul\":5245:5263   */\n      add\n        /* \"#utility.yul\":5236:5242   */\n      dup5\n        /* \"#utility.yul\":5192:5264   */\n      tag_220\n      jump\t// in\n    tag_229:\n        /* \"#utility.yul\":4829:5271   */\n      swap5\n      swap4\n      pop\n      pop\n      pop\n      pop\n      jump\t// out\n        /* \"#utility.yul\":5277:5609   */\n    tag_83:\n        /* \"#utility.yul\":5398:5402   */\n      0x00\n        /* \"#utility.yul\":5436:5438   */\n      0x40\n        /* \"#utility.yul\":5425:5434   */\n      dup3\n        /* \"#utility.yul\":5421:5439   */\n      add\n        /* \"#utility.yul\":5413:5439   */\n      swap1\n      pop\n        /* \"#utility.yul\":5449:5520   */\n      tag_231\n        /* \"#utility.yul\":5517:5518   */\n      0x00\n        /* \"#utility.yul\":5506:5515   */\n      dup4\n        /* \"#utility.yul\":5502:5519   */\n      add\n        /* \"#utility.yul\":5493:5499   */\n      dup6\n        /* \"#utility.yul\":5449:5520   */\n      tag_178\n      jump\t// in\n    tag_231:\n        /* \"#utility.yul\":5530:5602   */\n      tag_232\n        /* \"#utility.yul\":5598:5600   */\n      0x20\n        /* \"#utility.yul\":5587:5596   */\n      dup4\n        /* \"#utility.yul\":5583:5601   */\n      add\n        /* \"#utility.yul\":5574:5580   */\n      dup5\n        /* \"#utility.yul\":5530:5602   */\n      tag_220\n      jump\t// in\n    tag_232:\n        /* \"#utility.yul\":5277:5609   */\n      swap4\n      swap3\n      pop\n      pop\n      pop\n      jump\t// out\n        /* \"#utility.yul\":5615:5865   */\n    tag_35:\n        /* \"#utility.yul\":5722:5726   */\n      0x00\n        /* \"#utility.yul\":5760:5762   */\n      0x20\n        /* \"#utility.yul\":5749:5758   */\n      dup3\n        /* \"#utility.yul\":5745:5763   */\n      add\n        /* \"#utility.yul\":5737:5763   */\n      swap1\n      pop\n        /* \"#utility.yul\":5773:5858   */\n      tag_234\n        /* \"#utility.yul\":5855:5856   */\n      0x00\n        /* \"#utility.yul\":5844:5853   */\n      dup4\n        /* \"#utility.yul\":5840:5857   */\n      add\n        /* \"#utility.yul\":5831:5837   */\n      dup5\n        /* \"#utility.yul\":5773:5858   */\n      tag_182\n      jump\t// in\n    tag_234:\n        /* \"#utility.yul\":5615:5865   */\n      swap3\n      swap2\n      pop\n      pop\n      jump\t// out\n        /* \"#utility.yul\":5871:6123   */\n    tag_42:\n        /* \"#utility.yul\":5979:5983   */\n      0x00\n        /* \"#utility.yul\":6017:6019   */\n      0x20\n        /* \"#utility.yul\":6006:6015   */\n      dup3\n        /* \"#utility.yul\":6002:6020   */\n      add\n        /* \"#utility.yul\":5994:6020   */\n      swap1\n      pop\n        /* \"#utility.yul\":6030:6116   */\n      tag_236\n        /* \"#utility.yul\":6113:6114   */\n      0x00\n        /* \"#utility.yul\":6102:6111   */\n      dup4\n        /* \"#utility.yul\":6098:6115   */\n      add\n        /* \"#utility.yul\":6089:6095   */\n      dup5\n        /* \"#utility.yul\":6030:6116   */\n      tag_186\n      jump\t// in\n    tag_236:\n        /* \"#utility.yul\":5871:6123   */\n      swap3\n      swap2\n      pop\n      pop\n      jump\t// out\n        /* \"#utility.yul\":6129:6383   */\n    tag_46:\n        /* \"#utility.yul\":6238:6242   */\n      0x00\n        /* \"#utility.yul\":6276:6278   */\n      0x20\n        /* \"#utility.yul\":6265:6274   */\n      dup3\n        /* \"#utility.yul\":6261:6279   */\n      add\n        /* \"#utility.yul\":6253:6279   */\n      swap1\n      pop\n        /* \"#utility.yul\":6289:6376   */\n      tag_238\n        /* \"#utility.yul\":6373:6374   */\n      0x00\n        /* \"#utility.yul\":6362:6371   */\n      dup4\n        /* \"#utility.yul\":6358:6375   */\n      add\n        /* \"#utility.yul\":6349:6355   */\n      dup5\n        /* \"#utility.yul\":6289:6376   */\n      tag_190\n      jump\t// in\n    tag_238:\n        /* \"#utility.yul\":6129:6383   */\n      swap3\n      swap2\n      pop\n      pop\n      jump\t// out\n        /* \"#utility.yul\":6389:6808   */\n    tag_63:\n        /* \"#utility.yul\":6555:6559   */\n      0x00\n        /* \"#utility.yul\":6593:6595   */\n      0x20\n        /* \"#utility.yul\":6582:6591   */\n      dup3\n        /* \"#utility.yul\":6578:6596   */\n      add\n        /* \"#utility.yul\":6570:6596   */\n      swap1\n      pop\n        /* \"#utility.yul\":6642:6651   */\n      dup2\n        /* \"#utility.yul\":6636:6640   */\n      dup2\n        /* \"#utility.yul\":6632:6652   */\n      sub\n        /* \"#utility.yul\":6628:6629   */\n      0x00\n        /* \"#utility.yul\":6617:6626   */\n      dup4\n        /* \"#utility.yul\":6613:6630   */\n      add\n        /* \"#utility.yul\":6606:6653   */\n      mstore\n        /* \"#utility.yul\":6670:6801   */\n      tag_240\n        /* \"#utility.yul\":6796:6800   */\n      dup2\n        /* \"#utility.yul\":6670:6801   */\n      tag_194\n      jump\t// in\n    tag_240:\n        /* \"#utility.yul\":6662:6801   */\n      swap1\n      pop\n        /* \"#utility.yul\":6389:6808   */\n      swap2\n      swap1\n      pop\n      jump\t// out\n        /* \"#utility.yul\":6814:7233   */\n    tag_127:\n        /* \"#utility.yul\":6980:6984   */\n      0x00\n        /* \"#utility.yul\":7018:7020   */\n      0x20\n        /* \"#utility.yul\":7007:7016   */\n      dup3\n        /* \"#utility.yul\":7003:7021   */\n      add\n        /* \"#utility.yul\":6995:7021   */\n      swap1\n      pop\n        /* \"#utility.yul\":7067:7076   */\n      dup2\n        /* \"#utility.yul\":7061:7065   */\n      dup2\n        /* \"#utility.yul\":7057:7077   */\n      sub\n        /* \"#utility.yul\":7053:7054   */\n      0x00\n        /* \"#utility.yul\":7042:7051   */\n      dup4\n        /* \"#utility.yul\":7038:7055   */\n      add\n        /* \"#utility.yul\":7031:7078   */\n      mstore\n        /* \"#utility.yul\":7095:7226   */\n      tag_242\n        /* \"#utility.yul\":7221:7225   */\n      dup2\n        /* \"#utility.yul\":7095:7226   */\n      tag_200\n      jump\t// in\n    tag_242:\n        /* \"#utility.yul\":7087:7226   */\n      swap1\n      pop\n        /* \"#utility.yul\":6814:7233   */\n      swap2\n      swap1\n      pop\n      jump\t// out\n        /* \"#utility.yul\":7239:7658   */\n    tag_66:\n        /* \"#utility.yul\":7405:7409   */\n      0x00\n        /* \"#utility.yul\":7443:7445   */\n      0x20\n        /* \"#utility.yul\":7432:7441   */\n      dup3\n        /* \"#utility.yul\":7428:7446   */\n      add\n        /* \"#utility.yul\":7420:7446   */\n      swap1\n      pop\n        /* \"#utility.yul\":7492:7501   */\n      dup2\n        /* \"#utility.yul\":7486:7490   */\n      dup2\n        /* \"#utility.yul\":7482:7502   */\n      sub\n        /* \"#utility.yul\":7478:7479   */\n      0x00\n        /* \"#utility.yul\":7467:7476   */\n      dup4\n        /* \"#utility.yul\":7463:7480   */\n      add\n        /* \"#utility.yul\":7456:7503   */\n      mstore\n        /* \"#utility.yul\":7520:7651   */\n      tag_244\n        /* \"#utility.yul\":7646:7650   */\n      dup2\n        /* \"#utility.yul\":7520:7651   */\n      tag_205\n      jump\t// in\n    tag_244:\n        /* \"#utility.yul\":7512:7651   */\n      swap1\n      pop\n        /* \"#utility.yul\":7239:7658   */\n      swap2\n      swap1\n      pop\n      jump\t// out\n        /* \"#utility.yul\":7664:8083   */\n    tag_140:\n        /* \"#utility.yul\":7830:7834   */\n      0x00\n        /* \"#utility.yul\":7868:7870   */\n      0x20\n        /* \"#utility.yul\":7857:7866   */\n      dup3\n        /* \"#utility.yul\":7853:7871   */\n      add\n        /* \"#utility.yul\":7845:7871   */\n      swap1\n      pop\n        /* \"#utility.yul\":7917:7926   */\n      dup2\n        /* \"#utility.yul\":7911:7915   */\n      dup2\n        /* \"#utility.yul\":7907:7927   */\n      sub\n        /* \"#utility.yul\":7903:7904   */\n      0x00\n        /* \"#utility.yul\":7892:7901   */\n      dup4\n        /* \"#utility.yul\":7888:7905   */\n      add\n        /* \"#utility.yul\":7881:7928   */\n      mstore\n        /* \"#utility.yul\":7945:8076   */\n      tag_246\n        /* \"#utility.yul\":8071:8075   */\n      dup2\n        /* \"#utility.yul\":7945:8076   */\n      tag_210\n      jump\t// in\n    tag_246:\n        /* \"#utility.yul\":7937:8076   */\n      swap1\n      pop\n        /* \"#utility.yul\":7664:8083   */\n      swap2\n      swap1\n      pop\n      jump\t// out\n        /* \"#utility.yul\":8089:8508   */\n    tag_100:\n        /* \"#utility.yul\":8255:8259   */\n      0x00\n        /* \"#utility.yul\":8293:8295   */\n      0x20\n        /* \"#utility.yul\":8282:8291   */\n      dup3\n        /* \"#utility.yul\":8278:8296   */\n      add\n        /* \"#utility.yul\":8270:8296   */\n      swap1\n      pop\n        /* \"#utility.yul\":8342:8351   */\n      dup2\n        /* \"#utility.yul\":8336:8340   */\n      dup2\n        /* \"#utility.yul\":8332:8352   */\n      sub\n        /* \"#utility.yul\":8328:8329   */\n      0x00\n        /* \"#utility.yul\":8317:8326   */\n      dup4\n        /* \"#utility.yul\":8313:8330   */\n      add\n        /* \"#utility.yul\":8306:8353   */\n      mstore\n        /* \"#utility.yul\":8370:8501   */\n      tag_248\n        /* \"#utility.yul\":8496:8500   */\n      dup2\n        /* \"#utility.yul\":8370:8501   */\n      tag_215\n      jump\t// in\n    tag_248:\n        /* \"#utility.yul\":8362:8501   */\n      swap1\n      pop\n        /* \"#utility.yul\":8089:8508   */\n      swap2\n      swap1\n      pop\n      jump\t// out\n        /* \"#utility.yul\":8514:8736   */\n    tag_27:\n        /* \"#utility.yul\":8607:8611   */\n      0x00\n        /* \"#utility.yul\":8645:8647   */\n      0x20\n        /* \"#utility.yul\":8634:8643   */\n      dup3\n        /* \"#utility.yul\":8630:8648   */\n      add\n        /* \"#utility.yul\":8622:8648   */\n      swap1\n      pop\n        /* \"#utility.yul\":8658:8729   */\n      tag_250\n        /* \"#utility.yul\":8726:8727   */\n      0x00\n        /* \"#utility.yul\":8715:8724   */\n      dup4\n        /* \"#utility.yul\":8711:8728   */\n      add\n        /* \"#utility.yul\":8702:8708   */\n      dup5\n        /* \"#utility.yul\":8658:8729   */\n      tag_220\n      jump\t// in\n    tag_250:\n        /* \"#utility.yul\":8514:8736   */\n      swap3\n      swap2\n      pop\n      pop\n      jump\t// out\n        /* \"#utility.yul\":8823:8992   */\n    tag_197:\n        /* \"#utility.yul\":8907:8918   */\n      0x00\n        /* \"#utility.yul\":8941:8947   */\n      dup3\n        /* \"#utility.yul\":8936:8939   */\n      dup3\n        /* \"#utility.yul\":8929:8948   */\n      mstore\n        /* \"#utility.yul\":8981:8985   */\n      0x20\n        /* \"#utility.yul\":8976:8979   */\n      dup3\n        /* \"#utility.yul\":8972:8986   */\n      add\n        /* \"#utility.yul\":8957:8986   */\n      swap1\n      pop\n        /* \"#utility.yul\":8823:8992   */\n      swap3\n      swap2\n      pop\n      pop\n      jump\t// out\n        /* \"#utility.yul\":8998:9303   */\n    tag_76:\n        /* \"#utility.yul\":9038:9041   */\n      0x00\n        /* \"#utility.yul\":9057:9077   */\n      tag_255\n        /* \"#utility.yul\":9075:9076   */\n      dup3\n        /* \"#utility.yul\":9057:9077   */\n      tag_223\n      jump\t// in\n    tag_255:\n        /* \"#utility.yul\":9052:9077   */\n      swap2\n      pop\n        /* \"#utility.yul\":9091:9111   */\n      tag_256\n        /* \"#utility.yul\":9109:9110   */\n      dup4\n        /* \"#utility.yul\":9091:9111   */\n      tag_223\n      jump\t// in\n    tag_256:\n        /* \"#utility.yul\":9086:9111   */\n      swap3\n      pop\n        /* \"#utility.yul\":9245:9246   */\n      dup3\n        /* \"#utility.yul\":9177:9243   */\n      0xffffffffffffffffffffffffffffffffffffffffffffffffffffffffffffffff\n        /* \"#utility.yul\":9173:9247   */\n      sub\n        /* \"#utility.yul\":9170:9171   */\n      dup3\n        /* \"#utility.yul\":9167:9248   */\n      gt\n        /* \"#utility.yul\":9164:9271   */\n      iszero\n      tag_257\n      jumpi\n        /* \"#utility.yul\":9251:9269   */\n      tag_258\n      tag_259\n      jump\t// in\n    tag_258:\n        /* \"#utility.yul\":9164:9271   */\n    tag_257:\n        /* \"#utility.yul\":9295:9296   */\n      dup3\n        /* \"#utility.yul\":9292:9293   */\n      dup3\n        /* \"#utility.yul\":9288:9297   */\n      add\n        /* \"#utility.yul\":9281:9297   */\n      swap1\n      pop\n        /* \"#utility.yul\":8998:9303   */\n      swap3\n      swap2\n      pop\n      pop\n      jump\t// out\n        /* \"#utility.yul\":9309:9500   */\n    tag_73:\n        /* \"#utility.yul\":9349:9353   */\n      0x00\n        /* \"#utility.yul\":9369:9389   */\n      tag_261\n        /* \"#utility.yul\":9387:9388   */\n      dup3\n        /* \"#utility.yul\":9369:9389   */\n      tag_223\n      jump\t// in\n    tag_261:\n        /* \"#utility.yul\":9364:9389   */\n      swap2\n      pop\n        /* \"#utility.yul\":9403:9423   */\n      tag_262\n        /* \"#utility.yul\":9421:9422   */\n      dup4\n        /* \"#utility.yul\":9403:9423   */\n      tag_223\n      jump\t// in\n    tag_262:\n        /* \"#utility.yul\":9398:9423   */\n      swap3\n      pop\n        /* \"#utility.yul\":9442:9443   */\n      dup3\n        /* \"#utility.yul\":9439:9440   */\n      dup3\n        /* \"#utility.yul\":9436:9444   */\n      lt\n        /* \"#utility.yul\":9433:9467   */\n      iszero\n      tag_263\n      jumpi\n        /* \"#utility.yul\":9447:9465   */\n      tag_264\n      tag_259\n      jump\t// in\n    tag_264:\n        /* \"#utility.yul\":9433:9467   */\n    tag_263:\n        /* \"#utility.yul\":9492:9493   */\n      dup3\n        /* \"#utility.yul\":9489:9490   */\n      dup3\n        /* \"#utility.yul\":9485:9494   */\n      sub\n        /* \"#utility.yul\":9477:9494   */\n      swap1\n      pop\n        /* \"#utility.yul\":9309:9500   */\n      swap3\n      swap2\n      pop\n      pop\n      jump\t// out\n        /* \"#utility.yul\":9506:9602   */\n    tag_181:\n        /* \"#utility.yul\":9543:9550   */\n      0x00\n        /* \"#utility.yul\":9572:9596   */\n      tag_266\n        /* \"#utility.yul\":9590:9595   */\n      dup3\n        /* \"#utility.yul\":9572:9596   */\n      tag_267\n      jump\t// in\n    tag_266:\n        /* \"#utility.yul\":9561:9596   */\n      swap1\n      pop\n        /* \"#utility.yul\":9506:9602   */\n      swap2\n      swap1\n      pop\n      jump\t// out\n        /* \"#utility.yul\":9608:9698   */\n    tag_268:\n        /* \"#utility.yul\":9642:9649   */\n      0x00\n        /* \"#utility.yul\":9685:9690   */\n      dup2\n        /* \"#utility.yul\":9678:9691   */\n      iszero\n        /* \"#utility.yul\":9671:9692   */\n      iszero\n        /* \"#utility.yul\":9660:9692   */\n      swap1\n      pop\n        /* \"#utility.yul\":9608:9698   */\n      swap2\n      swap1\n      pop\n      jump\t// out\n        /* \"#utility.yul\":9704:9830   */\n    tag_267:\n        /* \"#utility.yul\":9741:9748   */\n      0x00\n        /* \"#utility.yul\":9781:9823   */\n      0xffffffffffffffffffffffffffffffffffffffff\n        /* \"#utility.yul\":9774:9779   */\n      dup3\n        /* \"#utility.yul\":9770:9824   */\n      and\n        /* \"#utility.yul\":9759:9824   */\n      swap1\n      pop\n        /* \"#utility.yul\":9704:9830   */\n      swap2\n      swap1\n      pop\n      jump\t// out\n        /* \"#utility.yul\":9836:9913   */\n    tag_223:\n        /* \"#utility.yul\":9873:9880   */\n      0x00\n        /* \"#utility.yul\":9902:9907   */\n      dup2\n        /* \"#utility.yul\":9891:9907   */\n      swap1\n      pop\n        /* \"#utility.yul\":9836:9913   */\n      swap2\n      swap1\n      pop\n      jump\t// out\n        /* \"#utility.yul\":9919:10059   */\n    tag_185:\n        /* \"#utility.yul\":9983:9992   */\n      0x00\n        /* \"#utility.yul\":10016:10053   */\n      tag_273\n        /* \"#utility.yul\":10047:10052   */\n      dup3\n        /* \"#utility.yul\":10016:10053   */\n      tag_274\n      jump\t// in\n    tag_273:\n        /* \"#utility.yul\":10003:10053   */\n      swap1\n      pop\n        /* \"#utility.yul\":9919:10059   */\n      swap2\n      swap1\n      pop\n      jump\t// out\n        /* \"#utility.yul\":10065:10206   */\n    tag_189:\n        /* \"#utility.yul\":10130:10139   */\n      0x00\n        /* \"#utility.yul\":10163:10200   */\n      tag_276\n        /* \"#utility.yul\":10194:10199   */\n      dup3\n        /* \"#utility.yul\":10163:10200   */\n      tag_274\n      jump\t// in\n    tag_276:\n        /* \"#utility.yul\":10150:10200   */\n      swap1\n      pop\n        /* \"#utility.yul\":10065:10206   */\n      swap2\n      swap1\n      pop\n      jump\t// out\n        /* \"#utility.yul\":10212:10354   */\n    tag_193:\n        /* \"#utility.yul\":10278:10287   */\n      0x00\n        /* \"#utility.yul\":10311:10348   */\n      tag_278\n        /* \"#utility.yul\":10342:10347   */\n      dup3\n        /* \"#utility.yul\":10311:10348   */\n      tag_274\n      jump\t// in\n    tag_278:\n        /* \"#utility.yul\":10298:10348   */\n      swap1\n      pop\n        /* \"#utility.yul\":10212:10354   */\n      swap2\n      swap1\n      pop\n      jump\t// out\n        /* \"#utility.yul\":10360:10486   */\n    tag_274:\n        /* \"#utility.yul\":10410:10419   */\n      0x00\n        /* \"#utility.yul\":10443:10480   */\n      tag_280\n        /* \"#utility.yul\":10474:10479   */\n      dup3\n        /* \"#utility.yul\":10443:10480   */\n      tag_281\n      jump\t// in\n    tag_280:\n        /* \"#utility.yul\":10430:10480   */\n      swap1\n      pop\n        /* \"#utility.yul\":10360:10486   */\n      swap2\n      swap1\n      pop\n      jump\t// out\n        /* \"#utility.yul\":10492:10605   */\n    tag_281:\n        /* \"#utility.yul\":10542:10551   */\n      0x00\n        /* \"#utility.yul\":10575:10599   */\n      tag_283\n        /* \"#utility.yul\":10593:10598   */\n      dup3\n        /* \"#utility.yul\":10575:10599   */\n      tag_267\n      jump\t// in\n    tag_283:\n        /* \"#utility.yul\":10562:10599   */\n      swap1\n      pop\n        /* \"#utility.yul\":10492:10605   */\n      swap2\n      swap1\n      pop\n      jump\t// out\n        /* \"#utility.yul\":10611:10791   */\n    tag_259:\n        /* \"#utility.yul\":10659:10736   */\n      0x4e487b7100000000000000000000000000000000000000000000000000000000\n        /* \"#utility.yul\":10656:10657   */\n      0x00\n        /* \"#utility.yul\":10649:10737   */\n      mstore\n        /* \"#utility.yul\":10756:10760   */\n      0x11\n        /* \"#utility.yul\":10753:10754   */\n      0x04\n        /* \"#utility.yul\":10746:10761   */\n      mstore\n        /* \"#utility.yul\":10780:10784   */\n      0x24\n        /* \"#utility.yul\":10777:10778   */\n      0x00\n        /* \"#utility.yul\":10770:10785   */\n      revert\n        /* \"#utility.yul\":10920:11037   */\n    tag_164:\n        /* \"#utility.yul\":11029:11030   */\n      0x00\n        /* \"#utility.yul\":11026:11027   */\n      dup1\n        /* \"#utility.yul\":11019:11031   */\n      revert\n        /* \"#utility.yul\":11043:11203   */\n    tag_199:\n        /* \"#utility.yul\":11183:11195   */\n      0x4e6f74207374616b656400000000000000000000000000000000000000000000\n        /* \"#utility.yul\":11179:11180   */\n      0x00\n        /* \"#utility.yul\":11171:11177   */\n      dup3\n        /* \"#utility.yul\":11167:11181   */\n      add\n        /* \"#utility.yul\":11160:11196   */\n      mstore\n        /* \"#utility.yul\":11043:11203   */\n      pop\n      jump\t// out\n        /* \"#utility.yul\":11209:11372   */\n    tag_204:\n        /* \"#utility.yul\":11349:11364   */\n      0x5472616e73666572206661696c00000000000000000000000000000000000000\n        /* \"#utility.yul\":11345:11346   */\n      0x00\n        /* \"#utility.yul\":11337:11343   */\n      dup3\n        /* \"#utility.yul\":11333:11347   */\n      add\n        /* \"#utility.yul\":11326:11365   */\n      mstore\n        /* \"#utility.yul\":11209:11372   */\n      pop\n      jump\t// out\n        /* \"#utility.yul\":11378:11541   */\n    tag_209:\n        /* \"#utility.yul\":11518:11533   */\n      0x4e6f74207265616c4f776e657200000000000000000000000000000000000000\n        /* \"#utility.yul\":11514:11515   */\n      0x00\n        /* \"#utility.yul\":11506:11512   */\n      dup3\n        /* \"#utility.yul\":11502:11516   */\n      add\n        /* \"#utility.yul\":11495:11534   */\n      mstore\n        /* \"#utility.yul\":11378:11541   */\n      pop\n      jump\t// out\n        /* \"#utility.yul\":11547:11706   */\n    tag_214:\n        /* \"#utility.yul\":11687:11698   */\n      0x4e6f74206f776e65720000000000000000000000000000000000000000000000\n        /* \"#utility.yul\":11683:11684   */\n      0x00\n        /* \"#utility.yul\":11675:11681   */\n      dup3\n        /* \"#utility.yul\":11671:11685   */\n      add\n        /* \"#utility.yul\":11664:11699   */\n      mstore\n        /* \"#utility.yul\":11547:11706   */\n      pop\n      jump\t// out\n        /* \"#utility.yul\":11712:11893   */\n    tag_219:\n        /* \"#utility.yul\":11852:11885   */\n      0x5265656e7472616e637947756172643a207265656e7472616e742063616c6c00\n        /* \"#utility.yul\":11848:11849   */\n      0x00\n        /* \"#utility.yul\":11840:11846   */\n      dup3\n        /* \"#utility.yul\":11836:11850   */\n      add\n        /* \"#utility.yul\":11829:11886   */\n      mstore\n        /* \"#utility.yul\":11712:11893   */\n      pop\n      jump\t// out\n        /* \"#utility.yul\":11899:12021   */\n    tag_149:\n        /* \"#utility.yul\":11972:11996   */\n      tag_294\n        /* \"#utility.yul\":11990:11995   */\n      dup2\n        /* \"#utility.yul\":11972:11996   */\n      tag_181\n      jump\t// in\n    tag_294:\n        /* \"#utility.yul\":11965:11970   */\n      dup2\n        /* \"#utility.yul\":11962:11997   */\n      eq\n        /* \"#utility.yul\":11952:12015   */\n      tag_295\n      jumpi\n        /* \"#utility.yul\":12011:12012   */\n      0x00\n        /* \"#utility.yul\":12008:12009   */\n      dup1\n        /* \"#utility.yul\":12001:12013   */\n      revert\n        /* \"#utility.yul\":11952:12015   */\n    tag_295:\n        /* \"#utility.yul\":11899:12021   */\n      pop\n      jump\t// out\n        /* \"#utility.yul\":12027:12143   */\n    tag_153:\n        /* \"#utility.yul\":12097:12118   */\n      tag_297\n        /* \"#utility.yul\":12112:12117   */\n      dup2\n        /* \"#utility.yul\":12097:12118   */\n      tag_268\n      jump\t// in\n    tag_297:\n        /* \"#utility.yul\":12090:12095   */\n      dup2\n        /* \"#utility.yul\":12087:12119   */\n      eq\n        /* \"#utility.yul\":12077:12137   */\n      tag_298\n      jumpi\n        /* \"#utility.yul\":12133:12134   */\n      0x00\n        /* \"#utility.yul\":12130:12131   */\n      dup1\n        /* \"#utility.yul\":12123:12135   */\n      revert\n        /* \"#utility.yul\":12077:12137   */\n    tag_298:\n        /* \"#utility.yul\":12027:12143   */\n      pop\n      jump\t// out\n        /* \"#utility.yul\":12149:12271   */\n    tag_157:\n        /* \"#utility.yul\":12222:12246   */\n      tag_300\n        /* \"#utility.yul\":12240:12245   */\n      dup2\n        /* \"#utility.yul\":12222:12246   */\n      tag_223\n      jump\t// in\n    tag_300:\n        /* \"#utility.yul\":12215:12220   */\n      dup2\n        /* \"#utility.yul\":12212:12247   */\n      eq\n        /* \"#utility.yul\":12202:12265   */\n      tag_301\n      jumpi\n        /* \"#utility.yul\":12261:12262   */\n      0x00\n        /* \"#utility.yul\":12258:12259   */\n      dup1\n        /* \"#utility.yul\":12251:12263   */\n      revert\n        /* \"#utility.yul\":12202:12265   */\n    tag_301:\n        /* \"#utility.yul\":12149:12271   */\n      pop\n      jump\t// out\n\n    auxdata: 0xa26469706673582212204b47107a69dfcb0b92bb6c189783a86e2af9f8deb9fdad3f63ef5dc33324e22c64736f6c63430008070033\n}\n",
				"bytecode": {
					"linkReferences": {},
					"object": "60806040523480156200001157600080fd5b506040516200177a3803806200177a833981810160405281019062000037919062000162565b600160008190555081600260006101000a81548173ffffffffffffffffffffffffffffffffffffffff021916908373ffffffffffffffffffffffffffffffffffffffff16021790555081600360006101000a81548173ffffffffffffffffffffffffffffffffffffffff021916908373ffffffffffffffffffffffffffffffffffffffff16021790555080600160006101000a81548173ffffffffffffffffffffffffffffffffffffffff021916908373ffffffffffffffffffffffffffffffffffffffff16021790555081600460006101000a81548173ffffffffffffffffffffffffffffffffffffffff021916908373ffffffffffffffffffffffffffffffffffffffff1602179055505050620001fc565b6000815190506200015c81620001e2565b92915050565b600080604083850312156200017c576200017b620001dd565b5b60006200018c858286016200014b565b92505060206200019f858286016200014b565b9150509250929050565b6000620001b682620001bd565b9050919050565b600073ffffffffffffffffffffffffffffffffffffffff82169050919050565b600080fd5b620001ed81620001a9565b8114620001f957600080fd5b50565b61156e806200020c6000396000f3fe608060405234801561001057600080fd5b50600436106100935760003560e01c806366bb863b1161006657806366bb863b1461011c57806380a540011461013a578063a694fc3a14610158578063b8e33fb214610174578063fead3d6e1461019257610093565b80630eeadd30146100985780632e17de78146100b4578063379607f5146100d057806353eebc6d146100ec575b600080fd5b6100b260048036038101906100ad9190610fda565b6101b0565b005b6100ce60048036038101906100c99190610fda565b61027a565b005b6100ea60048036038101906100e59190610fda565b6107ef565b005b61010660048036038101906101019190610fda565b610c02565b604051610113919061129a565b60405180910390f35b610124610c22565b604051610131919061112e565b60405180910390f35b610142610c48565b60405161014f91906111a9565b60405180910390f35b610172600480360381019061016d9190610fda565b610c6e565b005b61017c610ee0565b60405161018991906111c4565b60405180910390f35b61019a610f06565b6040516101a791906111df565b60405180910390f35b600360009054906101000a900473ffffffffffffffffffffffffffffffffffffffff1673ffffffffffffffffffffffffffffffffffffffff1663a0c4442d826040518263ffffffff1660e01b815260040161020b919061129a565b602060405180830381600087803b15801561022557600080fd5b505af1158015610239573d6000803e3d6000fd5b505050506040513d601f19601f8201168201806040525081019061025d9190611007565b600560008381526020019081526020016000206001018190555050565b3073ffffffffffffffffffffffffffffffffffffffff16600260009054906101000a900473ffffffffffffffffffffffffffffffffffffffff1673ffffffffffffffffffffffffffffffffffffffff16636352211e836040518263ffffffff1660e01b81526004016102ec919061129a565b60206040518083038186803b15801561030457600080fd5b505afa158015610318573d6000803e3d6000fd5b505050506040513d601f19601f8201168201806040525081019061033c9190610f80565b73ffffffffffffffffffffffffffffffffffffffff1614610392576040517f08c379a0000000000000000000000000000000000000000000000000000000008152600401610389906111fa565b60405180910390fd5b3373ffffffffffffffffffffffffffffffffffffffff166005600083815260200190815260200160002060000160009054906101000a900473ffffffffffffffffffffffffffffffffffffffff1673ffffffffffffffffffffffffffffffffffffffff1614610436576040517f08c379a000000000000000000000000000000000000000000000000000000000815260040161042d9061123a565b60405180910390fd5b60006005600083815260200190815260200160002060010154600360009054906101000a900473ffffffffffffffffffffffffffffffffffffffff1673ffffffffffffffffffffffffffffffffffffffff1663a0c4442d846040518263ffffffff1660e01b81526004016104aa919061129a565b602060405180830381600087803b1580156104c457600080fd5b505af11580156104d8573d6000803e3d6000fd5b505050506040513d601f19601f820116820180604052508101906104fc9190611007565b610506919061131c565b600560008481526020019081526020016000206002015442610528919061131c565b61053291906112c6565b90506000600360009054906101000a900473ffffffffffffffffffffffffffffffffffffffff1673ffffffffffffffffffffffffffffffffffffffff1663a0c4442d846040518263ffffffff1660e01b8152600401610591919061129a565b602060405180830381600087803b1580156105ab57600080fd5b505af11580156105bf573d6000803e3d6000fd5b505050506040513d601f19601f820116820180604052508101906105e39190611007565b9050600160009054906101000a900473ffffffffffffffffffffffffffffffffffffffff1673ffffffffffffffffffffffffffffffffffffffff1663a9059cbb33846040518363ffffffff1660e01b8152600401610642929190611180565b602060405180830381600087803b15801561065c57600080fd5b505af1158015610670573d6000803e3d6000fd5b505050506040513d601f19601f820116820180604052508101906106949190610fad565b15610703574260056000858152602001908152602001600020600201819055506005600084815260200190815260200160002060010154816106d6919061131c565b6005600085815260200190815260200160002060010160008282546106fb91906112c6565b925050819055505b600260009054906101000a900473ffffffffffffffffffffffffffffffffffffffff1673ffffffffffffffffffffffffffffffffffffffff166323b872dd3033866040518463ffffffff1660e01b815260040161076293929190611149565b600060405180830381600087803b15801561077c57600080fd5b505af1158015610790573d6000803e3d6000fd5b5050505060006005600085815260200190815260200160002060000160006101000a81548173ffffffffffffffffffffffffffffffffffffffff021916908373ffffffffffffffffffffffffffffffffffffffff160217905550505050565b60026000541415610835576040517f08c379a000000000000000000000000000000000000000000000000000000000815260040161082c9061127a565b60405180910390fd5b6002600081905550600060056000838152602001908152602001600020600201541161086057600080fd5b3373ffffffffffffffffffffffffffffffffffffffff166005600083815260200190815260200160002060000160009054906101000a900473ffffffffffffffffffffffffffffffffffffffff1673ffffffffffffffffffffffffffffffffffffffff16146108ce57600080fd5b600360009054906101000a900473ffffffffffffffffffffffffffffffffffffffff1673ffffffffffffffffffffffffffffffffffffffff1663a0c4442d826040518263ffffffff1660e01b8152600401610929919061129a565b602060405180830381600087803b15801561094357600080fd5b505af1158015610957573d6000803e3d6000fd5b505050506040513d601f19601f8201168201806040525081019061097b9190611007565b60056000838152602001908152602001600020600101819055506000600360009054906101000a900473ffffffffffffffffffffffffffffffffffffffff1673ffffffffffffffffffffffffffffffffffffffff1663a0c4442d836040518263ffffffff1660e01b81526004016109f2919061129a565b602060405180830381600087803b158015610a0c57600080fd5b505af1158015610a20573d6000803e3d6000fd5b505050506040513d601f19601f82011682018060405250810190610a449190611007565b90506000600560008481526020019081526020016000206001015482610a6a919061131c565b600560008581526020019081526020016000206002015442610a8c919061131c565b610a9691906112c6565b9050600160009054906101000a900473ffffffffffffffffffffffffffffffffffffffff1673ffffffffffffffffffffffffffffffffffffffff1663a9059cbb33836040518363ffffffff1660e01b8152600401610af5929190611180565b602060405180830381600087803b158015610b0f57600080fd5b505af1158015610b23573d6000803e3d6000fd5b505050506040513d601f19601f82011682018060405250810190610b479190610fad565b15610bba57426005600085815260200190815260200160002060020181905550600560008481526020019081526020016000206001015482610b89919061131c565b600560008581526020019081526020016000206001016000828254610bae91906112c6565b92505081905550610bf5565b6040517f08c379a0000000000000000000000000000000000000000000000000000000008152600401610bec9061121a565b60405180910390fd5b5050600160008190555050565b600060056000838152602001908152602001600020600101549050919050565b600460009054906101000a900473ffffffffffffffffffffffffffffffffffffffff1681565b600160009054906101000a900473ffffffffffffffffffffffffffffffffffffffff1681565b60026000541415610cb4576040517f08c379a0000000000000000000000000000000000000000000000000000000008152600401610cab9061127a565b60405180910390fd5b60026000819055503373ffffffffffffffffffffffffffffffffffffffff16600260009054906101000a900473ffffffffffffffffffffffffffffffffffffffff1673ffffffffffffffffffffffffffffffffffffffff16636352211e836040518263ffffffff1660e01b8152600401610d2e919061129a565b60206040518083038186803b158015610d4657600080fd5b505afa158015610d5a573d6000803e3d6000fd5b505050506040513d601f19601f82011682018060405250810190610d7e9190610f80565b73ffffffffffffffffffffffffffffffffffffffff1614610dd4576040517f08c379a0000000000000000000000000000000000000000000000000000000008152600401610dcb9061125a565b60405180910390fd5b600260009054906101000a900473ffffffffffffffffffffffffffffffffffffffff1673ffffffffffffffffffffffffffffffffffffffff166323b872dd3330846040518463ffffffff1660e01b8152600401610e3393929190611149565b600060405180830381600087803b158015610e4d57600080fd5b505af1158015610e61573d6000803e3d6000fd5b50505050336005600083815260200190815260200160002060000160006101000a81548173ffffffffffffffffffffffffffffffffffffffff021916908373ffffffffffffffffffffffffffffffffffffffff160217905550426005600083815260200190815260200160002060020181905550600160008190555050565b600260009054906101000a900473ffffffffffffffffffffffffffffffffffffffff1681565b600360009054906101000a900473ffffffffffffffffffffffffffffffffffffffff1681565b600081519050610f3b816114f3565b92915050565b600081519050610f508161150a565b92915050565b600081359050610f6581611521565b92915050565b600081519050610f7a81611521565b92915050565b600060208284031215610f9657610f95611421565b5b6000610fa484828501610f2c565b91505092915050565b600060208284031215610fc357610fc2611421565b5b6000610fd184828501610f41565b91505092915050565b600060208284031215610ff057610fef611421565b5b6000610ffe84828501610f56565b91505092915050565b60006020828403121561101d5761101c611421565b5b600061102b84828501610f6b565b91505092915050565b61103d81611350565b82525050565b61104c81611398565b82525050565b61105b816113aa565b82525050565b61106a816113bc565b82525050565b600061107d600a836112b5565b915061108882611426565b602082019050919050565b60006110a0600d836112b5565b91506110ab8261144f565b602082019050919050565b60006110c3600d836112b5565b91506110ce82611478565b602082019050919050565b60006110e66009836112b5565b91506110f1826114a1565b602082019050919050565b6000611109601f836112b5565b9150611114826114ca565b602082019050919050565b6111288161138e565b82525050565b60006020820190506111436000830184611034565b92915050565b600060608201905061115e6000830186611034565b61116b6020830185611034565b611178604083018461111f565b949350505050565b60006040820190506111956000830185611034565b6111a2602083018461111f565b9392505050565b60006020820190506111be6000830184611043565b92915050565b60006020820190506111d96000830184611052565b92915050565b60006020820190506111f46000830184611061565b92915050565b6000602082019050818103600083015261121381611070565b9050919050565b6000602082019050818103600083015261123381611093565b9050919050565b60006020820190508181036000830152611253816110b6565b9050919050565b60006020820190508181036000830152611273816110d9565b9050919050565b60006020820190508181036000830152611293816110fc565b9050919050565b60006020820190506112af600083018461111f565b92915050565b600082825260208201905092915050565b60006112d18261138e565b91506112dc8361138e565b9250827fffffffffffffffffffffffffffffffffffffffffffffffffffffffffffffffff03821115611311576113106113f2565b5b828201905092915050565b60006113278261138e565b91506113328361138e565b925082821015611345576113446113f2565b5b828203905092915050565b600061135b8261136e565b9050919050565b60008115159050919050565b600073ffffffffffffffffffffffffffffffffffffffff82169050919050565b6000819050919050565b60006113a3826113ce565b9050919050565b60006113b5826113ce565b9050919050565b60006113c7826113ce565b9050919050565b60006113d9826113e0565b9050919050565b60006113eb8261136e565b9050919050565b7f4e487b7100000000000000000000000000000000000000000000000000000000600052601160045260246000fd5b600080fd5b7f4e6f74207374616b656400000000000000000000000000000000000000000000600082015250565b7f5472616e73666572206661696c00000000000000000000000000000000000000600082015250565b7f4e6f74207265616c4f776e657200000000000000000000000000000000000000600082015250565b7f4e6f74206f776e65720000000000000000000000000000000000000000000000600082015250565b7f5265656e7472616e637947756172643a207265656e7472616e742063616c6c00600082015250565b6114fc81611350565b811461150757600080fd5b50565b61151381611362565b811461151e57600080fd5b50565b61152a8161138e565b811461153557600080fd5b5056fea26469706673582212204b47107a69dfcb0b92bb6c189783a86e2af9f8deb9fdad3f63ef5dc33324e22c64736f6c63430008070033",
					"opcodes": "PUSH1 0x80 PUSH1 0x40 MSTORE CALLVALUE DUP1 ISZERO PUSH3 0x11 JUMPI PUSH1 0x0 DUP1 REVERT JUMPDEST POP PUSH1 0x40 MLOAD PUSH3 0x177A CODESIZE SUB DUP1 PUSH3 0x177A DUP4 CODECOPY DUP2 DUP2 ADD PUSH1 0x40 MSTORE DUP2 ADD SWAP1 PUSH3 0x37 SWAP2 SWAP1 PUSH3 0x162 JUMP JUMPDEST PUSH1 0x1 PUSH1 0x0 DUP2 SWAP1 SSTORE POP DUP2 PUSH1 0x2 PUSH1 0x0 PUSH2 0x100 EXP DUP2 SLOAD DUP2 PUSH20 0xFFFFFFFFFFFFFFFFFFFFFFFFFFFFFFFFFFFFFFFF MUL NOT AND SWAP1 DUP4 PUSH20 0xFFFFFFFFFFFFFFFFFFFFFFFFFFFFFFFFFFFFFFFF AND MUL OR SWAP1 SSTORE POP DUP2 PUSH1 0x3 PUSH1 0x0 PUSH2 0x100 EXP DUP2 SLOAD DUP2 PUSH20 0xFFFFFFFFFFFFFFFFFFFFFFFFFFFFFFFFFFFFFFFF MUL NOT AND SWAP1 DUP4 PUSH20 0xFFFFFFFFFFFFFFFFFFFFFFFFFFFFFFFFFFFFFFFF AND MUL OR SWAP1 SSTORE POP DUP1 PUSH1 0x1 PUSH1 0x0 PUSH2 0x100 EXP DUP2 SLOAD DUP2 PUSH20 0xFFFFFFFFFFFFFFFFFFFFFFFFFFFFFFFFFFFFFFFF MUL NOT AND SWAP1 DUP4 PUSH20 0xFFFFFFFFFFFFFFFFFFFFFFFFFFFFFFFFFFFFFFFF AND MUL OR SWAP1 SSTORE POP DUP2 PUSH1 0x4 PUSH1 0x0 PUSH2 0x100 EXP DUP2 SLOAD DUP2 PUSH20 0xFFFFFFFFFFFFFFFFFFFFFFFFFFFFFFFFFFFFFFFF MUL NOT AND SWAP1 DUP4 PUSH20 0xFFFFFFFFFFFFFFFFFFFFFFFFFFFFFFFFFFFFFFFF AND MUL OR SWAP1 SSTORE POP POP POP PUSH3 0x1FC JUMP JUMPDEST PUSH1 0x0 DUP2 MLOAD SWAP1 POP PUSH3 0x15C DUP2 PUSH3 0x1E2 JUMP JUMPDEST SWAP3 SWAP2 POP POP JUMP JUMPDEST PUSH1 0x0 DUP1 PUSH1 0x40 DUP4 DUP6 SUB SLT ISZERO PUSH3 0x17C JUMPI PUSH3 0x17B PUSH3 0x1DD JUMP JUMPDEST JUMPDEST PUSH1 0x0 PUSH3 0x18C DUP6 DUP3 DUP7 ADD PUSH3 0x14B JUMP JUMPDEST SWAP3 POP POP PUSH1 0x20 PUSH3 0x19F DUP6 DUP3 DUP7 ADD PUSH3 0x14B JUMP JUMPDEST SWAP2 POP POP SWAP3 POP SWAP3 SWAP1 POP JUMP JUMPDEST PUSH1 0x0 PUSH3 0x1B6 DUP3 PUSH3 0x1BD JUMP JUMPDEST SWAP1 POP SWAP2 SWAP1 POP JUMP JUMPDEST PUSH1 0x0 PUSH20 0xFFFFFFFFFFFFFFFFFFFFFFFFFFFFFFFFFFFFFFFF DUP3 AND SWAP1 POP SWAP2 SWAP1 POP JUMP JUMPDEST PUSH1 0x0 DUP1 REVERT JUMPDEST PUSH3 0x1ED DUP2 PUSH3 0x1A9 JUMP JUMPDEST DUP2 EQ PUSH3 0x1F9 JUMPI PUSH1 0x0 DUP1 REVERT JUMPDEST POP JUMP JUMPDEST PUSH2 0x156E DUP1 PUSH3 0x20C PUSH1 0x0 CODECOPY PUSH1 0x0 RETURN INVALID PUSH1 0x80 PUSH1 0x40 MSTORE CALLVALUE DUP1 ISZERO PUSH2 0x10 JUMPI PUSH1 0x0 DUP1 REVERT JUMPDEST POP PUSH1 0x4 CALLDATASIZE LT PUSH2 0x93 JUMPI PUSH1 0x0 CALLDATALOAD PUSH1 0xE0 SHR DUP1 PUSH4 0x66BB863B GT PUSH2 0x66 JUMPI DUP1 PUSH4 0x66BB863B EQ PUSH2 0x11C JUMPI DUP1 PUSH4 0x80A54001 EQ PUSH2 0x13A JUMPI DUP1 PUSH4 0xA694FC3A EQ PUSH2 0x158 JUMPI DUP1 PUSH4 0xB8E33FB2 EQ PUSH2 0x174 JUMPI DUP1 PUSH4 0xFEAD3D6E EQ PUSH2 0x192 JUMPI PUSH2 0x93 JUMP JUMPDEST DUP1 PUSH4 0xEEADD30 EQ PUSH2 0x98 JUMPI DUP1 PUSH4 0x2E17DE78 EQ PUSH2 0xB4 JUMPI DUP1 PUSH4 0x379607F5 EQ PUSH2 0xD0 JUMPI DUP1 PUSH4 0x53EEBC6D EQ PUSH2 0xEC JUMPI JUMPDEST PUSH1 0x0 DUP1 REVERT JUMPDEST PUSH2 0xB2 PUSH1 0x4 DUP1 CALLDATASIZE SUB DUP2 ADD SWAP1 PUSH2 0xAD SWAP2 SWAP1 PUSH2 0xFDA JUMP JUMPDEST PUSH2 0x1B0 JUMP JUMPDEST STOP JUMPDEST PUSH2 0xCE PUSH1 0x4 DUP1 CALLDATASIZE SUB DUP2 ADD SWAP1 PUSH2 0xC9 SWAP2 SWAP1 PUSH2 0xFDA JUMP JUMPDEST PUSH2 0x27A JUMP JUMPDEST STOP JUMPDEST PUSH2 0xEA PUSH1 0x4 DUP1 CALLDATASIZE SUB DUP2 ADD SWAP1 PUSH2 0xE5 SWAP2 SWAP1 PUSH2 0xFDA JUMP JUMPDEST PUSH2 0x7EF JUMP JUMPDEST STOP JUMPDEST PUSH2 0x106 PUSH1 0x4 DUP1 CALLDATASIZE SUB DUP2 ADD SWAP1 PUSH2 0x101 SWAP2 SWAP1 PUSH2 0xFDA JUMP JUMPDEST PUSH2 0xC02 JUMP JUMPDEST PUSH1 0x40 MLOAD PUSH2 0x113 SWAP2 SWAP1 PUSH2 0x129A JUMP JUMPDEST PUSH1 0x40 MLOAD DUP1 SWAP2 SUB SWAP1 RETURN JUMPDEST PUSH2 0x124 PUSH2 0xC22 JUMP JUMPDEST PUSH1 0x40 MLOAD PUSH2 0x131 SWAP2 SWAP1 PUSH2 0x112E JUMP JUMPDEST PUSH1 0x40 MLOAD DUP1 SWAP2 SUB SWAP1 RETURN JUMPDEST PUSH2 0x142 PUSH2 0xC48 JUMP JUMPDEST PUSH1 0x40 MLOAD PUSH2 0x14F SWAP2 SWAP1 PUSH2 0x11A9 JUMP JUMPDEST PUSH1 0x40 MLOAD DUP1 SWAP2 SUB SWAP1 RETURN JUMPDEST PUSH2 0x172 PUSH1 0x4 DUP1 CALLDATASIZE SUB DUP2 ADD SWAP1 PUSH2 0x16D SWAP2 SWAP1 PUSH2 0xFDA JUMP JUMPDEST PUSH2 0xC6E JUMP JUMPDEST STOP JUMPDEST PUSH2 0x17C PUSH2 0xEE0 JUMP JUMPDEST PUSH1 0x40 MLOAD PUSH2 0x189 SWAP2 SWAP1 PUSH2 0x11C4 JUMP JUMPDEST PUSH1 0x40 MLOAD DUP1 SWAP2 SUB SWAP1 RETURN JUMPDEST PUSH2 0x19A PUSH2 0xF06 JUMP JUMPDEST PUSH1 0x40 MLOAD PUSH2 0x1A7 SWAP2 SWAP1 PUSH2 0x11DF JUMP JUMPDEST PUSH1 0x40 MLOAD DUP1 SWAP2 SUB SWAP1 RETURN JUMPDEST PUSH1 0x3 PUSH1 0x0 SWAP1 SLOAD SWAP1 PUSH2 0x100 EXP SWAP1 DIV PUSH20 0xFFFFFFFFFFFFFFFFFFFFFFFFFFFFFFFFFFFFFFFF AND PUSH20 0xFFFFFFFFFFFFFFFFFFFFFFFFFFFFFFFFFFFFFFFF AND PUSH4 0xA0C4442D DUP3 PUSH1 0x40 MLOAD DUP3 PUSH4 0xFFFFFFFF AND PUSH1 0xE0 SHL DUP2 MSTORE PUSH1 0x4 ADD PUSH2 0x20B SWAP2 SWAP1 PUSH2 0x129A JUMP JUMPDEST PUSH1 0x20 PUSH1 0x40 MLOAD DUP1 DUP4 SUB DUP2 PUSH1 0x0 DUP8 DUP1 EXTCODESIZE ISZERO DUP1 ISZERO PUSH2 0x225 JUMPI PUSH1 0x0 DUP1 REVERT JUMPDEST POP GAS CALL ISZERO DUP1 ISZERO PUSH2 0x239 JUMPI RETURNDATASIZE PUSH1 0x0 DUP1 RETURNDATACOPY RETURNDATASIZE PUSH1 0x0 REVERT JUMPDEST POP POP POP POP PUSH1 0x40 MLOAD RETURNDATASIZE PUSH1 0x1F NOT PUSH1 0x1F DUP3 ADD AND DUP3 ADD DUP1 PUSH1 0x40 MSTORE POP DUP2 ADD SWAP1 PUSH2 0x25D SWAP2 SWAP1 PUSH2 0x1007 JUMP JUMPDEST PUSH1 0x5 PUSH1 0x0 DUP4 DUP2 MSTORE PUSH1 0x20 ADD SWAP1 DUP2 MSTORE PUSH1 0x20 ADD PUSH1 0x0 KECCAK256 PUSH1 0x1 ADD DUP2 SWAP1 SSTORE POP POP JUMP JUMPDEST ADDRESS PUSH20 0xFFFFFFFFFFFFFFFFFFFFFFFFFFFFFFFFFFFFFFFF AND PUSH1 0x2 PUSH1 0x0 SWAP1 SLOAD SWAP1 PUSH2 0x100 EXP SWAP1 DIV PUSH20 0xFFFFFFFFFFFFFFFFFFFFFFFFFFFFFFFFFFFFFFFF AND PUSH20 0xFFFFFFFFFFFFFFFFFFFFFFFFFFFFFFFFFFFFFFFF AND PUSH4 0x6352211E DUP4 PUSH1 0x40 MLOAD DUP3 PUSH4 0xFFFFFFFF AND PUSH1 0xE0 SHL DUP2 MSTORE PUSH1 0x4 ADD PUSH2 0x2EC SWAP2 SWAP1 PUSH2 0x129A JUMP JUMPDEST PUSH1 0x20 PUSH1 0x40 MLOAD DUP1 DUP4 SUB DUP2 DUP7 DUP1 EXTCODESIZE ISZERO DUP1 ISZERO PUSH2 0x304 JUMPI PUSH1 0x0 DUP1 REVERT JUMPDEST POP GAS STATICCALL ISZERO DUP1 ISZERO PUSH2 0x318 JUMPI RETURNDATASIZE PUSH1 0x0 DUP1 RETURNDATACOPY RETURNDATASIZE PUSH1 0x0 REVERT JUMPDEST POP POP POP POP PUSH1 0x40 MLOAD RETURNDATASIZE PUSH1 0x1F NOT PUSH1 0x1F DUP3 ADD AND DUP3 ADD DUP1 PUSH1 0x40 MSTORE POP DUP2 ADD SWAP1 PUSH2 0x33C SWAP2 SWAP1 PUSH2 0xF80 JUMP JUMPDEST PUSH20 0xFFFFFFFFFFFFFFFFFFFFFFFFFFFFFFFFFFFFFFFF AND EQ PUSH2 0x392 JUMPI PUSH1 0x40 MLOAD PUSH32 0x8C379A000000000000000000000000000000000000000000000000000000000 DUP2 MSTORE PUSH1 0x4 ADD PUSH2 0x389 SWAP1 PUSH2 0x11FA JUMP JUMPDEST PUSH1 0x40 MLOAD DUP1 SWAP2 SUB SWAP1 REVERT JUMPDEST CALLER PUSH20 0xFFFFFFFFFFFFFFFFFFFFFFFFFFFFFFFFFFFFFFFF AND PUSH1 0x5 PUSH1 0x0 DUP4 DUP2 MSTORE PUSH1 0x20 ADD SWAP1 DUP2 MSTORE PUSH1 0x20 ADD PUSH1 0x0 KECCAK256 PUSH1 0x0 ADD PUSH1 0x0 SWAP1 SLOAD SWAP1 PUSH2 0x100 EXP SWAP1 DIV PUSH20 0xFFFFFFFFFFFFFFFFFFFFFFFFFFFFFFFFFFFFFFFF AND PUSH20 0xFFFFFFFFFFFFFFFFFFFFFFFFFFFFFFFFFFFFFFFF AND EQ PUSH2 0x436 JUMPI PUSH1 0x40 MLOAD PUSH32 0x8C379A000000000000000000000000000000000000000000000000000000000 DUP2 MSTORE PUSH1 0x4 ADD PUSH2 0x42D SWAP1 PUSH2 0x123A JUMP JUMPDEST PUSH1 0x40 MLOAD DUP1 SWAP2 SUB SWAP1 REVERT JUMPDEST PUSH1 0x0 PUSH1 0x5 PUSH1 0x0 DUP4 DUP2 MSTORE PUSH1 0x20 ADD SWAP1 DUP2 MSTORE PUSH1 0x20 ADD PUSH1 0x0 KECCAK256 PUSH1 0x1 ADD SLOAD PUSH1 0x3 PUSH1 0x0 SWAP1 SLOAD SWAP1 PUSH2 0x100 EXP SWAP1 DIV PUSH20 0xFFFFFFFFFFFFFFFFFFFFFFFFFFFFFFFFFFFFFFFF AND PUSH20 0xFFFFFFFFFFFFFFFFFFFFFFFFFFFFFFFFFFFFFFFF AND PUSH4 0xA0C4442D DUP5 PUSH1 0x40 MLOAD DUP3 PUSH4 0xFFFFFFFF AND PUSH1 0xE0 SHL DUP2 MSTORE PUSH1 0x4 ADD PUSH2 0x4AA SWAP2 SWAP1 PUSH2 0x129A JUMP JUMPDEST PUSH1 0x20 PUSH1 0x40 MLOAD DUP1 DUP4 SUB DUP2 PUSH1 0x0 DUP8 DUP1 EXTCODESIZE ISZERO DUP1 ISZERO PUSH2 0x4C4 JUMPI PUSH1 0x0 DUP1 REVERT JUMPDEST POP GAS CALL ISZERO DUP1 ISZERO PUSH2 0x4D8 JUMPI RETURNDATASIZE PUSH1 0x0 DUP1 RETURNDATACOPY RETURNDATASIZE PUSH1 0x0 REVERT JUMPDEST POP POP POP POP PUSH1 0x40 MLOAD RETURNDATASIZE PUSH1 0x1F NOT PUSH1 0x1F DUP3 ADD AND DUP3 ADD DUP1 PUSH1 0x40 MSTORE POP DUP2 ADD SWAP1 PUSH2 0x4FC SWAP2 SWAP1 PUSH2 0x1007 JUMP JUMPDEST PUSH2 0x506 SWAP2 SWAP1 PUSH2 0x131C JUMP JUMPDEST PUSH1 0x5 PUSH1 0x0 DUP5 DUP2 MSTORE PUSH1 0x20 ADD SWAP1 DUP2 MSTORE PUSH1 0x20 ADD PUSH1 0x0 KECCAK256 PUSH1 0x2 ADD SLOAD TIMESTAMP PUSH2 0x528 SWAP2 SWAP1 PUSH2 0x131C JUMP JUMPDEST PUSH2 0x532 SWAP2 SWAP1 PUSH2 0x12C6 JUMP JUMPDEST SWAP1 POP PUSH1 0x0 PUSH1 0x3 PUSH1 0x0 SWAP1 SLOAD SWAP1 PUSH2 0x100 EXP SWAP1 DIV PUSH20 0xFFFFFFFFFFFFFFFFFFFFFFFFFFFFFFFFFFFFFFFF AND PUSH20 0xFFFFFFFFFFFFFFFFFFFFFFFFFFFFFFFFFFFFFFFF AND PUSH4 0xA0C4442D DUP5 PUSH1 0x40 MLOAD DUP3 PUSH4 0xFFFFFFFF AND PUSH1 0xE0 SHL DUP2 MSTORE PUSH1 0x4 ADD PUSH2 0x591 SWAP2 SWAP1 PUSH2 0x129A JUMP JUMPDEST PUSH1 0x20 PUSH1 0x40 MLOAD DUP1 DUP4 SUB DUP2 PUSH1 0x0 DUP8 DUP1 EXTCODESIZE ISZERO DUP1 ISZERO PUSH2 0x5AB JUMPI PUSH1 0x0 DUP1 REVERT JUMPDEST POP GAS CALL ISZERO DUP1 ISZERO PUSH2 0x5BF JUMPI RETURNDATASIZE PUSH1 0x0 DUP1 RETURNDATACOPY RETURNDATASIZE PUSH1 0x0 REVERT JUMPDEST POP POP POP POP PUSH1 0x40 MLOAD RETURNDATASIZE PUSH1 0x1F NOT PUSH1 0x1F DUP3 ADD AND DUP3 ADD DUP1 PUSH1 0x40 MSTORE POP DUP2 ADD SWAP1 PUSH2 0x5E3 SWAP2 SWAP1 PUSH2 0x1007 JUMP JUMPDEST SWAP1 POP PUSH1 0x1 PUSH1 0x0 SWAP1 SLOAD SWAP1 PUSH2 0x100 EXP SWAP1 DIV PUSH20 0xFFFFFFFFFFFFFFFFFFFFFFFFFFFFFFFFFFFFFFFF AND PUSH20 0xFFFFFFFFFFFFFFFFFFFFFFFFFFFFFFFFFFFFFFFF AND PUSH4 0xA9059CBB CALLER DUP5 PUSH1 0x40 MLOAD DUP4 PUSH4 0xFFFFFFFF AND PUSH1 0xE0 SHL DUP2 MSTORE PUSH1 0x4 ADD PUSH2 0x642 SWAP3 SWAP2 SWAP1 PUSH2 0x1180 JUMP JUMPDEST PUSH1 0x20 PUSH1 0x40 MLOAD DUP1 DUP4 SUB DUP2 PUSH1 0x0 DUP8 DUP1 EXTCODESIZE ISZERO DUP1 ISZERO PUSH2 0x65C JUMPI PUSH1 0x0 DUP1 REVERT JUMPDEST POP GAS CALL ISZERO DUP1 ISZERO PUSH2 0x670 JUMPI RETURNDATASIZE PUSH1 0x0 DUP1 RETURNDATACOPY RETURNDATASIZE PUSH1 0x0 REVERT JUMPDEST POP POP POP POP PUSH1 0x40 MLOAD RETURNDATASIZE PUSH1 0x1F NOT PUSH1 0x1F DUP3 ADD AND DUP3 ADD DUP1 PUSH1 0x40 MSTORE POP DUP2 ADD SWAP1 PUSH2 0x694 SWAP2 SWAP1 PUSH2 0xFAD JUMP JUMPDEST ISZERO PUSH2 0x703 JUMPI TIMESTAMP PUSH1 0x5 PUSH1 0x0 DUP6 DUP2 MSTORE PUSH1 0x20 ADD SWAP1 DUP2 MSTORE PUSH1 0x20 ADD PUSH1 0x0 KECCAK256 PUSH1 0x2 ADD DUP2 SWAP1 SSTORE POP PUSH1 0x5 PUSH1 0x0 DUP5 DUP2 MSTORE PUSH1 0x20 ADD SWAP1 DUP2 MSTORE PUSH1 0x20 ADD PUSH1 0x0 KECCAK256 PUSH1 0x1 ADD SLOAD DUP2 PUSH2 0x6D6 SWAP2 SWAP1 PUSH2 0x131C JUMP JUMPDEST PUSH1 0x5 PUSH1 0x0 DUP6 DUP2 MSTORE PUSH1 0x20 ADD SWAP1 DUP2 MSTORE PUSH1 0x20 ADD PUSH1 0x0 KECCAK256 PUSH1 0x1 ADD PUSH1 0x0 DUP3 DUP3 SLOAD PUSH2 0x6FB SWAP2 SWAP1 PUSH2 0x12C6 JUMP JUMPDEST SWAP3 POP POP DUP2 SWAP1 SSTORE POP JUMPDEST PUSH1 0x2 PUSH1 0x0 SWAP1 SLOAD SWAP1 PUSH2 0x100 EXP SWAP1 DIV PUSH20 0xFFFFFFFFFFFFFFFFFFFFFFFFFFFFFFFFFFFFFFFF AND PUSH20 0xFFFFFFFFFFFFFFFFFFFFFFFFFFFFFFFFFFFFFFFF AND PUSH4 0x23B872DD ADDRESS CALLER DUP7 PUSH1 0x40 MLOAD DUP5 PUSH4 0xFFFFFFFF AND PUSH1 0xE0 SHL DUP2 MSTORE PUSH1 0x4 ADD PUSH2 0x762 SWAP4 SWAP3 SWAP2 SWAP1 PUSH2 0x1149 JUMP JUMPDEST PUSH1 0x0 PUSH1 0x40 MLOAD DUP1 DUP4 SUB DUP2 PUSH1 0x0 DUP8 DUP1 EXTCODESIZE ISZERO DUP1 ISZERO PUSH2 0x77C JUMPI PUSH1 0x0 DUP1 REVERT JUMPDEST POP GAS CALL ISZERO DUP1 ISZERO PUSH2 0x790 JUMPI RETURNDATASIZE PUSH1 0x0 DUP1 RETURNDATACOPY RETURNDATASIZE PUSH1 0x0 REVERT JUMPDEST POP POP POP POP PUSH1 0x0 PUSH1 0x5 PUSH1 0x0 DUP6 DUP2 MSTORE PUSH1 0x20 ADD SWAP1 DUP2 MSTORE PUSH1 0x20 ADD PUSH1 0x0 KECCAK256 PUSH1 0x0 ADD PUSH1 0x0 PUSH2 0x100 EXP DUP2 SLOAD DUP2 PUSH20 0xFFFFFFFFFFFFFFFFFFFFFFFFFFFFFFFFFFFFFFFF MUL NOT AND SWAP1 DUP4 PUSH20 0xFFFFFFFFFFFFFFFFFFFFFFFFFFFFFFFFFFFFFFFF AND MUL OR SWAP1 SSTORE POP POP POP POP JUMP JUMPDEST PUSH1 0x2 PUSH1 0x0 SLOAD EQ ISZERO PUSH2 0x835 JUMPI PUSH1 0x40 MLOAD PUSH32 0x8C379A000000000000000000000000000000000000000000000000000000000 DUP2 MSTORE PUSH1 0x4 ADD PUSH2 0x82C SWAP1 PUSH2 0x127A JUMP JUMPDEST PUSH1 0x40 MLOAD DUP1 SWAP2 SUB SWAP1 REVERT JUMPDEST PUSH1 0x2 PUSH1 0x0 DUP2 SWAP1 SSTORE POP PUSH1 0x0 PUSH1 0x5 PUSH1 0x0 DUP4 DUP2 MSTORE PUSH1 0x20 ADD SWAP1 DUP2 MSTORE PUSH1 0x20 ADD PUSH1 0x0 KECCAK256 PUSH1 0x2 ADD SLOAD GT PUSH2 0x860 JUMPI PUSH1 0x0 DUP1 REVERT JUMPDEST CALLER PUSH20 0xFFFFFFFFFFFFFFFFFFFFFFFFFFFFFFFFFFFFFFFF AND PUSH1 0x5 PUSH1 0x0 DUP4 DUP2 MSTORE PUSH1 0x20 ADD SWAP1 DUP2 MSTORE PUSH1 0x20 ADD PUSH1 0x0 KECCAK256 PUSH1 0x0 ADD PUSH1 0x0 SWAP1 SLOAD SWAP1 PUSH2 0x100 EXP SWAP1 DIV PUSH20 0xFFFFFFFFFFFFFFFFFFFFFFFFFFFFFFFFFFFFFFFF AND PUSH20 0xFFFFFFFFFFFFFFFFFFFFFFFFFFFFFFFFFFFFFFFF AND EQ PUSH2 0x8CE JUMPI PUSH1 0x0 DUP1 REVERT JUMPDEST PUSH1 0x3 PUSH1 0x0 SWAP1 SLOAD SWAP1 PUSH2 0x100 EXP SWAP1 DIV PUSH20 0xFFFFFFFFFFFFFFFFFFFFFFFFFFFFFFFFFFFFFFFF AND PUSH20 0xFFFFFFFFFFFFFFFFFFFFFFFFFFFFFFFFFFFFFFFF AND PUSH4 0xA0C4442D DUP3 PUSH1 0x40 MLOAD DUP3 PUSH4 0xFFFFFFFF AND PUSH1 0xE0 SHL DUP2 MSTORE PUSH1 0x4 ADD PUSH2 0x929 SWAP2 SWAP1 PUSH2 0x129A JUMP JUMPDEST PUSH1 0x20 PUSH1 0x40 MLOAD DUP1 DUP4 SUB DUP2 PUSH1 0x0 DUP8 DUP1 EXTCODESIZE ISZERO DUP1 ISZERO PUSH2 0x943 JUMPI PUSH1 0x0 DUP1 REVERT JUMPDEST POP GAS CALL ISZERO DUP1 ISZERO PUSH2 0x957 JUMPI RETURNDATASIZE PUSH1 0x0 DUP1 RETURNDATACOPY RETURNDATASIZE PUSH1 0x0 REVERT JUMPDEST POP POP POP POP PUSH1 0x40 MLOAD RETURNDATASIZE PUSH1 0x1F NOT PUSH1 0x1F DUP3 ADD AND DUP3 ADD DUP1 PUSH1 0x40 MSTORE POP DUP2 ADD SWAP1 PUSH2 0x97B SWAP2 SWAP1 PUSH2 0x1007 JUMP JUMPDEST PUSH1 0x5 PUSH1 0x0 DUP4 DUP2 MSTORE PUSH1 0x20 ADD SWAP1 DUP2 MSTORE PUSH1 0x20 ADD PUSH1 0x0 KECCAK256 PUSH1 0x1 ADD DUP2 SWAP1 SSTORE POP PUSH1 0x0 PUSH1 0x3 PUSH1 0x0 SWAP1 SLOAD SWAP1 PUSH2 0x100 EXP SWAP1 DIV PUSH20 0xFFFFFFFFFFFFFFFFFFFFFFFFFFFFFFFFFFFFFFFF AND PUSH20 0xFFFFFFFFFFFFFFFFFFFFFFFFFFFFFFFFFFFFFFFF AND PUSH4 0xA0C4442D DUP4 PUSH1 0x40 MLOAD DUP3 PUSH4 0xFFFFFFFF AND PUSH1 0xE0 SHL DUP2 MSTORE PUSH1 0x4 ADD PUSH2 0x9F2 SWAP2 SWAP1 PUSH2 0x129A JUMP JUMPDEST PUSH1 0x20 PUSH1 0x40 MLOAD DUP1 DUP4 SUB DUP2 PUSH1 0x0 DUP8 DUP1 EXTCODESIZE ISZERO DUP1 ISZERO PUSH2 0xA0C JUMPI PUSH1 0x0 DUP1 REVERT JUMPDEST POP GAS CALL ISZERO DUP1 ISZERO PUSH2 0xA20 JUMPI RETURNDATASIZE PUSH1 0x0 DUP1 RETURNDATACOPY RETURNDATASIZE PUSH1 0x0 REVERT JUMPDEST POP POP POP POP PUSH1 0x40 MLOAD RETURNDATASIZE PUSH1 0x1F NOT PUSH1 0x1F DUP3 ADD AND DUP3 ADD DUP1 PUSH1 0x40 MSTORE POP DUP2 ADD SWAP1 PUSH2 0xA44 SWAP2 SWAP1 PUSH2 0x1007 JUMP JUMPDEST SWAP1 POP PUSH1 0x0 PUSH1 0x5 PUSH1 0x0 DUP5 DUP2 MSTORE PUSH1 0x20 ADD SWAP1 DUP2 MSTORE PUSH1 0x20 ADD PUSH1 0x0 KECCAK256 PUSH1 0x1 ADD SLOAD DUP3 PUSH2 0xA6A SWAP2 SWAP1 PUSH2 0x131C JUMP JUMPDEST PUSH1 0x5 PUSH1 0x0 DUP6 DUP2 MSTORE PUSH1 0x20 ADD SWAP1 DUP2 MSTORE PUSH1 0x20 ADD PUSH1 0x0 KECCAK256 PUSH1 0x2 ADD SLOAD TIMESTAMP PUSH2 0xA8C SWAP2 SWAP1 PUSH2 0x131C JUMP JUMPDEST PUSH2 0xA96 SWAP2 SWAP1 PUSH2 0x12C6 JUMP JUMPDEST SWAP1 POP PUSH1 0x1 PUSH1 0x0 SWAP1 SLOAD SWAP1 PUSH2 0x100 EXP SWAP1 DIV PUSH20 0xFFFFFFFFFFFFFFFFFFFFFFFFFFFFFFFFFFFFFFFF AND PUSH20 0xFFFFFFFFFFFFFFFFFFFFFFFFFFFFFFFFFFFFFFFF AND PUSH4 0xA9059CBB CALLER DUP4 PUSH1 0x40 MLOAD DUP4 PUSH4 0xFFFFFFFF AND PUSH1 0xE0 SHL DUP2 MSTORE PUSH1 0x4 ADD PUSH2 0xAF5 SWAP3 SWAP2 SWAP1 PUSH2 0x1180 JUMP JUMPDEST PUSH1 0x20 PUSH1 0x40 MLOAD DUP1 DUP4 SUB DUP2 PUSH1 0x0 DUP8 DUP1 EXTCODESIZE ISZERO DUP1 ISZERO PUSH2 0xB0F JUMPI PUSH1 0x0 DUP1 REVERT JUMPDEST POP GAS CALL ISZERO DUP1 ISZERO PUSH2 0xB23 JUMPI RETURNDATASIZE PUSH1 0x0 DUP1 RETURNDATACOPY RETURNDATASIZE PUSH1 0x0 REVERT JUMPDEST POP POP POP POP PUSH1 0x40 MLOAD RETURNDATASIZE PUSH1 0x1F NOT PUSH1 0x1F DUP3 ADD AND DUP3 ADD DUP1 PUSH1 0x40 MSTORE POP DUP2 ADD SWAP1 PUSH2 0xB47 SWAP2 SWAP1 PUSH2 0xFAD JUMP JUMPDEST ISZERO PUSH2 0xBBA JUMPI TIMESTAMP PUSH1 0x5 PUSH1 0x0 DUP6 DUP2 MSTORE PUSH1 0x20 ADD SWAP1 DUP2 MSTORE PUSH1 0x20 ADD PUSH1 0x0 KECCAK256 PUSH1 0x2 ADD DUP2 SWAP1 SSTORE POP PUSH1 0x5 PUSH1 0x0 DUP5 DUP2 MSTORE PUSH1 0x20 ADD SWAP1 DUP2 MSTORE PUSH1 0x20 ADD PUSH1 0x0 KECCAK256 PUSH1 0x1 ADD SLOAD DUP3 PUSH2 0xB89 SWAP2 SWAP1 PUSH2 0x131C JUMP JUMPDEST PUSH1 0x5 PUSH1 0x0 DUP6 DUP2 MSTORE PUSH1 0x20 ADD SWAP1 DUP2 MSTORE PUSH1 0x20 ADD PUSH1 0x0 KECCAK256 PUSH1 0x1 ADD PUSH1 0x0 DUP3 DUP3 SLOAD PUSH2 0xBAE SWAP2 SWAP1 PUSH2 0x12C6 JUMP JUMPDEST SWAP3 POP POP DUP2 SWAP1 SSTORE POP PUSH2 0xBF5 JUMP JUMPDEST PUSH1 0x40 MLOAD PUSH32 0x8C379A000000000000000000000000000000000000000000000000000000000 DUP2 MSTORE PUSH1 0x4 ADD PUSH2 0xBEC SWAP1 PUSH2 0x121A JUMP JUMPDEST PUSH1 0x40 MLOAD DUP1 SWAP2 SUB SWAP1 REVERT JUMPDEST POP POP PUSH1 0x1 PUSH1 0x0 DUP2 SWAP1 SSTORE POP POP JUMP JUMPDEST PUSH1 0x0 PUSH1 0x5 PUSH1 0x0 DUP4 DUP2 MSTORE PUSH1 0x20 ADD SWAP1 DUP2 MSTORE PUSH1 0x20 ADD PUSH1 0x0 KECCAK256 PUSH1 0x1 ADD SLOAD SWAP1 POP SWAP2 SWAP1 POP JUMP JUMPDEST PUSH1 0x4 PUSH1 0x0 SWAP1 SLOAD SWAP1 PUSH2 0x100 EXP SWAP1 DIV PUSH20 0xFFFFFFFFFFFFFFFFFFFFFFFFFFFFFFFFFFFFFFFF AND DUP2 JUMP JUMPDEST PUSH1 0x1 PUSH1 0x0 SWAP1 SLOAD SWAP1 PUSH2 0x100 EXP SWAP1 DIV PUSH20 0xFFFFFFFFFFFFFFFFFFFFFFFFFFFFFFFFFFFFFFFF AND DUP2 JUMP JUMPDEST PUSH1 0x2 PUSH1 0x0 SLOAD EQ ISZERO PUSH2 0xCB4 JUMPI PUSH1 0x40 MLOAD PUSH32 0x8C379A000000000000000000000000000000000000000000000000000000000 DUP2 MSTORE PUSH1 0x4 ADD PUSH2 0xCAB SWAP1 PUSH2 0x127A JUMP JUMPDEST PUSH1 0x40 MLOAD DUP1 SWAP2 SUB SWAP1 REVERT JUMPDEST PUSH1 0x2 PUSH1 0x0 DUP2 SWAP1 SSTORE POP CALLER PUSH20 0xFFFFFFFFFFFFFFFFFFFFFFFFFFFFFFFFFFFFFFFF AND PUSH1 0x2 PUSH1 0x0 SWAP1 SLOAD SWAP1 PUSH2 0x100 EXP SWAP1 DIV PUSH20 0xFFFFFFFFFFFFFFFFFFFFFFFFFFFFFFFFFFFFFFFF AND PUSH20 0xFFFFFFFFFFFFFFFFFFFFFFFFFFFFFFFFFFFFFFFF AND PUSH4 0x6352211E DUP4 PUSH1 0x40 MLOAD DUP3 PUSH4 0xFFFFFFFF AND PUSH1 0xE0 SHL DUP2 MSTORE PUSH1 0x4 ADD PUSH2 0xD2E SWAP2 SWAP1 PUSH2 0x129A JUMP JUMPDEST PUSH1 0x20 PUSH1 0x40 MLOAD DUP1 DUP4 SUB DUP2 DUP7 DUP1 EXTCODESIZE ISZERO DUP1 ISZERO PUSH2 0xD46 JUMPI PUSH1 0x0 DUP1 REVERT JUMPDEST POP GAS STATICCALL ISZERO DUP1 ISZERO PUSH2 0xD5A JUMPI RETURNDATASIZE PUSH1 0x0 DUP1 RETURNDATACOPY RETURNDATASIZE PUSH1 0x0 REVERT JUMPDEST POP POP POP POP PUSH1 0x40 MLOAD RETURNDATASIZE PUSH1 0x1F NOT PUSH1 0x1F DUP3 ADD AND DUP3 ADD DUP1 PUSH1 0x40 MSTORE POP DUP2 ADD SWAP1 PUSH2 0xD7E SWAP2 SWAP1 PUSH2 0xF80 JUMP JUMPDEST PUSH20 0xFFFFFFFFFFFFFFFFFFFFFFFFFFFFFFFFFFFFFFFF AND EQ PUSH2 0xDD4 JUMPI PUSH1 0x40 MLOAD PUSH32 0x8C379A000000000000000000000000000000000000000000000000000000000 DUP2 MSTORE PUSH1 0x4 ADD PUSH2 0xDCB SWAP1 PUSH2 0x125A JUMP JUMPDEST PUSH1 0x40 MLOAD DUP1 SWAP2 SUB SWAP1 REVERT JUMPDEST PUSH1 0x2 PUSH1 0x0 SWAP1 SLOAD SWAP1 PUSH2 0x100 EXP SWAP1 DIV PUSH20 0xFFFFFFFFFFFFFFFFFFFFFFFFFFFFFFFFFFFFFFFF AND PUSH20 0xFFFFFFFFFFFFFFFFFFFFFFFFFFFFFFFFFFFFFFFF AND PUSH4 0x23B872DD CALLER ADDRESS DUP5 PUSH1 0x40 MLOAD DUP5 PUSH4 0xFFFFFFFF AND PUSH1 0xE0 SHL DUP2 MSTORE PUSH1 0x4 ADD PUSH2 0xE33 SWAP4 SWAP3 SWAP2 SWAP1 PUSH2 0x1149 JUMP JUMPDEST PUSH1 0x0 PUSH1 0x40 MLOAD DUP1 DUP4 SUB DUP2 PUSH1 0x0 DUP8 DUP1 EXTCODESIZE ISZERO DUP1 ISZERO PUSH2 0xE4D JUMPI PUSH1 0x0 DUP1 REVERT JUMPDEST POP GAS CALL ISZERO DUP1 ISZERO PUSH2 0xE61 JUMPI RETURNDATASIZE PUSH1 0x0 DUP1 RETURNDATACOPY RETURNDATASIZE PUSH1 0x0 REVERT JUMPDEST POP POP POP POP CALLER PUSH1 0x5 PUSH1 0x0 DUP4 DUP2 MSTORE PUSH1 0x20 ADD SWAP1 DUP2 MSTORE PUSH1 0x20 ADD PUSH1 0x0 KECCAK256 PUSH1 0x0 ADD PUSH1 0x0 PUSH2 0x100 EXP DUP2 SLOAD DUP2 PUSH20 0xFFFFFFFFFFFFFFFFFFFFFFFFFFFFFFFFFFFFFFFF MUL NOT AND SWAP1 DUP4 PUSH20 0xFFFFFFFFFFFFFFFFFFFFFFFFFFFFFFFFFFFFFFFF AND MUL OR SWAP1 SSTORE POP TIMESTAMP PUSH1 0x5 PUSH1 0x0 DUP4 DUP2 MSTORE PUSH1 0x20 ADD SWAP1 DUP2 MSTORE PUSH1 0x20 ADD PUSH1 0x0 KECCAK256 PUSH1 0x2 ADD DUP2 SWAP1 SSTORE POP PUSH1 0x1 PUSH1 0x0 DUP2 SWAP1 SSTORE POP POP JUMP JUMPDEST PUSH1 0x2 PUSH1 0x0 SWAP1 SLOAD SWAP1 PUSH2 0x100 EXP SWAP1 DIV PUSH20 0xFFFFFFFFFFFFFFFFFFFFFFFFFFFFFFFFFFFFFFFF AND DUP2 JUMP JUMPDEST PUSH1 0x3 PUSH1 0x0 SWAP1 SLOAD SWAP1 PUSH2 0x100 EXP SWAP1 DIV PUSH20 0xFFFFFFFFFFFFFFFFFFFFFFFFFFFFFFFFFFFFFFFF AND DUP2 JUMP JUMPDEST PUSH1 0x0 DUP2 MLOAD SWAP1 POP PUSH2 0xF3B DUP2 PUSH2 0x14F3 JUMP JUMPDEST SWAP3 SWAP2 POP POP JUMP JUMPDEST PUSH1 0x0 DUP2 MLOAD SWAP1 POP PUSH2 0xF50 DUP2 PUSH2 0x150A JUMP JUMPDEST SWAP3 SWAP2 POP POP JUMP JUMPDEST PUSH1 0x0 DUP2 CALLDATALOAD SWAP1 POP PUSH2 0xF65 DUP2 PUSH2 0x1521 JUMP JUMPDEST SWAP3 SWAP2 POP POP JUMP JUMPDEST PUSH1 0x0 DUP2 MLOAD SWAP1 POP PUSH2 0xF7A DUP2 PUSH2 0x1521 JUMP JUMPDEST SWAP3 SWAP2 POP POP JUMP JUMPDEST PUSH1 0x0 PUSH1 0x20 DUP3 DUP5 SUB SLT ISZERO PUSH2 0xF96 JUMPI PUSH2 0xF95 PUSH2 0x1421 JUMP JUMPDEST JUMPDEST PUSH1 0x0 PUSH2 0xFA4 DUP5 DUP3 DUP6 ADD PUSH2 0xF2C JUMP JUMPDEST SWAP2 POP POP SWAP3 SWAP2 POP POP JUMP JUMPDEST PUSH1 0x0 PUSH1 0x20 DUP3 DUP5 SUB SLT ISZERO PUSH2 0xFC3 JUMPI PUSH2 0xFC2 PUSH2 0x1421 JUMP JUMPDEST JUMPDEST PUSH1 0x0 PUSH2 0xFD1 DUP5 DUP3 DUP6 ADD PUSH2 0xF41 JUMP JUMPDEST SWAP2 POP POP SWAP3 SWAP2 POP POP JUMP JUMPDEST PUSH1 0x0 PUSH1 0x20 DUP3 DUP5 SUB SLT ISZERO PUSH2 0xFF0 JUMPI PUSH2 0xFEF PUSH2 0x1421 JUMP JUMPDEST JUMPDEST PUSH1 0x0 PUSH2 0xFFE DUP5 DUP3 DUP6 ADD PUSH2 0xF56 JUMP JUMPDEST SWAP2 POP POP SWAP3 SWAP2 POP POP JUMP JUMPDEST PUSH1 0x0 PUSH1 0x20 DUP3 DUP5 SUB SLT ISZERO PUSH2 0x101D JUMPI PUSH2 0x101C PUSH2 0x1421 JUMP JUMPDEST JUMPDEST PUSH1 0x0 PUSH2 0x102B DUP5 DUP3 DUP6 ADD PUSH2 0xF6B JUMP JUMPDEST SWAP2 POP POP SWAP3 SWAP2 POP POP JUMP JUMPDEST PUSH2 0x103D DUP2 PUSH2 0x1350 JUMP JUMPDEST DUP3 MSTORE POP POP JUMP JUMPDEST PUSH2 0x104C DUP2 PUSH2 0x1398 JUMP JUMPDEST DUP3 MSTORE POP POP JUMP JUMPDEST PUSH2 0x105B DUP2 PUSH2 0x13AA JUMP JUMPDEST DUP3 MSTORE POP POP JUMP JUMPDEST PUSH2 0x106A DUP2 PUSH2 0x13BC JUMP JUMPDEST DUP3 MSTORE POP POP JUMP JUMPDEST PUSH1 0x0 PUSH2 0x107D PUSH1 0xA DUP4 PUSH2 0x12B5 JUMP JUMPDEST SWAP2 POP PUSH2 0x1088 DUP3 PUSH2 0x1426 JUMP JUMPDEST PUSH1 0x20 DUP3 ADD SWAP1 POP SWAP2 SWAP1 POP JUMP JUMPDEST PUSH1 0x0 PUSH2 0x10A0 PUSH1 0xD DUP4 PUSH2 0x12B5 JUMP JUMPDEST SWAP2 POP PUSH2 0x10AB DUP3 PUSH2 0x144F JUMP JUMPDEST PUSH1 0x20 DUP3 ADD SWAP1 POP SWAP2 SWAP1 POP JUMP JUMPDEST PUSH1 0x0 PUSH2 0x10C3 PUSH1 0xD DUP4 PUSH2 0x12B5 JUMP JUMPDEST SWAP2 POP PUSH2 0x10CE DUP3 PUSH2 0x1478 JUMP JUMPDEST PUSH1 0x20 DUP3 ADD SWAP1 POP SWAP2 SWAP1 POP JUMP JUMPDEST PUSH1 0x0 PUSH2 0x10E6 PUSH1 0x9 DUP4 PUSH2 0x12B5 JUMP JUMPDEST SWAP2 POP PUSH2 0x10F1 DUP3 PUSH2 0x14A1 JUMP JUMPDEST PUSH1 0x20 DUP3 ADD SWAP1 POP SWAP2 SWAP1 POP JUMP JUMPDEST PUSH1 0x0 PUSH2 0x1109 PUSH1 0x1F DUP4 PUSH2 0x12B5 JUMP JUMPDEST SWAP2 POP PUSH2 0x1114 DUP3 PUSH2 0x14CA JUMP JUMPDEST PUSH1 0x20 DUP3 ADD SWAP1 POP SWAP2 SWAP1 POP JUMP JUMPDEST PUSH2 0x1128 DUP2 PUSH2 0x138E JUMP JUMPDEST DUP3 MSTORE POP POP JUMP JUMPDEST PUSH1 0x0 PUSH1 0x20 DUP3 ADD SWAP1 POP PUSH2 0x1143 PUSH1 0x0 DUP4 ADD DUP5 PUSH2 0x1034 JUMP JUMPDEST SWAP3 SWAP2 POP POP JUMP JUMPDEST PUSH1 0x0 PUSH1 0x60 DUP3 ADD SWAP1 POP PUSH2 0x115E PUSH1 0x0 DUP4 ADD DUP7 PUSH2 0x1034 JUMP JUMPDEST PUSH2 0x116B PUSH1 0x20 DUP4 ADD DUP6 PUSH2 0x1034 JUMP JUMPDEST PUSH2 0x1178 PUSH1 0x40 DUP4 ADD DUP5 PUSH2 0x111F JUMP JUMPDEST SWAP5 SWAP4 POP POP POP POP JUMP JUMPDEST PUSH1 0x0 PUSH1 0x40 DUP3 ADD SWAP1 POP PUSH2 0x1195 PUSH1 0x0 DUP4 ADD DUP6 PUSH2 0x1034 JUMP JUMPDEST PUSH2 0x11A2 PUSH1 0x20 DUP4 ADD DUP5 PUSH2 0x111F JUMP JUMPDEST SWAP4 SWAP3 POP POP POP JUMP JUMPDEST PUSH1 0x0 PUSH1 0x20 DUP3 ADD SWAP1 POP PUSH2 0x11BE PUSH1 0x0 DUP4 ADD DUP5 PUSH2 0x1043 JUMP JUMPDEST SWAP3 SWAP2 POP POP JUMP JUMPDEST PUSH1 0x0 PUSH1 0x20 DUP3 ADD SWAP1 POP PUSH2 0x11D9 PUSH1 0x0 DUP4 ADD DUP5 PUSH2 0x1052 JUMP JUMPDEST SWAP3 SWAP2 POP POP JUMP JUMPDEST PUSH1 0x0 PUSH1 0x20 DUP3 ADD SWAP1 POP PUSH2 0x11F4 PUSH1 0x0 DUP4 ADD DUP5 PUSH2 0x1061 JUMP JUMPDEST SWAP3 SWAP2 POP POP JUMP JUMPDEST PUSH1 0x0 PUSH1 0x20 DUP3 ADD SWAP1 POP DUP2 DUP2 SUB PUSH1 0x0 DUP4 ADD MSTORE PUSH2 0x1213 DUP2 PUSH2 0x1070 JUMP JUMPDEST SWAP1 POP SWAP2 SWAP1 POP JUMP JUMPDEST PUSH1 0x0 PUSH1 0x20 DUP3 ADD SWAP1 POP DUP2 DUP2 SUB PUSH1 0x0 DUP4 ADD MSTORE PUSH2 0x1233 DUP2 PUSH2 0x1093 JUMP JUMPDEST SWAP1 POP SWAP2 SWAP1 POP JUMP JUMPDEST PUSH1 0x0 PUSH1 0x20 DUP3 ADD SWAP1 POP DUP2 DUP2 SUB PUSH1 0x0 DUP4 ADD MSTORE PUSH2 0x1253 DUP2 PUSH2 0x10B6 JUMP JUMPDEST SWAP1 POP SWAP2 SWAP1 POP JUMP JUMPDEST PUSH1 0x0 PUSH1 0x20 DUP3 ADD SWAP1 POP DUP2 DUP2 SUB PUSH1 0x0 DUP4 ADD MSTORE PUSH2 0x1273 DUP2 PUSH2 0x10D9 JUMP JUMPDEST SWAP1 POP SWAP2 SWAP1 POP JUMP JUMPDEST PUSH1 0x0 PUSH1 0x20 DUP3 ADD SWAP1 POP DUP2 DUP2 SUB PUSH1 0x0 DUP4 ADD MSTORE PUSH2 0x1293 DUP2 PUSH2 0x10FC JUMP JUMPDEST SWAP1 POP SWAP2 SWAP1 POP JUMP JUMPDEST PUSH1 0x0 PUSH1 0x20 DUP3 ADD SWAP1 POP PUSH2 0x12AF PUSH1 0x0 DUP4 ADD DUP5 PUSH2 0x111F JUMP JUMPDEST SWAP3 SWAP2 POP POP JUMP JUMPDEST PUSH1 0x0 DUP3 DUP3 MSTORE PUSH1 0x20 DUP3 ADD SWAP1 POP SWAP3 SWAP2 POP POP JUMP JUMPDEST PUSH1 0x0 PUSH2 0x12D1 DUP3 PUSH2 0x138E JUMP JUMPDEST SWAP2 POP PUSH2 0x12DC DUP4 PUSH2 0x138E JUMP JUMPDEST SWAP3 POP DUP3 PUSH32 0xFFFFFFFFFFFFFFFFFFFFFFFFFFFFFFFFFFFFFFFFFFFFFFFFFFFFFFFFFFFFFFFF SUB DUP3 GT ISZERO PUSH2 0x1311 JUMPI PUSH2 0x1310 PUSH2 0x13F2 JUMP JUMPDEST JUMPDEST DUP3 DUP3 ADD SWAP1 POP SWAP3 SWAP2 POP POP JUMP JUMPDEST PUSH1 0x0 PUSH2 0x1327 DUP3 PUSH2 0x138E JUMP JUMPDEST SWAP2 POP PUSH2 0x1332 DUP4 PUSH2 0x138E JUMP JUMPDEST SWAP3 POP DUP3 DUP3 LT ISZERO PUSH2 0x1345 JUMPI PUSH2 0x1344 PUSH2 0x13F2 JUMP JUMPDEST JUMPDEST DUP3 DUP3 SUB SWAP1 POP SWAP3 SWAP2 POP POP JUMP JUMPDEST PUSH1 0x0 PUSH2 0x135B DUP3 PUSH2 0x136E JUMP JUMPDEST SWAP1 POP SWAP2 SWAP1 POP JUMP JUMPDEST PUSH1 0x0 DUP2 ISZERO ISZERO SWAP1 POP SWAP2 SWAP1 POP JUMP JUMPDEST PUSH1 0x0 PUSH20 0xFFFFFFFFFFFFFFFFFFFFFFFFFFFFFFFFFFFFFFFF DUP3 AND SWAP1 POP SWAP2 SWAP1 POP JUMP JUMPDEST PUSH1 0x0 DUP2 SWAP1 POP SWAP2 SWAP1 POP JUMP JUMPDEST PUSH1 0x0 PUSH2 0x13A3 DUP3 PUSH2 0x13CE JUMP JUMPDEST SWAP1 POP SWAP2 SWAP1 POP JUMP JUMPDEST PUSH1 0x0 PUSH2 0x13B5 DUP3 PUSH2 0x13CE JUMP JUMPDEST SWAP1 POP SWAP2 SWAP1 POP JUMP JUMPDEST PUSH1 0x0 PUSH2 0x13C7 DUP3 PUSH2 0x13CE JUMP JUMPDEST SWAP1 POP SWAP2 SWAP1 POP JUMP JUMPDEST PUSH1 0x0 PUSH2 0x13D9 DUP3 PUSH2 0x13E0 JUMP JUMPDEST SWAP1 POP SWAP2 SWAP1 POP JUMP JUMPDEST PUSH1 0x0 PUSH2 0x13EB DUP3 PUSH2 0x136E JUMP JUMPDEST SWAP1 POP SWAP2 SWAP1 POP JUMP JUMPDEST PUSH32 0x4E487B7100000000000000000000000000000000000000000000000000000000 PUSH1 0x0 MSTORE PUSH1 0x11 PUSH1 0x4 MSTORE PUSH1 0x24 PUSH1 0x0 REVERT JUMPDEST PUSH1 0x0 DUP1 REVERT JUMPDEST PUSH32 0x4E6F74207374616B656400000000000000000000000000000000000000000000 PUSH1 0x0 DUP3 ADD MSTORE POP JUMP JUMPDEST PUSH32 0x5472616E73666572206661696C00000000000000000000000000000000000000 PUSH1 0x0 DUP3 ADD MSTORE POP JUMP JUMPDEST PUSH32 0x4E6F74207265616C4F776E657200000000000000000000000000000000000000 PUSH1 0x0 DUP3 ADD MSTORE POP JUMP JUMPDEST PUSH32 0x4E6F74206F776E65720000000000000000000000000000000000000000000000 PUSH1 0x0 DUP3 ADD MSTORE POP JUMP JUMPDEST PUSH32 0x5265656E7472616E637947756172643A207265656E7472616E742063616C6C00 PUSH1 0x0 DUP3 ADD MSTORE POP JUMP JUMPDEST PUSH2 0x14FC DUP2 PUSH2 0x1350 JUMP JUMPDEST DUP2 EQ PUSH2 0x1507 JUMPI PUSH1 0x0 DUP1 REVERT JUMPDEST POP JUMP JUMPDEST PUSH2 0x1513 DUP2 PUSH2 0x1362 JUMP JUMPDEST DUP2 EQ PUSH2 0x151E JUMPI PUSH1 0x0 DUP1 REVERT JUMPDEST POP JUMP JUMPDEST PUSH2 0x152A DUP2 PUSH2 0x138E JUMP JUMPDEST DUP2 EQ PUSH2 0x1535 JUMPI PUSH1 0x0 DUP1 REVERT JUMPDEST POP JUMP INVALID LOG2 PUSH5 0x6970667358 0x22 SLT KECCAK256 0x4B SELFBALANCE LT PUSH27 0x69DFCB0B92BB6C189783A86E2AF9F8DEB9FDAD3F63EF5DC33324E2 0x2C PUSH5 0x736F6C6343 STOP ADDMOD SMOD STOP CALLER "
				},
				"gasEstimates": {
					"creation": {
						"codeDepositCost": "1097200",
						"executionCost": "infinite",
						"totalCost": "infinite"
					},
					"external": {
						"claim(uint256)": "infinite",
						"claimedTrophies(uint256)": "infinite",
						"parentNFT()": "2666",
						"parentNFTAddress()": "2514",
						"parentNftFunctions()": "2688",
						"parentToken()": "2622",
						"refreshTrophies(uint256)": "infinite",
						"stake(uint256)": "infinite",
						"unstake(uint256)": "infinite"
					}
				},
				"methodIdentifiers": {
					"claim(uint256)": "379607f5",
					"claimedTrophies(uint256)": "53eebc6d",
					"parentNFT()": "b8e33fb2",
					"parentNFTAddress()": "66bb863b",
					"parentNftFunctions()": "fead3d6e",
					"parentToken()": "80a54001",
					"refreshTrophies(uint256)": "0eeadd30",
					"stake(uint256)": "a694fc3a",
					"unstake(uint256)": "2e17de78"
				}
			},
			"storageLayout": {
				"storage": [
					{
						"astId": 10,
						"contract": "contracts/Missions.sol:Staking",
						"label": "_status",
						"offset": 0,
						"slot": "0",
						"type": "t_uint256"
					},
					{
						"astId": 263,
						"contract": "contracts/Missions.sol:Staking",
						"label": "parentToken",
						"offset": 0,
						"slot": "1",
						"type": "t_contract(IERC20)117"
					},
					{
						"astId": 266,
						"contract": "contracts/Missions.sol:Staking",
						"label": "parentNFT",
						"offset": 0,
						"slot": "2",
						"type": "t_contract(IERC721)233"
					},
					{
						"astId": 269,
						"contract": "contracts/Missions.sol:Staking",
						"label": "parentNftFunctions",
						"offset": 0,
						"slot": "3",
						"type": "t_contract(INFTGame)258"
					},
					{
						"astId": 271,
						"contract": "contracts/Missions.sol:Staking",
						"label": "parentNFTAddress",
						"offset": 0,
						"slot": "4",
						"type": "t_address"
					},
					{
						"astId": 318,
						"contract": "contracts/Missions.sol:Staking",
						"label": "s_stakeReview",
						"offset": 0,
						"slot": "5",
						"type": "t_mapping(t_uint256,t_struct(StakeReview)325_storage)"
					}
				],
				"types": {
					"t_address": {
						"encoding": "inplace",
						"label": "address",
						"numberOfBytes": "20"
					},
					"t_contract(IERC20)117": {
						"encoding": "inplace",
						"label": "contract IERC20",
						"numberOfBytes": "20"
					},
					"t_contract(IERC721)233": {
						"encoding": "inplace",
						"label": "contract IERC721",
						"numberOfBytes": "20"
					},
					"t_contract(INFTGame)258": {
						"encoding": "inplace",
						"label": "contract INFTGame",
						"numberOfBytes": "20"
					},
					"t_mapping(t_uint256,t_struct(StakeReview)325_storage)": {
						"encoding": "mapping",
						"key": "t_uint256",
						"label": "mapping(uint256 => struct Staking.StakeReview)",
						"numberOfBytes": "32",
						"value": "t_struct(StakeReview)325_storage"
					},
					"t_struct(StakeReview)325_storage": {
						"encoding": "inplace",
						"label": "struct Staking.StakeReview",
						"members": [
							{
								"astId": 320,
								"contract": "contracts/Missions.sol:Staking",
								"label": "realOwner",
								"offset": 0,
								"slot": "0",
								"type": "t_address"
							},
							{
								"astId": 322,
								"contract": "contracts/Missions.sol:Staking",
								"label": "claimedTrophies",
								"offset": 0,
								"slot": "1",
								"type": "t_uint256"
							},
							{
								"astId": 324,
								"contract": "contracts/Missions.sol:Staking",
								"label": "lastClaimTime",
								"offset": 0,
								"slot": "2",
								"type": "t_uint256"
							}
						],
						"numberOfBytes": "96"
					},
					"t_uint256": {
						"encoding": "inplace",
						"label": "uint256",
						"numberOfBytes": "32"
					}
				}
			},
			"userdoc": {
				"kind": "user",
				"methods": {},
				"version": 1
			}
		}
	}
}