{
	"contracts/Missions.sol": {
		"Staking": {
			"abi": [
				{
					"inputs": [
						{
							"internalType": "address",
							"name": "_nftContract",
							"type": "address"
						},
						{
							"internalType": "address",
							"name": "_tokenContract",
							"type": "address"
						}
					],
					"stateMutability": "nonpayable",
					"type": "constructor"
				},
				{
					"inputs": [
						{
							"internalType": "uint256",
							"name": "_tokenID",
							"type": "uint256"
						}
					],
					"name": "getStakes",
					"outputs": [
						{
							"internalType": "address",
							"name": "add",
							"type": "address"
						},
						{
							"internalType": "uint256",
							"name": "time",
							"type": "uint256"
						}
					],
					"stateMutability": "view",
					"type": "function"
				},
				{
					"inputs": [
						{
							"internalType": "address",
							"name": "_operator",
							"type": "address"
						},
						{
							"internalType": "address",
							"name": "nftcontract",
							"type": "address"
						},
						{
							"internalType": "uint256",
							"name": "tokenID",
							"type": "uint256"
						},
						{
							"internalType": "bytes",
							"name": "",
							"type": "bytes"
						}
					],
					"name": "onERC721Received",
					"outputs": [
						{
							"internalType": "bytes4",
							"name": "",
							"type": "bytes4"
						}
					],
					"stateMutability": "nonpayable",
					"type": "function"
				},
				{
					"inputs": [],
					"name": "operator",
					"outputs": [
						{
							"internalType": "address",
							"name": "",
							"type": "address"
						}
					],
					"stateMutability": "view",
					"type": "function"
				},
				{
					"inputs": [],
					"name": "parentNFT",
					"outputs": [
						{
							"internalType": "contract IERC721",
							"name": "",
							"type": "address"
						}
					],
					"stateMutability": "view",
					"type": "function"
				},
				{
					"inputs": [],
					"name": "parentNFTAddress",
					"outputs": [
						{
							"internalType": "address",
							"name": "",
							"type": "address"
						}
					],
					"stateMutability": "view",
					"type": "function"
				},
				{
					"inputs": [],
					"name": "parentNftFunctions",
					"outputs": [
						{
							"internalType": "contract INFTGame",
							"name": "",
							"type": "address"
						}
					],
					"stateMutability": "view",
					"type": "function"
				},
				{
					"inputs": [],
					"name": "parentToken",
					"outputs": [
						{
							"internalType": "contract IERC20",
							"name": "",
							"type": "address"
						}
					],
					"stateMutability": "view",
					"type": "function"
				}
			],
			"devdoc": {
				"kind": "dev",
				"methods": {},
				"version": 1
			},
			"evm": {
				"assembly": "    /* \"contracts/Missions.sol\":341:1445  contract Staking is ReentrancyGuard {\r... */\n  mstore(0x40, 0x80)\n    /* \"contracts/Missions.sol\":526:788  constructor(address _nftContract, address _tokenContract){\r... */\n  callvalue\n  dup1\n  iszero\n  tag_1\n  jumpi\n  0x00\n  dup1\n  revert\ntag_1:\n  pop\n  mload(0x40)\n  sub(codesize, bytecodeSize)\n  dup1\n  bytecodeSize\n  dup4\n  codecopy\n  dup2\n  dup2\n  add\n  0x40\n  mstore\n  dup2\n  add\n  swap1\n  tag_2\n  swap2\n  swap1\n  tag_3\n  jump\t// in\ntag_2:\n    /* \"@openzeppelin/contracts/security/ReentrancyGuard.sol\":1701:1702  1 */\n  0x01\n    /* \"@openzeppelin/contracts/security/ReentrancyGuard.sol\":1806:1813  _status */\n  0x00\n    /* \"@openzeppelin/contracts/security/ReentrancyGuard.sol\":1806:1828  _status = _NOT_ENTERED */\n  dup2\n  swap1\n  sstore\n  pop\n    /* \"contracts/Missions.sol\":614:626  _nftContract */\n  dup2\n    /* \"contracts/Missions.sol\":594:603  parentNFT */\n  0x02\n  0x00\n    /* \"contracts/Missions.sol\":594:627  parentNFT = IERC721(_nftContract) */\n  0x0100\n  exp\n  dup2\n  sload\n  dup2\n  0xffffffffffffffffffffffffffffffffffffffff\n  mul\n  not\n  and\n  swap1\n  dup4\n  0xffffffffffffffffffffffffffffffffffffffff\n  and\n  mul\n  or\n  swap1\n  sstore\n  pop\n    /* \"contracts/Missions.sol\":668:680  _nftContract */\n  dup2\n    /* \"contracts/Missions.sol\":638:656  parentNftFunctions */\n  0x03\n  0x00\n    /* \"contracts/Missions.sol\":638:681  parentNftFunctions = INFTGame(_nftContract) */\n  0x0100\n  exp\n  dup2\n  sload\n  dup2\n  0xffffffffffffffffffffffffffffffffffffffff\n  mul\n  not\n  and\n  swap1\n  dup4\n  0xffffffffffffffffffffffffffffffffffffffff\n  and\n  mul\n  or\n  swap1\n  sstore\n  pop\n    /* \"contracts/Missions.sol\":713:727  _tokenContract */\n  dup1\n    /* \"contracts/Missions.sol\":692:703  parentToken */\n  0x01\n  0x00\n    /* \"contracts/Missions.sol\":692:728  parentToken = IERC20(_tokenContract) */\n  0x0100\n  exp\n  dup2\n  sload\n  dup2\n  0xffffffffffffffffffffffffffffffffffffffff\n  mul\n  not\n  and\n  swap1\n  dup4\n  0xffffffffffffffffffffffffffffffffffffffff\n  and\n  mul\n  or\n  swap1\n  sstore\n  pop\n    /* \"contracts/Missions.sol\":758:770  _nftContract */\n  dup2\n    /* \"contracts/Missions.sol\":739:755  parentNFTAddress */\n  0x04\n  0x00\n    /* \"contracts/Missions.sol\":739:770  parentNFTAddress = _nftContract */\n  0x0100\n  exp\n  dup2\n  sload\n  dup2\n  0xffffffffffffffffffffffffffffffffffffffff\n  mul\n  not\n  and\n  swap1\n  dup4\n  0xffffffffffffffffffffffffffffffffffffffff\n  and\n  mul\n  or\n  swap1\n  sstore\n  pop\n    /* \"contracts/Missions.sol\":526:788  constructor(address _nftContract, address _tokenContract){\r... */\n  pop\n  pop\n    /* \"contracts/Missions.sol\":341:1445  contract Staking is ReentrancyGuard {\r... */\n  jump(tag_8)\n    /* \"#utility.yul\":7:150   */\ntag_10:\n    /* \"#utility.yul\":64:69   */\n  0x00\n    /* \"#utility.yul\":95:101   */\n  dup2\n    /* \"#utility.yul\":89:102   */\n  mload\n    /* \"#utility.yul\":80:102   */\n  swap1\n  pop\n    /* \"#utility.yul\":111:144   */\n  tag_12\n    /* \"#utility.yul\":138:143   */\n  dup2\n    /* \"#utility.yul\":111:144   */\n  tag_13\n  jump\t// in\ntag_12:\n    /* \"#utility.yul\":7:150   */\n  swap3\n  swap2\n  pop\n  pop\n  jump\t// out\n    /* \"#utility.yul\":156:663   */\ntag_3:\n    /* \"#utility.yul\":235:241   */\n  0x00\n    /* \"#utility.yul\":243:249   */\n  dup1\n    /* \"#utility.yul\":292:294   */\n  0x40\n    /* \"#utility.yul\":280:289   */\n  dup4\n    /* \"#utility.yul\":271:278   */\n  dup6\n    /* \"#utility.yul\":267:290   */\n  sub\n    /* \"#utility.yul\":263:295   */\n  slt\n    /* \"#utility.yul\":260:379   */\n  iszero\n  tag_15\n  jumpi\n    /* \"#utility.yul\":298:377   */\n  tag_16\n  tag_17\n  jump\t// in\ntag_16:\n    /* \"#utility.yul\":260:379   */\ntag_15:\n    /* \"#utility.yul\":418:419   */\n  0x00\n    /* \"#utility.yul\":443:507   */\n  tag_18\n    /* \"#utility.yul\":499:506   */\n  dup6\n    /* \"#utility.yul\":490:496   */\n  dup3\n    /* \"#utility.yul\":479:488   */\n  dup7\n    /* \"#utility.yul\":475:497   */\n  add\n    /* \"#utility.yul\":443:507   */\n  tag_10\n  jump\t// in\ntag_18:\n    /* \"#utility.yul\":433:507   */\n  swap3\n  pop\n    /* \"#utility.yul\":389:517   */\n  pop\n    /* \"#utility.yul\":556:558   */\n  0x20\n    /* \"#utility.yul\":582:646   */\n  tag_19\n    /* \"#utility.yul\":638:645   */\n  dup6\n    /* \"#utility.yul\":629:635   */\n  dup3\n    /* \"#utility.yul\":618:627   */\n  dup7\n    /* \"#utility.yul\":614:636   */\n  add\n    /* \"#utility.yul\":582:646   */\n  tag_10\n  jump\t// in\ntag_19:\n    /* \"#utility.yul\":572:646   */\n  swap2\n  pop\n    /* \"#utility.yul\":527:656   */\n  pop\n    /* \"#utility.yul\":156:663   */\n  swap3\n  pop\n  swap3\n  swap1\n  pop\n  jump\t// out\n    /* \"#utility.yul\":750:846   */\ntag_22:\n    /* \"#utility.yul\":787:794   */\n  0x00\n    /* \"#utility.yul\":816:840   */\n  tag_24\n    /* \"#utility.yul\":834:839   */\n  dup3\n    /* \"#utility.yul\":816:840   */\n  tag_25\n  jump\t// in\ntag_24:\n    /* \"#utility.yul\":805:840   */\n  swap1\n  pop\n    /* \"#utility.yul\":750:846   */\n  swap2\n  swap1\n  pop\n  jump\t// out\n    /* \"#utility.yul\":852:978   */\ntag_25:\n    /* \"#utility.yul\":889:896   */\n  0x00\n    /* \"#utility.yul\":929:971   */\n  0xffffffffffffffffffffffffffffffffffffffff\n    /* \"#utility.yul\":922:927   */\n  dup3\n    /* \"#utility.yul\":918:972   */\n  and\n    /* \"#utility.yul\":907:972   */\n  swap1\n  pop\n    /* \"#utility.yul\":852:978   */\n  swap2\n  swap1\n  pop\n  jump\t// out\n    /* \"#utility.yul\":1107:1224   */\ntag_17:\n    /* \"#utility.yul\":1216:1217   */\n  0x00\n    /* \"#utility.yul\":1213:1214   */\n  dup1\n    /* \"#utility.yul\":1206:1218   */\n  revert\n    /* \"#utility.yul\":1230:1352   */\ntag_13:\n    /* \"#utility.yul\":1303:1327   */\n  tag_31\n    /* \"#utility.yul\":1321:1326   */\n  dup2\n    /* \"#utility.yul\":1303:1327   */\n  tag_22\n  jump\t// in\ntag_31:\n    /* \"#utility.yul\":1296:1301   */\n  dup2\n    /* \"#utility.yul\":1293:1328   */\n  eq\n    /* \"#utility.yul\":1283:1346   */\n  tag_32\n  jumpi\n    /* \"#utility.yul\":1342:1343   */\n  0x00\n    /* \"#utility.yul\":1339:1340   */\n  dup1\n    /* \"#utility.yul\":1332:1344   */\n  revert\n    /* \"#utility.yul\":1283:1346   */\ntag_32:\n    /* \"#utility.yul\":1230:1352   */\n  pop\n  jump\t// out\n    /* \"contracts/Missions.sol\":341:1445  contract Staking is ReentrancyGuard {\r... */\ntag_8:\n  dataSize(sub_0)\n  dup1\n  dataOffset(sub_0)\n  0x00\n  codecopy\n  0x00\n  return\nstop\n\nsub_0: assembly {\n        /* \"contracts/Missions.sol\":341:1445  contract Staking is ReentrancyGuard {\r... */\n      mstore(0x40, 0x80)\n      callvalue\n      dup1\n      iszero\n      tag_1\n      jumpi\n      0x00\n      dup1\n      revert\n    tag_1:\n      pop\n      jumpi(tag_2, lt(calldatasize, 0x04))\n      shr(0xe0, calldataload(0x00))\n      dup1\n      0x66bb863b\n      gt\n      tag_10\n      jumpi\n      dup1\n      0x66bb863b\n      eq\n      tag_6\n      jumpi\n      dup1\n      0x80a54001\n      eq\n      tag_7\n      jumpi\n      dup1\n      0xb8e33fb2\n      eq\n      tag_8\n      jumpi\n      dup1\n      0xfead3d6e\n      eq\n      tag_9\n      jumpi\n      jump(tag_2)\n    tag_10:\n      dup1\n      0x150b7a02\n      eq\n      tag_3\n      jumpi\n      dup1\n      0x472343b9\n      eq\n      tag_4\n      jumpi\n      dup1\n      0x570ca735\n      eq\n      tag_5\n      jumpi\n    tag_2:\n      0x00\n      dup1\n      revert\n        /* \"contracts/Missions.sol\":1089:1407  function onERC721Received(address _operator, address nftcontract, uint256 tokenID, bytes memory) public virtual returns (bytes4) {\r... */\n    tag_3:\n      tag_11\n      0x04\n      dup1\n      calldatasize\n      sub\n      dup2\n      add\n      swap1\n      tag_12\n      swap2\n      swap1\n      tag_13\n      jump\t// in\n    tag_12:\n      tag_14\n      jump\t// in\n    tag_11:\n      mload(0x40)\n      tag_15\n      swap2\n      swap1\n      tag_16\n      jump\t// in\n    tag_15:\n      mload(0x40)\n      dup1\n      swap2\n      sub\n      swap1\n      return\n        /* \"contracts/Missions.sol\":895:1053  function getStakes(uint256 _tokenID) public view returns (address add, uint256 time){\r... */\n    tag_4:\n      tag_17\n      0x04\n      dup1\n      calldatasize\n      sub\n      dup2\n      add\n      swap1\n      tag_18\n      swap2\n      swap1\n      tag_19\n      jump\t// in\n    tag_18:\n      tag_20\n      jump\t// in\n    tag_17:\n      mload(0x40)\n      tag_21\n      swap3\n      swap2\n      swap1\n      tag_22\n      jump\t// in\n    tag_21:\n      mload(0x40)\n      dup1\n      swap2\n      sub\n      swap1\n      return\n        /* \"contracts/Missions.sol\":1059:1082  address public operator */\n    tag_5:\n      tag_23\n      tag_24\n      jump\t// in\n    tag_23:\n      mload(0x40)\n      tag_25\n      swap2\n      swap1\n      tag_26\n      jump\t// in\n    tag_25:\n      mload(0x40)\n      dup1\n      swap2\n      sub\n      swap1\n      return\n        /* \"contracts/Missions.sol\":488:519  address public parentNFTAddress */\n    tag_6:\n      tag_27\n      tag_28\n      jump\t// in\n    tag_27:\n      mload(0x40)\n      tag_29\n      swap2\n      swap1\n      tag_26\n      jump\t// in\n    tag_29:\n      mload(0x40)\n      dup1\n      swap2\n      sub\n      swap1\n      return\n        /* \"contracts/Missions.sol\":384:409  IERC20 public parentToken */\n    tag_7:\n      tag_30\n      tag_31\n      jump\t// in\n    tag_30:\n      mload(0x40)\n      tag_32\n      swap2\n      swap1\n      tag_33\n      jump\t// in\n    tag_32:\n      mload(0x40)\n      dup1\n      swap2\n      sub\n      swap1\n      return\n        /* \"contracts/Missions.sol\":416:440  IERC721 public parentNFT */\n    tag_8:\n      tag_34\n      tag_35\n      jump\t// in\n    tag_34:\n      mload(0x40)\n      tag_36\n      swap2\n      swap1\n      tag_37\n      jump\t// in\n    tag_36:\n      mload(0x40)\n      dup1\n      swap2\n      sub\n      swap1\n      return\n        /* \"contracts/Missions.sol\":447:481  INFTGame public parentNftFunctions */\n    tag_9:\n      tag_38\n      tag_39\n      jump\t// in\n    tag_38:\n      mload(0x40)\n      tag_40\n      swap2\n      swap1\n      tag_41\n      jump\t// in\n    tag_40:\n      mload(0x40)\n      dup1\n      swap2\n      sub\n      swap1\n      return\n        /* \"contracts/Missions.sol\":1089:1407  function onERC721Received(address _operator, address nftcontract, uint256 tokenID, bytes memory) public virtual returns (bytes4) {\r... */\n    tag_14:\n        /* \"contracts/Missions.sol\":1210:1216  bytes4 */\n      0x00\n        /* \"contracts/Missions.sol\":1248:1264  parentNFTAddress */\n      0x04\n      0x00\n      swap1\n      sload\n      swap1\n      0x0100\n      exp\n      swap1\n      div\n      0xffffffffffffffffffffffffffffffffffffffff\n      and\n        /* \"contracts/Missions.sol\":1233:1264  nftcontract == parentNFTAddress */\n      0xffffffffffffffffffffffffffffffffffffffff\n      and\n        /* \"contracts/Missions.sol\":1233:1244  nftcontract */\n      dup5\n        /* \"contracts/Missions.sol\":1233:1264  nftcontract == parentNFTAddress */\n      0xffffffffffffffffffffffffffffffffffffffff\n      and\n      eq\n        /* \"contracts/Missions.sol\":1229:1322  if (nftcontract == parentNFTAddress){\r... */\n      iszero\n      tag_43\n      jumpi\n        /* \"contracts/Missions.sol\":1301:1310  _operator */\n      dup5\n        /* \"contracts/Missions.sol\":1280:1289  s_stakers */\n      0x05\n        /* \"contracts/Missions.sol\":1280:1298  s_stakers[tokenID] */\n      0x00\n        /* \"contracts/Missions.sol\":1290:1297  tokenID */\n      dup6\n        /* \"contracts/Missions.sol\":1280:1298  s_stakers[tokenID] */\n      dup2\n      mstore\n      0x20\n      add\n      swap1\n      dup2\n      mstore\n      0x20\n      add\n      0x00\n      keccak256\n      0x00\n        /* \"contracts/Missions.sol\":1280:1310  s_stakers[tokenID] = _operator */\n      0x0100\n      exp\n      dup2\n      sload\n      dup2\n      0xffffffffffffffffffffffffffffffffffffffff\n      mul\n      not\n      and\n      swap1\n      dup4\n      0xffffffffffffffffffffffffffffffffffffffff\n      and\n      mul\n      or\n      swap1\n      sstore\n      pop\n        /* \"contracts/Missions.sol\":1229:1322  if (nftcontract == parentNFTAddress){\r... */\n    tag_43:\n        /* \"contracts/Missions.sol\":1343:1351  operator */\n      0x07\n      0x00\n      swap1\n      sload\n      swap1\n      0x0100\n      exp\n      swap1\n      div\n      0xffffffffffffffffffffffffffffffffffffffff\n      and\n        /* \"contracts/Missions.sol\":1332:1340  operator */\n      0x07\n      0x00\n        /* \"contracts/Missions.sol\":1332:1351  operator = operator */\n      0x0100\n      exp\n      dup2\n      sload\n      dup2\n      0xffffffffffffffffffffffffffffffffffffffff\n      mul\n      not\n      and\n      swap1\n      dup4\n      0xffffffffffffffffffffffffffffffffffffffff\n      and\n      mul\n      or\n      swap1\n      sstore\n      pop\n        /* \"contracts/Missions.sol\":1369:1399  this.onERC721Received.selector */\n      shl(0xe0, 0x150b7a02)\n        /* \"contracts/Missions.sol\":1362:1399  return this.onERC721Received.selector */\n      swap1\n      pop\n        /* \"contracts/Missions.sol\":1089:1407  function onERC721Received(address _operator, address nftcontract, uint256 tokenID, bytes memory) public virtual returns (bytes4) {\r... */\n      swap5\n      swap4\n      pop\n      pop\n      pop\n      pop\n      jump\t// out\n        /* \"contracts/Missions.sol\":895:1053  function getStakes(uint256 _tokenID) public view returns (address add, uint256 time){\r... */\n    tag_20:\n        /* \"contracts/Missions.sol\":953:964  address add */\n      0x00\n        /* \"contracts/Missions.sol\":966:978  uint256 time */\n      dup1\n        /* \"contracts/Missions.sol\":998:1007  s_stakers */\n      0x05\n        /* \"contracts/Missions.sol\":998:1017  s_stakers[_tokenID] */\n      0x00\n        /* \"contracts/Missions.sol\":1008:1016  _tokenID */\n      dup5\n        /* \"contracts/Missions.sol\":998:1017  s_stakers[_tokenID] */\n      dup2\n      mstore\n      0x20\n      add\n      swap1\n      dup2\n      mstore\n      0x20\n      add\n      0x00\n      keccak256\n      0x00\n      swap1\n      sload\n      swap1\n      0x0100\n      exp\n      swap1\n      div\n      0xffffffffffffffffffffffffffffffffffffffff\n      and\n        /* \"contracts/Missions.sol\":1019:1034  s_missionTimers */\n      0x06\n        /* \"contracts/Missions.sol\":1019:1044  s_missionTimers[_tokenID] */\n      0x00\n        /* \"contracts/Missions.sol\":1035:1043  _tokenID */\n      dup6\n        /* \"contracts/Missions.sol\":1019:1044  s_missionTimers[_tokenID] */\n      dup2\n      mstore\n      0x20\n      add\n      swap1\n      dup2\n      mstore\n      0x20\n      add\n      0x00\n      keccak256\n      sload\n        /* \"contracts/Missions.sol\":990:1045  return (s_stakers[_tokenID], s_missionTimers[_tokenID]) */\n      swap2\n      pop\n      swap2\n      pop\n        /* \"contracts/Missions.sol\":895:1053  function getStakes(uint256 _tokenID) public view returns (address add, uint256 time){\r... */\n      swap2\n      pop\n      swap2\n      jump\t// out\n        /* \"contracts/Missions.sol\":1059:1082  address public operator */\n    tag_24:\n      0x07\n      0x00\n      swap1\n      sload\n      swap1\n      0x0100\n      exp\n      swap1\n      div\n      0xffffffffffffffffffffffffffffffffffffffff\n      and\n      dup2\n      jump\t// out\n        /* \"contracts/Missions.sol\":488:519  address public parentNFTAddress */\n    tag_28:\n      0x04\n      0x00\n      swap1\n      sload\n      swap1\n      0x0100\n      exp\n      swap1\n      div\n      0xffffffffffffffffffffffffffffffffffffffff\n      and\n      dup2\n      jump\t// out\n        /* \"contracts/Missions.sol\":384:409  IERC20 public parentToken */\n    tag_31:\n      0x01\n      0x00\n      swap1\n      sload\n      swap1\n      0x0100\n      exp\n      swap1\n      div\n      0xffffffffffffffffffffffffffffffffffffffff\n      and\n      dup2\n      jump\t// out\n        /* \"contracts/Missions.sol\":416:440  IERC721 public parentNFT */\n    tag_35:\n      0x02\n      0x00\n      swap1\n      sload\n      swap1\n      0x0100\n      exp\n      swap1\n      div\n      0xffffffffffffffffffffffffffffffffffffffff\n      and\n      dup2\n      jump\t// out\n        /* \"contracts/Missions.sol\":447:481  INFTGame public parentNftFunctions */\n    tag_39:\n      0x03\n      0x00\n      swap1\n      sload\n      swap1\n      0x0100\n      exp\n      swap1\n      div\n      0xffffffffffffffffffffffffffffffffffffffff\n      and\n      dup2\n      jump\t// out\n        /* \"#utility.yul\":7:417   */\n    tag_46:\n        /* \"#utility.yul\":84:89   */\n      0x00\n        /* \"#utility.yul\":109:174   */\n      tag_48\n        /* \"#utility.yul\":125:173   */\n      tag_49\n        /* \"#utility.yul\":166:172   */\n      dup5\n        /* \"#utility.yul\":125:173   */\n      tag_50\n      jump\t// in\n    tag_49:\n        /* \"#utility.yul\":109:174   */\n      tag_51\n      jump\t// in\n    tag_48:\n        /* \"#utility.yul\":100:174   */\n      swap1\n      pop\n        /* \"#utility.yul\":197:203   */\n      dup3\n        /* \"#utility.yul\":190:195   */\n      dup2\n        /* \"#utility.yul\":183:204   */\n      mstore\n        /* \"#utility.yul\":235:239   */\n      0x20\n        /* \"#utility.yul\":228:233   */\n      dup2\n        /* \"#utility.yul\":224:240   */\n      add\n        /* \"#utility.yul\":273:276   */\n      dup5\n        /* \"#utility.yul\":264:270   */\n      dup5\n        /* \"#utility.yul\":259:262   */\n      dup5\n        /* \"#utility.yul\":255:271   */\n      add\n        /* \"#utility.yul\":252:277   */\n      gt\n        /* \"#utility.yul\":249:361   */\n      iszero\n      tag_52\n      jumpi\n        /* \"#utility.yul\":280:359   */\n      tag_53\n      tag_54\n      jump\t// in\n    tag_53:\n        /* \"#utility.yul\":249:361   */\n    tag_52:\n        /* \"#utility.yul\":370:411   */\n      tag_55\n        /* \"#utility.yul\":404:410   */\n      dup5\n        /* \"#utility.yul\":399:402   */\n      dup3\n        /* \"#utility.yul\":394:397   */\n      dup6\n        /* \"#utility.yul\":370:411   */\n      tag_56\n      jump\t// in\n    tag_55:\n        /* \"#utility.yul\":90:417   */\n      pop\n        /* \"#utility.yul\":7:417   */\n      swap4\n      swap3\n      pop\n      pop\n      pop\n      jump\t// out\n        /* \"#utility.yul\":423:562   */\n    tag_57:\n        /* \"#utility.yul\":469:474   */\n      0x00\n        /* \"#utility.yul\":507:513   */\n      dup2\n        /* \"#utility.yul\":494:514   */\n      calldataload\n        /* \"#utility.yul\":485:514   */\n      swap1\n      pop\n        /* \"#utility.yul\":523:556   */\n      tag_59\n        /* \"#utility.yul\":550:555   */\n      dup2\n        /* \"#utility.yul\":523:556   */\n      tag_60\n      jump\t// in\n    tag_59:\n        /* \"#utility.yul\":423:562   */\n      swap3\n      swap2\n      pop\n      pop\n      jump\t// out\n        /* \"#utility.yul\":581:919   */\n    tag_61:\n        /* \"#utility.yul\":636:641   */\n      0x00\n        /* \"#utility.yul\":685:688   */\n      dup3\n        /* \"#utility.yul\":678:682   */\n      0x1f\n        /* \"#utility.yul\":670:676   */\n      dup4\n        /* \"#utility.yul\":666:683   */\n      add\n        /* \"#utility.yul\":662:689   */\n      slt\n        /* \"#utility.yul\":652:774   */\n      tag_63\n      jumpi\n        /* \"#utility.yul\":693:772   */\n      tag_64\n      tag_65\n      jump\t// in\n    tag_64:\n        /* \"#utility.yul\":652:774   */\n    tag_63:\n        /* \"#utility.yul\":810:816   */\n      dup2\n        /* \"#utility.yul\":797:817   */\n      calldataload\n        /* \"#utility.yul\":835:913   */\n      tag_66\n        /* \"#utility.yul\":909:912   */\n      dup5\n        /* \"#utility.yul\":901:907   */\n      dup3\n        /* \"#utility.yul\":894:898   */\n      0x20\n        /* \"#utility.yul\":886:892   */\n      dup7\n        /* \"#utility.yul\":882:899   */\n      add\n        /* \"#utility.yul\":835:913   */\n      tag_46\n      jump\t// in\n    tag_66:\n        /* \"#utility.yul\":826:913   */\n      swap2\n      pop\n        /* \"#utility.yul\":642:919   */\n      pop\n        /* \"#utility.yul\":581:919   */\n      swap3\n      swap2\n      pop\n      pop\n      jump\t// out\n        /* \"#utility.yul\":925:1064   */\n    tag_67:\n        /* \"#utility.yul\":971:976   */\n      0x00\n        /* \"#utility.yul\":1009:1015   */\n      dup2\n        /* \"#utility.yul\":996:1016   */\n      calldataload\n        /* \"#utility.yul\":987:1016   */\n      swap1\n      pop\n        /* \"#utility.yul\":1025:1058   */\n      tag_69\n        /* \"#utility.yul\":1052:1057   */\n      dup2\n        /* \"#utility.yul\":1025:1058   */\n      tag_70\n      jump\t// in\n    tag_69:\n        /* \"#utility.yul\":925:1064   */\n      swap3\n      swap2\n      pop\n      pop\n      jump\t// out\n        /* \"#utility.yul\":1070:2013   */\n    tag_13:\n        /* \"#utility.yul\":1165:1171   */\n      0x00\n        /* \"#utility.yul\":1173:1179   */\n      dup1\n        /* \"#utility.yul\":1181:1187   */\n      0x00\n        /* \"#utility.yul\":1189:1195   */\n      dup1\n        /* \"#utility.yul\":1238:1241   */\n      0x80\n        /* \"#utility.yul\":1226:1235   */\n      dup6\n        /* \"#utility.yul\":1217:1224   */\n      dup8\n        /* \"#utility.yul\":1213:1236   */\n      sub\n        /* \"#utility.yul\":1209:1242   */\n      slt\n        /* \"#utility.yul\":1206:1326   */\n      iszero\n      tag_72\n      jumpi\n        /* \"#utility.yul\":1245:1324   */\n      tag_73\n      tag_74\n      jump\t// in\n    tag_73:\n        /* \"#utility.yul\":1206:1326   */\n    tag_72:\n        /* \"#utility.yul\":1365:1366   */\n      0x00\n        /* \"#utility.yul\":1390:1443   */\n      tag_75\n        /* \"#utility.yul\":1435:1442   */\n      dup8\n        /* \"#utility.yul\":1426:1432   */\n      dup3\n        /* \"#utility.yul\":1415:1424   */\n      dup9\n        /* \"#utility.yul\":1411:1433   */\n      add\n        /* \"#utility.yul\":1390:1443   */\n      tag_57\n      jump\t// in\n    tag_75:\n        /* \"#utility.yul\":1380:1443   */\n      swap5\n      pop\n        /* \"#utility.yul\":1336:1453   */\n      pop\n        /* \"#utility.yul\":1492:1494   */\n      0x20\n        /* \"#utility.yul\":1518:1571   */\n      tag_76\n        /* \"#utility.yul\":1563:1570   */\n      dup8\n        /* \"#utility.yul\":1554:1560   */\n      dup3\n        /* \"#utility.yul\":1543:1552   */\n      dup9\n        /* \"#utility.yul\":1539:1561   */\n      add\n        /* \"#utility.yul\":1518:1571   */\n      tag_57\n      jump\t// in\n    tag_76:\n        /* \"#utility.yul\":1508:1571   */\n      swap4\n      pop\n        /* \"#utility.yul\":1463:1581   */\n      pop\n        /* \"#utility.yul\":1620:1622   */\n      0x40\n        /* \"#utility.yul\":1646:1699   */\n      tag_77\n        /* \"#utility.yul\":1691:1698   */\n      dup8\n        /* \"#utility.yul\":1682:1688   */\n      dup3\n        /* \"#utility.yul\":1671:1680   */\n      dup9\n        /* \"#utility.yul\":1667:1689   */\n      add\n        /* \"#utility.yul\":1646:1699   */\n      tag_67\n      jump\t// in\n    tag_77:\n        /* \"#utility.yul\":1636:1699   */\n      swap3\n      pop\n        /* \"#utility.yul\":1591:1709   */\n      pop\n        /* \"#utility.yul\":1776:1778   */\n      0x60\n        /* \"#utility.yul\":1765:1774   */\n      dup6\n        /* \"#utility.yul\":1761:1779   */\n      add\n        /* \"#utility.yul\":1748:1780   */\n      calldataload\n        /* \"#utility.yul\":1807:1825   */\n      0xffffffffffffffff\n        /* \"#utility.yul\":1799:1805   */\n      dup2\n        /* \"#utility.yul\":1796:1826   */\n      gt\n        /* \"#utility.yul\":1793:1910   */\n      iszero\n      tag_78\n      jumpi\n        /* \"#utility.yul\":1829:1908   */\n      tag_79\n      tag_80\n      jump\t// in\n    tag_79:\n        /* \"#utility.yul\":1793:1910   */\n    tag_78:\n        /* \"#utility.yul\":1934:1996   */\n      tag_81\n        /* \"#utility.yul\":1988:1995   */\n      dup8\n        /* \"#utility.yul\":1979:1985   */\n      dup3\n        /* \"#utility.yul\":1968:1977   */\n      dup9\n        /* \"#utility.yul\":1964:1986   */\n      add\n        /* \"#utility.yul\":1934:1996   */\n      tag_61\n      jump\t// in\n    tag_81:\n        /* \"#utility.yul\":1924:1996   */\n      swap2\n      pop\n        /* \"#utility.yul\":1719:2006   */\n      pop\n        /* \"#utility.yul\":1070:2013   */\n      swap3\n      swap6\n      swap2\n      swap5\n      pop\n      swap3\n      pop\n      jump\t// out\n        /* \"#utility.yul\":2019:2348   */\n    tag_19:\n        /* \"#utility.yul\":2078:2084   */\n      0x00\n        /* \"#utility.yul\":2127:2129   */\n      0x20\n        /* \"#utility.yul\":2115:2124   */\n      dup3\n        /* \"#utility.yul\":2106:2113   */\n      dup5\n        /* \"#utility.yul\":2102:2125   */\n      sub\n        /* \"#utility.yul\":2098:2130   */\n      slt\n        /* \"#utility.yul\":2095:2214   */\n      iszero\n      tag_83\n      jumpi\n        /* \"#utility.yul\":2133:2212   */\n      tag_84\n      tag_74\n      jump\t// in\n    tag_84:\n        /* \"#utility.yul\":2095:2214   */\n    tag_83:\n        /* \"#utility.yul\":2253:2254   */\n      0x00\n        /* \"#utility.yul\":2278:2331   */\n      tag_85\n        /* \"#utility.yul\":2323:2330   */\n      dup5\n        /* \"#utility.yul\":2314:2320   */\n      dup3\n        /* \"#utility.yul\":2303:2312   */\n      dup6\n        /* \"#utility.yul\":2299:2321   */\n      add\n        /* \"#utility.yul\":2278:2331   */\n      tag_67\n      jump\t// in\n    tag_85:\n        /* \"#utility.yul\":2268:2331   */\n      swap2\n      pop\n        /* \"#utility.yul\":2224:2341   */\n      pop\n        /* \"#utility.yul\":2019:2348   */\n      swap3\n      swap2\n      pop\n      pop\n      jump\t// out\n        /* \"#utility.yul\":2354:2472   */\n    tag_86:\n        /* \"#utility.yul\":2441:2465   */\n      tag_88\n        /* \"#utility.yul\":2459:2464   */\n      dup2\n        /* \"#utility.yul\":2441:2465   */\n      tag_89\n      jump\t// in\n    tag_88:\n        /* \"#utility.yul\":2436:2439   */\n      dup3\n        /* \"#utility.yul\":2429:2466   */\n      mstore\n        /* \"#utility.yul\":2354:2472   */\n      pop\n      pop\n      jump\t// out\n        /* \"#utility.yul\":2478:2593   */\n    tag_90:\n        /* \"#utility.yul\":2563:2586   */\n      tag_92\n        /* \"#utility.yul\":2580:2585   */\n      dup2\n        /* \"#utility.yul\":2563:2586   */\n      tag_93\n      jump\t// in\n    tag_92:\n        /* \"#utility.yul\":2558:2561   */\n      dup3\n        /* \"#utility.yul\":2551:2587   */\n      mstore\n        /* \"#utility.yul\":2478:2593   */\n      pop\n      pop\n      jump\t// out\n        /* \"#utility.yul\":2599:2758   */\n    tag_94:\n        /* \"#utility.yul\":2700:2751   */\n      tag_96\n        /* \"#utility.yul\":2745:2750   */\n      dup2\n        /* \"#utility.yul\":2700:2751   */\n      tag_97\n      jump\t// in\n    tag_96:\n        /* \"#utility.yul\":2695:2698   */\n      dup3\n        /* \"#utility.yul\":2688:2752   */\n      mstore\n        /* \"#utility.yul\":2599:2758   */\n      pop\n      pop\n      jump\t// out\n        /* \"#utility.yul\":2764:2925   */\n    tag_98:\n        /* \"#utility.yul\":2866:2918   */\n      tag_100\n        /* \"#utility.yul\":2912:2917   */\n      dup2\n        /* \"#utility.yul\":2866:2918   */\n      tag_101\n      jump\t// in\n    tag_100:\n        /* \"#utility.yul\":2861:2864   */\n      dup3\n        /* \"#utility.yul\":2854:2919   */\n      mstore\n        /* \"#utility.yul\":2764:2925   */\n      pop\n      pop\n      jump\t// out\n        /* \"#utility.yul\":2931:3094   */\n    tag_102:\n        /* \"#utility.yul\":3034:3087   */\n      tag_104\n        /* \"#utility.yul\":3081:3086   */\n      dup2\n        /* \"#utility.yul\":3034:3087   */\n      tag_105\n      jump\t// in\n    tag_104:\n        /* \"#utility.yul\":3029:3032   */\n      dup3\n        /* \"#utility.yul\":3022:3088   */\n      mstore\n        /* \"#utility.yul\":2931:3094   */\n      pop\n      pop\n      jump\t// out\n        /* \"#utility.yul\":3100:3218   */\n    tag_106:\n        /* \"#utility.yul\":3187:3211   */\n      tag_108\n        /* \"#utility.yul\":3205:3210   */\n      dup2\n        /* \"#utility.yul\":3187:3211   */\n      tag_109\n      jump\t// in\n    tag_108:\n        /* \"#utility.yul\":3182:3185   */\n      dup3\n        /* \"#utility.yul\":3175:3212   */\n      mstore\n        /* \"#utility.yul\":3100:3218   */\n      pop\n      pop\n      jump\t// out\n        /* \"#utility.yul\":3224:3446   */\n    tag_26:\n        /* \"#utility.yul\":3317:3321   */\n      0x00\n        /* \"#utility.yul\":3355:3357   */\n      0x20\n        /* \"#utility.yul\":3344:3353   */\n      dup3\n        /* \"#utility.yul\":3340:3358   */\n      add\n        /* \"#utility.yul\":3332:3358   */\n      swap1\n      pop\n        /* \"#utility.yul\":3368:3439   */\n      tag_111\n        /* \"#utility.yul\":3436:3437   */\n      0x00\n        /* \"#utility.yul\":3425:3434   */\n      dup4\n        /* \"#utility.yul\":3421:3438   */\n      add\n        /* \"#utility.yul\":3412:3418   */\n      dup5\n        /* \"#utility.yul\":3368:3439   */\n      tag_86\n      jump\t// in\n    tag_111:\n        /* \"#utility.yul\":3224:3446   */\n      swap3\n      swap2\n      pop\n      pop\n      jump\t// out\n        /* \"#utility.yul\":3452:3784   */\n    tag_22:\n        /* \"#utility.yul\":3573:3577   */\n      0x00\n        /* \"#utility.yul\":3611:3613   */\n      0x40\n        /* \"#utility.yul\":3600:3609   */\n      dup3\n        /* \"#utility.yul\":3596:3614   */\n      add\n        /* \"#utility.yul\":3588:3614   */\n      swap1\n      pop\n        /* \"#utility.yul\":3624:3695   */\n      tag_113\n        /* \"#utility.yul\":3692:3693   */\n      0x00\n        /* \"#utility.yul\":3681:3690   */\n      dup4\n        /* \"#utility.yul\":3677:3694   */\n      add\n        /* \"#utility.yul\":3668:3674   */\n      dup6\n        /* \"#utility.yul\":3624:3695   */\n      tag_86\n      jump\t// in\n    tag_113:\n        /* \"#utility.yul\":3705:3777   */\n      tag_114\n        /* \"#utility.yul\":3773:3775   */\n      0x20\n        /* \"#utility.yul\":3762:3771   */\n      dup4\n        /* \"#utility.yul\":3758:3776   */\n      add\n        /* \"#utility.yul\":3749:3755   */\n      dup5\n        /* \"#utility.yul\":3705:3777   */\n      tag_106\n      jump\t// in\n    tag_114:\n        /* \"#utility.yul\":3452:3784   */\n      swap4\n      swap3\n      pop\n      pop\n      pop\n      jump\t// out\n        /* \"#utility.yul\":3790:4008   */\n    tag_16:\n        /* \"#utility.yul\":3881:3885   */\n      0x00\n        /* \"#utility.yul\":3919:3921   */\n      0x20\n        /* \"#utility.yul\":3908:3917   */\n      dup3\n        /* \"#utility.yul\":3904:3922   */\n      add\n        /* \"#utility.yul\":3896:3922   */\n      swap1\n      pop\n        /* \"#utility.yul\":3932:4001   */\n      tag_116\n        /* \"#utility.yul\":3998:3999   */\n      0x00\n        /* \"#utility.yul\":3987:3996   */\n      dup4\n        /* \"#utility.yul\":3983:4000   */\n      add\n        /* \"#utility.yul\":3974:3980   */\n      dup5\n        /* \"#utility.yul\":3932:4001   */\n      tag_90\n      jump\t// in\n    tag_116:\n        /* \"#utility.yul\":3790:4008   */\n      swap3\n      swap2\n      pop\n      pop\n      jump\t// out\n        /* \"#utility.yul\":4014:4264   */\n    tag_33:\n        /* \"#utility.yul\":4121:4125   */\n      0x00\n        /* \"#utility.yul\":4159:4161   */\n      0x20\n        /* \"#utility.yul\":4148:4157   */\n      dup3\n        /* \"#utility.yul\":4144:4162   */\n      add\n        /* \"#utility.yul\":4136:4162   */\n      swap1\n      pop\n        /* \"#utility.yul\":4172:4257   */\n      tag_118\n        /* \"#utility.yul\":4254:4255   */\n      0x00\n        /* \"#utility.yul\":4243:4252   */\n      dup4\n        /* \"#utility.yul\":4239:4256   */\n      add\n        /* \"#utility.yul\":4230:4236   */\n      dup5\n        /* \"#utility.yul\":4172:4257   */\n      tag_94\n      jump\t// in\n    tag_118:\n        /* \"#utility.yul\":4014:4264   */\n      swap3\n      swap2\n      pop\n      pop\n      jump\t// out\n        /* \"#utility.yul\":4270:4522   */\n    tag_37:\n        /* \"#utility.yul\":4378:4382   */\n      0x00\n        /* \"#utility.yul\":4416:4418   */\n      0x20\n        /* \"#utility.yul\":4405:4414   */\n      dup3\n        /* \"#utility.yul\":4401:4419   */\n      add\n        /* \"#utility.yul\":4393:4419   */\n      swap1\n      pop\n        /* \"#utility.yul\":4429:4515   */\n      tag_120\n        /* \"#utility.yul\":4512:4513   */\n      0x00\n        /* \"#utility.yul\":4501:4510   */\n      dup4\n        /* \"#utility.yul\":4497:4514   */\n      add\n        /* \"#utility.yul\":4488:4494   */\n      dup5\n        /* \"#utility.yul\":4429:4515   */\n      tag_98\n      jump\t// in\n    tag_120:\n        /* \"#utility.yul\":4270:4522   */\n      swap3\n      swap2\n      pop\n      pop\n      jump\t// out\n        /* \"#utility.yul\":4528:4782   */\n    tag_41:\n        /* \"#utility.yul\":4637:4641   */\n      0x00\n        /* \"#utility.yul\":4675:4677   */\n      0x20\n        /* \"#utility.yul\":4664:4673   */\n      dup3\n        /* \"#utility.yul\":4660:4678   */\n      add\n        /* \"#utility.yul\":4652:4678   */\n      swap1\n      pop\n        /* \"#utility.yul\":4688:4775   */\n      tag_122\n        /* \"#utility.yul\":4772:4773   */\n      0x00\n        /* \"#utility.yul\":4761:4770   */\n      dup4\n        /* \"#utility.yul\":4757:4774   */\n      add\n        /* \"#utility.yul\":4748:4754   */\n      dup5\n        /* \"#utility.yul\":4688:4775   */\n      tag_102\n      jump\t// in\n    tag_122:\n        /* \"#utility.yul\":4528:4782   */\n      swap3\n      swap2\n      pop\n      pop\n      jump\t// out\n        /* \"#utility.yul\":4788:4917   */\n    tag_51:\n        /* \"#utility.yul\":4822:4828   */\n      0x00\n        /* \"#utility.yul\":4849:4869   */\n      tag_124\n      tag_125\n      jump\t// in\n    tag_124:\n        /* \"#utility.yul\":4839:4869   */\n      swap1\n      pop\n        /* \"#utility.yul\":4878:4911   */\n      tag_126\n        /* \"#utility.yul\":4906:4910   */\n      dup3\n        /* \"#utility.yul\":4898:4904   */\n      dup3\n        /* \"#utility.yul\":4878:4911   */\n      tag_127\n      jump\t// in\n    tag_126:\n        /* \"#utility.yul\":4788:4917   */\n      swap2\n      swap1\n      pop\n      jump\t// out\n        /* \"#utility.yul\":4923:4998   */\n    tag_125:\n        /* \"#utility.yul\":4956:4962   */\n      0x00\n        /* \"#utility.yul\":4989:4991   */\n      0x40\n        /* \"#utility.yul\":4983:4992   */\n      mload\n        /* \"#utility.yul\":4973:4992   */\n      swap1\n      pop\n        /* \"#utility.yul\":4923:4998   */\n      swap1\n      jump\t// out\n        /* \"#utility.yul\":5004:5311   */\n    tag_50:\n        /* \"#utility.yul\":5065:5069   */\n      0x00\n        /* \"#utility.yul\":5155:5173   */\n      0xffffffffffffffff\n        /* \"#utility.yul\":5147:5153   */\n      dup3\n        /* \"#utility.yul\":5144:5174   */\n      gt\n        /* \"#utility.yul\":5141:5197   */\n      iszero\n      tag_130\n      jumpi\n        /* \"#utility.yul\":5177:5195   */\n      tag_131\n      tag_132\n      jump\t// in\n    tag_131:\n        /* \"#utility.yul\":5141:5197   */\n    tag_130:\n        /* \"#utility.yul\":5215:5244   */\n      tag_133\n        /* \"#utility.yul\":5237:5243   */\n      dup3\n        /* \"#utility.yul\":5215:5244   */\n      tag_134\n      jump\t// in\n    tag_133:\n        /* \"#utility.yul\":5207:5244   */\n      swap1\n      pop\n        /* \"#utility.yul\":5299:5303   */\n      0x20\n        /* \"#utility.yul\":5293:5297   */\n      dup2\n        /* \"#utility.yul\":5289:5304   */\n      add\n        /* \"#utility.yul\":5281:5304   */\n      swap1\n      pop\n        /* \"#utility.yul\":5004:5311   */\n      swap2\n      swap1\n      pop\n      jump\t// out\n        /* \"#utility.yul\":5317:5413   */\n    tag_89:\n        /* \"#utility.yul\":5354:5361   */\n      0x00\n        /* \"#utility.yul\":5383:5407   */\n      tag_136\n        /* \"#utility.yul\":5401:5406   */\n      dup3\n        /* \"#utility.yul\":5383:5407   */\n      tag_137\n      jump\t// in\n    tag_136:\n        /* \"#utility.yul\":5372:5407   */\n      swap1\n      pop\n        /* \"#utility.yul\":5317:5413   */\n      swap2\n      swap1\n      pop\n      jump\t// out\n        /* \"#utility.yul\":5419:5568   */\n    tag_93:\n        /* \"#utility.yul\":5455:5462   */\n      0x00\n        /* \"#utility.yul\":5495:5561   */\n      0xffffffff00000000000000000000000000000000000000000000000000000000\n        /* \"#utility.yul\":5488:5493   */\n      dup3\n        /* \"#utility.yul\":5484:5562   */\n      and\n        /* \"#utility.yul\":5473:5562   */\n      swap1\n      pop\n        /* \"#utility.yul\":5419:5568   */\n      swap2\n      swap1\n      pop\n      jump\t// out\n        /* \"#utility.yul\":5574:5700   */\n    tag_137:\n        /* \"#utility.yul\":5611:5618   */\n      0x00\n        /* \"#utility.yul\":5651:5693   */\n      0xffffffffffffffffffffffffffffffffffffffff\n        /* \"#utility.yul\":5644:5649   */\n      dup3\n        /* \"#utility.yul\":5640:5694   */\n      and\n        /* \"#utility.yul\":5629:5694   */\n      swap1\n      pop\n        /* \"#utility.yul\":5574:5700   */\n      swap2\n      swap1\n      pop\n      jump\t// out\n        /* \"#utility.yul\":5706:5783   */\n    tag_109:\n        /* \"#utility.yul\":5743:5750   */\n      0x00\n        /* \"#utility.yul\":5772:5777   */\n      dup2\n        /* \"#utility.yul\":5761:5777   */\n      swap1\n      pop\n        /* \"#utility.yul\":5706:5783   */\n      swap2\n      swap1\n      pop\n      jump\t// out\n        /* \"#utility.yul\":5789:5929   */\n    tag_97:\n        /* \"#utility.yul\":5853:5862   */\n      0x00\n        /* \"#utility.yul\":5886:5923   */\n      tag_142\n        /* \"#utility.yul\":5917:5922   */\n      dup3\n        /* \"#utility.yul\":5886:5923   */\n      tag_143\n      jump\t// in\n    tag_142:\n        /* \"#utility.yul\":5873:5923   */\n      swap1\n      pop\n        /* \"#utility.yul\":5789:5929   */\n      swap2\n      swap1\n      pop\n      jump\t// out\n        /* \"#utility.yul\":5935:6076   */\n    tag_101:\n        /* \"#utility.yul\":6000:6009   */\n      0x00\n        /* \"#utility.yul\":6033:6070   */\n      tag_145\n        /* \"#utility.yul\":6064:6069   */\n      dup3\n        /* \"#utility.yul\":6033:6070   */\n      tag_143\n      jump\t// in\n    tag_145:\n        /* \"#utility.yul\":6020:6070   */\n      swap1\n      pop\n        /* \"#utility.yul\":5935:6076   */\n      swap2\n      swap1\n      pop\n      jump\t// out\n        /* \"#utility.yul\":6082:6224   */\n    tag_105:\n        /* \"#utility.yul\":6148:6157   */\n      0x00\n        /* \"#utility.yul\":6181:6218   */\n      tag_147\n        /* \"#utility.yul\":6212:6217   */\n      dup3\n        /* \"#utility.yul\":6181:6218   */\n      tag_143\n      jump\t// in\n    tag_147:\n        /* \"#utility.yul\":6168:6218   */\n      swap1\n      pop\n        /* \"#utility.yul\":6082:6224   */\n      swap2\n      swap1\n      pop\n      jump\t// out\n        /* \"#utility.yul\":6230:6356   */\n    tag_143:\n        /* \"#utility.yul\":6280:6289   */\n      0x00\n        /* \"#utility.yul\":6313:6350   */\n      tag_149\n        /* \"#utility.yul\":6344:6349   */\n      dup3\n        /* \"#utility.yul\":6313:6350   */\n      tag_150\n      jump\t// in\n    tag_149:\n        /* \"#utility.yul\":6300:6350   */\n      swap1\n      pop\n        /* \"#utility.yul\":6230:6356   */\n      swap2\n      swap1\n      pop\n      jump\t// out\n        /* \"#utility.yul\":6362:6475   */\n    tag_150:\n        /* \"#utility.yul\":6412:6421   */\n      0x00\n        /* \"#utility.yul\":6445:6469   */\n      tag_152\n        /* \"#utility.yul\":6463:6468   */\n      dup3\n        /* \"#utility.yul\":6445:6469   */\n      tag_137\n      jump\t// in\n    tag_152:\n        /* \"#utility.yul\":6432:6469   */\n      swap1\n      pop\n        /* \"#utility.yul\":6362:6475   */\n      swap2\n      swap1\n      pop\n      jump\t// out\n        /* \"#utility.yul\":6481:6635   */\n    tag_56:\n        /* \"#utility.yul\":6565:6571   */\n      dup3\n        /* \"#utility.yul\":6560:6563   */\n      dup2\n        /* \"#utility.yul\":6555:6558   */\n      dup4\n        /* \"#utility.yul\":6542:6572   */\n      calldatacopy\n        /* \"#utility.yul\":6627:6628   */\n      0x00\n        /* \"#utility.yul\":6618:6624   */\n      dup4\n        /* \"#utility.yul\":6613:6616   */\n      dup4\n        /* \"#utility.yul\":6609:6625   */\n      add\n        /* \"#utility.yul\":6602:6629   */\n      mstore\n        /* \"#utility.yul\":6481:6635   */\n      pop\n      pop\n      pop\n      jump\t// out\n        /* \"#utility.yul\":6641:6922   */\n    tag_127:\n        /* \"#utility.yul\":6724:6751   */\n      tag_155\n        /* \"#utility.yul\":6746:6750   */\n      dup3\n        /* \"#utility.yul\":6724:6751   */\n      tag_134\n      jump\t// in\n    tag_155:\n        /* \"#utility.yul\":6716:6722   */\n      dup2\n        /* \"#utility.yul\":6712:6752   */\n      add\n        /* \"#utility.yul\":6854:6860   */\n      dup2\n        /* \"#utility.yul\":6842:6852   */\n      dup2\n        /* \"#utility.yul\":6839:6861   */\n      lt\n        /* \"#utility.yul\":6818:6836   */\n      0xffffffffffffffff\n        /* \"#utility.yul\":6806:6816   */\n      dup3\n        /* \"#utility.yul\":6803:6837   */\n      gt\n        /* \"#utility.yul\":6800:6862   */\n      or\n        /* \"#utility.yul\":6797:6885   */\n      iszero\n      tag_156\n      jumpi\n        /* \"#utility.yul\":6865:6883   */\n      tag_157\n      tag_132\n      jump\t// in\n    tag_157:\n        /* \"#utility.yul\":6797:6885   */\n    tag_156:\n        /* \"#utility.yul\":6905:6915   */\n      dup1\n        /* \"#utility.yul\":6901:6903   */\n      0x40\n        /* \"#utility.yul\":6894:6916   */\n      mstore\n        /* \"#utility.yul\":6684:6922   */\n      pop\n        /* \"#utility.yul\":6641:6922   */\n      pop\n      pop\n      jump\t// out\n        /* \"#utility.yul\":6928:7108   */\n    tag_132:\n        /* \"#utility.yul\":6976:7053   */\n      0x4e487b7100000000000000000000000000000000000000000000000000000000\n        /* \"#utility.yul\":6973:6974   */\n      0x00\n        /* \"#utility.yul\":6966:7054   */\n      mstore\n        /* \"#utility.yul\":7073:7077   */\n      0x41\n        /* \"#utility.yul\":7070:7071   */\n      0x04\n        /* \"#utility.yul\":7063:7078   */\n      mstore\n        /* \"#utility.yul\":7097:7101   */\n      0x24\n        /* \"#utility.yul\":7094:7095   */\n      0x00\n        /* \"#utility.yul\":7087:7102   */\n      revert\n        /* \"#utility.yul\":7114:7231   */\n    tag_65:\n        /* \"#utility.yul\":7223:7224   */\n      0x00\n        /* \"#utility.yul\":7220:7221   */\n      dup1\n        /* \"#utility.yul\":7213:7225   */\n      revert\n        /* \"#utility.yul\":7237:7354   */\n    tag_54:\n        /* \"#utility.yul\":7346:7347   */\n      0x00\n        /* \"#utility.yul\":7343:7344   */\n      dup1\n        /* \"#utility.yul\":7336:7348   */\n      revert\n        /* \"#utility.yul\":7360:7477   */\n    tag_80:\n        /* \"#utility.yul\":7469:7470   */\n      0x00\n        /* \"#utility.yul\":7466:7467   */\n      dup1\n        /* \"#utility.yul\":7459:7471   */\n      revert\n        /* \"#utility.yul\":7483:7600   */\n    tag_74:\n        /* \"#utility.yul\":7592:7593   */\n      0x00\n        /* \"#utility.yul\":7589:7590   */\n      dup1\n        /* \"#utility.yul\":7582:7594   */\n      revert\n        /* \"#utility.yul\":7606:7708   */\n    tag_134:\n        /* \"#utility.yul\":7647:7653   */\n      0x00\n        /* \"#utility.yul\":7698:7700   */\n      0x1f\n        /* \"#utility.yul\":7694:7701   */\n      not\n        /* \"#utility.yul\":7689:7691   */\n      0x1f\n        /* \"#utility.yul\":7682:7687   */\n      dup4\n        /* \"#utility.yul\":7678:7692   */\n      add\n        /* \"#utility.yul\":7674:7702   */\n      and\n        /* \"#utility.yul\":7664:7702   */\n      swap1\n      pop\n        /* \"#utility.yul\":7606:7708   */\n      swap2\n      swap1\n      pop\n      jump\t// out\n        /* \"#utility.yul\":7714:7836   */\n    tag_60:\n        /* \"#utility.yul\":7787:7811   */\n      tag_165\n        /* \"#utility.yul\":7805:7810   */\n      dup2\n        /* \"#utility.yul\":7787:7811   */\n      tag_89\n      jump\t// in\n    tag_165:\n        /* \"#utility.yul\":7780:7785   */\n      dup2\n        /* \"#utility.yul\":7777:7812   */\n      eq\n        /* \"#utility.yul\":7767:7830   */\n      tag_166\n      jumpi\n        /* \"#utility.yul\":7826:7827   */\n      0x00\n        /* \"#utility.yul\":7823:7824   */\n      dup1\n        /* \"#utility.yul\":7816:7828   */\n      revert\n        /* \"#utility.yul\":7767:7830   */\n    tag_166:\n        /* \"#utility.yul\":7714:7836   */\n      pop\n      jump\t// out\n        /* \"#utility.yul\":7842:7964   */\n    tag_70:\n        /* \"#utility.yul\":7915:7939   */\n      tag_168\n        /* \"#utility.yul\":7933:7938   */\n      dup2\n        /* \"#utility.yul\":7915:7939   */\n      tag_109\n      jump\t// in\n    tag_168:\n        /* \"#utility.yul\":7908:7913   */\n      dup2\n        /* \"#utility.yul\":7905:7940   */\n      eq\n        /* \"#utility.yul\":7895:7958   */\n      tag_169\n      jumpi\n        /* \"#utility.yul\":7954:7955   */\n      0x00\n        /* \"#utility.yul\":7951:7952   */\n      dup1\n        /* \"#utility.yul\":7944:7956   */\n      revert\n        /* \"#utility.yul\":7895:7958   */\n    tag_169:\n        /* \"#utility.yul\":7842:7964   */\n      pop\n      jump\t// out\n\n    auxdata: 0xa2646970667358221220d33add33bc3bb439d43337dc992694710542592af2c316a15009e6fe75e94b5a64736f6c63430008070033\n}\n",
				"bytecode": {
					"linkReferences": {},
					"object": "608060405234801561001057600080fd5b50604051610a06380380610a068339818101604052810190610032919061015a565b600160008190555081600260006101000a81548173ffffffffffffffffffffffffffffffffffffffff021916908373ffffffffffffffffffffffffffffffffffffffff16021790555081600360006101000a81548173ffffffffffffffffffffffffffffffffffffffff021916908373ffffffffffffffffffffffffffffffffffffffff16021790555080600160006101000a81548173ffffffffffffffffffffffffffffffffffffffff021916908373ffffffffffffffffffffffffffffffffffffffff16021790555081600460006101000a81548173ffffffffffffffffffffffffffffffffffffffff021916908373ffffffffffffffffffffffffffffffffffffffff16021790555050506101e8565b600081519050610154816101d1565b92915050565b60008060408385031215610171576101706101cc565b5b600061017f85828601610145565b925050602061019085828601610145565b9150509250929050565b60006101a5826101ac565b9050919050565b600073ffffffffffffffffffffffffffffffffffffffff82169050919050565b600080fd5b6101da8161019a565b81146101e557600080fd5b50565b61080f806101f76000396000f3fe608060405234801561001057600080fd5b506004361061007d5760003560e01c806366bb863b1161005b57806366bb863b1461010157806380a540011461011f578063b8e33fb21461013d578063fead3d6e1461015b5761007d565b8063150b7a0214610082578063472343b9146100b2578063570ca735146100e3575b600080fd5b61009c60048036038101906100979190610445565b610179565b6040516100a99190610593565b60405180910390f35b6100cc60048036038101906100c791906104c8565b610299565b6040516100da92919061056a565b60405180910390f35b6100eb6102ed565b6040516100f8919061054f565b60405180910390f35b610109610313565b604051610116919061054f565b60405180910390f35b610127610339565b60405161013491906105ae565b60405180910390f35b61014561035f565b60405161015291906105c9565b60405180910390f35b610163610385565b60405161017091906105e4565b60405180910390f35b6000600460009054906101000a900473ffffffffffffffffffffffffffffffffffffffff1673ffffffffffffffffffffffffffffffffffffffff168473ffffffffffffffffffffffffffffffffffffffff16141561022457846005600085815260200190815260200160002060006101000a81548173ffffffffffffffffffffffffffffffffffffffff021916908373ffffffffffffffffffffffffffffffffffffffff1602179055505b600760009054906101000a900473ffffffffffffffffffffffffffffffffffffffff16600760006101000a81548173ffffffffffffffffffffffffffffffffffffffff021916908373ffffffffffffffffffffffffffffffffffffffff16021790555063150b7a0260e01b9050949350505050565b6000806005600084815260200190815260200160002060009054906101000a900473ffffffffffffffffffffffffffffffffffffffff16600660008581526020019081526020016000205491509150915091565b600760009054906101000a900473ffffffffffffffffffffffffffffffffffffffff1681565b600460009054906101000a900473ffffffffffffffffffffffffffffffffffffffff1681565b600160009054906101000a900473ffffffffffffffffffffffffffffffffffffffff1681565b600260009054906101000a900473ffffffffffffffffffffffffffffffffffffffff1681565b600360009054906101000a900473ffffffffffffffffffffffffffffffffffffffff1681565b60006103be6103b984610624565b6105ff565b9050828152602081018484840111156103da576103d961078b565b5b6103e5848285610717565b509392505050565b6000813590506103fc816107ab565b92915050565b600082601f83011261041757610416610786565b5b81356104278482602086016103ab565b91505092915050565b60008135905061043f816107c2565b92915050565b6000806000806080858703121561045f5761045e610795565b5b600061046d878288016103ed565b945050602061047e878288016103ed565b935050604061048f87828801610430565b925050606085013567ffffffffffffffff8111156104b0576104af610790565b5b6104bc87828801610402565b91505092959194509250565b6000602082840312156104de576104dd610795565b5b60006104ec84828501610430565b91505092915050565b6104fe81610655565b82525050565b61050d81610667565b82525050565b61051c816106bd565b82525050565b61052b816106cf565b82525050565b61053a816106e1565b82525050565b610549816106b3565b82525050565b600060208201905061056460008301846104f5565b92915050565b600060408201905061057f60008301856104f5565b61058c6020830184610540565b9392505050565b60006020820190506105a86000830184610504565b92915050565b60006020820190506105c36000830184610513565b92915050565b60006020820190506105de6000830184610522565b92915050565b60006020820190506105f96000830184610531565b92915050565b600061060961061a565b90506106158282610726565b919050565b6000604051905090565b600067ffffffffffffffff82111561063f5761063e610757565b5b6106488261079a565b9050602081019050919050565b600061066082610693565b9050919050565b60007fffffffff0000000000000000000000000000000000000000000000000000000082169050919050565b600073ffffffffffffffffffffffffffffffffffffffff82169050919050565b6000819050919050565b60006106c8826106f3565b9050919050565b60006106da826106f3565b9050919050565b60006106ec826106f3565b9050919050565b60006106fe82610705565b9050919050565b600061071082610693565b9050919050565b82818337600083830152505050565b61072f8261079a565b810181811067ffffffffffffffff8211171561074e5761074d610757565b5b80604052505050565b7f4e487b7100000000000000000000000000000000000000000000000000000000600052604160045260246000fd5b600080fd5b600080fd5b600080fd5b600080fd5b6000601f19601f8301169050919050565b6107b481610655565b81146107bf57600080fd5b50565b6107cb816106b3565b81146107d657600080fd5b5056fea2646970667358221220d33add33bc3bb439d43337dc992694710542592af2c316a15009e6fe75e94b5a64736f6c63430008070033",
					"opcodes": "PUSH1 0x80 PUSH1 0x40 MSTORE CALLVALUE DUP1 ISZERO PUSH2 0x10 JUMPI PUSH1 0x0 DUP1 REVERT JUMPDEST POP PUSH1 0x40 MLOAD PUSH2 0xA06 CODESIZE SUB DUP1 PUSH2 0xA06 DUP4 CODECOPY DUP2 DUP2 ADD PUSH1 0x40 MSTORE DUP2 ADD SWAP1 PUSH2 0x32 SWAP2 SWAP1 PUSH2 0x15A JUMP JUMPDEST PUSH1 0x1 PUSH1 0x0 DUP2 SWAP1 SSTORE POP DUP2 PUSH1 0x2 PUSH1 0x0 PUSH2 0x100 EXP DUP2 SLOAD DUP2 PUSH20 0xFFFFFFFFFFFFFFFFFFFFFFFFFFFFFFFFFFFFFFFF MUL NOT AND SWAP1 DUP4 PUSH20 0xFFFFFFFFFFFFFFFFFFFFFFFFFFFFFFFFFFFFFFFF AND MUL OR SWAP1 SSTORE POP DUP2 PUSH1 0x3 PUSH1 0x0 PUSH2 0x100 EXP DUP2 SLOAD DUP2 PUSH20 0xFFFFFFFFFFFFFFFFFFFFFFFFFFFFFFFFFFFFFFFF MUL NOT AND SWAP1 DUP4 PUSH20 0xFFFFFFFFFFFFFFFFFFFFFFFFFFFFFFFFFFFFFFFF AND MUL OR SWAP1 SSTORE POP DUP1 PUSH1 0x1 PUSH1 0x0 PUSH2 0x100 EXP DUP2 SLOAD DUP2 PUSH20 0xFFFFFFFFFFFFFFFFFFFFFFFFFFFFFFFFFFFFFFFF MUL NOT AND SWAP1 DUP4 PUSH20 0xFFFFFFFFFFFFFFFFFFFFFFFFFFFFFFFFFFFFFFFF AND MUL OR SWAP1 SSTORE POP DUP2 PUSH1 0x4 PUSH1 0x0 PUSH2 0x100 EXP DUP2 SLOAD DUP2 PUSH20 0xFFFFFFFFFFFFFFFFFFFFFFFFFFFFFFFFFFFFFFFF MUL NOT AND SWAP1 DUP4 PUSH20 0xFFFFFFFFFFFFFFFFFFFFFFFFFFFFFFFFFFFFFFFF AND MUL OR SWAP1 SSTORE POP POP POP PUSH2 0x1E8 JUMP JUMPDEST PUSH1 0x0 DUP2 MLOAD SWAP1 POP PUSH2 0x154 DUP2 PUSH2 0x1D1 JUMP JUMPDEST SWAP3 SWAP2 POP POP JUMP JUMPDEST PUSH1 0x0 DUP1 PUSH1 0x40 DUP4 DUP6 SUB SLT ISZERO PUSH2 0x171 JUMPI PUSH2 0x170 PUSH2 0x1CC JUMP JUMPDEST JUMPDEST PUSH1 0x0 PUSH2 0x17F DUP6 DUP3 DUP7 ADD PUSH2 0x145 JUMP JUMPDEST SWAP3 POP POP PUSH1 0x20 PUSH2 0x190 DUP6 DUP3 DUP7 ADD PUSH2 0x145 JUMP JUMPDEST SWAP2 POP POP SWAP3 POP SWAP3 SWAP1 POP JUMP JUMPDEST PUSH1 0x0 PUSH2 0x1A5 DUP3 PUSH2 0x1AC JUMP JUMPDEST SWAP1 POP SWAP2 SWAP1 POP JUMP JUMPDEST PUSH1 0x0 PUSH20 0xFFFFFFFFFFFFFFFFFFFFFFFFFFFFFFFFFFFFFFFF DUP3 AND SWAP1 POP SWAP2 SWAP1 POP JUMP JUMPDEST PUSH1 0x0 DUP1 REVERT JUMPDEST PUSH2 0x1DA DUP2 PUSH2 0x19A JUMP JUMPDEST DUP2 EQ PUSH2 0x1E5 JUMPI PUSH1 0x0 DUP1 REVERT JUMPDEST POP JUMP JUMPDEST PUSH2 0x80F DUP1 PUSH2 0x1F7 PUSH1 0x0 CODECOPY PUSH1 0x0 RETURN INVALID PUSH1 0x80 PUSH1 0x40 MSTORE CALLVALUE DUP1 ISZERO PUSH2 0x10 JUMPI PUSH1 0x0 DUP1 REVERT JUMPDEST POP PUSH1 0x4 CALLDATASIZE LT PUSH2 0x7D JUMPI PUSH1 0x0 CALLDATALOAD PUSH1 0xE0 SHR DUP1 PUSH4 0x66BB863B GT PUSH2 0x5B JUMPI DUP1 PUSH4 0x66BB863B EQ PUSH2 0x101 JUMPI DUP1 PUSH4 0x80A54001 EQ PUSH2 0x11F JUMPI DUP1 PUSH4 0xB8E33FB2 EQ PUSH2 0x13D JUMPI DUP1 PUSH4 0xFEAD3D6E EQ PUSH2 0x15B JUMPI PUSH2 0x7D JUMP JUMPDEST DUP1 PUSH4 0x150B7A02 EQ PUSH2 0x82 JUMPI DUP1 PUSH4 0x472343B9 EQ PUSH2 0xB2 JUMPI DUP1 PUSH4 0x570CA735 EQ PUSH2 0xE3 JUMPI JUMPDEST PUSH1 0x0 DUP1 REVERT JUMPDEST PUSH2 0x9C PUSH1 0x4 DUP1 CALLDATASIZE SUB DUP2 ADD SWAP1 PUSH2 0x97 SWAP2 SWAP1 PUSH2 0x445 JUMP JUMPDEST PUSH2 0x179 JUMP JUMPDEST PUSH1 0x40 MLOAD PUSH2 0xA9 SWAP2 SWAP1 PUSH2 0x593 JUMP JUMPDEST PUSH1 0x40 MLOAD DUP1 SWAP2 SUB SWAP1 RETURN JUMPDEST PUSH2 0xCC PUSH1 0x4 DUP1 CALLDATASIZE SUB DUP2 ADD SWAP1 PUSH2 0xC7 SWAP2 SWAP1 PUSH2 0x4C8 JUMP JUMPDEST PUSH2 0x299 JUMP JUMPDEST PUSH1 0x40 MLOAD PUSH2 0xDA SWAP3 SWAP2 SWAP1 PUSH2 0x56A JUMP JUMPDEST PUSH1 0x40 MLOAD DUP1 SWAP2 SUB SWAP1 RETURN JUMPDEST PUSH2 0xEB PUSH2 0x2ED JUMP JUMPDEST PUSH1 0x40 MLOAD PUSH2 0xF8 SWAP2 SWAP1 PUSH2 0x54F JUMP JUMPDEST PUSH1 0x40 MLOAD DUP1 SWAP2 SUB SWAP1 RETURN JUMPDEST PUSH2 0x109 PUSH2 0x313 JUMP JUMPDEST PUSH1 0x40 MLOAD PUSH2 0x116 SWAP2 SWAP1 PUSH2 0x54F JUMP JUMPDEST PUSH1 0x40 MLOAD DUP1 SWAP2 SUB SWAP1 RETURN JUMPDEST PUSH2 0x127 PUSH2 0x339 JUMP JUMPDEST PUSH1 0x40 MLOAD PUSH2 0x134 SWAP2 SWAP1 PUSH2 0x5AE JUMP JUMPDEST PUSH1 0x40 MLOAD DUP1 SWAP2 SUB SWAP1 RETURN JUMPDEST PUSH2 0x145 PUSH2 0x35F JUMP JUMPDEST PUSH1 0x40 MLOAD PUSH2 0x152 SWAP2 SWAP1 PUSH2 0x5C9 JUMP JUMPDEST PUSH1 0x40 MLOAD DUP1 SWAP2 SUB SWAP1 RETURN JUMPDEST PUSH2 0x163 PUSH2 0x385 JUMP JUMPDEST PUSH1 0x40 MLOAD PUSH2 0x170 SWAP2 SWAP1 PUSH2 0x5E4 JUMP JUMPDEST PUSH1 0x40 MLOAD DUP1 SWAP2 SUB SWAP1 RETURN JUMPDEST PUSH1 0x0 PUSH1 0x4 PUSH1 0x0 SWAP1 SLOAD SWAP1 PUSH2 0x100 EXP SWAP1 DIV PUSH20 0xFFFFFFFFFFFFFFFFFFFFFFFFFFFFFFFFFFFFFFFF AND PUSH20 0xFFFFFFFFFFFFFFFFFFFFFFFFFFFFFFFFFFFFFFFF AND DUP5 PUSH20 0xFFFFFFFFFFFFFFFFFFFFFFFFFFFFFFFFFFFFFFFF AND EQ ISZERO PUSH2 0x224 JUMPI DUP5 PUSH1 0x5 PUSH1 0x0 DUP6 DUP2 MSTORE PUSH1 0x20 ADD SWAP1 DUP2 MSTORE PUSH1 0x20 ADD PUSH1 0x0 KECCAK256 PUSH1 0x0 PUSH2 0x100 EXP DUP2 SLOAD DUP2 PUSH20 0xFFFFFFFFFFFFFFFFFFFFFFFFFFFFFFFFFFFFFFFF MUL NOT AND SWAP1 DUP4 PUSH20 0xFFFFFFFFFFFFFFFFFFFFFFFFFFFFFFFFFFFFFFFF AND MUL OR SWAP1 SSTORE POP JUMPDEST PUSH1 0x7 PUSH1 0x0 SWAP1 SLOAD SWAP1 PUSH2 0x100 EXP SWAP1 DIV PUSH20 0xFFFFFFFFFFFFFFFFFFFFFFFFFFFFFFFFFFFFFFFF AND PUSH1 0x7 PUSH1 0x0 PUSH2 0x100 EXP DUP2 SLOAD DUP2 PUSH20 0xFFFFFFFFFFFFFFFFFFFFFFFFFFFFFFFFFFFFFFFF MUL NOT AND SWAP1 DUP4 PUSH20 0xFFFFFFFFFFFFFFFFFFFFFFFFFFFFFFFFFFFFFFFF AND MUL OR SWAP1 SSTORE POP PUSH4 0x150B7A02 PUSH1 0xE0 SHL SWAP1 POP SWAP5 SWAP4 POP POP POP POP JUMP JUMPDEST PUSH1 0x0 DUP1 PUSH1 0x5 PUSH1 0x0 DUP5 DUP2 MSTORE PUSH1 0x20 ADD SWAP1 DUP2 MSTORE PUSH1 0x20 ADD PUSH1 0x0 KECCAK256 PUSH1 0x0 SWAP1 SLOAD SWAP1 PUSH2 0x100 EXP SWAP1 DIV PUSH20 0xFFFFFFFFFFFFFFFFFFFFFFFFFFFFFFFFFFFFFFFF AND PUSH1 0x6 PUSH1 0x0 DUP6 DUP2 MSTORE PUSH1 0x20 ADD SWAP1 DUP2 MSTORE PUSH1 0x20 ADD PUSH1 0x0 KECCAK256 SLOAD SWAP2 POP SWAP2 POP SWAP2 POP SWAP2 JUMP JUMPDEST PUSH1 0x7 PUSH1 0x0 SWAP1 SLOAD SWAP1 PUSH2 0x100 EXP SWAP1 DIV PUSH20 0xFFFFFFFFFFFFFFFFFFFFFFFFFFFFFFFFFFFFFFFF AND DUP2 JUMP JUMPDEST PUSH1 0x4 PUSH1 0x0 SWAP1 SLOAD SWAP1 PUSH2 0x100 EXP SWAP1 DIV PUSH20 0xFFFFFFFFFFFFFFFFFFFFFFFFFFFFFFFFFFFFFFFF AND DUP2 JUMP JUMPDEST PUSH1 0x1 PUSH1 0x0 SWAP1 SLOAD SWAP1 PUSH2 0x100 EXP SWAP1 DIV PUSH20 0xFFFFFFFFFFFFFFFFFFFFFFFFFFFFFFFFFFFFFFFF AND DUP2 JUMP JUMPDEST PUSH1 0x2 PUSH1 0x0 SWAP1 SLOAD SWAP1 PUSH2 0x100 EXP SWAP1 DIV PUSH20 0xFFFFFFFFFFFFFFFFFFFFFFFFFFFFFFFFFFFFFFFF AND DUP2 JUMP JUMPDEST PUSH1 0x3 PUSH1 0x0 SWAP1 SLOAD SWAP1 PUSH2 0x100 EXP SWAP1 DIV PUSH20 0xFFFFFFFFFFFFFFFFFFFFFFFFFFFFFFFFFFFFFFFF AND DUP2 JUMP JUMPDEST PUSH1 0x0 PUSH2 0x3BE PUSH2 0x3B9 DUP5 PUSH2 0x624 JUMP JUMPDEST PUSH2 0x5FF JUMP JUMPDEST SWAP1 POP DUP3 DUP2 MSTORE PUSH1 0x20 DUP2 ADD DUP5 DUP5 DUP5 ADD GT ISZERO PUSH2 0x3DA JUMPI PUSH2 0x3D9 PUSH2 0x78B JUMP JUMPDEST JUMPDEST PUSH2 0x3E5 DUP5 DUP3 DUP6 PUSH2 0x717 JUMP JUMPDEST POP SWAP4 SWAP3 POP POP POP JUMP JUMPDEST PUSH1 0x0 DUP2 CALLDATALOAD SWAP1 POP PUSH2 0x3FC DUP2 PUSH2 0x7AB JUMP JUMPDEST SWAP3 SWAP2 POP POP JUMP JUMPDEST PUSH1 0x0 DUP3 PUSH1 0x1F DUP4 ADD SLT PUSH2 0x417 JUMPI PUSH2 0x416 PUSH2 0x786 JUMP JUMPDEST JUMPDEST DUP2 CALLDATALOAD PUSH2 0x427 DUP5 DUP3 PUSH1 0x20 DUP7 ADD PUSH2 0x3AB JUMP JUMPDEST SWAP2 POP POP SWAP3 SWAP2 POP POP JUMP JUMPDEST PUSH1 0x0 DUP2 CALLDATALOAD SWAP1 POP PUSH2 0x43F DUP2 PUSH2 0x7C2 JUMP JUMPDEST SWAP3 SWAP2 POP POP JUMP JUMPDEST PUSH1 0x0 DUP1 PUSH1 0x0 DUP1 PUSH1 0x80 DUP6 DUP8 SUB SLT ISZERO PUSH2 0x45F JUMPI PUSH2 0x45E PUSH2 0x795 JUMP JUMPDEST JUMPDEST PUSH1 0x0 PUSH2 0x46D DUP8 DUP3 DUP9 ADD PUSH2 0x3ED JUMP JUMPDEST SWAP5 POP POP PUSH1 0x20 PUSH2 0x47E DUP8 DUP3 DUP9 ADD PUSH2 0x3ED JUMP JUMPDEST SWAP4 POP POP PUSH1 0x40 PUSH2 0x48F DUP8 DUP3 DUP9 ADD PUSH2 0x430 JUMP JUMPDEST SWAP3 POP POP PUSH1 0x60 DUP6 ADD CALLDATALOAD PUSH8 0xFFFFFFFFFFFFFFFF DUP2 GT ISZERO PUSH2 0x4B0 JUMPI PUSH2 0x4AF PUSH2 0x790 JUMP JUMPDEST JUMPDEST PUSH2 0x4BC DUP8 DUP3 DUP9 ADD PUSH2 0x402 JUMP JUMPDEST SWAP2 POP POP SWAP3 SWAP6 SWAP2 SWAP5 POP SWAP3 POP JUMP JUMPDEST PUSH1 0x0 PUSH1 0x20 DUP3 DUP5 SUB SLT ISZERO PUSH2 0x4DE JUMPI PUSH2 0x4DD PUSH2 0x795 JUMP JUMPDEST JUMPDEST PUSH1 0x0 PUSH2 0x4EC DUP5 DUP3 DUP6 ADD PUSH2 0x430 JUMP JUMPDEST SWAP2 POP POP SWAP3 SWAP2 POP POP JUMP JUMPDEST PUSH2 0x4FE DUP2 PUSH2 0x655 JUMP JUMPDEST DUP3 MSTORE POP POP JUMP JUMPDEST PUSH2 0x50D DUP2 PUSH2 0x667 JUMP JUMPDEST DUP3 MSTORE POP POP JUMP JUMPDEST PUSH2 0x51C DUP2 PUSH2 0x6BD JUMP JUMPDEST DUP3 MSTORE POP POP JUMP JUMPDEST PUSH2 0x52B DUP2 PUSH2 0x6CF JUMP JUMPDEST DUP3 MSTORE POP POP JUMP JUMPDEST PUSH2 0x53A DUP2 PUSH2 0x6E1 JUMP JUMPDEST DUP3 MSTORE POP POP JUMP JUMPDEST PUSH2 0x549 DUP2 PUSH2 0x6B3 JUMP JUMPDEST DUP3 MSTORE POP POP JUMP JUMPDEST PUSH1 0x0 PUSH1 0x20 DUP3 ADD SWAP1 POP PUSH2 0x564 PUSH1 0x0 DUP4 ADD DUP5 PUSH2 0x4F5 JUMP JUMPDEST SWAP3 SWAP2 POP POP JUMP JUMPDEST PUSH1 0x0 PUSH1 0x40 DUP3 ADD SWAP1 POP PUSH2 0x57F PUSH1 0x0 DUP4 ADD DUP6 PUSH2 0x4F5 JUMP JUMPDEST PUSH2 0x58C PUSH1 0x20 DUP4 ADD DUP5 PUSH2 0x540 JUMP JUMPDEST SWAP4 SWAP3 POP POP POP JUMP JUMPDEST PUSH1 0x0 PUSH1 0x20 DUP3 ADD SWAP1 POP PUSH2 0x5A8 PUSH1 0x0 DUP4 ADD DUP5 PUSH2 0x504 JUMP JUMPDEST SWAP3 SWAP2 POP POP JUMP JUMPDEST PUSH1 0x0 PUSH1 0x20 DUP3 ADD SWAP1 POP PUSH2 0x5C3 PUSH1 0x0 DUP4 ADD DUP5 PUSH2 0x513 JUMP JUMPDEST SWAP3 SWAP2 POP POP JUMP JUMPDEST PUSH1 0x0 PUSH1 0x20 DUP3 ADD SWAP1 POP PUSH2 0x5DE PUSH1 0x0 DUP4 ADD DUP5 PUSH2 0x522 JUMP JUMPDEST SWAP3 SWAP2 POP POP JUMP JUMPDEST PUSH1 0x0 PUSH1 0x20 DUP3 ADD SWAP1 POP PUSH2 0x5F9 PUSH1 0x0 DUP4 ADD DUP5 PUSH2 0x531 JUMP JUMPDEST SWAP3 SWAP2 POP POP JUMP JUMPDEST PUSH1 0x0 PUSH2 0x609 PUSH2 0x61A JUMP JUMPDEST SWAP1 POP PUSH2 0x615 DUP3 DUP3 PUSH2 0x726 JUMP JUMPDEST SWAP2 SWAP1 POP JUMP JUMPDEST PUSH1 0x0 PUSH1 0x40 MLOAD SWAP1 POP SWAP1 JUMP JUMPDEST PUSH1 0x0 PUSH8 0xFFFFFFFFFFFFFFFF DUP3 GT ISZERO PUSH2 0x63F JUMPI PUSH2 0x63E PUSH2 0x757 JUMP JUMPDEST JUMPDEST PUSH2 0x648 DUP3 PUSH2 0x79A JUMP JUMPDEST SWAP1 POP PUSH1 0x20 DUP2 ADD SWAP1 POP SWAP2 SWAP1 POP JUMP JUMPDEST PUSH1 0x0 PUSH2 0x660 DUP3 PUSH2 0x693 JUMP JUMPDEST SWAP1 POP SWAP2 SWAP1 POP JUMP JUMPDEST PUSH1 0x0 PUSH32 0xFFFFFFFF00000000000000000000000000000000000000000000000000000000 DUP3 AND SWAP1 POP SWAP2 SWAP1 POP JUMP JUMPDEST PUSH1 0x0 PUSH20 0xFFFFFFFFFFFFFFFFFFFFFFFFFFFFFFFFFFFFFFFF DUP3 AND SWAP1 POP SWAP2 SWAP1 POP JUMP JUMPDEST PUSH1 0x0 DUP2 SWAP1 POP SWAP2 SWAP1 POP JUMP JUMPDEST PUSH1 0x0 PUSH2 0x6C8 DUP3 PUSH2 0x6F3 JUMP JUMPDEST SWAP1 POP SWAP2 SWAP1 POP JUMP JUMPDEST PUSH1 0x0 PUSH2 0x6DA DUP3 PUSH2 0x6F3 JUMP JUMPDEST SWAP1 POP SWAP2 SWAP1 POP JUMP JUMPDEST PUSH1 0x0 PUSH2 0x6EC DUP3 PUSH2 0x6F3 JUMP JUMPDEST SWAP1 POP SWAP2 SWAP1 POP JUMP JUMPDEST PUSH1 0x0 PUSH2 0x6FE DUP3 PUSH2 0x705 JUMP JUMPDEST SWAP1 POP SWAP2 SWAP1 POP JUMP JUMPDEST PUSH1 0x0 PUSH2 0x710 DUP3 PUSH2 0x693 JUMP JUMPDEST SWAP1 POP SWAP2 SWAP1 POP JUMP JUMPDEST DUP3 DUP2 DUP4 CALLDATACOPY PUSH1 0x0 DUP4 DUP4 ADD MSTORE POP POP POP JUMP JUMPDEST PUSH2 0x72F DUP3 PUSH2 0x79A JUMP JUMPDEST DUP2 ADD DUP2 DUP2 LT PUSH8 0xFFFFFFFFFFFFFFFF DUP3 GT OR ISZERO PUSH2 0x74E JUMPI PUSH2 0x74D PUSH2 0x757 JUMP JUMPDEST JUMPDEST DUP1 PUSH1 0x40 MSTORE POP POP POP JUMP JUMPDEST PUSH32 0x4E487B7100000000000000000000000000000000000000000000000000000000 PUSH1 0x0 MSTORE PUSH1 0x41 PUSH1 0x4 MSTORE PUSH1 0x24 PUSH1 0x0 REVERT JUMPDEST PUSH1 0x0 DUP1 REVERT JUMPDEST PUSH1 0x0 DUP1 REVERT JUMPDEST PUSH1 0x0 DUP1 REVERT JUMPDEST PUSH1 0x0 DUP1 REVERT JUMPDEST PUSH1 0x0 PUSH1 0x1F NOT PUSH1 0x1F DUP4 ADD AND SWAP1 POP SWAP2 SWAP1 POP JUMP JUMPDEST PUSH2 0x7B4 DUP2 PUSH2 0x655 JUMP JUMPDEST DUP2 EQ PUSH2 0x7BF JUMPI PUSH1 0x0 DUP1 REVERT JUMPDEST POP JUMP JUMPDEST PUSH2 0x7CB DUP2 PUSH2 0x6B3 JUMP JUMPDEST DUP2 EQ PUSH2 0x7D6 JUMPI PUSH1 0x0 DUP1 REVERT JUMPDEST POP JUMP INVALID LOG2 PUSH5 0x6970667358 0x22 SLT KECCAK256 0xD3 GASPRICE 0xDD CALLER 0xBC EXTCODESIZE 0xB4 CODECOPY 0xD4 CALLER CALLDATACOPY 0xDC SWAP10 0x26 SWAP5 PUSH18 0x542592AF2C316A15009E6FE75E94B5A6473 PUSH16 0x6C634300080700330000000000000000 "
				},
				"gasEstimates": {
					"creation": {
						"codeDepositCost": "412600",
						"executionCost": "infinite",
						"totalCost": "infinite"
					},
					"external": {
						"getStakes(uint256)": "infinite",
						"onERC721Received(address,address,uint256,bytes)": "infinite",
						"operator()": "2559",
						"parentNFT()": "2644",
						"parentNFTAddress()": "2514",
						"parentNftFunctions()": "2666",
						"parentToken()": "2622"
					}
				},
				"methodIdentifiers": {
					"getStakes(uint256)": "472343b9",
					"onERC721Received(address,address,uint256,bytes)": "150b7a02",
					"operator()": "570ca735",
					"parentNFT()": "b8e33fb2",
					"parentNFTAddress()": "66bb863b",
					"parentNftFunctions()": "fead3d6e",
					"parentToken()": "80a54001"
				}
			},
			"storageLayout": {
				"storage": [
					{
						"astId": 10,
						"contract": "contracts/Missions.sol:Staking",
						"label": "_status",
						"offset": 0,
						"slot": "0",
						"type": "t_uint256"
					},
					{
						"astId": 263,
						"contract": "contracts/Missions.sol:Staking",
						"label": "parentToken",
						"offset": 0,
						"slot": "1",
						"type": "t_contract(IERC20)117"
					},
					{
						"astId": 266,
						"contract": "contracts/Missions.sol:Staking",
						"label": "parentNFT",
						"offset": 0,
						"slot": "2",
						"type": "t_contract(IERC721)233"
					},
					{
						"astId": 269,
						"contract": "contracts/Missions.sol:Staking",
						"label": "parentNftFunctions",
						"offset": 0,
						"slot": "3",
						"type": "t_contract(INFTGame)258"
					},
					{
						"astId": 271,
						"contract": "contracts/Missions.sol:Staking",
						"label": "parentNFTAddress",
						"offset": 0,
						"slot": "4",
						"type": "t_address"
					},
					{
						"astId": 305,
						"contract": "contracts/Missions.sol:Staking",
						"label": "s_stakers",
						"offset": 0,
						"slot": "5",
						"type": "t_mapping(t_uint256,t_address)"
					},
					{
						"astId": 309,
						"contract": "contracts/Missions.sol:Staking",
						"label": "s_missionTimers",
						"offset": 0,
						"slot": "6",
						"type": "t_mapping(t_uint256,t_uint256)"
					},
					{
						"astId": 329,
						"contract": "contracts/Missions.sol:Staking",
						"label": "operator",
						"offset": 0,
						"slot": "7",
						"type": "t_address"
					}
				],
				"types": {
					"t_address": {
						"encoding": "inplace",
						"label": "address",
						"numberOfBytes": "20"
					},
					"t_contract(IERC20)117": {
						"encoding": "inplace",
						"label": "contract IERC20",
						"numberOfBytes": "20"
					},
					"t_contract(IERC721)233": {
						"encoding": "inplace",
						"label": "contract IERC721",
						"numberOfBytes": "20"
					},
					"t_contract(INFTGame)258": {
						"encoding": "inplace",
						"label": "contract INFTGame",
						"numberOfBytes": "20"
					},
					"t_mapping(t_uint256,t_address)": {
						"encoding": "mapping",
						"key": "t_uint256",
						"label": "mapping(uint256 => address)",
						"numberOfBytes": "32",
						"value": "t_address"
					},
					"t_mapping(t_uint256,t_uint256)": {
						"encoding": "mapping",
						"key": "t_uint256",
						"label": "mapping(uint256 => uint256)",
						"numberOfBytes": "32",
						"value": "t_uint256"
					},
					"t_uint256": {
						"encoding": "inplace",
						"label": "uint256",
						"numberOfBytes": "32"
					}
				}
			},
			"userdoc": {
				"kind": "user",
				"methods": {},
				"version": 1
			}
		}
	}
}