{
	"contracts/Missions.sol": {
		"Staking": {
			"abi": [
				{
					"inputs": [
						{
							"internalType": "address",
							"name": "_nftContract",
							"type": "address"
						},
						{
							"internalType": "address",
							"name": "_tokenContract",
							"type": "address"
						}
					],
					"stateMutability": "nonpayable",
					"type": "constructor"
				},
				{
					"inputs": [
						{
							"internalType": "uint256",
							"name": "_tokenID",
							"type": "uint256"
						}
					],
					"name": "emergencyUnstake",
					"outputs": [
						{
							"internalType": "uint256",
							"name": "tokenID",
							"type": "uint256"
						},
						{
							"internalType": "address",
							"name": "to",
							"type": "address"
						},
						{
							"internalType": "uint256",
							"name": "amount",
							"type": "uint256"
						}
					],
					"stateMutability": "view",
					"type": "function"
				},
				{
					"inputs": [
						{
							"internalType": "uint256",
							"name": "_tokenID",
							"type": "uint256"
						}
					],
					"name": "getStakes",
					"outputs": [
						{
							"internalType": "address",
							"name": "add",
							"type": "address"
						},
						{
							"internalType": "uint256",
							"name": "time",
							"type": "uint256"
						}
					],
					"stateMutability": "view",
					"type": "function"
				},
				{
					"inputs": [
						{
							"internalType": "address",
							"name": "_operator",
							"type": "address"
						},
						{
							"internalType": "address",
							"name": "_sender",
							"type": "address"
						},
						{
							"internalType": "uint256",
							"name": "_tokenID",
							"type": "uint256"
						},
						{
							"internalType": "bytes",
							"name": "",
							"type": "bytes"
						}
					],
					"name": "onERC721Received",
					"outputs": [
						{
							"internalType": "bytes4",
							"name": "",
							"type": "bytes4"
						}
					],
					"stateMutability": "nonpayable",
					"type": "function"
				},
				{
					"inputs": [],
					"name": "parentNFT",
					"outputs": [
						{
							"internalType": "contract IERC721",
							"name": "",
							"type": "address"
						}
					],
					"stateMutability": "view",
					"type": "function"
				},
				{
					"inputs": [],
					"name": "parentNFTAddress",
					"outputs": [
						{
							"internalType": "address",
							"name": "",
							"type": "address"
						}
					],
					"stateMutability": "view",
					"type": "function"
				},
				{
					"inputs": [],
					"name": "parentNftFunctions",
					"outputs": [
						{
							"internalType": "contract INFTGame",
							"name": "",
							"type": "address"
						}
					],
					"stateMutability": "view",
					"type": "function"
				},
				{
					"inputs": [],
					"name": "parentToken",
					"outputs": [
						{
							"internalType": "contract IERC20",
							"name": "",
							"type": "address"
						}
					],
					"stateMutability": "view",
					"type": "function"
				},
				{
					"inputs": [
						{
							"internalType": "uint256",
							"name": "_tokenID",
							"type": "uint256"
						}
					],
					"name": "unstake",
					"outputs": [
						{
							"internalType": "uint256",
							"name": "tokenID",
							"type": "uint256"
						},
						{
							"internalType": "address",
							"name": "to",
							"type": "address"
						},
						{
							"internalType": "uint256",
							"name": "amount",
							"type": "uint256"
						}
					],
					"stateMutability": "view",
					"type": "function"
				}
			],
			"devdoc": {
				"kind": "dev",
				"methods": {},
				"version": 1
			},
			"evm": {
				"assembly": "    /* \"contracts/Missions.sol\":341:2172  contract Staking is ReentrancyGuard {\r... */\n  mstore(0x40, 0x80)\n    /* \"contracts/Missions.sol\":526:788  constructor(address _nftContract, address _tokenContract){\r... */\n  callvalue\n  dup1\n  iszero\n  tag_1\n  jumpi\n  0x00\n  dup1\n  revert\ntag_1:\n  pop\n  mload(0x40)\n  sub(codesize, bytecodeSize)\n  dup1\n  bytecodeSize\n  dup4\n  codecopy\n  dup2\n  dup2\n  add\n  0x40\n  mstore\n  dup2\n  add\n  swap1\n  tag_2\n  swap2\n  swap1\n  tag_3\n  jump\t// in\ntag_2:\n    /* \"@openzeppelin/contracts/security/ReentrancyGuard.sol\":1701:1702  1 */\n  0x01\n    /* \"@openzeppelin/contracts/security/ReentrancyGuard.sol\":1806:1813  _status */\n  0x00\n    /* \"@openzeppelin/contracts/security/ReentrancyGuard.sol\":1806:1828  _status = _NOT_ENTERED */\n  dup2\n  swap1\n  sstore\n  pop\n    /* \"contracts/Missions.sol\":614:626  _nftContract */\n  dup2\n    /* \"contracts/Missions.sol\":594:603  parentNFT */\n  0x02\n  0x00\n    /* \"contracts/Missions.sol\":594:627  parentNFT = IERC721(_nftContract) */\n  0x0100\n  exp\n  dup2\n  sload\n  dup2\n  0xffffffffffffffffffffffffffffffffffffffff\n  mul\n  not\n  and\n  swap1\n  dup4\n  0xffffffffffffffffffffffffffffffffffffffff\n  and\n  mul\n  or\n  swap1\n  sstore\n  pop\n    /* \"contracts/Missions.sol\":668:680  _nftContract */\n  dup2\n    /* \"contracts/Missions.sol\":638:656  parentNftFunctions */\n  0x03\n  0x00\n    /* \"contracts/Missions.sol\":638:681  parentNftFunctions = INFTGame(_nftContract) */\n  0x0100\n  exp\n  dup2\n  sload\n  dup2\n  0xffffffffffffffffffffffffffffffffffffffff\n  mul\n  not\n  and\n  swap1\n  dup4\n  0xffffffffffffffffffffffffffffffffffffffff\n  and\n  mul\n  or\n  swap1\n  sstore\n  pop\n    /* \"contracts/Missions.sol\":713:727  _tokenContract */\n  dup1\n    /* \"contracts/Missions.sol\":692:703  parentToken */\n  0x01\n  0x00\n    /* \"contracts/Missions.sol\":692:728  parentToken = IERC20(_tokenContract) */\n  0x0100\n  exp\n  dup2\n  sload\n  dup2\n  0xffffffffffffffffffffffffffffffffffffffff\n  mul\n  not\n  and\n  swap1\n  dup4\n  0xffffffffffffffffffffffffffffffffffffffff\n  and\n  mul\n  or\n  swap1\n  sstore\n  pop\n    /* \"contracts/Missions.sol\":758:770  _nftContract */\n  dup2\n    /* \"contracts/Missions.sol\":739:755  parentNFTAddress */\n  0x04\n  0x00\n    /* \"contracts/Missions.sol\":739:770  parentNFTAddress = _nftContract */\n  0x0100\n  exp\n  dup2\n  sload\n  dup2\n  0xffffffffffffffffffffffffffffffffffffffff\n  mul\n  not\n  and\n  swap1\n  dup4\n  0xffffffffffffffffffffffffffffffffffffffff\n  and\n  mul\n  or\n  swap1\n  sstore\n  pop\n    /* \"contracts/Missions.sol\":526:788  constructor(address _nftContract, address _tokenContract){\r... */\n  pop\n  pop\n    /* \"contracts/Missions.sol\":341:2172  contract Staking is ReentrancyGuard {\r... */\n  jump(tag_8)\n    /* \"#utility.yul\":7:150   */\ntag_10:\n    /* \"#utility.yul\":64:69   */\n  0x00\n    /* \"#utility.yul\":95:101   */\n  dup2\n    /* \"#utility.yul\":89:102   */\n  mload\n    /* \"#utility.yul\":80:102   */\n  swap1\n  pop\n    /* \"#utility.yul\":111:144   */\n  tag_12\n    /* \"#utility.yul\":138:143   */\n  dup2\n    /* \"#utility.yul\":111:144   */\n  tag_13\n  jump\t// in\ntag_12:\n    /* \"#utility.yul\":7:150   */\n  swap3\n  swap2\n  pop\n  pop\n  jump\t// out\n    /* \"#utility.yul\":156:663   */\ntag_3:\n    /* \"#utility.yul\":235:241   */\n  0x00\n    /* \"#utility.yul\":243:249   */\n  dup1\n    /* \"#utility.yul\":292:294   */\n  0x40\n    /* \"#utility.yul\":280:289   */\n  dup4\n    /* \"#utility.yul\":271:278   */\n  dup6\n    /* \"#utility.yul\":267:290   */\n  sub\n    /* \"#utility.yul\":263:295   */\n  slt\n    /* \"#utility.yul\":260:379   */\n  iszero\n  tag_15\n  jumpi\n    /* \"#utility.yul\":298:377   */\n  tag_16\n  tag_17\n  jump\t// in\ntag_16:\n    /* \"#utility.yul\":260:379   */\ntag_15:\n    /* \"#utility.yul\":418:419   */\n  0x00\n    /* \"#utility.yul\":443:507   */\n  tag_18\n    /* \"#utility.yul\":499:506   */\n  dup6\n    /* \"#utility.yul\":490:496   */\n  dup3\n    /* \"#utility.yul\":479:488   */\n  dup7\n    /* \"#utility.yul\":475:497   */\n  add\n    /* \"#utility.yul\":443:507   */\n  tag_10\n  jump\t// in\ntag_18:\n    /* \"#utility.yul\":433:507   */\n  swap3\n  pop\n    /* \"#utility.yul\":389:517   */\n  pop\n    /* \"#utility.yul\":556:558   */\n  0x20\n    /* \"#utility.yul\":582:646   */\n  tag_19\n    /* \"#utility.yul\":638:645   */\n  dup6\n    /* \"#utility.yul\":629:635   */\n  dup3\n    /* \"#utility.yul\":618:627   */\n  dup7\n    /* \"#utility.yul\":614:636   */\n  add\n    /* \"#utility.yul\":582:646   */\n  tag_10\n  jump\t// in\ntag_19:\n    /* \"#utility.yul\":572:646   */\n  swap2\n  pop\n    /* \"#utility.yul\":527:656   */\n  pop\n    /* \"#utility.yul\":156:663   */\n  swap3\n  pop\n  swap3\n  swap1\n  pop\n  jump\t// out\n    /* \"#utility.yul\":750:846   */\ntag_22:\n    /* \"#utility.yul\":787:794   */\n  0x00\n    /* \"#utility.yul\":816:840   */\n  tag_24\n    /* \"#utility.yul\":834:839   */\n  dup3\n    /* \"#utility.yul\":816:840   */\n  tag_25\n  jump\t// in\ntag_24:\n    /* \"#utility.yul\":805:840   */\n  swap1\n  pop\n    /* \"#utility.yul\":750:846   */\n  swap2\n  swap1\n  pop\n  jump\t// out\n    /* \"#utility.yul\":852:978   */\ntag_25:\n    /* \"#utility.yul\":889:896   */\n  0x00\n    /* \"#utility.yul\":929:971   */\n  0xffffffffffffffffffffffffffffffffffffffff\n    /* \"#utility.yul\":922:927   */\n  dup3\n    /* \"#utility.yul\":918:972   */\n  and\n    /* \"#utility.yul\":907:972   */\n  swap1\n  pop\n    /* \"#utility.yul\":852:978   */\n  swap2\n  swap1\n  pop\n  jump\t// out\n    /* \"#utility.yul\":1107:1224   */\ntag_17:\n    /* \"#utility.yul\":1216:1217   */\n  0x00\n    /* \"#utility.yul\":1213:1214   */\n  dup1\n    /* \"#utility.yul\":1206:1218   */\n  revert\n    /* \"#utility.yul\":1230:1352   */\ntag_13:\n    /* \"#utility.yul\":1303:1327   */\n  tag_31\n    /* \"#utility.yul\":1321:1326   */\n  dup2\n    /* \"#utility.yul\":1303:1327   */\n  tag_22\n  jump\t// in\ntag_31:\n    /* \"#utility.yul\":1296:1301   */\n  dup2\n    /* \"#utility.yul\":1293:1328   */\n  eq\n    /* \"#utility.yul\":1283:1346   */\n  tag_32\n  jumpi\n    /* \"#utility.yul\":1342:1343   */\n  0x00\n    /* \"#utility.yul\":1339:1340   */\n  dup1\n    /* \"#utility.yul\":1332:1344   */\n  revert\n    /* \"#utility.yul\":1283:1346   */\ntag_32:\n    /* \"#utility.yul\":1230:1352   */\n  pop\n  jump\t// out\n    /* \"contracts/Missions.sol\":341:2172  contract Staking is ReentrancyGuard {\r... */\ntag_8:\n  dataSize(sub_0)\n  dup1\n  dataOffset(sub_0)\n  0x00\n  codecopy\n  0x00\n  return\nstop\n\nsub_0: assembly {\n        /* \"contracts/Missions.sol\":341:2172  contract Staking is ReentrancyGuard {\r... */\n      mstore(0x40, 0x80)\n      callvalue\n      dup1\n      iszero\n      tag_1\n      jumpi\n      0x00\n      dup1\n      revert\n    tag_1:\n      pop\n      jumpi(tag_2, lt(calldatasize, 0x04))\n      shr(0xe0, calldataload(0x00))\n      dup1\n      0x66bb863b\n      gt\n      tag_11\n      jumpi\n      dup1\n      0x66bb863b\n      eq\n      tag_7\n      jumpi\n      dup1\n      0x80a54001\n      eq\n      tag_8\n      jumpi\n      dup1\n      0xb8e33fb2\n      eq\n      tag_9\n      jumpi\n      dup1\n      0xfead3d6e\n      eq\n      tag_10\n      jumpi\n      jump(tag_2)\n    tag_11:\n      dup1\n      0x012ce501\n      eq\n      tag_3\n      jumpi\n      dup1\n      0x150b7a02\n      eq\n      tag_4\n      jumpi\n      dup1\n      0x2e17de78\n      eq\n      tag_5\n      jumpi\n      dup1\n      0x472343b9\n      eq\n      tag_6\n      jumpi\n    tag_2:\n      0x00\n      dup1\n      revert\n        /* \"contracts/Missions.sol\":1468:1751  function emergencyUnstake(uint256 _tokenID) public view returns (uint256 tokenID, address to, uint256 amount){\r... */\n    tag_3:\n      tag_12\n      0x04\n      dup1\n      calldatasize\n      sub\n      dup2\n      add\n      swap1\n      tag_13\n      swap2\n      swap1\n      tag_14\n      jump\t// in\n    tag_13:\n      tag_15\n      jump\t// in\n    tag_12:\n      mload(0x40)\n      tag_16\n      swap4\n      swap3\n      swap2\n      swap1\n      tag_17\n      jump\t// in\n    tag_16:\n      mload(0x40)\n      dup1\n      swap2\n      sub\n      swap1\n      return\n        /* \"contracts/Missions.sol\":1769:2132  function onERC721Received(address _operator, address _sender, uint256 _tokenID, bytes memory) public virtual returns (bytes4) {\r... */\n    tag_4:\n      tag_18\n      0x04\n      dup1\n      calldatasize\n      sub\n      dup2\n      add\n      swap1\n      tag_19\n      swap2\n      swap1\n      tag_20\n      jump\t// in\n    tag_19:\n      tag_21\n      jump\t// in\n    tag_18:\n      mload(0x40)\n      tag_22\n      swap2\n      swap1\n      tag_23\n      jump\t// in\n    tag_22:\n      mload(0x40)\n      dup1\n      swap2\n      sub\n      swap1\n      return\n        /* \"contracts/Missions.sol\":1065:1459  function unstake(uint256 _tokenID) public view returns (uint256 tokenID, address to, uint256 amount){\r... */\n    tag_5:\n      tag_24\n      0x04\n      dup1\n      calldatasize\n      sub\n      dup2\n      add\n      swap1\n      tag_25\n      swap2\n      swap1\n      tag_14\n      jump\t// in\n    tag_25:\n      tag_26\n      jump\t// in\n    tag_24:\n      mload(0x40)\n      tag_27\n      swap4\n      swap3\n      swap2\n      swap1\n      tag_17\n      jump\t// in\n    tag_27:\n      mload(0x40)\n      dup1\n      swap2\n      sub\n      swap1\n      return\n        /* \"contracts/Missions.sol\":895:1053  function getStakes(uint256 _tokenID) public view returns (address add, uint256 time){\r... */\n    tag_6:\n      tag_28\n      0x04\n      dup1\n      calldatasize\n      sub\n      dup2\n      add\n      swap1\n      tag_29\n      swap2\n      swap1\n      tag_14\n      jump\t// in\n    tag_29:\n      tag_30\n      jump\t// in\n    tag_28:\n      mload(0x40)\n      tag_31\n      swap3\n      swap2\n      swap1\n      tag_32\n      jump\t// in\n    tag_31:\n      mload(0x40)\n      dup1\n      swap2\n      sub\n      swap1\n      return\n        /* \"contracts/Missions.sol\":488:519  address public parentNFTAddress */\n    tag_7:\n      tag_33\n      tag_34\n      jump\t// in\n    tag_33:\n      mload(0x40)\n      tag_35\n      swap2\n      swap1\n      tag_36\n      jump\t// in\n    tag_35:\n      mload(0x40)\n      dup1\n      swap2\n      sub\n      swap1\n      return\n        /* \"contracts/Missions.sol\":384:409  IERC20 public parentToken */\n    tag_8:\n      tag_37\n      tag_38\n      jump\t// in\n    tag_37:\n      mload(0x40)\n      tag_39\n      swap2\n      swap1\n      tag_40\n      jump\t// in\n    tag_39:\n      mload(0x40)\n      dup1\n      swap2\n      sub\n      swap1\n      return\n        /* \"contracts/Missions.sol\":416:440  IERC721 public parentNFT */\n    tag_9:\n      tag_41\n      tag_42\n      jump\t// in\n    tag_41:\n      mload(0x40)\n      tag_43\n      swap2\n      swap1\n      tag_44\n      jump\t// in\n    tag_43:\n      mload(0x40)\n      dup1\n      swap2\n      sub\n      swap1\n      return\n        /* \"contracts/Missions.sol\":447:481  INFTGame public parentNftFunctions */\n    tag_10:\n      tag_45\n      tag_46\n      jump\t// in\n    tag_45:\n      mload(0x40)\n      tag_47\n      swap2\n      swap1\n      tag_48\n      jump\t// in\n    tag_47:\n      mload(0x40)\n      dup1\n      swap2\n      sub\n      swap1\n      return\n        /* \"contracts/Missions.sol\":1468:1751  function emergencyUnstake(uint256 _tokenID) public view returns (uint256 tokenID, address to, uint256 amount){\r... */\n    tag_15:\n        /* \"contracts/Missions.sol\":1533:1548  uint256 tokenID */\n      0x00\n        /* \"contracts/Missions.sol\":1550:1560  address to */\n      dup1\n        /* \"contracts/Missions.sol\":1562:1576  uint256 amount */\n      0x00\n        /* \"contracts/Missions.sol\":1610:1619  s_stakers */\n      0x05\n        /* \"contracts/Missions.sol\":1610:1629  s_stakers[_tokenID] */\n      0x00\n        /* \"contracts/Missions.sol\":1620:1628  _tokenID */\n      dup6\n        /* \"contracts/Missions.sol\":1610:1629  s_stakers[_tokenID] */\n      dup2\n      mstore\n      0x20\n      add\n      swap1\n      dup2\n      mstore\n      0x20\n      add\n      0x00\n      keccak256\n      0x00\n      swap1\n      sload\n      swap1\n      0x0100\n      exp\n      swap1\n      div\n      0xffffffffffffffffffffffffffffffffffffffff\n      and\n        /* \"contracts/Missions.sol\":1596:1629  msg.sender == s_stakers[_tokenID] */\n      0xffffffffffffffffffffffffffffffffffffffff\n      and\n        /* \"contracts/Missions.sol\":1596:1606  msg.sender */\n      caller\n        /* \"contracts/Missions.sol\":1596:1629  msg.sender == s_stakers[_tokenID] */\n      0xffffffffffffffffffffffffffffffffffffffff\n      and\n      eq\n        /* \"contracts/Missions.sol\":1588:1664  require(msg.sender == s_stakers[_tokenID], \"Not allowed to claim ownership\") */\n      tag_50\n      jumpi\n      mload(0x40)\n      0x08c379a000000000000000000000000000000000000000000000000000000000\n      dup2\n      mstore\n      0x04\n      add\n      tag_51\n      swap1\n      tag_52\n      jump\t// in\n    tag_51:\n      mload(0x40)\n      dup1\n      swap2\n      sub\n      swap1\n      revert\n    tag_50:\n        /* \"contracts/Missions.sol\":1693:1701  _tokenID */\n      dup4\n        /* \"contracts/Missions.sol\":1703:1713  msg.sender */\n      caller\n        /* \"contracts/Missions.sol\":1715:1730  s_missionTimers */\n      0x06\n        /* \"contracts/Missions.sol\":1715:1740  s_missionTimers[_tokenID] */\n      0x00\n        /* \"contracts/Missions.sol\":1731:1739  _tokenID */\n      dup8\n        /* \"contracts/Missions.sol\":1715:1740  s_missionTimers[_tokenID] */\n      dup2\n      mstore\n      0x20\n      add\n      swap1\n      dup2\n      mstore\n      0x20\n      add\n      0x00\n      keccak256\n      sload\n        /* \"contracts/Missions.sol\":1685:1741  return (_tokenID, msg.sender, s_missionTimers[_tokenID]) */\n      swap3\n      pop\n      swap3\n      pop\n      swap3\n      pop\n        /* \"contracts/Missions.sol\":1468:1751  function emergencyUnstake(uint256 _tokenID) public view returns (uint256 tokenID, address to, uint256 amount){\r... */\n      swap2\n      swap4\n      swap1\n      swap3\n      pop\n      jump\t// out\n        /* \"contracts/Missions.sol\":1769:2132  function onERC721Received(address _operator, address _sender, uint256 _tokenID, bytes memory) public virtual returns (bytes4) {\r... */\n    tag_21:\n        /* \"contracts/Missions.sol\":1887:1893  bytes4 */\n      0x00\n        /* \"contracts/Missions.sol\":1935:1951  parentNFTAddress */\n      0x04\n      0x00\n      swap1\n      sload\n      swap1\n      0x0100\n      exp\n      swap1\n      div\n      0xffffffffffffffffffffffffffffffffffffffff\n      and\n        /* \"contracts/Missions.sol\":1922:1951  _operator == parentNFTAddress */\n      0xffffffffffffffffffffffffffffffffffffffff\n      and\n        /* \"contracts/Missions.sol\":1922:1931  _operator */\n      dup6\n        /* \"contracts/Missions.sol\":1922:1951  _operator == parentNFTAddress */\n      0xffffffffffffffffffffffffffffffffffffffff\n      and\n      eq\n        /* \"contracts/Missions.sol\":1918:2067  if (_operator == parentNFTAddress){\r... */\n      iszero\n      tag_54\n      jumpi\n        /* \"contracts/Missions.sol\":1985:1992  _sender */\n      dup4\n        /* \"contracts/Missions.sol\":1963:1972  s_stakers */\n      0x05\n        /* \"contracts/Missions.sol\":1963:1982  s_stakers[_tokenID] */\n      0x00\n        /* \"contracts/Missions.sol\":1973:1981  _tokenID */\n      dup6\n        /* \"contracts/Missions.sol\":1963:1982  s_stakers[_tokenID] */\n      dup2\n      mstore\n      0x20\n      add\n      swap1\n      dup2\n      mstore\n      0x20\n      add\n      0x00\n      keccak256\n      0x00\n        /* \"contracts/Missions.sol\":1963:1992  s_stakers[_tokenID] = _sender */\n      0x0100\n      exp\n      dup2\n      sload\n      dup2\n      0xffffffffffffffffffffffffffffffffffffffff\n      mul\n      not\n      and\n      swap1\n      dup4\n      0xffffffffffffffffffffffffffffffffffffffff\n      and\n      mul\n      or\n      swap1\n      sstore\n      pop\n        /* \"contracts/Missions.sol\":2049:2055  5 days */\n      0x069780\n        /* \"contracts/Missions.sol\":2031:2046  block.timestamp */\n      timestamp\n        /* \"contracts/Missions.sol\":2031:2055  block.timestamp + 5 days */\n      tag_55\n      swap2\n      swap1\n      tag_56\n      jump\t// in\n    tag_55:\n        /* \"contracts/Missions.sol\":2003:2018  s_missionTimers */\n      0x06\n        /* \"contracts/Missions.sol\":2003:2028  s_missionTimers[_tokenID] */\n      0x00\n        /* \"contracts/Missions.sol\":2019:2027  _tokenID */\n      dup6\n        /* \"contracts/Missions.sol\":2003:2028  s_missionTimers[_tokenID] */\n      dup2\n      mstore\n      0x20\n      add\n      swap1\n      dup2\n      mstore\n      0x20\n      add\n      0x00\n      keccak256\n        /* \"contracts/Missions.sol\":2003:2055  s_missionTimers[_tokenID] = block.timestamp + 5 days */\n      dup2\n      swap1\n      sstore\n      pop\n        /* \"contracts/Missions.sol\":1918:2067  if (_operator == parentNFTAddress){\r... */\n    tag_54:\n        /* \"contracts/Missions.sol\":2094:2124  this.onERC721Received.selector */\n      shl(0xe0, 0x150b7a02)\n        /* \"contracts/Missions.sol\":2087:2124  return this.onERC721Received.selector */\n      swap1\n      pop\n        /* \"contracts/Missions.sol\":1769:2132  function onERC721Received(address _operator, address _sender, uint256 _tokenID, bytes memory) public virtual returns (bytes4) {\r... */\n      swap5\n      swap4\n      pop\n      pop\n      pop\n      pop\n      jump\t// out\n        /* \"contracts/Missions.sol\":1065:1459  function unstake(uint256 _tokenID) public view returns (uint256 tokenID, address to, uint256 amount){\r... */\n    tag_26:\n        /* \"contracts/Missions.sol\":1121:1136  uint256 tokenID */\n      0x00\n        /* \"contracts/Missions.sol\":1138:1148  address to */\n      dup1\n        /* \"contracts/Missions.sol\":1150:1164  uint256 amount */\n      0x00\n        /* \"contracts/Missions.sol\":1198:1207  s_stakers */\n      0x05\n        /* \"contracts/Missions.sol\":1198:1217  s_stakers[_tokenID] */\n      0x00\n        /* \"contracts/Missions.sol\":1208:1216  _tokenID */\n      dup6\n        /* \"contracts/Missions.sol\":1198:1217  s_stakers[_tokenID] */\n      dup2\n      mstore\n      0x20\n      add\n      swap1\n      dup2\n      mstore\n      0x20\n      add\n      0x00\n      keccak256\n      0x00\n      swap1\n      sload\n      swap1\n      0x0100\n      exp\n      swap1\n      div\n      0xffffffffffffffffffffffffffffffffffffffff\n      and\n        /* \"contracts/Missions.sol\":1184:1217  msg.sender == s_stakers[_tokenID] */\n      0xffffffffffffffffffffffffffffffffffffffff\n      and\n        /* \"contracts/Missions.sol\":1184:1194  msg.sender */\n      caller\n        /* \"contracts/Missions.sol\":1184:1217  msg.sender == s_stakers[_tokenID] */\n      0xffffffffffffffffffffffffffffffffffffffff\n      and\n      eq\n        /* \"contracts/Missions.sol\":1176:1252  require(msg.sender == s_stakers[_tokenID], \"Not allowed to claim ownership\") */\n      tag_58\n      jumpi\n      mload(0x40)\n      0x08c379a000000000000000000000000000000000000000000000000000000000\n      dup2\n      mstore\n      0x04\n      add\n      tag_59\n      swap1\n      tag_52\n      jump\t// in\n    tag_59:\n      mload(0x40)\n      dup1\n      swap2\n      sub\n      swap1\n      revert\n    tag_58:\n        /* \"contracts/Missions.sol\":1289:1304  s_missionTimers */\n      0x06\n        /* \"contracts/Missions.sol\":1289:1314  s_missionTimers[_tokenID] */\n      0x00\n        /* \"contracts/Missions.sol\":1305:1313  _tokenID */\n      dup6\n        /* \"contracts/Missions.sol\":1289:1314  s_missionTimers[_tokenID] */\n      dup2\n      mstore\n      0x20\n      add\n      swap1\n      dup2\n      mstore\n      0x20\n      add\n      0x00\n      keccak256\n      sload\n        /* \"contracts/Missions.sol\":1271:1286  block.timestamp */\n      timestamp\n        /* \"contracts/Missions.sol\":1271:1314  block.timestamp > s_missionTimers[_tokenID] */\n      gt\n        /* \"contracts/Missions.sol\":1263:1380  require(block.timestamp > s_missionTimers[_tokenID], \"Too early to claim ownership, you can call emergency function\") */\n      tag_60\n      jumpi\n      mload(0x40)\n      0x08c379a000000000000000000000000000000000000000000000000000000000\n      dup2\n      mstore\n      0x04\n      add\n      tag_61\n      swap1\n      tag_62\n      jump\t// in\n    tag_61:\n      mload(0x40)\n      dup1\n      swap2\n      sub\n      swap1\n      revert\n    tag_60:\n        /* \"contracts/Missions.sol\":1401:1409  _tokenID */\n      dup4\n        /* \"contracts/Missions.sol\":1411:1421  msg.sender */\n      caller\n        /* \"contracts/Missions.sol\":1423:1438  s_missionTimers */\n      0x06\n        /* \"contracts/Missions.sol\":1423:1448  s_missionTimers[_tokenID] */\n      0x00\n        /* \"contracts/Missions.sol\":1439:1447  _tokenID */\n      dup8\n        /* \"contracts/Missions.sol\":1423:1448  s_missionTimers[_tokenID] */\n      dup2\n      mstore\n      0x20\n      add\n      swap1\n      dup2\n      mstore\n      0x20\n      add\n      0x00\n      keccak256\n      sload\n        /* \"contracts/Missions.sol\":1393:1449  return (_tokenID, msg.sender, s_missionTimers[_tokenID]) */\n      swap3\n      pop\n      swap3\n      pop\n      swap3\n      pop\n        /* \"contracts/Missions.sol\":1065:1459  function unstake(uint256 _tokenID) public view returns (uint256 tokenID, address to, uint256 amount){\r... */\n      swap2\n      swap4\n      swap1\n      swap3\n      pop\n      jump\t// out\n        /* \"contracts/Missions.sol\":895:1053  function getStakes(uint256 _tokenID) public view returns (address add, uint256 time){\r... */\n    tag_30:\n        /* \"contracts/Missions.sol\":953:964  address add */\n      0x00\n        /* \"contracts/Missions.sol\":966:978  uint256 time */\n      dup1\n        /* \"contracts/Missions.sol\":998:1007  s_stakers */\n      0x05\n        /* \"contracts/Missions.sol\":998:1017  s_stakers[_tokenID] */\n      0x00\n        /* \"contracts/Missions.sol\":1008:1016  _tokenID */\n      dup5\n        /* \"contracts/Missions.sol\":998:1017  s_stakers[_tokenID] */\n      dup2\n      mstore\n      0x20\n      add\n      swap1\n      dup2\n      mstore\n      0x20\n      add\n      0x00\n      keccak256\n      0x00\n      swap1\n      sload\n      swap1\n      0x0100\n      exp\n      swap1\n      div\n      0xffffffffffffffffffffffffffffffffffffffff\n      and\n        /* \"contracts/Missions.sol\":1019:1034  s_missionTimers */\n      0x06\n        /* \"contracts/Missions.sol\":1019:1044  s_missionTimers[_tokenID] */\n      0x00\n        /* \"contracts/Missions.sol\":1035:1043  _tokenID */\n      dup6\n        /* \"contracts/Missions.sol\":1019:1044  s_missionTimers[_tokenID] */\n      dup2\n      mstore\n      0x20\n      add\n      swap1\n      dup2\n      mstore\n      0x20\n      add\n      0x00\n      keccak256\n      sload\n        /* \"contracts/Missions.sol\":990:1045  return (s_stakers[_tokenID], s_missionTimers[_tokenID]) */\n      swap2\n      pop\n      swap2\n      pop\n        /* \"contracts/Missions.sol\":895:1053  function getStakes(uint256 _tokenID) public view returns (address add, uint256 time){\r... */\n      swap2\n      pop\n      swap2\n      jump\t// out\n        /* \"contracts/Missions.sol\":488:519  address public parentNFTAddress */\n    tag_34:\n      0x04\n      0x00\n      swap1\n      sload\n      swap1\n      0x0100\n      exp\n      swap1\n      div\n      0xffffffffffffffffffffffffffffffffffffffff\n      and\n      dup2\n      jump\t// out\n        /* \"contracts/Missions.sol\":384:409  IERC20 public parentToken */\n    tag_38:\n      0x01\n      0x00\n      swap1\n      sload\n      swap1\n      0x0100\n      exp\n      swap1\n      div\n      0xffffffffffffffffffffffffffffffffffffffff\n      and\n      dup2\n      jump\t// out\n        /* \"contracts/Missions.sol\":416:440  IERC721 public parentNFT */\n    tag_42:\n      0x02\n      0x00\n      swap1\n      sload\n      swap1\n      0x0100\n      exp\n      swap1\n      div\n      0xffffffffffffffffffffffffffffffffffffffff\n      and\n      dup2\n      jump\t// out\n        /* \"contracts/Missions.sol\":447:481  INFTGame public parentNftFunctions */\n    tag_46:\n      0x03\n      0x00\n      swap1\n      sload\n      swap1\n      0x0100\n      exp\n      swap1\n      div\n      0xffffffffffffffffffffffffffffffffffffffff\n      and\n      dup2\n      jump\t// out\n        /* \"#utility.yul\":7:417   */\n    tag_65:\n        /* \"#utility.yul\":84:89   */\n      0x00\n        /* \"#utility.yul\":109:174   */\n      tag_67\n        /* \"#utility.yul\":125:173   */\n      tag_68\n        /* \"#utility.yul\":166:172   */\n      dup5\n        /* \"#utility.yul\":125:173   */\n      tag_69\n      jump\t// in\n    tag_68:\n        /* \"#utility.yul\":109:174   */\n      tag_70\n      jump\t// in\n    tag_67:\n        /* \"#utility.yul\":100:174   */\n      swap1\n      pop\n        /* \"#utility.yul\":197:203   */\n      dup3\n        /* \"#utility.yul\":190:195   */\n      dup2\n        /* \"#utility.yul\":183:204   */\n      mstore\n        /* \"#utility.yul\":235:239   */\n      0x20\n        /* \"#utility.yul\":228:233   */\n      dup2\n        /* \"#utility.yul\":224:240   */\n      add\n        /* \"#utility.yul\":273:276   */\n      dup5\n        /* \"#utility.yul\":264:270   */\n      dup5\n        /* \"#utility.yul\":259:262   */\n      dup5\n        /* \"#utility.yul\":255:271   */\n      add\n        /* \"#utility.yul\":252:277   */\n      gt\n        /* \"#utility.yul\":249:361   */\n      iszero\n      tag_71\n      jumpi\n        /* \"#utility.yul\":280:359   */\n      tag_72\n      tag_73\n      jump\t// in\n    tag_72:\n        /* \"#utility.yul\":249:361   */\n    tag_71:\n        /* \"#utility.yul\":370:411   */\n      tag_74\n        /* \"#utility.yul\":404:410   */\n      dup5\n        /* \"#utility.yul\":399:402   */\n      dup3\n        /* \"#utility.yul\":394:397   */\n      dup6\n        /* \"#utility.yul\":370:411   */\n      tag_75\n      jump\t// in\n    tag_74:\n        /* \"#utility.yul\":90:417   */\n      pop\n        /* \"#utility.yul\":7:417   */\n      swap4\n      swap3\n      pop\n      pop\n      pop\n      jump\t// out\n        /* \"#utility.yul\":423:562   */\n    tag_76:\n        /* \"#utility.yul\":469:474   */\n      0x00\n        /* \"#utility.yul\":507:513   */\n      dup2\n        /* \"#utility.yul\":494:514   */\n      calldataload\n        /* \"#utility.yul\":485:514   */\n      swap1\n      pop\n        /* \"#utility.yul\":523:556   */\n      tag_78\n        /* \"#utility.yul\":550:555   */\n      dup2\n        /* \"#utility.yul\":523:556   */\n      tag_79\n      jump\t// in\n    tag_78:\n        /* \"#utility.yul\":423:562   */\n      swap3\n      swap2\n      pop\n      pop\n      jump\t// out\n        /* \"#utility.yul\":581:919   */\n    tag_80:\n        /* \"#utility.yul\":636:641   */\n      0x00\n        /* \"#utility.yul\":685:688   */\n      dup3\n        /* \"#utility.yul\":678:682   */\n      0x1f\n        /* \"#utility.yul\":670:676   */\n      dup4\n        /* \"#utility.yul\":666:683   */\n      add\n        /* \"#utility.yul\":662:689   */\n      slt\n        /* \"#utility.yul\":652:774   */\n      tag_82\n      jumpi\n        /* \"#utility.yul\":693:772   */\n      tag_83\n      tag_84\n      jump\t// in\n    tag_83:\n        /* \"#utility.yul\":652:774   */\n    tag_82:\n        /* \"#utility.yul\":810:816   */\n      dup2\n        /* \"#utility.yul\":797:817   */\n      calldataload\n        /* \"#utility.yul\":835:913   */\n      tag_85\n        /* \"#utility.yul\":909:912   */\n      dup5\n        /* \"#utility.yul\":901:907   */\n      dup3\n        /* \"#utility.yul\":894:898   */\n      0x20\n        /* \"#utility.yul\":886:892   */\n      dup7\n        /* \"#utility.yul\":882:899   */\n      add\n        /* \"#utility.yul\":835:913   */\n      tag_65\n      jump\t// in\n    tag_85:\n        /* \"#utility.yul\":826:913   */\n      swap2\n      pop\n        /* \"#utility.yul\":642:919   */\n      pop\n        /* \"#utility.yul\":581:919   */\n      swap3\n      swap2\n      pop\n      pop\n      jump\t// out\n        /* \"#utility.yul\":925:1064   */\n    tag_86:\n        /* \"#utility.yul\":971:976   */\n      0x00\n        /* \"#utility.yul\":1009:1015   */\n      dup2\n        /* \"#utility.yul\":996:1016   */\n      calldataload\n        /* \"#utility.yul\":987:1016   */\n      swap1\n      pop\n        /* \"#utility.yul\":1025:1058   */\n      tag_88\n        /* \"#utility.yul\":1052:1057   */\n      dup2\n        /* \"#utility.yul\":1025:1058   */\n      tag_89\n      jump\t// in\n    tag_88:\n        /* \"#utility.yul\":925:1064   */\n      swap3\n      swap2\n      pop\n      pop\n      jump\t// out\n        /* \"#utility.yul\":1070:2013   */\n    tag_20:\n        /* \"#utility.yul\":1165:1171   */\n      0x00\n        /* \"#utility.yul\":1173:1179   */\n      dup1\n        /* \"#utility.yul\":1181:1187   */\n      0x00\n        /* \"#utility.yul\":1189:1195   */\n      dup1\n        /* \"#utility.yul\":1238:1241   */\n      0x80\n        /* \"#utility.yul\":1226:1235   */\n      dup6\n        /* \"#utility.yul\":1217:1224   */\n      dup8\n        /* \"#utility.yul\":1213:1236   */\n      sub\n        /* \"#utility.yul\":1209:1242   */\n      slt\n        /* \"#utility.yul\":1206:1326   */\n      iszero\n      tag_91\n      jumpi\n        /* \"#utility.yul\":1245:1324   */\n      tag_92\n      tag_93\n      jump\t// in\n    tag_92:\n        /* \"#utility.yul\":1206:1326   */\n    tag_91:\n        /* \"#utility.yul\":1365:1366   */\n      0x00\n        /* \"#utility.yul\":1390:1443   */\n      tag_94\n        /* \"#utility.yul\":1435:1442   */\n      dup8\n        /* \"#utility.yul\":1426:1432   */\n      dup3\n        /* \"#utility.yul\":1415:1424   */\n      dup9\n        /* \"#utility.yul\":1411:1433   */\n      add\n        /* \"#utility.yul\":1390:1443   */\n      tag_76\n      jump\t// in\n    tag_94:\n        /* \"#utility.yul\":1380:1443   */\n      swap5\n      pop\n        /* \"#utility.yul\":1336:1453   */\n      pop\n        /* \"#utility.yul\":1492:1494   */\n      0x20\n        /* \"#utility.yul\":1518:1571   */\n      tag_95\n        /* \"#utility.yul\":1563:1570   */\n      dup8\n        /* \"#utility.yul\":1554:1560   */\n      dup3\n        /* \"#utility.yul\":1543:1552   */\n      dup9\n        /* \"#utility.yul\":1539:1561   */\n      add\n        /* \"#utility.yul\":1518:1571   */\n      tag_76\n      jump\t// in\n    tag_95:\n        /* \"#utility.yul\":1508:1571   */\n      swap4\n      pop\n        /* \"#utility.yul\":1463:1581   */\n      pop\n        /* \"#utility.yul\":1620:1622   */\n      0x40\n        /* \"#utility.yul\":1646:1699   */\n      tag_96\n        /* \"#utility.yul\":1691:1698   */\n      dup8\n        /* \"#utility.yul\":1682:1688   */\n      dup3\n        /* \"#utility.yul\":1671:1680   */\n      dup9\n        /* \"#utility.yul\":1667:1689   */\n      add\n        /* \"#utility.yul\":1646:1699   */\n      tag_86\n      jump\t// in\n    tag_96:\n        /* \"#utility.yul\":1636:1699   */\n      swap3\n      pop\n        /* \"#utility.yul\":1591:1709   */\n      pop\n        /* \"#utility.yul\":1776:1778   */\n      0x60\n        /* \"#utility.yul\":1765:1774   */\n      dup6\n        /* \"#utility.yul\":1761:1779   */\n      add\n        /* \"#utility.yul\":1748:1780   */\n      calldataload\n        /* \"#utility.yul\":1807:1825   */\n      0xffffffffffffffff\n        /* \"#utility.yul\":1799:1805   */\n      dup2\n        /* \"#utility.yul\":1796:1826   */\n      gt\n        /* \"#utility.yul\":1793:1910   */\n      iszero\n      tag_97\n      jumpi\n        /* \"#utility.yul\":1829:1908   */\n      tag_98\n      tag_99\n      jump\t// in\n    tag_98:\n        /* \"#utility.yul\":1793:1910   */\n    tag_97:\n        /* \"#utility.yul\":1934:1996   */\n      tag_100\n        /* \"#utility.yul\":1988:1995   */\n      dup8\n        /* \"#utility.yul\":1979:1985   */\n      dup3\n        /* \"#utility.yul\":1968:1977   */\n      dup9\n        /* \"#utility.yul\":1964:1986   */\n      add\n        /* \"#utility.yul\":1934:1996   */\n      tag_80\n      jump\t// in\n    tag_100:\n        /* \"#utility.yul\":1924:1996   */\n      swap2\n      pop\n        /* \"#utility.yul\":1719:2006   */\n      pop\n        /* \"#utility.yul\":1070:2013   */\n      swap3\n      swap6\n      swap2\n      swap5\n      pop\n      swap3\n      pop\n      jump\t// out\n        /* \"#utility.yul\":2019:2348   */\n    tag_14:\n        /* \"#utility.yul\":2078:2084   */\n      0x00\n        /* \"#utility.yul\":2127:2129   */\n      0x20\n        /* \"#utility.yul\":2115:2124   */\n      dup3\n        /* \"#utility.yul\":2106:2113   */\n      dup5\n        /* \"#utility.yul\":2102:2125   */\n      sub\n        /* \"#utility.yul\":2098:2130   */\n      slt\n        /* \"#utility.yul\":2095:2214   */\n      iszero\n      tag_102\n      jumpi\n        /* \"#utility.yul\":2133:2212   */\n      tag_103\n      tag_93\n      jump\t// in\n    tag_103:\n        /* \"#utility.yul\":2095:2214   */\n    tag_102:\n        /* \"#utility.yul\":2253:2254   */\n      0x00\n        /* \"#utility.yul\":2278:2331   */\n      tag_104\n        /* \"#utility.yul\":2323:2330   */\n      dup5\n        /* \"#utility.yul\":2314:2320   */\n      dup3\n        /* \"#utility.yul\":2303:2312   */\n      dup6\n        /* \"#utility.yul\":2299:2321   */\n      add\n        /* \"#utility.yul\":2278:2331   */\n      tag_86\n      jump\t// in\n    tag_104:\n        /* \"#utility.yul\":2268:2331   */\n      swap2\n      pop\n        /* \"#utility.yul\":2224:2341   */\n      pop\n        /* \"#utility.yul\":2019:2348   */\n      swap3\n      swap2\n      pop\n      pop\n      jump\t// out\n        /* \"#utility.yul\":2354:2472   */\n    tag_105:\n        /* \"#utility.yul\":2441:2465   */\n      tag_107\n        /* \"#utility.yul\":2459:2464   */\n      dup2\n        /* \"#utility.yul\":2441:2465   */\n      tag_108\n      jump\t// in\n    tag_107:\n        /* \"#utility.yul\":2436:2439   */\n      dup3\n        /* \"#utility.yul\":2429:2466   */\n      mstore\n        /* \"#utility.yul\":2354:2472   */\n      pop\n      pop\n      jump\t// out\n        /* \"#utility.yul\":2478:2593   */\n    tag_109:\n        /* \"#utility.yul\":2563:2586   */\n      tag_111\n        /* \"#utility.yul\":2580:2585   */\n      dup2\n        /* \"#utility.yul\":2563:2586   */\n      tag_112\n      jump\t// in\n    tag_111:\n        /* \"#utility.yul\":2558:2561   */\n      dup3\n        /* \"#utility.yul\":2551:2587   */\n      mstore\n        /* \"#utility.yul\":2478:2593   */\n      pop\n      pop\n      jump\t// out\n        /* \"#utility.yul\":2599:2758   */\n    tag_113:\n        /* \"#utility.yul\":2700:2751   */\n      tag_115\n        /* \"#utility.yul\":2745:2750   */\n      dup2\n        /* \"#utility.yul\":2700:2751   */\n      tag_116\n      jump\t// in\n    tag_115:\n        /* \"#utility.yul\":2695:2698   */\n      dup3\n        /* \"#utility.yul\":2688:2752   */\n      mstore\n        /* \"#utility.yul\":2599:2758   */\n      pop\n      pop\n      jump\t// out\n        /* \"#utility.yul\":2764:2925   */\n    tag_117:\n        /* \"#utility.yul\":2866:2918   */\n      tag_119\n        /* \"#utility.yul\":2912:2917   */\n      dup2\n        /* \"#utility.yul\":2866:2918   */\n      tag_120\n      jump\t// in\n    tag_119:\n        /* \"#utility.yul\":2861:2864   */\n      dup3\n        /* \"#utility.yul\":2854:2919   */\n      mstore\n        /* \"#utility.yul\":2764:2925   */\n      pop\n      pop\n      jump\t// out\n        /* \"#utility.yul\":2931:3094   */\n    tag_121:\n        /* \"#utility.yul\":3034:3087   */\n      tag_123\n        /* \"#utility.yul\":3081:3086   */\n      dup2\n        /* \"#utility.yul\":3034:3087   */\n      tag_124\n      jump\t// in\n    tag_123:\n        /* \"#utility.yul\":3029:3032   */\n      dup3\n        /* \"#utility.yul\":3022:3088   */\n      mstore\n        /* \"#utility.yul\":2931:3094   */\n      pop\n      pop\n      jump\t// out\n        /* \"#utility.yul\":3100:3466   */\n    tag_125:\n        /* \"#utility.yul\":3242:3245   */\n      0x00\n        /* \"#utility.yul\":3263:3330   */\n      tag_127\n        /* \"#utility.yul\":3327:3329   */\n      0x1e\n        /* \"#utility.yul\":3322:3325   */\n      dup4\n        /* \"#utility.yul\":3263:3330   */\n      tag_128\n      jump\t// in\n    tag_127:\n        /* \"#utility.yul\":3256:3330   */\n      swap2\n      pop\n        /* \"#utility.yul\":3339:3432   */\n      tag_129\n        /* \"#utility.yul\":3428:3431   */\n      dup3\n        /* \"#utility.yul\":3339:3432   */\n      tag_130\n      jump\t// in\n    tag_129:\n        /* \"#utility.yul\":3457:3459   */\n      0x20\n        /* \"#utility.yul\":3452:3455   */\n      dup3\n        /* \"#utility.yul\":3448:3460   */\n      add\n        /* \"#utility.yul\":3441:3460   */\n      swap1\n      pop\n        /* \"#utility.yul\":3100:3466   */\n      swap2\n      swap1\n      pop\n      jump\t// out\n        /* \"#utility.yul\":3472:3838   */\n    tag_131:\n        /* \"#utility.yul\":3614:3617   */\n      0x00\n        /* \"#utility.yul\":3635:3702   */\n      tag_133\n        /* \"#utility.yul\":3699:3701   */\n      0x3d\n        /* \"#utility.yul\":3694:3697   */\n      dup4\n        /* \"#utility.yul\":3635:3702   */\n      tag_128\n      jump\t// in\n    tag_133:\n        /* \"#utility.yul\":3628:3702   */\n      swap2\n      pop\n        /* \"#utility.yul\":3711:3804   */\n      tag_134\n        /* \"#utility.yul\":3800:3803   */\n      dup3\n        /* \"#utility.yul\":3711:3804   */\n      tag_135\n      jump\t// in\n    tag_134:\n        /* \"#utility.yul\":3829:3831   */\n      0x40\n        /* \"#utility.yul\":3824:3827   */\n      dup3\n        /* \"#utility.yul\":3820:3832   */\n      add\n        /* \"#utility.yul\":3813:3832   */\n      swap1\n      pop\n        /* \"#utility.yul\":3472:3838   */\n      swap2\n      swap1\n      pop\n      jump\t// out\n        /* \"#utility.yul\":3844:3962   */\n    tag_136:\n        /* \"#utility.yul\":3931:3955   */\n      tag_138\n        /* \"#utility.yul\":3949:3954   */\n      dup2\n        /* \"#utility.yul\":3931:3955   */\n      tag_139\n      jump\t// in\n    tag_138:\n        /* \"#utility.yul\":3926:3929   */\n      dup3\n        /* \"#utility.yul\":3919:3956   */\n      mstore\n        /* \"#utility.yul\":3844:3962   */\n      pop\n      pop\n      jump\t// out\n        /* \"#utility.yul\":3968:4190   */\n    tag_36:\n        /* \"#utility.yul\":4061:4065   */\n      0x00\n        /* \"#utility.yul\":4099:4101   */\n      0x20\n        /* \"#utility.yul\":4088:4097   */\n      dup3\n        /* \"#utility.yul\":4084:4102   */\n      add\n        /* \"#utility.yul\":4076:4102   */\n      swap1\n      pop\n        /* \"#utility.yul\":4112:4183   */\n      tag_141\n        /* \"#utility.yul\":4180:4181   */\n      0x00\n        /* \"#utility.yul\":4169:4178   */\n      dup4\n        /* \"#utility.yul\":4165:4182   */\n      add\n        /* \"#utility.yul\":4156:4162   */\n      dup5\n        /* \"#utility.yul\":4112:4183   */\n      tag_105\n      jump\t// in\n    tag_141:\n        /* \"#utility.yul\":3968:4190   */\n      swap3\n      swap2\n      pop\n      pop\n      jump\t// out\n        /* \"#utility.yul\":4196:4528   */\n    tag_32:\n        /* \"#utility.yul\":4317:4321   */\n      0x00\n        /* \"#utility.yul\":4355:4357   */\n      0x40\n        /* \"#utility.yul\":4344:4353   */\n      dup3\n        /* \"#utility.yul\":4340:4358   */\n      add\n        /* \"#utility.yul\":4332:4358   */\n      swap1\n      pop\n        /* \"#utility.yul\":4368:4439   */\n      tag_143\n        /* \"#utility.yul\":4436:4437   */\n      0x00\n        /* \"#utility.yul\":4425:4434   */\n      dup4\n        /* \"#utility.yul\":4421:4438   */\n      add\n        /* \"#utility.yul\":4412:4418   */\n      dup6\n        /* \"#utility.yul\":4368:4439   */\n      tag_105\n      jump\t// in\n    tag_143:\n        /* \"#utility.yul\":4449:4521   */\n      tag_144\n        /* \"#utility.yul\":4517:4519   */\n      0x20\n        /* \"#utility.yul\":4506:4515   */\n      dup4\n        /* \"#utility.yul\":4502:4520   */\n      add\n        /* \"#utility.yul\":4493:4499   */\n      dup5\n        /* \"#utility.yul\":4449:4521   */\n      tag_136\n      jump\t// in\n    tag_144:\n        /* \"#utility.yul\":4196:4528   */\n      swap4\n      swap3\n      pop\n      pop\n      pop\n      jump\t// out\n        /* \"#utility.yul\":4534:4752   */\n    tag_23:\n        /* \"#utility.yul\":4625:4629   */\n      0x00\n        /* \"#utility.yul\":4663:4665   */\n      0x20\n        /* \"#utility.yul\":4652:4661   */\n      dup3\n        /* \"#utility.yul\":4648:4666   */\n      add\n        /* \"#utility.yul\":4640:4666   */\n      swap1\n      pop\n        /* \"#utility.yul\":4676:4745   */\n      tag_146\n        /* \"#utility.yul\":4742:4743   */\n      0x00\n        /* \"#utility.yul\":4731:4740   */\n      dup4\n        /* \"#utility.yul\":4727:4744   */\n      add\n        /* \"#utility.yul\":4718:4724   */\n      dup5\n        /* \"#utility.yul\":4676:4745   */\n      tag_109\n      jump\t// in\n    tag_146:\n        /* \"#utility.yul\":4534:4752   */\n      swap3\n      swap2\n      pop\n      pop\n      jump\t// out\n        /* \"#utility.yul\":4758:5008   */\n    tag_40:\n        /* \"#utility.yul\":4865:4869   */\n      0x00\n        /* \"#utility.yul\":4903:4905   */\n      0x20\n        /* \"#utility.yul\":4892:4901   */\n      dup3\n        /* \"#utility.yul\":4888:4906   */\n      add\n        /* \"#utility.yul\":4880:4906   */\n      swap1\n      pop\n        /* \"#utility.yul\":4916:5001   */\n      tag_148\n        /* \"#utility.yul\":4998:4999   */\n      0x00\n        /* \"#utility.yul\":4987:4996   */\n      dup4\n        /* \"#utility.yul\":4983:5000   */\n      add\n        /* \"#utility.yul\":4974:4980   */\n      dup5\n        /* \"#utility.yul\":4916:5001   */\n      tag_113\n      jump\t// in\n    tag_148:\n        /* \"#utility.yul\":4758:5008   */\n      swap3\n      swap2\n      pop\n      pop\n      jump\t// out\n        /* \"#utility.yul\":5014:5266   */\n    tag_44:\n        /* \"#utility.yul\":5122:5126   */\n      0x00\n        /* \"#utility.yul\":5160:5162   */\n      0x20\n        /* \"#utility.yul\":5149:5158   */\n      dup3\n        /* \"#utility.yul\":5145:5163   */\n      add\n        /* \"#utility.yul\":5137:5163   */\n      swap1\n      pop\n        /* \"#utility.yul\":5173:5259   */\n      tag_150\n        /* \"#utility.yul\":5256:5257   */\n      0x00\n        /* \"#utility.yul\":5245:5254   */\n      dup4\n        /* \"#utility.yul\":5241:5258   */\n      add\n        /* \"#utility.yul\":5232:5238   */\n      dup5\n        /* \"#utility.yul\":5173:5259   */\n      tag_117\n      jump\t// in\n    tag_150:\n        /* \"#utility.yul\":5014:5266   */\n      swap3\n      swap2\n      pop\n      pop\n      jump\t// out\n        /* \"#utility.yul\":5272:5526   */\n    tag_48:\n        /* \"#utility.yul\":5381:5385   */\n      0x00\n        /* \"#utility.yul\":5419:5421   */\n      0x20\n        /* \"#utility.yul\":5408:5417   */\n      dup3\n        /* \"#utility.yul\":5404:5422   */\n      add\n        /* \"#utility.yul\":5396:5422   */\n      swap1\n      pop\n        /* \"#utility.yul\":5432:5519   */\n      tag_152\n        /* \"#utility.yul\":5516:5517   */\n      0x00\n        /* \"#utility.yul\":5505:5514   */\n      dup4\n        /* \"#utility.yul\":5501:5518   */\n      add\n        /* \"#utility.yul\":5492:5498   */\n      dup5\n        /* \"#utility.yul\":5432:5519   */\n      tag_121\n      jump\t// in\n    tag_152:\n        /* \"#utility.yul\":5272:5526   */\n      swap3\n      swap2\n      pop\n      pop\n      jump\t// out\n        /* \"#utility.yul\":5532:5951   */\n    tag_52:\n        /* \"#utility.yul\":5698:5702   */\n      0x00\n        /* \"#utility.yul\":5736:5738   */\n      0x20\n        /* \"#utility.yul\":5725:5734   */\n      dup3\n        /* \"#utility.yul\":5721:5739   */\n      add\n        /* \"#utility.yul\":5713:5739   */\n      swap1\n      pop\n        /* \"#utility.yul\":5785:5794   */\n      dup2\n        /* \"#utility.yul\":5779:5783   */\n      dup2\n        /* \"#utility.yul\":5775:5795   */\n      sub\n        /* \"#utility.yul\":5771:5772   */\n      0x00\n        /* \"#utility.yul\":5760:5769   */\n      dup4\n        /* \"#utility.yul\":5756:5773   */\n      add\n        /* \"#utility.yul\":5749:5796   */\n      mstore\n        /* \"#utility.yul\":5813:5944   */\n      tag_154\n        /* \"#utility.yul\":5939:5943   */\n      dup2\n        /* \"#utility.yul\":5813:5944   */\n      tag_125\n      jump\t// in\n    tag_154:\n        /* \"#utility.yul\":5805:5944   */\n      swap1\n      pop\n        /* \"#utility.yul\":5532:5951   */\n      swap2\n      swap1\n      pop\n      jump\t// out\n        /* \"#utility.yul\":5957:6376   */\n    tag_62:\n        /* \"#utility.yul\":6123:6127   */\n      0x00\n        /* \"#utility.yul\":6161:6163   */\n      0x20\n        /* \"#utility.yul\":6150:6159   */\n      dup3\n        /* \"#utility.yul\":6146:6164   */\n      add\n        /* \"#utility.yul\":6138:6164   */\n      swap1\n      pop\n        /* \"#utility.yul\":6210:6219   */\n      dup2\n        /* \"#utility.yul\":6204:6208   */\n      dup2\n        /* \"#utility.yul\":6200:6220   */\n      sub\n        /* \"#utility.yul\":6196:6197   */\n      0x00\n        /* \"#utility.yul\":6185:6194   */\n      dup4\n        /* \"#utility.yul\":6181:6198   */\n      add\n        /* \"#utility.yul\":6174:6221   */\n      mstore\n        /* \"#utility.yul\":6238:6369   */\n      tag_156\n        /* \"#utility.yul\":6364:6368   */\n      dup2\n        /* \"#utility.yul\":6238:6369   */\n      tag_131\n      jump\t// in\n    tag_156:\n        /* \"#utility.yul\":6230:6369   */\n      swap1\n      pop\n        /* \"#utility.yul\":5957:6376   */\n      swap2\n      swap1\n      pop\n      jump\t// out\n        /* \"#utility.yul\":6382:6824   */\n    tag_17:\n        /* \"#utility.yul\":6531:6535   */\n      0x00\n        /* \"#utility.yul\":6569:6571   */\n      0x60\n        /* \"#utility.yul\":6558:6567   */\n      dup3\n        /* \"#utility.yul\":6554:6572   */\n      add\n        /* \"#utility.yul\":6546:6572   */\n      swap1\n      pop\n        /* \"#utility.yul\":6582:6653   */\n      tag_158\n        /* \"#utility.yul\":6650:6651   */\n      0x00\n        /* \"#utility.yul\":6639:6648   */\n      dup4\n        /* \"#utility.yul\":6635:6652   */\n      add\n        /* \"#utility.yul\":6626:6632   */\n      dup7\n        /* \"#utility.yul\":6582:6653   */\n      tag_136\n      jump\t// in\n    tag_158:\n        /* \"#utility.yul\":6663:6735   */\n      tag_159\n        /* \"#utility.yul\":6731:6733   */\n      0x20\n        /* \"#utility.yul\":6720:6729   */\n      dup4\n        /* \"#utility.yul\":6716:6734   */\n      add\n        /* \"#utility.yul\":6707:6713   */\n      dup6\n        /* \"#utility.yul\":6663:6735   */\n      tag_105\n      jump\t// in\n    tag_159:\n        /* \"#utility.yul\":6745:6817   */\n      tag_160\n        /* \"#utility.yul\":6813:6815   */\n      0x40\n        /* \"#utility.yul\":6802:6811   */\n      dup4\n        /* \"#utility.yul\":6798:6816   */\n      add\n        /* \"#utility.yul\":6789:6795   */\n      dup5\n        /* \"#utility.yul\":6745:6817   */\n      tag_136\n      jump\t// in\n    tag_160:\n        /* \"#utility.yul\":6382:6824   */\n      swap5\n      swap4\n      pop\n      pop\n      pop\n      pop\n      jump\t// out\n        /* \"#utility.yul\":6830:6959   */\n    tag_70:\n        /* \"#utility.yul\":6864:6870   */\n      0x00\n        /* \"#utility.yul\":6891:6911   */\n      tag_162\n      tag_163\n      jump\t// in\n    tag_162:\n        /* \"#utility.yul\":6881:6911   */\n      swap1\n      pop\n        /* \"#utility.yul\":6920:6953   */\n      tag_164\n        /* \"#utility.yul\":6948:6952   */\n      dup3\n        /* \"#utility.yul\":6940:6946   */\n      dup3\n        /* \"#utility.yul\":6920:6953   */\n      tag_165\n      jump\t// in\n    tag_164:\n        /* \"#utility.yul\":6830:6959   */\n      swap2\n      swap1\n      pop\n      jump\t// out\n        /* \"#utility.yul\":6965:7040   */\n    tag_163:\n        /* \"#utility.yul\":6998:7004   */\n      0x00\n        /* \"#utility.yul\":7031:7033   */\n      0x40\n        /* \"#utility.yul\":7025:7034   */\n      mload\n        /* \"#utility.yul\":7015:7034   */\n      swap1\n      pop\n        /* \"#utility.yul\":6965:7040   */\n      swap1\n      jump\t// out\n        /* \"#utility.yul\":7046:7353   */\n    tag_69:\n        /* \"#utility.yul\":7107:7111   */\n      0x00\n        /* \"#utility.yul\":7197:7215   */\n      0xffffffffffffffff\n        /* \"#utility.yul\":7189:7195   */\n      dup3\n        /* \"#utility.yul\":7186:7216   */\n      gt\n        /* \"#utility.yul\":7183:7239   */\n      iszero\n      tag_168\n      jumpi\n        /* \"#utility.yul\":7219:7237   */\n      tag_169\n      tag_170\n      jump\t// in\n    tag_169:\n        /* \"#utility.yul\":7183:7239   */\n    tag_168:\n        /* \"#utility.yul\":7257:7286   */\n      tag_171\n        /* \"#utility.yul\":7279:7285   */\n      dup3\n        /* \"#utility.yul\":7257:7286   */\n      tag_172\n      jump\t// in\n    tag_171:\n        /* \"#utility.yul\":7249:7286   */\n      swap1\n      pop\n        /* \"#utility.yul\":7341:7345   */\n      0x20\n        /* \"#utility.yul\":7335:7339   */\n      dup2\n        /* \"#utility.yul\":7331:7346   */\n      add\n        /* \"#utility.yul\":7323:7346   */\n      swap1\n      pop\n        /* \"#utility.yul\":7046:7353   */\n      swap2\n      swap1\n      pop\n      jump\t// out\n        /* \"#utility.yul\":7359:7528   */\n    tag_128:\n        /* \"#utility.yul\":7443:7454   */\n      0x00\n        /* \"#utility.yul\":7477:7483   */\n      dup3\n        /* \"#utility.yul\":7472:7475   */\n      dup3\n        /* \"#utility.yul\":7465:7484   */\n      mstore\n        /* \"#utility.yul\":7517:7521   */\n      0x20\n        /* \"#utility.yul\":7512:7515   */\n      dup3\n        /* \"#utility.yul\":7508:7522   */\n      add\n        /* \"#utility.yul\":7493:7522   */\n      swap1\n      pop\n        /* \"#utility.yul\":7359:7528   */\n      swap3\n      swap2\n      pop\n      pop\n      jump\t// out\n        /* \"#utility.yul\":7534:7839   */\n    tag_56:\n        /* \"#utility.yul\":7574:7577   */\n      0x00\n        /* \"#utility.yul\":7593:7613   */\n      tag_175\n        /* \"#utility.yul\":7611:7612   */\n      dup3\n        /* \"#utility.yul\":7593:7613   */\n      tag_139\n      jump\t// in\n    tag_175:\n        /* \"#utility.yul\":7588:7613   */\n      swap2\n      pop\n        /* \"#utility.yul\":7627:7647   */\n      tag_176\n        /* \"#utility.yul\":7645:7646   */\n      dup4\n        /* \"#utility.yul\":7627:7647   */\n      tag_139\n      jump\t// in\n    tag_176:\n        /* \"#utility.yul\":7622:7647   */\n      swap3\n      pop\n        /* \"#utility.yul\":7781:7782   */\n      dup3\n        /* \"#utility.yul\":7713:7779   */\n      0xffffffffffffffffffffffffffffffffffffffffffffffffffffffffffffffff\n        /* \"#utility.yul\":7709:7783   */\n      sub\n        /* \"#utility.yul\":7706:7707   */\n      dup3\n        /* \"#utility.yul\":7703:7784   */\n      gt\n        /* \"#utility.yul\":7700:7807   */\n      iszero\n      tag_177\n      jumpi\n        /* \"#utility.yul\":7787:7805   */\n      tag_178\n      tag_179\n      jump\t// in\n    tag_178:\n        /* \"#utility.yul\":7700:7807   */\n    tag_177:\n        /* \"#utility.yul\":7831:7832   */\n      dup3\n        /* \"#utility.yul\":7828:7829   */\n      dup3\n        /* \"#utility.yul\":7824:7833   */\n      add\n        /* \"#utility.yul\":7817:7833   */\n      swap1\n      pop\n        /* \"#utility.yul\":7534:7839   */\n      swap3\n      swap2\n      pop\n      pop\n      jump\t// out\n        /* \"#utility.yul\":7845:7941   */\n    tag_108:\n        /* \"#utility.yul\":7882:7889   */\n      0x00\n        /* \"#utility.yul\":7911:7935   */\n      tag_181\n        /* \"#utility.yul\":7929:7934   */\n      dup3\n        /* \"#utility.yul\":7911:7935   */\n      tag_182\n      jump\t// in\n    tag_181:\n        /* \"#utility.yul\":7900:7935   */\n      swap1\n      pop\n        /* \"#utility.yul\":7845:7941   */\n      swap2\n      swap1\n      pop\n      jump\t// out\n        /* \"#utility.yul\":7947:8096   */\n    tag_112:\n        /* \"#utility.yul\":7983:7990   */\n      0x00\n        /* \"#utility.yul\":8023:8089   */\n      0xffffffff00000000000000000000000000000000000000000000000000000000\n        /* \"#utility.yul\":8016:8021   */\n      dup3\n        /* \"#utility.yul\":8012:8090   */\n      and\n        /* \"#utility.yul\":8001:8090   */\n      swap1\n      pop\n        /* \"#utility.yul\":7947:8096   */\n      swap2\n      swap1\n      pop\n      jump\t// out\n        /* \"#utility.yul\":8102:8228   */\n    tag_182:\n        /* \"#utility.yul\":8139:8146   */\n      0x00\n        /* \"#utility.yul\":8179:8221   */\n      0xffffffffffffffffffffffffffffffffffffffff\n        /* \"#utility.yul\":8172:8177   */\n      dup3\n        /* \"#utility.yul\":8168:8222   */\n      and\n        /* \"#utility.yul\":8157:8222   */\n      swap1\n      pop\n        /* \"#utility.yul\":8102:8228   */\n      swap2\n      swap1\n      pop\n      jump\t// out\n        /* \"#utility.yul\":8234:8311   */\n    tag_139:\n        /* \"#utility.yul\":8271:8278   */\n      0x00\n        /* \"#utility.yul\":8300:8305   */\n      dup2\n        /* \"#utility.yul\":8289:8305   */\n      swap1\n      pop\n        /* \"#utility.yul\":8234:8311   */\n      swap2\n      swap1\n      pop\n      jump\t// out\n        /* \"#utility.yul\":8317:8457   */\n    tag_116:\n        /* \"#utility.yul\":8381:8390   */\n      0x00\n        /* \"#utility.yul\":8414:8451   */\n      tag_187\n        /* \"#utility.yul\":8445:8450   */\n      dup3\n        /* \"#utility.yul\":8414:8451   */\n      tag_188\n      jump\t// in\n    tag_187:\n        /* \"#utility.yul\":8401:8451   */\n      swap1\n      pop\n        /* \"#utility.yul\":8317:8457   */\n      swap2\n      swap1\n      pop\n      jump\t// out\n        /* \"#utility.yul\":8463:8604   */\n    tag_120:\n        /* \"#utility.yul\":8528:8537   */\n      0x00\n        /* \"#utility.yul\":8561:8598   */\n      tag_190\n        /* \"#utility.yul\":8592:8597   */\n      dup3\n        /* \"#utility.yul\":8561:8598   */\n      tag_188\n      jump\t// in\n    tag_190:\n        /* \"#utility.yul\":8548:8598   */\n      swap1\n      pop\n        /* \"#utility.yul\":8463:8604   */\n      swap2\n      swap1\n      pop\n      jump\t// out\n        /* \"#utility.yul\":8610:8752   */\n    tag_124:\n        /* \"#utility.yul\":8676:8685   */\n      0x00\n        /* \"#utility.yul\":8709:8746   */\n      tag_192\n        /* \"#utility.yul\":8740:8745   */\n      dup3\n        /* \"#utility.yul\":8709:8746   */\n      tag_188\n      jump\t// in\n    tag_192:\n        /* \"#utility.yul\":8696:8746   */\n      swap1\n      pop\n        /* \"#utility.yul\":8610:8752   */\n      swap2\n      swap1\n      pop\n      jump\t// out\n        /* \"#utility.yul\":8758:8884   */\n    tag_188:\n        /* \"#utility.yul\":8808:8817   */\n      0x00\n        /* \"#utility.yul\":8841:8878   */\n      tag_194\n        /* \"#utility.yul\":8872:8877   */\n      dup3\n        /* \"#utility.yul\":8841:8878   */\n      tag_195\n      jump\t// in\n    tag_194:\n        /* \"#utility.yul\":8828:8878   */\n      swap1\n      pop\n        /* \"#utility.yul\":8758:8884   */\n      swap2\n      swap1\n      pop\n      jump\t// out\n        /* \"#utility.yul\":8890:9003   */\n    tag_195:\n        /* \"#utility.yul\":8940:8949   */\n      0x00\n        /* \"#utility.yul\":8973:8997   */\n      tag_197\n        /* \"#utility.yul\":8991:8996   */\n      dup3\n        /* \"#utility.yul\":8973:8997   */\n      tag_182\n      jump\t// in\n    tag_197:\n        /* \"#utility.yul\":8960:8997   */\n      swap1\n      pop\n        /* \"#utility.yul\":8890:9003   */\n      swap2\n      swap1\n      pop\n      jump\t// out\n        /* \"#utility.yul\":9009:9163   */\n    tag_75:\n        /* \"#utility.yul\":9093:9099   */\n      dup3\n        /* \"#utility.yul\":9088:9091   */\n      dup2\n        /* \"#utility.yul\":9083:9086   */\n      dup4\n        /* \"#utility.yul\":9070:9100   */\n      calldatacopy\n        /* \"#utility.yul\":9155:9156   */\n      0x00\n        /* \"#utility.yul\":9146:9152   */\n      dup4\n        /* \"#utility.yul\":9141:9144   */\n      dup4\n        /* \"#utility.yul\":9137:9153   */\n      add\n        /* \"#utility.yul\":9130:9157   */\n      mstore\n        /* \"#utility.yul\":9009:9163   */\n      pop\n      pop\n      pop\n      jump\t// out\n        /* \"#utility.yul\":9169:9450   */\n    tag_165:\n        /* \"#utility.yul\":9252:9279   */\n      tag_200\n        /* \"#utility.yul\":9274:9278   */\n      dup3\n        /* \"#utility.yul\":9252:9279   */\n      tag_172\n      jump\t// in\n    tag_200:\n        /* \"#utility.yul\":9244:9250   */\n      dup2\n        /* \"#utility.yul\":9240:9280   */\n      add\n        /* \"#utility.yul\":9382:9388   */\n      dup2\n        /* \"#utility.yul\":9370:9380   */\n      dup2\n        /* \"#utility.yul\":9367:9389   */\n      lt\n        /* \"#utility.yul\":9346:9364   */\n      0xffffffffffffffff\n        /* \"#utility.yul\":9334:9344   */\n      dup3\n        /* \"#utility.yul\":9331:9365   */\n      gt\n        /* \"#utility.yul\":9328:9390   */\n      or\n        /* \"#utility.yul\":9325:9413   */\n      iszero\n      tag_201\n      jumpi\n        /* \"#utility.yul\":9393:9411   */\n      tag_202\n      tag_170\n      jump\t// in\n    tag_202:\n        /* \"#utility.yul\":9325:9413   */\n    tag_201:\n        /* \"#utility.yul\":9433:9443   */\n      dup1\n        /* \"#utility.yul\":9429:9431   */\n      0x40\n        /* \"#utility.yul\":9422:9444   */\n      mstore\n        /* \"#utility.yul\":9212:9450   */\n      pop\n        /* \"#utility.yul\":9169:9450   */\n      pop\n      pop\n      jump\t// out\n        /* \"#utility.yul\":9456:9636   */\n    tag_179:\n        /* \"#utility.yul\":9504:9581   */\n      0x4e487b7100000000000000000000000000000000000000000000000000000000\n        /* \"#utility.yul\":9501:9502   */\n      0x00\n        /* \"#utility.yul\":9494:9582   */\n      mstore\n        /* \"#utility.yul\":9601:9605   */\n      0x11\n        /* \"#utility.yul\":9598:9599   */\n      0x04\n        /* \"#utility.yul\":9591:9606   */\n      mstore\n        /* \"#utility.yul\":9625:9629   */\n      0x24\n        /* \"#utility.yul\":9622:9623   */\n      0x00\n        /* \"#utility.yul\":9615:9630   */\n      revert\n        /* \"#utility.yul\":9642:9822   */\n    tag_170:\n        /* \"#utility.yul\":9690:9767   */\n      0x4e487b7100000000000000000000000000000000000000000000000000000000\n        /* \"#utility.yul\":9687:9688   */\n      0x00\n        /* \"#utility.yul\":9680:9768   */\n      mstore\n        /* \"#utility.yul\":9787:9791   */\n      0x41\n        /* \"#utility.yul\":9784:9785   */\n      0x04\n        /* \"#utility.yul\":9777:9792   */\n      mstore\n        /* \"#utility.yul\":9811:9815   */\n      0x24\n        /* \"#utility.yul\":9808:9809   */\n      0x00\n        /* \"#utility.yul\":9801:9816   */\n      revert\n        /* \"#utility.yul\":9828:9945   */\n    tag_84:\n        /* \"#utility.yul\":9937:9938   */\n      0x00\n        /* \"#utility.yul\":9934:9935   */\n      dup1\n        /* \"#utility.yul\":9927:9939   */\n      revert\n        /* \"#utility.yul\":9951:10068   */\n    tag_73:\n        /* \"#utility.yul\":10060:10061   */\n      0x00\n        /* \"#utility.yul\":10057:10058   */\n      dup1\n        /* \"#utility.yul\":10050:10062   */\n      revert\n        /* \"#utility.yul\":10074:10191   */\n    tag_99:\n        /* \"#utility.yul\":10183:10184   */\n      0x00\n        /* \"#utility.yul\":10180:10181   */\n      dup1\n        /* \"#utility.yul\":10173:10185   */\n      revert\n        /* \"#utility.yul\":10197:10314   */\n    tag_93:\n        /* \"#utility.yul\":10306:10307   */\n      0x00\n        /* \"#utility.yul\":10303:10304   */\n      dup1\n        /* \"#utility.yul\":10296:10308   */\n      revert\n        /* \"#utility.yul\":10320:10422   */\n    tag_172:\n        /* \"#utility.yul\":10361:10367   */\n      0x00\n        /* \"#utility.yul\":10412:10414   */\n      0x1f\n        /* \"#utility.yul\":10408:10415   */\n      not\n        /* \"#utility.yul\":10403:10405   */\n      0x1f\n        /* \"#utility.yul\":10396:10401   */\n      dup4\n        /* \"#utility.yul\":10392:10406   */\n      add\n        /* \"#utility.yul\":10388:10416   */\n      and\n        /* \"#utility.yul\":10378:10416   */\n      swap1\n      pop\n        /* \"#utility.yul\":10320:10422   */\n      swap2\n      swap1\n      pop\n      jump\t// out\n        /* \"#utility.yul\":10428:10608   */\n    tag_130:\n        /* \"#utility.yul\":10568:10600   */\n      0x4e6f7420616c6c6f77656420746f20636c61696d206f776e6572736869700000\n        /* \"#utility.yul\":10564:10565   */\n      0x00\n        /* \"#utility.yul\":10556:10562   */\n      dup3\n        /* \"#utility.yul\":10552:10566   */\n      add\n        /* \"#utility.yul\":10545:10601   */\n      mstore\n        /* \"#utility.yul\":10428:10608   */\n      pop\n      jump\t// out\n        /* \"#utility.yul\":10614:10862   */\n    tag_135:\n        /* \"#utility.yul\":10754:10788   */\n      0x546f6f206561726c7920746f20636c61696d206f776e6572736869702c20796f\n        /* \"#utility.yul\":10750:10751   */\n      0x00\n        /* \"#utility.yul\":10742:10748   */\n      dup3\n        /* \"#utility.yul\":10738:10752   */\n      add\n        /* \"#utility.yul\":10731:10789   */\n      mstore\n        /* \"#utility.yul\":10823:10854   */\n      0x752063616e2063616c6c20656d657267656e63792066756e6374696f6e000000\n        /* \"#utility.yul\":10818:10820   */\n      0x20\n        /* \"#utility.yul\":10810:10816   */\n      dup3\n        /* \"#utility.yul\":10806:10821   */\n      add\n        /* \"#utility.yul\":10799:10855   */\n      mstore\n        /* \"#utility.yul\":10614:10862   */\n      pop\n      jump\t// out\n        /* \"#utility.yul\":10868:10990   */\n    tag_79:\n        /* \"#utility.yul\":10941:10965   */\n      tag_213\n        /* \"#utility.yul\":10959:10964   */\n      dup2\n        /* \"#utility.yul\":10941:10965   */\n      tag_108\n      jump\t// in\n    tag_213:\n        /* \"#utility.yul\":10934:10939   */\n      dup2\n        /* \"#utility.yul\":10931:10966   */\n      eq\n        /* \"#utility.yul\":10921:10984   */\n      tag_214\n      jumpi\n        /* \"#utility.yul\":10980:10981   */\n      0x00\n        /* \"#utility.yul\":10977:10978   */\n      dup1\n        /* \"#utility.yul\":10970:10982   */\n      revert\n        /* \"#utility.yul\":10921:10984   */\n    tag_214:\n        /* \"#utility.yul\":10868:10990   */\n      pop\n      jump\t// out\n        /* \"#utility.yul\":10996:11118   */\n    tag_89:\n        /* \"#utility.yul\":11069:11093   */\n      tag_216\n        /* \"#utility.yul\":11087:11092   */\n      dup2\n        /* \"#utility.yul\":11069:11093   */\n      tag_139\n      jump\t// in\n    tag_216:\n        /* \"#utility.yul\":11062:11067   */\n      dup2\n        /* \"#utility.yul\":11059:11094   */\n      eq\n        /* \"#utility.yul\":11049:11112   */\n      tag_217\n      jumpi\n        /* \"#utility.yul\":11108:11109   */\n      0x00\n        /* \"#utility.yul\":11105:11106   */\n      dup1\n        /* \"#utility.yul\":11098:11110   */\n      revert\n        /* \"#utility.yul\":11049:11112   */\n    tag_217:\n        /* \"#utility.yul\":10996:11118   */\n      pop\n      jump\t// out\n\n    auxdata: 0xa26469706673582212203f9682d234de045c10868d3cb5e3b3c63a53d4a6ce32628b558eb0db895224e764736f6c63430008070033\n}\n",
				"bytecode": {
					"linkReferences": {},
					"object": "608060405234801561001057600080fd5b50604051610da6380380610da68339818101604052810190610032919061015a565b600160008190555081600260006101000a81548173ffffffffffffffffffffffffffffffffffffffff021916908373ffffffffffffffffffffffffffffffffffffffff16021790555081600360006101000a81548173ffffffffffffffffffffffffffffffffffffffff021916908373ffffffffffffffffffffffffffffffffffffffff16021790555080600160006101000a81548173ffffffffffffffffffffffffffffffffffffffff021916908373ffffffffffffffffffffffffffffffffffffffff16021790555081600460006101000a81548173ffffffffffffffffffffffffffffffffffffffff021916908373ffffffffffffffffffffffffffffffffffffffff16021790555050506101e8565b600081519050610154816101d1565b92915050565b60008060408385031215610171576101706101cc565b5b600061017f85828601610145565b925050602061019085828601610145565b9150509250929050565b60006101a5826101ac565b9050919050565b600073ffffffffffffffffffffffffffffffffffffffff82169050919050565b600080fd5b6101da8161019a565b81146101e557600080fd5b50565b610baf806101f76000396000f3fe608060405234801561001057600080fd5b50600436106100885760003560e01c806366bb863b1161005b57806366bb863b1461015257806380a5400114610170578063b8e33fb21461018e578063fead3d6e146101ac57610088565b8063012ce5011461008d578063150b7a02146100bf5780632e17de78146100ef578063472343b914610121575b600080fd5b6100a760048036038101906100a2919061069d565b6101ca565b6040516100b69392919061085a565b60405180910390f35b6100d960048036038101906100d4919061061a565b610293565b6040516100e691906107ae565b60405180910390f35b6101096004803603810190610104919061069d565b610376565b6040516101189392919061085a565b60405180910390f35b61013b6004803603810190610136919061069d565b610494565b604051610149929190610785565b60405180910390f35b61015a6104e8565b604051610167919061076a565b60405180910390f35b61017861050e565b60405161018591906107c9565b60405180910390f35b610196610534565b6040516101a391906107e4565b60405180910390f35b6101b461055a565b6040516101c191906107ff565b60405180910390f35b60008060006005600085815260200190815260200160002060009054906101000a900473ffffffffffffffffffffffffffffffffffffffff1673ffffffffffffffffffffffffffffffffffffffff163373ffffffffffffffffffffffffffffffffffffffff1614610270576040517f08c379a00000000000000000000000000000000000000000000000000000000081526004016102679061081a565b60405180910390fd5b833360066000878152602001908152602001600020549250925092509193909250565b6000600460009054906101000a900473ffffffffffffffffffffffffffffffffffffffff1673ffffffffffffffffffffffffffffffffffffffff168573ffffffffffffffffffffffffffffffffffffffff16141561036457836005600085815260200190815260200160002060006101000a81548173ffffffffffffffffffffffffffffffffffffffff021916908373ffffffffffffffffffffffffffffffffffffffff160217905550620697804261034c91906108f8565b60066000858152602001908152602001600020819055505b63150b7a0260e01b9050949350505050565b60008060006005600085815260200190815260200160002060009054906101000a900473ffffffffffffffffffffffffffffffffffffffff1673ffffffffffffffffffffffffffffffffffffffff163373ffffffffffffffffffffffffffffffffffffffff161461041c576040517f08c379a00000000000000000000000000000000000000000000000000000000081526004016104139061081a565b60405180910390fd5b60066000858152602001908152602001600020544211610471576040517f08c379a00000000000000000000000000000000000000000000000000000000081526004016104689061083a565b60405180910390fd5b833360066000878152602001908152602001600020549250925092509193909250565b6000806005600084815260200190815260200160002060009054906101000a900473ffffffffffffffffffffffffffffffffffffffff16600660008581526020019081526020016000205491509150915091565b600460009054906101000a900473ffffffffffffffffffffffffffffffffffffffff1681565b600160009054906101000a900473ffffffffffffffffffffffffffffffffffffffff1681565b600260009054906101000a900473ffffffffffffffffffffffffffffffffffffffff1681565b600360009054906101000a900473ffffffffffffffffffffffffffffffffffffffff1681565b600061059361058e846108b6565b610891565b9050828152602081018484840111156105af576105ae610ab3565b5b6105ba848285610a10565b509392505050565b6000813590506105d181610b4b565b92915050565b600082601f8301126105ec576105eb610aae565b5b81356105fc848260208601610580565b91505092915050565b60008135905061061481610b62565b92915050565b6000806000806080858703121561063457610633610abd565b5b6000610642878288016105c2565b9450506020610653878288016105c2565b935050604061066487828801610605565b925050606085013567ffffffffffffffff81111561068557610684610ab8565b5b610691878288016105d7565b91505092959194509250565b6000602082840312156106b3576106b2610abd565b5b60006106c184828501610605565b91505092915050565b6106d38161094e565b82525050565b6106e281610960565b82525050565b6106f1816109b6565b82525050565b610700816109c8565b82525050565b61070f816109da565b82525050565b6000610722601e836108e7565b915061072d82610ad3565b602082019050919050565b6000610745603d836108e7565b915061075082610afc565b604082019050919050565b610764816109ac565b82525050565b600060208201905061077f60008301846106ca565b92915050565b600060408201905061079a60008301856106ca565b6107a7602083018461075b565b9392505050565b60006020820190506107c360008301846106d9565b92915050565b60006020820190506107de60008301846106e8565b92915050565b60006020820190506107f960008301846106f7565b92915050565b60006020820190506108146000830184610706565b92915050565b6000602082019050818103600083015261083381610715565b9050919050565b6000602082019050818103600083015261085381610738565b9050919050565b600060608201905061086f600083018661075b565b61087c60208301856106ca565b610889604083018461075b565b949350505050565b600061089b6108ac565b90506108a78282610a1f565b919050565b6000604051905090565b600067ffffffffffffffff8211156108d1576108d0610a7f565b5b6108da82610ac2565b9050602081019050919050565b600082825260208201905092915050565b6000610903826109ac565b915061090e836109ac565b9250827fffffffffffffffffffffffffffffffffffffffffffffffffffffffffffffffff0382111561094357610942610a50565b5b828201905092915050565b60006109598261098c565b9050919050565b60007fffffffff0000000000000000000000000000000000000000000000000000000082169050919050565b600073ffffffffffffffffffffffffffffffffffffffff82169050919050565b6000819050919050565b60006109c1826109ec565b9050919050565b60006109d3826109ec565b9050919050565b60006109e5826109ec565b9050919050565b60006109f7826109fe565b9050919050565b6000610a098261098c565b9050919050565b82818337600083830152505050565b610a2882610ac2565b810181811067ffffffffffffffff82111715610a4757610a46610a7f565b5b80604052505050565b7f4e487b7100000000000000000000000000000000000000000000000000000000600052601160045260246000fd5b7f4e487b7100000000000000000000000000000000000000000000000000000000600052604160045260246000fd5b600080fd5b600080fd5b600080fd5b600080fd5b6000601f19601f8301169050919050565b7f4e6f7420616c6c6f77656420746f20636c61696d206f776e6572736869700000600082015250565b7f546f6f206561726c7920746f20636c61696d206f776e6572736869702c20796f60008201527f752063616e2063616c6c20656d657267656e63792066756e6374696f6e000000602082015250565b610b548161094e565b8114610b5f57600080fd5b50565b610b6b816109ac565b8114610b7657600080fd5b5056fea26469706673582212203f9682d234de045c10868d3cb5e3b3c63a53d4a6ce32628b558eb0db895224e764736f6c63430008070033",
					"opcodes": "PUSH1 0x80 PUSH1 0x40 MSTORE CALLVALUE DUP1 ISZERO PUSH2 0x10 JUMPI PUSH1 0x0 DUP1 REVERT JUMPDEST POP PUSH1 0x40 MLOAD PUSH2 0xDA6 CODESIZE SUB DUP1 PUSH2 0xDA6 DUP4 CODECOPY DUP2 DUP2 ADD PUSH1 0x40 MSTORE DUP2 ADD SWAP1 PUSH2 0x32 SWAP2 SWAP1 PUSH2 0x15A JUMP JUMPDEST PUSH1 0x1 PUSH1 0x0 DUP2 SWAP1 SSTORE POP DUP2 PUSH1 0x2 PUSH1 0x0 PUSH2 0x100 EXP DUP2 SLOAD DUP2 PUSH20 0xFFFFFFFFFFFFFFFFFFFFFFFFFFFFFFFFFFFFFFFF MUL NOT AND SWAP1 DUP4 PUSH20 0xFFFFFFFFFFFFFFFFFFFFFFFFFFFFFFFFFFFFFFFF AND MUL OR SWAP1 SSTORE POP DUP2 PUSH1 0x3 PUSH1 0x0 PUSH2 0x100 EXP DUP2 SLOAD DUP2 PUSH20 0xFFFFFFFFFFFFFFFFFFFFFFFFFFFFFFFFFFFFFFFF MUL NOT AND SWAP1 DUP4 PUSH20 0xFFFFFFFFFFFFFFFFFFFFFFFFFFFFFFFFFFFFFFFF AND MUL OR SWAP1 SSTORE POP DUP1 PUSH1 0x1 PUSH1 0x0 PUSH2 0x100 EXP DUP2 SLOAD DUP2 PUSH20 0xFFFFFFFFFFFFFFFFFFFFFFFFFFFFFFFFFFFFFFFF MUL NOT AND SWAP1 DUP4 PUSH20 0xFFFFFFFFFFFFFFFFFFFFFFFFFFFFFFFFFFFFFFFF AND MUL OR SWAP1 SSTORE POP DUP2 PUSH1 0x4 PUSH1 0x0 PUSH2 0x100 EXP DUP2 SLOAD DUP2 PUSH20 0xFFFFFFFFFFFFFFFFFFFFFFFFFFFFFFFFFFFFFFFF MUL NOT AND SWAP1 DUP4 PUSH20 0xFFFFFFFFFFFFFFFFFFFFFFFFFFFFFFFFFFFFFFFF AND MUL OR SWAP1 SSTORE POP POP POP PUSH2 0x1E8 JUMP JUMPDEST PUSH1 0x0 DUP2 MLOAD SWAP1 POP PUSH2 0x154 DUP2 PUSH2 0x1D1 JUMP JUMPDEST SWAP3 SWAP2 POP POP JUMP JUMPDEST PUSH1 0x0 DUP1 PUSH1 0x40 DUP4 DUP6 SUB SLT ISZERO PUSH2 0x171 JUMPI PUSH2 0x170 PUSH2 0x1CC JUMP JUMPDEST JUMPDEST PUSH1 0x0 PUSH2 0x17F DUP6 DUP3 DUP7 ADD PUSH2 0x145 JUMP JUMPDEST SWAP3 POP POP PUSH1 0x20 PUSH2 0x190 DUP6 DUP3 DUP7 ADD PUSH2 0x145 JUMP JUMPDEST SWAP2 POP POP SWAP3 POP SWAP3 SWAP1 POP JUMP JUMPDEST PUSH1 0x0 PUSH2 0x1A5 DUP3 PUSH2 0x1AC JUMP JUMPDEST SWAP1 POP SWAP2 SWAP1 POP JUMP JUMPDEST PUSH1 0x0 PUSH20 0xFFFFFFFFFFFFFFFFFFFFFFFFFFFFFFFFFFFFFFFF DUP3 AND SWAP1 POP SWAP2 SWAP1 POP JUMP JUMPDEST PUSH1 0x0 DUP1 REVERT JUMPDEST PUSH2 0x1DA DUP2 PUSH2 0x19A JUMP JUMPDEST DUP2 EQ PUSH2 0x1E5 JUMPI PUSH1 0x0 DUP1 REVERT JUMPDEST POP JUMP JUMPDEST PUSH2 0xBAF DUP1 PUSH2 0x1F7 PUSH1 0x0 CODECOPY PUSH1 0x0 RETURN INVALID PUSH1 0x80 PUSH1 0x40 MSTORE CALLVALUE DUP1 ISZERO PUSH2 0x10 JUMPI PUSH1 0x0 DUP1 REVERT JUMPDEST POP PUSH1 0x4 CALLDATASIZE LT PUSH2 0x88 JUMPI PUSH1 0x0 CALLDATALOAD PUSH1 0xE0 SHR DUP1 PUSH4 0x66BB863B GT PUSH2 0x5B JUMPI DUP1 PUSH4 0x66BB863B EQ PUSH2 0x152 JUMPI DUP1 PUSH4 0x80A54001 EQ PUSH2 0x170 JUMPI DUP1 PUSH4 0xB8E33FB2 EQ PUSH2 0x18E JUMPI DUP1 PUSH4 0xFEAD3D6E EQ PUSH2 0x1AC JUMPI PUSH2 0x88 JUMP JUMPDEST DUP1 PUSH4 0x12CE501 EQ PUSH2 0x8D JUMPI DUP1 PUSH4 0x150B7A02 EQ PUSH2 0xBF JUMPI DUP1 PUSH4 0x2E17DE78 EQ PUSH2 0xEF JUMPI DUP1 PUSH4 0x472343B9 EQ PUSH2 0x121 JUMPI JUMPDEST PUSH1 0x0 DUP1 REVERT JUMPDEST PUSH2 0xA7 PUSH1 0x4 DUP1 CALLDATASIZE SUB DUP2 ADD SWAP1 PUSH2 0xA2 SWAP2 SWAP1 PUSH2 0x69D JUMP JUMPDEST PUSH2 0x1CA JUMP JUMPDEST PUSH1 0x40 MLOAD PUSH2 0xB6 SWAP4 SWAP3 SWAP2 SWAP1 PUSH2 0x85A JUMP JUMPDEST PUSH1 0x40 MLOAD DUP1 SWAP2 SUB SWAP1 RETURN JUMPDEST PUSH2 0xD9 PUSH1 0x4 DUP1 CALLDATASIZE SUB DUP2 ADD SWAP1 PUSH2 0xD4 SWAP2 SWAP1 PUSH2 0x61A JUMP JUMPDEST PUSH2 0x293 JUMP JUMPDEST PUSH1 0x40 MLOAD PUSH2 0xE6 SWAP2 SWAP1 PUSH2 0x7AE JUMP JUMPDEST PUSH1 0x40 MLOAD DUP1 SWAP2 SUB SWAP1 RETURN JUMPDEST PUSH2 0x109 PUSH1 0x4 DUP1 CALLDATASIZE SUB DUP2 ADD SWAP1 PUSH2 0x104 SWAP2 SWAP1 PUSH2 0x69D JUMP JUMPDEST PUSH2 0x376 JUMP JUMPDEST PUSH1 0x40 MLOAD PUSH2 0x118 SWAP4 SWAP3 SWAP2 SWAP1 PUSH2 0x85A JUMP JUMPDEST PUSH1 0x40 MLOAD DUP1 SWAP2 SUB SWAP1 RETURN JUMPDEST PUSH2 0x13B PUSH1 0x4 DUP1 CALLDATASIZE SUB DUP2 ADD SWAP1 PUSH2 0x136 SWAP2 SWAP1 PUSH2 0x69D JUMP JUMPDEST PUSH2 0x494 JUMP JUMPDEST PUSH1 0x40 MLOAD PUSH2 0x149 SWAP3 SWAP2 SWAP1 PUSH2 0x785 JUMP JUMPDEST PUSH1 0x40 MLOAD DUP1 SWAP2 SUB SWAP1 RETURN JUMPDEST PUSH2 0x15A PUSH2 0x4E8 JUMP JUMPDEST PUSH1 0x40 MLOAD PUSH2 0x167 SWAP2 SWAP1 PUSH2 0x76A JUMP JUMPDEST PUSH1 0x40 MLOAD DUP1 SWAP2 SUB SWAP1 RETURN JUMPDEST PUSH2 0x178 PUSH2 0x50E JUMP JUMPDEST PUSH1 0x40 MLOAD PUSH2 0x185 SWAP2 SWAP1 PUSH2 0x7C9 JUMP JUMPDEST PUSH1 0x40 MLOAD DUP1 SWAP2 SUB SWAP1 RETURN JUMPDEST PUSH2 0x196 PUSH2 0x534 JUMP JUMPDEST PUSH1 0x40 MLOAD PUSH2 0x1A3 SWAP2 SWAP1 PUSH2 0x7E4 JUMP JUMPDEST PUSH1 0x40 MLOAD DUP1 SWAP2 SUB SWAP1 RETURN JUMPDEST PUSH2 0x1B4 PUSH2 0x55A JUMP JUMPDEST PUSH1 0x40 MLOAD PUSH2 0x1C1 SWAP2 SWAP1 PUSH2 0x7FF JUMP JUMPDEST PUSH1 0x40 MLOAD DUP1 SWAP2 SUB SWAP1 RETURN JUMPDEST PUSH1 0x0 DUP1 PUSH1 0x0 PUSH1 0x5 PUSH1 0x0 DUP6 DUP2 MSTORE PUSH1 0x20 ADD SWAP1 DUP2 MSTORE PUSH1 0x20 ADD PUSH1 0x0 KECCAK256 PUSH1 0x0 SWAP1 SLOAD SWAP1 PUSH2 0x100 EXP SWAP1 DIV PUSH20 0xFFFFFFFFFFFFFFFFFFFFFFFFFFFFFFFFFFFFFFFF AND PUSH20 0xFFFFFFFFFFFFFFFFFFFFFFFFFFFFFFFFFFFFFFFF AND CALLER PUSH20 0xFFFFFFFFFFFFFFFFFFFFFFFFFFFFFFFFFFFFFFFF AND EQ PUSH2 0x270 JUMPI PUSH1 0x40 MLOAD PUSH32 0x8C379A000000000000000000000000000000000000000000000000000000000 DUP2 MSTORE PUSH1 0x4 ADD PUSH2 0x267 SWAP1 PUSH2 0x81A JUMP JUMPDEST PUSH1 0x40 MLOAD DUP1 SWAP2 SUB SWAP1 REVERT JUMPDEST DUP4 CALLER PUSH1 0x6 PUSH1 0x0 DUP8 DUP2 MSTORE PUSH1 0x20 ADD SWAP1 DUP2 MSTORE PUSH1 0x20 ADD PUSH1 0x0 KECCAK256 SLOAD SWAP3 POP SWAP3 POP SWAP3 POP SWAP2 SWAP4 SWAP1 SWAP3 POP JUMP JUMPDEST PUSH1 0x0 PUSH1 0x4 PUSH1 0x0 SWAP1 SLOAD SWAP1 PUSH2 0x100 EXP SWAP1 DIV PUSH20 0xFFFFFFFFFFFFFFFFFFFFFFFFFFFFFFFFFFFFFFFF AND PUSH20 0xFFFFFFFFFFFFFFFFFFFFFFFFFFFFFFFFFFFFFFFF AND DUP6 PUSH20 0xFFFFFFFFFFFFFFFFFFFFFFFFFFFFFFFFFFFFFFFF AND EQ ISZERO PUSH2 0x364 JUMPI DUP4 PUSH1 0x5 PUSH1 0x0 DUP6 DUP2 MSTORE PUSH1 0x20 ADD SWAP1 DUP2 MSTORE PUSH1 0x20 ADD PUSH1 0x0 KECCAK256 PUSH1 0x0 PUSH2 0x100 EXP DUP2 SLOAD DUP2 PUSH20 0xFFFFFFFFFFFFFFFFFFFFFFFFFFFFFFFFFFFFFFFF MUL NOT AND SWAP1 DUP4 PUSH20 0xFFFFFFFFFFFFFFFFFFFFFFFFFFFFFFFFFFFFFFFF AND MUL OR SWAP1 SSTORE POP PUSH3 0x69780 TIMESTAMP PUSH2 0x34C SWAP2 SWAP1 PUSH2 0x8F8 JUMP JUMPDEST PUSH1 0x6 PUSH1 0x0 DUP6 DUP2 MSTORE PUSH1 0x20 ADD SWAP1 DUP2 MSTORE PUSH1 0x20 ADD PUSH1 0x0 KECCAK256 DUP2 SWAP1 SSTORE POP JUMPDEST PUSH4 0x150B7A02 PUSH1 0xE0 SHL SWAP1 POP SWAP5 SWAP4 POP POP POP POP JUMP JUMPDEST PUSH1 0x0 DUP1 PUSH1 0x0 PUSH1 0x5 PUSH1 0x0 DUP6 DUP2 MSTORE PUSH1 0x20 ADD SWAP1 DUP2 MSTORE PUSH1 0x20 ADD PUSH1 0x0 KECCAK256 PUSH1 0x0 SWAP1 SLOAD SWAP1 PUSH2 0x100 EXP SWAP1 DIV PUSH20 0xFFFFFFFFFFFFFFFFFFFFFFFFFFFFFFFFFFFFFFFF AND PUSH20 0xFFFFFFFFFFFFFFFFFFFFFFFFFFFFFFFFFFFFFFFF AND CALLER PUSH20 0xFFFFFFFFFFFFFFFFFFFFFFFFFFFFFFFFFFFFFFFF AND EQ PUSH2 0x41C JUMPI PUSH1 0x40 MLOAD PUSH32 0x8C379A000000000000000000000000000000000000000000000000000000000 DUP2 MSTORE PUSH1 0x4 ADD PUSH2 0x413 SWAP1 PUSH2 0x81A JUMP JUMPDEST PUSH1 0x40 MLOAD DUP1 SWAP2 SUB SWAP1 REVERT JUMPDEST PUSH1 0x6 PUSH1 0x0 DUP6 DUP2 MSTORE PUSH1 0x20 ADD SWAP1 DUP2 MSTORE PUSH1 0x20 ADD PUSH1 0x0 KECCAK256 SLOAD TIMESTAMP GT PUSH2 0x471 JUMPI PUSH1 0x40 MLOAD PUSH32 0x8C379A000000000000000000000000000000000000000000000000000000000 DUP2 MSTORE PUSH1 0x4 ADD PUSH2 0x468 SWAP1 PUSH2 0x83A JUMP JUMPDEST PUSH1 0x40 MLOAD DUP1 SWAP2 SUB SWAP1 REVERT JUMPDEST DUP4 CALLER PUSH1 0x6 PUSH1 0x0 DUP8 DUP2 MSTORE PUSH1 0x20 ADD SWAP1 DUP2 MSTORE PUSH1 0x20 ADD PUSH1 0x0 KECCAK256 SLOAD SWAP3 POP SWAP3 POP SWAP3 POP SWAP2 SWAP4 SWAP1 SWAP3 POP JUMP JUMPDEST PUSH1 0x0 DUP1 PUSH1 0x5 PUSH1 0x0 DUP5 DUP2 MSTORE PUSH1 0x20 ADD SWAP1 DUP2 MSTORE PUSH1 0x20 ADD PUSH1 0x0 KECCAK256 PUSH1 0x0 SWAP1 SLOAD SWAP1 PUSH2 0x100 EXP SWAP1 DIV PUSH20 0xFFFFFFFFFFFFFFFFFFFFFFFFFFFFFFFFFFFFFFFF AND PUSH1 0x6 PUSH1 0x0 DUP6 DUP2 MSTORE PUSH1 0x20 ADD SWAP1 DUP2 MSTORE PUSH1 0x20 ADD PUSH1 0x0 KECCAK256 SLOAD SWAP2 POP SWAP2 POP SWAP2 POP SWAP2 JUMP JUMPDEST PUSH1 0x4 PUSH1 0x0 SWAP1 SLOAD SWAP1 PUSH2 0x100 EXP SWAP1 DIV PUSH20 0xFFFFFFFFFFFFFFFFFFFFFFFFFFFFFFFFFFFFFFFF AND DUP2 JUMP JUMPDEST PUSH1 0x1 PUSH1 0x0 SWAP1 SLOAD SWAP1 PUSH2 0x100 EXP SWAP1 DIV PUSH20 0xFFFFFFFFFFFFFFFFFFFFFFFFFFFFFFFFFFFFFFFF AND DUP2 JUMP JUMPDEST PUSH1 0x2 PUSH1 0x0 SWAP1 SLOAD SWAP1 PUSH2 0x100 EXP SWAP1 DIV PUSH20 0xFFFFFFFFFFFFFFFFFFFFFFFFFFFFFFFFFFFFFFFF AND DUP2 JUMP JUMPDEST PUSH1 0x3 PUSH1 0x0 SWAP1 SLOAD SWAP1 PUSH2 0x100 EXP SWAP1 DIV PUSH20 0xFFFFFFFFFFFFFFFFFFFFFFFFFFFFFFFFFFFFFFFF AND DUP2 JUMP JUMPDEST PUSH1 0x0 PUSH2 0x593 PUSH2 0x58E DUP5 PUSH2 0x8B6 JUMP JUMPDEST PUSH2 0x891 JUMP JUMPDEST SWAP1 POP DUP3 DUP2 MSTORE PUSH1 0x20 DUP2 ADD DUP5 DUP5 DUP5 ADD GT ISZERO PUSH2 0x5AF JUMPI PUSH2 0x5AE PUSH2 0xAB3 JUMP JUMPDEST JUMPDEST PUSH2 0x5BA DUP5 DUP3 DUP6 PUSH2 0xA10 JUMP JUMPDEST POP SWAP4 SWAP3 POP POP POP JUMP JUMPDEST PUSH1 0x0 DUP2 CALLDATALOAD SWAP1 POP PUSH2 0x5D1 DUP2 PUSH2 0xB4B JUMP JUMPDEST SWAP3 SWAP2 POP POP JUMP JUMPDEST PUSH1 0x0 DUP3 PUSH1 0x1F DUP4 ADD SLT PUSH2 0x5EC JUMPI PUSH2 0x5EB PUSH2 0xAAE JUMP JUMPDEST JUMPDEST DUP2 CALLDATALOAD PUSH2 0x5FC DUP5 DUP3 PUSH1 0x20 DUP7 ADD PUSH2 0x580 JUMP JUMPDEST SWAP2 POP POP SWAP3 SWAP2 POP POP JUMP JUMPDEST PUSH1 0x0 DUP2 CALLDATALOAD SWAP1 POP PUSH2 0x614 DUP2 PUSH2 0xB62 JUMP JUMPDEST SWAP3 SWAP2 POP POP JUMP JUMPDEST PUSH1 0x0 DUP1 PUSH1 0x0 DUP1 PUSH1 0x80 DUP6 DUP8 SUB SLT ISZERO PUSH2 0x634 JUMPI PUSH2 0x633 PUSH2 0xABD JUMP JUMPDEST JUMPDEST PUSH1 0x0 PUSH2 0x642 DUP8 DUP3 DUP9 ADD PUSH2 0x5C2 JUMP JUMPDEST SWAP5 POP POP PUSH1 0x20 PUSH2 0x653 DUP8 DUP3 DUP9 ADD PUSH2 0x5C2 JUMP JUMPDEST SWAP4 POP POP PUSH1 0x40 PUSH2 0x664 DUP8 DUP3 DUP9 ADD PUSH2 0x605 JUMP JUMPDEST SWAP3 POP POP PUSH1 0x60 DUP6 ADD CALLDATALOAD PUSH8 0xFFFFFFFFFFFFFFFF DUP2 GT ISZERO PUSH2 0x685 JUMPI PUSH2 0x684 PUSH2 0xAB8 JUMP JUMPDEST JUMPDEST PUSH2 0x691 DUP8 DUP3 DUP9 ADD PUSH2 0x5D7 JUMP JUMPDEST SWAP2 POP POP SWAP3 SWAP6 SWAP2 SWAP5 POP SWAP3 POP JUMP JUMPDEST PUSH1 0x0 PUSH1 0x20 DUP3 DUP5 SUB SLT ISZERO PUSH2 0x6B3 JUMPI PUSH2 0x6B2 PUSH2 0xABD JUMP JUMPDEST JUMPDEST PUSH1 0x0 PUSH2 0x6C1 DUP5 DUP3 DUP6 ADD PUSH2 0x605 JUMP JUMPDEST SWAP2 POP POP SWAP3 SWAP2 POP POP JUMP JUMPDEST PUSH2 0x6D3 DUP2 PUSH2 0x94E JUMP JUMPDEST DUP3 MSTORE POP POP JUMP JUMPDEST PUSH2 0x6E2 DUP2 PUSH2 0x960 JUMP JUMPDEST DUP3 MSTORE POP POP JUMP JUMPDEST PUSH2 0x6F1 DUP2 PUSH2 0x9B6 JUMP JUMPDEST DUP3 MSTORE POP POP JUMP JUMPDEST PUSH2 0x700 DUP2 PUSH2 0x9C8 JUMP JUMPDEST DUP3 MSTORE POP POP JUMP JUMPDEST PUSH2 0x70F DUP2 PUSH2 0x9DA JUMP JUMPDEST DUP3 MSTORE POP POP JUMP JUMPDEST PUSH1 0x0 PUSH2 0x722 PUSH1 0x1E DUP4 PUSH2 0x8E7 JUMP JUMPDEST SWAP2 POP PUSH2 0x72D DUP3 PUSH2 0xAD3 JUMP JUMPDEST PUSH1 0x20 DUP3 ADD SWAP1 POP SWAP2 SWAP1 POP JUMP JUMPDEST PUSH1 0x0 PUSH2 0x745 PUSH1 0x3D DUP4 PUSH2 0x8E7 JUMP JUMPDEST SWAP2 POP PUSH2 0x750 DUP3 PUSH2 0xAFC JUMP JUMPDEST PUSH1 0x40 DUP3 ADD SWAP1 POP SWAP2 SWAP1 POP JUMP JUMPDEST PUSH2 0x764 DUP2 PUSH2 0x9AC JUMP JUMPDEST DUP3 MSTORE POP POP JUMP JUMPDEST PUSH1 0x0 PUSH1 0x20 DUP3 ADD SWAP1 POP PUSH2 0x77F PUSH1 0x0 DUP4 ADD DUP5 PUSH2 0x6CA JUMP JUMPDEST SWAP3 SWAP2 POP POP JUMP JUMPDEST PUSH1 0x0 PUSH1 0x40 DUP3 ADD SWAP1 POP PUSH2 0x79A PUSH1 0x0 DUP4 ADD DUP6 PUSH2 0x6CA JUMP JUMPDEST PUSH2 0x7A7 PUSH1 0x20 DUP4 ADD DUP5 PUSH2 0x75B JUMP JUMPDEST SWAP4 SWAP3 POP POP POP JUMP JUMPDEST PUSH1 0x0 PUSH1 0x20 DUP3 ADD SWAP1 POP PUSH2 0x7C3 PUSH1 0x0 DUP4 ADD DUP5 PUSH2 0x6D9 JUMP JUMPDEST SWAP3 SWAP2 POP POP JUMP JUMPDEST PUSH1 0x0 PUSH1 0x20 DUP3 ADD SWAP1 POP PUSH2 0x7DE PUSH1 0x0 DUP4 ADD DUP5 PUSH2 0x6E8 JUMP JUMPDEST SWAP3 SWAP2 POP POP JUMP JUMPDEST PUSH1 0x0 PUSH1 0x20 DUP3 ADD SWAP1 POP PUSH2 0x7F9 PUSH1 0x0 DUP4 ADD DUP5 PUSH2 0x6F7 JUMP JUMPDEST SWAP3 SWAP2 POP POP JUMP JUMPDEST PUSH1 0x0 PUSH1 0x20 DUP3 ADD SWAP1 POP PUSH2 0x814 PUSH1 0x0 DUP4 ADD DUP5 PUSH2 0x706 JUMP JUMPDEST SWAP3 SWAP2 POP POP JUMP JUMPDEST PUSH1 0x0 PUSH1 0x20 DUP3 ADD SWAP1 POP DUP2 DUP2 SUB PUSH1 0x0 DUP4 ADD MSTORE PUSH2 0x833 DUP2 PUSH2 0x715 JUMP JUMPDEST SWAP1 POP SWAP2 SWAP1 POP JUMP JUMPDEST PUSH1 0x0 PUSH1 0x20 DUP3 ADD SWAP1 POP DUP2 DUP2 SUB PUSH1 0x0 DUP4 ADD MSTORE PUSH2 0x853 DUP2 PUSH2 0x738 JUMP JUMPDEST SWAP1 POP SWAP2 SWAP1 POP JUMP JUMPDEST PUSH1 0x0 PUSH1 0x60 DUP3 ADD SWAP1 POP PUSH2 0x86F PUSH1 0x0 DUP4 ADD DUP7 PUSH2 0x75B JUMP JUMPDEST PUSH2 0x87C PUSH1 0x20 DUP4 ADD DUP6 PUSH2 0x6CA JUMP JUMPDEST PUSH2 0x889 PUSH1 0x40 DUP4 ADD DUP5 PUSH2 0x75B JUMP JUMPDEST SWAP5 SWAP4 POP POP POP POP JUMP JUMPDEST PUSH1 0x0 PUSH2 0x89B PUSH2 0x8AC JUMP JUMPDEST SWAP1 POP PUSH2 0x8A7 DUP3 DUP3 PUSH2 0xA1F JUMP JUMPDEST SWAP2 SWAP1 POP JUMP JUMPDEST PUSH1 0x0 PUSH1 0x40 MLOAD SWAP1 POP SWAP1 JUMP JUMPDEST PUSH1 0x0 PUSH8 0xFFFFFFFFFFFFFFFF DUP3 GT ISZERO PUSH2 0x8D1 JUMPI PUSH2 0x8D0 PUSH2 0xA7F JUMP JUMPDEST JUMPDEST PUSH2 0x8DA DUP3 PUSH2 0xAC2 JUMP JUMPDEST SWAP1 POP PUSH1 0x20 DUP2 ADD SWAP1 POP SWAP2 SWAP1 POP JUMP JUMPDEST PUSH1 0x0 DUP3 DUP3 MSTORE PUSH1 0x20 DUP3 ADD SWAP1 POP SWAP3 SWAP2 POP POP JUMP JUMPDEST PUSH1 0x0 PUSH2 0x903 DUP3 PUSH2 0x9AC JUMP JUMPDEST SWAP2 POP PUSH2 0x90E DUP4 PUSH2 0x9AC JUMP JUMPDEST SWAP3 POP DUP3 PUSH32 0xFFFFFFFFFFFFFFFFFFFFFFFFFFFFFFFFFFFFFFFFFFFFFFFFFFFFFFFFFFFFFFFF SUB DUP3 GT ISZERO PUSH2 0x943 JUMPI PUSH2 0x942 PUSH2 0xA50 JUMP JUMPDEST JUMPDEST DUP3 DUP3 ADD SWAP1 POP SWAP3 SWAP2 POP POP JUMP JUMPDEST PUSH1 0x0 PUSH2 0x959 DUP3 PUSH2 0x98C JUMP JUMPDEST SWAP1 POP SWAP2 SWAP1 POP JUMP JUMPDEST PUSH1 0x0 PUSH32 0xFFFFFFFF00000000000000000000000000000000000000000000000000000000 DUP3 AND SWAP1 POP SWAP2 SWAP1 POP JUMP JUMPDEST PUSH1 0x0 PUSH20 0xFFFFFFFFFFFFFFFFFFFFFFFFFFFFFFFFFFFFFFFF DUP3 AND SWAP1 POP SWAP2 SWAP1 POP JUMP JUMPDEST PUSH1 0x0 DUP2 SWAP1 POP SWAP2 SWAP1 POP JUMP JUMPDEST PUSH1 0x0 PUSH2 0x9C1 DUP3 PUSH2 0x9EC JUMP JUMPDEST SWAP1 POP SWAP2 SWAP1 POP JUMP JUMPDEST PUSH1 0x0 PUSH2 0x9D3 DUP3 PUSH2 0x9EC JUMP JUMPDEST SWAP1 POP SWAP2 SWAP1 POP JUMP JUMPDEST PUSH1 0x0 PUSH2 0x9E5 DUP3 PUSH2 0x9EC JUMP JUMPDEST SWAP1 POP SWAP2 SWAP1 POP JUMP JUMPDEST PUSH1 0x0 PUSH2 0x9F7 DUP3 PUSH2 0x9FE JUMP JUMPDEST SWAP1 POP SWAP2 SWAP1 POP JUMP JUMPDEST PUSH1 0x0 PUSH2 0xA09 DUP3 PUSH2 0x98C JUMP JUMPDEST SWAP1 POP SWAP2 SWAP1 POP JUMP JUMPDEST DUP3 DUP2 DUP4 CALLDATACOPY PUSH1 0x0 DUP4 DUP4 ADD MSTORE POP POP POP JUMP JUMPDEST PUSH2 0xA28 DUP3 PUSH2 0xAC2 JUMP JUMPDEST DUP2 ADD DUP2 DUP2 LT PUSH8 0xFFFFFFFFFFFFFFFF DUP3 GT OR ISZERO PUSH2 0xA47 JUMPI PUSH2 0xA46 PUSH2 0xA7F JUMP JUMPDEST JUMPDEST DUP1 PUSH1 0x40 MSTORE POP POP POP JUMP JUMPDEST PUSH32 0x4E487B7100000000000000000000000000000000000000000000000000000000 PUSH1 0x0 MSTORE PUSH1 0x11 PUSH1 0x4 MSTORE PUSH1 0x24 PUSH1 0x0 REVERT JUMPDEST PUSH32 0x4E487B7100000000000000000000000000000000000000000000000000000000 PUSH1 0x0 MSTORE PUSH1 0x41 PUSH1 0x4 MSTORE PUSH1 0x24 PUSH1 0x0 REVERT JUMPDEST PUSH1 0x0 DUP1 REVERT JUMPDEST PUSH1 0x0 DUP1 REVERT JUMPDEST PUSH1 0x0 DUP1 REVERT JUMPDEST PUSH1 0x0 DUP1 REVERT JUMPDEST PUSH1 0x0 PUSH1 0x1F NOT PUSH1 0x1F DUP4 ADD AND SWAP1 POP SWAP2 SWAP1 POP JUMP JUMPDEST PUSH32 0x4E6F7420616C6C6F77656420746F20636C61696D206F776E6572736869700000 PUSH1 0x0 DUP3 ADD MSTORE POP JUMP JUMPDEST PUSH32 0x546F6F206561726C7920746F20636C61696D206F776E6572736869702C20796F PUSH1 0x0 DUP3 ADD MSTORE PUSH32 0x752063616E2063616C6C20656D657267656E63792066756E6374696F6E000000 PUSH1 0x20 DUP3 ADD MSTORE POP JUMP JUMPDEST PUSH2 0xB54 DUP2 PUSH2 0x94E JUMP JUMPDEST DUP2 EQ PUSH2 0xB5F JUMPI PUSH1 0x0 DUP1 REVERT JUMPDEST POP JUMP JUMPDEST PUSH2 0xB6B DUP2 PUSH2 0x9AC JUMP JUMPDEST DUP2 EQ PUSH2 0xB76 JUMPI PUSH1 0x0 DUP1 REVERT JUMPDEST POP JUMP INVALID LOG2 PUSH5 0x6970667358 0x22 SLT KECCAK256 EXTCODEHASH SWAP7 DUP3 0xD2 CALLVALUE 0xDE DIV 0x5C LT DUP7 DUP14 EXTCODECOPY 0xB5 0xE3 0xB3 0xC6 GASPRICE MSTORE8 0xD4 0xA6 0xCE ORIGIN PUSH3 0x8B558E 0xB0 0xDB DUP10 MSTORE 0x24 0xE7 PUSH5 0x736F6C6343 STOP ADDMOD SMOD STOP CALLER "
				},
				"gasEstimates": {
					"creation": {
						"codeDepositCost": "598200",
						"executionCost": "infinite",
						"totalCost": "infinite"
					},
					"external": {
						"emergencyUnstake(uint256)": "infinite",
						"getStakes(uint256)": "infinite",
						"onERC721Received(address,address,uint256,bytes)": "infinite",
						"parentNFT()": "2644",
						"parentNFTAddress()": "2514",
						"parentNftFunctions()": "2666",
						"parentToken()": "2622",
						"unstake(uint256)": "infinite"
					}
				},
				"methodIdentifiers": {
					"emergencyUnstake(uint256)": "012ce501",
					"getStakes(uint256)": "472343b9",
					"onERC721Received(address,address,uint256,bytes)": "150b7a02",
					"parentNFT()": "b8e33fb2",
					"parentNFTAddress()": "66bb863b",
					"parentNftFunctions()": "fead3d6e",
					"parentToken()": "80a54001",
					"unstake(uint256)": "2e17de78"
				}
			},
			"storageLayout": {
				"storage": [
					{
						"astId": 10,
						"contract": "contracts/Missions.sol:Staking",
						"label": "_status",
						"offset": 0,
						"slot": "0",
						"type": "t_uint256"
					},
					{
						"astId": 263,
						"contract": "contracts/Missions.sol:Staking",
						"label": "parentToken",
						"offset": 0,
						"slot": "1",
						"type": "t_contract(IERC20)117"
					},
					{
						"astId": 266,
						"contract": "contracts/Missions.sol:Staking",
						"label": "parentNFT",
						"offset": 0,
						"slot": "2",
						"type": "t_contract(IERC721)233"
					},
					{
						"astId": 269,
						"contract": "contracts/Missions.sol:Staking",
						"label": "parentNftFunctions",
						"offset": 0,
						"slot": "3",
						"type": "t_contract(INFTGame)258"
					},
					{
						"astId": 271,
						"contract": "contracts/Missions.sol:Staking",
						"label": "parentNFTAddress",
						"offset": 0,
						"slot": "4",
						"type": "t_address"
					},
					{
						"astId": 305,
						"contract": "contracts/Missions.sol:Staking",
						"label": "s_stakers",
						"offset": 0,
						"slot": "5",
						"type": "t_mapping(t_uint256,t_address)"
					},
					{
						"astId": 309,
						"contract": "contracts/Missions.sol:Staking",
						"label": "s_missionTimers",
						"offset": 0,
						"slot": "6",
						"type": "t_mapping(t_uint256,t_uint256)"
					}
				],
				"types": {
					"t_address": {
						"encoding": "inplace",
						"label": "address",
						"numberOfBytes": "20"
					},
					"t_contract(IERC20)117": {
						"encoding": "inplace",
						"label": "contract IERC20",
						"numberOfBytes": "20"
					},
					"t_contract(IERC721)233": {
						"encoding": "inplace",
						"label": "contract IERC721",
						"numberOfBytes": "20"
					},
					"t_contract(INFTGame)258": {
						"encoding": "inplace",
						"label": "contract INFTGame",
						"numberOfBytes": "20"
					},
					"t_mapping(t_uint256,t_address)": {
						"encoding": "mapping",
						"key": "t_uint256",
						"label": "mapping(uint256 => address)",
						"numberOfBytes": "32",
						"value": "t_address"
					},
					"t_mapping(t_uint256,t_uint256)": {
						"encoding": "mapping",
						"key": "t_uint256",
						"label": "mapping(uint256 => uint256)",
						"numberOfBytes": "32",
						"value": "t_uint256"
					},
					"t_uint256": {
						"encoding": "inplace",
						"label": "uint256",
						"numberOfBytes": "32"
					}
				}
			},
			"userdoc": {
				"kind": "user",
				"methods": {},
				"version": 1
			}
		}
	}
}