{
	"contracts/Missions.sol": {
		"Staking": {
			"abi": [
				{
					"inputs": [
						{
							"internalType": "address",
							"name": "_nftContract",
							"type": "address"
						},
						{
							"internalType": "address",
							"name": "_tokenContract",
							"type": "address"
						}
					],
					"stateMutability": "nonpayable",
					"type": "constructor"
				},
				{
					"inputs": [
						{
							"internalType": "address",
							"name": "",
							"type": "address"
						},
						{
							"internalType": "address",
							"name": "",
							"type": "address"
						},
						{
							"internalType": "uint256",
							"name": "",
							"type": "uint256"
						},
						{
							"internalType": "bytes",
							"name": "",
							"type": "bytes"
						}
					],
					"name": "onERC721Received",
					"outputs": [
						{
							"internalType": "bytes4",
							"name": "",
							"type": "bytes4"
						}
					],
					"stateMutability": "nonpayable",
					"type": "function"
				},
				{
					"inputs": [],
					"name": "parentNFT",
					"outputs": [
						{
							"internalType": "contract IERC721",
							"name": "",
							"type": "address"
						}
					],
					"stateMutability": "view",
					"type": "function"
				},
				{
					"inputs": [],
					"name": "parentNFTAddress",
					"outputs": [
						{
							"internalType": "address",
							"name": "",
							"type": "address"
						}
					],
					"stateMutability": "view",
					"type": "function"
				},
				{
					"inputs": [],
					"name": "parentNftFunctions",
					"outputs": [
						{
							"internalType": "contract INFTGame",
							"name": "",
							"type": "address"
						}
					],
					"stateMutability": "view",
					"type": "function"
				},
				{
					"inputs": [],
					"name": "parentToken",
					"outputs": [
						{
							"internalType": "contract IERC20",
							"name": "",
							"type": "address"
						}
					],
					"stateMutability": "view",
					"type": "function"
				},
				{
					"inputs": [
						{
							"internalType": "uint256",
							"name": "_tokenID",
							"type": "uint256"
						}
					],
					"name": "stake",
					"outputs": [],
					"stateMutability": "nonpayable",
					"type": "function"
				}
			],
			"devdoc": {
				"kind": "dev",
				"methods": {},
				"version": 1
			},
			"evm": {
				"assembly": "    /* \"contracts/Missions.sol\":341:1247  contract Staking is ReentrancyGuard {\r... */\n  mstore(0x40, 0x80)\n    /* \"contracts/Missions.sol\":1026:1027  0 */\n  0x00\n    /* \"contracts/Missions.sol\":1010:1027  uint256 hello = 0 */\n  0x05\n  sstore\n    /* \"contracts/Missions.sol\":526:788  constructor(address _nftContract, address _tokenContract){\r... */\n  callvalue\n  dup1\n  iszero\n  tag_1\n  jumpi\n  0x00\n  dup1\n  revert\ntag_1:\n  pop\n  mload(0x40)\n  sub(codesize, bytecodeSize)\n  dup1\n  bytecodeSize\n  dup4\n  codecopy\n  dup2\n  dup2\n  add\n  0x40\n  mstore\n  dup2\n  add\n  swap1\n  tag_2\n  swap2\n  swap1\n  tag_3\n  jump\t// in\ntag_2:\n    /* \"@openzeppelin/contracts/security/ReentrancyGuard.sol\":1701:1702  1 */\n  0x01\n    /* \"@openzeppelin/contracts/security/ReentrancyGuard.sol\":1806:1813  _status */\n  0x00\n    /* \"@openzeppelin/contracts/security/ReentrancyGuard.sol\":1806:1828  _status = _NOT_ENTERED */\n  dup2\n  swap1\n  sstore\n  pop\n    /* \"contracts/Missions.sol\":614:626  _nftContract */\n  dup2\n    /* \"contracts/Missions.sol\":594:603  parentNFT */\n  0x02\n  0x00\n    /* \"contracts/Missions.sol\":594:627  parentNFT = IERC721(_nftContract) */\n  0x0100\n  exp\n  dup2\n  sload\n  dup2\n  0xffffffffffffffffffffffffffffffffffffffff\n  mul\n  not\n  and\n  swap1\n  dup4\n  0xffffffffffffffffffffffffffffffffffffffff\n  and\n  mul\n  or\n  swap1\n  sstore\n  pop\n    /* \"contracts/Missions.sol\":668:680  _nftContract */\n  dup2\n    /* \"contracts/Missions.sol\":638:656  parentNftFunctions */\n  0x03\n  0x00\n    /* \"contracts/Missions.sol\":638:681  parentNftFunctions = INFTGame(_nftContract) */\n  0x0100\n  exp\n  dup2\n  sload\n  dup2\n  0xffffffffffffffffffffffffffffffffffffffff\n  mul\n  not\n  and\n  swap1\n  dup4\n  0xffffffffffffffffffffffffffffffffffffffff\n  and\n  mul\n  or\n  swap1\n  sstore\n  pop\n    /* \"contracts/Missions.sol\":713:727  _tokenContract */\n  dup1\n    /* \"contracts/Missions.sol\":692:703  parentToken */\n  0x01\n  0x00\n    /* \"contracts/Missions.sol\":692:728  parentToken = IERC20(_tokenContract) */\n  0x0100\n  exp\n  dup2\n  sload\n  dup2\n  0xffffffffffffffffffffffffffffffffffffffff\n  mul\n  not\n  and\n  swap1\n  dup4\n  0xffffffffffffffffffffffffffffffffffffffff\n  and\n  mul\n  or\n  swap1\n  sstore\n  pop\n    /* \"contracts/Missions.sol\":758:770  _nftContract */\n  dup2\n    /* \"contracts/Missions.sol\":739:755  parentNFTAddress */\n  0x04\n  0x00\n    /* \"contracts/Missions.sol\":739:770  parentNFTAddress = _nftContract */\n  0x0100\n  exp\n  dup2\n  sload\n  dup2\n  0xffffffffffffffffffffffffffffffffffffffff\n  mul\n  not\n  and\n  swap1\n  dup4\n  0xffffffffffffffffffffffffffffffffffffffff\n  and\n  mul\n  or\n  swap1\n  sstore\n  pop\n    /* \"contracts/Missions.sol\":526:788  constructor(address _nftContract, address _tokenContract){\r... */\n  pop\n  pop\n    /* \"contracts/Missions.sol\":341:1247  contract Staking is ReentrancyGuard {\r... */\n  jump(tag_8)\n    /* \"#utility.yul\":7:150   */\ntag_10:\n    /* \"#utility.yul\":64:69   */\n  0x00\n    /* \"#utility.yul\":95:101   */\n  dup2\n    /* \"#utility.yul\":89:102   */\n  mload\n    /* \"#utility.yul\":80:102   */\n  swap1\n  pop\n    /* \"#utility.yul\":111:144   */\n  tag_12\n    /* \"#utility.yul\":138:143   */\n  dup2\n    /* \"#utility.yul\":111:144   */\n  tag_13\n  jump\t// in\ntag_12:\n    /* \"#utility.yul\":7:150   */\n  swap3\n  swap2\n  pop\n  pop\n  jump\t// out\n    /* \"#utility.yul\":156:663   */\ntag_3:\n    /* \"#utility.yul\":235:241   */\n  0x00\n    /* \"#utility.yul\":243:249   */\n  dup1\n    /* \"#utility.yul\":292:294   */\n  0x40\n    /* \"#utility.yul\":280:289   */\n  dup4\n    /* \"#utility.yul\":271:278   */\n  dup6\n    /* \"#utility.yul\":267:290   */\n  sub\n    /* \"#utility.yul\":263:295   */\n  slt\n    /* \"#utility.yul\":260:379   */\n  iszero\n  tag_15\n  jumpi\n    /* \"#utility.yul\":298:377   */\n  tag_16\n  tag_17\n  jump\t// in\ntag_16:\n    /* \"#utility.yul\":260:379   */\ntag_15:\n    /* \"#utility.yul\":418:419   */\n  0x00\n    /* \"#utility.yul\":443:507   */\n  tag_18\n    /* \"#utility.yul\":499:506   */\n  dup6\n    /* \"#utility.yul\":490:496   */\n  dup3\n    /* \"#utility.yul\":479:488   */\n  dup7\n    /* \"#utility.yul\":475:497   */\n  add\n    /* \"#utility.yul\":443:507   */\n  tag_10\n  jump\t// in\ntag_18:\n    /* \"#utility.yul\":433:507   */\n  swap3\n  pop\n    /* \"#utility.yul\":389:517   */\n  pop\n    /* \"#utility.yul\":556:558   */\n  0x20\n    /* \"#utility.yul\":582:646   */\n  tag_19\n    /* \"#utility.yul\":638:645   */\n  dup6\n    /* \"#utility.yul\":629:635   */\n  dup3\n    /* \"#utility.yul\":618:627   */\n  dup7\n    /* \"#utility.yul\":614:636   */\n  add\n    /* \"#utility.yul\":582:646   */\n  tag_10\n  jump\t// in\ntag_19:\n    /* \"#utility.yul\":572:646   */\n  swap2\n  pop\n    /* \"#utility.yul\":527:656   */\n  pop\n    /* \"#utility.yul\":156:663   */\n  swap3\n  pop\n  swap3\n  swap1\n  pop\n  jump\t// out\n    /* \"#utility.yul\":750:846   */\ntag_22:\n    /* \"#utility.yul\":787:794   */\n  0x00\n    /* \"#utility.yul\":816:840   */\n  tag_24\n    /* \"#utility.yul\":834:839   */\n  dup3\n    /* \"#utility.yul\":816:840   */\n  tag_25\n  jump\t// in\ntag_24:\n    /* \"#utility.yul\":805:840   */\n  swap1\n  pop\n    /* \"#utility.yul\":750:846   */\n  swap2\n  swap1\n  pop\n  jump\t// out\n    /* \"#utility.yul\":852:978   */\ntag_25:\n    /* \"#utility.yul\":889:896   */\n  0x00\n    /* \"#utility.yul\":929:971   */\n  0xffffffffffffffffffffffffffffffffffffffff\n    /* \"#utility.yul\":922:927   */\n  dup3\n    /* \"#utility.yul\":918:972   */\n  and\n    /* \"#utility.yul\":907:972   */\n  swap1\n  pop\n    /* \"#utility.yul\":852:978   */\n  swap2\n  swap1\n  pop\n  jump\t// out\n    /* \"#utility.yul\":1107:1224   */\ntag_17:\n    /* \"#utility.yul\":1216:1217   */\n  0x00\n    /* \"#utility.yul\":1213:1214   */\n  dup1\n    /* \"#utility.yul\":1206:1218   */\n  revert\n    /* \"#utility.yul\":1230:1352   */\ntag_13:\n    /* \"#utility.yul\":1303:1327   */\n  tag_31\n    /* \"#utility.yul\":1321:1326   */\n  dup2\n    /* \"#utility.yul\":1303:1327   */\n  tag_22\n  jump\t// in\ntag_31:\n    /* \"#utility.yul\":1296:1301   */\n  dup2\n    /* \"#utility.yul\":1293:1328   */\n  eq\n    /* \"#utility.yul\":1283:1346   */\n  tag_32\n  jumpi\n    /* \"#utility.yul\":1342:1343   */\n  0x00\n    /* \"#utility.yul\":1339:1340   */\n  dup1\n    /* \"#utility.yul\":1332:1344   */\n  revert\n    /* \"#utility.yul\":1283:1346   */\ntag_32:\n    /* \"#utility.yul\":1230:1352   */\n  pop\n  jump\t// out\n    /* \"contracts/Missions.sol\":341:1247  contract Staking is ReentrancyGuard {\r... */\ntag_8:\n  dataSize(sub_0)\n  dup1\n  dataOffset(sub_0)\n  0x00\n  codecopy\n  0x00\n  return\nstop\n\nsub_0: assembly {\n        /* \"contracts/Missions.sol\":341:1247  contract Staking is ReentrancyGuard {\r... */\n      mstore(0x40, 0x80)\n      callvalue\n      dup1\n      iszero\n      tag_1\n      jumpi\n      0x00\n      dup1\n      revert\n    tag_1:\n      pop\n      jumpi(tag_2, lt(calldatasize, 0x04))\n      shr(0xe0, calldataload(0x00))\n      dup1\n      0x150b7a02\n      eq\n      tag_3\n      jumpi\n      dup1\n      0x66bb863b\n      eq\n      tag_4\n      jumpi\n      dup1\n      0x80a54001\n      eq\n      tag_5\n      jumpi\n      dup1\n      0xa694fc3a\n      eq\n      tag_6\n      jumpi\n      dup1\n      0xb8e33fb2\n      eq\n      tag_7\n      jumpi\n      dup1\n      0xfead3d6e\n      eq\n      tag_8\n      jumpi\n    tag_2:\n      0x00\n      dup1\n      revert\n        /* \"contracts/Missions.sol\":1034:1209  function onERC721Received(address, address, uint256, bytes memory) public virtual returns (bytes4) {\r... */\n    tag_3:\n      tag_9\n      0x04\n      dup1\n      calldatasize\n      sub\n      dup2\n      add\n      swap1\n      tag_10\n      swap2\n      swap1\n      tag_11\n      jump\t// in\n    tag_10:\n      tag_12\n      jump\t// in\n    tag_9:\n      mload(0x40)\n      tag_13\n      swap2\n      swap1\n      tag_14\n      jump\t// in\n    tag_13:\n      mload(0x40)\n      dup1\n      swap2\n      sub\n      swap1\n      return\n        /* \"contracts/Missions.sol\":488:519  address public parentNFTAddress */\n    tag_4:\n      tag_15\n      tag_16\n      jump\t// in\n    tag_15:\n      mload(0x40)\n      tag_17\n      swap2\n      swap1\n      tag_18\n      jump\t// in\n    tag_17:\n      mload(0x40)\n      dup1\n      swap2\n      sub\n      swap1\n      return\n        /* \"contracts/Missions.sol\":384:409  IERC20 public parentToken */\n    tag_5:\n      tag_19\n      tag_20\n      jump\t// in\n    tag_19:\n      mload(0x40)\n      tag_21\n      swap2\n      swap1\n      tag_22\n      jump\t// in\n    tag_21:\n      mload(0x40)\n      dup1\n      swap2\n      sub\n      swap1\n      return\n        /* \"contracts/Missions.sol\":796:998  function stake(uint256 _tokenID) public nonReentrant() {\r... */\n    tag_6:\n      tag_23\n      0x04\n      dup1\n      calldatasize\n      sub\n      dup2\n      add\n      swap1\n      tag_24\n      swap2\n      swap1\n      tag_25\n      jump\t// in\n    tag_24:\n      tag_26\n      jump\t// in\n    tag_23:\n      stop\n        /* \"contracts/Missions.sol\":416:440  IERC721 public parentNFT */\n    tag_7:\n      tag_27\n      tag_28\n      jump\t// in\n    tag_27:\n      mload(0x40)\n      tag_29\n      swap2\n      swap1\n      tag_30\n      jump\t// in\n    tag_29:\n      mload(0x40)\n      dup1\n      swap2\n      sub\n      swap1\n      return\n        /* \"contracts/Missions.sol\":447:481  INFTGame public parentNftFunctions */\n    tag_8:\n      tag_31\n      tag_32\n      jump\t// in\n    tag_31:\n      mload(0x40)\n      tag_33\n      swap2\n      swap1\n      tag_34\n      jump\t// in\n    tag_33:\n      mload(0x40)\n      dup1\n      swap2\n      sub\n      swap1\n      return\n        /* \"contracts/Missions.sol\":1034:1209  function onERC721Received(address, address, uint256, bytes memory) public virtual returns (bytes4) {\r... */\n    tag_12:\n        /* \"contracts/Missions.sol\":1125:1131  bytes4 */\n      0x00\n        /* \"contracts/Missions.sol\":1152:1153  1 */\n      0x01\n        /* \"contracts/Missions.sol\":1144:1149  hello */\n      0x05\n        /* \"contracts/Missions.sol\":1144:1153  hello = 1 */\n      dup2\n      swap1\n      sstore\n      pop\n        /* \"contracts/Missions.sol\":1171:1201  this.onERC721Received.selector */\n      shl(0xe0, 0x150b7a02)\n        /* \"contracts/Missions.sol\":1164:1201  return this.onERC721Received.selector */\n      swap1\n      pop\n        /* \"contracts/Missions.sol\":1034:1209  function onERC721Received(address, address, uint256, bytes memory) public virtual returns (bytes4) {\r... */\n      swap5\n      swap4\n      pop\n      pop\n      pop\n      pop\n      jump\t// out\n        /* \"contracts/Missions.sol\":488:519  address public parentNFTAddress */\n    tag_16:\n      0x04\n      0x00\n      swap1\n      sload\n      swap1\n      0x0100\n      exp\n      swap1\n      div\n      0xffffffffffffffffffffffffffffffffffffffff\n      and\n      dup2\n      jump\t// out\n        /* \"contracts/Missions.sol\":384:409  IERC20 public parentToken */\n    tag_20:\n      0x01\n      0x00\n      swap1\n      sload\n      swap1\n      0x0100\n      exp\n      swap1\n      div\n      0xffffffffffffffffffffffffffffffffffffffff\n      and\n      dup2\n      jump\t// out\n        /* \"contracts/Missions.sol\":796:998  function stake(uint256 _tokenID) public nonReentrant() {\r... */\n    tag_26:\n        /* \"@openzeppelin/contracts/security/ReentrancyGuard.sol\":1744:1745  2 */\n      0x02\n        /* \"@openzeppelin/contracts/security/ReentrancyGuard.sol\":2325:2332  _status */\n      sload(0x00)\n        /* \"@openzeppelin/contracts/security/ReentrancyGuard.sol\":2325:2344  _status != _ENTERED */\n      eq\n      iszero\n        /* \"@openzeppelin/contracts/security/ReentrancyGuard.sol\":2317:2380  require(_status != _ENTERED, \"ReentrancyGuard: reentrant call\") */\n      tag_37\n      jumpi\n      mload(0x40)\n      0x08c379a000000000000000000000000000000000000000000000000000000000\n      dup2\n      mstore\n      0x04\n      add\n      tag_38\n      swap1\n      tag_39\n      jump\t// in\n    tag_38:\n      mload(0x40)\n      dup1\n      swap2\n      sub\n      swap1\n      revert\n    tag_37:\n        /* \"@openzeppelin/contracts/security/ReentrancyGuard.sol\":1744:1745  2 */\n      0x02\n        /* \"@openzeppelin/contracts/security/ReentrancyGuard.sol\":2455:2462  _status */\n      0x00\n        /* \"@openzeppelin/contracts/security/ReentrancyGuard.sol\":2455:2473  _status = _ENTERED */\n      dup2\n      swap1\n      sstore\n      pop\n        /* \"contracts/Missions.sol\":901:911  msg.sender */\n      caller\n        /* \"contracts/Missions.sol\":870:911  parentNFT.ownerOf(_tokenID) == msg.sender */\n      0xffffffffffffffffffffffffffffffffffffffff\n      and\n        /* \"contracts/Missions.sol\":870:879  parentNFT */\n      0x02\n      0x00\n      swap1\n      sload\n      swap1\n      0x0100\n      exp\n      swap1\n      div\n      0xffffffffffffffffffffffffffffffffffffffff\n      and\n        /* \"contracts/Missions.sol\":870:887  parentNFT.ownerOf */\n      0xffffffffffffffffffffffffffffffffffffffff\n      and\n      0x6352211e\n        /* \"contracts/Missions.sol\":888:896  _tokenID */\n      dup4\n        /* \"contracts/Missions.sol\":870:897  parentNFT.ownerOf(_tokenID) */\n      mload(0x40)\n      dup3\n      0xffffffff\n      and\n      0xe0\n      shl\n      dup2\n      mstore\n      0x04\n      add\n      tag_41\n      swap2\n      swap1\n      tag_42\n      jump\t// in\n    tag_41:\n      0x20\n      mload(0x40)\n      dup1\n      dup4\n      sub\n      dup2\n      dup7\n      dup1\n      extcodesize\n      iszero\n      dup1\n      iszero\n      tag_43\n      jumpi\n      0x00\n      dup1\n      revert\n    tag_43:\n      pop\n      gas\n      staticcall\n      iszero\n      dup1\n      iszero\n      tag_45\n      jumpi\n      returndatasize\n      0x00\n      dup1\n      returndatacopy\n      revert(0x00, returndatasize)\n    tag_45:\n      pop\n      pop\n      pop\n      pop\n      mload(0x40)\n      returndatasize\n      not(0x1f)\n      0x1f\n      dup3\n      add\n      and\n      dup3\n      add\n      dup1\n      0x40\n      mstore\n      pop\n      dup2\n      add\n      swap1\n      tag_46\n      swap2\n      swap1\n      tag_47\n      jump\t// in\n    tag_46:\n        /* \"contracts/Missions.sol\":870:911  parentNFT.ownerOf(_tokenID) == msg.sender */\n      0xffffffffffffffffffffffffffffffffffffffff\n      and\n      eq\n        /* \"contracts/Missions.sol\":862:925  require(parentNFT.ownerOf(_tokenID) == msg.sender, \"Not owner\") */\n      tag_48\n      jumpi\n      mload(0x40)\n      0x08c379a000000000000000000000000000000000000000000000000000000000\n      dup2\n      mstore\n      0x04\n      add\n      tag_49\n      swap1\n      tag_50\n      jump\t// in\n    tag_49:\n      mload(0x40)\n      dup1\n      swap2\n      sub\n      swap1\n      revert\n    tag_48:\n        /* \"contracts/Missions.sol\":936:945  parentNFT */\n      0x02\n      0x00\n      swap1\n      sload\n      swap1\n      0x0100\n      exp\n      swap1\n      div\n      0xffffffffffffffffffffffffffffffffffffffff\n      and\n        /* \"contracts/Missions.sol\":936:953  parentNFT.approve */\n      0xffffffffffffffffffffffffffffffffffffffff\n      and\n      0x095ea7b3\n        /* \"contracts/Missions.sol\":962:966  this */\n      address\n        /* \"contracts/Missions.sol\":969:970  1 */\n      0x01\n        /* \"contracts/Missions.sol\":936:971  parentNFT.approve(address(this), 1) */\n      mload(0x40)\n      dup4\n      0xffffffff\n      and\n      0xe0\n      shl\n      dup2\n      mstore\n      0x04\n      add\n      tag_51\n      swap3\n      swap2\n      swap1\n      tag_52\n      jump\t// in\n    tag_51:\n      0x00\n      mload(0x40)\n      dup1\n      dup4\n      sub\n      dup2\n      0x00\n      dup8\n      dup1\n      extcodesize\n      iszero\n      dup1\n      iszero\n      tag_53\n      jumpi\n      0x00\n      dup1\n      revert\n    tag_53:\n      pop\n      gas\n      call\n      iszero\n      dup1\n      iszero\n      tag_55\n      jumpi\n      returndatasize\n      0x00\n      dup1\n      returndatacopy\n      revert(0x00, returndatasize)\n    tag_55:\n      pop\n      pop\n      pop\n      pop\n        /* \"@openzeppelin/contracts/security/ReentrancyGuard.sol\":1701:1702  1 */\n      0x01\n        /* \"@openzeppelin/contracts/security/ReentrancyGuard.sol\":2628:2635  _status */\n      0x00\n        /* \"@openzeppelin/contracts/security/ReentrancyGuard.sol\":2628:2650  _status = _NOT_ENTERED */\n      dup2\n      swap1\n      sstore\n      pop\n        /* \"contracts/Missions.sol\":796:998  function stake(uint256 _tokenID) public nonReentrant() {\r... */\n      pop\n      jump\t// out\n        /* \"contracts/Missions.sol\":416:440  IERC721 public parentNFT */\n    tag_28:\n      0x02\n      0x00\n      swap1\n      sload\n      swap1\n      0x0100\n      exp\n      swap1\n      div\n      0xffffffffffffffffffffffffffffffffffffffff\n      and\n      dup2\n      jump\t// out\n        /* \"contracts/Missions.sol\":447:481  INFTGame public parentNftFunctions */\n    tag_32:\n      0x03\n      0x00\n      swap1\n      sload\n      swap1\n      0x0100\n      exp\n      swap1\n      div\n      0xffffffffffffffffffffffffffffffffffffffff\n      and\n      dup2\n      jump\t// out\n        /* \"#utility.yul\":7:417   */\n    tag_57:\n        /* \"#utility.yul\":84:89   */\n      0x00\n        /* \"#utility.yul\":109:174   */\n      tag_59\n        /* \"#utility.yul\":125:173   */\n      tag_60\n        /* \"#utility.yul\":166:172   */\n      dup5\n        /* \"#utility.yul\":125:173   */\n      tag_61\n      jump\t// in\n    tag_60:\n        /* \"#utility.yul\":109:174   */\n      tag_62\n      jump\t// in\n    tag_59:\n        /* \"#utility.yul\":100:174   */\n      swap1\n      pop\n        /* \"#utility.yul\":197:203   */\n      dup3\n        /* \"#utility.yul\":190:195   */\n      dup2\n        /* \"#utility.yul\":183:204   */\n      mstore\n        /* \"#utility.yul\":235:239   */\n      0x20\n        /* \"#utility.yul\":228:233   */\n      dup2\n        /* \"#utility.yul\":224:240   */\n      add\n        /* \"#utility.yul\":273:276   */\n      dup5\n        /* \"#utility.yul\":264:270   */\n      dup5\n        /* \"#utility.yul\":259:262   */\n      dup5\n        /* \"#utility.yul\":255:271   */\n      add\n        /* \"#utility.yul\":252:277   */\n      gt\n        /* \"#utility.yul\":249:361   */\n      iszero\n      tag_63\n      jumpi\n        /* \"#utility.yul\":280:359   */\n      tag_64\n      tag_65\n      jump\t// in\n    tag_64:\n        /* \"#utility.yul\":249:361   */\n    tag_63:\n        /* \"#utility.yul\":370:411   */\n      tag_66\n        /* \"#utility.yul\":404:410   */\n      dup5\n        /* \"#utility.yul\":399:402   */\n      dup3\n        /* \"#utility.yul\":394:397   */\n      dup6\n        /* \"#utility.yul\":370:411   */\n      tag_67\n      jump\t// in\n    tag_66:\n        /* \"#utility.yul\":90:417   */\n      pop\n        /* \"#utility.yul\":7:417   */\n      swap4\n      swap3\n      pop\n      pop\n      pop\n      jump\t// out\n        /* \"#utility.yul\":423:562   */\n    tag_68:\n        /* \"#utility.yul\":469:474   */\n      0x00\n        /* \"#utility.yul\":507:513   */\n      dup2\n        /* \"#utility.yul\":494:514   */\n      calldataload\n        /* \"#utility.yul\":485:514   */\n      swap1\n      pop\n        /* \"#utility.yul\":523:556   */\n      tag_70\n        /* \"#utility.yul\":550:555   */\n      dup2\n        /* \"#utility.yul\":523:556   */\n      tag_71\n      jump\t// in\n    tag_70:\n        /* \"#utility.yul\":423:562   */\n      swap3\n      swap2\n      pop\n      pop\n      jump\t// out\n        /* \"#utility.yul\":568:711   */\n    tag_72:\n        /* \"#utility.yul\":625:630   */\n      0x00\n        /* \"#utility.yul\":656:662   */\n      dup2\n        /* \"#utility.yul\":650:663   */\n      mload\n        /* \"#utility.yul\":641:663   */\n      swap1\n      pop\n        /* \"#utility.yul\":672:705   */\n      tag_74\n        /* \"#utility.yul\":699:704   */\n      dup2\n        /* \"#utility.yul\":672:705   */\n      tag_71\n      jump\t// in\n    tag_74:\n        /* \"#utility.yul\":568:711   */\n      swap3\n      swap2\n      pop\n      pop\n      jump\t// out\n        /* \"#utility.yul\":730:1068   */\n    tag_75:\n        /* \"#utility.yul\":785:790   */\n      0x00\n        /* \"#utility.yul\":834:837   */\n      dup3\n        /* \"#utility.yul\":827:831   */\n      0x1f\n        /* \"#utility.yul\":819:825   */\n      dup4\n        /* \"#utility.yul\":815:832   */\n      add\n        /* \"#utility.yul\":811:838   */\n      slt\n        /* \"#utility.yul\":801:923   */\n      tag_77\n      jumpi\n        /* \"#utility.yul\":842:921   */\n      tag_78\n      tag_79\n      jump\t// in\n    tag_78:\n        /* \"#utility.yul\":801:923   */\n    tag_77:\n        /* \"#utility.yul\":959:965   */\n      dup2\n        /* \"#utility.yul\":946:966   */\n      calldataload\n        /* \"#utility.yul\":984:1062   */\n      tag_80\n        /* \"#utility.yul\":1058:1061   */\n      dup5\n        /* \"#utility.yul\":1050:1056   */\n      dup3\n        /* \"#utility.yul\":1043:1047   */\n      0x20\n        /* \"#utility.yul\":1035:1041   */\n      dup7\n        /* \"#utility.yul\":1031:1048   */\n      add\n        /* \"#utility.yul\":984:1062   */\n      tag_57\n      jump\t// in\n    tag_80:\n        /* \"#utility.yul\":975:1062   */\n      swap2\n      pop\n        /* \"#utility.yul\":791:1068   */\n      pop\n        /* \"#utility.yul\":730:1068   */\n      swap3\n      swap2\n      pop\n      pop\n      jump\t// out\n        /* \"#utility.yul\":1074:1213   */\n    tag_81:\n        /* \"#utility.yul\":1120:1125   */\n      0x00\n        /* \"#utility.yul\":1158:1164   */\n      dup2\n        /* \"#utility.yul\":1145:1165   */\n      calldataload\n        /* \"#utility.yul\":1136:1165   */\n      swap1\n      pop\n        /* \"#utility.yul\":1174:1207   */\n      tag_83\n        /* \"#utility.yul\":1201:1206   */\n      dup2\n        /* \"#utility.yul\":1174:1207   */\n      tag_84\n      jump\t// in\n    tag_83:\n        /* \"#utility.yul\":1074:1213   */\n      swap3\n      swap2\n      pop\n      pop\n      jump\t// out\n        /* \"#utility.yul\":1219:1570   */\n    tag_47:\n        /* \"#utility.yul\":1289:1295   */\n      0x00\n        /* \"#utility.yul\":1338:1340   */\n      0x20\n        /* \"#utility.yul\":1326:1335   */\n      dup3\n        /* \"#utility.yul\":1317:1324   */\n      dup5\n        /* \"#utility.yul\":1313:1336   */\n      sub\n        /* \"#utility.yul\":1309:1341   */\n      slt\n        /* \"#utility.yul\":1306:1425   */\n      iszero\n      tag_86\n      jumpi\n        /* \"#utility.yul\":1344:1423   */\n      tag_87\n      tag_88\n      jump\t// in\n    tag_87:\n        /* \"#utility.yul\":1306:1425   */\n    tag_86:\n        /* \"#utility.yul\":1464:1465   */\n      0x00\n        /* \"#utility.yul\":1489:1553   */\n      tag_89\n        /* \"#utility.yul\":1545:1552   */\n      dup5\n        /* \"#utility.yul\":1536:1542   */\n      dup3\n        /* \"#utility.yul\":1525:1534   */\n      dup6\n        /* \"#utility.yul\":1521:1543   */\n      add\n        /* \"#utility.yul\":1489:1553   */\n      tag_72\n      jump\t// in\n    tag_89:\n        /* \"#utility.yul\":1479:1553   */\n      swap2\n      pop\n        /* \"#utility.yul\":1435:1563   */\n      pop\n        /* \"#utility.yul\":1219:1570   */\n      swap3\n      swap2\n      pop\n      pop\n      jump\t// out\n        /* \"#utility.yul\":1576:2519   */\n    tag_11:\n        /* \"#utility.yul\":1671:1677   */\n      0x00\n        /* \"#utility.yul\":1679:1685   */\n      dup1\n        /* \"#utility.yul\":1687:1693   */\n      0x00\n        /* \"#utility.yul\":1695:1701   */\n      dup1\n        /* \"#utility.yul\":1744:1747   */\n      0x80\n        /* \"#utility.yul\":1732:1741   */\n      dup6\n        /* \"#utility.yul\":1723:1730   */\n      dup8\n        /* \"#utility.yul\":1719:1742   */\n      sub\n        /* \"#utility.yul\":1715:1748   */\n      slt\n        /* \"#utility.yul\":1712:1832   */\n      iszero\n      tag_91\n      jumpi\n        /* \"#utility.yul\":1751:1830   */\n      tag_92\n      tag_88\n      jump\t// in\n    tag_92:\n        /* \"#utility.yul\":1712:1832   */\n    tag_91:\n        /* \"#utility.yul\":1871:1872   */\n      0x00\n        /* \"#utility.yul\":1896:1949   */\n      tag_93\n        /* \"#utility.yul\":1941:1948   */\n      dup8\n        /* \"#utility.yul\":1932:1938   */\n      dup3\n        /* \"#utility.yul\":1921:1930   */\n      dup9\n        /* \"#utility.yul\":1917:1939   */\n      add\n        /* \"#utility.yul\":1896:1949   */\n      tag_68\n      jump\t// in\n    tag_93:\n        /* \"#utility.yul\":1886:1949   */\n      swap5\n      pop\n        /* \"#utility.yul\":1842:1959   */\n      pop\n        /* \"#utility.yul\":1998:2000   */\n      0x20\n        /* \"#utility.yul\":2024:2077   */\n      tag_94\n        /* \"#utility.yul\":2069:2076   */\n      dup8\n        /* \"#utility.yul\":2060:2066   */\n      dup3\n        /* \"#utility.yul\":2049:2058   */\n      dup9\n        /* \"#utility.yul\":2045:2067   */\n      add\n        /* \"#utility.yul\":2024:2077   */\n      tag_68\n      jump\t// in\n    tag_94:\n        /* \"#utility.yul\":2014:2077   */\n      swap4\n      pop\n        /* \"#utility.yul\":1969:2087   */\n      pop\n        /* \"#utility.yul\":2126:2128   */\n      0x40\n        /* \"#utility.yul\":2152:2205   */\n      tag_95\n        /* \"#utility.yul\":2197:2204   */\n      dup8\n        /* \"#utility.yul\":2188:2194   */\n      dup3\n        /* \"#utility.yul\":2177:2186   */\n      dup9\n        /* \"#utility.yul\":2173:2195   */\n      add\n        /* \"#utility.yul\":2152:2205   */\n      tag_81\n      jump\t// in\n    tag_95:\n        /* \"#utility.yul\":2142:2205   */\n      swap3\n      pop\n        /* \"#utility.yul\":2097:2215   */\n      pop\n        /* \"#utility.yul\":2282:2284   */\n      0x60\n        /* \"#utility.yul\":2271:2280   */\n      dup6\n        /* \"#utility.yul\":2267:2285   */\n      add\n        /* \"#utility.yul\":2254:2286   */\n      calldataload\n        /* \"#utility.yul\":2313:2331   */\n      0xffffffffffffffff\n        /* \"#utility.yul\":2305:2311   */\n      dup2\n        /* \"#utility.yul\":2302:2332   */\n      gt\n        /* \"#utility.yul\":2299:2416   */\n      iszero\n      tag_96\n      jumpi\n        /* \"#utility.yul\":2335:2414   */\n      tag_97\n      tag_98\n      jump\t// in\n    tag_97:\n        /* \"#utility.yul\":2299:2416   */\n    tag_96:\n        /* \"#utility.yul\":2440:2502   */\n      tag_99\n        /* \"#utility.yul\":2494:2501   */\n      dup8\n        /* \"#utility.yul\":2485:2491   */\n      dup3\n        /* \"#utility.yul\":2474:2483   */\n      dup9\n        /* \"#utility.yul\":2470:2492   */\n      add\n        /* \"#utility.yul\":2440:2502   */\n      tag_75\n      jump\t// in\n    tag_99:\n        /* \"#utility.yul\":2430:2502   */\n      swap2\n      pop\n        /* \"#utility.yul\":2225:2512   */\n      pop\n        /* \"#utility.yul\":1576:2519   */\n      swap3\n      swap6\n      swap2\n      swap5\n      pop\n      swap3\n      pop\n      jump\t// out\n        /* \"#utility.yul\":2525:2854   */\n    tag_25:\n        /* \"#utility.yul\":2584:2590   */\n      0x00\n        /* \"#utility.yul\":2633:2635   */\n      0x20\n        /* \"#utility.yul\":2621:2630   */\n      dup3\n        /* \"#utility.yul\":2612:2619   */\n      dup5\n        /* \"#utility.yul\":2608:2631   */\n      sub\n        /* \"#utility.yul\":2604:2636   */\n      slt\n        /* \"#utility.yul\":2601:2720   */\n      iszero\n      tag_101\n      jumpi\n        /* \"#utility.yul\":2639:2718   */\n      tag_102\n      tag_88\n      jump\t// in\n    tag_102:\n        /* \"#utility.yul\":2601:2720   */\n    tag_101:\n        /* \"#utility.yul\":2759:2760   */\n      0x00\n        /* \"#utility.yul\":2784:2837   */\n      tag_103\n        /* \"#utility.yul\":2829:2836   */\n      dup5\n        /* \"#utility.yul\":2820:2826   */\n      dup3\n        /* \"#utility.yul\":2809:2818   */\n      dup6\n        /* \"#utility.yul\":2805:2827   */\n      add\n        /* \"#utility.yul\":2784:2837   */\n      tag_81\n      jump\t// in\n    tag_103:\n        /* \"#utility.yul\":2774:2837   */\n      swap2\n      pop\n        /* \"#utility.yul\":2730:2847   */\n      pop\n        /* \"#utility.yul\":2525:2854   */\n      swap3\n      swap2\n      pop\n      pop\n      jump\t// out\n        /* \"#utility.yul\":2860:2978   */\n    tag_104:\n        /* \"#utility.yul\":2947:2971   */\n      tag_106\n        /* \"#utility.yul\":2965:2970   */\n      dup2\n        /* \"#utility.yul\":2947:2971   */\n      tag_107\n      jump\t// in\n    tag_106:\n        /* \"#utility.yul\":2942:2945   */\n      dup3\n        /* \"#utility.yul\":2935:2972   */\n      mstore\n        /* \"#utility.yul\":2860:2978   */\n      pop\n      pop\n      jump\t// out\n        /* \"#utility.yul\":2984:3099   */\n    tag_108:\n        /* \"#utility.yul\":3069:3092   */\n      tag_110\n        /* \"#utility.yul\":3086:3091   */\n      dup2\n        /* \"#utility.yul\":3069:3092   */\n      tag_111\n      jump\t// in\n    tag_110:\n        /* \"#utility.yul\":3064:3067   */\n      dup3\n        /* \"#utility.yul\":3057:3093   */\n      mstore\n        /* \"#utility.yul\":2984:3099   */\n      pop\n      pop\n      jump\t// out\n        /* \"#utility.yul\":3105:3264   */\n    tag_112:\n        /* \"#utility.yul\":3206:3257   */\n      tag_114\n        /* \"#utility.yul\":3251:3256   */\n      dup2\n        /* \"#utility.yul\":3206:3257   */\n      tag_115\n      jump\t// in\n    tag_114:\n        /* \"#utility.yul\":3201:3204   */\n      dup3\n        /* \"#utility.yul\":3194:3258   */\n      mstore\n        /* \"#utility.yul\":3105:3264   */\n      pop\n      pop\n      jump\t// out\n        /* \"#utility.yul\":3270:3431   */\n    tag_116:\n        /* \"#utility.yul\":3372:3424   */\n      tag_118\n        /* \"#utility.yul\":3418:3423   */\n      dup2\n        /* \"#utility.yul\":3372:3424   */\n      tag_119\n      jump\t// in\n    tag_118:\n        /* \"#utility.yul\":3367:3370   */\n      dup3\n        /* \"#utility.yul\":3360:3425   */\n      mstore\n        /* \"#utility.yul\":3270:3431   */\n      pop\n      pop\n      jump\t// out\n        /* \"#utility.yul\":3437:3600   */\n    tag_120:\n        /* \"#utility.yul\":3540:3593   */\n      tag_122\n        /* \"#utility.yul\":3587:3592   */\n      dup2\n        /* \"#utility.yul\":3540:3593   */\n      tag_123\n      jump\t// in\n    tag_122:\n        /* \"#utility.yul\":3535:3538   */\n      dup3\n        /* \"#utility.yul\":3528:3594   */\n      mstore\n        /* \"#utility.yul\":3437:3600   */\n      pop\n      pop\n      jump\t// out\n        /* \"#utility.yul\":3606:3753   */\n    tag_124:\n        /* \"#utility.yul\":3701:3746   */\n      tag_126\n        /* \"#utility.yul\":3740:3745   */\n      dup2\n        /* \"#utility.yul\":3701:3746   */\n      tag_127\n      jump\t// in\n    tag_126:\n        /* \"#utility.yul\":3696:3699   */\n      dup3\n        /* \"#utility.yul\":3689:3747   */\n      mstore\n        /* \"#utility.yul\":3606:3753   */\n      pop\n      pop\n      jump\t// out\n        /* \"#utility.yul\":3759:4124   */\n    tag_128:\n        /* \"#utility.yul\":3901:3904   */\n      0x00\n        /* \"#utility.yul\":3922:3988   */\n      tag_130\n        /* \"#utility.yul\":3986:3987   */\n      0x09\n        /* \"#utility.yul\":3981:3984   */\n      dup4\n        /* \"#utility.yul\":3922:3988   */\n      tag_131\n      jump\t// in\n    tag_130:\n        /* \"#utility.yul\":3915:3988   */\n      swap2\n      pop\n        /* \"#utility.yul\":3997:4090   */\n      tag_132\n        /* \"#utility.yul\":4086:4089   */\n      dup3\n        /* \"#utility.yul\":3997:4090   */\n      tag_133\n      jump\t// in\n    tag_132:\n        /* \"#utility.yul\":4115:4117   */\n      0x20\n        /* \"#utility.yul\":4110:4113   */\n      dup3\n        /* \"#utility.yul\":4106:4118   */\n      add\n        /* \"#utility.yul\":4099:4118   */\n      swap1\n      pop\n        /* \"#utility.yul\":3759:4124   */\n      swap2\n      swap1\n      pop\n      jump\t// out\n        /* \"#utility.yul\":4130:4496   */\n    tag_134:\n        /* \"#utility.yul\":4272:4275   */\n      0x00\n        /* \"#utility.yul\":4293:4360   */\n      tag_136\n        /* \"#utility.yul\":4357:4359   */\n      0x1f\n        /* \"#utility.yul\":4352:4355   */\n      dup4\n        /* \"#utility.yul\":4293:4360   */\n      tag_131\n      jump\t// in\n    tag_136:\n        /* \"#utility.yul\":4286:4360   */\n      swap2\n      pop\n        /* \"#utility.yul\":4369:4462   */\n      tag_137\n        /* \"#utility.yul\":4458:4461   */\n      dup3\n        /* \"#utility.yul\":4369:4462   */\n      tag_138\n      jump\t// in\n    tag_137:\n        /* \"#utility.yul\":4487:4489   */\n      0x20\n        /* \"#utility.yul\":4482:4485   */\n      dup3\n        /* \"#utility.yul\":4478:4490   */\n      add\n        /* \"#utility.yul\":4471:4490   */\n      swap1\n      pop\n        /* \"#utility.yul\":4130:4496   */\n      swap2\n      swap1\n      pop\n      jump\t// out\n        /* \"#utility.yul\":4502:4620   */\n    tag_139:\n        /* \"#utility.yul\":4589:4613   */\n      tag_141\n        /* \"#utility.yul\":4607:4612   */\n      dup2\n        /* \"#utility.yul\":4589:4613   */\n      tag_142\n      jump\t// in\n    tag_141:\n        /* \"#utility.yul\":4584:4587   */\n      dup3\n        /* \"#utility.yul\":4577:4614   */\n      mstore\n        /* \"#utility.yul\":4502:4620   */\n      pop\n      pop\n      jump\t// out\n        /* \"#utility.yul\":4626:4848   */\n    tag_18:\n        /* \"#utility.yul\":4719:4723   */\n      0x00\n        /* \"#utility.yul\":4757:4759   */\n      0x20\n        /* \"#utility.yul\":4746:4755   */\n      dup3\n        /* \"#utility.yul\":4742:4760   */\n      add\n        /* \"#utility.yul\":4734:4760   */\n      swap1\n      pop\n        /* \"#utility.yul\":4770:4841   */\n      tag_144\n        /* \"#utility.yul\":4838:4839   */\n      0x00\n        /* \"#utility.yul\":4827:4836   */\n      dup4\n        /* \"#utility.yul\":4823:4840   */\n      add\n        /* \"#utility.yul\":4814:4820   */\n      dup5\n        /* \"#utility.yul\":4770:4841   */\n      tag_104\n      jump\t// in\n    tag_144:\n        /* \"#utility.yul\":4626:4848   */\n      swap3\n      swap2\n      pop\n      pop\n      jump\t// out\n        /* \"#utility.yul\":4854:5202   */\n    tag_52:\n        /* \"#utility.yul\":4983:4987   */\n      0x00\n        /* \"#utility.yul\":5021:5023   */\n      0x40\n        /* \"#utility.yul\":5010:5019   */\n      dup3\n        /* \"#utility.yul\":5006:5024   */\n      add\n        /* \"#utility.yul\":4998:5024   */\n      swap1\n      pop\n        /* \"#utility.yul\":5034:5105   */\n      tag_146\n        /* \"#utility.yul\":5102:5103   */\n      0x00\n        /* \"#utility.yul\":5091:5100   */\n      dup4\n        /* \"#utility.yul\":5087:5104   */\n      add\n        /* \"#utility.yul\":5078:5084   */\n      dup6\n        /* \"#utility.yul\":5034:5105   */\n      tag_104\n      jump\t// in\n    tag_146:\n        /* \"#utility.yul\":5115:5195   */\n      tag_147\n        /* \"#utility.yul\":5191:5193   */\n      0x20\n        /* \"#utility.yul\":5180:5189   */\n      dup4\n        /* \"#utility.yul\":5176:5194   */\n      add\n        /* \"#utility.yul\":5167:5173   */\n      dup5\n        /* \"#utility.yul\":5115:5195   */\n      tag_124\n      jump\t// in\n    tag_147:\n        /* \"#utility.yul\":4854:5202   */\n      swap4\n      swap3\n      pop\n      pop\n      pop\n      jump\t// out\n        /* \"#utility.yul\":5208:5426   */\n    tag_14:\n        /* \"#utility.yul\":5299:5303   */\n      0x00\n        /* \"#utility.yul\":5337:5339   */\n      0x20\n        /* \"#utility.yul\":5326:5335   */\n      dup3\n        /* \"#utility.yul\":5322:5340   */\n      add\n        /* \"#utility.yul\":5314:5340   */\n      swap1\n      pop\n        /* \"#utility.yul\":5350:5419   */\n      tag_149\n        /* \"#utility.yul\":5416:5417   */\n      0x00\n        /* \"#utility.yul\":5405:5414   */\n      dup4\n        /* \"#utility.yul\":5401:5418   */\n      add\n        /* \"#utility.yul\":5392:5398   */\n      dup5\n        /* \"#utility.yul\":5350:5419   */\n      tag_108\n      jump\t// in\n    tag_149:\n        /* \"#utility.yul\":5208:5426   */\n      swap3\n      swap2\n      pop\n      pop\n      jump\t// out\n        /* \"#utility.yul\":5432:5682   */\n    tag_22:\n        /* \"#utility.yul\":5539:5543   */\n      0x00\n        /* \"#utility.yul\":5577:5579   */\n      0x20\n        /* \"#utility.yul\":5566:5575   */\n      dup3\n        /* \"#utility.yul\":5562:5580   */\n      add\n        /* \"#utility.yul\":5554:5580   */\n      swap1\n      pop\n        /* \"#utility.yul\":5590:5675   */\n      tag_151\n        /* \"#utility.yul\":5672:5673   */\n      0x00\n        /* \"#utility.yul\":5661:5670   */\n      dup4\n        /* \"#utility.yul\":5657:5674   */\n      add\n        /* \"#utility.yul\":5648:5654   */\n      dup5\n        /* \"#utility.yul\":5590:5675   */\n      tag_112\n      jump\t// in\n    tag_151:\n        /* \"#utility.yul\":5432:5682   */\n      swap3\n      swap2\n      pop\n      pop\n      jump\t// out\n        /* \"#utility.yul\":5688:5940   */\n    tag_30:\n        /* \"#utility.yul\":5796:5800   */\n      0x00\n        /* \"#utility.yul\":5834:5836   */\n      0x20\n        /* \"#utility.yul\":5823:5832   */\n      dup3\n        /* \"#utility.yul\":5819:5837   */\n      add\n        /* \"#utility.yul\":5811:5837   */\n      swap1\n      pop\n        /* \"#utility.yul\":5847:5933   */\n      tag_153\n        /* \"#utility.yul\":5930:5931   */\n      0x00\n        /* \"#utility.yul\":5919:5928   */\n      dup4\n        /* \"#utility.yul\":5915:5932   */\n      add\n        /* \"#utility.yul\":5906:5912   */\n      dup5\n        /* \"#utility.yul\":5847:5933   */\n      tag_116\n      jump\t// in\n    tag_153:\n        /* \"#utility.yul\":5688:5940   */\n      swap3\n      swap2\n      pop\n      pop\n      jump\t// out\n        /* \"#utility.yul\":5946:6200   */\n    tag_34:\n        /* \"#utility.yul\":6055:6059   */\n      0x00\n        /* \"#utility.yul\":6093:6095   */\n      0x20\n        /* \"#utility.yul\":6082:6091   */\n      dup3\n        /* \"#utility.yul\":6078:6096   */\n      add\n        /* \"#utility.yul\":6070:6096   */\n      swap1\n      pop\n        /* \"#utility.yul\":6106:6193   */\n      tag_155\n        /* \"#utility.yul\":6190:6191   */\n      0x00\n        /* \"#utility.yul\":6179:6188   */\n      dup4\n        /* \"#utility.yul\":6175:6192   */\n      add\n        /* \"#utility.yul\":6166:6172   */\n      dup5\n        /* \"#utility.yul\":6106:6193   */\n      tag_120\n      jump\t// in\n    tag_155:\n        /* \"#utility.yul\":5946:6200   */\n      swap3\n      swap2\n      pop\n      pop\n      jump\t// out\n        /* \"#utility.yul\":6206:6625   */\n    tag_50:\n        /* \"#utility.yul\":6372:6376   */\n      0x00\n        /* \"#utility.yul\":6410:6412   */\n      0x20\n        /* \"#utility.yul\":6399:6408   */\n      dup3\n        /* \"#utility.yul\":6395:6413   */\n      add\n        /* \"#utility.yul\":6387:6413   */\n      swap1\n      pop\n        /* \"#utility.yul\":6459:6468   */\n      dup2\n        /* \"#utility.yul\":6453:6457   */\n      dup2\n        /* \"#utility.yul\":6449:6469   */\n      sub\n        /* \"#utility.yul\":6445:6446   */\n      0x00\n        /* \"#utility.yul\":6434:6443   */\n      dup4\n        /* \"#utility.yul\":6430:6447   */\n      add\n        /* \"#utility.yul\":6423:6470   */\n      mstore\n        /* \"#utility.yul\":6487:6618   */\n      tag_157\n        /* \"#utility.yul\":6613:6617   */\n      dup2\n        /* \"#utility.yul\":6487:6618   */\n      tag_128\n      jump\t// in\n    tag_157:\n        /* \"#utility.yul\":6479:6618   */\n      swap1\n      pop\n        /* \"#utility.yul\":6206:6625   */\n      swap2\n      swap1\n      pop\n      jump\t// out\n        /* \"#utility.yul\":6631:7050   */\n    tag_39:\n        /* \"#utility.yul\":6797:6801   */\n      0x00\n        /* \"#utility.yul\":6835:6837   */\n      0x20\n        /* \"#utility.yul\":6824:6833   */\n      dup3\n        /* \"#utility.yul\":6820:6838   */\n      add\n        /* \"#utility.yul\":6812:6838   */\n      swap1\n      pop\n        /* \"#utility.yul\":6884:6893   */\n      dup2\n        /* \"#utility.yul\":6878:6882   */\n      dup2\n        /* \"#utility.yul\":6874:6894   */\n      sub\n        /* \"#utility.yul\":6870:6871   */\n      0x00\n        /* \"#utility.yul\":6859:6868   */\n      dup4\n        /* \"#utility.yul\":6855:6872   */\n      add\n        /* \"#utility.yul\":6848:6895   */\n      mstore\n        /* \"#utility.yul\":6912:7043   */\n      tag_159\n        /* \"#utility.yul\":7038:7042   */\n      dup2\n        /* \"#utility.yul\":6912:7043   */\n      tag_134\n      jump\t// in\n    tag_159:\n        /* \"#utility.yul\":6904:7043   */\n      swap1\n      pop\n        /* \"#utility.yul\":6631:7050   */\n      swap2\n      swap1\n      pop\n      jump\t// out\n        /* \"#utility.yul\":7056:7278   */\n    tag_42:\n        /* \"#utility.yul\":7149:7153   */\n      0x00\n        /* \"#utility.yul\":7187:7189   */\n      0x20\n        /* \"#utility.yul\":7176:7185   */\n      dup3\n        /* \"#utility.yul\":7172:7190   */\n      add\n        /* \"#utility.yul\":7164:7190   */\n      swap1\n      pop\n        /* \"#utility.yul\":7200:7271   */\n      tag_161\n        /* \"#utility.yul\":7268:7269   */\n      0x00\n        /* \"#utility.yul\":7257:7266   */\n      dup4\n        /* \"#utility.yul\":7253:7270   */\n      add\n        /* \"#utility.yul\":7244:7250   */\n      dup5\n        /* \"#utility.yul\":7200:7271   */\n      tag_139\n      jump\t// in\n    tag_161:\n        /* \"#utility.yul\":7056:7278   */\n      swap3\n      swap2\n      pop\n      pop\n      jump\t// out\n        /* \"#utility.yul\":7284:7413   */\n    tag_62:\n        /* \"#utility.yul\":7318:7324   */\n      0x00\n        /* \"#utility.yul\":7345:7365   */\n      tag_163\n      tag_164\n      jump\t// in\n    tag_163:\n        /* \"#utility.yul\":7335:7365   */\n      swap1\n      pop\n        /* \"#utility.yul\":7374:7407   */\n      tag_165\n        /* \"#utility.yul\":7402:7406   */\n      dup3\n        /* \"#utility.yul\":7394:7400   */\n      dup3\n        /* \"#utility.yul\":7374:7407   */\n      tag_166\n      jump\t// in\n    tag_165:\n        /* \"#utility.yul\":7284:7413   */\n      swap2\n      swap1\n      pop\n      jump\t// out\n        /* \"#utility.yul\":7419:7494   */\n    tag_164:\n        /* \"#utility.yul\":7452:7458   */\n      0x00\n        /* \"#utility.yul\":7485:7487   */\n      0x40\n        /* \"#utility.yul\":7479:7488   */\n      mload\n        /* \"#utility.yul\":7469:7488   */\n      swap1\n      pop\n        /* \"#utility.yul\":7419:7494   */\n      swap1\n      jump\t// out\n        /* \"#utility.yul\":7500:7807   */\n    tag_61:\n        /* \"#utility.yul\":7561:7565   */\n      0x00\n        /* \"#utility.yul\":7651:7669   */\n      0xffffffffffffffff\n        /* \"#utility.yul\":7643:7649   */\n      dup3\n        /* \"#utility.yul\":7640:7670   */\n      gt\n        /* \"#utility.yul\":7637:7693   */\n      iszero\n      tag_169\n      jumpi\n        /* \"#utility.yul\":7673:7691   */\n      tag_170\n      tag_171\n      jump\t// in\n    tag_170:\n        /* \"#utility.yul\":7637:7693   */\n    tag_169:\n        /* \"#utility.yul\":7711:7740   */\n      tag_172\n        /* \"#utility.yul\":7733:7739   */\n      dup3\n        /* \"#utility.yul\":7711:7740   */\n      tag_173\n      jump\t// in\n    tag_172:\n        /* \"#utility.yul\":7703:7740   */\n      swap1\n      pop\n        /* \"#utility.yul\":7795:7799   */\n      0x20\n        /* \"#utility.yul\":7789:7793   */\n      dup2\n        /* \"#utility.yul\":7785:7800   */\n      add\n        /* \"#utility.yul\":7777:7800   */\n      swap1\n      pop\n        /* \"#utility.yul\":7500:7807   */\n      swap2\n      swap1\n      pop\n      jump\t// out\n        /* \"#utility.yul\":7813:7982   */\n    tag_131:\n        /* \"#utility.yul\":7897:7908   */\n      0x00\n        /* \"#utility.yul\":7931:7937   */\n      dup3\n        /* \"#utility.yul\":7926:7929   */\n      dup3\n        /* \"#utility.yul\":7919:7938   */\n      mstore\n        /* \"#utility.yul\":7971:7975   */\n      0x20\n        /* \"#utility.yul\":7966:7969   */\n      dup3\n        /* \"#utility.yul\":7962:7976   */\n      add\n        /* \"#utility.yul\":7947:7976   */\n      swap1\n      pop\n        /* \"#utility.yul\":7813:7982   */\n      swap3\n      swap2\n      pop\n      pop\n      jump\t// out\n        /* \"#utility.yul\":7988:8084   */\n    tag_107:\n        /* \"#utility.yul\":8025:8032   */\n      0x00\n        /* \"#utility.yul\":8054:8078   */\n      tag_176\n        /* \"#utility.yul\":8072:8077   */\n      dup3\n        /* \"#utility.yul\":8054:8078   */\n      tag_177\n      jump\t// in\n    tag_176:\n        /* \"#utility.yul\":8043:8078   */\n      swap1\n      pop\n        /* \"#utility.yul\":7988:8084   */\n      swap2\n      swap1\n      pop\n      jump\t// out\n        /* \"#utility.yul\":8090:8239   */\n    tag_111:\n        /* \"#utility.yul\":8126:8133   */\n      0x00\n        /* \"#utility.yul\":8166:8232   */\n      0xffffffff00000000000000000000000000000000000000000000000000000000\n        /* \"#utility.yul\":8159:8164   */\n      dup3\n        /* \"#utility.yul\":8155:8233   */\n      and\n        /* \"#utility.yul\":8144:8233   */\n      swap1\n      pop\n        /* \"#utility.yul\":8090:8239   */\n      swap2\n      swap1\n      pop\n      jump\t// out\n        /* \"#utility.yul\":8245:8371   */\n    tag_177:\n        /* \"#utility.yul\":8282:8289   */\n      0x00\n        /* \"#utility.yul\":8322:8364   */\n      0xffffffffffffffffffffffffffffffffffffffff\n        /* \"#utility.yul\":8315:8320   */\n      dup3\n        /* \"#utility.yul\":8311:8365   */\n      and\n        /* \"#utility.yul\":8300:8365   */\n      swap1\n      pop\n        /* \"#utility.yul\":8245:8371   */\n      swap2\n      swap1\n      pop\n      jump\t// out\n        /* \"#utility.yul\":8377:8454   */\n    tag_142:\n        /* \"#utility.yul\":8414:8421   */\n      0x00\n        /* \"#utility.yul\":8443:8448   */\n      dup2\n        /* \"#utility.yul\":8432:8448   */\n      swap1\n      pop\n        /* \"#utility.yul\":8377:8454   */\n      swap2\n      swap1\n      pop\n      jump\t// out\n        /* \"#utility.yul\":8460:8600   */\n    tag_115:\n        /* \"#utility.yul\":8524:8533   */\n      0x00\n        /* \"#utility.yul\":8557:8594   */\n      tag_182\n        /* \"#utility.yul\":8588:8593   */\n      dup3\n        /* \"#utility.yul\":8557:8594   */\n      tag_183\n      jump\t// in\n    tag_182:\n        /* \"#utility.yul\":8544:8594   */\n      swap1\n      pop\n        /* \"#utility.yul\":8460:8600   */\n      swap2\n      swap1\n      pop\n      jump\t// out\n        /* \"#utility.yul\":8606:8747   */\n    tag_119:\n        /* \"#utility.yul\":8671:8680   */\n      0x00\n        /* \"#utility.yul\":8704:8741   */\n      tag_185\n        /* \"#utility.yul\":8735:8740   */\n      dup3\n        /* \"#utility.yul\":8704:8741   */\n      tag_183\n      jump\t// in\n    tag_185:\n        /* \"#utility.yul\":8691:8741   */\n      swap1\n      pop\n        /* \"#utility.yul\":8606:8747   */\n      swap2\n      swap1\n      pop\n      jump\t// out\n        /* \"#utility.yul\":8753:8895   */\n    tag_123:\n        /* \"#utility.yul\":8819:8828   */\n      0x00\n        /* \"#utility.yul\":8852:8889   */\n      tag_187\n        /* \"#utility.yul\":8883:8888   */\n      dup3\n        /* \"#utility.yul\":8852:8889   */\n      tag_183\n      jump\t// in\n    tag_187:\n        /* \"#utility.yul\":8839:8889   */\n      swap1\n      pop\n        /* \"#utility.yul\":8753:8895   */\n      swap2\n      swap1\n      pop\n      jump\t// out\n        /* \"#utility.yul\":8901:9022   */\n    tag_127:\n        /* \"#utility.yul\":8959:8968   */\n      0x00\n        /* \"#utility.yul\":8992:9016   */\n      tag_189\n        /* \"#utility.yul\":9010:9015   */\n      dup3\n        /* \"#utility.yul\":8992:9016   */\n      tag_142\n      jump\t// in\n    tag_189:\n        /* \"#utility.yul\":8979:9016   */\n      swap1\n      pop\n        /* \"#utility.yul\":8901:9022   */\n      swap2\n      swap1\n      pop\n      jump\t// out\n        /* \"#utility.yul\":9028:9154   */\n    tag_183:\n        /* \"#utility.yul\":9078:9087   */\n      0x00\n        /* \"#utility.yul\":9111:9148   */\n      tag_191\n        /* \"#utility.yul\":9142:9147   */\n      dup3\n        /* \"#utility.yul\":9111:9148   */\n      tag_192\n      jump\t// in\n    tag_191:\n        /* \"#utility.yul\":9098:9148   */\n      swap1\n      pop\n        /* \"#utility.yul\":9028:9154   */\n      swap2\n      swap1\n      pop\n      jump\t// out\n        /* \"#utility.yul\":9160:9273   */\n    tag_192:\n        /* \"#utility.yul\":9210:9219   */\n      0x00\n        /* \"#utility.yul\":9243:9267   */\n      tag_194\n        /* \"#utility.yul\":9261:9266   */\n      dup3\n        /* \"#utility.yul\":9243:9267   */\n      tag_177\n      jump\t// in\n    tag_194:\n        /* \"#utility.yul\":9230:9267   */\n      swap1\n      pop\n        /* \"#utility.yul\":9160:9273   */\n      swap2\n      swap1\n      pop\n      jump\t// out\n        /* \"#utility.yul\":9279:9433   */\n    tag_67:\n        /* \"#utility.yul\":9363:9369   */\n      dup3\n        /* \"#utility.yul\":9358:9361   */\n      dup2\n        /* \"#utility.yul\":9353:9356   */\n      dup4\n        /* \"#utility.yul\":9340:9370   */\n      calldatacopy\n        /* \"#utility.yul\":9425:9426   */\n      0x00\n        /* \"#utility.yul\":9416:9422   */\n      dup4\n        /* \"#utility.yul\":9411:9414   */\n      dup4\n        /* \"#utility.yul\":9407:9423   */\n      add\n        /* \"#utility.yul\":9400:9427   */\n      mstore\n        /* \"#utility.yul\":9279:9433   */\n      pop\n      pop\n      pop\n      jump\t// out\n        /* \"#utility.yul\":9439:9720   */\n    tag_166:\n        /* \"#utility.yul\":9522:9549   */\n      tag_197\n        /* \"#utility.yul\":9544:9548   */\n      dup3\n        /* \"#utility.yul\":9522:9549   */\n      tag_173\n      jump\t// in\n    tag_197:\n        /* \"#utility.yul\":9514:9520   */\n      dup2\n        /* \"#utility.yul\":9510:9550   */\n      add\n        /* \"#utility.yul\":9652:9658   */\n      dup2\n        /* \"#utility.yul\":9640:9650   */\n      dup2\n        /* \"#utility.yul\":9637:9659   */\n      lt\n        /* \"#utility.yul\":9616:9634   */\n      0xffffffffffffffff\n        /* \"#utility.yul\":9604:9614   */\n      dup3\n        /* \"#utility.yul\":9601:9635   */\n      gt\n        /* \"#utility.yul\":9598:9660   */\n      or\n        /* \"#utility.yul\":9595:9683   */\n      iszero\n      tag_198\n      jumpi\n        /* \"#utility.yul\":9663:9681   */\n      tag_199\n      tag_171\n      jump\t// in\n    tag_199:\n        /* \"#utility.yul\":9595:9683   */\n    tag_198:\n        /* \"#utility.yul\":9703:9713   */\n      dup1\n        /* \"#utility.yul\":9699:9701   */\n      0x40\n        /* \"#utility.yul\":9692:9714   */\n      mstore\n        /* \"#utility.yul\":9482:9720   */\n      pop\n        /* \"#utility.yul\":9439:9720   */\n      pop\n      pop\n      jump\t// out\n        /* \"#utility.yul\":9726:9906   */\n    tag_171:\n        /* \"#utility.yul\":9774:9851   */\n      0x4e487b7100000000000000000000000000000000000000000000000000000000\n        /* \"#utility.yul\":9771:9772   */\n      0x00\n        /* \"#utility.yul\":9764:9852   */\n      mstore\n        /* \"#utility.yul\":9871:9875   */\n      0x41\n        /* \"#utility.yul\":9868:9869   */\n      0x04\n        /* \"#utility.yul\":9861:9876   */\n      mstore\n        /* \"#utility.yul\":9895:9899   */\n      0x24\n        /* \"#utility.yul\":9892:9893   */\n      0x00\n        /* \"#utility.yul\":9885:9900   */\n      revert\n        /* \"#utility.yul\":9912:10029   */\n    tag_79:\n        /* \"#utility.yul\":10021:10022   */\n      0x00\n        /* \"#utility.yul\":10018:10019   */\n      dup1\n        /* \"#utility.yul\":10011:10023   */\n      revert\n        /* \"#utility.yul\":10035:10152   */\n    tag_65:\n        /* \"#utility.yul\":10144:10145   */\n      0x00\n        /* \"#utility.yul\":10141:10142   */\n      dup1\n        /* \"#utility.yul\":10134:10146   */\n      revert\n        /* \"#utility.yul\":10158:10275   */\n    tag_98:\n        /* \"#utility.yul\":10267:10268   */\n      0x00\n        /* \"#utility.yul\":10264:10265   */\n      dup1\n        /* \"#utility.yul\":10257:10269   */\n      revert\n        /* \"#utility.yul\":10281:10398   */\n    tag_88:\n        /* \"#utility.yul\":10390:10391   */\n      0x00\n        /* \"#utility.yul\":10387:10388   */\n      dup1\n        /* \"#utility.yul\":10380:10392   */\n      revert\n        /* \"#utility.yul\":10404:10506   */\n    tag_173:\n        /* \"#utility.yul\":10445:10451   */\n      0x00\n        /* \"#utility.yul\":10496:10498   */\n      0x1f\n        /* \"#utility.yul\":10492:10499   */\n      not\n        /* \"#utility.yul\":10487:10489   */\n      0x1f\n        /* \"#utility.yul\":10480:10485   */\n      dup4\n        /* \"#utility.yul\":10476:10490   */\n      add\n        /* \"#utility.yul\":10472:10500   */\n      and\n        /* \"#utility.yul\":10462:10500   */\n      swap1\n      pop\n        /* \"#utility.yul\":10404:10506   */\n      swap2\n      swap1\n      pop\n      jump\t// out\n        /* \"#utility.yul\":10512:10671   */\n    tag_133:\n        /* \"#utility.yul\":10652:10663   */\n      0x4e6f74206f776e65720000000000000000000000000000000000000000000000\n        /* \"#utility.yul\":10648:10649   */\n      0x00\n        /* \"#utility.yul\":10640:10646   */\n      dup3\n        /* \"#utility.yul\":10636:10650   */\n      add\n        /* \"#utility.yul\":10629:10664   */\n      mstore\n        /* \"#utility.yul\":10512:10671   */\n      pop\n      jump\t// out\n        /* \"#utility.yul\":10677:10858   */\n    tag_138:\n        /* \"#utility.yul\":10817:10850   */\n      0x5265656e7472616e637947756172643a207265656e7472616e742063616c6c00\n        /* \"#utility.yul\":10813:10814   */\n      0x00\n        /* \"#utility.yul\":10805:10811   */\n      dup3\n        /* \"#utility.yul\":10801:10815   */\n      add\n        /* \"#utility.yul\":10794:10851   */\n      mstore\n        /* \"#utility.yul\":10677:10858   */\n      pop\n      jump\t// out\n        /* \"#utility.yul\":10864:10986   */\n    tag_71:\n        /* \"#utility.yul\":10937:10961   */\n      tag_209\n        /* \"#utility.yul\":10955:10960   */\n      dup2\n        /* \"#utility.yul\":10937:10961   */\n      tag_107\n      jump\t// in\n    tag_209:\n        /* \"#utility.yul\":10930:10935   */\n      dup2\n        /* \"#utility.yul\":10927:10962   */\n      eq\n        /* \"#utility.yul\":10917:10980   */\n      tag_210\n      jumpi\n        /* \"#utility.yul\":10976:10977   */\n      0x00\n        /* \"#utility.yul\":10973:10974   */\n      dup1\n        /* \"#utility.yul\":10966:10978   */\n      revert\n        /* \"#utility.yul\":10917:10980   */\n    tag_210:\n        /* \"#utility.yul\":10864:10986   */\n      pop\n      jump\t// out\n        /* \"#utility.yul\":10992:11114   */\n    tag_84:\n        /* \"#utility.yul\":11065:11089   */\n      tag_212\n        /* \"#utility.yul\":11083:11088   */\n      dup2\n        /* \"#utility.yul\":11065:11089   */\n      tag_142\n      jump\t// in\n    tag_212:\n        /* \"#utility.yul\":11058:11063   */\n      dup2\n        /* \"#utility.yul\":11055:11090   */\n      eq\n        /* \"#utility.yul\":11045:11108   */\n      tag_213\n      jumpi\n        /* \"#utility.yul\":11104:11105   */\n      0x00\n        /* \"#utility.yul\":11101:11102   */\n      dup1\n        /* \"#utility.yul\":11094:11106   */\n      revert\n        /* \"#utility.yul\":11045:11108   */\n    tag_213:\n        /* \"#utility.yul\":10992:11114   */\n      pop\n      jump\t// out\n\n    auxdata: 0xa26469706673582212200db87c230d97154b218530edc9af852f3ac340517f7b141d73cc43539188918564736f6c63430008070033\n}\n",
				"bytecode": {
					"linkReferences": {},
					"object": "6080604052600060055534801561001557600080fd5b50604051610ba7380380610ba78339818101604052810190610037919061015f565b600160008190555081600260006101000a81548173ffffffffffffffffffffffffffffffffffffffff021916908373ffffffffffffffffffffffffffffffffffffffff16021790555081600360006101000a81548173ffffffffffffffffffffffffffffffffffffffff021916908373ffffffffffffffffffffffffffffffffffffffff16021790555080600160006101000a81548173ffffffffffffffffffffffffffffffffffffffff021916908373ffffffffffffffffffffffffffffffffffffffff16021790555081600460006101000a81548173ffffffffffffffffffffffffffffffffffffffff021916908373ffffffffffffffffffffffffffffffffffffffff16021790555050506101ed565b600081519050610159816101d6565b92915050565b60008060408385031215610176576101756101d1565b5b60006101848582860161014a565b92505060206101958582860161014a565b9150509250929050565b60006101aa826101b1565b9050919050565b600073ffffffffffffffffffffffffffffffffffffffff82169050919050565b600080fd5b6101df8161019f565b81146101ea57600080fd5b50565b6109ab806101fc6000396000f3fe608060405234801561001057600080fd5b50600436106100625760003560e01c8063150b7a021461006757806366bb863b1461009757806380a54001146100b5578063a694fc3a146100d3578063b8e33fb2146100ef578063fead3d6e1461010d575b600080fd5b610081600480360381019061007c91906104bc565b61012b565b60405161008e919061065f565b60405180910390f35b61009f610147565b6040516100ac919061061b565b60405180910390f35b6100bd61016d565b6040516100ca919061067a565b60405180910390f35b6100ed60048036038101906100e8919061053f565b610193565b005b6100f7610394565b6040516101049190610695565b60405180910390f35b6101156103ba565b60405161012291906106b0565b60405180910390f35b6000600160058190555063150b7a0260e01b9050949350505050565b600460009054906101000a900473ffffffffffffffffffffffffffffffffffffffff1681565b600160009054906101000a900473ffffffffffffffffffffffffffffffffffffffff1681565b600260005414156101d9576040517f08c379a00000000000000000000000000000000000000000000000000000000081526004016101d0906106eb565b60405180910390fd5b60026000819055503373ffffffffffffffffffffffffffffffffffffffff16600260009054906101000a900473ffffffffffffffffffffffffffffffffffffffff1673ffffffffffffffffffffffffffffffffffffffff16636352211e836040518263ffffffff1660e01b8152600401610253919061070b565b60206040518083038186803b15801561026b57600080fd5b505afa15801561027f573d6000803e3d6000fd5b505050506040513d601f19601f820116820180604052508101906102a3919061048f565b73ffffffffffffffffffffffffffffffffffffffff16146102f9576040517f08c379a00000000000000000000000000000000000000000000000000000000081526004016102f0906106cb565b60405180910390fd5b600260009054906101000a900473ffffffffffffffffffffffffffffffffffffffff1673ffffffffffffffffffffffffffffffffffffffff1663095ea7b33060016040518363ffffffff1660e01b8152600401610357929190610636565b600060405180830381600087803b15801561037157600080fd5b505af1158015610385573d6000803e3d6000fd5b50505050600160008190555050565b600260009054906101000a900473ffffffffffffffffffffffffffffffffffffffff1681565b600360009054906101000a900473ffffffffffffffffffffffffffffffffffffffff1681565b60006103f36103ee8461074b565b610726565b90508281526020810184848401111561040f5761040e6108d5565b5b61041a848285610861565b509392505050565b60008135905061043181610947565b92915050565b60008151905061044681610947565b92915050565b600082601f830112610461576104606108d0565b5b81356104718482602086016103e0565b91505092915050565b6000813590506104898161095e565b92915050565b6000602082840312156104a5576104a46108df565b5b60006104b384828501610437565b91505092915050565b600080600080608085870312156104d6576104d56108df565b5b60006104e487828801610422565b94505060206104f587828801610422565b93505060406105068782880161047a565b925050606085013567ffffffffffffffff811115610527576105266108da565b5b6105338782880161044c565b91505092959194509250565b600060208284031215610555576105546108df565b5b60006105638482850161047a565b91505092915050565b6105758161078d565b82525050565b6105848161079f565b82525050565b610593816107f5565b82525050565b6105a281610807565b82525050565b6105b181610819565b82525050565b6105c08161082b565b82525050565b60006105d360098361077c565b91506105de826108f5565b602082019050919050565b60006105f6601f8361077c565b91506106018261091e565b602082019050919050565b610615816107eb565b82525050565b6000602082019050610630600083018461056c565b92915050565b600060408201905061064b600083018561056c565b61065860208301846105b7565b9392505050565b6000602082019050610674600083018461057b565b92915050565b600060208201905061068f600083018461058a565b92915050565b60006020820190506106aa6000830184610599565b92915050565b60006020820190506106c560008301846105a8565b92915050565b600060208201905081810360008301526106e4816105c6565b9050919050565b60006020820190508181036000830152610704816105e9565b9050919050565b6000602082019050610720600083018461060c565b92915050565b6000610730610741565b905061073c8282610870565b919050565b6000604051905090565b600067ffffffffffffffff821115610766576107656108a1565b5b61076f826108e4565b9050602081019050919050565b600082825260208201905092915050565b6000610798826107cb565b9050919050565b60007fffffffff0000000000000000000000000000000000000000000000000000000082169050919050565b600073ffffffffffffffffffffffffffffffffffffffff82169050919050565b6000819050919050565b60006108008261083d565b9050919050565b60006108128261083d565b9050919050565b60006108248261083d565b9050919050565b6000610836826107eb565b9050919050565b60006108488261084f565b9050919050565b600061085a826107cb565b9050919050565b82818337600083830152505050565b610879826108e4565b810181811067ffffffffffffffff82111715610898576108976108a1565b5b80604052505050565b7f4e487b7100000000000000000000000000000000000000000000000000000000600052604160045260246000fd5b600080fd5b600080fd5b600080fd5b600080fd5b6000601f19601f8301169050919050565b7f4e6f74206f776e65720000000000000000000000000000000000000000000000600082015250565b7f5265656e7472616e637947756172643a207265656e7472616e742063616c6c00600082015250565b6109508161078d565b811461095b57600080fd5b50565b610967816107eb565b811461097257600080fd5b5056fea26469706673582212200db87c230d97154b218530edc9af852f3ac340517f7b141d73cc43539188918564736f6c63430008070033",
					"opcodes": "PUSH1 0x80 PUSH1 0x40 MSTORE PUSH1 0x0 PUSH1 0x5 SSTORE CALLVALUE DUP1 ISZERO PUSH2 0x15 JUMPI PUSH1 0x0 DUP1 REVERT JUMPDEST POP PUSH1 0x40 MLOAD PUSH2 0xBA7 CODESIZE SUB DUP1 PUSH2 0xBA7 DUP4 CODECOPY DUP2 DUP2 ADD PUSH1 0x40 MSTORE DUP2 ADD SWAP1 PUSH2 0x37 SWAP2 SWAP1 PUSH2 0x15F JUMP JUMPDEST PUSH1 0x1 PUSH1 0x0 DUP2 SWAP1 SSTORE POP DUP2 PUSH1 0x2 PUSH1 0x0 PUSH2 0x100 EXP DUP2 SLOAD DUP2 PUSH20 0xFFFFFFFFFFFFFFFFFFFFFFFFFFFFFFFFFFFFFFFF MUL NOT AND SWAP1 DUP4 PUSH20 0xFFFFFFFFFFFFFFFFFFFFFFFFFFFFFFFFFFFFFFFF AND MUL OR SWAP1 SSTORE POP DUP2 PUSH1 0x3 PUSH1 0x0 PUSH2 0x100 EXP DUP2 SLOAD DUP2 PUSH20 0xFFFFFFFFFFFFFFFFFFFFFFFFFFFFFFFFFFFFFFFF MUL NOT AND SWAP1 DUP4 PUSH20 0xFFFFFFFFFFFFFFFFFFFFFFFFFFFFFFFFFFFFFFFF AND MUL OR SWAP1 SSTORE POP DUP1 PUSH1 0x1 PUSH1 0x0 PUSH2 0x100 EXP DUP2 SLOAD DUP2 PUSH20 0xFFFFFFFFFFFFFFFFFFFFFFFFFFFFFFFFFFFFFFFF MUL NOT AND SWAP1 DUP4 PUSH20 0xFFFFFFFFFFFFFFFFFFFFFFFFFFFFFFFFFFFFFFFF AND MUL OR SWAP1 SSTORE POP DUP2 PUSH1 0x4 PUSH1 0x0 PUSH2 0x100 EXP DUP2 SLOAD DUP2 PUSH20 0xFFFFFFFFFFFFFFFFFFFFFFFFFFFFFFFFFFFFFFFF MUL NOT AND SWAP1 DUP4 PUSH20 0xFFFFFFFFFFFFFFFFFFFFFFFFFFFFFFFFFFFFFFFF AND MUL OR SWAP1 SSTORE POP POP POP PUSH2 0x1ED JUMP JUMPDEST PUSH1 0x0 DUP2 MLOAD SWAP1 POP PUSH2 0x159 DUP2 PUSH2 0x1D6 JUMP JUMPDEST SWAP3 SWAP2 POP POP JUMP JUMPDEST PUSH1 0x0 DUP1 PUSH1 0x40 DUP4 DUP6 SUB SLT ISZERO PUSH2 0x176 JUMPI PUSH2 0x175 PUSH2 0x1D1 JUMP JUMPDEST JUMPDEST PUSH1 0x0 PUSH2 0x184 DUP6 DUP3 DUP7 ADD PUSH2 0x14A JUMP JUMPDEST SWAP3 POP POP PUSH1 0x20 PUSH2 0x195 DUP6 DUP3 DUP7 ADD PUSH2 0x14A JUMP JUMPDEST SWAP2 POP POP SWAP3 POP SWAP3 SWAP1 POP JUMP JUMPDEST PUSH1 0x0 PUSH2 0x1AA DUP3 PUSH2 0x1B1 JUMP JUMPDEST SWAP1 POP SWAP2 SWAP1 POP JUMP JUMPDEST PUSH1 0x0 PUSH20 0xFFFFFFFFFFFFFFFFFFFFFFFFFFFFFFFFFFFFFFFF DUP3 AND SWAP1 POP SWAP2 SWAP1 POP JUMP JUMPDEST PUSH1 0x0 DUP1 REVERT JUMPDEST PUSH2 0x1DF DUP2 PUSH2 0x19F JUMP JUMPDEST DUP2 EQ PUSH2 0x1EA JUMPI PUSH1 0x0 DUP1 REVERT JUMPDEST POP JUMP JUMPDEST PUSH2 0x9AB DUP1 PUSH2 0x1FC PUSH1 0x0 CODECOPY PUSH1 0x0 RETURN INVALID PUSH1 0x80 PUSH1 0x40 MSTORE CALLVALUE DUP1 ISZERO PUSH2 0x10 JUMPI PUSH1 0x0 DUP1 REVERT JUMPDEST POP PUSH1 0x4 CALLDATASIZE LT PUSH2 0x62 JUMPI PUSH1 0x0 CALLDATALOAD PUSH1 0xE0 SHR DUP1 PUSH4 0x150B7A02 EQ PUSH2 0x67 JUMPI DUP1 PUSH4 0x66BB863B EQ PUSH2 0x97 JUMPI DUP1 PUSH4 0x80A54001 EQ PUSH2 0xB5 JUMPI DUP1 PUSH4 0xA694FC3A EQ PUSH2 0xD3 JUMPI DUP1 PUSH4 0xB8E33FB2 EQ PUSH2 0xEF JUMPI DUP1 PUSH4 0xFEAD3D6E EQ PUSH2 0x10D JUMPI JUMPDEST PUSH1 0x0 DUP1 REVERT JUMPDEST PUSH2 0x81 PUSH1 0x4 DUP1 CALLDATASIZE SUB DUP2 ADD SWAP1 PUSH2 0x7C SWAP2 SWAP1 PUSH2 0x4BC JUMP JUMPDEST PUSH2 0x12B JUMP JUMPDEST PUSH1 0x40 MLOAD PUSH2 0x8E SWAP2 SWAP1 PUSH2 0x65F JUMP JUMPDEST PUSH1 0x40 MLOAD DUP1 SWAP2 SUB SWAP1 RETURN JUMPDEST PUSH2 0x9F PUSH2 0x147 JUMP JUMPDEST PUSH1 0x40 MLOAD PUSH2 0xAC SWAP2 SWAP1 PUSH2 0x61B JUMP JUMPDEST PUSH1 0x40 MLOAD DUP1 SWAP2 SUB SWAP1 RETURN JUMPDEST PUSH2 0xBD PUSH2 0x16D JUMP JUMPDEST PUSH1 0x40 MLOAD PUSH2 0xCA SWAP2 SWAP1 PUSH2 0x67A JUMP JUMPDEST PUSH1 0x40 MLOAD DUP1 SWAP2 SUB SWAP1 RETURN JUMPDEST PUSH2 0xED PUSH1 0x4 DUP1 CALLDATASIZE SUB DUP2 ADD SWAP1 PUSH2 0xE8 SWAP2 SWAP1 PUSH2 0x53F JUMP JUMPDEST PUSH2 0x193 JUMP JUMPDEST STOP JUMPDEST PUSH2 0xF7 PUSH2 0x394 JUMP JUMPDEST PUSH1 0x40 MLOAD PUSH2 0x104 SWAP2 SWAP1 PUSH2 0x695 JUMP JUMPDEST PUSH1 0x40 MLOAD DUP1 SWAP2 SUB SWAP1 RETURN JUMPDEST PUSH2 0x115 PUSH2 0x3BA JUMP JUMPDEST PUSH1 0x40 MLOAD PUSH2 0x122 SWAP2 SWAP1 PUSH2 0x6B0 JUMP JUMPDEST PUSH1 0x40 MLOAD DUP1 SWAP2 SUB SWAP1 RETURN JUMPDEST PUSH1 0x0 PUSH1 0x1 PUSH1 0x5 DUP2 SWAP1 SSTORE POP PUSH4 0x150B7A02 PUSH1 0xE0 SHL SWAP1 POP SWAP5 SWAP4 POP POP POP POP JUMP JUMPDEST PUSH1 0x4 PUSH1 0x0 SWAP1 SLOAD SWAP1 PUSH2 0x100 EXP SWAP1 DIV PUSH20 0xFFFFFFFFFFFFFFFFFFFFFFFFFFFFFFFFFFFFFFFF AND DUP2 JUMP JUMPDEST PUSH1 0x1 PUSH1 0x0 SWAP1 SLOAD SWAP1 PUSH2 0x100 EXP SWAP1 DIV PUSH20 0xFFFFFFFFFFFFFFFFFFFFFFFFFFFFFFFFFFFFFFFF AND DUP2 JUMP JUMPDEST PUSH1 0x2 PUSH1 0x0 SLOAD EQ ISZERO PUSH2 0x1D9 JUMPI PUSH1 0x40 MLOAD PUSH32 0x8C379A000000000000000000000000000000000000000000000000000000000 DUP2 MSTORE PUSH1 0x4 ADD PUSH2 0x1D0 SWAP1 PUSH2 0x6EB JUMP JUMPDEST PUSH1 0x40 MLOAD DUP1 SWAP2 SUB SWAP1 REVERT JUMPDEST PUSH1 0x2 PUSH1 0x0 DUP2 SWAP1 SSTORE POP CALLER PUSH20 0xFFFFFFFFFFFFFFFFFFFFFFFFFFFFFFFFFFFFFFFF AND PUSH1 0x2 PUSH1 0x0 SWAP1 SLOAD SWAP1 PUSH2 0x100 EXP SWAP1 DIV PUSH20 0xFFFFFFFFFFFFFFFFFFFFFFFFFFFFFFFFFFFFFFFF AND PUSH20 0xFFFFFFFFFFFFFFFFFFFFFFFFFFFFFFFFFFFFFFFF AND PUSH4 0x6352211E DUP4 PUSH1 0x40 MLOAD DUP3 PUSH4 0xFFFFFFFF AND PUSH1 0xE0 SHL DUP2 MSTORE PUSH1 0x4 ADD PUSH2 0x253 SWAP2 SWAP1 PUSH2 0x70B JUMP JUMPDEST PUSH1 0x20 PUSH1 0x40 MLOAD DUP1 DUP4 SUB DUP2 DUP7 DUP1 EXTCODESIZE ISZERO DUP1 ISZERO PUSH2 0x26B JUMPI PUSH1 0x0 DUP1 REVERT JUMPDEST POP GAS STATICCALL ISZERO DUP1 ISZERO PUSH2 0x27F JUMPI RETURNDATASIZE PUSH1 0x0 DUP1 RETURNDATACOPY RETURNDATASIZE PUSH1 0x0 REVERT JUMPDEST POP POP POP POP PUSH1 0x40 MLOAD RETURNDATASIZE PUSH1 0x1F NOT PUSH1 0x1F DUP3 ADD AND DUP3 ADD DUP1 PUSH1 0x40 MSTORE POP DUP2 ADD SWAP1 PUSH2 0x2A3 SWAP2 SWAP1 PUSH2 0x48F JUMP JUMPDEST PUSH20 0xFFFFFFFFFFFFFFFFFFFFFFFFFFFFFFFFFFFFFFFF AND EQ PUSH2 0x2F9 JUMPI PUSH1 0x40 MLOAD PUSH32 0x8C379A000000000000000000000000000000000000000000000000000000000 DUP2 MSTORE PUSH1 0x4 ADD PUSH2 0x2F0 SWAP1 PUSH2 0x6CB JUMP JUMPDEST PUSH1 0x40 MLOAD DUP1 SWAP2 SUB SWAP1 REVERT JUMPDEST PUSH1 0x2 PUSH1 0x0 SWAP1 SLOAD SWAP1 PUSH2 0x100 EXP SWAP1 DIV PUSH20 0xFFFFFFFFFFFFFFFFFFFFFFFFFFFFFFFFFFFFFFFF AND PUSH20 0xFFFFFFFFFFFFFFFFFFFFFFFFFFFFFFFFFFFFFFFF AND PUSH4 0x95EA7B3 ADDRESS PUSH1 0x1 PUSH1 0x40 MLOAD DUP4 PUSH4 0xFFFFFFFF AND PUSH1 0xE0 SHL DUP2 MSTORE PUSH1 0x4 ADD PUSH2 0x357 SWAP3 SWAP2 SWAP1 PUSH2 0x636 JUMP JUMPDEST PUSH1 0x0 PUSH1 0x40 MLOAD DUP1 DUP4 SUB DUP2 PUSH1 0x0 DUP8 DUP1 EXTCODESIZE ISZERO DUP1 ISZERO PUSH2 0x371 JUMPI PUSH1 0x0 DUP1 REVERT JUMPDEST POP GAS CALL ISZERO DUP1 ISZERO PUSH2 0x385 JUMPI RETURNDATASIZE PUSH1 0x0 DUP1 RETURNDATACOPY RETURNDATASIZE PUSH1 0x0 REVERT JUMPDEST POP POP POP POP PUSH1 0x1 PUSH1 0x0 DUP2 SWAP1 SSTORE POP POP JUMP JUMPDEST PUSH1 0x2 PUSH1 0x0 SWAP1 SLOAD SWAP1 PUSH2 0x100 EXP SWAP1 DIV PUSH20 0xFFFFFFFFFFFFFFFFFFFFFFFFFFFFFFFFFFFFFFFF AND DUP2 JUMP JUMPDEST PUSH1 0x3 PUSH1 0x0 SWAP1 SLOAD SWAP1 PUSH2 0x100 EXP SWAP1 DIV PUSH20 0xFFFFFFFFFFFFFFFFFFFFFFFFFFFFFFFFFFFFFFFF AND DUP2 JUMP JUMPDEST PUSH1 0x0 PUSH2 0x3F3 PUSH2 0x3EE DUP5 PUSH2 0x74B JUMP JUMPDEST PUSH2 0x726 JUMP JUMPDEST SWAP1 POP DUP3 DUP2 MSTORE PUSH1 0x20 DUP2 ADD DUP5 DUP5 DUP5 ADD GT ISZERO PUSH2 0x40F JUMPI PUSH2 0x40E PUSH2 0x8D5 JUMP JUMPDEST JUMPDEST PUSH2 0x41A DUP5 DUP3 DUP6 PUSH2 0x861 JUMP JUMPDEST POP SWAP4 SWAP3 POP POP POP JUMP JUMPDEST PUSH1 0x0 DUP2 CALLDATALOAD SWAP1 POP PUSH2 0x431 DUP2 PUSH2 0x947 JUMP JUMPDEST SWAP3 SWAP2 POP POP JUMP JUMPDEST PUSH1 0x0 DUP2 MLOAD SWAP1 POP PUSH2 0x446 DUP2 PUSH2 0x947 JUMP JUMPDEST SWAP3 SWAP2 POP POP JUMP JUMPDEST PUSH1 0x0 DUP3 PUSH1 0x1F DUP4 ADD SLT PUSH2 0x461 JUMPI PUSH2 0x460 PUSH2 0x8D0 JUMP JUMPDEST JUMPDEST DUP2 CALLDATALOAD PUSH2 0x471 DUP5 DUP3 PUSH1 0x20 DUP7 ADD PUSH2 0x3E0 JUMP JUMPDEST SWAP2 POP POP SWAP3 SWAP2 POP POP JUMP JUMPDEST PUSH1 0x0 DUP2 CALLDATALOAD SWAP1 POP PUSH2 0x489 DUP2 PUSH2 0x95E JUMP JUMPDEST SWAP3 SWAP2 POP POP JUMP JUMPDEST PUSH1 0x0 PUSH1 0x20 DUP3 DUP5 SUB SLT ISZERO PUSH2 0x4A5 JUMPI PUSH2 0x4A4 PUSH2 0x8DF JUMP JUMPDEST JUMPDEST PUSH1 0x0 PUSH2 0x4B3 DUP5 DUP3 DUP6 ADD PUSH2 0x437 JUMP JUMPDEST SWAP2 POP POP SWAP3 SWAP2 POP POP JUMP JUMPDEST PUSH1 0x0 DUP1 PUSH1 0x0 DUP1 PUSH1 0x80 DUP6 DUP8 SUB SLT ISZERO PUSH2 0x4D6 JUMPI PUSH2 0x4D5 PUSH2 0x8DF JUMP JUMPDEST JUMPDEST PUSH1 0x0 PUSH2 0x4E4 DUP8 DUP3 DUP9 ADD PUSH2 0x422 JUMP JUMPDEST SWAP5 POP POP PUSH1 0x20 PUSH2 0x4F5 DUP8 DUP3 DUP9 ADD PUSH2 0x422 JUMP JUMPDEST SWAP4 POP POP PUSH1 0x40 PUSH2 0x506 DUP8 DUP3 DUP9 ADD PUSH2 0x47A JUMP JUMPDEST SWAP3 POP POP PUSH1 0x60 DUP6 ADD CALLDATALOAD PUSH8 0xFFFFFFFFFFFFFFFF DUP2 GT ISZERO PUSH2 0x527 JUMPI PUSH2 0x526 PUSH2 0x8DA JUMP JUMPDEST JUMPDEST PUSH2 0x533 DUP8 DUP3 DUP9 ADD PUSH2 0x44C JUMP JUMPDEST SWAP2 POP POP SWAP3 SWAP6 SWAP2 SWAP5 POP SWAP3 POP JUMP JUMPDEST PUSH1 0x0 PUSH1 0x20 DUP3 DUP5 SUB SLT ISZERO PUSH2 0x555 JUMPI PUSH2 0x554 PUSH2 0x8DF JUMP JUMPDEST JUMPDEST PUSH1 0x0 PUSH2 0x563 DUP5 DUP3 DUP6 ADD PUSH2 0x47A JUMP JUMPDEST SWAP2 POP POP SWAP3 SWAP2 POP POP JUMP JUMPDEST PUSH2 0x575 DUP2 PUSH2 0x78D JUMP JUMPDEST DUP3 MSTORE POP POP JUMP JUMPDEST PUSH2 0x584 DUP2 PUSH2 0x79F JUMP JUMPDEST DUP3 MSTORE POP POP JUMP JUMPDEST PUSH2 0x593 DUP2 PUSH2 0x7F5 JUMP JUMPDEST DUP3 MSTORE POP POP JUMP JUMPDEST PUSH2 0x5A2 DUP2 PUSH2 0x807 JUMP JUMPDEST DUP3 MSTORE POP POP JUMP JUMPDEST PUSH2 0x5B1 DUP2 PUSH2 0x819 JUMP JUMPDEST DUP3 MSTORE POP POP JUMP JUMPDEST PUSH2 0x5C0 DUP2 PUSH2 0x82B JUMP JUMPDEST DUP3 MSTORE POP POP JUMP JUMPDEST PUSH1 0x0 PUSH2 0x5D3 PUSH1 0x9 DUP4 PUSH2 0x77C JUMP JUMPDEST SWAP2 POP PUSH2 0x5DE DUP3 PUSH2 0x8F5 JUMP JUMPDEST PUSH1 0x20 DUP3 ADD SWAP1 POP SWAP2 SWAP1 POP JUMP JUMPDEST PUSH1 0x0 PUSH2 0x5F6 PUSH1 0x1F DUP4 PUSH2 0x77C JUMP JUMPDEST SWAP2 POP PUSH2 0x601 DUP3 PUSH2 0x91E JUMP JUMPDEST PUSH1 0x20 DUP3 ADD SWAP1 POP SWAP2 SWAP1 POP JUMP JUMPDEST PUSH2 0x615 DUP2 PUSH2 0x7EB JUMP JUMPDEST DUP3 MSTORE POP POP JUMP JUMPDEST PUSH1 0x0 PUSH1 0x20 DUP3 ADD SWAP1 POP PUSH2 0x630 PUSH1 0x0 DUP4 ADD DUP5 PUSH2 0x56C JUMP JUMPDEST SWAP3 SWAP2 POP POP JUMP JUMPDEST PUSH1 0x0 PUSH1 0x40 DUP3 ADD SWAP1 POP PUSH2 0x64B PUSH1 0x0 DUP4 ADD DUP6 PUSH2 0x56C JUMP JUMPDEST PUSH2 0x658 PUSH1 0x20 DUP4 ADD DUP5 PUSH2 0x5B7 JUMP JUMPDEST SWAP4 SWAP3 POP POP POP JUMP JUMPDEST PUSH1 0x0 PUSH1 0x20 DUP3 ADD SWAP1 POP PUSH2 0x674 PUSH1 0x0 DUP4 ADD DUP5 PUSH2 0x57B JUMP JUMPDEST SWAP3 SWAP2 POP POP JUMP JUMPDEST PUSH1 0x0 PUSH1 0x20 DUP3 ADD SWAP1 POP PUSH2 0x68F PUSH1 0x0 DUP4 ADD DUP5 PUSH2 0x58A JUMP JUMPDEST SWAP3 SWAP2 POP POP JUMP JUMPDEST PUSH1 0x0 PUSH1 0x20 DUP3 ADD SWAP1 POP PUSH2 0x6AA PUSH1 0x0 DUP4 ADD DUP5 PUSH2 0x599 JUMP JUMPDEST SWAP3 SWAP2 POP POP JUMP JUMPDEST PUSH1 0x0 PUSH1 0x20 DUP3 ADD SWAP1 POP PUSH2 0x6C5 PUSH1 0x0 DUP4 ADD DUP5 PUSH2 0x5A8 JUMP JUMPDEST SWAP3 SWAP2 POP POP JUMP JUMPDEST PUSH1 0x0 PUSH1 0x20 DUP3 ADD SWAP1 POP DUP2 DUP2 SUB PUSH1 0x0 DUP4 ADD MSTORE PUSH2 0x6E4 DUP2 PUSH2 0x5C6 JUMP JUMPDEST SWAP1 POP SWAP2 SWAP1 POP JUMP JUMPDEST PUSH1 0x0 PUSH1 0x20 DUP3 ADD SWAP1 POP DUP2 DUP2 SUB PUSH1 0x0 DUP4 ADD MSTORE PUSH2 0x704 DUP2 PUSH2 0x5E9 JUMP JUMPDEST SWAP1 POP SWAP2 SWAP1 POP JUMP JUMPDEST PUSH1 0x0 PUSH1 0x20 DUP3 ADD SWAP1 POP PUSH2 0x720 PUSH1 0x0 DUP4 ADD DUP5 PUSH2 0x60C JUMP JUMPDEST SWAP3 SWAP2 POP POP JUMP JUMPDEST PUSH1 0x0 PUSH2 0x730 PUSH2 0x741 JUMP JUMPDEST SWAP1 POP PUSH2 0x73C DUP3 DUP3 PUSH2 0x870 JUMP JUMPDEST SWAP2 SWAP1 POP JUMP JUMPDEST PUSH1 0x0 PUSH1 0x40 MLOAD SWAP1 POP SWAP1 JUMP JUMPDEST PUSH1 0x0 PUSH8 0xFFFFFFFFFFFFFFFF DUP3 GT ISZERO PUSH2 0x766 JUMPI PUSH2 0x765 PUSH2 0x8A1 JUMP JUMPDEST JUMPDEST PUSH2 0x76F DUP3 PUSH2 0x8E4 JUMP JUMPDEST SWAP1 POP PUSH1 0x20 DUP2 ADD SWAP1 POP SWAP2 SWAP1 POP JUMP JUMPDEST PUSH1 0x0 DUP3 DUP3 MSTORE PUSH1 0x20 DUP3 ADD SWAP1 POP SWAP3 SWAP2 POP POP JUMP JUMPDEST PUSH1 0x0 PUSH2 0x798 DUP3 PUSH2 0x7CB JUMP JUMPDEST SWAP1 POP SWAP2 SWAP1 POP JUMP JUMPDEST PUSH1 0x0 PUSH32 0xFFFFFFFF00000000000000000000000000000000000000000000000000000000 DUP3 AND SWAP1 POP SWAP2 SWAP1 POP JUMP JUMPDEST PUSH1 0x0 PUSH20 0xFFFFFFFFFFFFFFFFFFFFFFFFFFFFFFFFFFFFFFFF DUP3 AND SWAP1 POP SWAP2 SWAP1 POP JUMP JUMPDEST PUSH1 0x0 DUP2 SWAP1 POP SWAP2 SWAP1 POP JUMP JUMPDEST PUSH1 0x0 PUSH2 0x800 DUP3 PUSH2 0x83D JUMP JUMPDEST SWAP1 POP SWAP2 SWAP1 POP JUMP JUMPDEST PUSH1 0x0 PUSH2 0x812 DUP3 PUSH2 0x83D JUMP JUMPDEST SWAP1 POP SWAP2 SWAP1 POP JUMP JUMPDEST PUSH1 0x0 PUSH2 0x824 DUP3 PUSH2 0x83D JUMP JUMPDEST SWAP1 POP SWAP2 SWAP1 POP JUMP JUMPDEST PUSH1 0x0 PUSH2 0x836 DUP3 PUSH2 0x7EB JUMP JUMPDEST SWAP1 POP SWAP2 SWAP1 POP JUMP JUMPDEST PUSH1 0x0 PUSH2 0x848 DUP3 PUSH2 0x84F JUMP JUMPDEST SWAP1 POP SWAP2 SWAP1 POP JUMP JUMPDEST PUSH1 0x0 PUSH2 0x85A DUP3 PUSH2 0x7CB JUMP JUMPDEST SWAP1 POP SWAP2 SWAP1 POP JUMP JUMPDEST DUP3 DUP2 DUP4 CALLDATACOPY PUSH1 0x0 DUP4 DUP4 ADD MSTORE POP POP POP JUMP JUMPDEST PUSH2 0x879 DUP3 PUSH2 0x8E4 JUMP JUMPDEST DUP2 ADD DUP2 DUP2 LT PUSH8 0xFFFFFFFFFFFFFFFF DUP3 GT OR ISZERO PUSH2 0x898 JUMPI PUSH2 0x897 PUSH2 0x8A1 JUMP JUMPDEST JUMPDEST DUP1 PUSH1 0x40 MSTORE POP POP POP JUMP JUMPDEST PUSH32 0x4E487B7100000000000000000000000000000000000000000000000000000000 PUSH1 0x0 MSTORE PUSH1 0x41 PUSH1 0x4 MSTORE PUSH1 0x24 PUSH1 0x0 REVERT JUMPDEST PUSH1 0x0 DUP1 REVERT JUMPDEST PUSH1 0x0 DUP1 REVERT JUMPDEST PUSH1 0x0 DUP1 REVERT JUMPDEST PUSH1 0x0 DUP1 REVERT JUMPDEST PUSH1 0x0 PUSH1 0x1F NOT PUSH1 0x1F DUP4 ADD AND SWAP1 POP SWAP2 SWAP1 POP JUMP JUMPDEST PUSH32 0x4E6F74206F776E65720000000000000000000000000000000000000000000000 PUSH1 0x0 DUP3 ADD MSTORE POP JUMP JUMPDEST PUSH32 0x5265656E7472616E637947756172643A207265656E7472616E742063616C6C00 PUSH1 0x0 DUP3 ADD MSTORE POP JUMP JUMPDEST PUSH2 0x950 DUP2 PUSH2 0x78D JUMP JUMPDEST DUP2 EQ PUSH2 0x95B JUMPI PUSH1 0x0 DUP1 REVERT JUMPDEST POP JUMP JUMPDEST PUSH2 0x967 DUP2 PUSH2 0x7EB JUMP JUMPDEST DUP2 EQ PUSH2 0x972 JUMPI PUSH1 0x0 DUP1 REVERT JUMPDEST POP JUMP INVALID LOG2 PUSH5 0x6970667358 0x22 SLT KECCAK256 0xD 0xB8 PUSH29 0x230D97154B218530EDC9AF852F3AC340517F7B141D73CC435391889185 PUSH5 0x736F6C6343 STOP ADDMOD SMOD STOP CALLER "
				},
				"gasEstimates": {
					"creation": {
						"codeDepositCost": "495000",
						"executionCost": "infinite",
						"totalCost": "infinite"
					},
					"external": {
						"onERC721Received(address,address,uint256,bytes)": "infinite",
						"parentNFT()": "2666",
						"parentNFTAddress()": "2514",
						"parentNftFunctions()": "2688",
						"parentToken()": "2622",
						"stake(uint256)": "infinite"
					}
				},
				"methodIdentifiers": {
					"onERC721Received(address,address,uint256,bytes)": "150b7a02",
					"parentNFT()": "b8e33fb2",
					"parentNFTAddress()": "66bb863b",
					"parentNftFunctions()": "fead3d6e",
					"parentToken()": "80a54001",
					"stake(uint256)": "a694fc3a"
				}
			},
			"storageLayout": {
				"storage": [
					{
						"astId": 10,
						"contract": "contracts/Missions.sol:Staking",
						"label": "_status",
						"offset": 0,
						"slot": "0",
						"type": "t_uint256"
					},
					{
						"astId": 263,
						"contract": "contracts/Missions.sol:Staking",
						"label": "parentToken",
						"offset": 0,
						"slot": "1",
						"type": "t_contract(IERC20)117"
					},
					{
						"astId": 266,
						"contract": "contracts/Missions.sol:Staking",
						"label": "parentNFT",
						"offset": 0,
						"slot": "2",
						"type": "t_contract(IERC721)233"
					},
					{
						"astId": 269,
						"contract": "contracts/Missions.sol:Staking",
						"label": "parentNftFunctions",
						"offset": 0,
						"slot": "3",
						"type": "t_contract(INFTGame)258"
					},
					{
						"astId": 271,
						"contract": "contracts/Missions.sol:Staking",
						"label": "parentNFTAddress",
						"offset": 0,
						"slot": "4",
						"type": "t_address"
					},
					{
						"astId": 333,
						"contract": "contracts/Missions.sol:Staking",
						"label": "hello",
						"offset": 0,
						"slot": "5",
						"type": "t_uint256"
					}
				],
				"types": {
					"t_address": {
						"encoding": "inplace",
						"label": "address",
						"numberOfBytes": "20"
					},
					"t_contract(IERC20)117": {
						"encoding": "inplace",
						"label": "contract IERC20",
						"numberOfBytes": "20"
					},
					"t_contract(IERC721)233": {
						"encoding": "inplace",
						"label": "contract IERC721",
						"numberOfBytes": "20"
					},
					"t_contract(INFTGame)258": {
						"encoding": "inplace",
						"label": "contract INFTGame",
						"numberOfBytes": "20"
					},
					"t_uint256": {
						"encoding": "inplace",
						"label": "uint256",
						"numberOfBytes": "32"
					}
				}
			},
			"userdoc": {
				"kind": "user",
				"methods": {},
				"version": 1
			}
		}
	}
}